{
	"contracts/POC_Bridge/SideBridge.sol": {
		"SideBridge": {
			"abi": [
				{
					"inputs": [
						{
							"internalType": "address",
							"name": "_gateway",
							"type": "address"
						}
					],
					"stateMutability": "nonpayable",
					"type": "constructor"
				},
				{
					"anonymous": false,
					"inputs": [
						{
							"indexed": true,
							"internalType": "uint256",
							"name": "timestamp",
							"type": "uint256"
						}
					],
					"name": "BridgeInitialized",
					"type": "event"
				},
				{
					"anonymous": false,
					"inputs": [
						{
							"indexed": true,
							"internalType": "address",
							"name": "requester",
							"type": "address"
						},
						{
							"indexed": true,
							"internalType": "bytes32",
							"name": "mainDepositHash",
							"type": "bytes32"
						},
						{
							"indexed": false,
							"internalType": "uint256",
							"name": "amount",
							"type": "uint256"
						},
						{
							"indexed": false,
							"internalType": "uint256",
							"name": "timestamp",
							"type": "uint256"
						}
					],
					"name": "TokensBridged",
					"type": "event"
				},
				{
					"anonymous": false,
					"inputs": [
						{
							"indexed": true,
							"internalType": "address",
							"name": "requester",
							"type": "address"
						},
						{
							"indexed": true,
							"internalType": "bytes32",
							"name": "sideDepositHash",
							"type": "bytes32"
						},
						{
							"indexed": false,
							"internalType": "uint256",
							"name": "amount",
							"type": "uint256"
						},
						{
							"indexed": false,
							"internalType": "uint256",
							"name": "timestamp",
							"type": "uint256"
						}
					],
					"name": "TokensReturned",
					"type": "event"
				},
				{
					"inputs": [
						{
							"internalType": "address",
							"name": "_requester",
							"type": "address"
						},
						{
							"internalType": "uint256",
							"name": "_bridgedAmount",
							"type": "uint256"
						},
						{
							"internalType": "bytes32",
							"name": "_mainDepositHash",
							"type": "bytes32"
						}
					],
					"name": "bridgeTokens",
					"outputs": [],
					"stateMutability": "nonpayable",
					"type": "function"
				},
				{
					"inputs": [
						{
							"internalType": "address",
							"name": "_childTokenAddress",
							"type": "address"
						}
					],
					"name": "initializeBridge",
					"outputs": [],
					"stateMutability": "nonpayable",
					"type": "function"
				},
				{
					"inputs": [
						{
							"internalType": "address",
							"name": "_requester",
							"type": "address"
						},
						{
							"internalType": "uint256",
							"name": "_bridgedAmount",
							"type": "uint256"
						},
						{
							"internalType": "bytes32",
							"name": "_sideDepositHash",
							"type": "bytes32"
						}
					],
					"name": "returnTokens",
					"outputs": [],
					"stateMutability": "nonpayable",
					"type": "function"
				}
			],
			"devdoc": {
				"kind": "dev",
				"methods": {},
				"version": 1
			},
			"evm": {
				"assembly": "    /* \"contracts/POC_Bridge/SideBridge.sol\":107:1726  contract SideBridge {... */\n  mstore(0x40, 0x80)\n    /* \"contracts/POC_Bridge/SideBridge.sol\":524:618  constructor (address _gateway) {... */\n  callvalue\n  dup1\n  iszero\n  tag_1\n  jumpi\n  0x00\n  dup1\n  revert\ntag_1:\n  pop\n  mload(0x40)\n  sub(codesize, bytecodeSize)\n  dup1\n  bytecodeSize\n  dup4\n  codecopy\n  dup2\n  dup2\n  add\n  0x40\n  mstore\n  dup2\n  add\n  swap1\n  tag_2\n  swap2\n  swap1\n  tag_3\n  jump\t// in\ntag_2:\n    /* \"contracts/POC_Bridge/SideBridge.sol\":575:583  _gateway */\n  dup1\n    /* \"contracts/POC_Bridge/SideBridge.sol\":565:572  gateway */\n  0x02\n  0x00\n    /* \"contracts/POC_Bridge/SideBridge.sol\":565:583  gateway = _gateway */\n  0x0100\n  exp\n  dup2\n  sload\n  dup2\n  0xffffffffffffffffffffffffffffffffffffffff\n  mul\n  not\n  and\n  swap1\n  dup4\n  0xffffffffffffffffffffffffffffffffffffffff\n  and\n  mul\n  or\n  swap1\n  sstore\n  pop\n    /* \"contracts/POC_Bridge/SideBridge.sol\":601:611  msg.sender */\n  caller\n    /* \"contracts/POC_Bridge/SideBridge.sol\":593:598  owner */\n  0x01\n  0x00\n    /* \"contracts/POC_Bridge/SideBridge.sol\":593:611  owner = msg.sender */\n  0x0100\n  exp\n  dup2\n  sload\n  dup2\n  0xffffffffffffffffffffffffffffffffffffffff\n  mul\n  not\n  and\n  swap1\n  dup4\n  0xffffffffffffffffffffffffffffffffffffffff\n  and\n  mul\n  or\n  swap1\n  sstore\n  pop\n    /* \"contracts/POC_Bridge/SideBridge.sol\":524:618  constructor (address _gateway) {... */\n  pop\n    /* \"contracts/POC_Bridge/SideBridge.sol\":107:1726  contract SideBridge {... */\n  jump(tag_6)\n    /* \"#utility.yul\":7:150   */\ntag_8:\n    /* \"#utility.yul\":64:69   */\n  0x00\n    /* \"#utility.yul\":95:101   */\n  dup2\n    /* \"#utility.yul\":89:102   */\n  mload\n    /* \"#utility.yul\":80:102   */\n  swap1\n  pop\n    /* \"#utility.yul\":111:144   */\n  tag_10\n    /* \"#utility.yul\":138:143   */\n  dup2\n    /* \"#utility.yul\":111:144   */\n  tag_11\n  jump\t// in\ntag_10:\n    /* \"#utility.yul\":7:150   */\n  swap3\n  swap2\n  pop\n  pop\n  jump\t// out\n    /* \"#utility.yul\":156:507   */\ntag_3:\n    /* \"#utility.yul\":226:232   */\n  0x00\n    /* \"#utility.yul\":275:277   */\n  0x20\n    /* \"#utility.yul\":263:272   */\n  dup3\n    /* \"#utility.yul\":254:261   */\n  dup5\n    /* \"#utility.yul\":250:273   */\n  sub\n    /* \"#utility.yul\":246:278   */\n  slt\n    /* \"#utility.yul\":243:362   */\n  iszero\n  tag_13\n  jumpi\n    /* \"#utility.yul\":281:360   */\n  tag_14\n  tag_15\n  jump\t// in\ntag_14:\n    /* \"#utility.yul\":243:362   */\ntag_13:\n    /* \"#utility.yul\":401:402   */\n  0x00\n    /* \"#utility.yul\":426:490   */\n  tag_16\n    /* \"#utility.yul\":482:489   */\n  dup5\n    /* \"#utility.yul\":473:479   */\n  dup3\n    /* \"#utility.yul\":462:471   */\n  dup6\n    /* \"#utility.yul\":458:480   */\n  add\n    /* \"#utility.yul\":426:490   */\n  tag_8\n  jump\t// in\ntag_16:\n    /* \"#utility.yul\":416:490   */\n  swap2\n  pop\n    /* \"#utility.yul\":372:500   */\n  pop\n    /* \"#utility.yul\":156:507   */\n  swap3\n  swap2\n  pop\n  pop\n  jump\t// out\n    /* \"#utility.yul\":594:690   */\ntag_19:\n    /* \"#utility.yul\":631:638   */\n  0x00\n    /* \"#utility.yul\":660:684   */\n  tag_21\n    /* \"#utility.yul\":678:683   */\n  dup3\n    /* \"#utility.yul\":660:684   */\n  tag_22\n  jump\t// in\ntag_21:\n    /* \"#utility.yul\":649:684   */\n  swap1\n  pop\n    /* \"#utility.yul\":594:690   */\n  swap2\n  swap1\n  pop\n  jump\t// out\n    /* \"#utility.yul\":696:822   */\ntag_22:\n    /* \"#utility.yul\":733:740   */\n  0x00\n    /* \"#utility.yul\":773:815   */\n  0xffffffffffffffffffffffffffffffffffffffff\n    /* \"#utility.yul\":766:771   */\n  dup3\n    /* \"#utility.yul\":762:816   */\n  and\n    /* \"#utility.yul\":751:816   */\n  swap1\n  pop\n    /* \"#utility.yul\":696:822   */\n  swap2\n  swap1\n  pop\n  jump\t// out\n    /* \"#utility.yul\":951:1068   */\ntag_15:\n    /* \"#utility.yul\":1060:1061   */\n  0x00\n    /* \"#utility.yul\":1057:1058   */\n  dup1\n    /* \"#utility.yul\":1050:1062   */\n  revert\n    /* \"#utility.yul\":1074:1196   */\ntag_11:\n    /* \"#utility.yul\":1147:1171   */\n  tag_28\n    /* \"#utility.yul\":1165:1170   */\n  dup2\n    /* \"#utility.yul\":1147:1171   */\n  tag_19\n  jump\t// in\ntag_28:\n    /* \"#utility.yul\":1140:1145   */\n  dup2\n    /* \"#utility.yul\":1137:1172   */\n  eq\n    /* \"#utility.yul\":1127:1190   */\n  tag_29\n  jumpi\n    /* \"#utility.yul\":1186:1187   */\n  0x00\n    /* \"#utility.yul\":1183:1184   */\n  dup1\n    /* \"#utility.yul\":1176:1188   */\n  revert\n    /* \"#utility.yul\":1127:1190   */\ntag_29:\n    /* \"#utility.yul\":1074:1196   */\n  pop\n  jump\t// out\n    /* \"contracts/POC_Bridge/SideBridge.sol\":107:1726  contract SideBridge {... */\ntag_6:\n  dataSize(sub_0)\n  dup1\n  dataOffset(sub_0)\n  0x00\n  codecopy\n  0x00\n  return\nstop\n\nsub_0: assembly {\n        /* \"contracts/POC_Bridge/SideBridge.sol\":107:1726  contract SideBridge {... */\n      mstore(0x40, 0x80)\n      callvalue\n      dup1\n      iszero\n      tag_1\n      jumpi\n      0x00\n      dup1\n      revert\n    tag_1:\n      pop\n      jumpi(tag_2, lt(calldatasize, 0x04))\n      shr(0xe0, calldataload(0x00))\n      dup1\n      0x2065f2c0\n      eq\n      tag_3\n      jumpi\n      dup1\n      0x5fa420a9\n      eq\n      tag_4\n      jumpi\n      dup1\n      0x7a062791\n      eq\n      tag_5\n      jumpi\n    tag_2:\n      0x00\n      dup1\n      revert\n        /* \"contracts/POC_Bridge/SideBridge.sol\":624:790  function initializeBridge (address _childTokenAddress) onlyOwner external {... */\n    tag_3:\n      tag_6\n      0x04\n      dup1\n      calldatasize\n      sub\n      dup2\n      add\n      swap1\n      tag_7\n      swap2\n      swap1\n      tag_8\n      jump\t// in\n    tag_7:\n      tag_9\n      jump\t// in\n    tag_6:\n      stop\n        /* \"contracts/POC_Bridge/SideBridge.sol\":1084:1355  function returnTokens (address _requester, uint _bridgedAmount, bytes32 _sideDepositHash) verifyInitialization onlyGateway external {... */\n    tag_4:\n      tag_10\n      0x04\n      dup1\n      calldatasize\n      sub\n      dup2\n      add\n      swap1\n      tag_11\n      swap2\n      swap1\n      tag_12\n      jump\t// in\n    tag_11:\n      tag_13\n      jump\t// in\n    tag_10:\n      stop\n        /* \"contracts/POC_Bridge/SideBridge.sol\":796:1078  function bridgeTokens (address _requester, uint _bridgedAmount, bytes32 _mainDepositHash) verifyInitialization onlyGateway  external {... */\n    tag_5:\n      tag_14\n      0x04\n      dup1\n      calldatasize\n      sub\n      dup2\n      add\n      swap1\n      tag_15\n      swap2\n      swap1\n      tag_12\n      jump\t// in\n    tag_15:\n      tag_16\n      jump\t// in\n    tag_14:\n      stop\n        /* \"contracts/POC_Bridge/SideBridge.sol\":624:790  function initializeBridge (address _childTokenAddress) onlyOwner external {... */\n    tag_9:\n        /* \"contracts/POC_Bridge/SideBridge.sol\":1656:1661  owner */\n      0x01\n      0x00\n      swap1\n      sload\n      swap1\n      0x0100\n      exp\n      swap1\n      div\n      0xffffffffffffffffffffffffffffffffffffffff\n      and\n        /* \"contracts/POC_Bridge/SideBridge.sol\":1642:1661  msg.sender == owner */\n      0xffffffffffffffffffffffffffffffffffffffff\n      and\n        /* \"contracts/POC_Bridge/SideBridge.sol\":1642:1652  msg.sender */\n      caller\n        /* \"contracts/POC_Bridge/SideBridge.sol\":1642:1661  msg.sender == owner */\n      0xffffffffffffffffffffffffffffffffffffffff\n      and\n      eq\n        /* \"contracts/POC_Bridge/SideBridge.sol\":1634:1702  require(msg.sender == owner, \"Only owner can execute this function\") */\n      tag_18\n      jumpi\n      mload(0x40)\n      0x08c379a000000000000000000000000000000000000000000000000000000000\n      dup2\n      mstore\n      0x04\n      add\n      tag_19\n      swap1\n      tag_20\n      jump\t// in\n    tag_19:\n      mload(0x40)\n      dup1\n      swap2\n      sub\n      swap1\n      revert\n    tag_18:\n        /* \"contracts/POC_Bridge/SideBridge.sol\":732:750  _childTokenAddress */\n      dup1\n        /* \"contracts/POC_Bridge/SideBridge.sol\":708:717  sideToken */\n      0x00\n      dup1\n        /* \"contracts/POC_Bridge/SideBridge.sol\":708:751  sideToken = IERC20Child(_childTokenAddress) */\n      0x0100\n      exp\n      dup2\n      sload\n      dup2\n      0xffffffffffffffffffffffffffffffffffffffff\n      mul\n      not\n      and\n      swap1\n      dup4\n      0xffffffffffffffffffffffffffffffffffffffff\n      and\n      mul\n      or\n      swap1\n      sstore\n      pop\n        /* \"contracts/POC_Bridge/SideBridge.sol\":779:783  true */\n      0x01\n        /* \"contracts/POC_Bridge/SideBridge.sol\":761:776  bridgeInitState */\n      0x00\n      0x14\n        /* \"contracts/POC_Bridge/SideBridge.sol\":761:783  bridgeInitState = true */\n      0x0100\n      exp\n      dup2\n      sload\n      dup2\n      0xff\n      mul\n      not\n      and\n      swap1\n      dup4\n      iszero\n      iszero\n      mul\n      or\n      swap1\n      sstore\n      pop\n        /* \"contracts/POC_Bridge/SideBridge.sol\":624:790  function initializeBridge (address _childTokenAddress) onlyOwner external {... */\n      pop\n      jump\t// out\n        /* \"contracts/POC_Bridge/SideBridge.sol\":1084:1355  function returnTokens (address _requester, uint _bridgedAmount, bytes32 _sideDepositHash) verifyInitialization onlyGateway external {... */\n    tag_13:\n        /* \"contracts/POC_Bridge/SideBridge.sol\":1407:1422  bridgeInitState */\n      0x00\n      0x14\n      swap1\n      sload\n      swap1\n      0x0100\n      exp\n      swap1\n      div\n      0xff\n      and\n        /* \"contracts/POC_Bridge/SideBridge.sol\":1399:1458  require(bridgeInitState, \"Bridge has not been initialized\") */\n      tag_23\n      jumpi\n      mload(0x40)\n      0x08c379a000000000000000000000000000000000000000000000000000000000\n      dup2\n      mstore\n      0x04\n      add\n      tag_24\n      swap1\n      tag_25\n      jump\t// in\n    tag_24:\n      mload(0x40)\n      dup1\n      swap2\n      sub\n      swap1\n      revert\n    tag_23:\n        /* \"contracts/POC_Bridge/SideBridge.sol\":1535:1542  gateway */\n      0x02\n      0x00\n      swap1\n      sload\n      swap1\n      0x0100\n      exp\n      swap1\n      div\n      0xffffffffffffffffffffffffffffffffffffffff\n      and\n        /* \"contracts/POC_Bridge/SideBridge.sol\":1521:1542  msg.sender == gateway */\n      0xffffffffffffffffffffffffffffffffffffffff\n      and\n        /* \"contracts/POC_Bridge/SideBridge.sol\":1521:1531  msg.sender */\n      caller\n        /* \"contracts/POC_Bridge/SideBridge.sol\":1521:1542  msg.sender == gateway */\n      0xffffffffffffffffffffffffffffffffffffffff\n      and\n      eq\n        /* \"contracts/POC_Bridge/SideBridge.sol\":1513:1585  require(msg.sender == gateway, \"Only gateway can execute this function\") */\n      tag_27\n      jumpi\n      mload(0x40)\n      0x08c379a000000000000000000000000000000000000000000000000000000000\n      dup2\n      mstore\n      0x04\n      add\n      tag_28\n      swap1\n      tag_29\n      jump\t// in\n    tag_28:\n      mload(0x40)\n      dup1\n      swap2\n      sub\n      swap1\n      revert\n    tag_27:\n        /* \"contracts/POC_Bridge/SideBridge.sol\":1226:1235  sideToken */\n      0x00\n      dup1\n      sload\n      swap1\n      0x0100\n      exp\n      swap1\n      div\n      0xffffffffffffffffffffffffffffffffffffffff\n      and\n        /* \"contracts/POC_Bridge/SideBridge.sol\":1226:1240  sideToken.burn */\n      0xffffffffffffffffffffffffffffffffffffffff\n      and\n      0x42966c68\n        /* \"contracts/POC_Bridge/SideBridge.sol\":1241:1255  _bridgedAmount */\n      dup4\n        /* \"contracts/POC_Bridge/SideBridge.sol\":1226:1256  sideToken.burn(_bridgedAmount) */\n      mload(0x40)\n      dup3\n      0xffffffff\n      and\n      0xe0\n      shl\n      dup2\n      mstore\n      0x04\n      add\n      tag_31\n      swap2\n      swap1\n      tag_32\n      jump\t// in\n    tag_31:\n      0x00\n      mload(0x40)\n      dup1\n      dup4\n      sub\n      dup2\n      0x00\n      dup8\n      dup1\n      extcodesize\n      iszero\n      dup1\n      iszero\n      tag_33\n      jumpi\n      0x00\n      dup1\n      revert\n    tag_33:\n      pop\n      gas\n      call\n      iszero\n      dup1\n      iszero\n      tag_35\n      jumpi\n      returndatasize\n      0x00\n      dup1\n      returndatacopy\n      revert(0x00, returndatasize)\n    tag_35:\n      pop\n      pop\n      pop\n      pop\n        /* \"contracts/POC_Bridge/SideBridge.sol\":1298:1314  _sideDepositHash */\n      dup1\n        /* \"contracts/POC_Bridge/SideBridge.sol\":1286:1296  _requester */\n      dup4\n        /* \"contracts/POC_Bridge/SideBridge.sol\":1271:1348  TokensReturned(_requester, _sideDepositHash, _bridgedAmount, block.timestamp) */\n      0xffffffffffffffffffffffffffffffffffffffff\n      and\n      0xba3809a24948d41e15773b22a28a1c0933973b2987dd15c6d028ca91397a4bd6\n        /* \"contracts/POC_Bridge/SideBridge.sol\":1316:1330  _bridgedAmount */\n      dup5\n        /* \"contracts/POC_Bridge/SideBridge.sol\":1332:1347  block.timestamp */\n      timestamp\n        /* \"contracts/POC_Bridge/SideBridge.sol\":1271:1348  TokensReturned(_requester, _sideDepositHash, _bridgedAmount, block.timestamp) */\n      mload(0x40)\n      tag_36\n      swap3\n      swap2\n      swap1\n      tag_37\n      jump\t// in\n    tag_36:\n      mload(0x40)\n      dup1\n      swap2\n      sub\n      swap1\n      log3\n        /* \"contracts/POC_Bridge/SideBridge.sol\":1084:1355  function returnTokens (address _requester, uint _bridgedAmount, bytes32 _sideDepositHash) verifyInitialization onlyGateway external {... */\n      pop\n      pop\n      pop\n      jump\t// out\n        /* \"contracts/POC_Bridge/SideBridge.sol\":796:1078  function bridgeTokens (address _requester, uint _bridgedAmount, bytes32 _mainDepositHash) verifyInitialization onlyGateway  external {... */\n    tag_16:\n        /* \"contracts/POC_Bridge/SideBridge.sol\":1407:1422  bridgeInitState */\n      0x00\n      0x14\n      swap1\n      sload\n      swap1\n      0x0100\n      exp\n      swap1\n      div\n      0xff\n      and\n        /* \"contracts/POC_Bridge/SideBridge.sol\":1399:1458  require(bridgeInitState, \"Bridge has not been initialized\") */\n      tag_39\n      jumpi\n      mload(0x40)\n      0x08c379a000000000000000000000000000000000000000000000000000000000\n      dup2\n      mstore\n      0x04\n      add\n      tag_40\n      swap1\n      tag_25\n      jump\t// in\n    tag_40:\n      mload(0x40)\n      dup1\n      swap2\n      sub\n      swap1\n      revert\n    tag_39:\n        /* \"contracts/POC_Bridge/SideBridge.sol\":1535:1542  gateway */\n      0x02\n      0x00\n      swap1\n      sload\n      swap1\n      0x0100\n      exp\n      swap1\n      div\n      0xffffffffffffffffffffffffffffffffffffffff\n      and\n        /* \"contracts/POC_Bridge/SideBridge.sol\":1521:1542  msg.sender == gateway */\n      0xffffffffffffffffffffffffffffffffffffffff\n      and\n        /* \"contracts/POC_Bridge/SideBridge.sol\":1521:1531  msg.sender */\n      caller\n        /* \"contracts/POC_Bridge/SideBridge.sol\":1521:1542  msg.sender == gateway */\n      0xffffffffffffffffffffffffffffffffffffffff\n      and\n      eq\n        /* \"contracts/POC_Bridge/SideBridge.sol\":1513:1585  require(msg.sender == gateway, \"Only gateway can execute this function\") */\n      tag_42\n      jumpi\n      mload(0x40)\n      0x08c379a000000000000000000000000000000000000000000000000000000000\n      dup2\n      mstore\n      0x04\n      add\n      tag_43\n      swap1\n      tag_29\n      jump\t// in\n    tag_43:\n      mload(0x40)\n      dup1\n      swap2\n      sub\n      swap1\n      revert\n    tag_42:\n        /* \"contracts/POC_Bridge/SideBridge.sol\":939:948  sideToken */\n      0x00\n      dup1\n      sload\n      swap1\n      0x0100\n      exp\n      swap1\n      div\n      0xffffffffffffffffffffffffffffffffffffffff\n      and\n        /* \"contracts/POC_Bridge/SideBridge.sol\":939:953  sideToken.mint */\n      0xffffffffffffffffffffffffffffffffffffffff\n      and\n      0x40c10f19\n        /* \"contracts/POC_Bridge/SideBridge.sol\":954:964  _requester */\n      dup5\n        /* \"contracts/POC_Bridge/SideBridge.sol\":965:979  _bridgedAmount */\n      dup5\n        /* \"contracts/POC_Bridge/SideBridge.sol\":939:980  sideToken.mint(_requester,_bridgedAmount) */\n      mload(0x40)\n      dup4\n      0xffffffff\n      and\n      0xe0\n      shl\n      dup2\n      mstore\n      0x04\n      add\n      tag_45\n      swap3\n      swap2\n      swap1\n      tag_46\n      jump\t// in\n    tag_45:\n      0x00\n      mload(0x40)\n      dup1\n      dup4\n      sub\n      dup2\n      0x00\n      dup8\n      dup1\n      extcodesize\n      iszero\n      dup1\n      iszero\n      tag_47\n      jumpi\n      0x00\n      dup1\n      revert\n    tag_47:\n      pop\n      gas\n      call\n      iszero\n      dup1\n      iszero\n      tag_49\n      jumpi\n      returndatasize\n      0x00\n      dup1\n      returndatacopy\n      revert(0x00, returndatasize)\n    tag_49:\n      pop\n      pop\n      pop\n      pop\n        /* \"contracts/POC_Bridge/SideBridge.sol\":1021:1037  _mainDepositHash */\n      dup1\n        /* \"contracts/POC_Bridge/SideBridge.sol\":1009:1019  _requester */\n      dup4\n        /* \"contracts/POC_Bridge/SideBridge.sol\":995:1071  TokensBridged(_requester, _mainDepositHash, _bridgedAmount, block.timestamp) */\n      0xffffffffffffffffffffffffffffffffffffffff\n      and\n      0x8dc81f2443de6a44d7971a95a7a73309a62194b83fabf4e9c9e81310c4e83c9f\n        /* \"contracts/POC_Bridge/SideBridge.sol\":1039:1053  _bridgedAmount */\n      dup5\n        /* \"contracts/POC_Bridge/SideBridge.sol\":1055:1070  block.timestamp */\n      timestamp\n        /* \"contracts/POC_Bridge/SideBridge.sol\":995:1071  TokensBridged(_requester, _mainDepositHash, _bridgedAmount, block.timestamp) */\n      mload(0x40)\n      tag_50\n      swap3\n      swap2\n      swap1\n      tag_37\n      jump\t// in\n    tag_50:\n      mload(0x40)\n      dup1\n      swap2\n      sub\n      swap1\n      log3\n        /* \"contracts/POC_Bridge/SideBridge.sol\":796:1078  function bridgeTokens (address _requester, uint _bridgedAmount, bytes32 _mainDepositHash) verifyInitialization onlyGateway  external {... */\n      pop\n      pop\n      pop\n      jump\t// out\n        /* \"#utility.yul\":7:146   */\n    tag_52:\n        /* \"#utility.yul\":53:58   */\n      0x00\n        /* \"#utility.yul\":91:97   */\n      dup2\n        /* \"#utility.yul\":78:98   */\n      calldataload\n        /* \"#utility.yul\":69:98   */\n      swap1\n      pop\n        /* \"#utility.yul\":107:140   */\n      tag_54\n        /* \"#utility.yul\":134:139   */\n      dup2\n        /* \"#utility.yul\":107:140   */\n      tag_55\n      jump\t// in\n    tag_54:\n        /* \"#utility.yul\":7:146   */\n      swap3\n      swap2\n      pop\n      pop\n      jump\t// out\n        /* \"#utility.yul\":152:291   */\n    tag_56:\n        /* \"#utility.yul\":198:203   */\n      0x00\n        /* \"#utility.yul\":236:242   */\n      dup2\n        /* \"#utility.yul\":223:243   */\n      calldataload\n        /* \"#utility.yul\":214:243   */\n      swap1\n      pop\n        /* \"#utility.yul\":252:285   */\n      tag_58\n        /* \"#utility.yul\":279:284   */\n      dup2\n        /* \"#utility.yul\":252:285   */\n      tag_59\n      jump\t// in\n    tag_58:\n        /* \"#utility.yul\":152:291   */\n      swap3\n      swap2\n      pop\n      pop\n      jump\t// out\n        /* \"#utility.yul\":297:436   */\n    tag_60:\n        /* \"#utility.yul\":343:348   */\n      0x00\n        /* \"#utility.yul\":381:387   */\n      dup2\n        /* \"#utility.yul\":368:388   */\n      calldataload\n        /* \"#utility.yul\":359:388   */\n      swap1\n      pop\n        /* \"#utility.yul\":397:430   */\n      tag_62\n        /* \"#utility.yul\":424:429   */\n      dup2\n        /* \"#utility.yul\":397:430   */\n      tag_63\n      jump\t// in\n    tag_62:\n        /* \"#utility.yul\":297:436   */\n      swap3\n      swap2\n      pop\n      pop\n      jump\t// out\n        /* \"#utility.yul\":442:771   */\n    tag_8:\n        /* \"#utility.yul\":501:507   */\n      0x00\n        /* \"#utility.yul\":550:552   */\n      0x20\n        /* \"#utility.yul\":538:547   */\n      dup3\n        /* \"#utility.yul\":529:536   */\n      dup5\n        /* \"#utility.yul\":525:548   */\n      sub\n        /* \"#utility.yul\":521:553   */\n      slt\n        /* \"#utility.yul\":518:637   */\n      iszero\n      tag_65\n      jumpi\n        /* \"#utility.yul\":556:635   */\n      tag_66\n      tag_67\n      jump\t// in\n    tag_66:\n        /* \"#utility.yul\":518:637   */\n    tag_65:\n        /* \"#utility.yul\":676:677   */\n      0x00\n        /* \"#utility.yul\":701:754   */\n      tag_68\n        /* \"#utility.yul\":746:753   */\n      dup5\n        /* \"#utility.yul\":737:743   */\n      dup3\n        /* \"#utility.yul\":726:735   */\n      dup6\n        /* \"#utility.yul\":722:744   */\n      add\n        /* \"#utility.yul\":701:754   */\n      tag_52\n      jump\t// in\n    tag_68:\n        /* \"#utility.yul\":691:754   */\n      swap2\n      pop\n        /* \"#utility.yul\":647:764   */\n      pop\n        /* \"#utility.yul\":442:771   */\n      swap3\n      swap2\n      pop\n      pop\n      jump\t// out\n        /* \"#utility.yul\":777:1396   */\n    tag_12:\n        /* \"#utility.yul\":854:860   */\n      0x00\n        /* \"#utility.yul\":862:868   */\n      dup1\n        /* \"#utility.yul\":870:876   */\n      0x00\n        /* \"#utility.yul\":919:921   */\n      0x60\n        /* \"#utility.yul\":907:916   */\n      dup5\n        /* \"#utility.yul\":898:905   */\n      dup7\n        /* \"#utility.yul\":894:917   */\n      sub\n        /* \"#utility.yul\":890:922   */\n      slt\n        /* \"#utility.yul\":887:1006   */\n      iszero\n      tag_70\n      jumpi\n        /* \"#utility.yul\":925:1004   */\n      tag_71\n      tag_67\n      jump\t// in\n    tag_71:\n        /* \"#utility.yul\":887:1006   */\n    tag_70:\n        /* \"#utility.yul\":1045:1046   */\n      0x00\n        /* \"#utility.yul\":1070:1123   */\n      tag_72\n        /* \"#utility.yul\":1115:1122   */\n      dup7\n        /* \"#utility.yul\":1106:1112   */\n      dup3\n        /* \"#utility.yul\":1095:1104   */\n      dup8\n        /* \"#utility.yul\":1091:1113   */\n      add\n        /* \"#utility.yul\":1070:1123   */\n      tag_52\n      jump\t// in\n    tag_72:\n        /* \"#utility.yul\":1060:1123   */\n      swap4\n      pop\n        /* \"#utility.yul\":1016:1133   */\n      pop\n        /* \"#utility.yul\":1172:1174   */\n      0x20\n        /* \"#utility.yul\":1198:1251   */\n      tag_73\n        /* \"#utility.yul\":1243:1250   */\n      dup7\n        /* \"#utility.yul\":1234:1240   */\n      dup3\n        /* \"#utility.yul\":1223:1232   */\n      dup8\n        /* \"#utility.yul\":1219:1241   */\n      add\n        /* \"#utility.yul\":1198:1251   */\n      tag_60\n      jump\t// in\n    tag_73:\n        /* \"#utility.yul\":1188:1251   */\n      swap3\n      pop\n        /* \"#utility.yul\":1143:1261   */\n      pop\n        /* \"#utility.yul\":1300:1302   */\n      0x40\n        /* \"#utility.yul\":1326:1379   */\n      tag_74\n        /* \"#utility.yul\":1371:1378   */\n      dup7\n        /* \"#utility.yul\":1362:1368   */\n      dup3\n        /* \"#utility.yul\":1351:1360   */\n      dup8\n        /* \"#utility.yul\":1347:1369   */\n      add\n        /* \"#utility.yul\":1326:1379   */\n      tag_56\n      jump\t// in\n    tag_74:\n        /* \"#utility.yul\":1316:1379   */\n      swap2\n      pop\n        /* \"#utility.yul\":1271:1389   */\n      pop\n        /* \"#utility.yul\":777:1396   */\n      swap3\n      pop\n      swap3\n      pop\n      swap3\n      jump\t// out\n        /* \"#utility.yul\":1402:1520   */\n    tag_75:\n        /* \"#utility.yul\":1489:1513   */\n      tag_77\n        /* \"#utility.yul\":1507:1512   */\n      dup2\n        /* \"#utility.yul\":1489:1513   */\n      tag_78\n      jump\t// in\n    tag_77:\n        /* \"#utility.yul\":1484:1487   */\n      dup3\n        /* \"#utility.yul\":1477:1514   */\n      mstore\n        /* \"#utility.yul\":1402:1520   */\n      pop\n      pop\n      jump\t// out\n        /* \"#utility.yul\":1526:1892   */\n    tag_79:\n        /* \"#utility.yul\":1668:1671   */\n      0x00\n        /* \"#utility.yul\":1689:1756   */\n      tag_81\n        /* \"#utility.yul\":1753:1755   */\n      0x1f\n        /* \"#utility.yul\":1748:1751   */\n      dup4\n        /* \"#utility.yul\":1689:1756   */\n      tag_82\n      jump\t// in\n    tag_81:\n        /* \"#utility.yul\":1682:1756   */\n      swap2\n      pop\n        /* \"#utility.yul\":1765:1858   */\n      tag_83\n        /* \"#utility.yul\":1854:1857   */\n      dup3\n        /* \"#utility.yul\":1765:1858   */\n      tag_84\n      jump\t// in\n    tag_83:\n        /* \"#utility.yul\":1883:1885   */\n      0x20\n        /* \"#utility.yul\":1878:1881   */\n      dup3\n        /* \"#utility.yul\":1874:1886   */\n      add\n        /* \"#utility.yul\":1867:1886   */\n      swap1\n      pop\n        /* \"#utility.yul\":1526:1892   */\n      swap2\n      swap1\n      pop\n      jump\t// out\n        /* \"#utility.yul\":1898:2264   */\n    tag_85:\n        /* \"#utility.yul\":2040:2043   */\n      0x00\n        /* \"#utility.yul\":2061:2128   */\n      tag_87\n        /* \"#utility.yul\":2125:2127   */\n      0x26\n        /* \"#utility.yul\":2120:2123   */\n      dup4\n        /* \"#utility.yul\":2061:2128   */\n      tag_82\n      jump\t// in\n    tag_87:\n        /* \"#utility.yul\":2054:2128   */\n      swap2\n      pop\n        /* \"#utility.yul\":2137:2230   */\n      tag_88\n        /* \"#utility.yul\":2226:2229   */\n      dup3\n        /* \"#utility.yul\":2137:2230   */\n      tag_89\n      jump\t// in\n    tag_88:\n        /* \"#utility.yul\":2255:2257   */\n      0x40\n        /* \"#utility.yul\":2250:2253   */\n      dup3\n        /* \"#utility.yul\":2246:2258   */\n      add\n        /* \"#utility.yul\":2239:2258   */\n      swap1\n      pop\n        /* \"#utility.yul\":1898:2264   */\n      swap2\n      swap1\n      pop\n      jump\t// out\n        /* \"#utility.yul\":2270:2636   */\n    tag_90:\n        /* \"#utility.yul\":2412:2415   */\n      0x00\n        /* \"#utility.yul\":2433:2500   */\n      tag_92\n        /* \"#utility.yul\":2497:2499   */\n      0x24\n        /* \"#utility.yul\":2492:2495   */\n      dup4\n        /* \"#utility.yul\":2433:2500   */\n      tag_82\n      jump\t// in\n    tag_92:\n        /* \"#utility.yul\":2426:2500   */\n      swap2\n      pop\n        /* \"#utility.yul\":2509:2602   */\n      tag_93\n        /* \"#utility.yul\":2598:2601   */\n      dup3\n        /* \"#utility.yul\":2509:2602   */\n      tag_94\n      jump\t// in\n    tag_93:\n        /* \"#utility.yul\":2627:2629   */\n      0x40\n        /* \"#utility.yul\":2622:2625   */\n      dup3\n        /* \"#utility.yul\":2618:2630   */\n      add\n        /* \"#utility.yul\":2611:2630   */\n      swap1\n      pop\n        /* \"#utility.yul\":2270:2636   */\n      swap2\n      swap1\n      pop\n      jump\t// out\n        /* \"#utility.yul\":2642:2760   */\n    tag_95:\n        /* \"#utility.yul\":2729:2753   */\n      tag_97\n        /* \"#utility.yul\":2747:2752   */\n      dup2\n        /* \"#utility.yul\":2729:2753   */\n      tag_98\n      jump\t// in\n    tag_97:\n        /* \"#utility.yul\":2724:2727   */\n      dup3\n        /* \"#utility.yul\":2717:2754   */\n      mstore\n        /* \"#utility.yul\":2642:2760   */\n      pop\n      pop\n      jump\t// out\n        /* \"#utility.yul\":2766:3098   */\n    tag_46:\n        /* \"#utility.yul\":2887:2891   */\n      0x00\n        /* \"#utility.yul\":2925:2927   */\n      0x40\n        /* \"#utility.yul\":2914:2923   */\n      dup3\n        /* \"#utility.yul\":2910:2928   */\n      add\n        /* \"#utility.yul\":2902:2928   */\n      swap1\n      pop\n        /* \"#utility.yul\":2938:3009   */\n      tag_100\n        /* \"#utility.yul\":3006:3007   */\n      0x00\n        /* \"#utility.yul\":2995:3004   */\n      dup4\n        /* \"#utility.yul\":2991:3008   */\n      add\n        /* \"#utility.yul\":2982:2988   */\n      dup6\n        /* \"#utility.yul\":2938:3009   */\n      tag_75\n      jump\t// in\n    tag_100:\n        /* \"#utility.yul\":3019:3091   */\n      tag_101\n        /* \"#utility.yul\":3087:3089   */\n      0x20\n        /* \"#utility.yul\":3076:3085   */\n      dup4\n        /* \"#utility.yul\":3072:3090   */\n      add\n        /* \"#utility.yul\":3063:3069   */\n      dup5\n        /* \"#utility.yul\":3019:3091   */\n      tag_95\n      jump\t// in\n    tag_101:\n        /* \"#utility.yul\":2766:3098   */\n      swap4\n      swap3\n      pop\n      pop\n      pop\n      jump\t// out\n        /* \"#utility.yul\":3104:3523   */\n    tag_25:\n        /* \"#utility.yul\":3270:3274   */\n      0x00\n        /* \"#utility.yul\":3308:3310   */\n      0x20\n        /* \"#utility.yul\":3297:3306   */\n      dup3\n        /* \"#utility.yul\":3293:3311   */\n      add\n        /* \"#utility.yul\":3285:3311   */\n      swap1\n      pop\n        /* \"#utility.yul\":3357:3366   */\n      dup2\n        /* \"#utility.yul\":3351:3355   */\n      dup2\n        /* \"#utility.yul\":3347:3367   */\n      sub\n        /* \"#utility.yul\":3343:3344   */\n      0x00\n        /* \"#utility.yul\":3332:3341   */\n      dup4\n        /* \"#utility.yul\":3328:3345   */\n      add\n        /* \"#utility.yul\":3321:3368   */\n      mstore\n        /* \"#utility.yul\":3385:3516   */\n      tag_103\n        /* \"#utility.yul\":3511:3515   */\n      dup2\n        /* \"#utility.yul\":3385:3516   */\n      tag_79\n      jump\t// in\n    tag_103:\n        /* \"#utility.yul\":3377:3516   */\n      swap1\n      pop\n        /* \"#utility.yul\":3104:3523   */\n      swap2\n      swap1\n      pop\n      jump\t// out\n        /* \"#utility.yul\":3529:3948   */\n    tag_29:\n        /* \"#utility.yul\":3695:3699   */\n      0x00\n        /* \"#utility.yul\":3733:3735   */\n      0x20\n        /* \"#utility.yul\":3722:3731   */\n      dup3\n        /* \"#utility.yul\":3718:3736   */\n      add\n        /* \"#utility.yul\":3710:3736   */\n      swap1\n      pop\n        /* \"#utility.yul\":3782:3791   */\n      dup2\n        /* \"#utility.yul\":3776:3780   */\n      dup2\n        /* \"#utility.yul\":3772:3792   */\n      sub\n        /* \"#utility.yul\":3768:3769   */\n      0x00\n        /* \"#utility.yul\":3757:3766   */\n      dup4\n        /* \"#utility.yul\":3753:3770   */\n      add\n        /* \"#utility.yul\":3746:3793   */\n      mstore\n        /* \"#utility.yul\":3810:3941   */\n      tag_105\n        /* \"#utility.yul\":3936:3940   */\n      dup2\n        /* \"#utility.yul\":3810:3941   */\n      tag_85\n      jump\t// in\n    tag_105:\n        /* \"#utility.yul\":3802:3941   */\n      swap1\n      pop\n        /* \"#utility.yul\":3529:3948   */\n      swap2\n      swap1\n      pop\n      jump\t// out\n        /* \"#utility.yul\":3954:4373   */\n    tag_20:\n        /* \"#utility.yul\":4120:4124   */\n      0x00\n        /* \"#utility.yul\":4158:4160   */\n      0x20\n        /* \"#utility.yul\":4147:4156   */\n      dup3\n        /* \"#utility.yul\":4143:4161   */\n      add\n        /* \"#utility.yul\":4135:4161   */\n      swap1\n      pop\n        /* \"#utility.yul\":4207:4216   */\n      dup2\n        /* \"#utility.yul\":4201:4205   */\n      dup2\n        /* \"#utility.yul\":4197:4217   */\n      sub\n        /* \"#utility.yul\":4193:4194   */\n      0x00\n        /* \"#utility.yul\":4182:4191   */\n      dup4\n        /* \"#utility.yul\":4178:4195   */\n      add\n        /* \"#utility.yul\":4171:4218   */\n      mstore\n        /* \"#utility.yul\":4235:4366   */\n      tag_107\n        /* \"#utility.yul\":4361:4365   */\n      dup2\n        /* \"#utility.yul\":4235:4366   */\n      tag_90\n      jump\t// in\n    tag_107:\n        /* \"#utility.yul\":4227:4366   */\n      swap1\n      pop\n        /* \"#utility.yul\":3954:4373   */\n      swap2\n      swap1\n      pop\n      jump\t// out\n        /* \"#utility.yul\":4379:4601   */\n    tag_32:\n        /* \"#utility.yul\":4472:4476   */\n      0x00\n        /* \"#utility.yul\":4510:4512   */\n      0x20\n        /* \"#utility.yul\":4499:4508   */\n      dup3\n        /* \"#utility.yul\":4495:4513   */\n      add\n        /* \"#utility.yul\":4487:4513   */\n      swap1\n      pop\n        /* \"#utility.yul\":4523:4594   */\n      tag_109\n        /* \"#utility.yul\":4591:4592   */\n      0x00\n        /* \"#utility.yul\":4580:4589   */\n      dup4\n        /* \"#utility.yul\":4576:4593   */\n      add\n        /* \"#utility.yul\":4567:4573   */\n      dup5\n        /* \"#utility.yul\":4523:4594   */\n      tag_95\n      jump\t// in\n    tag_109:\n        /* \"#utility.yul\":4379:4601   */\n      swap3\n      swap2\n      pop\n      pop\n      jump\t// out\n        /* \"#utility.yul\":4607:4939   */\n    tag_37:\n        /* \"#utility.yul\":4728:4732   */\n      0x00\n        /* \"#utility.yul\":4766:4768   */\n      0x40\n        /* \"#utility.yul\":4755:4764   */\n      dup3\n        /* \"#utility.yul\":4751:4769   */\n      add\n        /* \"#utility.yul\":4743:4769   */\n      swap1\n      pop\n        /* \"#utility.yul\":4779:4850   */\n      tag_111\n        /* \"#utility.yul\":4847:4848   */\n      0x00\n        /* \"#utility.yul\":4836:4845   */\n      dup4\n        /* \"#utility.yul\":4832:4849   */\n      add\n        /* \"#utility.yul\":4823:4829   */\n      dup6\n        /* \"#utility.yul\":4779:4850   */\n      tag_95\n      jump\t// in\n    tag_111:\n        /* \"#utility.yul\":4860:4932   */\n      tag_112\n        /* \"#utility.yul\":4928:4930   */\n      0x20\n        /* \"#utility.yul\":4917:4926   */\n      dup4\n        /* \"#utility.yul\":4913:4931   */\n      add\n        /* \"#utility.yul\":4904:4910   */\n      dup5\n        /* \"#utility.yul\":4860:4932   */\n      tag_95\n      jump\t// in\n    tag_112:\n        /* \"#utility.yul\":4607:4939   */\n      swap4\n      swap3\n      pop\n      pop\n      pop\n      jump\t// out\n        /* \"#utility.yul\":5026:5195   */\n    tag_82:\n        /* \"#utility.yul\":5110:5121   */\n      0x00\n        /* \"#utility.yul\":5144:5150   */\n      dup3\n        /* \"#utility.yul\":5139:5142   */\n      dup3\n        /* \"#utility.yul\":5132:5151   */\n      mstore\n        /* \"#utility.yul\":5184:5188   */\n      0x20\n        /* \"#utility.yul\":5179:5182   */\n      dup3\n        /* \"#utility.yul\":5175:5189   */\n      add\n        /* \"#utility.yul\":5160:5189   */\n      swap1\n      pop\n        /* \"#utility.yul\":5026:5195   */\n      swap3\n      swap2\n      pop\n      pop\n      jump\t// out\n        /* \"#utility.yul\":5201:5297   */\n    tag_78:\n        /* \"#utility.yul\":5238:5245   */\n      0x00\n        /* \"#utility.yul\":5267:5291   */\n      tag_117\n        /* \"#utility.yul\":5285:5290   */\n      dup3\n        /* \"#utility.yul\":5267:5291   */\n      tag_118\n      jump\t// in\n    tag_117:\n        /* \"#utility.yul\":5256:5291   */\n      swap1\n      pop\n        /* \"#utility.yul\":5201:5297   */\n      swap2\n      swap1\n      pop\n      jump\t// out\n        /* \"#utility.yul\":5303:5380   */\n    tag_119:\n        /* \"#utility.yul\":5340:5347   */\n      0x00\n        /* \"#utility.yul\":5369:5374   */\n      dup2\n        /* \"#utility.yul\":5358:5374   */\n      swap1\n      pop\n        /* \"#utility.yul\":5303:5380   */\n      swap2\n      swap1\n      pop\n      jump\t// out\n        /* \"#utility.yul\":5386:5512   */\n    tag_118:\n        /* \"#utility.yul\":5423:5430   */\n      0x00\n        /* \"#utility.yul\":5463:5505   */\n      0xffffffffffffffffffffffffffffffffffffffff\n        /* \"#utility.yul\":5456:5461   */\n      dup3\n        /* \"#utility.yul\":5452:5506   */\n      and\n        /* \"#utility.yul\":5441:5506   */\n      swap1\n      pop\n        /* \"#utility.yul\":5386:5512   */\n      swap2\n      swap1\n      pop\n      jump\t// out\n        /* \"#utility.yul\":5518:5595   */\n    tag_98:\n        /* \"#utility.yul\":5555:5562   */\n      0x00\n        /* \"#utility.yul\":5584:5589   */\n      dup2\n        /* \"#utility.yul\":5573:5589   */\n      swap1\n      pop\n        /* \"#utility.yul\":5518:5595   */\n      swap2\n      swap1\n      pop\n      jump\t// out\n        /* \"#utility.yul\":5724:5841   */\n    tag_67:\n        /* \"#utility.yul\":5833:5834   */\n      0x00\n        /* \"#utility.yul\":5830:5831   */\n      dup1\n        /* \"#utility.yul\":5823:5835   */\n      revert\n        /* \"#utility.yul\":5847:6028   */\n    tag_84:\n        /* \"#utility.yul\":5987:6020   */\n      0x42726964676520686173206e6f74206265656e20696e697469616c697a656400\n        /* \"#utility.yul\":5983:5984   */\n      0x00\n        /* \"#utility.yul\":5975:5981   */\n      dup3\n        /* \"#utility.yul\":5971:5985   */\n      add\n        /* \"#utility.yul\":5964:6021   */\n      mstore\n        /* \"#utility.yul\":5847:6028   */\n      pop\n      jump\t// out\n        /* \"#utility.yul\":6034:6259   */\n    tag_89:\n        /* \"#utility.yul\":6174:6208   */\n      0x4f6e6c7920676174657761792063616e20657865637574652074686973206675\n        /* \"#utility.yul\":6170:6171   */\n      0x00\n        /* \"#utility.yul\":6162:6168   */\n      dup3\n        /* \"#utility.yul\":6158:6172   */\n      add\n        /* \"#utility.yul\":6151:6209   */\n      mstore\n        /* \"#utility.yul\":6243:6251   */\n      0x6e6374696f6e0000000000000000000000000000000000000000000000000000\n        /* \"#utility.yul\":6238:6240   */\n      0x20\n        /* \"#utility.yul\":6230:6236   */\n      dup3\n        /* \"#utility.yul\":6226:6241   */\n      add\n        /* \"#utility.yul\":6219:6252   */\n      mstore\n        /* \"#utility.yul\":6034:6259   */\n      pop\n      jump\t// out\n        /* \"#utility.yul\":6265:6488   */\n    tag_94:\n        /* \"#utility.yul\":6405:6439   */\n      0x4f6e6c79206f776e65722063616e206578656375746520746869732066756e63\n        /* \"#utility.yul\":6401:6402   */\n      0x00\n        /* \"#utility.yul\":6393:6399   */\n      dup3\n        /* \"#utility.yul\":6389:6403   */\n      add\n        /* \"#utility.yul\":6382:6440   */\n      mstore\n        /* \"#utility.yul\":6474:6480   */\n      0x74696f6e00000000000000000000000000000000000000000000000000000000\n        /* \"#utility.yul\":6469:6471   */\n      0x20\n        /* \"#utility.yul\":6461:6467   */\n      dup3\n        /* \"#utility.yul\":6457:6472   */\n      add\n        /* \"#utility.yul\":6450:6481   */\n      mstore\n        /* \"#utility.yul\":6265:6488   */\n      pop\n      jump\t// out\n        /* \"#utility.yul\":6494:6616   */\n    tag_55:\n        /* \"#utility.yul\":6567:6591   */\n      tag_130\n        /* \"#utility.yul\":6585:6590   */\n      dup2\n        /* \"#utility.yul\":6567:6591   */\n      tag_78\n      jump\t// in\n    tag_130:\n        /* \"#utility.yul\":6560:6565   */\n      dup2\n        /* \"#utility.yul\":6557:6592   */\n      eq\n        /* \"#utility.yul\":6547:6610   */\n      tag_131\n      jumpi\n        /* \"#utility.yul\":6606:6607   */\n      0x00\n        /* \"#utility.yul\":6603:6604   */\n      dup1\n        /* \"#utility.yul\":6596:6608   */\n      revert\n        /* \"#utility.yul\":6547:6610   */\n    tag_131:\n        /* \"#utility.yul\":6494:6616   */\n      pop\n      jump\t// out\n        /* \"#utility.yul\":6622:6744   */\n    tag_59:\n        /* \"#utility.yul\":6695:6719   */\n      tag_133\n        /* \"#utility.yul\":6713:6718   */\n      dup2\n        /* \"#utility.yul\":6695:6719   */\n      tag_119\n      jump\t// in\n    tag_133:\n        /* \"#utility.yul\":6688:6693   */\n      dup2\n        /* \"#utility.yul\":6685:6720   */\n      eq\n        /* \"#utility.yul\":6675:6738   */\n      tag_134\n      jumpi\n        /* \"#utility.yul\":6734:6735   */\n      0x00\n        /* \"#utility.yul\":6731:6732   */\n      dup1\n        /* \"#utility.yul\":6724:6736   */\n      revert\n        /* \"#utility.yul\":6675:6738   */\n    tag_134:\n        /* \"#utility.yul\":6622:6744   */\n      pop\n      jump\t// out\n        /* \"#utility.yul\":6750:6872   */\n    tag_63:\n        /* \"#utility.yul\":6823:6847   */\n      tag_136\n        /* \"#utility.yul\":6841:6846   */\n      dup2\n        /* \"#utility.yul\":6823:6847   */\n      tag_98\n      jump\t// in\n    tag_136:\n        /* \"#utility.yul\":6816:6821   */\n      dup2\n        /* \"#utility.yul\":6813:6848   */\n      eq\n        /* \"#utility.yul\":6803:6866   */\n      tag_137\n      jumpi\n        /* \"#utility.yul\":6862:6863   */\n      0x00\n        /* \"#utility.yul\":6859:6860   */\n      dup1\n        /* \"#utility.yul\":6852:6864   */\n      revert\n        /* \"#utility.yul\":6803:6866   */\n    tag_137:\n        /* \"#utility.yul\":6750:6872   */\n      pop\n      jump\t// out\n\n    auxdata: 0xa2646970667358221220797ae837bc4a6c2e3716f4edf7862ca167bce2b8a37dade5fac97709eb0c33a564736f6c63430008070033\n}\n",
				"bytecode": {
					"linkReferences": {},
					"object": "608060405234801561001057600080fd5b50604051610a14380380610a14833981810160405281019061003291906100cf565b80600260006101000a81548173ffffffffffffffffffffffffffffffffffffffff021916908373ffffffffffffffffffffffffffffffffffffffff16021790555033600160006101000a81548173ffffffffffffffffffffffffffffffffffffffff021916908373ffffffffffffffffffffffffffffffffffffffff1602179055505061014a565b6000815190506100c981610133565b92915050565b6000602082840312156100e5576100e461012e565b5b60006100f3848285016100ba565b91505092915050565b60006101078261010e565b9050919050565b600073ffffffffffffffffffffffffffffffffffffffff82169050919050565b600080fd5b61013c816100fc565b811461014757600080fd5b50565b6108bb806101596000396000f3fe608060405234801561001057600080fd5b50600436106100415760003560e01c80632065f2c0146100465780635fa420a9146100625780637a0627911461007e575b600080fd5b610060600480360381019061005b9190610549565b61009a565b005b61007c60048036038101906100779190610576565b610188565b005b61009860048036038101906100939190610576565b610348565b005b600160009054906101000a900473ffffffffffffffffffffffffffffffffffffffff1673ffffffffffffffffffffffffffffffffffffffff163373ffffffffffffffffffffffffffffffffffffffff161461012a576040517f08c379a0000000000000000000000000000000000000000000000000000000008152600401610121906106b9565b60405180910390fd5b806000806101000a81548173ffffffffffffffffffffffffffffffffffffffff021916908373ffffffffffffffffffffffffffffffffffffffff1602179055506001600060146101000a81548160ff02191690831515021790555050565b600060149054906101000a900460ff166101d7576040517f08c379a00000000000000000000000000000000000000000000000000000000081526004016101ce90610679565b60405180910390fd5b600260009054906101000a900473ffffffffffffffffffffffffffffffffffffffff1673ffffffffffffffffffffffffffffffffffffffff163373ffffffffffffffffffffffffffffffffffffffff1614610267576040517f08c379a000000000000000000000000000000000000000000000000000000000815260040161025e90610699565b60405180910390fd5b60008054906101000a900473ffffffffffffffffffffffffffffffffffffffff1673ffffffffffffffffffffffffffffffffffffffff166342966c68836040518263ffffffff1660e01b81526004016102c091906106d9565b600060405180830381600087803b1580156102da57600080fd5b505af11580156102ee573d6000803e3d6000fd5b50505050808373ffffffffffffffffffffffffffffffffffffffff167fba3809a24948d41e15773b22a28a1c0933973b2987dd15c6d028ca91397a4bd6844260405161033b9291906106f4565b60405180910390a3505050565b600060149054906101000a900460ff16610397576040517f08c379a000000000000000000000000000000000000000000000000000000000815260040161038e90610679565b60405180910390fd5b600260009054906101000a900473ffffffffffffffffffffffffffffffffffffffff1673ffffffffffffffffffffffffffffffffffffffff163373ffffffffffffffffffffffffffffffffffffffff1614610427576040517f08c379a000000000000000000000000000000000000000000000000000000000815260040161041e90610699565b60405180910390fd5b60008054906101000a900473ffffffffffffffffffffffffffffffffffffffff1673ffffffffffffffffffffffffffffffffffffffff166340c10f1984846040518363ffffffff1660e01b8152600401610482929190610650565b600060405180830381600087803b15801561049c57600080fd5b505af11580156104b0573d6000803e3d6000fd5b50505050808373ffffffffffffffffffffffffffffffffffffffff167f8dc81f2443de6a44d7971a95a7a73309a62194b83fabf4e9c9e81310c4e83c9f84426040516104fd9291906106f4565b60405180910390a3505050565b60008135905061051981610840565b92915050565b60008135905061052e81610857565b92915050565b6000813590506105438161086e565b92915050565b60006020828403121561055f5761055e610774565b5b600061056d8482850161050a565b91505092915050565b60008060006060848603121561058f5761058e610774565b5b600061059d8682870161050a565b93505060206105ae86828701610534565b92505060406105bf8682870161051f565b9150509250925092565b6105d28161072e565b82525050565b60006105e5601f8361071d565b91506105f082610779565b602082019050919050565b600061060860268361071d565b9150610613826107a2565b604082019050919050565b600061062b60248361071d565b9150610636826107f1565b604082019050919050565b61064a8161076a565b82525050565b600060408201905061066560008301856105c9565b6106726020830184610641565b9392505050565b60006020820190508181036000830152610692816105d8565b9050919050565b600060208201905081810360008301526106b2816105fb565b9050919050565b600060208201905081810360008301526106d28161061e565b9050919050565b60006020820190506106ee6000830184610641565b92915050565b60006040820190506107096000830185610641565b6107166020830184610641565b9392505050565b600082825260208201905092915050565b60006107398261074a565b9050919050565b6000819050919050565b600073ffffffffffffffffffffffffffffffffffffffff82169050919050565b6000819050919050565b600080fd5b7f42726964676520686173206e6f74206265656e20696e697469616c697a656400600082015250565b7f4f6e6c7920676174657761792063616e2065786563757465207468697320667560008201527f6e6374696f6e0000000000000000000000000000000000000000000000000000602082015250565b7f4f6e6c79206f776e65722063616e206578656375746520746869732066756e6360008201527f74696f6e00000000000000000000000000000000000000000000000000000000602082015250565b6108498161072e565b811461085457600080fd5b50565b61086081610740565b811461086b57600080fd5b50565b6108778161076a565b811461088257600080fd5b5056fea2646970667358221220797ae837bc4a6c2e3716f4edf7862ca167bce2b8a37dade5fac97709eb0c33a564736f6c63430008070033",
					"opcodes": "PUSH1 0x80 PUSH1 0x40 MSTORE CALLVALUE DUP1 ISZERO PUSH2 0x10 JUMPI PUSH1 0x0 DUP1 REVERT JUMPDEST POP PUSH1 0x40 MLOAD PUSH2 0xA14 CODESIZE SUB DUP1 PUSH2 0xA14 DUP4 CODECOPY DUP2 DUP2 ADD PUSH1 0x40 MSTORE DUP2 ADD SWAP1 PUSH2 0x32 SWAP2 SWAP1 PUSH2 0xCF JUMP JUMPDEST DUP1 PUSH1 0x2 PUSH1 0x0 PUSH2 0x100 EXP DUP2 SLOAD DUP2 PUSH20 0xFFFFFFFFFFFFFFFFFFFFFFFFFFFFFFFFFFFFFFFF MUL NOT AND SWAP1 DUP4 PUSH20 0xFFFFFFFFFFFFFFFFFFFFFFFFFFFFFFFFFFFFFFFF AND MUL OR SWAP1 SSTORE POP CALLER PUSH1 0x1 PUSH1 0x0 PUSH2 0x100 EXP DUP2 SLOAD DUP2 PUSH20 0xFFFFFFFFFFFFFFFFFFFFFFFFFFFFFFFFFFFFFFFF MUL NOT AND SWAP1 DUP4 PUSH20 0xFFFFFFFFFFFFFFFFFFFFFFFFFFFFFFFFFFFFFFFF AND MUL OR SWAP1 SSTORE POP POP PUSH2 0x14A JUMP JUMPDEST PUSH1 0x0 DUP2 MLOAD SWAP1 POP PUSH2 0xC9 DUP2 PUSH2 0x133 JUMP JUMPDEST SWAP3 SWAP2 POP POP JUMP JUMPDEST PUSH1 0x0 PUSH1 0x20 DUP3 DUP5 SUB SLT ISZERO PUSH2 0xE5 JUMPI PUSH2 0xE4 PUSH2 0x12E JUMP JUMPDEST JUMPDEST PUSH1 0x0 PUSH2 0xF3 DUP5 DUP3 DUP6 ADD PUSH2 0xBA JUMP JUMPDEST SWAP2 POP POP SWAP3 SWAP2 POP POP JUMP JUMPDEST PUSH1 0x0 PUSH2 0x107 DUP3 PUSH2 0x10E JUMP JUMPDEST SWAP1 POP SWAP2 SWAP1 POP JUMP JUMPDEST PUSH1 0x0 PUSH20 0xFFFFFFFFFFFFFFFFFFFFFFFFFFFFFFFFFFFFFFFF DUP3 AND SWAP1 POP SWAP2 SWAP1 POP JUMP JUMPDEST PUSH1 0x0 DUP1 REVERT JUMPDEST PUSH2 0x13C DUP2 PUSH2 0xFC JUMP JUMPDEST DUP2 EQ PUSH2 0x147 JUMPI PUSH1 0x0 DUP1 REVERT JUMPDEST POP JUMP JUMPDEST PUSH2 0x8BB DUP1 PUSH2 0x159 PUSH1 0x0 CODECOPY PUSH1 0x0 RETURN INVALID PUSH1 0x80 PUSH1 0x40 MSTORE CALLVALUE DUP1 ISZERO PUSH2 0x10 JUMPI PUSH1 0x0 DUP1 REVERT JUMPDEST POP PUSH1 0x4 CALLDATASIZE LT PUSH2 0x41 JUMPI PUSH1 0x0 CALLDATALOAD PUSH1 0xE0 SHR DUP1 PUSH4 0x2065F2C0 EQ PUSH2 0x46 JUMPI DUP1 PUSH4 0x5FA420A9 EQ PUSH2 0x62 JUMPI DUP1 PUSH4 0x7A062791 EQ PUSH2 0x7E JUMPI JUMPDEST PUSH1 0x0 DUP1 REVERT JUMPDEST PUSH2 0x60 PUSH1 0x4 DUP1 CALLDATASIZE SUB DUP2 ADD SWAP1 PUSH2 0x5B SWAP2 SWAP1 PUSH2 0x549 JUMP JUMPDEST PUSH2 0x9A JUMP JUMPDEST STOP JUMPDEST PUSH2 0x7C PUSH1 0x4 DUP1 CALLDATASIZE SUB DUP2 ADD SWAP1 PUSH2 0x77 SWAP2 SWAP1 PUSH2 0x576 JUMP JUMPDEST PUSH2 0x188 JUMP JUMPDEST STOP JUMPDEST PUSH2 0x98 PUSH1 0x4 DUP1 CALLDATASIZE SUB DUP2 ADD SWAP1 PUSH2 0x93 SWAP2 SWAP1 PUSH2 0x576 JUMP JUMPDEST PUSH2 0x348 JUMP JUMPDEST STOP JUMPDEST PUSH1 0x1 PUSH1 0x0 SWAP1 SLOAD SWAP1 PUSH2 0x100 EXP SWAP1 DIV PUSH20 0xFFFFFFFFFFFFFFFFFFFFFFFFFFFFFFFFFFFFFFFF AND PUSH20 0xFFFFFFFFFFFFFFFFFFFFFFFFFFFFFFFFFFFFFFFF AND CALLER PUSH20 0xFFFFFFFFFFFFFFFFFFFFFFFFFFFFFFFFFFFFFFFF AND EQ PUSH2 0x12A JUMPI PUSH1 0x40 MLOAD PUSH32 0x8C379A000000000000000000000000000000000000000000000000000000000 DUP2 MSTORE PUSH1 0x4 ADD PUSH2 0x121 SWAP1 PUSH2 0x6B9 JUMP JUMPDEST PUSH1 0x40 MLOAD DUP1 SWAP2 SUB SWAP1 REVERT JUMPDEST DUP1 PUSH1 0x0 DUP1 PUSH2 0x100 EXP DUP2 SLOAD DUP2 PUSH20 0xFFFFFFFFFFFFFFFFFFFFFFFFFFFFFFFFFFFFFFFF MUL NOT AND SWAP1 DUP4 PUSH20 0xFFFFFFFFFFFFFFFFFFFFFFFFFFFFFFFFFFFFFFFF AND MUL OR SWAP1 SSTORE POP PUSH1 0x1 PUSH1 0x0 PUSH1 0x14 PUSH2 0x100 EXP DUP2 SLOAD DUP2 PUSH1 0xFF MUL NOT AND SWAP1 DUP4 ISZERO ISZERO MUL OR SWAP1 SSTORE POP POP JUMP JUMPDEST PUSH1 0x0 PUSH1 0x14 SWAP1 SLOAD SWAP1 PUSH2 0x100 EXP SWAP1 DIV PUSH1 0xFF AND PUSH2 0x1D7 JUMPI PUSH1 0x40 MLOAD PUSH32 0x8C379A000000000000000000000000000000000000000000000000000000000 DUP2 MSTORE PUSH1 0x4 ADD PUSH2 0x1CE SWAP1 PUSH2 0x679 JUMP JUMPDEST PUSH1 0x40 MLOAD DUP1 SWAP2 SUB SWAP1 REVERT JUMPDEST PUSH1 0x2 PUSH1 0x0 SWAP1 SLOAD SWAP1 PUSH2 0x100 EXP SWAP1 DIV PUSH20 0xFFFFFFFFFFFFFFFFFFFFFFFFFFFFFFFFFFFFFFFF AND PUSH20 0xFFFFFFFFFFFFFFFFFFFFFFFFFFFFFFFFFFFFFFFF AND CALLER PUSH20 0xFFFFFFFFFFFFFFFFFFFFFFFFFFFFFFFFFFFFFFFF AND EQ PUSH2 0x267 JUMPI PUSH1 0x40 MLOAD PUSH32 0x8C379A000000000000000000000000000000000000000000000000000000000 DUP2 MSTORE PUSH1 0x4 ADD PUSH2 0x25E SWAP1 PUSH2 0x699 JUMP JUMPDEST PUSH1 0x40 MLOAD DUP1 SWAP2 SUB SWAP1 REVERT JUMPDEST PUSH1 0x0 DUP1 SLOAD SWAP1 PUSH2 0x100 EXP SWAP1 DIV PUSH20 0xFFFFFFFFFFFFFFFFFFFFFFFFFFFFFFFFFFFFFFFF AND PUSH20 0xFFFFFFFFFFFFFFFFFFFFFFFFFFFFFFFFFFFFFFFF AND PUSH4 0x42966C68 DUP4 PUSH1 0x40 MLOAD DUP3 PUSH4 0xFFFFFFFF AND PUSH1 0xE0 SHL DUP2 MSTORE PUSH1 0x4 ADD PUSH2 0x2C0 SWAP2 SWAP1 PUSH2 0x6D9 JUMP JUMPDEST PUSH1 0x0 PUSH1 0x40 MLOAD DUP1 DUP4 SUB DUP2 PUSH1 0x0 DUP8 DUP1 EXTCODESIZE ISZERO DUP1 ISZERO PUSH2 0x2DA JUMPI PUSH1 0x0 DUP1 REVERT JUMPDEST POP GAS CALL ISZERO DUP1 ISZERO PUSH2 0x2EE JUMPI RETURNDATASIZE PUSH1 0x0 DUP1 RETURNDATACOPY RETURNDATASIZE PUSH1 0x0 REVERT JUMPDEST POP POP POP POP DUP1 DUP4 PUSH20 0xFFFFFFFFFFFFFFFFFFFFFFFFFFFFFFFFFFFFFFFF AND PUSH32 0xBA3809A24948D41E15773B22A28A1C0933973B2987DD15C6D028CA91397A4BD6 DUP5 TIMESTAMP PUSH1 0x40 MLOAD PUSH2 0x33B SWAP3 SWAP2 SWAP1 PUSH2 0x6F4 JUMP JUMPDEST PUSH1 0x40 MLOAD DUP1 SWAP2 SUB SWAP1 LOG3 POP POP POP JUMP JUMPDEST PUSH1 0x0 PUSH1 0x14 SWAP1 SLOAD SWAP1 PUSH2 0x100 EXP SWAP1 DIV PUSH1 0xFF AND PUSH2 0x397 JUMPI PUSH1 0x40 MLOAD PUSH32 0x8C379A000000000000000000000000000000000000000000000000000000000 DUP2 MSTORE PUSH1 0x4 ADD PUSH2 0x38E SWAP1 PUSH2 0x679 JUMP JUMPDEST PUSH1 0x40 MLOAD DUP1 SWAP2 SUB SWAP1 REVERT JUMPDEST PUSH1 0x2 PUSH1 0x0 SWAP1 SLOAD SWAP1 PUSH2 0x100 EXP SWAP1 DIV PUSH20 0xFFFFFFFFFFFFFFFFFFFFFFFFFFFFFFFFFFFFFFFF AND PUSH20 0xFFFFFFFFFFFFFFFFFFFFFFFFFFFFFFFFFFFFFFFF AND CALLER PUSH20 0xFFFFFFFFFFFFFFFFFFFFFFFFFFFFFFFFFFFFFFFF AND EQ PUSH2 0x427 JUMPI PUSH1 0x40 MLOAD PUSH32 0x8C379A000000000000000000000000000000000000000000000000000000000 DUP2 MSTORE PUSH1 0x4 ADD PUSH2 0x41E SWAP1 PUSH2 0x699 JUMP JUMPDEST PUSH1 0x40 MLOAD DUP1 SWAP2 SUB SWAP1 REVERT JUMPDEST PUSH1 0x0 DUP1 SLOAD SWAP1 PUSH2 0x100 EXP SWAP1 DIV PUSH20 0xFFFFFFFFFFFFFFFFFFFFFFFFFFFFFFFFFFFFFFFF AND PUSH20 0xFFFFFFFFFFFFFFFFFFFFFFFFFFFFFFFFFFFFFFFF AND PUSH4 0x40C10F19 DUP5 DUP5 PUSH1 0x40 MLOAD DUP4 PUSH4 0xFFFFFFFF AND PUSH1 0xE0 SHL DUP2 MSTORE PUSH1 0x4 ADD PUSH2 0x482 SWAP3 SWAP2 SWAP1 PUSH2 0x650 JUMP JUMPDEST PUSH1 0x0 PUSH1 0x40 MLOAD DUP1 DUP4 SUB DUP2 PUSH1 0x0 DUP8 DUP1 EXTCODESIZE ISZERO DUP1 ISZERO PUSH2 0x49C JUMPI PUSH1 0x0 DUP1 REVERT JUMPDEST POP GAS CALL ISZERO DUP1 ISZERO PUSH2 0x4B0 JUMPI RETURNDATASIZE PUSH1 0x0 DUP1 RETURNDATACOPY RETURNDATASIZE PUSH1 0x0 REVERT JUMPDEST POP POP POP POP DUP1 DUP4 PUSH20 0xFFFFFFFFFFFFFFFFFFFFFFFFFFFFFFFFFFFFFFFF AND PUSH32 0x8DC81F2443DE6A44D7971A95A7A73309A62194B83FABF4E9C9E81310C4E83C9F DUP5 TIMESTAMP PUSH1 0x40 MLOAD PUSH2 0x4FD SWAP3 SWAP2 SWAP1 PUSH2 0x6F4 JUMP JUMPDEST PUSH1 0x40 MLOAD DUP1 SWAP2 SUB SWAP1 LOG3 POP POP POP JUMP JUMPDEST PUSH1 0x0 DUP2 CALLDATALOAD SWAP1 POP PUSH2 0x519 DUP2 PUSH2 0x840 JUMP JUMPDEST SWAP3 SWAP2 POP POP JUMP JUMPDEST PUSH1 0x0 DUP2 CALLDATALOAD SWAP1 POP PUSH2 0x52E DUP2 PUSH2 0x857 JUMP JUMPDEST SWAP3 SWAP2 POP POP JUMP JUMPDEST PUSH1 0x0 DUP2 CALLDATALOAD SWAP1 POP PUSH2 0x543 DUP2 PUSH2 0x86E JUMP JUMPDEST SWAP3 SWAP2 POP POP JUMP JUMPDEST PUSH1 0x0 PUSH1 0x20 DUP3 DUP5 SUB SLT ISZERO PUSH2 0x55F JUMPI PUSH2 0x55E PUSH2 0x774 JUMP JUMPDEST JUMPDEST PUSH1 0x0 PUSH2 0x56D DUP5 DUP3 DUP6 ADD PUSH2 0x50A JUMP JUMPDEST SWAP2 POP POP SWAP3 SWAP2 POP POP JUMP JUMPDEST PUSH1 0x0 DUP1 PUSH1 0x0 PUSH1 0x60 DUP5 DUP7 SUB SLT ISZERO PUSH2 0x58F JUMPI PUSH2 0x58E PUSH2 0x774 JUMP JUMPDEST JUMPDEST PUSH1 0x0 PUSH2 0x59D DUP7 DUP3 DUP8 ADD PUSH2 0x50A JUMP JUMPDEST SWAP4 POP POP PUSH1 0x20 PUSH2 0x5AE DUP7 DUP3 DUP8 ADD PUSH2 0x534 JUMP JUMPDEST SWAP3 POP POP PUSH1 0x40 PUSH2 0x5BF DUP7 DUP3 DUP8 ADD PUSH2 0x51F JUMP JUMPDEST SWAP2 POP POP SWAP3 POP SWAP3 POP SWAP3 JUMP JUMPDEST PUSH2 0x5D2 DUP2 PUSH2 0x72E JUMP JUMPDEST DUP3 MSTORE POP POP JUMP JUMPDEST PUSH1 0x0 PUSH2 0x5E5 PUSH1 0x1F DUP4 PUSH2 0x71D JUMP JUMPDEST SWAP2 POP PUSH2 0x5F0 DUP3 PUSH2 0x779 JUMP JUMPDEST PUSH1 0x20 DUP3 ADD SWAP1 POP SWAP2 SWAP1 POP JUMP JUMPDEST PUSH1 0x0 PUSH2 0x608 PUSH1 0x26 DUP4 PUSH2 0x71D JUMP JUMPDEST SWAP2 POP PUSH2 0x613 DUP3 PUSH2 0x7A2 JUMP JUMPDEST PUSH1 0x40 DUP3 ADD SWAP1 POP SWAP2 SWAP1 POP JUMP JUMPDEST PUSH1 0x0 PUSH2 0x62B PUSH1 0x24 DUP4 PUSH2 0x71D JUMP JUMPDEST SWAP2 POP PUSH2 0x636 DUP3 PUSH2 0x7F1 JUMP JUMPDEST PUSH1 0x40 DUP3 ADD SWAP1 POP SWAP2 SWAP1 POP JUMP JUMPDEST PUSH2 0x64A DUP2 PUSH2 0x76A JUMP JUMPDEST DUP3 MSTORE POP POP JUMP JUMPDEST PUSH1 0x0 PUSH1 0x40 DUP3 ADD SWAP1 POP PUSH2 0x665 PUSH1 0x0 DUP4 ADD DUP6 PUSH2 0x5C9 JUMP JUMPDEST PUSH2 0x672 PUSH1 0x20 DUP4 ADD DUP5 PUSH2 0x641 JUMP JUMPDEST SWAP4 SWAP3 POP POP POP JUMP JUMPDEST PUSH1 0x0 PUSH1 0x20 DUP3 ADD SWAP1 POP DUP2 DUP2 SUB PUSH1 0x0 DUP4 ADD MSTORE PUSH2 0x692 DUP2 PUSH2 0x5D8 JUMP JUMPDEST SWAP1 POP SWAP2 SWAP1 POP JUMP JUMPDEST PUSH1 0x0 PUSH1 0x20 DUP3 ADD SWAP1 POP DUP2 DUP2 SUB PUSH1 0x0 DUP4 ADD MSTORE PUSH2 0x6B2 DUP2 PUSH2 0x5FB JUMP JUMPDEST SWAP1 POP SWAP2 SWAP1 POP JUMP JUMPDEST PUSH1 0x0 PUSH1 0x20 DUP3 ADD SWAP1 POP DUP2 DUP2 SUB PUSH1 0x0 DUP4 ADD MSTORE PUSH2 0x6D2 DUP2 PUSH2 0x61E JUMP JUMPDEST SWAP1 POP SWAP2 SWAP1 POP JUMP JUMPDEST PUSH1 0x0 PUSH1 0x20 DUP3 ADD SWAP1 POP PUSH2 0x6EE PUSH1 0x0 DUP4 ADD DUP5 PUSH2 0x641 JUMP JUMPDEST SWAP3 SWAP2 POP POP JUMP JUMPDEST PUSH1 0x0 PUSH1 0x40 DUP3 ADD SWAP1 POP PUSH2 0x709 PUSH1 0x0 DUP4 ADD DUP6 PUSH2 0x641 JUMP JUMPDEST PUSH2 0x716 PUSH1 0x20 DUP4 ADD DUP5 PUSH2 0x641 JUMP JUMPDEST SWAP4 SWAP3 POP POP POP JUMP JUMPDEST PUSH1 0x0 DUP3 DUP3 MSTORE PUSH1 0x20 DUP3 ADD SWAP1 POP SWAP3 SWAP2 POP POP JUMP JUMPDEST PUSH1 0x0 PUSH2 0x739 DUP3 PUSH2 0x74A JUMP JUMPDEST SWAP1 POP SWAP2 SWAP1 POP JUMP JUMPDEST PUSH1 0x0 DUP2 SWAP1 POP SWAP2 SWAP1 POP JUMP JUMPDEST PUSH1 0x0 PUSH20 0xFFFFFFFFFFFFFFFFFFFFFFFFFFFFFFFFFFFFFFFF DUP3 AND SWAP1 POP SWAP2 SWAP1 POP JUMP JUMPDEST PUSH1 0x0 DUP2 SWAP1 POP SWAP2 SWAP1 POP JUMP JUMPDEST PUSH1 0x0 DUP1 REVERT JUMPDEST PUSH32 0x42726964676520686173206E6F74206265656E20696E697469616C697A656400 PUSH1 0x0 DUP3 ADD MSTORE POP JUMP JUMPDEST PUSH32 0x4F6E6C7920676174657761792063616E20657865637574652074686973206675 PUSH1 0x0 DUP3 ADD MSTORE PUSH32 0x6E6374696F6E0000000000000000000000000000000000000000000000000000 PUSH1 0x20 DUP3 ADD MSTORE POP JUMP JUMPDEST PUSH32 0x4F6E6C79206F776E65722063616E206578656375746520746869732066756E63 PUSH1 0x0 DUP3 ADD MSTORE PUSH32 0x74696F6E00000000000000000000000000000000000000000000000000000000 PUSH1 0x20 DUP3 ADD MSTORE POP JUMP JUMPDEST PUSH2 0x849 DUP2 PUSH2 0x72E JUMP JUMPDEST DUP2 EQ PUSH2 0x854 JUMPI PUSH1 0x0 DUP1 REVERT JUMPDEST POP JUMP JUMPDEST PUSH2 0x860 DUP2 PUSH2 0x740 JUMP JUMPDEST DUP2 EQ PUSH2 0x86B JUMPI PUSH1 0x0 DUP1 REVERT JUMPDEST POP JUMP JUMPDEST PUSH2 0x877 DUP2 PUSH2 0x76A JUMP JUMPDEST DUP2 EQ PUSH2 0x882 JUMPI PUSH1 0x0 DUP1 REVERT JUMPDEST POP JUMP INVALID LOG2 PUSH5 0x6970667358 0x22 SLT KECCAK256 PUSH26 0x7AE837BC4A6C2E3716F4EDF7862CA167BCE2B8A37DADE5FAC977 MULMOD 0xEB 0xC CALLER 0xA5 PUSH5 0x736F6C6343 STOP ADDMOD SMOD STOP CALLER "
				},
				"gasEstimates": {
					"creation": {
						"codeDepositCost": "447000",
						"executionCost": "infinite",
						"totalCost": "infinite"
					},
					"external": {
						"bridgeTokens(address,uint256,bytes32)": "infinite",
						"initializeBridge(address)": "51187",
						"returnTokens(address,uint256,bytes32)": "infinite"
					}
				},
				"methodIdentifiers": {
					"bridgeTokens(address,uint256,bytes32)": "7a062791",
					"initializeBridge(address)": "2065f2c0",
					"returnTokens(address,uint256,bytes32)": "5fa420a9"
				}
			},
			"storageLayout": {
				"storage": [
					{
						"astId": 138,
						"contract": "contracts/POC_Bridge/SideBridge.sol:SideBridge",
						"label": "sideToken",
						"offset": 0,
						"slot": "0",
						"type": "t_contract(IERC20Child)107"
					},
					{
						"astId": 140,
						"contract": "contracts/POC_Bridge/SideBridge.sol:SideBridge",
						"label": "bridgeInitState",
						"offset": 20,
						"slot": "0",
						"type": "t_bool"
					},
					{
						"astId": 142,
						"contract": "contracts/POC_Bridge/SideBridge.sol:SideBridge",
						"label": "owner",
						"offset": 0,
						"slot": "1",
						"type": "t_address"
					},
					{
						"astId": 144,
						"contract": "contracts/POC_Bridge/SideBridge.sol:SideBridge",
						"label": "gateway",
						"offset": 0,
						"slot": "2",
						"type": "t_address"
					}
				],
				"types": {
					"t_address": {
						"encoding": "inplace",
						"label": "address",
						"numberOfBytes": "20"
					},
					"t_bool": {
						"encoding": "inplace",
						"label": "bool",
						"numberOfBytes": "1"
					},
					"t_contract(IERC20Child)107": {
						"encoding": "inplace",
						"label": "contract IERC20Child",
						"numberOfBytes": "20"
					}
				}
			},
			"userdoc": {
				"kind": "user",
				"methods": {},
				"version": 1
			}
		}
	}
}