{
	"contracts/POC_Bridge/MainBridge.sol": {
		"MainBridge": {
			"abi": [
				{
					"inputs": [
						{
							"internalType": "address",
							"name": "_mainToken",
							"type": "address"
						},
						{
							"internalType": "address",
							"name": "_gateway",
							"type": "address"
						}
					],
					"stateMutability": "nonpayable",
					"type": "constructor"
				},
				{
					"anonymous": false,
					"inputs": [
						{
							"indexed": true,
							"internalType": "address",
							"name": "requester",
							"type": "address"
						},
						{
							"indexed": true,
							"internalType": "bytes32",
							"name": "mainDepositHash",
							"type": "bytes32"
						},
						{
							"indexed": false,
							"internalType": "uint256",
							"name": "amount",
							"type": "uint256"
						},
						{
							"indexed": false,
							"internalType": "uint256",
							"name": "timestamp",
							"type": "uint256"
						}
					],
					"name": "TokensLocked",
					"type": "event"
				},
				{
					"anonymous": false,
					"inputs": [
						{
							"indexed": true,
							"internalType": "address",
							"name": "requester",
							"type": "address"
						},
						{
							"indexed": true,
							"internalType": "bytes32",
							"name": "sideDepositHash",
							"type": "bytes32"
						},
						{
							"indexed": false,
							"internalType": "uint256",
							"name": "amount",
							"type": "uint256"
						},
						{
							"indexed": false,
							"internalType": "uint256",
							"name": "timestamp",
							"type": "uint256"
						}
					],
					"name": "TokensUnlocked",
					"type": "event"
				},
				{
					"inputs": [
						{
							"internalType": "address",
							"name": "_requester",
							"type": "address"
						},
						{
							"internalType": "uint256",
							"name": "_bridgedAmount",
							"type": "uint256"
						},
						{
							"internalType": "bytes32",
							"name": "_mainDepositHash",
							"type": "bytes32"
						}
					],
					"name": "lockTokens",
					"outputs": [],
					"stateMutability": "nonpayable",
					"type": "function"
				},
				{
					"inputs": [
						{
							"internalType": "address",
							"name": "_requester",
							"type": "address"
						},
						{
							"internalType": "uint256",
							"name": "_bridgedAmount",
							"type": "uint256"
						},
						{
							"internalType": "bytes32",
							"name": "_sideDepositHash",
							"type": "bytes32"
						}
					],
					"name": "unlockTokens",
					"outputs": [],
					"stateMutability": "nonpayable",
					"type": "function"
				}
			],
			"devdoc": {
				"kind": "dev",
				"methods": {},
				"version": 1
			},
			"evm": {
				"assembly": "    /* \"contracts/POC_Bridge/MainBridge.sol\":289:1339  contract MainBridge {... */\n  mstore(0x40, 0x80)\n    /* \"contracts/POC_Bridge/MainBridge.sol\":598:724  constructor (address _mainToken, address _gateway) {... */\n  callvalue\n  dup1\n  iszero\n  tag_1\n  jumpi\n  0x00\n  dup1\n  revert\ntag_1:\n  pop\n  mload(0x40)\n  sub(codesize, bytecodeSize)\n  dup1\n  bytecodeSize\n  dup4\n  codecopy\n  dup2\n  dup2\n  add\n  0x40\n  mstore\n  dup2\n  add\n  swap1\n  tag_2\n  swap2\n  swap1\n  tag_3\n  jump\t// in\ntag_2:\n    /* \"contracts/POC_Bridge/MainBridge.sol\":678:688  _mainToken */\n  dup2\n    /* \"contracts/POC_Bridge/MainBridge.sol\":659:668  mainToken */\n  0x00\n  dup1\n    /* \"contracts/POC_Bridge/MainBridge.sol\":659:689  mainToken = IERC20(_mainToken) */\n  0x0100\n  exp\n  dup2\n  sload\n  dup2\n  0xffffffffffffffffffffffffffffffffffffffff\n  mul\n  not\n  and\n  swap1\n  dup4\n  0xffffffffffffffffffffffffffffffffffffffff\n  and\n  mul\n  or\n  swap1\n  sstore\n  pop\n    /* \"contracts/POC_Bridge/MainBridge.sol\":709:717  _gateway */\n  dup1\n    /* \"contracts/POC_Bridge/MainBridge.sol\":699:706  gateway */\n  0x01\n  0x00\n    /* \"contracts/POC_Bridge/MainBridge.sol\":699:717  gateway = _gateway */\n  0x0100\n  exp\n  dup2\n  sload\n  dup2\n  0xffffffffffffffffffffffffffffffffffffffff\n  mul\n  not\n  and\n  swap1\n  dup4\n  0xffffffffffffffffffffffffffffffffffffffff\n  and\n  mul\n  or\n  swap1\n  sstore\n  pop\n    /* \"contracts/POC_Bridge/MainBridge.sol\":598:724  constructor (address _mainToken, address _gateway) {... */\n  pop\n  pop\n    /* \"contracts/POC_Bridge/MainBridge.sol\":289:1339  contract MainBridge {... */\n  jump(tag_6)\n    /* \"#utility.yul\":7:150   */\ntag_8:\n    /* \"#utility.yul\":64:69   */\n  0x00\n    /* \"#utility.yul\":95:101   */\n  dup2\n    /* \"#utility.yul\":89:102   */\n  mload\n    /* \"#utility.yul\":80:102   */\n  swap1\n  pop\n    /* \"#utility.yul\":111:144   */\n  tag_10\n    /* \"#utility.yul\":138:143   */\n  dup2\n    /* \"#utility.yul\":111:144   */\n  tag_11\n  jump\t// in\ntag_10:\n    /* \"#utility.yul\":7:150   */\n  swap3\n  swap2\n  pop\n  pop\n  jump\t// out\n    /* \"#utility.yul\":156:663   */\ntag_3:\n    /* \"#utility.yul\":235:241   */\n  0x00\n    /* \"#utility.yul\":243:249   */\n  dup1\n    /* \"#utility.yul\":292:294   */\n  0x40\n    /* \"#utility.yul\":280:289   */\n  dup4\n    /* \"#utility.yul\":271:278   */\n  dup6\n    /* \"#utility.yul\":267:290   */\n  sub\n    /* \"#utility.yul\":263:295   */\n  slt\n    /* \"#utility.yul\":260:379   */\n  iszero\n  tag_13\n  jumpi\n    /* \"#utility.yul\":298:377   */\n  tag_14\n  tag_15\n  jump\t// in\ntag_14:\n    /* \"#utility.yul\":260:379   */\ntag_13:\n    /* \"#utility.yul\":418:419   */\n  0x00\n    /* \"#utility.yul\":443:507   */\n  tag_16\n    /* \"#utility.yul\":499:506   */\n  dup6\n    /* \"#utility.yul\":490:496   */\n  dup3\n    /* \"#utility.yul\":479:488   */\n  dup7\n    /* \"#utility.yul\":475:497   */\n  add\n    /* \"#utility.yul\":443:507   */\n  tag_8\n  jump\t// in\ntag_16:\n    /* \"#utility.yul\":433:507   */\n  swap3\n  pop\n    /* \"#utility.yul\":389:517   */\n  pop\n    /* \"#utility.yul\":556:558   */\n  0x20\n    /* \"#utility.yul\":582:646   */\n  tag_17\n    /* \"#utility.yul\":638:645   */\n  dup6\n    /* \"#utility.yul\":629:635   */\n  dup3\n    /* \"#utility.yul\":618:627   */\n  dup7\n    /* \"#utility.yul\":614:636   */\n  add\n    /* \"#utility.yul\":582:646   */\n  tag_8\n  jump\t// in\ntag_17:\n    /* \"#utility.yul\":572:646   */\n  swap2\n  pop\n    /* \"#utility.yul\":527:656   */\n  pop\n    /* \"#utility.yul\":156:663   */\n  swap3\n  pop\n  swap3\n  swap1\n  pop\n  jump\t// out\n    /* \"#utility.yul\":750:846   */\ntag_20:\n    /* \"#utility.yul\":787:794   */\n  0x00\n    /* \"#utility.yul\":816:840   */\n  tag_22\n    /* \"#utility.yul\":834:839   */\n  dup3\n    /* \"#utility.yul\":816:840   */\n  tag_23\n  jump\t// in\ntag_22:\n    /* \"#utility.yul\":805:840   */\n  swap1\n  pop\n    /* \"#utility.yul\":750:846   */\n  swap2\n  swap1\n  pop\n  jump\t// out\n    /* \"#utility.yul\":852:978   */\ntag_23:\n    /* \"#utility.yul\":889:896   */\n  0x00\n    /* \"#utility.yul\":929:971   */\n  0xffffffffffffffffffffffffffffffffffffffff\n    /* \"#utility.yul\":922:927   */\n  dup3\n    /* \"#utility.yul\":918:972   */\n  and\n    /* \"#utility.yul\":907:972   */\n  swap1\n  pop\n    /* \"#utility.yul\":852:978   */\n  swap2\n  swap1\n  pop\n  jump\t// out\n    /* \"#utility.yul\":1107:1224   */\ntag_15:\n    /* \"#utility.yul\":1216:1217   */\n  0x00\n    /* \"#utility.yul\":1213:1214   */\n  dup1\n    /* \"#utility.yul\":1206:1218   */\n  revert\n    /* \"#utility.yul\":1230:1352   */\ntag_11:\n    /* \"#utility.yul\":1303:1327   */\n  tag_29\n    /* \"#utility.yul\":1321:1326   */\n  dup2\n    /* \"#utility.yul\":1303:1327   */\n  tag_20\n  jump\t// in\ntag_29:\n    /* \"#utility.yul\":1296:1301   */\n  dup2\n    /* \"#utility.yul\":1293:1328   */\n  eq\n    /* \"#utility.yul\":1283:1346   */\n  tag_30\n  jumpi\n    /* \"#utility.yul\":1342:1343   */\n  0x00\n    /* \"#utility.yul\":1339:1340   */\n  dup1\n    /* \"#utility.yul\":1332:1344   */\n  revert\n    /* \"#utility.yul\":1283:1346   */\ntag_30:\n    /* \"#utility.yul\":1230:1352   */\n  pop\n  jump\t// out\n    /* \"contracts/POC_Bridge/MainBridge.sol\":289:1339  contract MainBridge {... */\ntag_6:\n  dataSize(sub_0)\n  dup1\n  dataOffset(sub_0)\n  0x00\n  codecopy\n  0x00\n  return\nstop\n\nsub_0: assembly {\n        /* \"contracts/POC_Bridge/MainBridge.sol\":289:1339  contract MainBridge {... */\n      mstore(0x40, 0x80)\n      callvalue\n      dup1\n      iszero\n      tag_1\n      jumpi\n      0x00\n      dup1\n      revert\n    tag_1:\n      pop\n      jumpi(tag_2, lt(calldatasize, 0x04))\n      shr(0xe0, calldataload(0x00))\n      dup1\n      0x41d5e8b2\n      eq\n      tag_3\n      jumpi\n      dup1\n      0xe289b1f7\n      eq\n      tag_4\n      jumpi\n    tag_2:\n      0x00\n      dup1\n      revert\n        /* \"contracts/POC_Bridge/MainBridge.sol\":730:936  function lockTokens (address _requester, uint _bridgedAmount, bytes32 _mainDepositHash) onlyGateway external {... */\n    tag_3:\n      tag_5\n      0x04\n      dup1\n      calldatasize\n      sub\n      dup2\n      add\n      swap1\n      tag_6\n      swap2\n      swap1\n      tag_7\n      jump\t// in\n    tag_6:\n      tag_8\n      jump\t// in\n    tag_5:\n      stop\n        /* \"contracts/POC_Bridge/MainBridge.sol\":942:1208  function unlockTokens (address _requester, uint _bridgedAmount, bytes32 _sideDepositHash) onlyGateway external {... */\n    tag_4:\n      tag_9\n      0x04\n      dup1\n      calldatasize\n      sub\n      dup2\n      add\n      swap1\n      tag_10\n      swap2\n      swap1\n      tag_7\n      jump\t// in\n    tag_10:\n      tag_11\n      jump\t// in\n    tag_9:\n      stop\n        /* \"contracts/POC_Bridge/MainBridge.sol\":730:936  function lockTokens (address _requester, uint _bridgedAmount, bytes32 _mainDepositHash) onlyGateway external {... */\n    tag_8:\n        /* \"contracts/POC_Bridge/MainBridge.sol\":1265:1272  gateway */\n      0x01\n      0x00\n      swap1\n      sload\n      swap1\n      0x0100\n      exp\n      swap1\n      div\n      0xffffffffffffffffffffffffffffffffffffffff\n      and\n        /* \"contracts/POC_Bridge/MainBridge.sol\":1251:1272  msg.sender == gateway */\n      0xffffffffffffffffffffffffffffffffffffffff\n      and\n        /* \"contracts/POC_Bridge/MainBridge.sol\":1251:1261  msg.sender */\n      caller\n        /* \"contracts/POC_Bridge/MainBridge.sol\":1251:1272  msg.sender == gateway */\n      0xffffffffffffffffffffffffffffffffffffffff\n      and\n      eq\n        /* \"contracts/POC_Bridge/MainBridge.sol\":1243:1315  require(msg.sender == gateway, \"only gateway can execute this function\") */\n      tag_13\n      jumpi\n      mload(0x40)\n      0x08c379a000000000000000000000000000000000000000000000000000000000\n      dup2\n      mstore\n      0x04\n      add\n      tag_14\n      swap1\n      tag_15\n      jump\t// in\n    tag_14:\n      mload(0x40)\n      dup1\n      swap2\n      sub\n      swap1\n      revert\n    tag_13:\n        /* \"contracts/POC_Bridge/MainBridge.sol\":879:895  _mainDepositHash */\n      dup1\n        /* \"contracts/POC_Bridge/MainBridge.sol\":867:877  _requester */\n      dup4\n        /* \"contracts/POC_Bridge/MainBridge.sol\":854:929  TokensLocked(_requester, _mainDepositHash, _bridgedAmount, block.timestamp) */\n      0xffffffffffffffffffffffffffffffffffffffff\n      and\n      0x508bc5d33807c46db43ce875d48dca24de9d41f9fcb35ce6e51daed771fafe59\n        /* \"contracts/POC_Bridge/MainBridge.sol\":897:911  _bridgedAmount */\n      dup5\n        /* \"contracts/POC_Bridge/MainBridge.sol\":913:928  block.timestamp */\n      timestamp\n        /* \"contracts/POC_Bridge/MainBridge.sol\":854:929  TokensLocked(_requester, _mainDepositHash, _bridgedAmount, block.timestamp) */\n      mload(0x40)\n      tag_17\n      swap3\n      swap2\n      swap1\n      tag_18\n      jump\t// in\n    tag_17:\n      mload(0x40)\n      dup1\n      swap2\n      sub\n      swap1\n      log3\n        /* \"contracts/POC_Bridge/MainBridge.sol\":730:936  function lockTokens (address _requester, uint _bridgedAmount, bytes32 _mainDepositHash) onlyGateway external {... */\n      pop\n      pop\n      pop\n      jump\t// out\n        /* \"contracts/POC_Bridge/MainBridge.sol\":942:1208  function unlockTokens (address _requester, uint _bridgedAmount, bytes32 _sideDepositHash) onlyGateway external {... */\n    tag_11:\n        /* \"contracts/POC_Bridge/MainBridge.sol\":1265:1272  gateway */\n      0x01\n      0x00\n      swap1\n      sload\n      swap1\n      0x0100\n      exp\n      swap1\n      div\n      0xffffffffffffffffffffffffffffffffffffffff\n      and\n        /* \"contracts/POC_Bridge/MainBridge.sol\":1251:1272  msg.sender == gateway */\n      0xffffffffffffffffffffffffffffffffffffffff\n      and\n        /* \"contracts/POC_Bridge/MainBridge.sol\":1251:1261  msg.sender */\n      caller\n        /* \"contracts/POC_Bridge/MainBridge.sol\":1251:1272  msg.sender == gateway */\n      0xffffffffffffffffffffffffffffffffffffffff\n      and\n      eq\n        /* \"contracts/POC_Bridge/MainBridge.sol\":1243:1315  require(msg.sender == gateway, \"only gateway can execute this function\") */\n      tag_20\n      jumpi\n      mload(0x40)\n      0x08c379a000000000000000000000000000000000000000000000000000000000\n      dup2\n      mstore\n      0x04\n      add\n      tag_21\n      swap1\n      tag_15\n      jump\t// in\n    tag_21:\n      mload(0x40)\n      dup1\n      swap2\n      sub\n      swap1\n      revert\n    tag_20:\n        /* \"contracts/POC_Bridge/MainBridge.sol\":1063:1072  mainToken */\n      0x00\n      dup1\n      sload\n      swap1\n      0x0100\n      exp\n      swap1\n      div\n      0xffffffffffffffffffffffffffffffffffffffff\n      and\n        /* \"contracts/POC_Bridge/MainBridge.sol\":1063:1081  mainToken.transfer */\n      0xffffffffffffffffffffffffffffffffffffffff\n      and\n      0xa9059cbb\n        /* \"contracts/POC_Bridge/MainBridge.sol\":1082:1092  _requester */\n      dup5\n        /* \"contracts/POC_Bridge/MainBridge.sol\":1094:1108  _bridgedAmount */\n      dup5\n        /* \"contracts/POC_Bridge/MainBridge.sol\":1063:1109  mainToken.transfer(_requester, _bridgedAmount) */\n      mload(0x40)\n      dup4\n      0xffffffff\n      and\n      0xe0\n      shl\n      dup2\n      mstore\n      0x04\n      add\n      tag_23\n      swap3\n      swap2\n      swap1\n      tag_24\n      jump\t// in\n    tag_23:\n      0x20\n      mload(0x40)\n      dup1\n      dup4\n      sub\n      dup2\n      0x00\n      dup8\n      dup1\n      extcodesize\n      iszero\n      dup1\n      iszero\n      tag_25\n      jumpi\n      0x00\n      dup1\n      revert\n    tag_25:\n      pop\n      gas\n      call\n      iszero\n      dup1\n      iszero\n      tag_27\n      jumpi\n      returndatasize\n      0x00\n      dup1\n      returndatacopy\n      revert(0x00, returndatasize)\n    tag_27:\n      pop\n      pop\n      pop\n      pop\n      mload(0x40)\n      returndatasize\n      not(0x1f)\n      0x1f\n      dup3\n      add\n      and\n      dup3\n      add\n      dup1\n      0x40\n      mstore\n      pop\n      dup2\n      add\n      swap1\n      tag_28\n      swap2\n      swap1\n      tag_29\n      jump\t// in\n    tag_28:\n      pop\n        /* \"contracts/POC_Bridge/MainBridge.sol\":1151:1167  _sideDepositHash */\n      dup1\n        /* \"contracts/POC_Bridge/MainBridge.sol\":1139:1149  _requester */\n      dup4\n        /* \"contracts/POC_Bridge/MainBridge.sol\":1124:1201  TokensUnlocked(_requester, _sideDepositHash, _bridgedAmount, block.timestamp) */\n      0xffffffffffffffffffffffffffffffffffffffff\n      and\n      0x1be65607bac1bad030c52507aedf85298a68653b3b081956dd427e03c9fe3546\n        /* \"contracts/POC_Bridge/MainBridge.sol\":1169:1183  _bridgedAmount */\n      dup5\n        /* \"contracts/POC_Bridge/MainBridge.sol\":1185:1200  block.timestamp */\n      timestamp\n        /* \"contracts/POC_Bridge/MainBridge.sol\":1124:1201  TokensUnlocked(_requester, _sideDepositHash, _bridgedAmount, block.timestamp) */\n      mload(0x40)\n      tag_30\n      swap3\n      swap2\n      swap1\n      tag_18\n      jump\t// in\n    tag_30:\n      mload(0x40)\n      dup1\n      swap2\n      sub\n      swap1\n      log3\n        /* \"contracts/POC_Bridge/MainBridge.sol\":942:1208  function unlockTokens (address _requester, uint _bridgedAmount, bytes32 _sideDepositHash) onlyGateway external {... */\n      pop\n      pop\n      pop\n      jump\t// out\n        /* \"#utility.yul\":7:146   */\n    tag_32:\n        /* \"#utility.yul\":53:58   */\n      0x00\n        /* \"#utility.yul\":91:97   */\n      dup2\n        /* \"#utility.yul\":78:98   */\n      calldataload\n        /* \"#utility.yul\":69:98   */\n      swap1\n      pop\n        /* \"#utility.yul\":107:140   */\n      tag_34\n        /* \"#utility.yul\":134:139   */\n      dup2\n        /* \"#utility.yul\":107:140   */\n      tag_35\n      jump\t// in\n    tag_34:\n        /* \"#utility.yul\":7:146   */\n      swap3\n      swap2\n      pop\n      pop\n      jump\t// out\n        /* \"#utility.yul\":152:289   */\n    tag_36:\n        /* \"#utility.yul\":206:211   */\n      0x00\n        /* \"#utility.yul\":237:243   */\n      dup2\n        /* \"#utility.yul\":231:244   */\n      mload\n        /* \"#utility.yul\":222:244   */\n      swap1\n      pop\n        /* \"#utility.yul\":253:283   */\n      tag_38\n        /* \"#utility.yul\":277:282   */\n      dup2\n        /* \"#utility.yul\":253:283   */\n      tag_39\n      jump\t// in\n    tag_38:\n        /* \"#utility.yul\":152:289   */\n      swap3\n      swap2\n      pop\n      pop\n      jump\t// out\n        /* \"#utility.yul\":295:434   */\n    tag_40:\n        /* \"#utility.yul\":341:346   */\n      0x00\n        /* \"#utility.yul\":379:385   */\n      dup2\n        /* \"#utility.yul\":366:386   */\n      calldataload\n        /* \"#utility.yul\":357:386   */\n      swap1\n      pop\n        /* \"#utility.yul\":395:428   */\n      tag_42\n        /* \"#utility.yul\":422:427   */\n      dup2\n        /* \"#utility.yul\":395:428   */\n      tag_43\n      jump\t// in\n    tag_42:\n        /* \"#utility.yul\":295:434   */\n      swap3\n      swap2\n      pop\n      pop\n      jump\t// out\n        /* \"#utility.yul\":440:579   */\n    tag_44:\n        /* \"#utility.yul\":486:491   */\n      0x00\n        /* \"#utility.yul\":524:530   */\n      dup2\n        /* \"#utility.yul\":511:531   */\n      calldataload\n        /* \"#utility.yul\":502:531   */\n      swap1\n      pop\n        /* \"#utility.yul\":540:573   */\n      tag_46\n        /* \"#utility.yul\":567:572   */\n      dup2\n        /* \"#utility.yul\":540:573   */\n      tag_47\n      jump\t// in\n    tag_46:\n        /* \"#utility.yul\":440:579   */\n      swap3\n      swap2\n      pop\n      pop\n      jump\t// out\n        /* \"#utility.yul\":585:1204   */\n    tag_7:\n        /* \"#utility.yul\":662:668   */\n      0x00\n        /* \"#utility.yul\":670:676   */\n      dup1\n        /* \"#utility.yul\":678:684   */\n      0x00\n        /* \"#utility.yul\":727:729   */\n      0x60\n        /* \"#utility.yul\":715:724   */\n      dup5\n        /* \"#utility.yul\":706:713   */\n      dup7\n        /* \"#utility.yul\":702:725   */\n      sub\n        /* \"#utility.yul\":698:730   */\n      slt\n        /* \"#utility.yul\":695:814   */\n      iszero\n      tag_49\n      jumpi\n        /* \"#utility.yul\":733:812   */\n      tag_50\n      tag_51\n      jump\t// in\n    tag_50:\n        /* \"#utility.yul\":695:814   */\n    tag_49:\n        /* \"#utility.yul\":853:854   */\n      0x00\n        /* \"#utility.yul\":878:931   */\n      tag_52\n        /* \"#utility.yul\":923:930   */\n      dup7\n        /* \"#utility.yul\":914:920   */\n      dup3\n        /* \"#utility.yul\":903:912   */\n      dup8\n        /* \"#utility.yul\":899:921   */\n      add\n        /* \"#utility.yul\":878:931   */\n      tag_32\n      jump\t// in\n    tag_52:\n        /* \"#utility.yul\":868:931   */\n      swap4\n      pop\n        /* \"#utility.yul\":824:941   */\n      pop\n        /* \"#utility.yul\":980:982   */\n      0x20\n        /* \"#utility.yul\":1006:1059   */\n      tag_53\n        /* \"#utility.yul\":1051:1058   */\n      dup7\n        /* \"#utility.yul\":1042:1048   */\n      dup3\n        /* \"#utility.yul\":1031:1040   */\n      dup8\n        /* \"#utility.yul\":1027:1049   */\n      add\n        /* \"#utility.yul\":1006:1059   */\n      tag_44\n      jump\t// in\n    tag_53:\n        /* \"#utility.yul\":996:1059   */\n      swap3\n      pop\n        /* \"#utility.yul\":951:1069   */\n      pop\n        /* \"#utility.yul\":1108:1110   */\n      0x40\n        /* \"#utility.yul\":1134:1187   */\n      tag_54\n        /* \"#utility.yul\":1179:1186   */\n      dup7\n        /* \"#utility.yul\":1170:1176   */\n      dup3\n        /* \"#utility.yul\":1159:1168   */\n      dup8\n        /* \"#utility.yul\":1155:1177   */\n      add\n        /* \"#utility.yul\":1134:1187   */\n      tag_40\n      jump\t// in\n    tag_54:\n        /* \"#utility.yul\":1124:1187   */\n      swap2\n      pop\n        /* \"#utility.yul\":1079:1197   */\n      pop\n        /* \"#utility.yul\":585:1204   */\n      swap3\n      pop\n      swap3\n      pop\n      swap3\n      jump\t// out\n        /* \"#utility.yul\":1210:1555   */\n    tag_29:\n        /* \"#utility.yul\":1277:1283   */\n      0x00\n        /* \"#utility.yul\":1326:1328   */\n      0x20\n        /* \"#utility.yul\":1314:1323   */\n      dup3\n        /* \"#utility.yul\":1305:1312   */\n      dup5\n        /* \"#utility.yul\":1301:1324   */\n      sub\n        /* \"#utility.yul\":1297:1329   */\n      slt\n        /* \"#utility.yul\":1294:1413   */\n      iszero\n      tag_56\n      jumpi\n        /* \"#utility.yul\":1332:1411   */\n      tag_57\n      tag_51\n      jump\t// in\n    tag_57:\n        /* \"#utility.yul\":1294:1413   */\n    tag_56:\n        /* \"#utility.yul\":1452:1453   */\n      0x00\n        /* \"#utility.yul\":1477:1538   */\n      tag_58\n        /* \"#utility.yul\":1530:1537   */\n      dup5\n        /* \"#utility.yul\":1521:1527   */\n      dup3\n        /* \"#utility.yul\":1510:1519   */\n      dup6\n        /* \"#utility.yul\":1506:1528   */\n      add\n        /* \"#utility.yul\":1477:1538   */\n      tag_36\n      jump\t// in\n    tag_58:\n        /* \"#utility.yul\":1467:1538   */\n      swap2\n      pop\n        /* \"#utility.yul\":1423:1548   */\n      pop\n        /* \"#utility.yul\":1210:1555   */\n      swap3\n      swap2\n      pop\n      pop\n      jump\t// out\n        /* \"#utility.yul\":1561:1679   */\n    tag_59:\n        /* \"#utility.yul\":1648:1672   */\n      tag_61\n        /* \"#utility.yul\":1666:1671   */\n      dup2\n        /* \"#utility.yul\":1648:1672   */\n      tag_62\n      jump\t// in\n    tag_61:\n        /* \"#utility.yul\":1643:1646   */\n      dup3\n        /* \"#utility.yul\":1636:1673   */\n      mstore\n        /* \"#utility.yul\":1561:1679   */\n      pop\n      pop\n      jump\t// out\n        /* \"#utility.yul\":1685:2051   */\n    tag_63:\n        /* \"#utility.yul\":1827:1830   */\n      0x00\n        /* \"#utility.yul\":1848:1915   */\n      tag_65\n        /* \"#utility.yul\":1912:1914   */\n      0x26\n        /* \"#utility.yul\":1907:1910   */\n      dup4\n        /* \"#utility.yul\":1848:1915   */\n      tag_66\n      jump\t// in\n    tag_65:\n        /* \"#utility.yul\":1841:1915   */\n      swap2\n      pop\n        /* \"#utility.yul\":1924:2017   */\n      tag_67\n        /* \"#utility.yul\":2013:2016   */\n      dup3\n        /* \"#utility.yul\":1924:2017   */\n      tag_68\n      jump\t// in\n    tag_67:\n        /* \"#utility.yul\":2042:2044   */\n      0x40\n        /* \"#utility.yul\":2037:2040   */\n      dup3\n        /* \"#utility.yul\":2033:2045   */\n      add\n        /* \"#utility.yul\":2026:2045   */\n      swap1\n      pop\n        /* \"#utility.yul\":1685:2051   */\n      swap2\n      swap1\n      pop\n      jump\t// out\n        /* \"#utility.yul\":2057:2175   */\n    tag_69:\n        /* \"#utility.yul\":2144:2168   */\n      tag_71\n        /* \"#utility.yul\":2162:2167   */\n      dup2\n        /* \"#utility.yul\":2144:2168   */\n      tag_72\n      jump\t// in\n    tag_71:\n        /* \"#utility.yul\":2139:2142   */\n      dup3\n        /* \"#utility.yul\":2132:2169   */\n      mstore\n        /* \"#utility.yul\":2057:2175   */\n      pop\n      pop\n      jump\t// out\n        /* \"#utility.yul\":2181:2513   */\n    tag_24:\n        /* \"#utility.yul\":2302:2306   */\n      0x00\n        /* \"#utility.yul\":2340:2342   */\n      0x40\n        /* \"#utility.yul\":2329:2338   */\n      dup3\n        /* \"#utility.yul\":2325:2343   */\n      add\n        /* \"#utility.yul\":2317:2343   */\n      swap1\n      pop\n        /* \"#utility.yul\":2353:2424   */\n      tag_74\n        /* \"#utility.yul\":2421:2422   */\n      0x00\n        /* \"#utility.yul\":2410:2419   */\n      dup4\n        /* \"#utility.yul\":2406:2423   */\n      add\n        /* \"#utility.yul\":2397:2403   */\n      dup6\n        /* \"#utility.yul\":2353:2424   */\n      tag_59\n      jump\t// in\n    tag_74:\n        /* \"#utility.yul\":2434:2506   */\n      tag_75\n        /* \"#utility.yul\":2502:2504   */\n      0x20\n        /* \"#utility.yul\":2491:2500   */\n      dup4\n        /* \"#utility.yul\":2487:2505   */\n      add\n        /* \"#utility.yul\":2478:2484   */\n      dup5\n        /* \"#utility.yul\":2434:2506   */\n      tag_69\n      jump\t// in\n    tag_75:\n        /* \"#utility.yul\":2181:2513   */\n      swap4\n      swap3\n      pop\n      pop\n      pop\n      jump\t// out\n        /* \"#utility.yul\":2519:2938   */\n    tag_15:\n        /* \"#utility.yul\":2685:2689   */\n      0x00\n        /* \"#utility.yul\":2723:2725   */\n      0x20\n        /* \"#utility.yul\":2712:2721   */\n      dup3\n        /* \"#utility.yul\":2708:2726   */\n      add\n        /* \"#utility.yul\":2700:2726   */\n      swap1\n      pop\n        /* \"#utility.yul\":2772:2781   */\n      dup2\n        /* \"#utility.yul\":2766:2770   */\n      dup2\n        /* \"#utility.yul\":2762:2782   */\n      sub\n        /* \"#utility.yul\":2758:2759   */\n      0x00\n        /* \"#utility.yul\":2747:2756   */\n      dup4\n        /* \"#utility.yul\":2743:2760   */\n      add\n        /* \"#utility.yul\":2736:2783   */\n      mstore\n        /* \"#utility.yul\":2800:2931   */\n      tag_77\n        /* \"#utility.yul\":2926:2930   */\n      dup2\n        /* \"#utility.yul\":2800:2931   */\n      tag_63\n      jump\t// in\n    tag_77:\n        /* \"#utility.yul\":2792:2931   */\n      swap1\n      pop\n        /* \"#utility.yul\":2519:2938   */\n      swap2\n      swap1\n      pop\n      jump\t// out\n        /* \"#utility.yul\":2944:3276   */\n    tag_18:\n        /* \"#utility.yul\":3065:3069   */\n      0x00\n        /* \"#utility.yul\":3103:3105   */\n      0x40\n        /* \"#utility.yul\":3092:3101   */\n      dup3\n        /* \"#utility.yul\":3088:3106   */\n      add\n        /* \"#utility.yul\":3080:3106   */\n      swap1\n      pop\n        /* \"#utility.yul\":3116:3187   */\n      tag_79\n        /* \"#utility.yul\":3184:3185   */\n      0x00\n        /* \"#utility.yul\":3173:3182   */\n      dup4\n        /* \"#utility.yul\":3169:3186   */\n      add\n        /* \"#utility.yul\":3160:3166   */\n      dup6\n        /* \"#utility.yul\":3116:3187   */\n      tag_69\n      jump\t// in\n    tag_79:\n        /* \"#utility.yul\":3197:3269   */\n      tag_80\n        /* \"#utility.yul\":3265:3267   */\n      0x20\n        /* \"#utility.yul\":3254:3263   */\n      dup4\n        /* \"#utility.yul\":3250:3268   */\n      add\n        /* \"#utility.yul\":3241:3247   */\n      dup5\n        /* \"#utility.yul\":3197:3269   */\n      tag_69\n      jump\t// in\n    tag_80:\n        /* \"#utility.yul\":2944:3276   */\n      swap4\n      swap3\n      pop\n      pop\n      pop\n      jump\t// out\n        /* \"#utility.yul\":3363:3532   */\n    tag_66:\n        /* \"#utility.yul\":3447:3458   */\n      0x00\n        /* \"#utility.yul\":3481:3487   */\n      dup3\n        /* \"#utility.yul\":3476:3479   */\n      dup3\n        /* \"#utility.yul\":3469:3488   */\n      mstore\n        /* \"#utility.yul\":3521:3525   */\n      0x20\n        /* \"#utility.yul\":3516:3519   */\n      dup3\n        /* \"#utility.yul\":3512:3526   */\n      add\n        /* \"#utility.yul\":3497:3526   */\n      swap1\n      pop\n        /* \"#utility.yul\":3363:3532   */\n      swap3\n      swap2\n      pop\n      pop\n      jump\t// out\n        /* \"#utility.yul\":3538:3634   */\n    tag_62:\n        /* \"#utility.yul\":3575:3582   */\n      0x00\n        /* \"#utility.yul\":3604:3628   */\n      tag_85\n        /* \"#utility.yul\":3622:3627   */\n      dup3\n        /* \"#utility.yul\":3604:3628   */\n      tag_86\n      jump\t// in\n    tag_85:\n        /* \"#utility.yul\":3593:3628   */\n      swap1\n      pop\n        /* \"#utility.yul\":3538:3634   */\n      swap2\n      swap1\n      pop\n      jump\t// out\n        /* \"#utility.yul\":3640:3730   */\n    tag_87:\n        /* \"#utility.yul\":3674:3681   */\n      0x00\n        /* \"#utility.yul\":3717:3722   */\n      dup2\n        /* \"#utility.yul\":3710:3723   */\n      iszero\n        /* \"#utility.yul\":3703:3724   */\n      iszero\n        /* \"#utility.yul\":3692:3724   */\n      swap1\n      pop\n        /* \"#utility.yul\":3640:3730   */\n      swap2\n      swap1\n      pop\n      jump\t// out\n        /* \"#utility.yul\":3736:3813   */\n    tag_89:\n        /* \"#utility.yul\":3773:3780   */\n      0x00\n        /* \"#utility.yul\":3802:3807   */\n      dup2\n        /* \"#utility.yul\":3791:3807   */\n      swap1\n      pop\n        /* \"#utility.yul\":3736:3813   */\n      swap2\n      swap1\n      pop\n      jump\t// out\n        /* \"#utility.yul\":3819:3945   */\n    tag_86:\n        /* \"#utility.yul\":3856:3863   */\n      0x00\n        /* \"#utility.yul\":3896:3938   */\n      0xffffffffffffffffffffffffffffffffffffffff\n        /* \"#utility.yul\":3889:3894   */\n      dup3\n        /* \"#utility.yul\":3885:3939   */\n      and\n        /* \"#utility.yul\":3874:3939   */\n      swap1\n      pop\n        /* \"#utility.yul\":3819:3945   */\n      swap2\n      swap1\n      pop\n      jump\t// out\n        /* \"#utility.yul\":3951:4028   */\n    tag_72:\n        /* \"#utility.yul\":3988:3995   */\n      0x00\n        /* \"#utility.yul\":4017:4022   */\n      dup2\n        /* \"#utility.yul\":4006:4022   */\n      swap1\n      pop\n        /* \"#utility.yul\":3951:4028   */\n      swap2\n      swap1\n      pop\n      jump\t// out\n        /* \"#utility.yul\":4157:4274   */\n    tag_51:\n        /* \"#utility.yul\":4266:4267   */\n      0x00\n        /* \"#utility.yul\":4263:4264   */\n      dup1\n        /* \"#utility.yul\":4256:4268   */\n      revert\n        /* \"#utility.yul\":4280:4505   */\n    tag_68:\n        /* \"#utility.yul\":4420:4454   */\n      0x6f6e6c7920676174657761792063616e20657865637574652074686973206675\n        /* \"#utility.yul\":4416:4417   */\n      0x00\n        /* \"#utility.yul\":4408:4414   */\n      dup3\n        /* \"#utility.yul\":4404:4418   */\n      add\n        /* \"#utility.yul\":4397:4455   */\n      mstore\n        /* \"#utility.yul\":4489:4497   */\n      0x6e6374696f6e0000000000000000000000000000000000000000000000000000\n        /* \"#utility.yul\":4484:4486   */\n      0x20\n        /* \"#utility.yul\":4476:4482   */\n      dup3\n        /* \"#utility.yul\":4472:4487   */\n      add\n        /* \"#utility.yul\":4465:4498   */\n      mstore\n        /* \"#utility.yul\":4280:4505   */\n      pop\n      jump\t// out\n        /* \"#utility.yul\":4511:4633   */\n    tag_35:\n        /* \"#utility.yul\":4584:4608   */\n      tag_98\n        /* \"#utility.yul\":4602:4607   */\n      dup2\n        /* \"#utility.yul\":4584:4608   */\n      tag_62\n      jump\t// in\n    tag_98:\n        /* \"#utility.yul\":4577:4582   */\n      dup2\n        /* \"#utility.yul\":4574:4609   */\n      eq\n        /* \"#utility.yul\":4564:4627   */\n      tag_99\n      jumpi\n        /* \"#utility.yul\":4623:4624   */\n      0x00\n        /* \"#utility.yul\":4620:4621   */\n      dup1\n        /* \"#utility.yul\":4613:4625   */\n      revert\n        /* \"#utility.yul\":4564:4627   */\n    tag_99:\n        /* \"#utility.yul\":4511:4633   */\n      pop\n      jump\t// out\n        /* \"#utility.yul\":4639:4755   */\n    tag_39:\n        /* \"#utility.yul\":4709:4730   */\n      tag_101\n        /* \"#utility.yul\":4724:4729   */\n      dup2\n        /* \"#utility.yul\":4709:4730   */\n      tag_87\n      jump\t// in\n    tag_101:\n        /* \"#utility.yul\":4702:4707   */\n      dup2\n        /* \"#utility.yul\":4699:4731   */\n      eq\n        /* \"#utility.yul\":4689:4749   */\n      tag_102\n      jumpi\n        /* \"#utility.yul\":4745:4746   */\n      0x00\n        /* \"#utility.yul\":4742:4743   */\n      dup1\n        /* \"#utility.yul\":4735:4747   */\n      revert\n        /* \"#utility.yul\":4689:4749   */\n    tag_102:\n        /* \"#utility.yul\":4639:4755   */\n      pop\n      jump\t// out\n        /* \"#utility.yul\":4761:4883   */\n    tag_43:\n        /* \"#utility.yul\":4834:4858   */\n      tag_104\n        /* \"#utility.yul\":4852:4857   */\n      dup2\n        /* \"#utility.yul\":4834:4858   */\n      tag_89\n      jump\t// in\n    tag_104:\n        /* \"#utility.yul\":4827:4832   */\n      dup2\n        /* \"#utility.yul\":4824:4859   */\n      eq\n        /* \"#utility.yul\":4814:4877   */\n      tag_105\n      jumpi\n        /* \"#utility.yul\":4873:4874   */\n      0x00\n        /* \"#utility.yul\":4870:4871   */\n      dup1\n        /* \"#utility.yul\":4863:4875   */\n      revert\n        /* \"#utility.yul\":4814:4877   */\n    tag_105:\n        /* \"#utility.yul\":4761:4883   */\n      pop\n      jump\t// out\n        /* \"#utility.yul\":4889:5011   */\n    tag_47:\n        /* \"#utility.yul\":4962:4986   */\n      tag_107\n        /* \"#utility.yul\":4980:4985   */\n      dup2\n        /* \"#utility.yul\":4962:4986   */\n      tag_72\n      jump\t// in\n    tag_107:\n        /* \"#utility.yul\":4955:4960   */\n      dup2\n        /* \"#utility.yul\":4952:4987   */\n      eq\n        /* \"#utility.yul\":4942:5005   */\n      tag_108\n      jumpi\n        /* \"#utility.yul\":5001:5002   */\n      0x00\n        /* \"#utility.yul\":4998:4999   */\n      dup1\n        /* \"#utility.yul\":4991:5003   */\n      revert\n        /* \"#utility.yul\":4942:5005   */\n    tag_108:\n        /* \"#utility.yul\":4889:5011   */\n      pop\n      jump\t// out\n\n    auxdata: 0xa26469706673582212204d79f5fbd10264462f8bbfcb5b27e0322fce58460978d2ce23ba2963a2b6b3ab64736f6c63430008070033\n}\n",
				"bytecode": {
					"linkReferences": {},
					"object": "608060405234801561001057600080fd5b50604051610729380380610729833981810160405281019061003291906100cf565b816000806101000a81548173ffffffffffffffffffffffffffffffffffffffff021916908373ffffffffffffffffffffffffffffffffffffffff16021790555080600160006101000a81548173ffffffffffffffffffffffffffffffffffffffff021916908373ffffffffffffffffffffffffffffffffffffffff160217905550505061015d565b6000815190506100c981610146565b92915050565b600080604083850312156100e6576100e5610141565b5b60006100f4858286016100ba565b9250506020610105858286016100ba565b9150509250929050565b600061011a82610121565b9050919050565b600073ffffffffffffffffffffffffffffffffffffffff82169050919050565b600080fd5b61014f8161010f565b811461015a57600080fd5b50565b6105bd8061016c6000396000f3fe608060405234801561001057600080fd5b50600436106100365760003560e01c806341d5e8b21461003b578063e289b1f714610057575b600080fd5b61005560048036038101906100509190610341565b610073565b005b610071600480360381019061006c9190610341565b610159565b005b600160009054906101000a900473ffffffffffffffffffffffffffffffffffffffff1673ffffffffffffffffffffffffffffffffffffffff163373ffffffffffffffffffffffffffffffffffffffff1614610103576040517f08c379a00000000000000000000000000000000000000000000000000000000081526004016100fa9061042b565b60405180910390fd5b808373ffffffffffffffffffffffffffffffffffffffff167f508bc5d33807c46db43ce875d48dca24de9d41f9fcb35ce6e51daed771fafe59844260405161014c92919061044b565b60405180910390a3505050565b600160009054906101000a900473ffffffffffffffffffffffffffffffffffffffff1673ffffffffffffffffffffffffffffffffffffffff163373ffffffffffffffffffffffffffffffffffffffff16146101e9576040517f08c379a00000000000000000000000000000000000000000000000000000000081526004016101e09061042b565b60405180910390fd5b60008054906101000a900473ffffffffffffffffffffffffffffffffffffffff1673ffffffffffffffffffffffffffffffffffffffff1663a9059cbb84846040518363ffffffff1660e01b8152600401610244929190610402565b602060405180830381600087803b15801561025e57600080fd5b505af1158015610272573d6000803e3d6000fd5b505050506040513d601f19601f820116820180604052508101906102969190610394565b50808373ffffffffffffffffffffffffffffffffffffffff167f1be65607bac1bad030c52507aedf85298a68653b3b081956dd427e03c9fe354684426040516102e092919061044b565b60405180910390a3505050565b6000813590506102fc8161052b565b92915050565b60008151905061031181610542565b92915050565b60008135905061032681610559565b92915050565b60008135905061033b81610570565b92915050565b60008060006060848603121561035a576103596104d7565b5b6000610368868287016102ed565b93505060206103798682870161032c565b925050604061038a86828701610317565b9150509250925092565b6000602082840312156103aa576103a96104d7565b5b60006103b884828501610302565b91505092915050565b6103ca81610485565b82525050565b60006103dd602683610474565b91506103e8826104dc565b604082019050919050565b6103fc816104cd565b82525050565b600060408201905061041760008301856103c1565b61042460208301846103f3565b9392505050565b60006020820190508181036000830152610444816103d0565b9050919050565b600060408201905061046060008301856103f3565b61046d60208301846103f3565b9392505050565b600082825260208201905092915050565b6000610490826104ad565b9050919050565b60008115159050919050565b6000819050919050565b600073ffffffffffffffffffffffffffffffffffffffff82169050919050565b6000819050919050565b600080fd5b7f6f6e6c7920676174657761792063616e2065786563757465207468697320667560008201527f6e6374696f6e0000000000000000000000000000000000000000000000000000602082015250565b61053481610485565b811461053f57600080fd5b50565b61054b81610497565b811461055657600080fd5b50565b610562816104a3565b811461056d57600080fd5b50565b610579816104cd565b811461058457600080fd5b5056fea26469706673582212204d79f5fbd10264462f8bbfcb5b27e0322fce58460978d2ce23ba2963a2b6b3ab64736f6c63430008070033",
					"opcodes": "PUSH1 0x80 PUSH1 0x40 MSTORE CALLVALUE DUP1 ISZERO PUSH2 0x10 JUMPI PUSH1 0x0 DUP1 REVERT JUMPDEST POP PUSH1 0x40 MLOAD PUSH2 0x729 CODESIZE SUB DUP1 PUSH2 0x729 DUP4 CODECOPY DUP2 DUP2 ADD PUSH1 0x40 MSTORE DUP2 ADD SWAP1 PUSH2 0x32 SWAP2 SWAP1 PUSH2 0xCF JUMP JUMPDEST DUP2 PUSH1 0x0 DUP1 PUSH2 0x100 EXP DUP2 SLOAD DUP2 PUSH20 0xFFFFFFFFFFFFFFFFFFFFFFFFFFFFFFFFFFFFFFFF MUL NOT AND SWAP1 DUP4 PUSH20 0xFFFFFFFFFFFFFFFFFFFFFFFFFFFFFFFFFFFFFFFF AND MUL OR SWAP1 SSTORE POP DUP1 PUSH1 0x1 PUSH1 0x0 PUSH2 0x100 EXP DUP2 SLOAD DUP2 PUSH20 0xFFFFFFFFFFFFFFFFFFFFFFFFFFFFFFFFFFFFFFFF MUL NOT AND SWAP1 DUP4 PUSH20 0xFFFFFFFFFFFFFFFFFFFFFFFFFFFFFFFFFFFFFFFF AND MUL OR SWAP1 SSTORE POP POP POP PUSH2 0x15D JUMP JUMPDEST PUSH1 0x0 DUP2 MLOAD SWAP1 POP PUSH2 0xC9 DUP2 PUSH2 0x146 JUMP JUMPDEST SWAP3 SWAP2 POP POP JUMP JUMPDEST PUSH1 0x0 DUP1 PUSH1 0x40 DUP4 DUP6 SUB SLT ISZERO PUSH2 0xE6 JUMPI PUSH2 0xE5 PUSH2 0x141 JUMP JUMPDEST JUMPDEST PUSH1 0x0 PUSH2 0xF4 DUP6 DUP3 DUP7 ADD PUSH2 0xBA JUMP JUMPDEST SWAP3 POP POP PUSH1 0x20 PUSH2 0x105 DUP6 DUP3 DUP7 ADD PUSH2 0xBA JUMP JUMPDEST SWAP2 POP POP SWAP3 POP SWAP3 SWAP1 POP JUMP JUMPDEST PUSH1 0x0 PUSH2 0x11A DUP3 PUSH2 0x121 JUMP JUMPDEST SWAP1 POP SWAP2 SWAP1 POP JUMP JUMPDEST PUSH1 0x0 PUSH20 0xFFFFFFFFFFFFFFFFFFFFFFFFFFFFFFFFFFFFFFFF DUP3 AND SWAP1 POP SWAP2 SWAP1 POP JUMP JUMPDEST PUSH1 0x0 DUP1 REVERT JUMPDEST PUSH2 0x14F DUP2 PUSH2 0x10F JUMP JUMPDEST DUP2 EQ PUSH2 0x15A JUMPI PUSH1 0x0 DUP1 REVERT JUMPDEST POP JUMP JUMPDEST PUSH2 0x5BD DUP1 PUSH2 0x16C PUSH1 0x0 CODECOPY PUSH1 0x0 RETURN INVALID PUSH1 0x80 PUSH1 0x40 MSTORE CALLVALUE DUP1 ISZERO PUSH2 0x10 JUMPI PUSH1 0x0 DUP1 REVERT JUMPDEST POP PUSH1 0x4 CALLDATASIZE LT PUSH2 0x36 JUMPI PUSH1 0x0 CALLDATALOAD PUSH1 0xE0 SHR DUP1 PUSH4 0x41D5E8B2 EQ PUSH2 0x3B JUMPI DUP1 PUSH4 0xE289B1F7 EQ PUSH2 0x57 JUMPI JUMPDEST PUSH1 0x0 DUP1 REVERT JUMPDEST PUSH2 0x55 PUSH1 0x4 DUP1 CALLDATASIZE SUB DUP2 ADD SWAP1 PUSH2 0x50 SWAP2 SWAP1 PUSH2 0x341 JUMP JUMPDEST PUSH2 0x73 JUMP JUMPDEST STOP JUMPDEST PUSH2 0x71 PUSH1 0x4 DUP1 CALLDATASIZE SUB DUP2 ADD SWAP1 PUSH2 0x6C SWAP2 SWAP1 PUSH2 0x341 JUMP JUMPDEST PUSH2 0x159 JUMP JUMPDEST STOP JUMPDEST PUSH1 0x1 PUSH1 0x0 SWAP1 SLOAD SWAP1 PUSH2 0x100 EXP SWAP1 DIV PUSH20 0xFFFFFFFFFFFFFFFFFFFFFFFFFFFFFFFFFFFFFFFF AND PUSH20 0xFFFFFFFFFFFFFFFFFFFFFFFFFFFFFFFFFFFFFFFF AND CALLER PUSH20 0xFFFFFFFFFFFFFFFFFFFFFFFFFFFFFFFFFFFFFFFF AND EQ PUSH2 0x103 JUMPI PUSH1 0x40 MLOAD PUSH32 0x8C379A000000000000000000000000000000000000000000000000000000000 DUP2 MSTORE PUSH1 0x4 ADD PUSH2 0xFA SWAP1 PUSH2 0x42B JUMP JUMPDEST PUSH1 0x40 MLOAD DUP1 SWAP2 SUB SWAP1 REVERT JUMPDEST DUP1 DUP4 PUSH20 0xFFFFFFFFFFFFFFFFFFFFFFFFFFFFFFFFFFFFFFFF AND PUSH32 0x508BC5D33807C46DB43CE875D48DCA24DE9D41F9FCB35CE6E51DAED771FAFE59 DUP5 TIMESTAMP PUSH1 0x40 MLOAD PUSH2 0x14C SWAP3 SWAP2 SWAP1 PUSH2 0x44B JUMP JUMPDEST PUSH1 0x40 MLOAD DUP1 SWAP2 SUB SWAP1 LOG3 POP POP POP JUMP JUMPDEST PUSH1 0x1 PUSH1 0x0 SWAP1 SLOAD SWAP1 PUSH2 0x100 EXP SWAP1 DIV PUSH20 0xFFFFFFFFFFFFFFFFFFFFFFFFFFFFFFFFFFFFFFFF AND PUSH20 0xFFFFFFFFFFFFFFFFFFFFFFFFFFFFFFFFFFFFFFFF AND CALLER PUSH20 0xFFFFFFFFFFFFFFFFFFFFFFFFFFFFFFFFFFFFFFFF AND EQ PUSH2 0x1E9 JUMPI PUSH1 0x40 MLOAD PUSH32 0x8C379A000000000000000000000000000000000000000000000000000000000 DUP2 MSTORE PUSH1 0x4 ADD PUSH2 0x1E0 SWAP1 PUSH2 0x42B JUMP JUMPDEST PUSH1 0x40 MLOAD DUP1 SWAP2 SUB SWAP1 REVERT JUMPDEST PUSH1 0x0 DUP1 SLOAD SWAP1 PUSH2 0x100 EXP SWAP1 DIV PUSH20 0xFFFFFFFFFFFFFFFFFFFFFFFFFFFFFFFFFFFFFFFF AND PUSH20 0xFFFFFFFFFFFFFFFFFFFFFFFFFFFFFFFFFFFFFFFF AND PUSH4 0xA9059CBB DUP5 DUP5 PUSH1 0x40 MLOAD DUP4 PUSH4 0xFFFFFFFF AND PUSH1 0xE0 SHL DUP2 MSTORE PUSH1 0x4 ADD PUSH2 0x244 SWAP3 SWAP2 SWAP1 PUSH2 0x402 JUMP JUMPDEST PUSH1 0x20 PUSH1 0x40 MLOAD DUP1 DUP4 SUB DUP2 PUSH1 0x0 DUP8 DUP1 EXTCODESIZE ISZERO DUP1 ISZERO PUSH2 0x25E JUMPI PUSH1 0x0 DUP1 REVERT JUMPDEST POP GAS CALL ISZERO DUP1 ISZERO PUSH2 0x272 JUMPI RETURNDATASIZE PUSH1 0x0 DUP1 RETURNDATACOPY RETURNDATASIZE PUSH1 0x0 REVERT JUMPDEST POP POP POP POP PUSH1 0x40 MLOAD RETURNDATASIZE PUSH1 0x1F NOT PUSH1 0x1F DUP3 ADD AND DUP3 ADD DUP1 PUSH1 0x40 MSTORE POP DUP2 ADD SWAP1 PUSH2 0x296 SWAP2 SWAP1 PUSH2 0x394 JUMP JUMPDEST POP DUP1 DUP4 PUSH20 0xFFFFFFFFFFFFFFFFFFFFFFFFFFFFFFFFFFFFFFFF AND PUSH32 0x1BE65607BAC1BAD030C52507AEDF85298A68653B3B081956DD427E03C9FE3546 DUP5 TIMESTAMP PUSH1 0x40 MLOAD PUSH2 0x2E0 SWAP3 SWAP2 SWAP1 PUSH2 0x44B JUMP JUMPDEST PUSH1 0x40 MLOAD DUP1 SWAP2 SUB SWAP1 LOG3 POP POP POP JUMP JUMPDEST PUSH1 0x0 DUP2 CALLDATALOAD SWAP1 POP PUSH2 0x2FC DUP2 PUSH2 0x52B JUMP JUMPDEST SWAP3 SWAP2 POP POP JUMP JUMPDEST PUSH1 0x0 DUP2 MLOAD SWAP1 POP PUSH2 0x311 DUP2 PUSH2 0x542 JUMP JUMPDEST SWAP3 SWAP2 POP POP JUMP JUMPDEST PUSH1 0x0 DUP2 CALLDATALOAD SWAP1 POP PUSH2 0x326 DUP2 PUSH2 0x559 JUMP JUMPDEST SWAP3 SWAP2 POP POP JUMP JUMPDEST PUSH1 0x0 DUP2 CALLDATALOAD SWAP1 POP PUSH2 0x33B DUP2 PUSH2 0x570 JUMP JUMPDEST SWAP3 SWAP2 POP POP JUMP JUMPDEST PUSH1 0x0 DUP1 PUSH1 0x0 PUSH1 0x60 DUP5 DUP7 SUB SLT ISZERO PUSH2 0x35A JUMPI PUSH2 0x359 PUSH2 0x4D7 JUMP JUMPDEST JUMPDEST PUSH1 0x0 PUSH2 0x368 DUP7 DUP3 DUP8 ADD PUSH2 0x2ED JUMP JUMPDEST SWAP4 POP POP PUSH1 0x20 PUSH2 0x379 DUP7 DUP3 DUP8 ADD PUSH2 0x32C JUMP JUMPDEST SWAP3 POP POP PUSH1 0x40 PUSH2 0x38A DUP7 DUP3 DUP8 ADD PUSH2 0x317 JUMP JUMPDEST SWAP2 POP POP SWAP3 POP SWAP3 POP SWAP3 JUMP JUMPDEST PUSH1 0x0 PUSH1 0x20 DUP3 DUP5 SUB SLT ISZERO PUSH2 0x3AA JUMPI PUSH2 0x3A9 PUSH2 0x4D7 JUMP JUMPDEST JUMPDEST PUSH1 0x0 PUSH2 0x3B8 DUP5 DUP3 DUP6 ADD PUSH2 0x302 JUMP JUMPDEST SWAP2 POP POP SWAP3 SWAP2 POP POP JUMP JUMPDEST PUSH2 0x3CA DUP2 PUSH2 0x485 JUMP JUMPDEST DUP3 MSTORE POP POP JUMP JUMPDEST PUSH1 0x0 PUSH2 0x3DD PUSH1 0x26 DUP4 PUSH2 0x474 JUMP JUMPDEST SWAP2 POP PUSH2 0x3E8 DUP3 PUSH2 0x4DC JUMP JUMPDEST PUSH1 0x40 DUP3 ADD SWAP1 POP SWAP2 SWAP1 POP JUMP JUMPDEST PUSH2 0x3FC DUP2 PUSH2 0x4CD JUMP JUMPDEST DUP3 MSTORE POP POP JUMP JUMPDEST PUSH1 0x0 PUSH1 0x40 DUP3 ADD SWAP1 POP PUSH2 0x417 PUSH1 0x0 DUP4 ADD DUP6 PUSH2 0x3C1 JUMP JUMPDEST PUSH2 0x424 PUSH1 0x20 DUP4 ADD DUP5 PUSH2 0x3F3 JUMP JUMPDEST SWAP4 SWAP3 POP POP POP JUMP JUMPDEST PUSH1 0x0 PUSH1 0x20 DUP3 ADD SWAP1 POP DUP2 DUP2 SUB PUSH1 0x0 DUP4 ADD MSTORE PUSH2 0x444 DUP2 PUSH2 0x3D0 JUMP JUMPDEST SWAP1 POP SWAP2 SWAP1 POP JUMP JUMPDEST PUSH1 0x0 PUSH1 0x40 DUP3 ADD SWAP1 POP PUSH2 0x460 PUSH1 0x0 DUP4 ADD DUP6 PUSH2 0x3F3 JUMP JUMPDEST PUSH2 0x46D PUSH1 0x20 DUP4 ADD DUP5 PUSH2 0x3F3 JUMP JUMPDEST SWAP4 SWAP3 POP POP POP JUMP JUMPDEST PUSH1 0x0 DUP3 DUP3 MSTORE PUSH1 0x20 DUP3 ADD SWAP1 POP SWAP3 SWAP2 POP POP JUMP JUMPDEST PUSH1 0x0 PUSH2 0x490 DUP3 PUSH2 0x4AD JUMP JUMPDEST SWAP1 POP SWAP2 SWAP1 POP JUMP JUMPDEST PUSH1 0x0 DUP2 ISZERO ISZERO SWAP1 POP SWAP2 SWAP1 POP JUMP JUMPDEST PUSH1 0x0 DUP2 SWAP1 POP SWAP2 SWAP1 POP JUMP JUMPDEST PUSH1 0x0 PUSH20 0xFFFFFFFFFFFFFFFFFFFFFFFFFFFFFFFFFFFFFFFF DUP3 AND SWAP1 POP SWAP2 SWAP1 POP JUMP JUMPDEST PUSH1 0x0 DUP2 SWAP1 POP SWAP2 SWAP1 POP JUMP JUMPDEST PUSH1 0x0 DUP1 REVERT JUMPDEST PUSH32 0x6F6E6C7920676174657761792063616E20657865637574652074686973206675 PUSH1 0x0 DUP3 ADD MSTORE PUSH32 0x6E6374696F6E0000000000000000000000000000000000000000000000000000 PUSH1 0x20 DUP3 ADD MSTORE POP JUMP JUMPDEST PUSH2 0x534 DUP2 PUSH2 0x485 JUMP JUMPDEST DUP2 EQ PUSH2 0x53F JUMPI PUSH1 0x0 DUP1 REVERT JUMPDEST POP JUMP JUMPDEST PUSH2 0x54B DUP2 PUSH2 0x497 JUMP JUMPDEST DUP2 EQ PUSH2 0x556 JUMPI PUSH1 0x0 DUP1 REVERT JUMPDEST POP JUMP JUMPDEST PUSH2 0x562 DUP2 PUSH2 0x4A3 JUMP JUMPDEST DUP2 EQ PUSH2 0x56D JUMPI PUSH1 0x0 DUP1 REVERT JUMPDEST POP JUMP JUMPDEST PUSH2 0x579 DUP2 PUSH2 0x4CD JUMP JUMPDEST DUP2 EQ PUSH2 0x584 JUMPI PUSH1 0x0 DUP1 REVERT JUMPDEST POP JUMP INVALID LOG2 PUSH5 0x6970667358 0x22 SLT KECCAK256 0x4D PUSH26 0xF5FBD10264462F8BBFCB5B27E0322FCE58460978D2CE23BA2963 LOG2 0xB6 0xB3 0xAB PUSH5 0x736F6C6343 STOP ADDMOD SMOD STOP CALLER "
				},
				"gasEstimates": {
					"creation": {
						"codeDepositCost": "293800",
						"executionCost": "infinite",
						"totalCost": "infinite"
					},
					"external": {
						"lockTokens(address,uint256,bytes32)": "infinite",
						"unlockTokens(address,uint256,bytes32)": "infinite"
					}
				},
				"methodIdentifiers": {
					"lockTokens(address,uint256,bytes32)": "41d5e8b2",
					"unlockTokens(address,uint256,bytes32)": "e289b1f7"
				}
			},
			"storageLayout": {
				"storage": [
					{
						"astId": 84,
						"contract": "contracts/POC_Bridge/MainBridge.sol:MainBridge",
						"label": "mainToken",
						"offset": 0,
						"slot": "0",
						"type": "t_contract(IERC20)77"
					},
					{
						"astId": 86,
						"contract": "contracts/POC_Bridge/MainBridge.sol:MainBridge",
						"label": "gateway",
						"offset": 0,
						"slot": "1",
						"type": "t_address"
					}
				],
				"types": {
					"t_address": {
						"encoding": "inplace",
						"label": "address",
						"numberOfBytes": "20"
					},
					"t_contract(IERC20)77": {
						"encoding": "inplace",
						"label": "contract IERC20",
						"numberOfBytes": "20"
					}
				}
			},
			"userdoc": {
				"kind": "user",
				"methods": {},
				"version": 1
			}
		}
	}
}