{
	"contracts/POC_Bridge/childContract.sol": {
		"TokenChild": {
			"abi": [
				{
					"inputs": [
						{
							"internalType": "address",
							"name": "_bridge",
							"type": "address"
						}
					],
					"stateMutability": "nonpayable",
					"type": "constructor"
				},
				{
					"anonymous": false,
					"inputs": [
						{
							"indexed": true,
							"internalType": "address",
							"name": "owner",
							"type": "address"
						},
						{
							"indexed": true,
							"internalType": "address",
							"name": "spender",
							"type": "address"
						},
						{
							"indexed": false,
							"internalType": "uint256",
							"name": "value",
							"type": "uint256"
						}
					],
					"name": "Approval",
					"type": "event"
				},
				{
					"anonymous": false,
					"inputs": [
						{
							"indexed": true,
							"internalType": "address",
							"name": "from",
							"type": "address"
						},
						{
							"indexed": true,
							"internalType": "address",
							"name": "to",
							"type": "address"
						},
						{
							"indexed": false,
							"internalType": "uint256",
							"name": "value",
							"type": "uint256"
						}
					],
					"name": "Transfer",
					"type": "event"
				},
				{
					"inputs": [
						{
							"internalType": "address",
							"name": "owner",
							"type": "address"
						},
						{
							"internalType": "address",
							"name": "spender",
							"type": "address"
						}
					],
					"name": "allowance",
					"outputs": [
						{
							"internalType": "uint256",
							"name": "",
							"type": "uint256"
						}
					],
					"stateMutability": "view",
					"type": "function"
				},
				{
					"inputs": [
						{
							"internalType": "address",
							"name": "spender",
							"type": "address"
						},
						{
							"internalType": "uint256",
							"name": "amount",
							"type": "uint256"
						}
					],
					"name": "approve",
					"outputs": [
						{
							"internalType": "bool",
							"name": "",
							"type": "bool"
						}
					],
					"stateMutability": "nonpayable",
					"type": "function"
				},
				{
					"inputs": [
						{
							"internalType": "address",
							"name": "account",
							"type": "address"
						}
					],
					"name": "balanceOf",
					"outputs": [
						{
							"internalType": "uint256",
							"name": "",
							"type": "uint256"
						}
					],
					"stateMutability": "view",
					"type": "function"
				},
				{
					"inputs": [
						{
							"internalType": "uint256",
							"name": "amount",
							"type": "uint256"
						}
					],
					"name": "burn",
					"outputs": [],
					"stateMutability": "nonpayable",
					"type": "function"
				},
				{
					"inputs": [
						{
							"internalType": "address",
							"name": "account",
							"type": "address"
						},
						{
							"internalType": "uint256",
							"name": "amount",
							"type": "uint256"
						}
					],
					"name": "burnFrom",
					"outputs": [],
					"stateMutability": "nonpayable",
					"type": "function"
				},
				{
					"inputs": [],
					"name": "decimals",
					"outputs": [
						{
							"internalType": "uint8",
							"name": "",
							"type": "uint8"
						}
					],
					"stateMutability": "view",
					"type": "function"
				},
				{
					"inputs": [
						{
							"internalType": "address",
							"name": "spender",
							"type": "address"
						},
						{
							"internalType": "uint256",
							"name": "subtractedValue",
							"type": "uint256"
						}
					],
					"name": "decreaseAllowance",
					"outputs": [
						{
							"internalType": "bool",
							"name": "",
							"type": "bool"
						}
					],
					"stateMutability": "nonpayable",
					"type": "function"
				},
				{
					"inputs": [
						{
							"internalType": "address",
							"name": "spender",
							"type": "address"
						},
						{
							"internalType": "uint256",
							"name": "addedValue",
							"type": "uint256"
						}
					],
					"name": "increaseAllowance",
					"outputs": [
						{
							"internalType": "bool",
							"name": "",
							"type": "bool"
						}
					],
					"stateMutability": "nonpayable",
					"type": "function"
				},
				{
					"inputs": [
						{
							"internalType": "address",
							"name": "recipient",
							"type": "address"
						},
						{
							"internalType": "uint256",
							"name": "amount",
							"type": "uint256"
						}
					],
					"name": "mint",
					"outputs": [],
					"stateMutability": "nonpayable",
					"type": "function"
				},
				{
					"inputs": [],
					"name": "name",
					"outputs": [
						{
							"internalType": "string",
							"name": "",
							"type": "string"
						}
					],
					"stateMutability": "view",
					"type": "function"
				},
				{
					"inputs": [],
					"name": "symbol",
					"outputs": [
						{
							"internalType": "string",
							"name": "",
							"type": "string"
						}
					],
					"stateMutability": "view",
					"type": "function"
				},
				{
					"inputs": [],
					"name": "totalSupply",
					"outputs": [
						{
							"internalType": "uint256",
							"name": "",
							"type": "uint256"
						}
					],
					"stateMutability": "view",
					"type": "function"
				},
				{
					"inputs": [
						{
							"internalType": "address",
							"name": "recipient",
							"type": "address"
						},
						{
							"internalType": "uint256",
							"name": "amount",
							"type": "uint256"
						}
					],
					"name": "transfer",
					"outputs": [
						{
							"internalType": "bool",
							"name": "",
							"type": "bool"
						}
					],
					"stateMutability": "nonpayable",
					"type": "function"
				},
				{
					"inputs": [
						{
							"internalType": "address",
							"name": "sender",
							"type": "address"
						},
						{
							"internalType": "address",
							"name": "recipient",
							"type": "address"
						},
						{
							"internalType": "uint256",
							"name": "amount",
							"type": "uint256"
						}
					],
					"name": "transferFrom",
					"outputs": [
						{
							"internalType": "bool",
							"name": "",
							"type": "bool"
						}
					],
					"stateMutability": "nonpayable",
					"type": "function"
				}
			],
			"devdoc": {
				"kind": "dev",
				"methods": {
					"allowance(address,address)": {
						"details": "See {IERC20-allowance}."
					},
					"approve(address,uint256)": {
						"details": "See {IERC20-approve}. Requirements: - `spender` cannot be the zero address."
					},
					"balanceOf(address)": {
						"details": "See {IERC20-balanceOf}."
					},
					"burn(uint256)": {
						"details": "Only callable by account with access (gateway role)"
					},
					"burnFrom(address,uint256)": {
						"details": "Only callable by account with access (gateway role)"
					},
					"decimals()": {
						"details": "Returns the number of decimals used to get its user representation. For example, if `decimals` equals `2`, a balance of `505` tokens should be displayed to a user as `5,05` (`505 / 10 ** 2`). Tokens usually opt for a value of 18, imitating the relationship between Ether and Wei. This is the value {ERC20} uses, unless this function is overloaded; NOTE: This information is only used for _display_ purposes: it in no way affects any of the arithmetic of the contract, including {IERC20-balanceOf} and {IERC20-transfer}."
					},
					"decreaseAllowance(address,uint256)": {
						"details": "Atomically decreases the allowance granted to `spender` by the caller. This is an alternative to {approve} that can be used as a mitigation for problems described in {IERC20-approve}. Emits an {Approval} event indicating the updated allowance. Requirements: - `spender` cannot be the zero address. - `spender` must have allowance for the caller of at least `subtractedValue`."
					},
					"increaseAllowance(address,uint256)": {
						"details": "Atomically increases the allowance granted to `spender` by the caller. This is an alternative to {approve} that can be used as a mitigation for problems described in {IERC20-approve}. Emits an {Approval} event indicating the updated allowance. Requirements: - `spender` cannot be the zero address."
					},
					"mint(address,uint256)": {
						"details": "Only callable by account with access (gateway role)"
					},
					"name()": {
						"details": "Returns the name of the token."
					},
					"symbol()": {
						"details": "Returns the symbol of the token, usually a shorter version of the name."
					},
					"totalSupply()": {
						"details": "See {IERC20-totalSupply}."
					},
					"transfer(address,uint256)": {
						"details": "See {IERC20-transfer}. Requirements: - `recipient` cannot be the zero address. - the caller must have a balance of at least `amount`."
					},
					"transferFrom(address,address,uint256)": {
						"details": "See {IERC20-transferFrom}. Emits an {Approval} event indicating the updated allowance. This is not required by the EIP. See the note at the beginning of {ERC20}. Requirements: - `sender` and `recipient` cannot be the zero address. - `sender` must have a balance of at least `amount`. - the caller must have allowance for ``sender``'s tokens of at least `amount`."
					}
				},
				"version": 1
			},
			"evm": {
				"assembly": "    /* \"contracts/POC_Bridge/childContract.sol\":539:1735  contract TokenChild is ERC20, ERC20Burnable {... */\n  mstore(0x40, 0x80)\n    /* \"contracts/POC_Bridge/childContract.sol\":615:716  constructor (address _bridge) ERC20(\"ImperialsCreditsChild\", \"ICR\") {... */\n  callvalue\n  dup1\n  iszero\n  tag_1\n  jumpi\n  0x00\n  dup1\n  revert\ntag_1:\n  pop\n  mload(0x40)\n  sub(codesize, bytecodeSize)\n  dup1\n  bytecodeSize\n  dup4\n  codecopy\n  dup2\n  dup2\n  add\n  0x40\n  mstore\n  dup2\n  add\n  swap1\n  tag_2\n  swap2\n  swap1\n  tag_3\n  jump\t// in\ntag_2:\n    /* \"@openzeppelin/contracts@4.0.0/token/ERC20/ERC20.sol\":1842:1956  constructor (string memory name_, string memory symbol_) {... */\n  mload(0x40)\n  dup1\n  0x40\n  add\n  0x40\n  mstore\n  dup1\n  0x15\n  dup2\n  mstore\n  0x20\n  add\n  0x496d70657269616c73437265646974734368696c640000000000000000000000\n  dup2\n  mstore\n  pop\n  mload(0x40)\n  dup1\n  0x40\n  add\n  0x40\n  mstore\n  dup1\n  0x03\n  dup2\n  mstore\n  0x20\n  add\n  0x4943520000000000000000000000000000000000000000000000000000000000\n  dup2\n  mstore\n  pop\n    /* \"@openzeppelin/contracts@4.0.0/token/ERC20/ERC20.sol\":1917:1922  name_ */\n  dup2\n    /* \"@openzeppelin/contracts@4.0.0/token/ERC20/ERC20.sol\":1909:1914  _name */\n  0x03\n    /* \"@openzeppelin/contracts@4.0.0/token/ERC20/ERC20.sol\":1909:1922  _name = name_ */\n  swap1\n  dup1\n  mload\n  swap1\n  0x20\n  add\n  swap1\n  tag_7\n  swap3\n  swap2\n  swap1\n  tag_8\n  jump\t// in\ntag_7:\n  pop\n    /* \"@openzeppelin/contracts@4.0.0/token/ERC20/ERC20.sol\":1942:1949  symbol_ */\n  dup1\n    /* \"@openzeppelin/contracts@4.0.0/token/ERC20/ERC20.sol\":1932:1939  _symbol */\n  0x04\n    /* \"@openzeppelin/contracts@4.0.0/token/ERC20/ERC20.sol\":1932:1949  _symbol = symbol_ */\n  swap1\n  dup1\n  mload\n  swap1\n  0x20\n  add\n  swap1\n  tag_9\n  swap3\n  swap2\n  swap1\n  tag_8\n  jump\t// in\ntag_9:\n  pop\n    /* \"@openzeppelin/contracts@4.0.0/token/ERC20/ERC20.sol\":1842:1956  constructor (string memory name_, string memory symbol_) {... */\n  pop\n  pop\n    /* \"contracts/POC_Bridge/childContract.sol\":702:709  _bridge */\n  dup1\n    /* \"contracts/POC_Bridge/childContract.sol\":693:699  bridge */\n  0x05\n  0x00\n    /* \"contracts/POC_Bridge/childContract.sol\":693:709  bridge = _bridge */\n  0x0100\n  exp\n  dup2\n  sload\n  dup2\n  0xffffffffffffffffffffffffffffffffffffffff\n  mul\n  not\n  and\n  swap1\n  dup4\n  0xffffffffffffffffffffffffffffffffffffffff\n  and\n  mul\n  or\n  swap1\n  sstore\n  pop\n    /* \"contracts/POC_Bridge/childContract.sol\":615:716  constructor (address _bridge) ERC20(\"ImperialsCreditsChild\", \"ICR\") {... */\n  pop\n    /* \"contracts/POC_Bridge/childContract.sol\":539:1735  contract TokenChild is ERC20, ERC20Burnable {... */\n  jump(tag_11)\ntag_8:\n  dup3\n  dup1\n  sload\n  tag_12\n  swap1\n  tag_13\n  jump\t// in\ntag_12:\n  swap1\n  0x00\n  mstore\n  keccak256(0x00, 0x20)\n  swap1\n  0x1f\n  add\n  0x20\n  swap1\n  div\n  dup2\n  add\n  swap3\n  dup3\n  tag_15\n  jumpi\n  0x00\n  dup6\n  sstore\n  jump(tag_14)\ntag_15:\n  dup3\n  0x1f\n  lt\n  tag_16\n  jumpi\n  dup1\n  mload\n  not(0xff)\n  and\n  dup4\n  dup1\n  add\n  or\n  dup6\n  sstore\n  jump(tag_14)\ntag_16:\n  dup3\n  dup1\n  add\n  0x01\n  add\n  dup6\n  sstore\n  dup3\n  iszero\n  tag_14\n  jumpi\n  swap2\n  dup3\n  add\ntag_17:\n  dup3\n  dup2\n  gt\n  iszero\n  tag_18\n  jumpi\n  dup3\n  mload\n  dup3\n  sstore\n  swap2\n  0x20\n  add\n  swap2\n  swap1\n  0x01\n  add\n  swap1\n  jump(tag_17)\ntag_18:\ntag_14:\n  pop\n  swap1\n  pop\n  tag_19\n  swap2\n  swap1\n  tag_20\n  jump\t// in\ntag_19:\n  pop\n  swap1\n  jump\t// out\ntag_20:\ntag_21:\n  dup1\n  dup3\n  gt\n  iszero\n  tag_22\n  jumpi\n  0x00\n  dup2\n  0x00\n  swap1\n  sstore\n  pop\n  0x01\n  add\n  jump(tag_21)\ntag_22:\n  pop\n  swap1\n  jump\t// out\n    /* \"#utility.yul\":7:150   */\ntag_24:\n    /* \"#utility.yul\":64:69   */\n  0x00\n    /* \"#utility.yul\":95:101   */\n  dup2\n    /* \"#utility.yul\":89:102   */\n  mload\n    /* \"#utility.yul\":80:102   */\n  swap1\n  pop\n    /* \"#utility.yul\":111:144   */\n  tag_26\n    /* \"#utility.yul\":138:143   */\n  dup2\n    /* \"#utility.yul\":111:144   */\n  tag_27\n  jump\t// in\ntag_26:\n    /* \"#utility.yul\":7:150   */\n  swap3\n  swap2\n  pop\n  pop\n  jump\t// out\n    /* \"#utility.yul\":156:507   */\ntag_3:\n    /* \"#utility.yul\":226:232   */\n  0x00\n    /* \"#utility.yul\":275:277   */\n  0x20\n    /* \"#utility.yul\":263:272   */\n  dup3\n    /* \"#utility.yul\":254:261   */\n  dup5\n    /* \"#utility.yul\":250:273   */\n  sub\n    /* \"#utility.yul\":246:278   */\n  slt\n    /* \"#utility.yul\":243:362   */\n  iszero\n  tag_29\n  jumpi\n    /* \"#utility.yul\":281:360   */\n  tag_30\n  tag_31\n  jump\t// in\ntag_30:\n    /* \"#utility.yul\":243:362   */\ntag_29:\n    /* \"#utility.yul\":401:402   */\n  0x00\n    /* \"#utility.yul\":426:490   */\n  tag_32\n    /* \"#utility.yul\":482:489   */\n  dup5\n    /* \"#utility.yul\":473:479   */\n  dup3\n    /* \"#utility.yul\":462:471   */\n  dup6\n    /* \"#utility.yul\":458:480   */\n  add\n    /* \"#utility.yul\":426:490   */\n  tag_24\n  jump\t// in\ntag_32:\n    /* \"#utility.yul\":416:490   */\n  swap2\n  pop\n    /* \"#utility.yul\":372:500   */\n  pop\n    /* \"#utility.yul\":156:507   */\n  swap3\n  swap2\n  pop\n  pop\n  jump\t// out\n    /* \"#utility.yul\":594:690   */\ntag_35:\n    /* \"#utility.yul\":631:638   */\n  0x00\n    /* \"#utility.yul\":660:684   */\n  tag_37\n    /* \"#utility.yul\":678:683   */\n  dup3\n    /* \"#utility.yul\":660:684   */\n  tag_38\n  jump\t// in\ntag_37:\n    /* \"#utility.yul\":649:684   */\n  swap1\n  pop\n    /* \"#utility.yul\":594:690   */\n  swap2\n  swap1\n  pop\n  jump\t// out\n    /* \"#utility.yul\":696:822   */\ntag_38:\n    /* \"#utility.yul\":733:740   */\n  0x00\n    /* \"#utility.yul\":773:815   */\n  0xffffffffffffffffffffffffffffffffffffffff\n    /* \"#utility.yul\":766:771   */\n  dup3\n    /* \"#utility.yul\":762:816   */\n  and\n    /* \"#utility.yul\":751:816   */\n  swap1\n  pop\n    /* \"#utility.yul\":696:822   */\n  swap2\n  swap1\n  pop\n  jump\t// out\n    /* \"#utility.yul\":828:1148   */\ntag_13:\n    /* \"#utility.yul\":872:878   */\n  0x00\n    /* \"#utility.yul\":909:910   */\n  0x02\n    /* \"#utility.yul\":903:907   */\n  dup3\n    /* \"#utility.yul\":899:911   */\n  div\n    /* \"#utility.yul\":889:911   */\n  swap1\n  pop\n    /* \"#utility.yul\":956:957   */\n  0x01\n    /* \"#utility.yul\":950:954   */\n  dup3\n    /* \"#utility.yul\":946:958   */\n  and\n    /* \"#utility.yul\":977:995   */\n  dup1\n    /* \"#utility.yul\":967:1048   */\n  tag_41\n  jumpi\n    /* \"#utility.yul\":1033:1037   */\n  0x7f\n    /* \"#utility.yul\":1025:1031   */\n  dup3\n    /* \"#utility.yul\":1021:1038   */\n  and\n    /* \"#utility.yul\":1011:1038   */\n  swap2\n  pop\n    /* \"#utility.yul\":967:1048   */\ntag_41:\n    /* \"#utility.yul\":1095:1097   */\n  0x20\n    /* \"#utility.yul\":1087:1093   */\n  dup3\n    /* \"#utility.yul\":1084:1098   */\n  lt\n    /* \"#utility.yul\":1064:1082   */\n  dup2\n    /* \"#utility.yul\":1061:1099   */\n  eq\n    /* \"#utility.yul\":1058:1142   */\n  iszero\n  tag_42\n  jumpi\n    /* \"#utility.yul\":1114:1132   */\n  tag_43\n  tag_44\n  jump\t// in\ntag_43:\n    /* \"#utility.yul\":1058:1142   */\ntag_42:\n    /* \"#utility.yul\":879:1148   */\n  pop\n    /* \"#utility.yul\":828:1148   */\n  swap2\n  swap1\n  pop\n  jump\t// out\n    /* \"#utility.yul\":1154:1334   */\ntag_44:\n    /* \"#utility.yul\":1202:1279   */\n  0x4e487b7100000000000000000000000000000000000000000000000000000000\n    /* \"#utility.yul\":1199:1200   */\n  0x00\n    /* \"#utility.yul\":1192:1280   */\n  mstore\n    /* \"#utility.yul\":1299:1303   */\n  0x22\n    /* \"#utility.yul\":1296:1297   */\n  0x04\n    /* \"#utility.yul\":1289:1304   */\n  mstore\n    /* \"#utility.yul\":1323:1327   */\n  0x24\n    /* \"#utility.yul\":1320:1321   */\n  0x00\n    /* \"#utility.yul\":1313:1328   */\n  revert\n    /* \"#utility.yul\":1463:1580   */\ntag_31:\n    /* \"#utility.yul\":1572:1573   */\n  0x00\n    /* \"#utility.yul\":1569:1570   */\n  dup1\n    /* \"#utility.yul\":1562:1574   */\n  revert\n    /* \"#utility.yul\":1586:1708   */\ntag_27:\n    /* \"#utility.yul\":1659:1683   */\n  tag_50\n    /* \"#utility.yul\":1677:1682   */\n  dup2\n    /* \"#utility.yul\":1659:1683   */\n  tag_35\n  jump\t// in\ntag_50:\n    /* \"#utility.yul\":1652:1657   */\n  dup2\n    /* \"#utility.yul\":1649:1684   */\n  eq\n    /* \"#utility.yul\":1639:1702   */\n  tag_51\n  jumpi\n    /* \"#utility.yul\":1698:1699   */\n  0x00\n    /* \"#utility.yul\":1695:1696   */\n  dup1\n    /* \"#utility.yul\":1688:1700   */\n  revert\n    /* \"#utility.yul\":1639:1702   */\ntag_51:\n    /* \"#utility.yul\":1586:1708   */\n  pop\n  jump\t// out\n    /* \"contracts/POC_Bridge/childContract.sol\":539:1735  contract TokenChild is ERC20, ERC20Burnable {... */\ntag_11:\n  dataSize(sub_0)\n  dup1\n  dataOffset(sub_0)\n  0x00\n  codecopy\n  0x00\n  return\nstop\n\nsub_0: assembly {\n        /* \"contracts/POC_Bridge/childContract.sol\":539:1735  contract TokenChild is ERC20, ERC20Burnable {... */\n      mstore(0x40, 0x80)\n      callvalue\n      dup1\n      iszero\n      tag_1\n      jumpi\n      0x00\n      dup1\n      revert\n    tag_1:\n      pop\n      jumpi(tag_2, lt(calldatasize, 0x04))\n      shr(0xe0, calldataload(0x00))\n      dup1\n      0x42966c68\n      gt\n      tag_17\n      jumpi\n      dup1\n      0x95d89b41\n      gt\n      tag_18\n      jumpi\n      dup1\n      0x95d89b41\n      eq\n      tag_13\n      jumpi\n      dup1\n      0xa457c2d7\n      eq\n      tag_14\n      jumpi\n      dup1\n      0xa9059cbb\n      eq\n      tag_15\n      jumpi\n      dup1\n      0xdd62ed3e\n      eq\n      tag_16\n      jumpi\n      jump(tag_2)\n    tag_18:\n      dup1\n      0x42966c68\n      eq\n      tag_10\n      jumpi\n      dup1\n      0x70a08231\n      eq\n      tag_11\n      jumpi\n      dup1\n      0x79cc6790\n      eq\n      tag_12\n      jumpi\n      jump(tag_2)\n    tag_17:\n      dup1\n      0x23b872dd\n      gt\n      tag_19\n      jumpi\n      dup1\n      0x23b872dd\n      eq\n      tag_6\n      jumpi\n      dup1\n      0x313ce567\n      eq\n      tag_7\n      jumpi\n      dup1\n      0x39509351\n      eq\n      tag_8\n      jumpi\n      dup1\n      0x40c10f19\n      eq\n      tag_9\n      jumpi\n      jump(tag_2)\n    tag_19:\n      dup1\n      0x06fdde03\n      eq\n      tag_3\n      jumpi\n      dup1\n      0x095ea7b3\n      eq\n      tag_4\n      jumpi\n      dup1\n      0x18160ddd\n      eq\n      tag_5\n      jumpi\n    tag_2:\n      0x00\n      dup1\n      revert\n        /* \"@openzeppelin/contracts@4.0.0/token/ERC20/ERC20.sol\":2021:2110  function name() public view virtual returns (string memory) {... */\n    tag_3:\n      tag_20\n      tag_21\n      jump\t// in\n    tag_20:\n      mload(0x40)\n      tag_22\n      swap2\n      swap1\n      tag_23\n      jump\t// in\n    tag_22:\n      mload(0x40)\n      dup1\n      swap2\n      sub\n      swap1\n      return\n        /* \"@openzeppelin/contracts@4.0.0/token/ERC20/ERC20.sol\":4091:4257  function approve(address spender, uint256 amount) public virtual override returns (bool) {... */\n    tag_4:\n      tag_24\n      0x04\n      dup1\n      calldatasize\n      sub\n      dup2\n      add\n      swap1\n      tag_25\n      swap2\n      swap1\n      tag_26\n      jump\t// in\n    tag_25:\n      tag_27\n      jump\t// in\n    tag_24:\n      mload(0x40)\n      tag_28\n      swap2\n      swap1\n      tag_29\n      jump\t// in\n    tag_28:\n      mload(0x40)\n      dup1\n      swap2\n      sub\n      swap1\n      return\n        /* \"@openzeppelin/contracts@4.0.0/token/ERC20/ERC20.sol\":3082:3188  function totalSupply() public view virtual override returns (uint256) {... */\n    tag_5:\n      tag_30\n      tag_31\n      jump\t// in\n    tag_30:\n      mload(0x40)\n      tag_32\n      swap2\n      swap1\n      tag_33\n      jump\t// in\n    tag_32:\n      mload(0x40)\n      dup1\n      swap2\n      sub\n      swap1\n      return\n        /* \"@openzeppelin/contracts@4.0.0/token/ERC20/ERC20.sol\":4724:5138  function transferFrom(address sender, address recipient, uint256 amount) public virtual override returns (bool) {... */\n    tag_6:\n      tag_34\n      0x04\n      dup1\n      calldatasize\n      sub\n      dup2\n      add\n      swap1\n      tag_35\n      swap2\n      swap1\n      tag_36\n      jump\t// in\n    tag_35:\n      tag_37\n      jump\t// in\n    tag_34:\n      mload(0x40)\n      tag_38\n      swap2\n      swap1\n      tag_29\n      jump\t// in\n    tag_38:\n      mload(0x40)\n      dup1\n      swap2\n      sub\n      swap1\n      return\n        /* \"@openzeppelin/contracts@4.0.0/token/ERC20/ERC20.sol\":2940:3022  function decimals() public view virtual returns (uint8) {... */\n    tag_7:\n      tag_39\n      tag_40\n      jump\t// in\n    tag_39:\n      mload(0x40)\n      tag_41\n      swap2\n      swap1\n      tag_42\n      jump\t// in\n    tag_41:\n      mload(0x40)\n      dup1\n      swap2\n      sub\n      swap1\n      return\n        /* \"@openzeppelin/contracts@4.0.0/token/ERC20/ERC20.sol\":5533:5745  function increaseAllowance(address spender, uint256 addedValue) public virtual returns (bool) {... */\n    tag_8:\n      tag_43\n      0x04\n      dup1\n      calldatasize\n      sub\n      dup2\n      add\n      swap1\n      tag_44\n      swap2\n      swap1\n      tag_26\n      jump\t// in\n    tag_44:\n      tag_45\n      jump\t// in\n    tag_43:\n      mload(0x40)\n      tag_46\n      swap2\n      swap1\n      tag_29\n      jump\t// in\n    tag_46:\n      mload(0x40)\n      dup1\n      swap2\n      sub\n      swap1\n      return\n        /* \"contracts/POC_Bridge/childContract.sol\":801:975  function mint(... */\n    tag_9:\n      tag_47\n      0x04\n      dup1\n      calldatasize\n      sub\n      dup2\n      add\n      swap1\n      tag_48\n      swap2\n      swap1\n      tag_26\n      jump\t// in\n    tag_48:\n      tag_49\n      jump\t// in\n    tag_47:\n      stop\n        /* \"contracts/POC_Bridge/childContract.sol\":1091:1264  function burn(... */\n    tag_10:\n      tag_50\n      0x04\n      dup1\n      calldatasize\n      sub\n      dup2\n      add\n      swap1\n      tag_51\n      swap2\n      swap1\n      tag_52\n      jump\t// in\n    tag_51:\n      tag_53\n      jump\t// in\n    tag_50:\n      stop\n        /* \"@openzeppelin/contracts@4.0.0/token/ERC20/ERC20.sol\":3246:3371  function balanceOf(address account) public view virtual override returns (uint256) {... */\n    tag_11:\n      tag_54\n      0x04\n      dup1\n      calldatasize\n      sub\n      dup2\n      add\n      swap1\n      tag_55\n      swap2\n      swap1\n      tag_56\n      jump\t// in\n    tag_55:\n      tag_57\n      jump\t// in\n    tag_54:\n      mload(0x40)\n      tag_58\n      swap2\n      swap1\n      tag_33\n      jump\t// in\n    tag_58:\n      mload(0x40)\n      dup1\n      swap2\n      sub\n      swap1\n      return\n        /* \"contracts/POC_Bridge/childContract.sol\":1380:1595  function burnFrom(... */\n    tag_12:\n      tag_59\n      0x04\n      dup1\n      calldatasize\n      sub\n      dup2\n      add\n      swap1\n      tag_60\n      swap2\n      swap1\n      tag_26\n      jump\t// in\n    tag_60:\n      tag_61\n      jump\t// in\n    tag_59:\n      stop\n        /* \"@openzeppelin/contracts@4.0.0/token/ERC20/ERC20.sol\":2223:2316  function symbol() public view virtual returns (string memory) {... */\n    tag_13:\n      tag_62\n      tag_63\n      jump\t// in\n    tag_62:\n      mload(0x40)\n      tag_64\n      swap2\n      swap1\n      tag_23\n      jump\t// in\n    tag_64:\n      mload(0x40)\n      dup1\n      swap2\n      sub\n      swap1\n      return\n        /* \"@openzeppelin/contracts@4.0.0/token/ERC20/ERC20.sol\":6232:6603  function decreaseAllowance(address spender, uint256 subtractedValue) public virtual returns (bool) {... */\n    tag_14:\n      tag_65\n      0x04\n      dup1\n      calldatasize\n      sub\n      dup2\n      add\n      swap1\n      tag_66\n      swap2\n      swap1\n      tag_26\n      jump\t// in\n    tag_66:\n      tag_67\n      jump\t// in\n    tag_65:\n      mload(0x40)\n      tag_68\n      swap2\n      swap1\n      tag_29\n      jump\t// in\n    tag_68:\n      mload(0x40)\n      dup1\n      swap2\n      sub\n      swap1\n      return\n        /* \"@openzeppelin/contracts@4.0.0/token/ERC20/ERC20.sol\":3574:3746  function transfer(address recipient, uint256 amount) public virtual override returns (bool) {... */\n    tag_15:\n      tag_69\n      0x04\n      dup1\n      calldatasize\n      sub\n      dup2\n      add\n      swap1\n      tag_70\n      swap2\n      swap1\n      tag_26\n      jump\t// in\n    tag_70:\n      tag_71\n      jump\t// in\n    tag_69:\n      mload(0x40)\n      tag_72\n      swap2\n      swap1\n      tag_29\n      jump\t// in\n    tag_72:\n      mload(0x40)\n      dup1\n      swap2\n      sub\n      swap1\n      return\n        /* \"@openzeppelin/contracts@4.0.0/token/ERC20/ERC20.sol\":3804:3953  function allowance(address owner, address spender) public view virtual override returns (uint256) {... */\n    tag_16:\n      tag_73\n      0x04\n      dup1\n      calldatasize\n      sub\n      dup2\n      add\n      swap1\n      tag_74\n      swap2\n      swap1\n      tag_75\n      jump\t// in\n    tag_74:\n      tag_76\n      jump\t// in\n    tag_73:\n      mload(0x40)\n      tag_77\n      swap2\n      swap1\n      tag_33\n      jump\t// in\n    tag_77:\n      mload(0x40)\n      dup1\n      swap2\n      sub\n      swap1\n      return\n        /* \"@openzeppelin/contracts@4.0.0/token/ERC20/ERC20.sol\":2021:2110  function name() public view virtual returns (string memory) {... */\n    tag_21:\n        /* \"@openzeppelin/contracts@4.0.0/token/ERC20/ERC20.sol\":2066:2079  string memory */\n      0x60\n        /* \"@openzeppelin/contracts@4.0.0/token/ERC20/ERC20.sol\":2098:2103  _name */\n      0x03\n        /* \"@openzeppelin/contracts@4.0.0/token/ERC20/ERC20.sol\":2091:2103  return _name */\n      dup1\n      sload\n      tag_79\n      swap1\n      tag_80\n      jump\t// in\n    tag_79:\n      dup1\n      0x1f\n      add\n      0x20\n      dup1\n      swap2\n      div\n      mul\n      0x20\n      add\n      mload(0x40)\n      swap1\n      dup2\n      add\n      0x40\n      mstore\n      dup1\n      swap3\n      swap2\n      swap1\n      dup2\n      dup2\n      mstore\n      0x20\n      add\n      dup3\n      dup1\n      sload\n      tag_81\n      swap1\n      tag_80\n      jump\t// in\n    tag_81:\n      dup1\n      iszero\n      tag_82\n      jumpi\n      dup1\n      0x1f\n      lt\n      tag_83\n      jumpi\n      0x0100\n      dup1\n      dup4\n      sload\n      div\n      mul\n      dup4\n      mstore\n      swap2\n      0x20\n      add\n      swap2\n      jump(tag_82)\n    tag_83:\n      dup3\n      add\n      swap2\n      swap1\n      0x00\n      mstore\n      keccak256(0x00, 0x20)\n      swap1\n    tag_84:\n      dup2\n      sload\n      dup2\n      mstore\n      swap1\n      0x01\n      add\n      swap1\n      0x20\n      add\n      dup1\n      dup4\n      gt\n      tag_84\n      jumpi\n      dup3\n      swap1\n      sub\n      0x1f\n      and\n      dup3\n      add\n      swap2\n    tag_82:\n      pop\n      pop\n      pop\n      pop\n      pop\n      swap1\n      pop\n        /* \"@openzeppelin/contracts@4.0.0/token/ERC20/ERC20.sol\":2021:2110  function name() public view virtual returns (string memory) {... */\n      swap1\n      jump\t// out\n        /* \"@openzeppelin/contracts@4.0.0/token/ERC20/ERC20.sol\":4091:4257  function approve(address spender, uint256 amount) public virtual override returns (bool) {... */\n    tag_27:\n        /* \"@openzeppelin/contracts@4.0.0/token/ERC20/ERC20.sol\":4174:4178  bool */\n      0x00\n        /* \"@openzeppelin/contracts@4.0.0/token/ERC20/ERC20.sol\":4190:4229  _approve(_msgSender(), spender, amount) */\n      tag_86\n        /* \"@openzeppelin/contracts@4.0.0/token/ERC20/ERC20.sol\":4199:4211  _msgSender() */\n      tag_87\n        /* \"@openzeppelin/contracts@4.0.0/token/ERC20/ERC20.sol\":4199:4209  _msgSender */\n      tag_88\n        /* \"@openzeppelin/contracts@4.0.0/token/ERC20/ERC20.sol\":4199:4211  _msgSender() */\n      jump\t// in\n    tag_87:\n        /* \"@openzeppelin/contracts@4.0.0/token/ERC20/ERC20.sol\":4213:4220  spender */\n      dup5\n        /* \"@openzeppelin/contracts@4.0.0/token/ERC20/ERC20.sol\":4222:4228  amount */\n      dup5\n        /* \"@openzeppelin/contracts@4.0.0/token/ERC20/ERC20.sol\":4190:4198  _approve */\n      tag_89\n        /* \"@openzeppelin/contracts@4.0.0/token/ERC20/ERC20.sol\":4190:4229  _approve(_msgSender(), spender, amount) */\n      jump\t// in\n    tag_86:\n        /* \"@openzeppelin/contracts@4.0.0/token/ERC20/ERC20.sol\":4246:4250  true */\n      0x01\n        /* \"@openzeppelin/contracts@4.0.0/token/ERC20/ERC20.sol\":4239:4250  return true */\n      swap1\n      pop\n        /* \"@openzeppelin/contracts@4.0.0/token/ERC20/ERC20.sol\":4091:4257  function approve(address spender, uint256 amount) public virtual override returns (bool) {... */\n      swap3\n      swap2\n      pop\n      pop\n      jump\t// out\n        /* \"@openzeppelin/contracts@4.0.0/token/ERC20/ERC20.sol\":3082:3188  function totalSupply() public view virtual override returns (uint256) {... */\n    tag_31:\n        /* \"@openzeppelin/contracts@4.0.0/token/ERC20/ERC20.sol\":3143:3150  uint256 */\n      0x00\n        /* \"@openzeppelin/contracts@4.0.0/token/ERC20/ERC20.sol\":3169:3181  _totalSupply */\n      sload(0x02)\n        /* \"@openzeppelin/contracts@4.0.0/token/ERC20/ERC20.sol\":3162:3181  return _totalSupply */\n      swap1\n      pop\n        /* \"@openzeppelin/contracts@4.0.0/token/ERC20/ERC20.sol\":3082:3188  function totalSupply() public view virtual override returns (uint256) {... */\n      swap1\n      jump\t// out\n        /* \"@openzeppelin/contracts@4.0.0/token/ERC20/ERC20.sol\":4724:5138  function transferFrom(address sender, address recipient, uint256 amount) public virtual override returns (bool) {... */\n    tag_37:\n        /* \"@openzeppelin/contracts@4.0.0/token/ERC20/ERC20.sol\":4830:4834  bool */\n      0x00\n        /* \"@openzeppelin/contracts@4.0.0/token/ERC20/ERC20.sol\":4846:4882  _transfer(sender, recipient, amount) */\n      tag_92\n        /* \"@openzeppelin/contracts@4.0.0/token/ERC20/ERC20.sol\":4856:4862  sender */\n      dup5\n        /* \"@openzeppelin/contracts@4.0.0/token/ERC20/ERC20.sol\":4864:4873  recipient */\n      dup5\n        /* \"@openzeppelin/contracts@4.0.0/token/ERC20/ERC20.sol\":4875:4881  amount */\n      dup5\n        /* \"@openzeppelin/contracts@4.0.0/token/ERC20/ERC20.sol\":4846:4855  _transfer */\n      tag_93\n        /* \"@openzeppelin/contracts@4.0.0/token/ERC20/ERC20.sol\":4846:4882  _transfer(sender, recipient, amount) */\n      jump\t// in\n    tag_92:\n        /* \"@openzeppelin/contracts@4.0.0/token/ERC20/ERC20.sol\":4893:4917  uint256 currentAllowance */\n      0x00\n        /* \"@openzeppelin/contracts@4.0.0/token/ERC20/ERC20.sol\":4920:4931  _allowances */\n      0x01\n        /* \"@openzeppelin/contracts@4.0.0/token/ERC20/ERC20.sol\":4920:4939  _allowances[sender] */\n      0x00\n        /* \"@openzeppelin/contracts@4.0.0/token/ERC20/ERC20.sol\":4932:4938  sender */\n      dup7\n        /* \"@openzeppelin/contracts@4.0.0/token/ERC20/ERC20.sol\":4920:4939  _allowances[sender] */\n      0xffffffffffffffffffffffffffffffffffffffff\n      and\n      0xffffffffffffffffffffffffffffffffffffffff\n      and\n      dup2\n      mstore\n      0x20\n      add\n      swap1\n      dup2\n      mstore\n      0x20\n      add\n      0x00\n      keccak256\n        /* \"@openzeppelin/contracts@4.0.0/token/ERC20/ERC20.sol\":4920:4953  _allowances[sender][_msgSender()] */\n      0x00\n        /* \"@openzeppelin/contracts@4.0.0/token/ERC20/ERC20.sol\":4940:4952  _msgSender() */\n      tag_94\n        /* \"@openzeppelin/contracts@4.0.0/token/ERC20/ERC20.sol\":4940:4950  _msgSender */\n      tag_88\n        /* \"@openzeppelin/contracts@4.0.0/token/ERC20/ERC20.sol\":4940:4952  _msgSender() */\n      jump\t// in\n    tag_94:\n        /* \"@openzeppelin/contracts@4.0.0/token/ERC20/ERC20.sol\":4920:4953  _allowances[sender][_msgSender()] */\n      0xffffffffffffffffffffffffffffffffffffffff\n      and\n      0xffffffffffffffffffffffffffffffffffffffff\n      and\n      dup2\n      mstore\n      0x20\n      add\n      swap1\n      dup2\n      mstore\n      0x20\n      add\n      0x00\n      keccak256\n      sload\n        /* \"@openzeppelin/contracts@4.0.0/token/ERC20/ERC20.sol\":4893:4953  uint256 currentAllowance = _allowances[sender][_msgSender()] */\n      swap1\n      pop\n        /* \"@openzeppelin/contracts@4.0.0/token/ERC20/ERC20.sol\":4991:4997  amount */\n      dup3\n        /* \"@openzeppelin/contracts@4.0.0/token/ERC20/ERC20.sol\":4971:4987  currentAllowance */\n      dup2\n        /* \"@openzeppelin/contracts@4.0.0/token/ERC20/ERC20.sol\":4971:4997  currentAllowance >= amount */\n      lt\n      iszero\n        /* \"@openzeppelin/contracts@4.0.0/token/ERC20/ERC20.sol\":4963:5042  require(currentAllowance >= amount, \"ERC20: transfer amount exceeds allowance\") */\n      tag_95\n      jumpi\n      mload(0x40)\n      0x08c379a000000000000000000000000000000000000000000000000000000000\n      dup2\n      mstore\n      0x04\n      add\n      tag_96\n      swap1\n      tag_97\n      jump\t// in\n    tag_96:\n      mload(0x40)\n      dup1\n      swap2\n      sub\n      swap1\n      revert\n    tag_95:\n        /* \"@openzeppelin/contracts@4.0.0/token/ERC20/ERC20.sol\":5052:5109  _approve(sender, _msgSender(), currentAllowance - amount) */\n      tag_98\n        /* \"@openzeppelin/contracts@4.0.0/token/ERC20/ERC20.sol\":5061:5067  sender */\n      dup6\n        /* \"@openzeppelin/contracts@4.0.0/token/ERC20/ERC20.sol\":5069:5081  _msgSender() */\n      tag_99\n        /* \"@openzeppelin/contracts@4.0.0/token/ERC20/ERC20.sol\":5069:5079  _msgSender */\n      tag_88\n        /* \"@openzeppelin/contracts@4.0.0/token/ERC20/ERC20.sol\":5069:5081  _msgSender() */\n      jump\t// in\n    tag_99:\n        /* \"@openzeppelin/contracts@4.0.0/token/ERC20/ERC20.sol\":5102:5108  amount */\n      dup6\n        /* \"@openzeppelin/contracts@4.0.0/token/ERC20/ERC20.sol\":5083:5099  currentAllowance */\n      dup5\n        /* \"@openzeppelin/contracts@4.0.0/token/ERC20/ERC20.sol\":5083:5108  currentAllowance - amount */\n      tag_100\n      swap2\n      swap1\n      tag_101\n      jump\t// in\n    tag_100:\n        /* \"@openzeppelin/contracts@4.0.0/token/ERC20/ERC20.sol\":5052:5060  _approve */\n      tag_89\n        /* \"@openzeppelin/contracts@4.0.0/token/ERC20/ERC20.sol\":5052:5109  _approve(sender, _msgSender(), currentAllowance - amount) */\n      jump\t// in\n    tag_98:\n        /* \"@openzeppelin/contracts@4.0.0/token/ERC20/ERC20.sol\":5127:5131  true */\n      0x01\n        /* \"@openzeppelin/contracts@4.0.0/token/ERC20/ERC20.sol\":5120:5131  return true */\n      swap2\n      pop\n      pop\n        /* \"@openzeppelin/contracts@4.0.0/token/ERC20/ERC20.sol\":4724:5138  function transferFrom(address sender, address recipient, uint256 amount) public virtual override returns (bool) {... */\n      swap4\n      swap3\n      pop\n      pop\n      pop\n      jump\t// out\n        /* \"@openzeppelin/contracts@4.0.0/token/ERC20/ERC20.sol\":2940:3022  function decimals() public view virtual returns (uint8) {... */\n    tag_40:\n        /* \"@openzeppelin/contracts@4.0.0/token/ERC20/ERC20.sol\":2989:2994  uint8 */\n      0x00\n        /* \"@openzeppelin/contracts@4.0.0/token/ERC20/ERC20.sol\":3013:3015  18 */\n      0x12\n        /* \"@openzeppelin/contracts@4.0.0/token/ERC20/ERC20.sol\":3006:3015  return 18 */\n      swap1\n      pop\n        /* \"@openzeppelin/contracts@4.0.0/token/ERC20/ERC20.sol\":2940:3022  function decimals() public view virtual returns (uint8) {... */\n      swap1\n      jump\t// out\n        /* \"@openzeppelin/contracts@4.0.0/token/ERC20/ERC20.sol\":5533:5745  function increaseAllowance(address spender, uint256 addedValue) public virtual returns (bool) {... */\n    tag_45:\n        /* \"@openzeppelin/contracts@4.0.0/token/ERC20/ERC20.sol\":5621:5625  bool */\n      0x00\n        /* \"@openzeppelin/contracts@4.0.0/token/ERC20/ERC20.sol\":5637:5717  _approve(_msgSender(), spender, _allowances[_msgSender()][spender] + addedValue) */\n      tag_104\n        /* \"@openzeppelin/contracts@4.0.0/token/ERC20/ERC20.sol\":5646:5658  _msgSender() */\n      tag_105\n        /* \"@openzeppelin/contracts@4.0.0/token/ERC20/ERC20.sol\":5646:5656  _msgSender */\n      tag_88\n        /* \"@openzeppelin/contracts@4.0.0/token/ERC20/ERC20.sol\":5646:5658  _msgSender() */\n      jump\t// in\n    tag_105:\n        /* \"@openzeppelin/contracts@4.0.0/token/ERC20/ERC20.sol\":5660:5667  spender */\n      dup5\n        /* \"@openzeppelin/contracts@4.0.0/token/ERC20/ERC20.sol\":5706:5716  addedValue */\n      dup5\n        /* \"@openzeppelin/contracts@4.0.0/token/ERC20/ERC20.sol\":5669:5680  _allowances */\n      0x01\n        /* \"@openzeppelin/contracts@4.0.0/token/ERC20/ERC20.sol\":5669:5694  _allowances[_msgSender()] */\n      0x00\n        /* \"@openzeppelin/contracts@4.0.0/token/ERC20/ERC20.sol\":5681:5693  _msgSender() */\n      tag_106\n        /* \"@openzeppelin/contracts@4.0.0/token/ERC20/ERC20.sol\":5681:5691  _msgSender */\n      tag_88\n        /* \"@openzeppelin/contracts@4.0.0/token/ERC20/ERC20.sol\":5681:5693  _msgSender() */\n      jump\t// in\n    tag_106:\n        /* \"@openzeppelin/contracts@4.0.0/token/ERC20/ERC20.sol\":5669:5694  _allowances[_msgSender()] */\n      0xffffffffffffffffffffffffffffffffffffffff\n      and\n      0xffffffffffffffffffffffffffffffffffffffff\n      and\n      dup2\n      mstore\n      0x20\n      add\n      swap1\n      dup2\n      mstore\n      0x20\n      add\n      0x00\n      keccak256\n        /* \"@openzeppelin/contracts@4.0.0/token/ERC20/ERC20.sol\":5669:5703  _allowances[_msgSender()][spender] */\n      0x00\n        /* \"@openzeppelin/contracts@4.0.0/token/ERC20/ERC20.sol\":5695:5702  spender */\n      dup9\n        /* \"@openzeppelin/contracts@4.0.0/token/ERC20/ERC20.sol\":5669:5703  _allowances[_msgSender()][spender] */\n      0xffffffffffffffffffffffffffffffffffffffff\n      and\n      0xffffffffffffffffffffffffffffffffffffffff\n      and\n      dup2\n      mstore\n      0x20\n      add\n      swap1\n      dup2\n      mstore\n      0x20\n      add\n      0x00\n      keccak256\n      sload\n        /* \"@openzeppelin/contracts@4.0.0/token/ERC20/ERC20.sol\":5669:5716  _allowances[_msgSender()][spender] + addedValue */\n      tag_107\n      swap2\n      swap1\n      tag_108\n      jump\t// in\n    tag_107:\n        /* \"@openzeppelin/contracts@4.0.0/token/ERC20/ERC20.sol\":5637:5645  _approve */\n      tag_89\n        /* \"@openzeppelin/contracts@4.0.0/token/ERC20/ERC20.sol\":5637:5717  _approve(_msgSender(), spender, _allowances[_msgSender()][spender] + addedValue) */\n      jump\t// in\n    tag_104:\n        /* \"@openzeppelin/contracts@4.0.0/token/ERC20/ERC20.sol\":5734:5738  true */\n      0x01\n        /* \"@openzeppelin/contracts@4.0.0/token/ERC20/ERC20.sol\":5727:5738  return true */\n      swap1\n      pop\n        /* \"@openzeppelin/contracts@4.0.0/token/ERC20/ERC20.sol\":5533:5745  function increaseAllowance(address spender, uint256 addedValue) public virtual returns (bool) {... */\n      swap3\n      swap2\n      pop\n      pop\n      jump\t// out\n        /* \"contracts/POC_Bridge/childContract.sol\":801:975  function mint(... */\n    tag_49:\n        /* \"contracts/POC_Bridge/childContract.sol\":1651:1657  bridge */\n      0x05\n      0x00\n      swap1\n      sload\n      swap1\n      0x0100\n      exp\n      swap1\n      div\n      0xffffffffffffffffffffffffffffffffffffffff\n      and\n        /* \"contracts/POC_Bridge/childContract.sol\":1637:1657  msg.sender == bridge */\n      0xffffffffffffffffffffffffffffffffffffffff\n      and\n        /* \"contracts/POC_Bridge/childContract.sol\":1637:1647  msg.sender */\n      caller\n        /* \"contracts/POC_Bridge/childContract.sol\":1637:1657  msg.sender == bridge */\n      0xffffffffffffffffffffffffffffffffffffffff\n      and\n      eq\n        /* \"contracts/POC_Bridge/childContract.sol\":1629:1713  require(msg.sender == bridge, \"only bridge has access to this child token function\") */\n      tag_110\n      jumpi\n      mload(0x40)\n      0x08c379a000000000000000000000000000000000000000000000000000000000\n      dup2\n      mstore\n      0x04\n      add\n      tag_111\n      swap1\n      tag_112\n      jump\t// in\n    tag_111:\n      mload(0x40)\n      dup1\n      swap2\n      sub\n      swap1\n      revert\n    tag_110:\n        /* \"contracts/POC_Bridge/childContract.sol\":944:968  _mint(recipient, amount) */\n      tag_114\n        /* \"contracts/POC_Bridge/childContract.sol\":950:959  recipient */\n      dup3\n        /* \"contracts/POC_Bridge/childContract.sol\":961:967  amount */\n      dup3\n        /* \"contracts/POC_Bridge/childContract.sol\":944:949  _mint */\n      tag_115\n        /* \"contracts/POC_Bridge/childContract.sol\":944:968  _mint(recipient, amount) */\n      jump\t// in\n    tag_114:\n        /* \"contracts/POC_Bridge/childContract.sol\":801:975  function mint(... */\n      pop\n      pop\n      jump\t// out\n        /* \"contracts/POC_Bridge/childContract.sol\":1091:1264  function burn(... */\n    tag_53:\n        /* \"contracts/POC_Bridge/childContract.sol\":1651:1657  bridge */\n      0x05\n      0x00\n      swap1\n      sload\n      swap1\n      0x0100\n      exp\n      swap1\n      div\n      0xffffffffffffffffffffffffffffffffffffffff\n      and\n        /* \"contracts/POC_Bridge/childContract.sol\":1637:1657  msg.sender == bridge */\n      0xffffffffffffffffffffffffffffffffffffffff\n      and\n        /* \"contracts/POC_Bridge/childContract.sol\":1637:1647  msg.sender */\n      caller\n        /* \"contracts/POC_Bridge/childContract.sol\":1637:1657  msg.sender == bridge */\n      0xffffffffffffffffffffffffffffffffffffffff\n      and\n      eq\n        /* \"contracts/POC_Bridge/childContract.sol\":1629:1713  require(msg.sender == bridge, \"only bridge has access to this child token function\") */\n      tag_117\n      jumpi\n      mload(0x40)\n      0x08c379a000000000000000000000000000000000000000000000000000000000\n      dup2\n      mstore\n      0x04\n      add\n      tag_118\n      swap1\n      tag_112\n      jump\t// in\n    tag_118:\n      mload(0x40)\n      dup1\n      swap2\n      sub\n      swap1\n      revert\n    tag_117:\n        /* \"contracts/POC_Bridge/childContract.sol\":1239:1257  super.burn(amount) */\n      tag_120\n        /* \"contracts/POC_Bridge/childContract.sol\":1250:1256  amount */\n      dup2\n        /* \"contracts/POC_Bridge/childContract.sol\":1239:1249  super.burn */\n      tag_121\n        /* \"contracts/POC_Bridge/childContract.sol\":1239:1257  super.burn(amount) */\n      jump\t// in\n    tag_120:\n        /* \"contracts/POC_Bridge/childContract.sol\":1091:1264  function burn(... */\n      pop\n      jump\t// out\n        /* \"@openzeppelin/contracts@4.0.0/token/ERC20/ERC20.sol\":3246:3371  function balanceOf(address account) public view virtual override returns (uint256) {... */\n    tag_57:\n        /* \"@openzeppelin/contracts@4.0.0/token/ERC20/ERC20.sol\":3320:3327  uint256 */\n      0x00\n        /* \"@openzeppelin/contracts@4.0.0/token/ERC20/ERC20.sol\":3346:3355  _balances */\n      dup1\n        /* \"@openzeppelin/contracts@4.0.0/token/ERC20/ERC20.sol\":3346:3364  _balances[account] */\n      0x00\n        /* \"@openzeppelin/contracts@4.0.0/token/ERC20/ERC20.sol\":3356:3363  account */\n      dup4\n        /* \"@openzeppelin/contracts@4.0.0/token/ERC20/ERC20.sol\":3346:3364  _balances[account] */\n      0xffffffffffffffffffffffffffffffffffffffff\n      and\n      0xffffffffffffffffffffffffffffffffffffffff\n      and\n      dup2\n      mstore\n      0x20\n      add\n      swap1\n      dup2\n      mstore\n      0x20\n      add\n      0x00\n      keccak256\n      sload\n        /* \"@openzeppelin/contracts@4.0.0/token/ERC20/ERC20.sol\":3339:3364  return _balances[account] */\n      swap1\n      pop\n        /* \"@openzeppelin/contracts@4.0.0/token/ERC20/ERC20.sol\":3246:3371  function balanceOf(address account) public view virtual override returns (uint256) {... */\n      swap2\n      swap1\n      pop\n      jump\t// out\n        /* \"contracts/POC_Bridge/childContract.sol\":1380:1595  function burnFrom(... */\n    tag_61:\n        /* \"contracts/POC_Bridge/childContract.sol\":1651:1657  bridge */\n      0x05\n      0x00\n      swap1\n      sload\n      swap1\n      0x0100\n      exp\n      swap1\n      div\n      0xffffffffffffffffffffffffffffffffffffffff\n      and\n        /* \"contracts/POC_Bridge/childContract.sol\":1637:1657  msg.sender == bridge */\n      0xffffffffffffffffffffffffffffffffffffffff\n      and\n        /* \"contracts/POC_Bridge/childContract.sol\":1637:1647  msg.sender */\n      caller\n        /* \"contracts/POC_Bridge/childContract.sol\":1637:1657  msg.sender == bridge */\n      0xffffffffffffffffffffffffffffffffffffffff\n      and\n      eq\n        /* \"contracts/POC_Bridge/childContract.sol\":1629:1713  require(msg.sender == bridge, \"only bridge has access to this child token function\") */\n      tag_124\n      jumpi\n      mload(0x40)\n      0x08c379a000000000000000000000000000000000000000000000000000000000\n      dup2\n      mstore\n      0x04\n      add\n      tag_125\n      swap1\n      tag_112\n      jump\t// in\n    tag_125:\n      mload(0x40)\n      dup1\n      swap2\n      sub\n      swap1\n      revert\n    tag_124:\n        /* \"contracts/POC_Bridge/childContract.sol\":1557:1588  super.burnFrom(account, amount) */\n      tag_127\n        /* \"contracts/POC_Bridge/childContract.sol\":1572:1579  account */\n      dup3\n        /* \"contracts/POC_Bridge/childContract.sol\":1581:1587  amount */\n      dup3\n        /* \"contracts/POC_Bridge/childContract.sol\":1557:1571  super.burnFrom */\n      tag_128\n        /* \"contracts/POC_Bridge/childContract.sol\":1557:1588  super.burnFrom(account, amount) */\n      jump\t// in\n    tag_127:\n        /* \"contracts/POC_Bridge/childContract.sol\":1380:1595  function burnFrom(... */\n      pop\n      pop\n      jump\t// out\n        /* \"@openzeppelin/contracts@4.0.0/token/ERC20/ERC20.sol\":2223:2316  function symbol() public view virtual returns (string memory) {... */\n    tag_63:\n        /* \"@openzeppelin/contracts@4.0.0/token/ERC20/ERC20.sol\":2270:2283  string memory */\n      0x60\n        /* \"@openzeppelin/contracts@4.0.0/token/ERC20/ERC20.sol\":2302:2309  _symbol */\n      0x04\n        /* \"@openzeppelin/contracts@4.0.0/token/ERC20/ERC20.sol\":2295:2309  return _symbol */\n      dup1\n      sload\n      tag_130\n      swap1\n      tag_80\n      jump\t// in\n    tag_130:\n      dup1\n      0x1f\n      add\n      0x20\n      dup1\n      swap2\n      div\n      mul\n      0x20\n      add\n      mload(0x40)\n      swap1\n      dup2\n      add\n      0x40\n      mstore\n      dup1\n      swap3\n      swap2\n      swap1\n      dup2\n      dup2\n      mstore\n      0x20\n      add\n      dup3\n      dup1\n      sload\n      tag_131\n      swap1\n      tag_80\n      jump\t// in\n    tag_131:\n      dup1\n      iszero\n      tag_132\n      jumpi\n      dup1\n      0x1f\n      lt\n      tag_133\n      jumpi\n      0x0100\n      dup1\n      dup4\n      sload\n      div\n      mul\n      dup4\n      mstore\n      swap2\n      0x20\n      add\n      swap2\n      jump(tag_132)\n    tag_133:\n      dup3\n      add\n      swap2\n      swap1\n      0x00\n      mstore\n      keccak256(0x00, 0x20)\n      swap1\n    tag_134:\n      dup2\n      sload\n      dup2\n      mstore\n      swap1\n      0x01\n      add\n      swap1\n      0x20\n      add\n      dup1\n      dup4\n      gt\n      tag_134\n      jumpi\n      dup3\n      swap1\n      sub\n      0x1f\n      and\n      dup3\n      add\n      swap2\n    tag_132:\n      pop\n      pop\n      pop\n      pop\n      pop\n      swap1\n      pop\n        /* \"@openzeppelin/contracts@4.0.0/token/ERC20/ERC20.sol\":2223:2316  function symbol() public view virtual returns (string memory) {... */\n      swap1\n      jump\t// out\n        /* \"@openzeppelin/contracts@4.0.0/token/ERC20/ERC20.sol\":6232:6603  function decreaseAllowance(address spender, uint256 subtractedValue) public virtual returns (bool) {... */\n    tag_67:\n        /* \"@openzeppelin/contracts@4.0.0/token/ERC20/ERC20.sol\":6325:6329  bool */\n      0x00\n        /* \"@openzeppelin/contracts@4.0.0/token/ERC20/ERC20.sol\":6341:6365  uint256 currentAllowance */\n      dup1\n        /* \"@openzeppelin/contracts@4.0.0/token/ERC20/ERC20.sol\":6368:6379  _allowances */\n      0x01\n        /* \"@openzeppelin/contracts@4.0.0/token/ERC20/ERC20.sol\":6368:6393  _allowances[_msgSender()] */\n      0x00\n        /* \"@openzeppelin/contracts@4.0.0/token/ERC20/ERC20.sol\":6380:6392  _msgSender() */\n      tag_136\n        /* \"@openzeppelin/contracts@4.0.0/token/ERC20/ERC20.sol\":6380:6390  _msgSender */\n      tag_88\n        /* \"@openzeppelin/contracts@4.0.0/token/ERC20/ERC20.sol\":6380:6392  _msgSender() */\n      jump\t// in\n    tag_136:\n        /* \"@openzeppelin/contracts@4.0.0/token/ERC20/ERC20.sol\":6368:6393  _allowances[_msgSender()] */\n      0xffffffffffffffffffffffffffffffffffffffff\n      and\n      0xffffffffffffffffffffffffffffffffffffffff\n      and\n      dup2\n      mstore\n      0x20\n      add\n      swap1\n      dup2\n      mstore\n      0x20\n      add\n      0x00\n      keccak256\n        /* \"@openzeppelin/contracts@4.0.0/token/ERC20/ERC20.sol\":6368:6402  _allowances[_msgSender()][spender] */\n      0x00\n        /* \"@openzeppelin/contracts@4.0.0/token/ERC20/ERC20.sol\":6394:6401  spender */\n      dup6\n        /* \"@openzeppelin/contracts@4.0.0/token/ERC20/ERC20.sol\":6368:6402  _allowances[_msgSender()][spender] */\n      0xffffffffffffffffffffffffffffffffffffffff\n      and\n      0xffffffffffffffffffffffffffffffffffffffff\n      and\n      dup2\n      mstore\n      0x20\n      add\n      swap1\n      dup2\n      mstore\n      0x20\n      add\n      0x00\n      keccak256\n      sload\n        /* \"@openzeppelin/contracts@4.0.0/token/ERC20/ERC20.sol\":6341:6402  uint256 currentAllowance = _allowances[_msgSender()][spender] */\n      swap1\n      pop\n        /* \"@openzeppelin/contracts@4.0.0/token/ERC20/ERC20.sol\":6440:6455  subtractedValue */\n      dup3\n        /* \"@openzeppelin/contracts@4.0.0/token/ERC20/ERC20.sol\":6420:6436  currentAllowance */\n      dup2\n        /* \"@openzeppelin/contracts@4.0.0/token/ERC20/ERC20.sol\":6420:6455  currentAllowance >= subtractedValue */\n      lt\n      iszero\n        /* \"@openzeppelin/contracts@4.0.0/token/ERC20/ERC20.sol\":6412:6497  require(currentAllowance >= subtractedValue, \"ERC20: decreased allowance below zero\") */\n      tag_137\n      jumpi\n      mload(0x40)\n      0x08c379a000000000000000000000000000000000000000000000000000000000\n      dup2\n      mstore\n      0x04\n      add\n      tag_138\n      swap1\n      tag_139\n      jump\t// in\n    tag_138:\n      mload(0x40)\n      dup1\n      swap2\n      sub\n      swap1\n      revert\n    tag_137:\n        /* \"@openzeppelin/contracts@4.0.0/token/ERC20/ERC20.sol\":6507:6574  _approve(_msgSender(), spender, currentAllowance - subtractedValue) */\n      tag_140\n        /* \"@openzeppelin/contracts@4.0.0/token/ERC20/ERC20.sol\":6516:6528  _msgSender() */\n      tag_141\n        /* \"@openzeppelin/contracts@4.0.0/token/ERC20/ERC20.sol\":6516:6526  _msgSender */\n      tag_88\n        /* \"@openzeppelin/contracts@4.0.0/token/ERC20/ERC20.sol\":6516:6528  _msgSender() */\n      jump\t// in\n    tag_141:\n        /* \"@openzeppelin/contracts@4.0.0/token/ERC20/ERC20.sol\":6530:6537  spender */\n      dup6\n        /* \"@openzeppelin/contracts@4.0.0/token/ERC20/ERC20.sol\":6558:6573  subtractedValue */\n      dup6\n        /* \"@openzeppelin/contracts@4.0.0/token/ERC20/ERC20.sol\":6539:6555  currentAllowance */\n      dup5\n        /* \"@openzeppelin/contracts@4.0.0/token/ERC20/ERC20.sol\":6539:6573  currentAllowance - subtractedValue */\n      tag_142\n      swap2\n      swap1\n      tag_101\n      jump\t// in\n    tag_142:\n        /* \"@openzeppelin/contracts@4.0.0/token/ERC20/ERC20.sol\":6507:6515  _approve */\n      tag_89\n        /* \"@openzeppelin/contracts@4.0.0/token/ERC20/ERC20.sol\":6507:6574  _approve(_msgSender(), spender, currentAllowance - subtractedValue) */\n      jump\t// in\n    tag_140:\n        /* \"@openzeppelin/contracts@4.0.0/token/ERC20/ERC20.sol\":6592:6596  true */\n      0x01\n        /* \"@openzeppelin/contracts@4.0.0/token/ERC20/ERC20.sol\":6585:6596  return true */\n      swap2\n      pop\n      pop\n        /* \"@openzeppelin/contracts@4.0.0/token/ERC20/ERC20.sol\":6232:6603  function decreaseAllowance(address spender, uint256 subtractedValue) public virtual returns (bool) {... */\n      swap3\n      swap2\n      pop\n      pop\n      jump\t// out\n        /* \"@openzeppelin/contracts@4.0.0/token/ERC20/ERC20.sol\":3574:3746  function transfer(address recipient, uint256 amount) public virtual override returns (bool) {... */\n    tag_71:\n        /* \"@openzeppelin/contracts@4.0.0/token/ERC20/ERC20.sol\":3660:3664  bool */\n      0x00\n        /* \"@openzeppelin/contracts@4.0.0/token/ERC20/ERC20.sol\":3676:3718  _transfer(_msgSender(), recipient, amount) */\n      tag_144\n        /* \"@openzeppelin/contracts@4.0.0/token/ERC20/ERC20.sol\":3686:3698  _msgSender() */\n      tag_145\n        /* \"@openzeppelin/contracts@4.0.0/token/ERC20/ERC20.sol\":3686:3696  _msgSender */\n      tag_88\n        /* \"@openzeppelin/contracts@4.0.0/token/ERC20/ERC20.sol\":3686:3698  _msgSender() */\n      jump\t// in\n    tag_145:\n        /* \"@openzeppelin/contracts@4.0.0/token/ERC20/ERC20.sol\":3700:3709  recipient */\n      dup5\n        /* \"@openzeppelin/contracts@4.0.0/token/ERC20/ERC20.sol\":3711:3717  amount */\n      dup5\n        /* \"@openzeppelin/contracts@4.0.0/token/ERC20/ERC20.sol\":3676:3685  _transfer */\n      tag_93\n        /* \"@openzeppelin/contracts@4.0.0/token/ERC20/ERC20.sol\":3676:3718  _transfer(_msgSender(), recipient, amount) */\n      jump\t// in\n    tag_144:\n        /* \"@openzeppelin/contracts@4.0.0/token/ERC20/ERC20.sol\":3735:3739  true */\n      0x01\n        /* \"@openzeppelin/contracts@4.0.0/token/ERC20/ERC20.sol\":3728:3739  return true */\n      swap1\n      pop\n        /* \"@openzeppelin/contracts@4.0.0/token/ERC20/ERC20.sol\":3574:3746  function transfer(address recipient, uint256 amount) public virtual override returns (bool) {... */\n      swap3\n      swap2\n      pop\n      pop\n      jump\t// out\n        /* \"@openzeppelin/contracts@4.0.0/token/ERC20/ERC20.sol\":3804:3953  function allowance(address owner, address spender) public view virtual override returns (uint256) {... */\n    tag_76:\n        /* \"@openzeppelin/contracts@4.0.0/token/ERC20/ERC20.sol\":3893:3900  uint256 */\n      0x00\n        /* \"@openzeppelin/contracts@4.0.0/token/ERC20/ERC20.sol\":3919:3930  _allowances */\n      0x01\n        /* \"@openzeppelin/contracts@4.0.0/token/ERC20/ERC20.sol\":3919:3937  _allowances[owner] */\n      0x00\n        /* \"@openzeppelin/contracts@4.0.0/token/ERC20/ERC20.sol\":3931:3936  owner */\n      dup5\n        /* \"@openzeppelin/contracts@4.0.0/token/ERC20/ERC20.sol\":3919:3937  _allowances[owner] */\n      0xffffffffffffffffffffffffffffffffffffffff\n      and\n      0xffffffffffffffffffffffffffffffffffffffff\n      and\n      dup2\n      mstore\n      0x20\n      add\n      swap1\n      dup2\n      mstore\n      0x20\n      add\n      0x00\n      keccak256\n        /* \"@openzeppelin/contracts@4.0.0/token/ERC20/ERC20.sol\":3919:3946  _allowances[owner][spender] */\n      0x00\n        /* \"@openzeppelin/contracts@4.0.0/token/ERC20/ERC20.sol\":3938:3945  spender */\n      dup4\n        /* \"@openzeppelin/contracts@4.0.0/token/ERC20/ERC20.sol\":3919:3946  _allowances[owner][spender] */\n      0xffffffffffffffffffffffffffffffffffffffff\n      and\n      0xffffffffffffffffffffffffffffffffffffffff\n      and\n      dup2\n      mstore\n      0x20\n      add\n      swap1\n      dup2\n      mstore\n      0x20\n      add\n      0x00\n      keccak256\n      sload\n        /* \"@openzeppelin/contracts@4.0.0/token/ERC20/ERC20.sol\":3912:3946  return _allowances[owner][spender] */\n      swap1\n      pop\n        /* \"@openzeppelin/contracts@4.0.0/token/ERC20/ERC20.sol\":3804:3953  function allowance(address owner, address spender) public view virtual override returns (uint256) {... */\n      swap3\n      swap2\n      pop\n      pop\n      jump\t// out\n        /* \"@openzeppelin/contracts@4.0.0/utils/Context.sol\":586:682  function _msgSender() internal view virtual returns (address) {... */\n    tag_88:\n        /* \"@openzeppelin/contracts@4.0.0/utils/Context.sol\":639:646  address */\n      0x00\n        /* \"@openzeppelin/contracts@4.0.0/utils/Context.sol\":665:675  msg.sender */\n      caller\n        /* \"@openzeppelin/contracts@4.0.0/utils/Context.sol\":658:675  return msg.sender */\n      swap1\n      pop\n        /* \"@openzeppelin/contracts@4.0.0/utils/Context.sol\":586:682  function _msgSender() internal view virtual returns (address) {... */\n      swap1\n      jump\t// out\n        /* \"@openzeppelin/contracts@4.0.0/token/ERC20/ERC20.sol\":9496:9836  function _approve(address owner, address spender, uint256 amount) internal virtual {... */\n    tag_89:\n        /* \"@openzeppelin/contracts@4.0.0/token/ERC20/ERC20.sol\":9614:9615  0 */\n      0x00\n        /* \"@openzeppelin/contracts@4.0.0/token/ERC20/ERC20.sol\":9597:9616  owner != address(0) */\n      0xffffffffffffffffffffffffffffffffffffffff\n      and\n        /* \"@openzeppelin/contracts@4.0.0/token/ERC20/ERC20.sol\":9597:9602  owner */\n      dup4\n        /* \"@openzeppelin/contracts@4.0.0/token/ERC20/ERC20.sol\":9597:9616  owner != address(0) */\n      0xffffffffffffffffffffffffffffffffffffffff\n      and\n      eq\n      iszero\n        /* \"@openzeppelin/contracts@4.0.0/token/ERC20/ERC20.sol\":9589:9657  require(owner != address(0), \"ERC20: approve from the zero address\") */\n      tag_149\n      jumpi\n      mload(0x40)\n      0x08c379a000000000000000000000000000000000000000000000000000000000\n      dup2\n      mstore\n      0x04\n      add\n      tag_150\n      swap1\n      tag_151\n      jump\t// in\n    tag_150:\n      mload(0x40)\n      dup1\n      swap2\n      sub\n      swap1\n      revert\n    tag_149:\n        /* \"@openzeppelin/contracts@4.0.0/token/ERC20/ERC20.sol\":9694:9695  0 */\n      0x00\n        /* \"@openzeppelin/contracts@4.0.0/token/ERC20/ERC20.sol\":9675:9696  spender != address(0) */\n      0xffffffffffffffffffffffffffffffffffffffff\n      and\n        /* \"@openzeppelin/contracts@4.0.0/token/ERC20/ERC20.sol\":9675:9682  spender */\n      dup3\n        /* \"@openzeppelin/contracts@4.0.0/token/ERC20/ERC20.sol\":9675:9696  spender != address(0) */\n      0xffffffffffffffffffffffffffffffffffffffff\n      and\n      eq\n      iszero\n        /* \"@openzeppelin/contracts@4.0.0/token/ERC20/ERC20.sol\":9667:9735  require(spender != address(0), \"ERC20: approve to the zero address\") */\n      tag_152\n      jumpi\n      mload(0x40)\n      0x08c379a000000000000000000000000000000000000000000000000000000000\n      dup2\n      mstore\n      0x04\n      add\n      tag_153\n      swap1\n      tag_154\n      jump\t// in\n    tag_153:\n      mload(0x40)\n      dup1\n      swap2\n      sub\n      swap1\n      revert\n    tag_152:\n        /* \"@openzeppelin/contracts@4.0.0/token/ERC20/ERC20.sol\":9776:9782  amount */\n      dup1\n        /* \"@openzeppelin/contracts@4.0.0/token/ERC20/ERC20.sol\":9746:9757  _allowances */\n      0x01\n        /* \"@openzeppelin/contracts@4.0.0/token/ERC20/ERC20.sol\":9746:9764  _allowances[owner] */\n      0x00\n        /* \"@openzeppelin/contracts@4.0.0/token/ERC20/ERC20.sol\":9758:9763  owner */\n      dup6\n        /* \"@openzeppelin/contracts@4.0.0/token/ERC20/ERC20.sol\":9746:9764  _allowances[owner] */\n      0xffffffffffffffffffffffffffffffffffffffff\n      and\n      0xffffffffffffffffffffffffffffffffffffffff\n      and\n      dup2\n      mstore\n      0x20\n      add\n      swap1\n      dup2\n      mstore\n      0x20\n      add\n      0x00\n      keccak256\n        /* \"@openzeppelin/contracts@4.0.0/token/ERC20/ERC20.sol\":9746:9773  _allowances[owner][spender] */\n      0x00\n        /* \"@openzeppelin/contracts@4.0.0/token/ERC20/ERC20.sol\":9765:9772  spender */\n      dup5\n        /* \"@openzeppelin/contracts@4.0.0/token/ERC20/ERC20.sol\":9746:9773  _allowances[owner][spender] */\n      0xffffffffffffffffffffffffffffffffffffffff\n      and\n      0xffffffffffffffffffffffffffffffffffffffff\n      and\n      dup2\n      mstore\n      0x20\n      add\n      swap1\n      dup2\n      mstore\n      0x20\n      add\n      0x00\n      keccak256\n        /* \"@openzeppelin/contracts@4.0.0/token/ERC20/ERC20.sol\":9746:9782  _allowances[owner][spender] = amount */\n      dup2\n      swap1\n      sstore\n      pop\n        /* \"@openzeppelin/contracts@4.0.0/token/ERC20/ERC20.sol\":9813:9820  spender */\n      dup2\n        /* \"@openzeppelin/contracts@4.0.0/token/ERC20/ERC20.sol\":9797:9829  Approval(owner, spender, amount) */\n      0xffffffffffffffffffffffffffffffffffffffff\n      and\n        /* \"@openzeppelin/contracts@4.0.0/token/ERC20/ERC20.sol\":9806:9811  owner */\n      dup4\n        /* \"@openzeppelin/contracts@4.0.0/token/ERC20/ERC20.sol\":9797:9829  Approval(owner, spender, amount) */\n      0xffffffffffffffffffffffffffffffffffffffff\n      and\n      0x8c5be1e5ebec7d5bd14f71427d1e84f3dd0314c0f7b2291e5b200ac8c7c3b925\n        /* \"@openzeppelin/contracts@4.0.0/token/ERC20/ERC20.sol\":9822:9828  amount */\n      dup4\n        /* \"@openzeppelin/contracts@4.0.0/token/ERC20/ERC20.sol\":9797:9829  Approval(owner, spender, amount) */\n      mload(0x40)\n      tag_155\n      swap2\n      swap1\n      tag_33\n      jump\t// in\n    tag_155:\n      mload(0x40)\n      dup1\n      swap2\n      sub\n      swap1\n      log3\n        /* \"@openzeppelin/contracts@4.0.0/token/ERC20/ERC20.sol\":9496:9836  function _approve(address owner, address spender, uint256 amount) internal virtual {... */\n      pop\n      pop\n      pop\n      jump\t// out\n        /* \"@openzeppelin/contracts@4.0.0/token/ERC20/ERC20.sol\":7077:7669  function _transfer(address sender, address recipient, uint256 amount) internal virtual {... */\n    tag_93:\n        /* \"@openzeppelin/contracts@4.0.0/token/ERC20/ERC20.sol\":7200:7201  0 */\n      0x00\n        /* \"@openzeppelin/contracts@4.0.0/token/ERC20/ERC20.sol\":7182:7202  sender != address(0) */\n      0xffffffffffffffffffffffffffffffffffffffff\n      and\n        /* \"@openzeppelin/contracts@4.0.0/token/ERC20/ERC20.sol\":7182:7188  sender */\n      dup4\n        /* \"@openzeppelin/contracts@4.0.0/token/ERC20/ERC20.sol\":7182:7202  sender != address(0) */\n      0xffffffffffffffffffffffffffffffffffffffff\n      and\n      eq\n      iszero\n        /* \"@openzeppelin/contracts@4.0.0/token/ERC20/ERC20.sol\":7174:7244  require(sender != address(0), \"ERC20: transfer from the zero address\") */\n      tag_157\n      jumpi\n      mload(0x40)\n      0x08c379a000000000000000000000000000000000000000000000000000000000\n      dup2\n      mstore\n      0x04\n      add\n      tag_158\n      swap1\n      tag_159\n      jump\t// in\n    tag_158:\n      mload(0x40)\n      dup1\n      swap2\n      sub\n      swap1\n      revert\n    tag_157:\n        /* \"@openzeppelin/contracts@4.0.0/token/ERC20/ERC20.sol\":7283:7284  0 */\n      0x00\n        /* \"@openzeppelin/contracts@4.0.0/token/ERC20/ERC20.sol\":7262:7285  recipient != address(0) */\n      0xffffffffffffffffffffffffffffffffffffffff\n      and\n        /* \"@openzeppelin/contracts@4.0.0/token/ERC20/ERC20.sol\":7262:7271  recipient */\n      dup3\n        /* \"@openzeppelin/contracts@4.0.0/token/ERC20/ERC20.sol\":7262:7285  recipient != address(0) */\n      0xffffffffffffffffffffffffffffffffffffffff\n      and\n      eq\n      iszero\n        /* \"@openzeppelin/contracts@4.0.0/token/ERC20/ERC20.sol\":7254:7325  require(recipient != address(0), \"ERC20: transfer to the zero address\") */\n      tag_160\n      jumpi\n      mload(0x40)\n      0x08c379a000000000000000000000000000000000000000000000000000000000\n      dup2\n      mstore\n      0x04\n      add\n      tag_161\n      swap1\n      tag_162\n      jump\t// in\n    tag_161:\n      mload(0x40)\n      dup1\n      swap2\n      sub\n      swap1\n      revert\n    tag_160:\n        /* \"@openzeppelin/contracts@4.0.0/token/ERC20/ERC20.sol\":7336:7383  _beforeTokenTransfer(sender, recipient, amount) */\n      tag_163\n        /* \"@openzeppelin/contracts@4.0.0/token/ERC20/ERC20.sol\":7357:7363  sender */\n      dup4\n        /* \"@openzeppelin/contracts@4.0.0/token/ERC20/ERC20.sol\":7365:7374  recipient */\n      dup4\n        /* \"@openzeppelin/contracts@4.0.0/token/ERC20/ERC20.sol\":7376:7382  amount */\n      dup4\n        /* \"@openzeppelin/contracts@4.0.0/token/ERC20/ERC20.sol\":7336:7356  _beforeTokenTransfer */\n      tag_164\n        /* \"@openzeppelin/contracts@4.0.0/token/ERC20/ERC20.sol\":7336:7383  _beforeTokenTransfer(sender, recipient, amount) */\n      jump\t// in\n    tag_163:\n        /* \"@openzeppelin/contracts@4.0.0/token/ERC20/ERC20.sol\":7394:7415  uint256 senderBalance */\n      0x00\n        /* \"@openzeppelin/contracts@4.0.0/token/ERC20/ERC20.sol\":7418:7427  _balances */\n      dup1\n        /* \"@openzeppelin/contracts@4.0.0/token/ERC20/ERC20.sol\":7418:7435  _balances[sender] */\n      0x00\n        /* \"@openzeppelin/contracts@4.0.0/token/ERC20/ERC20.sol\":7428:7434  sender */\n      dup6\n        /* \"@openzeppelin/contracts@4.0.0/token/ERC20/ERC20.sol\":7418:7435  _balances[sender] */\n      0xffffffffffffffffffffffffffffffffffffffff\n      and\n      0xffffffffffffffffffffffffffffffffffffffff\n      and\n      dup2\n      mstore\n      0x20\n      add\n      swap1\n      dup2\n      mstore\n      0x20\n      add\n      0x00\n      keccak256\n      sload\n        /* \"@openzeppelin/contracts@4.0.0/token/ERC20/ERC20.sol\":7394:7435  uint256 senderBalance = _balances[sender] */\n      swap1\n      pop\n        /* \"@openzeppelin/contracts@4.0.0/token/ERC20/ERC20.sol\":7470:7476  amount */\n      dup2\n        /* \"@openzeppelin/contracts@4.0.0/token/ERC20/ERC20.sol\":7453:7466  senderBalance */\n      dup2\n        /* \"@openzeppelin/contracts@4.0.0/token/ERC20/ERC20.sol\":7453:7476  senderBalance >= amount */\n      lt\n      iszero\n        /* \"@openzeppelin/contracts@4.0.0/token/ERC20/ERC20.sol\":7445:7519  require(senderBalance >= amount, \"ERC20: transfer amount exceeds balance\") */\n      tag_165\n      jumpi\n      mload(0x40)\n      0x08c379a000000000000000000000000000000000000000000000000000000000\n      dup2\n      mstore\n      0x04\n      add\n      tag_166\n      swap1\n      tag_167\n      jump\t// in\n    tag_166:\n      mload(0x40)\n      dup1\n      swap2\n      sub\n      swap1\n      revert\n    tag_165:\n        /* \"@openzeppelin/contracts@4.0.0/token/ERC20/ERC20.sol\":7565:7571  amount */\n      dup2\n        /* \"@openzeppelin/contracts@4.0.0/token/ERC20/ERC20.sol\":7549:7562  senderBalance */\n      dup2\n        /* \"@openzeppelin/contracts@4.0.0/token/ERC20/ERC20.sol\":7549:7571  senderBalance - amount */\n      tag_168\n      swap2\n      swap1\n      tag_101\n      jump\t// in\n    tag_168:\n        /* \"@openzeppelin/contracts@4.0.0/token/ERC20/ERC20.sol\":7529:7538  _balances */\n      0x00\n        /* \"@openzeppelin/contracts@4.0.0/token/ERC20/ERC20.sol\":7529:7546  _balances[sender] */\n      dup1\n        /* \"@openzeppelin/contracts@4.0.0/token/ERC20/ERC20.sol\":7539:7545  sender */\n      dup7\n        /* \"@openzeppelin/contracts@4.0.0/token/ERC20/ERC20.sol\":7529:7546  _balances[sender] */\n      0xffffffffffffffffffffffffffffffffffffffff\n      and\n      0xffffffffffffffffffffffffffffffffffffffff\n      and\n      dup2\n      mstore\n      0x20\n      add\n      swap1\n      dup2\n      mstore\n      0x20\n      add\n      0x00\n      keccak256\n        /* \"@openzeppelin/contracts@4.0.0/token/ERC20/ERC20.sol\":7529:7571  _balances[sender] = senderBalance - amount */\n      dup2\n      swap1\n      sstore\n      pop\n        /* \"@openzeppelin/contracts@4.0.0/token/ERC20/ERC20.sol\":7605:7611  amount */\n      dup2\n        /* \"@openzeppelin/contracts@4.0.0/token/ERC20/ERC20.sol\":7581:7590  _balances */\n      0x00\n        /* \"@openzeppelin/contracts@4.0.0/token/ERC20/ERC20.sol\":7581:7601  _balances[recipient] */\n      dup1\n        /* \"@openzeppelin/contracts@4.0.0/token/ERC20/ERC20.sol\":7591:7600  recipient */\n      dup6\n        /* \"@openzeppelin/contracts@4.0.0/token/ERC20/ERC20.sol\":7581:7601  _balances[recipient] */\n      0xffffffffffffffffffffffffffffffffffffffff\n      and\n      0xffffffffffffffffffffffffffffffffffffffff\n      and\n      dup2\n      mstore\n      0x20\n      add\n      swap1\n      dup2\n      mstore\n      0x20\n      add\n      0x00\n      keccak256\n      0x00\n        /* \"@openzeppelin/contracts@4.0.0/token/ERC20/ERC20.sol\":7581:7611  _balances[recipient] += amount */\n      dup3\n      dup3\n      sload\n      tag_169\n      swap2\n      swap1\n      tag_108\n      jump\t// in\n    tag_169:\n      swap3\n      pop\n      pop\n      dup2\n      swap1\n      sstore\n      pop\n        /* \"@openzeppelin/contracts@4.0.0/token/ERC20/ERC20.sol\":7644:7653  recipient */\n      dup3\n        /* \"@openzeppelin/contracts@4.0.0/token/ERC20/ERC20.sol\":7627:7662  Transfer(sender, recipient, amount) */\n      0xffffffffffffffffffffffffffffffffffffffff\n      and\n        /* \"@openzeppelin/contracts@4.0.0/token/ERC20/ERC20.sol\":7636:7642  sender */\n      dup5\n        /* \"@openzeppelin/contracts@4.0.0/token/ERC20/ERC20.sol\":7627:7662  Transfer(sender, recipient, amount) */\n      0xffffffffffffffffffffffffffffffffffffffff\n      and\n      0xddf252ad1be2c89b69c2b068fc378daa952ba7f163c4a11628f55a4df523b3ef\n        /* \"@openzeppelin/contracts@4.0.0/token/ERC20/ERC20.sol\":7655:7661  amount */\n      dup5\n        /* \"@openzeppelin/contracts@4.0.0/token/ERC20/ERC20.sol\":7627:7662  Transfer(sender, recipient, amount) */\n      mload(0x40)\n      tag_170\n      swap2\n      swap1\n      tag_33\n      jump\t// in\n    tag_170:\n      mload(0x40)\n      dup1\n      swap2\n      sub\n      swap1\n      log3\n        /* \"@openzeppelin/contracts@4.0.0/token/ERC20/ERC20.sol\":7164:7669  {... */\n      pop\n        /* \"@openzeppelin/contracts@4.0.0/token/ERC20/ERC20.sol\":7077:7669  function _transfer(address sender, address recipient, uint256 amount) internal virtual {... */\n      pop\n      pop\n      pop\n      jump\t// out\n        /* \"@openzeppelin/contracts@4.0.0/token/ERC20/ERC20.sol\":7940:8270  function _mint(address account, uint256 amount) internal virtual {... */\n    tag_115:\n        /* \"@openzeppelin/contracts@4.0.0/token/ERC20/ERC20.sol\":8042:8043  0 */\n      0x00\n        /* \"@openzeppelin/contracts@4.0.0/token/ERC20/ERC20.sol\":8023:8044  account != address(0) */\n      0xffffffffffffffffffffffffffffffffffffffff\n      and\n        /* \"@openzeppelin/contracts@4.0.0/token/ERC20/ERC20.sol\":8023:8030  account */\n      dup3\n        /* \"@openzeppelin/contracts@4.0.0/token/ERC20/ERC20.sol\":8023:8044  account != address(0) */\n      0xffffffffffffffffffffffffffffffffffffffff\n      and\n      eq\n      iszero\n        /* \"@openzeppelin/contracts@4.0.0/token/ERC20/ERC20.sol\":8015:8080  require(account != address(0), \"ERC20: mint to the zero address\") */\n      tag_172\n      jumpi\n      mload(0x40)\n      0x08c379a000000000000000000000000000000000000000000000000000000000\n      dup2\n      mstore\n      0x04\n      add\n      tag_173\n      swap1\n      tag_174\n      jump\t// in\n    tag_173:\n      mload(0x40)\n      dup1\n      swap2\n      sub\n      swap1\n      revert\n    tag_172:\n        /* \"@openzeppelin/contracts@4.0.0/token/ERC20/ERC20.sol\":8091:8140  _beforeTokenTransfer(address(0), account, amount) */\n      tag_175\n        /* \"@openzeppelin/contracts@4.0.0/token/ERC20/ERC20.sol\":8120:8121  0 */\n      0x00\n        /* \"@openzeppelin/contracts@4.0.0/token/ERC20/ERC20.sol\":8124:8131  account */\n      dup4\n        /* \"@openzeppelin/contracts@4.0.0/token/ERC20/ERC20.sol\":8133:8139  amount */\n      dup4\n        /* \"@openzeppelin/contracts@4.0.0/token/ERC20/ERC20.sol\":8091:8111  _beforeTokenTransfer */\n      tag_164\n        /* \"@openzeppelin/contracts@4.0.0/token/ERC20/ERC20.sol\":8091:8140  _beforeTokenTransfer(address(0), account, amount) */\n      jump\t// in\n    tag_175:\n        /* \"@openzeppelin/contracts@4.0.0/token/ERC20/ERC20.sol\":8167:8173  amount */\n      dup1\n        /* \"@openzeppelin/contracts@4.0.0/token/ERC20/ERC20.sol\":8151:8163  _totalSupply */\n      0x02\n      0x00\n        /* \"@openzeppelin/contracts@4.0.0/token/ERC20/ERC20.sol\":8151:8173  _totalSupply += amount */\n      dup3\n      dup3\n      sload\n      tag_176\n      swap2\n      swap1\n      tag_108\n      jump\t// in\n    tag_176:\n      swap3\n      pop\n      pop\n      dup2\n      swap1\n      sstore\n      pop\n        /* \"@openzeppelin/contracts@4.0.0/token/ERC20/ERC20.sol\":8205:8211  amount */\n      dup1\n        /* \"@openzeppelin/contracts@4.0.0/token/ERC20/ERC20.sol\":8183:8192  _balances */\n      0x00\n        /* \"@openzeppelin/contracts@4.0.0/token/ERC20/ERC20.sol\":8183:8201  _balances[account] */\n      dup1\n        /* \"@openzeppelin/contracts@4.0.0/token/ERC20/ERC20.sol\":8193:8200  account */\n      dup5\n        /* \"@openzeppelin/contracts@4.0.0/token/ERC20/ERC20.sol\":8183:8201  _balances[account] */\n      0xffffffffffffffffffffffffffffffffffffffff\n      and\n      0xffffffffffffffffffffffffffffffffffffffff\n      and\n      dup2\n      mstore\n      0x20\n      add\n      swap1\n      dup2\n      mstore\n      0x20\n      add\n      0x00\n      keccak256\n      0x00\n        /* \"@openzeppelin/contracts@4.0.0/token/ERC20/ERC20.sol\":8183:8211  _balances[account] += amount */\n      dup3\n      dup3\n      sload\n      tag_177\n      swap2\n      swap1\n      tag_108\n      jump\t// in\n    tag_177:\n      swap3\n      pop\n      pop\n      dup2\n      swap1\n      sstore\n      pop\n        /* \"@openzeppelin/contracts@4.0.0/token/ERC20/ERC20.sol\":8247:8254  account */\n      dup2\n        /* \"@openzeppelin/contracts@4.0.0/token/ERC20/ERC20.sol\":8226:8263  Transfer(address(0), account, amount) */\n      0xffffffffffffffffffffffffffffffffffffffff\n      and\n        /* \"@openzeppelin/contracts@4.0.0/token/ERC20/ERC20.sol\":8243:8244  0 */\n      0x00\n        /* \"@openzeppelin/contracts@4.0.0/token/ERC20/ERC20.sol\":8226:8263  Transfer(address(0), account, amount) */\n      0xffffffffffffffffffffffffffffffffffffffff\n      and\n      0xddf252ad1be2c89b69c2b068fc378daa952ba7f163c4a11628f55a4df523b3ef\n        /* \"@openzeppelin/contracts@4.0.0/token/ERC20/ERC20.sol\":8256:8262  amount */\n      dup4\n        /* \"@openzeppelin/contracts@4.0.0/token/ERC20/ERC20.sol\":8226:8263  Transfer(address(0), account, amount) */\n      mload(0x40)\n      tag_178\n      swap2\n      swap1\n      tag_33\n      jump\t// in\n    tag_178:\n      mload(0x40)\n      dup1\n      swap2\n      sub\n      swap1\n      log3\n        /* \"@openzeppelin/contracts@4.0.0/token/ERC20/ERC20.sol\":7940:8270  function _mint(address account, uint256 amount) internal virtual {... */\n      pop\n      pop\n      jump\t// out\n        /* \"@openzeppelin/contracts@4.0.0/token/ERC20/extensions/ERC20Burnable.sol\":487:576  function burn(uint256 amount) public virtual {... */\n    tag_121:\n        /* \"@openzeppelin/contracts@4.0.0/token/ERC20/extensions/ERC20Burnable.sol\":542:569  _burn(_msgSender(), amount) */\n      tag_180\n        /* \"@openzeppelin/contracts@4.0.0/token/ERC20/extensions/ERC20Burnable.sol\":548:560  _msgSender() */\n      tag_181\n        /* \"@openzeppelin/contracts@4.0.0/token/ERC20/extensions/ERC20Burnable.sol\":548:558  _msgSender */\n      tag_88\n        /* \"@openzeppelin/contracts@4.0.0/token/ERC20/extensions/ERC20Burnable.sol\":548:560  _msgSender() */\n      jump\t// in\n    tag_181:\n        /* \"@openzeppelin/contracts@4.0.0/token/ERC20/extensions/ERC20Burnable.sol\":562:568  amount */\n      dup3\n        /* \"@openzeppelin/contracts@4.0.0/token/ERC20/extensions/ERC20Burnable.sol\":542:547  _burn */\n      tag_182\n        /* \"@openzeppelin/contracts@4.0.0/token/ERC20/extensions/ERC20Burnable.sol\":542:569  _burn(_msgSender(), amount) */\n      jump\t// in\n    tag_180:\n        /* \"@openzeppelin/contracts@4.0.0/token/ERC20/extensions/ERC20Burnable.sol\":487:576  function burn(uint256 amount) public virtual {... */\n      pop\n      jump\t// out\n        /* \"@openzeppelin/contracts@4.0.0/token/ERC20/extensions/ERC20Burnable.sol\":882:1209  function burnFrom(address account, uint256 amount) public virtual {... */\n    tag_128:\n        /* \"@openzeppelin/contracts@4.0.0/token/ERC20/extensions/ERC20Burnable.sol\":958:982  uint256 currentAllowance */\n      0x00\n        /* \"@openzeppelin/contracts@4.0.0/token/ERC20/extensions/ERC20Burnable.sol\":985:1017  allowance(account, _msgSender()) */\n      tag_184\n        /* \"@openzeppelin/contracts@4.0.0/token/ERC20/extensions/ERC20Burnable.sol\":995:1002  account */\n      dup4\n        /* \"@openzeppelin/contracts@4.0.0/token/ERC20/extensions/ERC20Burnable.sol\":1004:1016  _msgSender() */\n      tag_185\n        /* \"@openzeppelin/contracts@4.0.0/token/ERC20/extensions/ERC20Burnable.sol\":1004:1014  _msgSender */\n      tag_88\n        /* \"@openzeppelin/contracts@4.0.0/token/ERC20/extensions/ERC20Burnable.sol\":1004:1016  _msgSender() */\n      jump\t// in\n    tag_185:\n        /* \"@openzeppelin/contracts@4.0.0/token/ERC20/extensions/ERC20Burnable.sol\":985:994  allowance */\n      tag_76\n        /* \"@openzeppelin/contracts@4.0.0/token/ERC20/extensions/ERC20Burnable.sol\":985:1017  allowance(account, _msgSender()) */\n      jump\t// in\n    tag_184:\n        /* \"@openzeppelin/contracts@4.0.0/token/ERC20/extensions/ERC20Burnable.sol\":958:1017  uint256 currentAllowance = allowance(account, _msgSender()) */\n      swap1\n      pop\n        /* \"@openzeppelin/contracts@4.0.0/token/ERC20/extensions/ERC20Burnable.sol\":1055:1061  amount */\n      dup2\n        /* \"@openzeppelin/contracts@4.0.0/token/ERC20/extensions/ERC20Burnable.sol\":1035:1051  currentAllowance */\n      dup2\n        /* \"@openzeppelin/contracts@4.0.0/token/ERC20/extensions/ERC20Burnable.sol\":1035:1061  currentAllowance >= amount */\n      lt\n      iszero\n        /* \"@openzeppelin/contracts@4.0.0/token/ERC20/extensions/ERC20Burnable.sol\":1027:1102  require(currentAllowance >= amount, \"ERC20: burn amount exceeds allowance\") */\n      tag_186\n      jumpi\n      mload(0x40)\n      0x08c379a000000000000000000000000000000000000000000000000000000000\n      dup2\n      mstore\n      0x04\n      add\n      tag_187\n      swap1\n      tag_188\n      jump\t// in\n    tag_187:\n      mload(0x40)\n      dup1\n      swap2\n      sub\n      swap1\n      revert\n    tag_186:\n        /* \"@openzeppelin/contracts@4.0.0/token/ERC20/extensions/ERC20Burnable.sol\":1112:1170  _approve(account, _msgSender(), currentAllowance - amount) */\n      tag_189\n        /* \"@openzeppelin/contracts@4.0.0/token/ERC20/extensions/ERC20Burnable.sol\":1121:1128  account */\n      dup4\n        /* \"@openzeppelin/contracts@4.0.0/token/ERC20/extensions/ERC20Burnable.sol\":1130:1142  _msgSender() */\n      tag_190\n        /* \"@openzeppelin/contracts@4.0.0/token/ERC20/extensions/ERC20Burnable.sol\":1130:1140  _msgSender */\n      tag_88\n        /* \"@openzeppelin/contracts@4.0.0/token/ERC20/extensions/ERC20Burnable.sol\":1130:1142  _msgSender() */\n      jump\t// in\n    tag_190:\n        /* \"@openzeppelin/contracts@4.0.0/token/ERC20/extensions/ERC20Burnable.sol\":1163:1169  amount */\n      dup5\n        /* \"@openzeppelin/contracts@4.0.0/token/ERC20/extensions/ERC20Burnable.sol\":1144:1160  currentAllowance */\n      dup5\n        /* \"@openzeppelin/contracts@4.0.0/token/ERC20/extensions/ERC20Burnable.sol\":1144:1169  currentAllowance - amount */\n      tag_191\n      swap2\n      swap1\n      tag_101\n      jump\t// in\n    tag_191:\n        /* \"@openzeppelin/contracts@4.0.0/token/ERC20/extensions/ERC20Burnable.sol\":1112:1120  _approve */\n      tag_89\n        /* \"@openzeppelin/contracts@4.0.0/token/ERC20/extensions/ERC20Burnable.sol\":1112:1170  _approve(account, _msgSender(), currentAllowance - amount) */\n      jump\t// in\n    tag_189:\n        /* \"@openzeppelin/contracts@4.0.0/token/ERC20/extensions/ERC20Burnable.sol\":1180:1202  _burn(account, amount) */\n      tag_192\n        /* \"@openzeppelin/contracts@4.0.0/token/ERC20/extensions/ERC20Burnable.sol\":1186:1193  account */\n      dup4\n        /* \"@openzeppelin/contracts@4.0.0/token/ERC20/extensions/ERC20Burnable.sol\":1195:1201  amount */\n      dup4\n        /* \"@openzeppelin/contracts@4.0.0/token/ERC20/extensions/ERC20Burnable.sol\":1180:1185  _burn */\n      tag_182\n        /* \"@openzeppelin/contracts@4.0.0/token/ERC20/extensions/ERC20Burnable.sol\":1180:1202  _burn(account, amount) */\n      jump\t// in\n    tag_192:\n        /* \"@openzeppelin/contracts@4.0.0/token/ERC20/extensions/ERC20Burnable.sol\":948:1209  {... */\n      pop\n        /* \"@openzeppelin/contracts@4.0.0/token/ERC20/extensions/ERC20Burnable.sol\":882:1209  function burnFrom(address account, uint256 amount) public virtual {... */\n      pop\n      pop\n      jump\t// out\n        /* \"@openzeppelin/contracts@4.0.0/token/ERC20/ERC20.sol\":10423:10515  function _beforeTokenTransfer(address from, address to, uint256 amount) internal virtual { } */\n    tag_164:\n      pop\n      pop\n      pop\n      jump\t// out\n        /* \"@openzeppelin/contracts@4.0.0/token/ERC20/ERC20.sol\":8590:9073  function _burn(address account, uint256 amount) internal virtual {... */\n    tag_182:\n        /* \"@openzeppelin/contracts@4.0.0/token/ERC20/ERC20.sol\":8692:8693  0 */\n      0x00\n        /* \"@openzeppelin/contracts@4.0.0/token/ERC20/ERC20.sol\":8673:8694  account != address(0) */\n      0xffffffffffffffffffffffffffffffffffffffff\n      and\n        /* \"@openzeppelin/contracts@4.0.0/token/ERC20/ERC20.sol\":8673:8680  account */\n      dup3\n        /* \"@openzeppelin/contracts@4.0.0/token/ERC20/ERC20.sol\":8673:8694  account != address(0) */\n      0xffffffffffffffffffffffffffffffffffffffff\n      and\n      eq\n      iszero\n        /* \"@openzeppelin/contracts@4.0.0/token/ERC20/ERC20.sol\":8665:8732  require(account != address(0), \"ERC20: burn from the zero address\") */\n      tag_195\n      jumpi\n      mload(0x40)\n      0x08c379a000000000000000000000000000000000000000000000000000000000\n      dup2\n      mstore\n      0x04\n      add\n      tag_196\n      swap1\n      tag_197\n      jump\t// in\n    tag_196:\n      mload(0x40)\n      dup1\n      swap2\n      sub\n      swap1\n      revert\n    tag_195:\n        /* \"@openzeppelin/contracts@4.0.0/token/ERC20/ERC20.sol\":8743:8792  _beforeTokenTransfer(account, address(0), amount) */\n      tag_198\n        /* \"@openzeppelin/contracts@4.0.0/token/ERC20/ERC20.sol\":8764:8771  account */\n      dup3\n        /* \"@openzeppelin/contracts@4.0.0/token/ERC20/ERC20.sol\":8781:8782  0 */\n      0x00\n        /* \"@openzeppelin/contracts@4.0.0/token/ERC20/ERC20.sol\":8785:8791  amount */\n      dup4\n        /* \"@openzeppelin/contracts@4.0.0/token/ERC20/ERC20.sol\":8743:8763  _beforeTokenTransfer */\n      tag_164\n        /* \"@openzeppelin/contracts@4.0.0/token/ERC20/ERC20.sol\":8743:8792  _beforeTokenTransfer(account, address(0), amount) */\n      jump\t// in\n    tag_198:\n        /* \"@openzeppelin/contracts@4.0.0/token/ERC20/ERC20.sol\":8803:8825  uint256 accountBalance */\n      0x00\n        /* \"@openzeppelin/contracts@4.0.0/token/ERC20/ERC20.sol\":8828:8837  _balances */\n      dup1\n        /* \"@openzeppelin/contracts@4.0.0/token/ERC20/ERC20.sol\":8828:8846  _balances[account] */\n      0x00\n        /* \"@openzeppelin/contracts@4.0.0/token/ERC20/ERC20.sol\":8838:8845  account */\n      dup5\n        /* \"@openzeppelin/contracts@4.0.0/token/ERC20/ERC20.sol\":8828:8846  _balances[account] */\n      0xffffffffffffffffffffffffffffffffffffffff\n      and\n      0xffffffffffffffffffffffffffffffffffffffff\n      and\n      dup2\n      mstore\n      0x20\n      add\n      swap1\n      dup2\n      mstore\n      0x20\n      add\n      0x00\n      keccak256\n      sload\n        /* \"@openzeppelin/contracts@4.0.0/token/ERC20/ERC20.sol\":8803:8846  uint256 accountBalance = _balances[account] */\n      swap1\n      pop\n        /* \"@openzeppelin/contracts@4.0.0/token/ERC20/ERC20.sol\":8882:8888  amount */\n      dup2\n        /* \"@openzeppelin/contracts@4.0.0/token/ERC20/ERC20.sol\":8864:8878  accountBalance */\n      dup2\n        /* \"@openzeppelin/contracts@4.0.0/token/ERC20/ERC20.sol\":8864:8888  accountBalance >= amount */\n      lt\n      iszero\n        /* \"@openzeppelin/contracts@4.0.0/token/ERC20/ERC20.sol\":8856:8927  require(accountBalance >= amount, \"ERC20: burn amount exceeds balance\") */\n      tag_199\n      jumpi\n      mload(0x40)\n      0x08c379a000000000000000000000000000000000000000000000000000000000\n      dup2\n      mstore\n      0x04\n      add\n      tag_200\n      swap1\n      tag_201\n      jump\t// in\n    tag_200:\n      mload(0x40)\n      dup1\n      swap2\n      sub\n      swap1\n      revert\n    tag_199:\n        /* \"@openzeppelin/contracts@4.0.0/token/ERC20/ERC20.sol\":8975:8981  amount */\n      dup2\n        /* \"@openzeppelin/contracts@4.0.0/token/ERC20/ERC20.sol\":8958:8972  accountBalance */\n      dup2\n        /* \"@openzeppelin/contracts@4.0.0/token/ERC20/ERC20.sol\":8958:8981  accountBalance - amount */\n      tag_202\n      swap2\n      swap1\n      tag_101\n      jump\t// in\n    tag_202:\n        /* \"@openzeppelin/contracts@4.0.0/token/ERC20/ERC20.sol\":8937:8946  _balances */\n      0x00\n        /* \"@openzeppelin/contracts@4.0.0/token/ERC20/ERC20.sol\":8937:8955  _balances[account] */\n      dup1\n        /* \"@openzeppelin/contracts@4.0.0/token/ERC20/ERC20.sol\":8947:8954  account */\n      dup6\n        /* \"@openzeppelin/contracts@4.0.0/token/ERC20/ERC20.sol\":8937:8955  _balances[account] */\n      0xffffffffffffffffffffffffffffffffffffffff\n      and\n      0xffffffffffffffffffffffffffffffffffffffff\n      and\n      dup2\n      mstore\n      0x20\n      add\n      swap1\n      dup2\n      mstore\n      0x20\n      add\n      0x00\n      keccak256\n        /* \"@openzeppelin/contracts@4.0.0/token/ERC20/ERC20.sol\":8937:8981  _balances[account] = accountBalance - amount */\n      dup2\n      swap1\n      sstore\n      pop\n        /* \"@openzeppelin/contracts@4.0.0/token/ERC20/ERC20.sol\":9007:9013  amount */\n      dup2\n        /* \"@openzeppelin/contracts@4.0.0/token/ERC20/ERC20.sol\":8991:9003  _totalSupply */\n      0x02\n      0x00\n        /* \"@openzeppelin/contracts@4.0.0/token/ERC20/ERC20.sol\":8991:9013  _totalSupply -= amount */\n      dup3\n      dup3\n      sload\n      tag_203\n      swap2\n      swap1\n      tag_101\n      jump\t// in\n    tag_203:\n      swap3\n      pop\n      pop\n      dup2\n      swap1\n      sstore\n      pop\n        /* \"@openzeppelin/contracts@4.0.0/token/ERC20/ERC20.sol\":9055:9056  0 */\n      0x00\n        /* \"@openzeppelin/contracts@4.0.0/token/ERC20/ERC20.sol\":9029:9066  Transfer(account, address(0), amount) */\n      0xffffffffffffffffffffffffffffffffffffffff\n      and\n        /* \"@openzeppelin/contracts@4.0.0/token/ERC20/ERC20.sol\":9038:9045  account */\n      dup4\n        /* \"@openzeppelin/contracts@4.0.0/token/ERC20/ERC20.sol\":9029:9066  Transfer(account, address(0), amount) */\n      0xffffffffffffffffffffffffffffffffffffffff\n      and\n      0xddf252ad1be2c89b69c2b068fc378daa952ba7f163c4a11628f55a4df523b3ef\n        /* \"@openzeppelin/contracts@4.0.0/token/ERC20/ERC20.sol\":9059:9065  amount */\n      dup5\n        /* \"@openzeppelin/contracts@4.0.0/token/ERC20/ERC20.sol\":9029:9066  Transfer(account, address(0), amount) */\n      mload(0x40)\n      tag_204\n      swap2\n      swap1\n      tag_33\n      jump\t// in\n    tag_204:\n      mload(0x40)\n      dup1\n      swap2\n      sub\n      swap1\n      log3\n        /* \"@openzeppelin/contracts@4.0.0/token/ERC20/ERC20.sol\":8655:9073  {... */\n      pop\n        /* \"@openzeppelin/contracts@4.0.0/token/ERC20/ERC20.sol\":8590:9073  function _burn(address account, uint256 amount) internal virtual {... */\n      pop\n      pop\n      jump\t// out\n        /* \"#utility.yul\":7:146   */\n    tag_206:\n        /* \"#utility.yul\":53:58   */\n      0x00\n        /* \"#utility.yul\":91:97   */\n      dup2\n        /* \"#utility.yul\":78:98   */\n      calldataload\n        /* \"#utility.yul\":69:98   */\n      swap1\n      pop\n        /* \"#utility.yul\":107:140   */\n      tag_208\n        /* \"#utility.yul\":134:139   */\n      dup2\n        /* \"#utility.yul\":107:140   */\n      tag_209\n      jump\t// in\n    tag_208:\n        /* \"#utility.yul\":7:146   */\n      swap3\n      swap2\n      pop\n      pop\n      jump\t// out\n        /* \"#utility.yul\":152:291   */\n    tag_210:\n        /* \"#utility.yul\":198:203   */\n      0x00\n        /* \"#utility.yul\":236:242   */\n      dup2\n        /* \"#utility.yul\":223:243   */\n      calldataload\n        /* \"#utility.yul\":214:243   */\n      swap1\n      pop\n        /* \"#utility.yul\":252:285   */\n      tag_212\n        /* \"#utility.yul\":279:284   */\n      dup2\n        /* \"#utility.yul\":252:285   */\n      tag_213\n      jump\t// in\n    tag_212:\n        /* \"#utility.yul\":152:291   */\n      swap3\n      swap2\n      pop\n      pop\n      jump\t// out\n        /* \"#utility.yul\":297:626   */\n    tag_56:\n        /* \"#utility.yul\":356:362   */\n      0x00\n        /* \"#utility.yul\":405:407   */\n      0x20\n        /* \"#utility.yul\":393:402   */\n      dup3\n        /* \"#utility.yul\":384:391   */\n      dup5\n        /* \"#utility.yul\":380:403   */\n      sub\n        /* \"#utility.yul\":376:408   */\n      slt\n        /* \"#utility.yul\":373:492   */\n      iszero\n      tag_215\n      jumpi\n        /* \"#utility.yul\":411:490   */\n      tag_216\n      tag_217\n      jump\t// in\n    tag_216:\n        /* \"#utility.yul\":373:492   */\n    tag_215:\n        /* \"#utility.yul\":531:532   */\n      0x00\n        /* \"#utility.yul\":556:609   */\n      tag_218\n        /* \"#utility.yul\":601:608   */\n      dup5\n        /* \"#utility.yul\":592:598   */\n      dup3\n        /* \"#utility.yul\":581:590   */\n      dup6\n        /* \"#utility.yul\":577:599   */\n      add\n        /* \"#utility.yul\":556:609   */\n      tag_206\n      jump\t// in\n    tag_218:\n        /* \"#utility.yul\":546:609   */\n      swap2\n      pop\n        /* \"#utility.yul\":502:619   */\n      pop\n        /* \"#utility.yul\":297:626   */\n      swap3\n      swap2\n      pop\n      pop\n      jump\t// out\n        /* \"#utility.yul\":632:1106   */\n    tag_75:\n        /* \"#utility.yul\":700:706   */\n      0x00\n        /* \"#utility.yul\":708:714   */\n      dup1\n        /* \"#utility.yul\":757:759   */\n      0x40\n        /* \"#utility.yul\":745:754   */\n      dup4\n        /* \"#utility.yul\":736:743   */\n      dup6\n        /* \"#utility.yul\":732:755   */\n      sub\n        /* \"#utility.yul\":728:760   */\n      slt\n        /* \"#utility.yul\":725:844   */\n      iszero\n      tag_220\n      jumpi\n        /* \"#utility.yul\":763:842   */\n      tag_221\n      tag_217\n      jump\t// in\n    tag_221:\n        /* \"#utility.yul\":725:844   */\n    tag_220:\n        /* \"#utility.yul\":883:884   */\n      0x00\n        /* \"#utility.yul\":908:961   */\n      tag_222\n        /* \"#utility.yul\":953:960   */\n      dup6\n        /* \"#utility.yul\":944:950   */\n      dup3\n        /* \"#utility.yul\":933:942   */\n      dup7\n        /* \"#utility.yul\":929:951   */\n      add\n        /* \"#utility.yul\":908:961   */\n      tag_206\n      jump\t// in\n    tag_222:\n        /* \"#utility.yul\":898:961   */\n      swap3\n      pop\n        /* \"#utility.yul\":854:971   */\n      pop\n        /* \"#utility.yul\":1010:1012   */\n      0x20\n        /* \"#utility.yul\":1036:1089   */\n      tag_223\n        /* \"#utility.yul\":1081:1088   */\n      dup6\n        /* \"#utility.yul\":1072:1078   */\n      dup3\n        /* \"#utility.yul\":1061:1070   */\n      dup7\n        /* \"#utility.yul\":1057:1079   */\n      add\n        /* \"#utility.yul\":1036:1089   */\n      tag_206\n      jump\t// in\n    tag_223:\n        /* \"#utility.yul\":1026:1089   */\n      swap2\n      pop\n        /* \"#utility.yul\":981:1099   */\n      pop\n        /* \"#utility.yul\":632:1106   */\n      swap3\n      pop\n      swap3\n      swap1\n      pop\n      jump\t// out\n        /* \"#utility.yul\":1112:1731   */\n    tag_36:\n        /* \"#utility.yul\":1189:1195   */\n      0x00\n        /* \"#utility.yul\":1197:1203   */\n      dup1\n        /* \"#utility.yul\":1205:1211   */\n      0x00\n        /* \"#utility.yul\":1254:1256   */\n      0x60\n        /* \"#utility.yul\":1242:1251   */\n      dup5\n        /* \"#utility.yul\":1233:1240   */\n      dup7\n        /* \"#utility.yul\":1229:1252   */\n      sub\n        /* \"#utility.yul\":1225:1257   */\n      slt\n        /* \"#utility.yul\":1222:1341   */\n      iszero\n      tag_225\n      jumpi\n        /* \"#utility.yul\":1260:1339   */\n      tag_226\n      tag_217\n      jump\t// in\n    tag_226:\n        /* \"#utility.yul\":1222:1341   */\n    tag_225:\n        /* \"#utility.yul\":1380:1381   */\n      0x00\n        /* \"#utility.yul\":1405:1458   */\n      tag_227\n        /* \"#utility.yul\":1450:1457   */\n      dup7\n        /* \"#utility.yul\":1441:1447   */\n      dup3\n        /* \"#utility.yul\":1430:1439   */\n      dup8\n        /* \"#utility.yul\":1426:1448   */\n      add\n        /* \"#utility.yul\":1405:1458   */\n      tag_206\n      jump\t// in\n    tag_227:\n        /* \"#utility.yul\":1395:1458   */\n      swap4\n      pop\n        /* \"#utility.yul\":1351:1468   */\n      pop\n        /* \"#utility.yul\":1507:1509   */\n      0x20\n        /* \"#utility.yul\":1533:1586   */\n      tag_228\n        /* \"#utility.yul\":1578:1585   */\n      dup7\n        /* \"#utility.yul\":1569:1575   */\n      dup3\n        /* \"#utility.yul\":1558:1567   */\n      dup8\n        /* \"#utility.yul\":1554:1576   */\n      add\n        /* \"#utility.yul\":1533:1586   */\n      tag_206\n      jump\t// in\n    tag_228:\n        /* \"#utility.yul\":1523:1586   */\n      swap3\n      pop\n        /* \"#utility.yul\":1478:1596   */\n      pop\n        /* \"#utility.yul\":1635:1637   */\n      0x40\n        /* \"#utility.yul\":1661:1714   */\n      tag_229\n        /* \"#utility.yul\":1706:1713   */\n      dup7\n        /* \"#utility.yul\":1697:1703   */\n      dup3\n        /* \"#utility.yul\":1686:1695   */\n      dup8\n        /* \"#utility.yul\":1682:1704   */\n      add\n        /* \"#utility.yul\":1661:1714   */\n      tag_210\n      jump\t// in\n    tag_229:\n        /* \"#utility.yul\":1651:1714   */\n      swap2\n      pop\n        /* \"#utility.yul\":1606:1724   */\n      pop\n        /* \"#utility.yul\":1112:1731   */\n      swap3\n      pop\n      swap3\n      pop\n      swap3\n      jump\t// out\n        /* \"#utility.yul\":1737:2211   */\n    tag_26:\n        /* \"#utility.yul\":1805:1811   */\n      0x00\n        /* \"#utility.yul\":1813:1819   */\n      dup1\n        /* \"#utility.yul\":1862:1864   */\n      0x40\n        /* \"#utility.yul\":1850:1859   */\n      dup4\n        /* \"#utility.yul\":1841:1848   */\n      dup6\n        /* \"#utility.yul\":1837:1860   */\n      sub\n        /* \"#utility.yul\":1833:1865   */\n      slt\n        /* \"#utility.yul\":1830:1949   */\n      iszero\n      tag_231\n      jumpi\n        /* \"#utility.yul\":1868:1947   */\n      tag_232\n      tag_217\n      jump\t// in\n    tag_232:\n        /* \"#utility.yul\":1830:1949   */\n    tag_231:\n        /* \"#utility.yul\":1988:1989   */\n      0x00\n        /* \"#utility.yul\":2013:2066   */\n      tag_233\n        /* \"#utility.yul\":2058:2065   */\n      dup6\n        /* \"#utility.yul\":2049:2055   */\n      dup3\n        /* \"#utility.yul\":2038:2047   */\n      dup7\n        /* \"#utility.yul\":2034:2056   */\n      add\n        /* \"#utility.yul\":2013:2066   */\n      tag_206\n      jump\t// in\n    tag_233:\n        /* \"#utility.yul\":2003:2066   */\n      swap3\n      pop\n        /* \"#utility.yul\":1959:2076   */\n      pop\n        /* \"#utility.yul\":2115:2117   */\n      0x20\n        /* \"#utility.yul\":2141:2194   */\n      tag_234\n        /* \"#utility.yul\":2186:2193   */\n      dup6\n        /* \"#utility.yul\":2177:2183   */\n      dup3\n        /* \"#utility.yul\":2166:2175   */\n      dup7\n        /* \"#utility.yul\":2162:2184   */\n      add\n        /* \"#utility.yul\":2141:2194   */\n      tag_210\n      jump\t// in\n    tag_234:\n        /* \"#utility.yul\":2131:2194   */\n      swap2\n      pop\n        /* \"#utility.yul\":2086:2204   */\n      pop\n        /* \"#utility.yul\":1737:2211   */\n      swap3\n      pop\n      swap3\n      swap1\n      pop\n      jump\t// out\n        /* \"#utility.yul\":2217:2546   */\n    tag_52:\n        /* \"#utility.yul\":2276:2282   */\n      0x00\n        /* \"#utility.yul\":2325:2327   */\n      0x20\n        /* \"#utility.yul\":2313:2322   */\n      dup3\n        /* \"#utility.yul\":2304:2311   */\n      dup5\n        /* \"#utility.yul\":2300:2323   */\n      sub\n        /* \"#utility.yul\":2296:2328   */\n      slt\n        /* \"#utility.yul\":2293:2412   */\n      iszero\n      tag_236\n      jumpi\n        /* \"#utility.yul\":2331:2410   */\n      tag_237\n      tag_217\n      jump\t// in\n    tag_237:\n        /* \"#utility.yul\":2293:2412   */\n    tag_236:\n        /* \"#utility.yul\":2451:2452   */\n      0x00\n        /* \"#utility.yul\":2476:2529   */\n      tag_238\n        /* \"#utility.yul\":2521:2528   */\n      dup5\n        /* \"#utility.yul\":2512:2518   */\n      dup3\n        /* \"#utility.yul\":2501:2510   */\n      dup6\n        /* \"#utility.yul\":2497:2519   */\n      add\n        /* \"#utility.yul\":2476:2529   */\n      tag_210\n      jump\t// in\n    tag_238:\n        /* \"#utility.yul\":2466:2529   */\n      swap2\n      pop\n        /* \"#utility.yul\":2422:2539   */\n      pop\n        /* \"#utility.yul\":2217:2546   */\n      swap3\n      swap2\n      pop\n      pop\n      jump\t// out\n        /* \"#utility.yul\":2552:2661   */\n    tag_239:\n        /* \"#utility.yul\":2633:2654   */\n      tag_241\n        /* \"#utility.yul\":2648:2653   */\n      dup2\n        /* \"#utility.yul\":2633:2654   */\n      tag_242\n      jump\t// in\n    tag_241:\n        /* \"#utility.yul\":2628:2631   */\n      dup3\n        /* \"#utility.yul\":2621:2655   */\n      mstore\n        /* \"#utility.yul\":2552:2661   */\n      pop\n      pop\n      jump\t// out\n        /* \"#utility.yul\":2667:3031   */\n    tag_243:\n        /* \"#utility.yul\":2755:2758   */\n      0x00\n        /* \"#utility.yul\":2783:2822   */\n      tag_245\n        /* \"#utility.yul\":2816:2821   */\n      dup3\n        /* \"#utility.yul\":2783:2822   */\n      tag_246\n      jump\t// in\n    tag_245:\n        /* \"#utility.yul\":2838:2909   */\n      tag_247\n        /* \"#utility.yul\":2902:2908   */\n      dup2\n        /* \"#utility.yul\":2897:2900   */\n      dup6\n        /* \"#utility.yul\":2838:2909   */\n      tag_248\n      jump\t// in\n    tag_247:\n        /* \"#utility.yul\":2831:2909   */\n      swap4\n      pop\n        /* \"#utility.yul\":2918:2970   */\n      tag_249\n        /* \"#utility.yul\":2963:2969   */\n      dup2\n        /* \"#utility.yul\":2958:2961   */\n      dup6\n        /* \"#utility.yul\":2951:2955   */\n      0x20\n        /* \"#utility.yul\":2944:2949   */\n      dup7\n        /* \"#utility.yul\":2940:2956   */\n      add\n        /* \"#utility.yul\":2918:2970   */\n      tag_250\n      jump\t// in\n    tag_249:\n        /* \"#utility.yul\":2995:3024   */\n      tag_251\n        /* \"#utility.yul\":3017:3023   */\n      dup2\n        /* \"#utility.yul\":2995:3024   */\n      tag_252\n      jump\t// in\n    tag_251:\n        /* \"#utility.yul\":2990:2993   */\n      dup5\n        /* \"#utility.yul\":2986:3025   */\n      add\n        /* \"#utility.yul\":2979:3025   */\n      swap2\n      pop\n        /* \"#utility.yul\":2759:3031   */\n      pop\n        /* \"#utility.yul\":2667:3031   */\n      swap3\n      swap2\n      pop\n      pop\n      jump\t// out\n        /* \"#utility.yul\":3037:3403   */\n    tag_253:\n        /* \"#utility.yul\":3179:3182   */\n      0x00\n        /* \"#utility.yul\":3200:3267   */\n      tag_255\n        /* \"#utility.yul\":3264:3266   */\n      0x23\n        /* \"#utility.yul\":3259:3262   */\n      dup4\n        /* \"#utility.yul\":3200:3267   */\n      tag_248\n      jump\t// in\n    tag_255:\n        /* \"#utility.yul\":3193:3267   */\n      swap2\n      pop\n        /* \"#utility.yul\":3276:3369   */\n      tag_256\n        /* \"#utility.yul\":3365:3368   */\n      dup3\n        /* \"#utility.yul\":3276:3369   */\n      tag_257\n      jump\t// in\n    tag_256:\n        /* \"#utility.yul\":3394:3396   */\n      0x40\n        /* \"#utility.yul\":3389:3392   */\n      dup3\n        /* \"#utility.yul\":3385:3397   */\n      add\n        /* \"#utility.yul\":3378:3397   */\n      swap1\n      pop\n        /* \"#utility.yul\":3037:3403   */\n      swap2\n      swap1\n      pop\n      jump\t// out\n        /* \"#utility.yul\":3409:3775   */\n    tag_258:\n        /* \"#utility.yul\":3551:3554   */\n      0x00\n        /* \"#utility.yul\":3572:3639   */\n      tag_260\n        /* \"#utility.yul\":3636:3638   */\n      0x22\n        /* \"#utility.yul\":3631:3634   */\n      dup4\n        /* \"#utility.yul\":3572:3639   */\n      tag_248\n      jump\t// in\n    tag_260:\n        /* \"#utility.yul\":3565:3639   */\n      swap2\n      pop\n        /* \"#utility.yul\":3648:3741   */\n      tag_261\n        /* \"#utility.yul\":3737:3740   */\n      dup3\n        /* \"#utility.yul\":3648:3741   */\n      tag_262\n      jump\t// in\n    tag_261:\n        /* \"#utility.yul\":3766:3768   */\n      0x40\n        /* \"#utility.yul\":3761:3764   */\n      dup3\n        /* \"#utility.yul\":3757:3769   */\n      add\n        /* \"#utility.yul\":3750:3769   */\n      swap1\n      pop\n        /* \"#utility.yul\":3409:3775   */\n      swap2\n      swap1\n      pop\n      jump\t// out\n        /* \"#utility.yul\":3781:4147   */\n    tag_263:\n        /* \"#utility.yul\":3923:3926   */\n      0x00\n        /* \"#utility.yul\":3944:4011   */\n      tag_265\n        /* \"#utility.yul\":4008:4010   */\n      0x22\n        /* \"#utility.yul\":4003:4006   */\n      dup4\n        /* \"#utility.yul\":3944:4011   */\n      tag_248\n      jump\t// in\n    tag_265:\n        /* \"#utility.yul\":3937:4011   */\n      swap2\n      pop\n        /* \"#utility.yul\":4020:4113   */\n      tag_266\n        /* \"#utility.yul\":4109:4112   */\n      dup3\n        /* \"#utility.yul\":4020:4113   */\n      tag_267\n      jump\t// in\n    tag_266:\n        /* \"#utility.yul\":4138:4140   */\n      0x40\n        /* \"#utility.yul\":4133:4136   */\n      dup3\n        /* \"#utility.yul\":4129:4141   */\n      add\n        /* \"#utility.yul\":4122:4141   */\n      swap1\n      pop\n        /* \"#utility.yul\":3781:4147   */\n      swap2\n      swap1\n      pop\n      jump\t// out\n        /* \"#utility.yul\":4153:4519   */\n    tag_268:\n        /* \"#utility.yul\":4295:4298   */\n      0x00\n        /* \"#utility.yul\":4316:4383   */\n      tag_270\n        /* \"#utility.yul\":4380:4382   */\n      0x26\n        /* \"#utility.yul\":4375:4378   */\n      dup4\n        /* \"#utility.yul\":4316:4383   */\n      tag_248\n      jump\t// in\n    tag_270:\n        /* \"#utility.yul\":4309:4383   */\n      swap2\n      pop\n        /* \"#utility.yul\":4392:4485   */\n      tag_271\n        /* \"#utility.yul\":4481:4484   */\n      dup3\n        /* \"#utility.yul\":4392:4485   */\n      tag_272\n      jump\t// in\n    tag_271:\n        /* \"#utility.yul\":4510:4512   */\n      0x40\n        /* \"#utility.yul\":4505:4508   */\n      dup3\n        /* \"#utility.yul\":4501:4513   */\n      add\n        /* \"#utility.yul\":4494:4513   */\n      swap1\n      pop\n        /* \"#utility.yul\":4153:4519   */\n      swap2\n      swap1\n      pop\n      jump\t// out\n        /* \"#utility.yul\":4525:4891   */\n    tag_273:\n        /* \"#utility.yul\":4667:4670   */\n      0x00\n        /* \"#utility.yul\":4688:4755   */\n      tag_275\n        /* \"#utility.yul\":4752:4754   */\n      0x28\n        /* \"#utility.yul\":4747:4750   */\n      dup4\n        /* \"#utility.yul\":4688:4755   */\n      tag_248\n      jump\t// in\n    tag_275:\n        /* \"#utility.yul\":4681:4755   */\n      swap2\n      pop\n        /* \"#utility.yul\":4764:4857   */\n      tag_276\n        /* \"#utility.yul\":4853:4856   */\n      dup3\n        /* \"#utility.yul\":4764:4857   */\n      tag_277\n      jump\t// in\n    tag_276:\n        /* \"#utility.yul\":4882:4884   */\n      0x40\n        /* \"#utility.yul\":4877:4880   */\n      dup3\n        /* \"#utility.yul\":4873:4885   */\n      add\n        /* \"#utility.yul\":4866:4885   */\n      swap1\n      pop\n        /* \"#utility.yul\":4525:4891   */\n      swap2\n      swap1\n      pop\n      jump\t// out\n        /* \"#utility.yul\":4897:5263   */\n    tag_278:\n        /* \"#utility.yul\":5039:5042   */\n      0x00\n        /* \"#utility.yul\":5060:5127   */\n      tag_280\n        /* \"#utility.yul\":5124:5126   */\n      0x24\n        /* \"#utility.yul\":5119:5122   */\n      dup4\n        /* \"#utility.yul\":5060:5127   */\n      tag_248\n      jump\t// in\n    tag_280:\n        /* \"#utility.yul\":5053:5127   */\n      swap2\n      pop\n        /* \"#utility.yul\":5136:5229   */\n      tag_281\n        /* \"#utility.yul\":5225:5228   */\n      dup3\n        /* \"#utility.yul\":5136:5229   */\n      tag_282\n      jump\t// in\n    tag_281:\n        /* \"#utility.yul\":5254:5256   */\n      0x40\n        /* \"#utility.yul\":5249:5252   */\n      dup3\n        /* \"#utility.yul\":5245:5257   */\n      add\n        /* \"#utility.yul\":5238:5257   */\n      swap1\n      pop\n        /* \"#utility.yul\":4897:5263   */\n      swap2\n      swap1\n      pop\n      jump\t// out\n        /* \"#utility.yul\":5269:5635   */\n    tag_283:\n        /* \"#utility.yul\":5411:5414   */\n      0x00\n        /* \"#utility.yul\":5432:5499   */\n      tag_285\n        /* \"#utility.yul\":5496:5498   */\n      0x21\n        /* \"#utility.yul\":5491:5494   */\n      dup4\n        /* \"#utility.yul\":5432:5499   */\n      tag_248\n      jump\t// in\n    tag_285:\n        /* \"#utility.yul\":5425:5499   */\n      swap2\n      pop\n        /* \"#utility.yul\":5508:5601   */\n      tag_286\n        /* \"#utility.yul\":5597:5600   */\n      dup3\n        /* \"#utility.yul\":5508:5601   */\n      tag_287\n      jump\t// in\n    tag_286:\n        /* \"#utility.yul\":5626:5628   */\n      0x40\n        /* \"#utility.yul\":5621:5624   */\n      dup3\n        /* \"#utility.yul\":5617:5629   */\n      add\n        /* \"#utility.yul\":5610:5629   */\n      swap1\n      pop\n        /* \"#utility.yul\":5269:5635   */\n      swap2\n      swap1\n      pop\n      jump\t// out\n        /* \"#utility.yul\":5641:6007   */\n    tag_288:\n        /* \"#utility.yul\":5783:5786   */\n      0x00\n        /* \"#utility.yul\":5804:5871   */\n      tag_290\n        /* \"#utility.yul\":5868:5870   */\n      0x25\n        /* \"#utility.yul\":5863:5866   */\n      dup4\n        /* \"#utility.yul\":5804:5871   */\n      tag_248\n      jump\t// in\n    tag_290:\n        /* \"#utility.yul\":5797:5871   */\n      swap2\n      pop\n        /* \"#utility.yul\":5880:5973   */\n      tag_291\n        /* \"#utility.yul\":5969:5972   */\n      dup3\n        /* \"#utility.yul\":5880:5973   */\n      tag_292\n      jump\t// in\n    tag_291:\n        /* \"#utility.yul\":5998:6000   */\n      0x40\n        /* \"#utility.yul\":5993:5996   */\n      dup3\n        /* \"#utility.yul\":5989:6001   */\n      add\n        /* \"#utility.yul\":5982:6001   */\n      swap1\n      pop\n        /* \"#utility.yul\":5641:6007   */\n      swap2\n      swap1\n      pop\n      jump\t// out\n        /* \"#utility.yul\":6013:6379   */\n    tag_293:\n        /* \"#utility.yul\":6155:6158   */\n      0x00\n        /* \"#utility.yul\":6176:6243   */\n      tag_295\n        /* \"#utility.yul\":6240:6242   */\n      0x24\n        /* \"#utility.yul\":6235:6238   */\n      dup4\n        /* \"#utility.yul\":6176:6243   */\n      tag_248\n      jump\t// in\n    tag_295:\n        /* \"#utility.yul\":6169:6243   */\n      swap2\n      pop\n        /* \"#utility.yul\":6252:6345   */\n      tag_296\n        /* \"#utility.yul\":6341:6344   */\n      dup3\n        /* \"#utility.yul\":6252:6345   */\n      tag_297\n      jump\t// in\n    tag_296:\n        /* \"#utility.yul\":6370:6372   */\n      0x40\n        /* \"#utility.yul\":6365:6368   */\n      dup3\n        /* \"#utility.yul\":6361:6373   */\n      add\n        /* \"#utility.yul\":6354:6373   */\n      swap1\n      pop\n        /* \"#utility.yul\":6013:6379   */\n      swap2\n      swap1\n      pop\n      jump\t// out\n        /* \"#utility.yul\":6385:6751   */\n    tag_298:\n        /* \"#utility.yul\":6527:6530   */\n      0x00\n        /* \"#utility.yul\":6548:6615   */\n      tag_300\n        /* \"#utility.yul\":6612:6614   */\n      0x33\n        /* \"#utility.yul\":6607:6610   */\n      dup4\n        /* \"#utility.yul\":6548:6615   */\n      tag_248\n      jump\t// in\n    tag_300:\n        /* \"#utility.yul\":6541:6615   */\n      swap2\n      pop\n        /* \"#utility.yul\":6624:6717   */\n      tag_301\n        /* \"#utility.yul\":6713:6716   */\n      dup3\n        /* \"#utility.yul\":6624:6717   */\n      tag_302\n      jump\t// in\n    tag_301:\n        /* \"#utility.yul\":6742:6744   */\n      0x40\n        /* \"#utility.yul\":6737:6740   */\n      dup3\n        /* \"#utility.yul\":6733:6745   */\n      add\n        /* \"#utility.yul\":6726:6745   */\n      swap1\n      pop\n        /* \"#utility.yul\":6385:6751   */\n      swap2\n      swap1\n      pop\n      jump\t// out\n        /* \"#utility.yul\":6757:7123   */\n    tag_303:\n        /* \"#utility.yul\":6899:6902   */\n      0x00\n        /* \"#utility.yul\":6920:6987   */\n      tag_305\n        /* \"#utility.yul\":6984:6986   */\n      0x25\n        /* \"#utility.yul\":6979:6982   */\n      dup4\n        /* \"#utility.yul\":6920:6987   */\n      tag_248\n      jump\t// in\n    tag_305:\n        /* \"#utility.yul\":6913:6987   */\n      swap2\n      pop\n        /* \"#utility.yul\":6996:7089   */\n      tag_306\n        /* \"#utility.yul\":7085:7088   */\n      dup3\n        /* \"#utility.yul\":6996:7089   */\n      tag_307\n      jump\t// in\n    tag_306:\n        /* \"#utility.yul\":7114:7116   */\n      0x40\n        /* \"#utility.yul\":7109:7112   */\n      dup3\n        /* \"#utility.yul\":7105:7117   */\n      add\n        /* \"#utility.yul\":7098:7117   */\n      swap1\n      pop\n        /* \"#utility.yul\":6757:7123   */\n      swap2\n      swap1\n      pop\n      jump\t// out\n        /* \"#utility.yul\":7129:7495   */\n    tag_308:\n        /* \"#utility.yul\":7271:7274   */\n      0x00\n        /* \"#utility.yul\":7292:7359   */\n      tag_310\n        /* \"#utility.yul\":7356:7358   */\n      0x1f\n        /* \"#utility.yul\":7351:7354   */\n      dup4\n        /* \"#utility.yul\":7292:7359   */\n      tag_248\n      jump\t// in\n    tag_310:\n        /* \"#utility.yul\":7285:7359   */\n      swap2\n      pop\n        /* \"#utility.yul\":7368:7461   */\n      tag_311\n        /* \"#utility.yul\":7457:7460   */\n      dup3\n        /* \"#utility.yul\":7368:7461   */\n      tag_312\n      jump\t// in\n    tag_311:\n        /* \"#utility.yul\":7486:7488   */\n      0x20\n        /* \"#utility.yul\":7481:7484   */\n      dup3\n        /* \"#utility.yul\":7477:7489   */\n      add\n        /* \"#utility.yul\":7470:7489   */\n      swap1\n      pop\n        /* \"#utility.yul\":7129:7495   */\n      swap2\n      swap1\n      pop\n      jump\t// out\n        /* \"#utility.yul\":7501:7619   */\n    tag_313:\n        /* \"#utility.yul\":7588:7612   */\n      tag_315\n        /* \"#utility.yul\":7606:7611   */\n      dup2\n        /* \"#utility.yul\":7588:7612   */\n      tag_316\n      jump\t// in\n    tag_315:\n        /* \"#utility.yul\":7583:7586   */\n      dup3\n        /* \"#utility.yul\":7576:7613   */\n      mstore\n        /* \"#utility.yul\":7501:7619   */\n      pop\n      pop\n      jump\t// out\n        /* \"#utility.yul\":7625:7737   */\n    tag_317:\n        /* \"#utility.yul\":7708:7730   */\n      tag_319\n        /* \"#utility.yul\":7724:7729   */\n      dup2\n        /* \"#utility.yul\":7708:7730   */\n      tag_320\n      jump\t// in\n    tag_319:\n        /* \"#utility.yul\":7703:7706   */\n      dup3\n        /* \"#utility.yul\":7696:7731   */\n      mstore\n        /* \"#utility.yul\":7625:7737   */\n      pop\n      pop\n      jump\t// out\n        /* \"#utility.yul\":7743:7953   */\n    tag_29:\n        /* \"#utility.yul\":7830:7834   */\n      0x00\n        /* \"#utility.yul\":7868:7870   */\n      0x20\n        /* \"#utility.yul\":7857:7866   */\n      dup3\n        /* \"#utility.yul\":7853:7871   */\n      add\n        /* \"#utility.yul\":7845:7871   */\n      swap1\n      pop\n        /* \"#utility.yul\":7881:7946   */\n      tag_322\n        /* \"#utility.yul\":7943:7944   */\n      0x00\n        /* \"#utility.yul\":7932:7941   */\n      dup4\n        /* \"#utility.yul\":7928:7945   */\n      add\n        /* \"#utility.yul\":7919:7925   */\n      dup5\n        /* \"#utility.yul\":7881:7946   */\n      tag_239\n      jump\t// in\n    tag_322:\n        /* \"#utility.yul\":7743:7953   */\n      swap3\n      swap2\n      pop\n      pop\n      jump\t// out\n        /* \"#utility.yul\":7959:8272   */\n    tag_23:\n        /* \"#utility.yul\":8072:8076   */\n      0x00\n        /* \"#utility.yul\":8110:8112   */\n      0x20\n        /* \"#utility.yul\":8099:8108   */\n      dup3\n        /* \"#utility.yul\":8095:8113   */\n      add\n        /* \"#utility.yul\":8087:8113   */\n      swap1\n      pop\n        /* \"#utility.yul\":8159:8168   */\n      dup2\n        /* \"#utility.yul\":8153:8157   */\n      dup2\n        /* \"#utility.yul\":8149:8169   */\n      sub\n        /* \"#utility.yul\":8145:8146   */\n      0x00\n        /* \"#utility.yul\":8134:8143   */\n      dup4\n        /* \"#utility.yul\":8130:8147   */\n      add\n        /* \"#utility.yul\":8123:8170   */\n      mstore\n        /* \"#utility.yul\":8187:8265   */\n      tag_324\n        /* \"#utility.yul\":8260:8264   */\n      dup2\n        /* \"#utility.yul\":8251:8257   */\n      dup5\n        /* \"#utility.yul\":8187:8265   */\n      tag_243\n      jump\t// in\n    tag_324:\n        /* \"#utility.yul\":8179:8265   */\n      swap1\n      pop\n        /* \"#utility.yul\":7959:8272   */\n      swap3\n      swap2\n      pop\n      pop\n      jump\t// out\n        /* \"#utility.yul\":8278:8697   */\n    tag_162:\n        /* \"#utility.yul\":8444:8448   */\n      0x00\n        /* \"#utility.yul\":8482:8484   */\n      0x20\n        /* \"#utility.yul\":8471:8480   */\n      dup3\n        /* \"#utility.yul\":8467:8485   */\n      add\n        /* \"#utility.yul\":8459:8485   */\n      swap1\n      pop\n        /* \"#utility.yul\":8531:8540   */\n      dup2\n        /* \"#utility.yul\":8525:8529   */\n      dup2\n        /* \"#utility.yul\":8521:8541   */\n      sub\n        /* \"#utility.yul\":8517:8518   */\n      0x00\n        /* \"#utility.yul\":8506:8515   */\n      dup4\n        /* \"#utility.yul\":8502:8519   */\n      add\n        /* \"#utility.yul\":8495:8542   */\n      mstore\n        /* \"#utility.yul\":8559:8690   */\n      tag_326\n        /* \"#utility.yul\":8685:8689   */\n      dup2\n        /* \"#utility.yul\":8559:8690   */\n      tag_253\n      jump\t// in\n    tag_326:\n        /* \"#utility.yul\":8551:8690   */\n      swap1\n      pop\n        /* \"#utility.yul\":8278:8697   */\n      swap2\n      swap1\n      pop\n      jump\t// out\n        /* \"#utility.yul\":8703:9122   */\n    tag_201:\n        /* \"#utility.yul\":8869:8873   */\n      0x00\n        /* \"#utility.yul\":8907:8909   */\n      0x20\n        /* \"#utility.yul\":8896:8905   */\n      dup3\n        /* \"#utility.yul\":8892:8910   */\n      add\n        /* \"#utility.yul\":8884:8910   */\n      swap1\n      pop\n        /* \"#utility.yul\":8956:8965   */\n      dup2\n        /* \"#utility.yul\":8950:8954   */\n      dup2\n        /* \"#utility.yul\":8946:8966   */\n      sub\n        /* \"#utility.yul\":8942:8943   */\n      0x00\n        /* \"#utility.yul\":8931:8940   */\n      dup4\n        /* \"#utility.yul\":8927:8944   */\n      add\n        /* \"#utility.yul\":8920:8967   */\n      mstore\n        /* \"#utility.yul\":8984:9115   */\n      tag_328\n        /* \"#utility.yul\":9110:9114   */\n      dup2\n        /* \"#utility.yul\":8984:9115   */\n      tag_258\n      jump\t// in\n    tag_328:\n        /* \"#utility.yul\":8976:9115   */\n      swap1\n      pop\n        /* \"#utility.yul\":8703:9122   */\n      swap2\n      swap1\n      pop\n      jump\t// out\n        /* \"#utility.yul\":9128:9547   */\n    tag_154:\n        /* \"#utility.yul\":9294:9298   */\n      0x00\n        /* \"#utility.yul\":9332:9334   */\n      0x20\n        /* \"#utility.yul\":9321:9330   */\n      dup3\n        /* \"#utility.yul\":9317:9335   */\n      add\n        /* \"#utility.yul\":9309:9335   */\n      swap1\n      pop\n        /* \"#utility.yul\":9381:9390   */\n      dup2\n        /* \"#utility.yul\":9375:9379   */\n      dup2\n        /* \"#utility.yul\":9371:9391   */\n      sub\n        /* \"#utility.yul\":9367:9368   */\n      0x00\n        /* \"#utility.yul\":9356:9365   */\n      dup4\n        /* \"#utility.yul\":9352:9369   */\n      add\n        /* \"#utility.yul\":9345:9392   */\n      mstore\n        /* \"#utility.yul\":9409:9540   */\n      tag_330\n        /* \"#utility.yul\":9535:9539   */\n      dup2\n        /* \"#utility.yul\":9409:9540   */\n      tag_263\n      jump\t// in\n    tag_330:\n        /* \"#utility.yul\":9401:9540   */\n      swap1\n      pop\n        /* \"#utility.yul\":9128:9547   */\n      swap2\n      swap1\n      pop\n      jump\t// out\n        /* \"#utility.yul\":9553:9972   */\n    tag_167:\n        /* \"#utility.yul\":9719:9723   */\n      0x00\n        /* \"#utility.yul\":9757:9759   */\n      0x20\n        /* \"#utility.yul\":9746:9755   */\n      dup3\n        /* \"#utility.yul\":9742:9760   */\n      add\n        /* \"#utility.yul\":9734:9760   */\n      swap1\n      pop\n        /* \"#utility.yul\":9806:9815   */\n      dup2\n        /* \"#utility.yul\":9800:9804   */\n      dup2\n        /* \"#utility.yul\":9796:9816   */\n      sub\n        /* \"#utility.yul\":9792:9793   */\n      0x00\n        /* \"#utility.yul\":9781:9790   */\n      dup4\n        /* \"#utility.yul\":9777:9794   */\n      add\n        /* \"#utility.yul\":9770:9817   */\n      mstore\n        /* \"#utility.yul\":9834:9965   */\n      tag_332\n        /* \"#utility.yul\":9960:9964   */\n      dup2\n        /* \"#utility.yul\":9834:9965   */\n      tag_268\n      jump\t// in\n    tag_332:\n        /* \"#utility.yul\":9826:9965   */\n      swap1\n      pop\n        /* \"#utility.yul\":9553:9972   */\n      swap2\n      swap1\n      pop\n      jump\t// out\n        /* \"#utility.yul\":9978:10397   */\n    tag_97:\n        /* \"#utility.yul\":10144:10148   */\n      0x00\n        /* \"#utility.yul\":10182:10184   */\n      0x20\n        /* \"#utility.yul\":10171:10180   */\n      dup3\n        /* \"#utility.yul\":10167:10185   */\n      add\n        /* \"#utility.yul\":10159:10185   */\n      swap1\n      pop\n        /* \"#utility.yul\":10231:10240   */\n      dup2\n        /* \"#utility.yul\":10225:10229   */\n      dup2\n        /* \"#utility.yul\":10221:10241   */\n      sub\n        /* \"#utility.yul\":10217:10218   */\n      0x00\n        /* \"#utility.yul\":10206:10215   */\n      dup4\n        /* \"#utility.yul\":10202:10219   */\n      add\n        /* \"#utility.yul\":10195:10242   */\n      mstore\n        /* \"#utility.yul\":10259:10390   */\n      tag_334\n        /* \"#utility.yul\":10385:10389   */\n      dup2\n        /* \"#utility.yul\":10259:10390   */\n      tag_273\n      jump\t// in\n    tag_334:\n        /* \"#utility.yul\":10251:10390   */\n      swap1\n      pop\n        /* \"#utility.yul\":9978:10397   */\n      swap2\n      swap1\n      pop\n      jump\t// out\n        /* \"#utility.yul\":10403:10822   */\n    tag_188:\n        /* \"#utility.yul\":10569:10573   */\n      0x00\n        /* \"#utility.yul\":10607:10609   */\n      0x20\n        /* \"#utility.yul\":10596:10605   */\n      dup3\n        /* \"#utility.yul\":10592:10610   */\n      add\n        /* \"#utility.yul\":10584:10610   */\n      swap1\n      pop\n        /* \"#utility.yul\":10656:10665   */\n      dup2\n        /* \"#utility.yul\":10650:10654   */\n      dup2\n        /* \"#utility.yul\":10646:10666   */\n      sub\n        /* \"#utility.yul\":10642:10643   */\n      0x00\n        /* \"#utility.yul\":10631:10640   */\n      dup4\n        /* \"#utility.yul\":10627:10644   */\n      add\n        /* \"#utility.yul\":10620:10667   */\n      mstore\n        /* \"#utility.yul\":10684:10815   */\n      tag_336\n        /* \"#utility.yul\":10810:10814   */\n      dup2\n        /* \"#utility.yul\":10684:10815   */\n      tag_278\n      jump\t// in\n    tag_336:\n        /* \"#utility.yul\":10676:10815   */\n      swap1\n      pop\n        /* \"#utility.yul\":10403:10822   */\n      swap2\n      swap1\n      pop\n      jump\t// out\n        /* \"#utility.yul\":10828:11247   */\n    tag_197:\n        /* \"#utility.yul\":10994:10998   */\n      0x00\n        /* \"#utility.yul\":11032:11034   */\n      0x20\n        /* \"#utility.yul\":11021:11030   */\n      dup3\n        /* \"#utility.yul\":11017:11035   */\n      add\n        /* \"#utility.yul\":11009:11035   */\n      swap1\n      pop\n        /* \"#utility.yul\":11081:11090   */\n      dup2\n        /* \"#utility.yul\":11075:11079   */\n      dup2\n        /* \"#utility.yul\":11071:11091   */\n      sub\n        /* \"#utility.yul\":11067:11068   */\n      0x00\n        /* \"#utility.yul\":11056:11065   */\n      dup4\n        /* \"#utility.yul\":11052:11069   */\n      add\n        /* \"#utility.yul\":11045:11092   */\n      mstore\n        /* \"#utility.yul\":11109:11240   */\n      tag_338\n        /* \"#utility.yul\":11235:11239   */\n      dup2\n        /* \"#utility.yul\":11109:11240   */\n      tag_283\n      jump\t// in\n    tag_338:\n        /* \"#utility.yul\":11101:11240   */\n      swap1\n      pop\n        /* \"#utility.yul\":10828:11247   */\n      swap2\n      swap1\n      pop\n      jump\t// out\n        /* \"#utility.yul\":11253:11672   */\n    tag_159:\n        /* \"#utility.yul\":11419:11423   */\n      0x00\n        /* \"#utility.yul\":11457:11459   */\n      0x20\n        /* \"#utility.yul\":11446:11455   */\n      dup3\n        /* \"#utility.yul\":11442:11460   */\n      add\n        /* \"#utility.yul\":11434:11460   */\n      swap1\n      pop\n        /* \"#utility.yul\":11506:11515   */\n      dup2\n        /* \"#utility.yul\":11500:11504   */\n      dup2\n        /* \"#utility.yul\":11496:11516   */\n      sub\n        /* \"#utility.yul\":11492:11493   */\n      0x00\n        /* \"#utility.yul\":11481:11490   */\n      dup4\n        /* \"#utility.yul\":11477:11494   */\n      add\n        /* \"#utility.yul\":11470:11517   */\n      mstore\n        /* \"#utility.yul\":11534:11665   */\n      tag_340\n        /* \"#utility.yul\":11660:11664   */\n      dup2\n        /* \"#utility.yul\":11534:11665   */\n      tag_288\n      jump\t// in\n    tag_340:\n        /* \"#utility.yul\":11526:11665   */\n      swap1\n      pop\n        /* \"#utility.yul\":11253:11672   */\n      swap2\n      swap1\n      pop\n      jump\t// out\n        /* \"#utility.yul\":11678:12097   */\n    tag_151:\n        /* \"#utility.yul\":11844:11848   */\n      0x00\n        /* \"#utility.yul\":11882:11884   */\n      0x20\n        /* \"#utility.yul\":11871:11880   */\n      dup3\n        /* \"#utility.yul\":11867:11885   */\n      add\n        /* \"#utility.yul\":11859:11885   */\n      swap1\n      pop\n        /* \"#utility.yul\":11931:11940   */\n      dup2\n        /* \"#utility.yul\":11925:11929   */\n      dup2\n        /* \"#utility.yul\":11921:11941   */\n      sub\n        /* \"#utility.yul\":11917:11918   */\n      0x00\n        /* \"#utility.yul\":11906:11915   */\n      dup4\n        /* \"#utility.yul\":11902:11919   */\n      add\n        /* \"#utility.yul\":11895:11942   */\n      mstore\n        /* \"#utility.yul\":11959:12090   */\n      tag_342\n        /* \"#utility.yul\":12085:12089   */\n      dup2\n        /* \"#utility.yul\":11959:12090   */\n      tag_293\n      jump\t// in\n    tag_342:\n        /* \"#utility.yul\":11951:12090   */\n      swap1\n      pop\n        /* \"#utility.yul\":11678:12097   */\n      swap2\n      swap1\n      pop\n      jump\t// out\n        /* \"#utility.yul\":12103:12522   */\n    tag_112:\n        /* \"#utility.yul\":12269:12273   */\n      0x00\n        /* \"#utility.yul\":12307:12309   */\n      0x20\n        /* \"#utility.yul\":12296:12305   */\n      dup3\n        /* \"#utility.yul\":12292:12310   */\n      add\n        /* \"#utility.yul\":12284:12310   */\n      swap1\n      pop\n        /* \"#utility.yul\":12356:12365   */\n      dup2\n        /* \"#utility.yul\":12350:12354   */\n      dup2\n        /* \"#utility.yul\":12346:12366   */\n      sub\n        /* \"#utility.yul\":12342:12343   */\n      0x00\n        /* \"#utility.yul\":12331:12340   */\n      dup4\n        /* \"#utility.yul\":12327:12344   */\n      add\n        /* \"#utility.yul\":12320:12367   */\n      mstore\n        /* \"#utility.yul\":12384:12515   */\n      tag_344\n        /* \"#utility.yul\":12510:12514   */\n      dup2\n        /* \"#utility.yul\":12384:12515   */\n      tag_298\n      jump\t// in\n    tag_344:\n        /* \"#utility.yul\":12376:12515   */\n      swap1\n      pop\n        /* \"#utility.yul\":12103:12522   */\n      swap2\n      swap1\n      pop\n      jump\t// out\n        /* \"#utility.yul\":12528:12947   */\n    tag_139:\n        /* \"#utility.yul\":12694:12698   */\n      0x00\n        /* \"#utility.yul\":12732:12734   */\n      0x20\n        /* \"#utility.yul\":12721:12730   */\n      dup3\n        /* \"#utility.yul\":12717:12735   */\n      add\n        /* \"#utility.yul\":12709:12735   */\n      swap1\n      pop\n        /* \"#utility.yul\":12781:12790   */\n      dup2\n        /* \"#utility.yul\":12775:12779   */\n      dup2\n        /* \"#utility.yul\":12771:12791   */\n      sub\n        /* \"#utility.yul\":12767:12768   */\n      0x00\n        /* \"#utility.yul\":12756:12765   */\n      dup4\n        /* \"#utility.yul\":12752:12769   */\n      add\n        /* \"#utility.yul\":12745:12792   */\n      mstore\n        /* \"#utility.yul\":12809:12940   */\n      tag_346\n        /* \"#utility.yul\":12935:12939   */\n      dup2\n        /* \"#utility.yul\":12809:12940   */\n      tag_303\n      jump\t// in\n    tag_346:\n        /* \"#utility.yul\":12801:12940   */\n      swap1\n      pop\n        /* \"#utility.yul\":12528:12947   */\n      swap2\n      swap1\n      pop\n      jump\t// out\n        /* \"#utility.yul\":12953:13372   */\n    tag_174:\n        /* \"#utility.yul\":13119:13123   */\n      0x00\n        /* \"#utility.yul\":13157:13159   */\n      0x20\n        /* \"#utility.yul\":13146:13155   */\n      dup3\n        /* \"#utility.yul\":13142:13160   */\n      add\n        /* \"#utility.yul\":13134:13160   */\n      swap1\n      pop\n        /* \"#utility.yul\":13206:13215   */\n      dup2\n        /* \"#utility.yul\":13200:13204   */\n      dup2\n        /* \"#utility.yul\":13196:13216   */\n      sub\n        /* \"#utility.yul\":13192:13193   */\n      0x00\n        /* \"#utility.yul\":13181:13190   */\n      dup4\n        /* \"#utility.yul\":13177:13194   */\n      add\n        /* \"#utility.yul\":13170:13217   */\n      mstore\n        /* \"#utility.yul\":13234:13365   */\n      tag_348\n        /* \"#utility.yul\":13360:13364   */\n      dup2\n        /* \"#utility.yul\":13234:13365   */\n      tag_308\n      jump\t// in\n    tag_348:\n        /* \"#utility.yul\":13226:13365   */\n      swap1\n      pop\n        /* \"#utility.yul\":12953:13372   */\n      swap2\n      swap1\n      pop\n      jump\t// out\n        /* \"#utility.yul\":13378:13600   */\n    tag_33:\n        /* \"#utility.yul\":13471:13475   */\n      0x00\n        /* \"#utility.yul\":13509:13511   */\n      0x20\n        /* \"#utility.yul\":13498:13507   */\n      dup3\n        /* \"#utility.yul\":13494:13512   */\n      add\n        /* \"#utility.yul\":13486:13512   */\n      swap1\n      pop\n        /* \"#utility.yul\":13522:13593   */\n      tag_350\n        /* \"#utility.yul\":13590:13591   */\n      0x00\n        /* \"#utility.yul\":13579:13588   */\n      dup4\n        /* \"#utility.yul\":13575:13592   */\n      add\n        /* \"#utility.yul\":13566:13572   */\n      dup5\n        /* \"#utility.yul\":13522:13593   */\n      tag_313\n      jump\t// in\n    tag_350:\n        /* \"#utility.yul\":13378:13600   */\n      swap3\n      swap2\n      pop\n      pop\n      jump\t// out\n        /* \"#utility.yul\":13606:13820   */\n    tag_42:\n        /* \"#utility.yul\":13695:13699   */\n      0x00\n        /* \"#utility.yul\":13733:13735   */\n      0x20\n        /* \"#utility.yul\":13722:13731   */\n      dup3\n        /* \"#utility.yul\":13718:13736   */\n      add\n        /* \"#utility.yul\":13710:13736   */\n      swap1\n      pop\n        /* \"#utility.yul\":13746:13813   */\n      tag_352\n        /* \"#utility.yul\":13810:13811   */\n      0x00\n        /* \"#utility.yul\":13799:13808   */\n      dup4\n        /* \"#utility.yul\":13795:13812   */\n      add\n        /* \"#utility.yul\":13786:13792   */\n      dup5\n        /* \"#utility.yul\":13746:13813   */\n      tag_317\n      jump\t// in\n    tag_352:\n        /* \"#utility.yul\":13606:13820   */\n      swap3\n      swap2\n      pop\n      pop\n      jump\t// out\n        /* \"#utility.yul\":13907:14006   */\n    tag_246:\n        /* \"#utility.yul\":13959:13965   */\n      0x00\n        /* \"#utility.yul\":13993:13998   */\n      dup2\n        /* \"#utility.yul\":13987:13999   */\n      mload\n        /* \"#utility.yul\":13977:13999   */\n      swap1\n      pop\n        /* \"#utility.yul\":13907:14006   */\n      swap2\n      swap1\n      pop\n      jump\t// out\n        /* \"#utility.yul\":14012:14181   */\n    tag_248:\n        /* \"#utility.yul\":14096:14107   */\n      0x00\n        /* \"#utility.yul\":14130:14136   */\n      dup3\n        /* \"#utility.yul\":14125:14128   */\n      dup3\n        /* \"#utility.yul\":14118:14137   */\n      mstore\n        /* \"#utility.yul\":14170:14174   */\n      0x20\n        /* \"#utility.yul\":14165:14168   */\n      dup3\n        /* \"#utility.yul\":14161:14175   */\n      add\n        /* \"#utility.yul\":14146:14175   */\n      swap1\n      pop\n        /* \"#utility.yul\":14012:14181   */\n      swap3\n      swap2\n      pop\n      pop\n      jump\t// out\n        /* \"#utility.yul\":14187:14492   */\n    tag_108:\n        /* \"#utility.yul\":14227:14230   */\n      0x00\n        /* \"#utility.yul\":14246:14266   */\n      tag_358\n        /* \"#utility.yul\":14264:14265   */\n      dup3\n        /* \"#utility.yul\":14246:14266   */\n      tag_316\n      jump\t// in\n    tag_358:\n        /* \"#utility.yul\":14241:14266   */\n      swap2\n      pop\n        /* \"#utility.yul\":14280:14300   */\n      tag_359\n        /* \"#utility.yul\":14298:14299   */\n      dup4\n        /* \"#utility.yul\":14280:14300   */\n      tag_316\n      jump\t// in\n    tag_359:\n        /* \"#utility.yul\":14275:14300   */\n      swap3\n      pop\n        /* \"#utility.yul\":14434:14435   */\n      dup3\n        /* \"#utility.yul\":14366:14432   */\n      0xffffffffffffffffffffffffffffffffffffffffffffffffffffffffffffffff\n        /* \"#utility.yul\":14362:14436   */\n      sub\n        /* \"#utility.yul\":14359:14360   */\n      dup3\n        /* \"#utility.yul\":14356:14437   */\n      gt\n        /* \"#utility.yul\":14353:14460   */\n      iszero\n      tag_360\n      jumpi\n        /* \"#utility.yul\":14440:14458   */\n      tag_361\n      tag_362\n      jump\t// in\n    tag_361:\n        /* \"#utility.yul\":14353:14460   */\n    tag_360:\n        /* \"#utility.yul\":14484:14485   */\n      dup3\n        /* \"#utility.yul\":14481:14482   */\n      dup3\n        /* \"#utility.yul\":14477:14486   */\n      add\n        /* \"#utility.yul\":14470:14486   */\n      swap1\n      pop\n        /* \"#utility.yul\":14187:14492   */\n      swap3\n      swap2\n      pop\n      pop\n      jump\t// out\n        /* \"#utility.yul\":14498:14689   */\n    tag_101:\n        /* \"#utility.yul\":14538:14542   */\n      0x00\n        /* \"#utility.yul\":14558:14578   */\n      tag_364\n        /* \"#utility.yul\":14576:14577   */\n      dup3\n        /* \"#utility.yul\":14558:14578   */\n      tag_316\n      jump\t// in\n    tag_364:\n        /* \"#utility.yul\":14553:14578   */\n      swap2\n      pop\n        /* \"#utility.yul\":14592:14612   */\n      tag_365\n        /* \"#utility.yul\":14610:14611   */\n      dup4\n        /* \"#utility.yul\":14592:14612   */\n      tag_316\n      jump\t// in\n    tag_365:\n        /* \"#utility.yul\":14587:14612   */\n      swap3\n      pop\n        /* \"#utility.yul\":14631:14632   */\n      dup3\n        /* \"#utility.yul\":14628:14629   */\n      dup3\n        /* \"#utility.yul\":14625:14633   */\n      lt\n        /* \"#utility.yul\":14622:14656   */\n      iszero\n      tag_366\n      jumpi\n        /* \"#utility.yul\":14636:14654   */\n      tag_367\n      tag_362\n      jump\t// in\n    tag_367:\n        /* \"#utility.yul\":14622:14656   */\n    tag_366:\n        /* \"#utility.yul\":14681:14682   */\n      dup3\n        /* \"#utility.yul\":14678:14679   */\n      dup3\n        /* \"#utility.yul\":14674:14683   */\n      sub\n        /* \"#utility.yul\":14666:14683   */\n      swap1\n      pop\n        /* \"#utility.yul\":14498:14689   */\n      swap3\n      swap2\n      pop\n      pop\n      jump\t// out\n        /* \"#utility.yul\":14695:14791   */\n    tag_368:\n        /* \"#utility.yul\":14732:14739   */\n      0x00\n        /* \"#utility.yul\":14761:14785   */\n      tag_370\n        /* \"#utility.yul\":14779:14784   */\n      dup3\n        /* \"#utility.yul\":14761:14785   */\n      tag_371\n      jump\t// in\n    tag_370:\n        /* \"#utility.yul\":14750:14785   */\n      swap1\n      pop\n        /* \"#utility.yul\":14695:14791   */\n      swap2\n      swap1\n      pop\n      jump\t// out\n        /* \"#utility.yul\":14797:14887   */\n    tag_242:\n        /* \"#utility.yul\":14831:14838   */\n      0x00\n        /* \"#utility.yul\":14874:14879   */\n      dup2\n        /* \"#utility.yul\":14867:14880   */\n      iszero\n        /* \"#utility.yul\":14860:14881   */\n      iszero\n        /* \"#utility.yul\":14849:14881   */\n      swap1\n      pop\n        /* \"#utility.yul\":14797:14887   */\n      swap2\n      swap1\n      pop\n      jump\t// out\n        /* \"#utility.yul\":14893:15019   */\n    tag_371:\n        /* \"#utility.yul\":14930:14937   */\n      0x00\n        /* \"#utility.yul\":14970:15012   */\n      0xffffffffffffffffffffffffffffffffffffffff\n        /* \"#utility.yul\":14963:14968   */\n      dup3\n        /* \"#utility.yul\":14959:15013   */\n      and\n        /* \"#utility.yul\":14948:15013   */\n      swap1\n      pop\n        /* \"#utility.yul\":14893:15019   */\n      swap2\n      swap1\n      pop\n      jump\t// out\n        /* \"#utility.yul\":15025:15102   */\n    tag_316:\n        /* \"#utility.yul\":15062:15069   */\n      0x00\n        /* \"#utility.yul\":15091:15096   */\n      dup2\n        /* \"#utility.yul\":15080:15096   */\n      swap1\n      pop\n        /* \"#utility.yul\":15025:15102   */\n      swap2\n      swap1\n      pop\n      jump\t// out\n        /* \"#utility.yul\":15108:15194   */\n    tag_320:\n        /* \"#utility.yul\":15143:15150   */\n      0x00\n        /* \"#utility.yul\":15183:15187   */\n      0xff\n        /* \"#utility.yul\":15176:15181   */\n      dup3\n        /* \"#utility.yul\":15172:15188   */\n      and\n        /* \"#utility.yul\":15161:15188   */\n      swap1\n      pop\n        /* \"#utility.yul\":15108:15194   */\n      swap2\n      swap1\n      pop\n      jump\t// out\n        /* \"#utility.yul\":15200:15507   */\n    tag_250:\n        /* \"#utility.yul\":15268:15269   */\n      0x00\n        /* \"#utility.yul\":15278:15391   */\n    tag_377:\n        /* \"#utility.yul\":15292:15298   */\n      dup4\n        /* \"#utility.yul\":15289:15290   */\n      dup2\n        /* \"#utility.yul\":15286:15299   */\n      lt\n        /* \"#utility.yul\":15278:15391   */\n      iszero\n      tag_379\n      jumpi\n        /* \"#utility.yul\":15377:15378   */\n      dup1\n        /* \"#utility.yul\":15372:15375   */\n      dup3\n        /* \"#utility.yul\":15368:15379   */\n      add\n        /* \"#utility.yul\":15362:15380   */\n      mload\n        /* \"#utility.yul\":15358:15359   */\n      dup2\n        /* \"#utility.yul\":15353:15356   */\n      dup5\n        /* \"#utility.yul\":15349:15360   */\n      add\n        /* \"#utility.yul\":15342:15381   */\n      mstore\n        /* \"#utility.yul\":15314:15316   */\n      0x20\n        /* \"#utility.yul\":15311:15312   */\n      dup2\n        /* \"#utility.yul\":15307:15317   */\n      add\n        /* \"#utility.yul\":15302:15317   */\n      swap1\n      pop\n        /* \"#utility.yul\":15278:15391   */\n      jump(tag_377)\n    tag_379:\n        /* \"#utility.yul\":15409:15415   */\n      dup4\n        /* \"#utility.yul\":15406:15407   */\n      dup2\n        /* \"#utility.yul\":15403:15416   */\n      gt\n        /* \"#utility.yul\":15400:15501   */\n      iszero\n      tag_380\n      jumpi\n        /* \"#utility.yul\":15489:15490   */\n      0x00\n        /* \"#utility.yul\":15480:15486   */\n      dup5\n        /* \"#utility.yul\":15475:15478   */\n      dup5\n        /* \"#utility.yul\":15471:15487   */\n      add\n        /* \"#utility.yul\":15464:15491   */\n      mstore\n        /* \"#utility.yul\":15400:15501   */\n    tag_380:\n        /* \"#utility.yul\":15249:15507   */\n      pop\n        /* \"#utility.yul\":15200:15507   */\n      pop\n      pop\n      pop\n      jump\t// out\n        /* \"#utility.yul\":15513:15833   */\n    tag_80:\n        /* \"#utility.yul\":15557:15563   */\n      0x00\n        /* \"#utility.yul\":15594:15595   */\n      0x02\n        /* \"#utility.yul\":15588:15592   */\n      dup3\n        /* \"#utility.yul\":15584:15596   */\n      div\n        /* \"#utility.yul\":15574:15596   */\n      swap1\n      pop\n        /* \"#utility.yul\":15641:15642   */\n      0x01\n        /* \"#utility.yul\":15635:15639   */\n      dup3\n        /* \"#utility.yul\":15631:15643   */\n      and\n        /* \"#utility.yul\":15662:15680   */\n      dup1\n        /* \"#utility.yul\":15652:15733   */\n      tag_382\n      jumpi\n        /* \"#utility.yul\":15718:15722   */\n      0x7f\n        /* \"#utility.yul\":15710:15716   */\n      dup3\n        /* \"#utility.yul\":15706:15723   */\n      and\n        /* \"#utility.yul\":15696:15723   */\n      swap2\n      pop\n        /* \"#utility.yul\":15652:15733   */\n    tag_382:\n        /* \"#utility.yul\":15780:15782   */\n      0x20\n        /* \"#utility.yul\":15772:15778   */\n      dup3\n        /* \"#utility.yul\":15769:15783   */\n      lt\n        /* \"#utility.yul\":15749:15767   */\n      dup2\n        /* \"#utility.yul\":15746:15784   */\n      eq\n        /* \"#utility.yul\":15743:15827   */\n      iszero\n      tag_383\n      jumpi\n        /* \"#utility.yul\":15799:15817   */\n      tag_384\n      tag_385\n      jump\t// in\n    tag_384:\n        /* \"#utility.yul\":15743:15827   */\n    tag_383:\n        /* \"#utility.yul\":15564:15833   */\n      pop\n        /* \"#utility.yul\":15513:15833   */\n      swap2\n      swap1\n      pop\n      jump\t// out\n        /* \"#utility.yul\":15839:16019   */\n    tag_362:\n        /* \"#utility.yul\":15887:15964   */\n      0x4e487b7100000000000000000000000000000000000000000000000000000000\n        /* \"#utility.yul\":15884:15885   */\n      0x00\n        /* \"#utility.yul\":15877:15965   */\n      mstore\n        /* \"#utility.yul\":15984:15988   */\n      0x11\n        /* \"#utility.yul\":15981:15982   */\n      0x04\n        /* \"#utility.yul\":15974:15989   */\n      mstore\n        /* \"#utility.yul\":16008:16012   */\n      0x24\n        /* \"#utility.yul\":16005:16006   */\n      0x00\n        /* \"#utility.yul\":15998:16013   */\n      revert\n        /* \"#utility.yul\":16025:16205   */\n    tag_385:\n        /* \"#utility.yul\":16073:16150   */\n      0x4e487b7100000000000000000000000000000000000000000000000000000000\n        /* \"#utility.yul\":16070:16071   */\n      0x00\n        /* \"#utility.yul\":16063:16151   */\n      mstore\n        /* \"#utility.yul\":16170:16174   */\n      0x22\n        /* \"#utility.yul\":16167:16168   */\n      0x04\n        /* \"#utility.yul\":16160:16175   */\n      mstore\n        /* \"#utility.yul\":16194:16198   */\n      0x24\n        /* \"#utility.yul\":16191:16192   */\n      0x00\n        /* \"#utility.yul\":16184:16199   */\n      revert\n        /* \"#utility.yul\":16334:16451   */\n    tag_217:\n        /* \"#utility.yul\":16443:16444   */\n      0x00\n        /* \"#utility.yul\":16440:16441   */\n      dup1\n        /* \"#utility.yul\":16433:16445   */\n      revert\n        /* \"#utility.yul\":16457:16559   */\n    tag_252:\n        /* \"#utility.yul\":16498:16504   */\n      0x00\n        /* \"#utility.yul\":16549:16551   */\n      0x1f\n        /* \"#utility.yul\":16545:16552   */\n      not\n        /* \"#utility.yul\":16540:16542   */\n      0x1f\n        /* \"#utility.yul\":16533:16538   */\n      dup4\n        /* \"#utility.yul\":16529:16543   */\n      add\n        /* \"#utility.yul\":16525:16553   */\n      and\n        /* \"#utility.yul\":16515:16553   */\n      swap1\n      pop\n        /* \"#utility.yul\":16457:16559   */\n      swap2\n      swap1\n      pop\n      jump\t// out\n        /* \"#utility.yul\":16565:16787   */\n    tag_257:\n        /* \"#utility.yul\":16705:16739   */\n      0x45524332303a207472616e7366657220746f20746865207a65726f2061646472\n        /* \"#utility.yul\":16701:16702   */\n      0x00\n        /* \"#utility.yul\":16693:16699   */\n      dup3\n        /* \"#utility.yul\":16689:16703   */\n      add\n        /* \"#utility.yul\":16682:16740   */\n      mstore\n        /* \"#utility.yul\":16774:16779   */\n      0x6573730000000000000000000000000000000000000000000000000000000000\n        /* \"#utility.yul\":16769:16771   */\n      0x20\n        /* \"#utility.yul\":16761:16767   */\n      dup3\n        /* \"#utility.yul\":16757:16772   */\n      add\n        /* \"#utility.yul\":16750:16780   */\n      mstore\n        /* \"#utility.yul\":16565:16787   */\n      pop\n      jump\t// out\n        /* \"#utility.yul\":16793:17014   */\n    tag_262:\n        /* \"#utility.yul\":16933:16967   */\n      0x45524332303a206275726e20616d6f756e7420657863656564732062616c616e\n        /* \"#utility.yul\":16929:16930   */\n      0x00\n        /* \"#utility.yul\":16921:16927   */\n      dup3\n        /* \"#utility.yul\":16917:16931   */\n      add\n        /* \"#utility.yul\":16910:16968   */\n      mstore\n        /* \"#utility.yul\":17002:17006   */\n      0x6365000000000000000000000000000000000000000000000000000000000000\n        /* \"#utility.yul\":16997:16999   */\n      0x20\n        /* \"#utility.yul\":16989:16995   */\n      dup3\n        /* \"#utility.yul\":16985:17000   */\n      add\n        /* \"#utility.yul\":16978:17007   */\n      mstore\n        /* \"#utility.yul\":16793:17014   */\n      pop\n      jump\t// out\n        /* \"#utility.yul\":17020:17241   */\n    tag_267:\n        /* \"#utility.yul\":17160:17194   */\n      0x45524332303a20617070726f766520746f20746865207a65726f206164647265\n        /* \"#utility.yul\":17156:17157   */\n      0x00\n        /* \"#utility.yul\":17148:17154   */\n      dup3\n        /* \"#utility.yul\":17144:17158   */\n      add\n        /* \"#utility.yul\":17137:17195   */\n      mstore\n        /* \"#utility.yul\":17229:17233   */\n      0x7373000000000000000000000000000000000000000000000000000000000000\n        /* \"#utility.yul\":17224:17226   */\n      0x20\n        /* \"#utility.yul\":17216:17222   */\n      dup3\n        /* \"#utility.yul\":17212:17227   */\n      add\n        /* \"#utility.yul\":17205:17234   */\n      mstore\n        /* \"#utility.yul\":17020:17241   */\n      pop\n      jump\t// out\n        /* \"#utility.yul\":17247:17472   */\n    tag_272:\n        /* \"#utility.yul\":17387:17421   */\n      0x45524332303a207472616e7366657220616d6f756e7420657863656564732062\n        /* \"#utility.yul\":17383:17384   */\n      0x00\n        /* \"#utility.yul\":17375:17381   */\n      dup3\n        /* \"#utility.yul\":17371:17385   */\n      add\n        /* \"#utility.yul\":17364:17422   */\n      mstore\n        /* \"#utility.yul\":17456:17464   */\n      0x616c616e63650000000000000000000000000000000000000000000000000000\n        /* \"#utility.yul\":17451:17453   */\n      0x20\n        /* \"#utility.yul\":17443:17449   */\n      dup3\n        /* \"#utility.yul\":17439:17454   */\n      add\n        /* \"#utility.yul\":17432:17465   */\n      mstore\n        /* \"#utility.yul\":17247:17472   */\n      pop\n      jump\t// out\n        /* \"#utility.yul\":17478:17705   */\n    tag_277:\n        /* \"#utility.yul\":17618:17652   */\n      0x45524332303a207472616e7366657220616d6f756e7420657863656564732061\n        /* \"#utility.yul\":17614:17615   */\n      0x00\n        /* \"#utility.yul\":17606:17612   */\n      dup3\n        /* \"#utility.yul\":17602:17616   */\n      add\n        /* \"#utility.yul\":17595:17653   */\n      mstore\n        /* \"#utility.yul\":17687:17697   */\n      0x6c6c6f77616e6365000000000000000000000000000000000000000000000000\n        /* \"#utility.yul\":17682:17684   */\n      0x20\n        /* \"#utility.yul\":17674:17680   */\n      dup3\n        /* \"#utility.yul\":17670:17685   */\n      add\n        /* \"#utility.yul\":17663:17698   */\n      mstore\n        /* \"#utility.yul\":17478:17705   */\n      pop\n      jump\t// out\n        /* \"#utility.yul\":17711:17934   */\n    tag_282:\n        /* \"#utility.yul\":17851:17885   */\n      0x45524332303a206275726e20616d6f756e74206578636565647320616c6c6f77\n        /* \"#utility.yul\":17847:17848   */\n      0x00\n        /* \"#utility.yul\":17839:17845   */\n      dup3\n        /* \"#utility.yul\":17835:17849   */\n      add\n        /* \"#utility.yul\":17828:17886   */\n      mstore\n        /* \"#utility.yul\":17920:17926   */\n      0x616e636500000000000000000000000000000000000000000000000000000000\n        /* \"#utility.yul\":17915:17917   */\n      0x20\n        /* \"#utility.yul\":17907:17913   */\n      dup3\n        /* \"#utility.yul\":17903:17918   */\n      add\n        /* \"#utility.yul\":17896:17927   */\n      mstore\n        /* \"#utility.yul\":17711:17934   */\n      pop\n      jump\t// out\n        /* \"#utility.yul\":17940:18160   */\n    tag_287:\n        /* \"#utility.yul\":18080:18114   */\n      0x45524332303a206275726e2066726f6d20746865207a65726f20616464726573\n        /* \"#utility.yul\":18076:18077   */\n      0x00\n        /* \"#utility.yul\":18068:18074   */\n      dup3\n        /* \"#utility.yul\":18064:18078   */\n      add\n        /* \"#utility.yul\":18057:18115   */\n      mstore\n        /* \"#utility.yul\":18149:18152   */\n      0x7300000000000000000000000000000000000000000000000000000000000000\n        /* \"#utility.yul\":18144:18146   */\n      0x20\n        /* \"#utility.yul\":18136:18142   */\n      dup3\n        /* \"#utility.yul\":18132:18147   */\n      add\n        /* \"#utility.yul\":18125:18153   */\n      mstore\n        /* \"#utility.yul\":17940:18160   */\n      pop\n      jump\t// out\n        /* \"#utility.yul\":18166:18390   */\n    tag_292:\n        /* \"#utility.yul\":18306:18340   */\n      0x45524332303a207472616e736665722066726f6d20746865207a65726f206164\n        /* \"#utility.yul\":18302:18303   */\n      0x00\n        /* \"#utility.yul\":18294:18300   */\n      dup3\n        /* \"#utility.yul\":18290:18304   */\n      add\n        /* \"#utility.yul\":18283:18341   */\n      mstore\n        /* \"#utility.yul\":18375:18382   */\n      0x6472657373000000000000000000000000000000000000000000000000000000\n        /* \"#utility.yul\":18370:18372   */\n      0x20\n        /* \"#utility.yul\":18362:18368   */\n      dup3\n        /* \"#utility.yul\":18358:18373   */\n      add\n        /* \"#utility.yul\":18351:18383   */\n      mstore\n        /* \"#utility.yul\":18166:18390   */\n      pop\n      jump\t// out\n        /* \"#utility.yul\":18396:18619   */\n    tag_297:\n        /* \"#utility.yul\":18536:18570   */\n      0x45524332303a20617070726f76652066726f6d20746865207a65726f20616464\n        /* \"#utility.yul\":18532:18533   */\n      0x00\n        /* \"#utility.yul\":18524:18530   */\n      dup3\n        /* \"#utility.yul\":18520:18534   */\n      add\n        /* \"#utility.yul\":18513:18571   */\n      mstore\n        /* \"#utility.yul\":18605:18611   */\n      0x7265737300000000000000000000000000000000000000000000000000000000\n        /* \"#utility.yul\":18600:18602   */\n      0x20\n        /* \"#utility.yul\":18592:18598   */\n      dup3\n        /* \"#utility.yul\":18588:18603   */\n      add\n        /* \"#utility.yul\":18581:18612   */\n      mstore\n        /* \"#utility.yul\":18396:18619   */\n      pop\n      jump\t// out\n        /* \"#utility.yul\":18625:18863   */\n    tag_302:\n        /* \"#utility.yul\":18765:18799   */\n      0x6f6e6c7920627269646765206861732061636365737320746f20746869732063\n        /* \"#utility.yul\":18761:18762   */\n      0x00\n        /* \"#utility.yul\":18753:18759   */\n      dup3\n        /* \"#utility.yul\":18749:18763   */\n      add\n        /* \"#utility.yul\":18742:18800   */\n      mstore\n        /* \"#utility.yul\":18834:18855   */\n      0x68696c6420746f6b656e2066756e6374696f6e00000000000000000000000000\n        /* \"#utility.yul\":18829:18831   */\n      0x20\n        /* \"#utility.yul\":18821:18827   */\n      dup3\n        /* \"#utility.yul\":18817:18832   */\n      add\n        /* \"#utility.yul\":18810:18856   */\n      mstore\n        /* \"#utility.yul\":18625:18863   */\n      pop\n      jump\t// out\n        /* \"#utility.yul\":18869:19093   */\n    tag_307:\n        /* \"#utility.yul\":19009:19043   */\n      0x45524332303a2064656372656173656420616c6c6f77616e63652062656c6f77\n        /* \"#utility.yul\":19005:19006   */\n      0x00\n        /* \"#utility.yul\":18997:19003   */\n      dup3\n        /* \"#utility.yul\":18993:19007   */\n      add\n        /* \"#utility.yul\":18986:19044   */\n      mstore\n        /* \"#utility.yul\":19078:19085   */\n      0x207a65726f000000000000000000000000000000000000000000000000000000\n        /* \"#utility.yul\":19073:19075   */\n      0x20\n        /* \"#utility.yul\":19065:19071   */\n      dup3\n        /* \"#utility.yul\":19061:19076   */\n      add\n        /* \"#utility.yul\":19054:19086   */\n      mstore\n        /* \"#utility.yul\":18869:19093   */\n      pop\n      jump\t// out\n        /* \"#utility.yul\":19099:19280   */\n    tag_312:\n        /* \"#utility.yul\":19239:19272   */\n      0x45524332303a206d696e7420746f20746865207a65726f206164647265737300\n        /* \"#utility.yul\":19235:19236   */\n      0x00\n        /* \"#utility.yul\":19227:19233   */\n      dup3\n        /* \"#utility.yul\":19223:19237   */\n      add\n        /* \"#utility.yul\":19216:19273   */\n      mstore\n        /* \"#utility.yul\":19099:19280   */\n      pop\n      jump\t// out\n        /* \"#utility.yul\":19286:19408   */\n    tag_209:\n        /* \"#utility.yul\":19359:19383   */\n      tag_405\n        /* \"#utility.yul\":19377:19382   */\n      dup2\n        /* \"#utility.yul\":19359:19383   */\n      tag_368\n      jump\t// in\n    tag_405:\n        /* \"#utility.yul\":19352:19357   */\n      dup2\n        /* \"#utility.yul\":19349:19384   */\n      eq\n        /* \"#utility.yul\":19339:19402   */\n      tag_406\n      jumpi\n        /* \"#utility.yul\":19398:19399   */\n      0x00\n        /* \"#utility.yul\":19395:19396   */\n      dup1\n        /* \"#utility.yul\":19388:19400   */\n      revert\n        /* \"#utility.yul\":19339:19402   */\n    tag_406:\n        /* \"#utility.yul\":19286:19408   */\n      pop\n      jump\t// out\n        /* \"#utility.yul\":19414:19536   */\n    tag_213:\n        /* \"#utility.yul\":19487:19511   */\n      tag_408\n        /* \"#utility.yul\":19505:19510   */\n      dup2\n        /* \"#utility.yul\":19487:19511   */\n      tag_316\n      jump\t// in\n    tag_408:\n        /* \"#utility.yul\":19480:19485   */\n      dup2\n        /* \"#utility.yul\":19477:19512   */\n      eq\n        /* \"#utility.yul\":19467:19530   */\n      tag_409\n      jumpi\n        /* \"#utility.yul\":19526:19527   */\n      0x00\n        /* \"#utility.yul\":19523:19524   */\n      dup1\n        /* \"#utility.yul\":19516:19528   */\n      revert\n        /* \"#utility.yul\":19467:19530   */\n    tag_409:\n        /* \"#utility.yul\":19414:19536   */\n      pop\n      jump\t// out\n\n    auxdata: 0xa2646970667358221220235fb30eee7293e2da06d38bca0b994e7b30fed29a0e91e0c636c07e2b0b3c5164736f6c63430008070033\n}\n",
				"bytecode": {
					"linkReferences": {},
					"object": "60806040523480156200001157600080fd5b5060405162001fd738038062001fd78339818101604052810190620000379190620001e6565b6040518060400160405280601581526020017f496d70657269616c73437265646974734368696c6400000000000000000000008152506040518060400160405280600381526020017f49435200000000000000000000000000000000000000000000000000000000008152508160039080519060200190620000bb9291906200011f565b508060049080519060200190620000d49291906200011f565b50505080600560006101000a81548173ffffffffffffffffffffffffffffffffffffffff021916908373ffffffffffffffffffffffffffffffffffffffff16021790555050620002d0565b8280546200012d906200024c565b90600052602060002090601f0160209004810192826200015157600085556200019d565b82601f106200016c57805160ff19168380011785556200019d565b828001600101855582156200019d579182015b828111156200019c5782518255916020019190600101906200017f565b5b509050620001ac9190620001b0565b5090565b5b80821115620001cb576000816000905550600101620001b1565b5090565b600081519050620001e081620002b6565b92915050565b600060208284031215620001ff57620001fe620002b1565b5b60006200020f84828501620001cf565b91505092915050565b600062000225826200022c565b9050919050565b600073ffffffffffffffffffffffffffffffffffffffff82169050919050565b600060028204905060018216806200026557607f821691505b602082108114156200027c576200027b62000282565b5b50919050565b7f4e487b7100000000000000000000000000000000000000000000000000000000600052602260045260246000fd5b600080fd5b620002c18162000218565b8114620002cd57600080fd5b50565b611cf780620002e06000396000f3fe608060405234801561001057600080fd5b50600436106100ea5760003560e01c806342966c681161008c57806395d89b411161006657806395d89b411461025d578063a457c2d71461027b578063a9059cbb146102ab578063dd62ed3e146102db576100ea565b806342966c68146101f557806370a082311461021157806379cc679014610241576100ea565b806323b872dd116100c857806323b872dd1461015b578063313ce5671461018b57806339509351146101a957806340c10f19146101d9576100ea565b806306fdde03146100ef578063095ea7b31461010d57806318160ddd1461013d575b600080fd5b6100f761030b565b6040516101049190611559565b60405180910390f35b610127600480360381019061012291906112c7565b61039d565b604051610134919061153e565b60405180910390f35b6101456103bb565b60405161015291906116fb565b60405180910390f35b61017560048036038101906101709190611274565b6103c5565b604051610182919061153e565b60405180910390f35b6101936104c6565b6040516101a09190611716565b60405180910390f35b6101c360048036038101906101be91906112c7565b6104cf565b6040516101d0919061153e565b60405180910390f35b6101f360048036038101906101ee91906112c7565b61057b565b005b61020f600480360381019061020a9190611307565b610619565b005b61022b60048036038101906102269190611207565b6106b5565b60405161023891906116fb565b60405180910390f35b61025b600480360381019061025691906112c7565b6106fd565b005b61026561079b565b6040516102729190611559565b60405180910390f35b610295600480360381019061029091906112c7565b61082d565b6040516102a2919061153e565b60405180910390f35b6102c560048036038101906102c091906112c7565b610921565b6040516102d2919061153e565b60405180910390f35b6102f560048036038101906102f09190611234565b61093f565b60405161030291906116fb565b60405180910390f35b60606003805461031a9061185f565b80601f01602080910402602001604051908101604052809291908181526020018280546103469061185f565b80156103935780601f1061036857610100808354040283529160200191610393565b820191906000526020600020905b81548152906001019060200180831161037657829003601f168201915b5050505050905090565b60006103b16103aa6109c6565b84846109ce565b6001905092915050565b6000600254905090565b60006103d2848484610b99565b6000600160008673ffffffffffffffffffffffffffffffffffffffff1673ffffffffffffffffffffffffffffffffffffffff168152602001908152602001600020600061041d6109c6565b73ffffffffffffffffffffffffffffffffffffffff1673ffffffffffffffffffffffffffffffffffffffff1681526020019081526020016000205490508281101561049d576040517f08c379a0000000000000000000000000000000000000000000000000000000008152600401610494906115fb565b60405180910390fd5b6104ba856104a96109c6565b85846104b591906117a3565b6109ce565b60019150509392505050565b60006012905090565b60006105716104dc6109c6565b8484600160006104ea6109c6565b73ffffffffffffffffffffffffffffffffffffffff1673ffffffffffffffffffffffffffffffffffffffff16815260200190815260200160002060008873ffffffffffffffffffffffffffffffffffffffff1673ffffffffffffffffffffffffffffffffffffffff1681526020019081526020016000205461056c919061174d565b6109ce565b6001905092915050565b600560009054906101000a900473ffffffffffffffffffffffffffffffffffffffff1673ffffffffffffffffffffffffffffffffffffffff163373ffffffffffffffffffffffffffffffffffffffff161461060b576040517f08c379a00000000000000000000000000000000000000000000000000000000081526004016106029061169b565b60405180910390fd5b6106158282610e18565b5050565b600560009054906101000a900473ffffffffffffffffffffffffffffffffffffffff1673ffffffffffffffffffffffffffffffffffffffff163373ffffffffffffffffffffffffffffffffffffffff16146106a9576040517f08c379a00000000000000000000000000000000000000000000000000000000081526004016106a09061169b565b60405180910390fd5b6106b281610f6c565b50565b60008060008373ffffffffffffffffffffffffffffffffffffffff1673ffffffffffffffffffffffffffffffffffffffff168152602001908152602001600020549050919050565b600560009054906101000a900473ffffffffffffffffffffffffffffffffffffffff1673ffffffffffffffffffffffffffffffffffffffff163373ffffffffffffffffffffffffffffffffffffffff161461078d576040517f08c379a00000000000000000000000000000000000000000000000000000000081526004016107849061169b565b60405180910390fd5b6107978282610f80565b5050565b6060600480546107aa9061185f565b80601f01602080910402602001604051908101604052809291908181526020018280546107d69061185f565b80156108235780601f106107f857610100808354040283529160200191610823565b820191906000526020600020905b81548152906001019060200180831161080657829003601f168201915b5050505050905090565b6000806001600061083c6109c6565b73ffffffffffffffffffffffffffffffffffffffff1673ffffffffffffffffffffffffffffffffffffffff16815260200190815260200160002060008573ffffffffffffffffffffffffffffffffffffffff1673ffffffffffffffffffffffffffffffffffffffff168152602001908152602001600020549050828110156108f9576040517f08c379a00000000000000000000000000000000000000000000000000000000081526004016108f0906116bb565b60405180910390fd5b6109166109046109c6565b85858461091191906117a3565b6109ce565b600191505092915050565b600061093561092e6109c6565b8484610b99565b6001905092915050565b6000600160008473ffffffffffffffffffffffffffffffffffffffff1673ffffffffffffffffffffffffffffffffffffffff16815260200190815260200160002060008373ffffffffffffffffffffffffffffffffffffffff1673ffffffffffffffffffffffffffffffffffffffff16815260200190815260200160002054905092915050565b600033905090565b600073ffffffffffffffffffffffffffffffffffffffff168373ffffffffffffffffffffffffffffffffffffffff161415610a3e576040517f08c379a0000000000000000000000000000000000000000000000000000000008152600401610a359061167b565b60405180910390fd5b600073ffffffffffffffffffffffffffffffffffffffff168273ffffffffffffffffffffffffffffffffffffffff161415610aae576040517f08c379a0000000000000000000000000000000000000000000000000000000008152600401610aa5906115bb565b60405180910390fd5b80600160008573ffffffffffffffffffffffffffffffffffffffff1673ffffffffffffffffffffffffffffffffffffffff16815260200190815260200160002060008473ffffffffffffffffffffffffffffffffffffffff1673ffffffffffffffffffffffffffffffffffffffff168152602001908152602001600020819055508173ffffffffffffffffffffffffffffffffffffffff168373ffffffffffffffffffffffffffffffffffffffff167f8c5be1e5ebec7d5bd14f71427d1e84f3dd0314c0f7b2291e5b200ac8c7c3b92583604051610b8c91906116fb565b60405180910390a3505050565b600073ffffffffffffffffffffffffffffffffffffffff168373ffffffffffffffffffffffffffffffffffffffff161415610c09576040517f08c379a0000000000000000000000000000000000000000000000000000000008152600401610c009061165b565b60405180910390fd5b600073ffffffffffffffffffffffffffffffffffffffff168273ffffffffffffffffffffffffffffffffffffffff161415610c79576040517f08c379a0000000000000000000000000000000000000000000000000000000008152600401610c709061157b565b60405180910390fd5b610c84838383611004565b60008060008573ffffffffffffffffffffffffffffffffffffffff1673ffffffffffffffffffffffffffffffffffffffff16815260200190815260200160002054905081811015610d0a576040517f08c379a0000000000000000000000000000000000000000000000000000000008152600401610d01906115db565b60405180910390fd5b8181610d1691906117a3565b6000808673ffffffffffffffffffffffffffffffffffffffff1673ffffffffffffffffffffffffffffffffffffffff16815260200190815260200160002081905550816000808573ffffffffffffffffffffffffffffffffffffffff1673ffffffffffffffffffffffffffffffffffffffff1681526020019081526020016000206000828254610da6919061174d565b925050819055508273ffffffffffffffffffffffffffffffffffffffff168473ffffffffffffffffffffffffffffffffffffffff167fddf252ad1be2c89b69c2b068fc378daa952ba7f163c4a11628f55a4df523b3ef84604051610e0a91906116fb565b60405180910390a350505050565b600073ffffffffffffffffffffffffffffffffffffffff168273ffffffffffffffffffffffffffffffffffffffff161415610e88576040517f08c379a0000000000000000000000000000000000000000000000000000000008152600401610e7f906116db565b60405180910390fd5b610e9460008383611004565b8060026000828254610ea6919061174d565b92505081905550806000808473ffffffffffffffffffffffffffffffffffffffff1673ffffffffffffffffffffffffffffffffffffffff1681526020019081526020016000206000828254610efb919061174d565b925050819055508173ffffffffffffffffffffffffffffffffffffffff16600073ffffffffffffffffffffffffffffffffffffffff167fddf252ad1be2c89b69c2b068fc378daa952ba7f163c4a11628f55a4df523b3ef83604051610f6091906116fb565b60405180910390a35050565b610f7d610f776109c6565b82611009565b50565b6000610f9383610f8e6109c6565b61093f565b905081811015610fd8576040517f08c379a0000000000000000000000000000000000000000000000000000000008152600401610fcf9061161b565b60405180910390fd5b610ff583610fe46109c6565b8484610ff091906117a3565b6109ce565b610fff8383611009565b505050565b505050565b600073ffffffffffffffffffffffffffffffffffffffff168273ffffffffffffffffffffffffffffffffffffffff161415611079576040517f08c379a00000000000000000000000000000000000000000000000000000000081526004016110709061163b565b60405180910390fd5b61108582600083611004565b60008060008473ffffffffffffffffffffffffffffffffffffffff1673ffffffffffffffffffffffffffffffffffffffff1681526020019081526020016000205490508181101561110b576040517f08c379a00000000000000000000000000000000000000000000000000000000081526004016111029061159b565b60405180910390fd5b818161111791906117a3565b6000808573ffffffffffffffffffffffffffffffffffffffff1673ffffffffffffffffffffffffffffffffffffffff16815260200190815260200160002081905550816002600082825461116b91906117a3565b92505081905550600073ffffffffffffffffffffffffffffffffffffffff168373ffffffffffffffffffffffffffffffffffffffff167fddf252ad1be2c89b69c2b068fc378daa952ba7f163c4a11628f55a4df523b3ef846040516111d091906116fb565b60405180910390a3505050565b6000813590506111ec81611c93565b92915050565b60008135905061120181611caa565b92915050565b60006020828403121561121d5761121c6118ef565b5b600061122b848285016111dd565b91505092915050565b6000806040838503121561124b5761124a6118ef565b5b6000611259858286016111dd565b925050602061126a858286016111dd565b9150509250929050565b60008060006060848603121561128d5761128c6118ef565b5b600061129b868287016111dd565b93505060206112ac868287016111dd565b92505060406112bd868287016111f2565b9150509250925092565b600080604083850312156112de576112dd6118ef565b5b60006112ec858286016111dd565b92505060206112fd858286016111f2565b9150509250929050565b60006020828403121561131d5761131c6118ef565b5b600061132b848285016111f2565b91505092915050565b61133d816117e9565b82525050565b600061134e82611731565b611358818561173c565b935061136881856020860161182c565b611371816118f4565b840191505092915050565b600061138960238361173c565b915061139482611905565b604082019050919050565b60006113ac60228361173c565b91506113b782611954565b604082019050919050565b60006113cf60228361173c565b91506113da826119a3565b604082019050919050565b60006113f260268361173c565b91506113fd826119f2565b604082019050919050565b600061141560288361173c565b915061142082611a41565b604082019050919050565b600061143860248361173c565b915061144382611a90565b604082019050919050565b600061145b60218361173c565b915061146682611adf565b604082019050919050565b600061147e60258361173c565b915061148982611b2e565b604082019050919050565b60006114a160248361173c565b91506114ac82611b7d565b604082019050919050565b60006114c460338361173c565b91506114cf82611bcc565b604082019050919050565b60006114e760258361173c565b91506114f282611c1b565b604082019050919050565b600061150a601f8361173c565b915061151582611c6a565b602082019050919050565b61152981611815565b82525050565b6115388161181f565b82525050565b60006020820190506115536000830184611334565b92915050565b600060208201905081810360008301526115738184611343565b905092915050565b600060208201905081810360008301526115948161137c565b9050919050565b600060208201905081810360008301526115b48161139f565b9050919050565b600060208201905081810360008301526115d4816113c2565b9050919050565b600060208201905081810360008301526115f4816113e5565b9050919050565b6000602082019050818103600083015261161481611408565b9050919050565b600060208201905081810360008301526116348161142b565b9050919050565b600060208201905081810360008301526116548161144e565b9050919050565b6000602082019050818103600083015261167481611471565b9050919050565b6000602082019050818103600083015261169481611494565b9050919050565b600060208201905081810360008301526116b4816114b7565b9050919050565b600060208201905081810360008301526116d4816114da565b9050919050565b600060208201905081810360008301526116f4816114fd565b9050919050565b60006020820190506117106000830184611520565b92915050565b600060208201905061172b600083018461152f565b92915050565b600081519050919050565b600082825260208201905092915050565b600061175882611815565b915061176383611815565b9250827fffffffffffffffffffffffffffffffffffffffffffffffffffffffffffffffff0382111561179857611797611891565b5b828201905092915050565b60006117ae82611815565b91506117b983611815565b9250828210156117cc576117cb611891565b5b828203905092915050565b60006117e2826117f5565b9050919050565b60008115159050919050565b600073ffffffffffffffffffffffffffffffffffffffff82169050919050565b6000819050919050565b600060ff82169050919050565b60005b8381101561184a57808201518184015260208101905061182f565b83811115611859576000848401525b50505050565b6000600282049050600182168061187757607f821691505b6020821081141561188b5761188a6118c0565b5b50919050565b7f4e487b7100000000000000000000000000000000000000000000000000000000600052601160045260246000fd5b7f4e487b7100000000000000000000000000000000000000000000000000000000600052602260045260246000fd5b600080fd5b6000601f19601f8301169050919050565b7f45524332303a207472616e7366657220746f20746865207a65726f206164647260008201527f6573730000000000000000000000000000000000000000000000000000000000602082015250565b7f45524332303a206275726e20616d6f756e7420657863656564732062616c616e60008201527f6365000000000000000000000000000000000000000000000000000000000000602082015250565b7f45524332303a20617070726f766520746f20746865207a65726f20616464726560008201527f7373000000000000000000000000000000000000000000000000000000000000602082015250565b7f45524332303a207472616e7366657220616d6f756e742065786365656473206260008201527f616c616e63650000000000000000000000000000000000000000000000000000602082015250565b7f45524332303a207472616e7366657220616d6f756e742065786365656473206160008201527f6c6c6f77616e6365000000000000000000000000000000000000000000000000602082015250565b7f45524332303a206275726e20616d6f756e74206578636565647320616c6c6f7760008201527f616e636500000000000000000000000000000000000000000000000000000000602082015250565b7f45524332303a206275726e2066726f6d20746865207a65726f2061646472657360008201527f7300000000000000000000000000000000000000000000000000000000000000602082015250565b7f45524332303a207472616e736665722066726f6d20746865207a65726f20616460008201527f6472657373000000000000000000000000000000000000000000000000000000602082015250565b7f45524332303a20617070726f76652066726f6d20746865207a65726f2061646460008201527f7265737300000000000000000000000000000000000000000000000000000000602082015250565b7f6f6e6c7920627269646765206861732061636365737320746f2074686973206360008201527f68696c6420746f6b656e2066756e6374696f6e00000000000000000000000000602082015250565b7f45524332303a2064656372656173656420616c6c6f77616e63652062656c6f7760008201527f207a65726f000000000000000000000000000000000000000000000000000000602082015250565b7f45524332303a206d696e7420746f20746865207a65726f206164647265737300600082015250565b611c9c816117d7565b8114611ca757600080fd5b50565b611cb381611815565b8114611cbe57600080fd5b5056fea2646970667358221220235fb30eee7293e2da06d38bca0b994e7b30fed29a0e91e0c636c07e2b0b3c5164736f6c63430008070033",
					"opcodes": "PUSH1 0x80 PUSH1 0x40 MSTORE CALLVALUE DUP1 ISZERO PUSH3 0x11 JUMPI PUSH1 0x0 DUP1 REVERT JUMPDEST POP PUSH1 0x40 MLOAD PUSH3 0x1FD7 CODESIZE SUB DUP1 PUSH3 0x1FD7 DUP4 CODECOPY DUP2 DUP2 ADD PUSH1 0x40 MSTORE DUP2 ADD SWAP1 PUSH3 0x37 SWAP2 SWAP1 PUSH3 0x1E6 JUMP JUMPDEST PUSH1 0x40 MLOAD DUP1 PUSH1 0x40 ADD PUSH1 0x40 MSTORE DUP1 PUSH1 0x15 DUP2 MSTORE PUSH1 0x20 ADD PUSH32 0x496D70657269616C73437265646974734368696C640000000000000000000000 DUP2 MSTORE POP PUSH1 0x40 MLOAD DUP1 PUSH1 0x40 ADD PUSH1 0x40 MSTORE DUP1 PUSH1 0x3 DUP2 MSTORE PUSH1 0x20 ADD PUSH32 0x4943520000000000000000000000000000000000000000000000000000000000 DUP2 MSTORE POP DUP2 PUSH1 0x3 SWAP1 DUP1 MLOAD SWAP1 PUSH1 0x20 ADD SWAP1 PUSH3 0xBB SWAP3 SWAP2 SWAP1 PUSH3 0x11F JUMP JUMPDEST POP DUP1 PUSH1 0x4 SWAP1 DUP1 MLOAD SWAP1 PUSH1 0x20 ADD SWAP1 PUSH3 0xD4 SWAP3 SWAP2 SWAP1 PUSH3 0x11F JUMP JUMPDEST POP POP POP DUP1 PUSH1 0x5 PUSH1 0x0 PUSH2 0x100 EXP DUP2 SLOAD DUP2 PUSH20 0xFFFFFFFFFFFFFFFFFFFFFFFFFFFFFFFFFFFFFFFF MUL NOT AND SWAP1 DUP4 PUSH20 0xFFFFFFFFFFFFFFFFFFFFFFFFFFFFFFFFFFFFFFFF AND MUL OR SWAP1 SSTORE POP POP PUSH3 0x2D0 JUMP JUMPDEST DUP3 DUP1 SLOAD PUSH3 0x12D SWAP1 PUSH3 0x24C JUMP JUMPDEST SWAP1 PUSH1 0x0 MSTORE PUSH1 0x20 PUSH1 0x0 KECCAK256 SWAP1 PUSH1 0x1F ADD PUSH1 0x20 SWAP1 DIV DUP2 ADD SWAP3 DUP3 PUSH3 0x151 JUMPI PUSH1 0x0 DUP6 SSTORE PUSH3 0x19D JUMP JUMPDEST DUP3 PUSH1 0x1F LT PUSH3 0x16C JUMPI DUP1 MLOAD PUSH1 0xFF NOT AND DUP4 DUP1 ADD OR DUP6 SSTORE PUSH3 0x19D JUMP JUMPDEST DUP3 DUP1 ADD PUSH1 0x1 ADD DUP6 SSTORE DUP3 ISZERO PUSH3 0x19D JUMPI SWAP2 DUP3 ADD JUMPDEST DUP3 DUP2 GT ISZERO PUSH3 0x19C JUMPI DUP3 MLOAD DUP3 SSTORE SWAP2 PUSH1 0x20 ADD SWAP2 SWAP1 PUSH1 0x1 ADD SWAP1 PUSH3 0x17F JUMP JUMPDEST JUMPDEST POP SWAP1 POP PUSH3 0x1AC SWAP2 SWAP1 PUSH3 0x1B0 JUMP JUMPDEST POP SWAP1 JUMP JUMPDEST JUMPDEST DUP1 DUP3 GT ISZERO PUSH3 0x1CB JUMPI PUSH1 0x0 DUP2 PUSH1 0x0 SWAP1 SSTORE POP PUSH1 0x1 ADD PUSH3 0x1B1 JUMP JUMPDEST POP SWAP1 JUMP JUMPDEST PUSH1 0x0 DUP2 MLOAD SWAP1 POP PUSH3 0x1E0 DUP2 PUSH3 0x2B6 JUMP JUMPDEST SWAP3 SWAP2 POP POP JUMP JUMPDEST PUSH1 0x0 PUSH1 0x20 DUP3 DUP5 SUB SLT ISZERO PUSH3 0x1FF JUMPI PUSH3 0x1FE PUSH3 0x2B1 JUMP JUMPDEST JUMPDEST PUSH1 0x0 PUSH3 0x20F DUP5 DUP3 DUP6 ADD PUSH3 0x1CF JUMP JUMPDEST SWAP2 POP POP SWAP3 SWAP2 POP POP JUMP JUMPDEST PUSH1 0x0 PUSH3 0x225 DUP3 PUSH3 0x22C JUMP JUMPDEST SWAP1 POP SWAP2 SWAP1 POP JUMP JUMPDEST PUSH1 0x0 PUSH20 0xFFFFFFFFFFFFFFFFFFFFFFFFFFFFFFFFFFFFFFFF DUP3 AND SWAP1 POP SWAP2 SWAP1 POP JUMP JUMPDEST PUSH1 0x0 PUSH1 0x2 DUP3 DIV SWAP1 POP PUSH1 0x1 DUP3 AND DUP1 PUSH3 0x265 JUMPI PUSH1 0x7F DUP3 AND SWAP2 POP JUMPDEST PUSH1 0x20 DUP3 LT DUP2 EQ ISZERO PUSH3 0x27C JUMPI PUSH3 0x27B PUSH3 0x282 JUMP JUMPDEST JUMPDEST POP SWAP2 SWAP1 POP JUMP JUMPDEST PUSH32 0x4E487B7100000000000000000000000000000000000000000000000000000000 PUSH1 0x0 MSTORE PUSH1 0x22 PUSH1 0x4 MSTORE PUSH1 0x24 PUSH1 0x0 REVERT JUMPDEST PUSH1 0x0 DUP1 REVERT JUMPDEST PUSH3 0x2C1 DUP2 PUSH3 0x218 JUMP JUMPDEST DUP2 EQ PUSH3 0x2CD JUMPI PUSH1 0x0 DUP1 REVERT JUMPDEST POP JUMP JUMPDEST PUSH2 0x1CF7 DUP1 PUSH3 0x2E0 PUSH1 0x0 CODECOPY PUSH1 0x0 RETURN INVALID PUSH1 0x80 PUSH1 0x40 MSTORE CALLVALUE DUP1 ISZERO PUSH2 0x10 JUMPI PUSH1 0x0 DUP1 REVERT JUMPDEST POP PUSH1 0x4 CALLDATASIZE LT PUSH2 0xEA JUMPI PUSH1 0x0 CALLDATALOAD PUSH1 0xE0 SHR DUP1 PUSH4 0x42966C68 GT PUSH2 0x8C JUMPI DUP1 PUSH4 0x95D89B41 GT PUSH2 0x66 JUMPI DUP1 PUSH4 0x95D89B41 EQ PUSH2 0x25D JUMPI DUP1 PUSH4 0xA457C2D7 EQ PUSH2 0x27B JUMPI DUP1 PUSH4 0xA9059CBB EQ PUSH2 0x2AB JUMPI DUP1 PUSH4 0xDD62ED3E EQ PUSH2 0x2DB JUMPI PUSH2 0xEA JUMP JUMPDEST DUP1 PUSH4 0x42966C68 EQ PUSH2 0x1F5 JUMPI DUP1 PUSH4 0x70A08231 EQ PUSH2 0x211 JUMPI DUP1 PUSH4 0x79CC6790 EQ PUSH2 0x241 JUMPI PUSH2 0xEA JUMP JUMPDEST DUP1 PUSH4 0x23B872DD GT PUSH2 0xC8 JUMPI DUP1 PUSH4 0x23B872DD EQ PUSH2 0x15B JUMPI DUP1 PUSH4 0x313CE567 EQ PUSH2 0x18B JUMPI DUP1 PUSH4 0x39509351 EQ PUSH2 0x1A9 JUMPI DUP1 PUSH4 0x40C10F19 EQ PUSH2 0x1D9 JUMPI PUSH2 0xEA JUMP JUMPDEST DUP1 PUSH4 0x6FDDE03 EQ PUSH2 0xEF JUMPI DUP1 PUSH4 0x95EA7B3 EQ PUSH2 0x10D JUMPI DUP1 PUSH4 0x18160DDD EQ PUSH2 0x13D JUMPI JUMPDEST PUSH1 0x0 DUP1 REVERT JUMPDEST PUSH2 0xF7 PUSH2 0x30B JUMP JUMPDEST PUSH1 0x40 MLOAD PUSH2 0x104 SWAP2 SWAP1 PUSH2 0x1559 JUMP JUMPDEST PUSH1 0x40 MLOAD DUP1 SWAP2 SUB SWAP1 RETURN JUMPDEST PUSH2 0x127 PUSH1 0x4 DUP1 CALLDATASIZE SUB DUP2 ADD SWAP1 PUSH2 0x122 SWAP2 SWAP1 PUSH2 0x12C7 JUMP JUMPDEST PUSH2 0x39D JUMP JUMPDEST PUSH1 0x40 MLOAD PUSH2 0x134 SWAP2 SWAP1 PUSH2 0x153E JUMP JUMPDEST PUSH1 0x40 MLOAD DUP1 SWAP2 SUB SWAP1 RETURN JUMPDEST PUSH2 0x145 PUSH2 0x3BB JUMP JUMPDEST PUSH1 0x40 MLOAD PUSH2 0x152 SWAP2 SWAP1 PUSH2 0x16FB JUMP JUMPDEST PUSH1 0x40 MLOAD DUP1 SWAP2 SUB SWAP1 RETURN JUMPDEST PUSH2 0x175 PUSH1 0x4 DUP1 CALLDATASIZE SUB DUP2 ADD SWAP1 PUSH2 0x170 SWAP2 SWAP1 PUSH2 0x1274 JUMP JUMPDEST PUSH2 0x3C5 JUMP JUMPDEST PUSH1 0x40 MLOAD PUSH2 0x182 SWAP2 SWAP1 PUSH2 0x153E JUMP JUMPDEST PUSH1 0x40 MLOAD DUP1 SWAP2 SUB SWAP1 RETURN JUMPDEST PUSH2 0x193 PUSH2 0x4C6 JUMP JUMPDEST PUSH1 0x40 MLOAD PUSH2 0x1A0 SWAP2 SWAP1 PUSH2 0x1716 JUMP JUMPDEST PUSH1 0x40 MLOAD DUP1 SWAP2 SUB SWAP1 RETURN JUMPDEST PUSH2 0x1C3 PUSH1 0x4 DUP1 CALLDATASIZE SUB DUP2 ADD SWAP1 PUSH2 0x1BE SWAP2 SWAP1 PUSH2 0x12C7 JUMP JUMPDEST PUSH2 0x4CF JUMP JUMPDEST PUSH1 0x40 MLOAD PUSH2 0x1D0 SWAP2 SWAP1 PUSH2 0x153E JUMP JUMPDEST PUSH1 0x40 MLOAD DUP1 SWAP2 SUB SWAP1 RETURN JUMPDEST PUSH2 0x1F3 PUSH1 0x4 DUP1 CALLDATASIZE SUB DUP2 ADD SWAP1 PUSH2 0x1EE SWAP2 SWAP1 PUSH2 0x12C7 JUMP JUMPDEST PUSH2 0x57B JUMP JUMPDEST STOP JUMPDEST PUSH2 0x20F PUSH1 0x4 DUP1 CALLDATASIZE SUB DUP2 ADD SWAP1 PUSH2 0x20A SWAP2 SWAP1 PUSH2 0x1307 JUMP JUMPDEST PUSH2 0x619 JUMP JUMPDEST STOP JUMPDEST PUSH2 0x22B PUSH1 0x4 DUP1 CALLDATASIZE SUB DUP2 ADD SWAP1 PUSH2 0x226 SWAP2 SWAP1 PUSH2 0x1207 JUMP JUMPDEST PUSH2 0x6B5 JUMP JUMPDEST PUSH1 0x40 MLOAD PUSH2 0x238 SWAP2 SWAP1 PUSH2 0x16FB JUMP JUMPDEST PUSH1 0x40 MLOAD DUP1 SWAP2 SUB SWAP1 RETURN JUMPDEST PUSH2 0x25B PUSH1 0x4 DUP1 CALLDATASIZE SUB DUP2 ADD SWAP1 PUSH2 0x256 SWAP2 SWAP1 PUSH2 0x12C7 JUMP JUMPDEST PUSH2 0x6FD JUMP JUMPDEST STOP JUMPDEST PUSH2 0x265 PUSH2 0x79B JUMP JUMPDEST PUSH1 0x40 MLOAD PUSH2 0x272 SWAP2 SWAP1 PUSH2 0x1559 JUMP JUMPDEST PUSH1 0x40 MLOAD DUP1 SWAP2 SUB SWAP1 RETURN JUMPDEST PUSH2 0x295 PUSH1 0x4 DUP1 CALLDATASIZE SUB DUP2 ADD SWAP1 PUSH2 0x290 SWAP2 SWAP1 PUSH2 0x12C7 JUMP JUMPDEST PUSH2 0x82D JUMP JUMPDEST PUSH1 0x40 MLOAD PUSH2 0x2A2 SWAP2 SWAP1 PUSH2 0x153E JUMP JUMPDEST PUSH1 0x40 MLOAD DUP1 SWAP2 SUB SWAP1 RETURN JUMPDEST PUSH2 0x2C5 PUSH1 0x4 DUP1 CALLDATASIZE SUB DUP2 ADD SWAP1 PUSH2 0x2C0 SWAP2 SWAP1 PUSH2 0x12C7 JUMP JUMPDEST PUSH2 0x921 JUMP JUMPDEST PUSH1 0x40 MLOAD PUSH2 0x2D2 SWAP2 SWAP1 PUSH2 0x153E JUMP JUMPDEST PUSH1 0x40 MLOAD DUP1 SWAP2 SUB SWAP1 RETURN JUMPDEST PUSH2 0x2F5 PUSH1 0x4 DUP1 CALLDATASIZE SUB DUP2 ADD SWAP1 PUSH2 0x2F0 SWAP2 SWAP1 PUSH2 0x1234 JUMP JUMPDEST PUSH2 0x93F JUMP JUMPDEST PUSH1 0x40 MLOAD PUSH2 0x302 SWAP2 SWAP1 PUSH2 0x16FB JUMP JUMPDEST PUSH1 0x40 MLOAD DUP1 SWAP2 SUB SWAP1 RETURN JUMPDEST PUSH1 0x60 PUSH1 0x3 DUP1 SLOAD PUSH2 0x31A SWAP1 PUSH2 0x185F JUMP JUMPDEST DUP1 PUSH1 0x1F ADD PUSH1 0x20 DUP1 SWAP2 DIV MUL PUSH1 0x20 ADD PUSH1 0x40 MLOAD SWAP1 DUP2 ADD PUSH1 0x40 MSTORE DUP1 SWAP3 SWAP2 SWAP1 DUP2 DUP2 MSTORE PUSH1 0x20 ADD DUP3 DUP1 SLOAD PUSH2 0x346 SWAP1 PUSH2 0x185F JUMP JUMPDEST DUP1 ISZERO PUSH2 0x393 JUMPI DUP1 PUSH1 0x1F LT PUSH2 0x368 JUMPI PUSH2 0x100 DUP1 DUP4 SLOAD DIV MUL DUP4 MSTORE SWAP2 PUSH1 0x20 ADD SWAP2 PUSH2 0x393 JUMP JUMPDEST DUP3 ADD SWAP2 SWAP1 PUSH1 0x0 MSTORE PUSH1 0x20 PUSH1 0x0 KECCAK256 SWAP1 JUMPDEST DUP2 SLOAD DUP2 MSTORE SWAP1 PUSH1 0x1 ADD SWAP1 PUSH1 0x20 ADD DUP1 DUP4 GT PUSH2 0x376 JUMPI DUP3 SWAP1 SUB PUSH1 0x1F AND DUP3 ADD SWAP2 JUMPDEST POP POP POP POP POP SWAP1 POP SWAP1 JUMP JUMPDEST PUSH1 0x0 PUSH2 0x3B1 PUSH2 0x3AA PUSH2 0x9C6 JUMP JUMPDEST DUP5 DUP5 PUSH2 0x9CE JUMP JUMPDEST PUSH1 0x1 SWAP1 POP SWAP3 SWAP2 POP POP JUMP JUMPDEST PUSH1 0x0 PUSH1 0x2 SLOAD SWAP1 POP SWAP1 JUMP JUMPDEST PUSH1 0x0 PUSH2 0x3D2 DUP5 DUP5 DUP5 PUSH2 0xB99 JUMP JUMPDEST PUSH1 0x0 PUSH1 0x1 PUSH1 0x0 DUP7 PUSH20 0xFFFFFFFFFFFFFFFFFFFFFFFFFFFFFFFFFFFFFFFF AND PUSH20 0xFFFFFFFFFFFFFFFFFFFFFFFFFFFFFFFFFFFFFFFF AND DUP2 MSTORE PUSH1 0x20 ADD SWAP1 DUP2 MSTORE PUSH1 0x20 ADD PUSH1 0x0 KECCAK256 PUSH1 0x0 PUSH2 0x41D PUSH2 0x9C6 JUMP JUMPDEST PUSH20 0xFFFFFFFFFFFFFFFFFFFFFFFFFFFFFFFFFFFFFFFF AND PUSH20 0xFFFFFFFFFFFFFFFFFFFFFFFFFFFFFFFFFFFFFFFF AND DUP2 MSTORE PUSH1 0x20 ADD SWAP1 DUP2 MSTORE PUSH1 0x20 ADD PUSH1 0x0 KECCAK256 SLOAD SWAP1 POP DUP3 DUP2 LT ISZERO PUSH2 0x49D JUMPI PUSH1 0x40 MLOAD PUSH32 0x8C379A000000000000000000000000000000000000000000000000000000000 DUP2 MSTORE PUSH1 0x4 ADD PUSH2 0x494 SWAP1 PUSH2 0x15FB JUMP JUMPDEST PUSH1 0x40 MLOAD DUP1 SWAP2 SUB SWAP1 REVERT JUMPDEST PUSH2 0x4BA DUP6 PUSH2 0x4A9 PUSH2 0x9C6 JUMP JUMPDEST DUP6 DUP5 PUSH2 0x4B5 SWAP2 SWAP1 PUSH2 0x17A3 JUMP JUMPDEST PUSH2 0x9CE JUMP JUMPDEST PUSH1 0x1 SWAP2 POP POP SWAP4 SWAP3 POP POP POP JUMP JUMPDEST PUSH1 0x0 PUSH1 0x12 SWAP1 POP SWAP1 JUMP JUMPDEST PUSH1 0x0 PUSH2 0x571 PUSH2 0x4DC PUSH2 0x9C6 JUMP JUMPDEST DUP5 DUP5 PUSH1 0x1 PUSH1 0x0 PUSH2 0x4EA PUSH2 0x9C6 JUMP JUMPDEST PUSH20 0xFFFFFFFFFFFFFFFFFFFFFFFFFFFFFFFFFFFFFFFF AND PUSH20 0xFFFFFFFFFFFFFFFFFFFFFFFFFFFFFFFFFFFFFFFF AND DUP2 MSTORE PUSH1 0x20 ADD SWAP1 DUP2 MSTORE PUSH1 0x20 ADD PUSH1 0x0 KECCAK256 PUSH1 0x0 DUP9 PUSH20 0xFFFFFFFFFFFFFFFFFFFFFFFFFFFFFFFFFFFFFFFF AND PUSH20 0xFFFFFFFFFFFFFFFFFFFFFFFFFFFFFFFFFFFFFFFF AND DUP2 MSTORE PUSH1 0x20 ADD SWAP1 DUP2 MSTORE PUSH1 0x20 ADD PUSH1 0x0 KECCAK256 SLOAD PUSH2 0x56C SWAP2 SWAP1 PUSH2 0x174D JUMP JUMPDEST PUSH2 0x9CE JUMP JUMPDEST PUSH1 0x1 SWAP1 POP SWAP3 SWAP2 POP POP JUMP JUMPDEST PUSH1 0x5 PUSH1 0x0 SWAP1 SLOAD SWAP1 PUSH2 0x100 EXP SWAP1 DIV PUSH20 0xFFFFFFFFFFFFFFFFFFFFFFFFFFFFFFFFFFFFFFFF AND PUSH20 0xFFFFFFFFFFFFFFFFFFFFFFFFFFFFFFFFFFFFFFFF AND CALLER PUSH20 0xFFFFFFFFFFFFFFFFFFFFFFFFFFFFFFFFFFFFFFFF AND EQ PUSH2 0x60B JUMPI PUSH1 0x40 MLOAD PUSH32 0x8C379A000000000000000000000000000000000000000000000000000000000 DUP2 MSTORE PUSH1 0x4 ADD PUSH2 0x602 SWAP1 PUSH2 0x169B JUMP JUMPDEST PUSH1 0x40 MLOAD DUP1 SWAP2 SUB SWAP1 REVERT JUMPDEST PUSH2 0x615 DUP3 DUP3 PUSH2 0xE18 JUMP JUMPDEST POP POP JUMP JUMPDEST PUSH1 0x5 PUSH1 0x0 SWAP1 SLOAD SWAP1 PUSH2 0x100 EXP SWAP1 DIV PUSH20 0xFFFFFFFFFFFFFFFFFFFFFFFFFFFFFFFFFFFFFFFF AND PUSH20 0xFFFFFFFFFFFFFFFFFFFFFFFFFFFFFFFFFFFFFFFF AND CALLER PUSH20 0xFFFFFFFFFFFFFFFFFFFFFFFFFFFFFFFFFFFFFFFF AND EQ PUSH2 0x6A9 JUMPI PUSH1 0x40 MLOAD PUSH32 0x8C379A000000000000000000000000000000000000000000000000000000000 DUP2 MSTORE PUSH1 0x4 ADD PUSH2 0x6A0 SWAP1 PUSH2 0x169B JUMP JUMPDEST PUSH1 0x40 MLOAD DUP1 SWAP2 SUB SWAP1 REVERT JUMPDEST PUSH2 0x6B2 DUP2 PUSH2 0xF6C JUMP JUMPDEST POP JUMP JUMPDEST PUSH1 0x0 DUP1 PUSH1 0x0 DUP4 PUSH20 0xFFFFFFFFFFFFFFFFFFFFFFFFFFFFFFFFFFFFFFFF AND PUSH20 0xFFFFFFFFFFFFFFFFFFFFFFFFFFFFFFFFFFFFFFFF AND DUP2 MSTORE PUSH1 0x20 ADD SWAP1 DUP2 MSTORE PUSH1 0x20 ADD PUSH1 0x0 KECCAK256 SLOAD SWAP1 POP SWAP2 SWAP1 POP JUMP JUMPDEST PUSH1 0x5 PUSH1 0x0 SWAP1 SLOAD SWAP1 PUSH2 0x100 EXP SWAP1 DIV PUSH20 0xFFFFFFFFFFFFFFFFFFFFFFFFFFFFFFFFFFFFFFFF AND PUSH20 0xFFFFFFFFFFFFFFFFFFFFFFFFFFFFFFFFFFFFFFFF AND CALLER PUSH20 0xFFFFFFFFFFFFFFFFFFFFFFFFFFFFFFFFFFFFFFFF AND EQ PUSH2 0x78D JUMPI PUSH1 0x40 MLOAD PUSH32 0x8C379A000000000000000000000000000000000000000000000000000000000 DUP2 MSTORE PUSH1 0x4 ADD PUSH2 0x784 SWAP1 PUSH2 0x169B JUMP JUMPDEST PUSH1 0x40 MLOAD DUP1 SWAP2 SUB SWAP1 REVERT JUMPDEST PUSH2 0x797 DUP3 DUP3 PUSH2 0xF80 JUMP JUMPDEST POP POP JUMP JUMPDEST PUSH1 0x60 PUSH1 0x4 DUP1 SLOAD PUSH2 0x7AA SWAP1 PUSH2 0x185F JUMP JUMPDEST DUP1 PUSH1 0x1F ADD PUSH1 0x20 DUP1 SWAP2 DIV MUL PUSH1 0x20 ADD PUSH1 0x40 MLOAD SWAP1 DUP2 ADD PUSH1 0x40 MSTORE DUP1 SWAP3 SWAP2 SWAP1 DUP2 DUP2 MSTORE PUSH1 0x20 ADD DUP3 DUP1 SLOAD PUSH2 0x7D6 SWAP1 PUSH2 0x185F JUMP JUMPDEST DUP1 ISZERO PUSH2 0x823 JUMPI DUP1 PUSH1 0x1F LT PUSH2 0x7F8 JUMPI PUSH2 0x100 DUP1 DUP4 SLOAD DIV MUL DUP4 MSTORE SWAP2 PUSH1 0x20 ADD SWAP2 PUSH2 0x823 JUMP JUMPDEST DUP3 ADD SWAP2 SWAP1 PUSH1 0x0 MSTORE PUSH1 0x20 PUSH1 0x0 KECCAK256 SWAP1 JUMPDEST DUP2 SLOAD DUP2 MSTORE SWAP1 PUSH1 0x1 ADD SWAP1 PUSH1 0x20 ADD DUP1 DUP4 GT PUSH2 0x806 JUMPI DUP3 SWAP1 SUB PUSH1 0x1F AND DUP3 ADD SWAP2 JUMPDEST POP POP POP POP POP SWAP1 POP SWAP1 JUMP JUMPDEST PUSH1 0x0 DUP1 PUSH1 0x1 PUSH1 0x0 PUSH2 0x83C PUSH2 0x9C6 JUMP JUMPDEST PUSH20 0xFFFFFFFFFFFFFFFFFFFFFFFFFFFFFFFFFFFFFFFF AND PUSH20 0xFFFFFFFFFFFFFFFFFFFFFFFFFFFFFFFFFFFFFFFF AND DUP2 MSTORE PUSH1 0x20 ADD SWAP1 DUP2 MSTORE PUSH1 0x20 ADD PUSH1 0x0 KECCAK256 PUSH1 0x0 DUP6 PUSH20 0xFFFFFFFFFFFFFFFFFFFFFFFFFFFFFFFFFFFFFFFF AND PUSH20 0xFFFFFFFFFFFFFFFFFFFFFFFFFFFFFFFFFFFFFFFF AND DUP2 MSTORE PUSH1 0x20 ADD SWAP1 DUP2 MSTORE PUSH1 0x20 ADD PUSH1 0x0 KECCAK256 SLOAD SWAP1 POP DUP3 DUP2 LT ISZERO PUSH2 0x8F9 JUMPI PUSH1 0x40 MLOAD PUSH32 0x8C379A000000000000000000000000000000000000000000000000000000000 DUP2 MSTORE PUSH1 0x4 ADD PUSH2 0x8F0 SWAP1 PUSH2 0x16BB JUMP JUMPDEST PUSH1 0x40 MLOAD DUP1 SWAP2 SUB SWAP1 REVERT JUMPDEST PUSH2 0x916 PUSH2 0x904 PUSH2 0x9C6 JUMP JUMPDEST DUP6 DUP6 DUP5 PUSH2 0x911 SWAP2 SWAP1 PUSH2 0x17A3 JUMP JUMPDEST PUSH2 0x9CE JUMP JUMPDEST PUSH1 0x1 SWAP2 POP POP SWAP3 SWAP2 POP POP JUMP JUMPDEST PUSH1 0x0 PUSH2 0x935 PUSH2 0x92E PUSH2 0x9C6 JUMP JUMPDEST DUP5 DUP5 PUSH2 0xB99 JUMP JUMPDEST PUSH1 0x1 SWAP1 POP SWAP3 SWAP2 POP POP JUMP JUMPDEST PUSH1 0x0 PUSH1 0x1 PUSH1 0x0 DUP5 PUSH20 0xFFFFFFFFFFFFFFFFFFFFFFFFFFFFFFFFFFFFFFFF AND PUSH20 0xFFFFFFFFFFFFFFFFFFFFFFFFFFFFFFFFFFFFFFFF AND DUP2 MSTORE PUSH1 0x20 ADD SWAP1 DUP2 MSTORE PUSH1 0x20 ADD PUSH1 0x0 KECCAK256 PUSH1 0x0 DUP4 PUSH20 0xFFFFFFFFFFFFFFFFFFFFFFFFFFFFFFFFFFFFFFFF AND PUSH20 0xFFFFFFFFFFFFFFFFFFFFFFFFFFFFFFFFFFFFFFFF AND DUP2 MSTORE PUSH1 0x20 ADD SWAP1 DUP2 MSTORE PUSH1 0x20 ADD PUSH1 0x0 KECCAK256 SLOAD SWAP1 POP SWAP3 SWAP2 POP POP JUMP JUMPDEST PUSH1 0x0 CALLER SWAP1 POP SWAP1 JUMP JUMPDEST PUSH1 0x0 PUSH20 0xFFFFFFFFFFFFFFFFFFFFFFFFFFFFFFFFFFFFFFFF AND DUP4 PUSH20 0xFFFFFFFFFFFFFFFFFFFFFFFFFFFFFFFFFFFFFFFF AND EQ ISZERO PUSH2 0xA3E JUMPI PUSH1 0x40 MLOAD PUSH32 0x8C379A000000000000000000000000000000000000000000000000000000000 DUP2 MSTORE PUSH1 0x4 ADD PUSH2 0xA35 SWAP1 PUSH2 0x167B JUMP JUMPDEST PUSH1 0x40 MLOAD DUP1 SWAP2 SUB SWAP1 REVERT JUMPDEST PUSH1 0x0 PUSH20 0xFFFFFFFFFFFFFFFFFFFFFFFFFFFFFFFFFFFFFFFF AND DUP3 PUSH20 0xFFFFFFFFFFFFFFFFFFFFFFFFFFFFFFFFFFFFFFFF AND EQ ISZERO PUSH2 0xAAE JUMPI PUSH1 0x40 MLOAD PUSH32 0x8C379A000000000000000000000000000000000000000000000000000000000 DUP2 MSTORE PUSH1 0x4 ADD PUSH2 0xAA5 SWAP1 PUSH2 0x15BB JUMP JUMPDEST PUSH1 0x40 MLOAD DUP1 SWAP2 SUB SWAP1 REVERT JUMPDEST DUP1 PUSH1 0x1 PUSH1 0x0 DUP6 PUSH20 0xFFFFFFFFFFFFFFFFFFFFFFFFFFFFFFFFFFFFFFFF AND PUSH20 0xFFFFFFFFFFFFFFFFFFFFFFFFFFFFFFFFFFFFFFFF AND DUP2 MSTORE PUSH1 0x20 ADD SWAP1 DUP2 MSTORE PUSH1 0x20 ADD PUSH1 0x0 KECCAK256 PUSH1 0x0 DUP5 PUSH20 0xFFFFFFFFFFFFFFFFFFFFFFFFFFFFFFFFFFFFFFFF AND PUSH20 0xFFFFFFFFFFFFFFFFFFFFFFFFFFFFFFFFFFFFFFFF AND DUP2 MSTORE PUSH1 0x20 ADD SWAP1 DUP2 MSTORE PUSH1 0x20 ADD PUSH1 0x0 KECCAK256 DUP2 SWAP1 SSTORE POP DUP2 PUSH20 0xFFFFFFFFFFFFFFFFFFFFFFFFFFFFFFFFFFFFFFFF AND DUP4 PUSH20 0xFFFFFFFFFFFFFFFFFFFFFFFFFFFFFFFFFFFFFFFF AND PUSH32 0x8C5BE1E5EBEC7D5BD14F71427D1E84F3DD0314C0F7B2291E5B200AC8C7C3B925 DUP4 PUSH1 0x40 MLOAD PUSH2 0xB8C SWAP2 SWAP1 PUSH2 0x16FB JUMP JUMPDEST PUSH1 0x40 MLOAD DUP1 SWAP2 SUB SWAP1 LOG3 POP POP POP JUMP JUMPDEST PUSH1 0x0 PUSH20 0xFFFFFFFFFFFFFFFFFFFFFFFFFFFFFFFFFFFFFFFF AND DUP4 PUSH20 0xFFFFFFFFFFFFFFFFFFFFFFFFFFFFFFFFFFFFFFFF AND EQ ISZERO PUSH2 0xC09 JUMPI PUSH1 0x40 MLOAD PUSH32 0x8C379A000000000000000000000000000000000000000000000000000000000 DUP2 MSTORE PUSH1 0x4 ADD PUSH2 0xC00 SWAP1 PUSH2 0x165B JUMP JUMPDEST PUSH1 0x40 MLOAD DUP1 SWAP2 SUB SWAP1 REVERT JUMPDEST PUSH1 0x0 PUSH20 0xFFFFFFFFFFFFFFFFFFFFFFFFFFFFFFFFFFFFFFFF AND DUP3 PUSH20 0xFFFFFFFFFFFFFFFFFFFFFFFFFFFFFFFFFFFFFFFF AND EQ ISZERO PUSH2 0xC79 JUMPI PUSH1 0x40 MLOAD PUSH32 0x8C379A000000000000000000000000000000000000000000000000000000000 DUP2 MSTORE PUSH1 0x4 ADD PUSH2 0xC70 SWAP1 PUSH2 0x157B JUMP JUMPDEST PUSH1 0x40 MLOAD DUP1 SWAP2 SUB SWAP1 REVERT JUMPDEST PUSH2 0xC84 DUP4 DUP4 DUP4 PUSH2 0x1004 JUMP JUMPDEST PUSH1 0x0 DUP1 PUSH1 0x0 DUP6 PUSH20 0xFFFFFFFFFFFFFFFFFFFFFFFFFFFFFFFFFFFFFFFF AND PUSH20 0xFFFFFFFFFFFFFFFFFFFFFFFFFFFFFFFFFFFFFFFF AND DUP2 MSTORE PUSH1 0x20 ADD SWAP1 DUP2 MSTORE PUSH1 0x20 ADD PUSH1 0x0 KECCAK256 SLOAD SWAP1 POP DUP2 DUP2 LT ISZERO PUSH2 0xD0A JUMPI PUSH1 0x40 MLOAD PUSH32 0x8C379A000000000000000000000000000000000000000000000000000000000 DUP2 MSTORE PUSH1 0x4 ADD PUSH2 0xD01 SWAP1 PUSH2 0x15DB JUMP JUMPDEST PUSH1 0x40 MLOAD DUP1 SWAP2 SUB SWAP1 REVERT JUMPDEST DUP2 DUP2 PUSH2 0xD16 SWAP2 SWAP1 PUSH2 0x17A3 JUMP JUMPDEST PUSH1 0x0 DUP1 DUP7 PUSH20 0xFFFFFFFFFFFFFFFFFFFFFFFFFFFFFFFFFFFFFFFF AND PUSH20 0xFFFFFFFFFFFFFFFFFFFFFFFFFFFFFFFFFFFFFFFF AND DUP2 MSTORE PUSH1 0x20 ADD SWAP1 DUP2 MSTORE PUSH1 0x20 ADD PUSH1 0x0 KECCAK256 DUP2 SWAP1 SSTORE POP DUP2 PUSH1 0x0 DUP1 DUP6 PUSH20 0xFFFFFFFFFFFFFFFFFFFFFFFFFFFFFFFFFFFFFFFF AND PUSH20 0xFFFFFFFFFFFFFFFFFFFFFFFFFFFFFFFFFFFFFFFF AND DUP2 MSTORE PUSH1 0x20 ADD SWAP1 DUP2 MSTORE PUSH1 0x20 ADD PUSH1 0x0 KECCAK256 PUSH1 0x0 DUP3 DUP3 SLOAD PUSH2 0xDA6 SWAP2 SWAP1 PUSH2 0x174D JUMP JUMPDEST SWAP3 POP POP DUP2 SWAP1 SSTORE POP DUP3 PUSH20 0xFFFFFFFFFFFFFFFFFFFFFFFFFFFFFFFFFFFFFFFF AND DUP5 PUSH20 0xFFFFFFFFFFFFFFFFFFFFFFFFFFFFFFFFFFFFFFFF AND PUSH32 0xDDF252AD1BE2C89B69C2B068FC378DAA952BA7F163C4A11628F55A4DF523B3EF DUP5 PUSH1 0x40 MLOAD PUSH2 0xE0A SWAP2 SWAP1 PUSH2 0x16FB JUMP JUMPDEST PUSH1 0x40 MLOAD DUP1 SWAP2 SUB SWAP1 LOG3 POP POP POP POP JUMP JUMPDEST PUSH1 0x0 PUSH20 0xFFFFFFFFFFFFFFFFFFFFFFFFFFFFFFFFFFFFFFFF AND DUP3 PUSH20 0xFFFFFFFFFFFFFFFFFFFFFFFFFFFFFFFFFFFFFFFF AND EQ ISZERO PUSH2 0xE88 JUMPI PUSH1 0x40 MLOAD PUSH32 0x8C379A000000000000000000000000000000000000000000000000000000000 DUP2 MSTORE PUSH1 0x4 ADD PUSH2 0xE7F SWAP1 PUSH2 0x16DB JUMP JUMPDEST PUSH1 0x40 MLOAD DUP1 SWAP2 SUB SWAP1 REVERT JUMPDEST PUSH2 0xE94 PUSH1 0x0 DUP4 DUP4 PUSH2 0x1004 JUMP JUMPDEST DUP1 PUSH1 0x2 PUSH1 0x0 DUP3 DUP3 SLOAD PUSH2 0xEA6 SWAP2 SWAP1 PUSH2 0x174D JUMP JUMPDEST SWAP3 POP POP DUP2 SWAP1 SSTORE POP DUP1 PUSH1 0x0 DUP1 DUP5 PUSH20 0xFFFFFFFFFFFFFFFFFFFFFFFFFFFFFFFFFFFFFFFF AND PUSH20 0xFFFFFFFFFFFFFFFFFFFFFFFFFFFFFFFFFFFFFFFF AND DUP2 MSTORE PUSH1 0x20 ADD SWAP1 DUP2 MSTORE PUSH1 0x20 ADD PUSH1 0x0 KECCAK256 PUSH1 0x0 DUP3 DUP3 SLOAD PUSH2 0xEFB SWAP2 SWAP1 PUSH2 0x174D JUMP JUMPDEST SWAP3 POP POP DUP2 SWAP1 SSTORE POP DUP2 PUSH20 0xFFFFFFFFFFFFFFFFFFFFFFFFFFFFFFFFFFFFFFFF AND PUSH1 0x0 PUSH20 0xFFFFFFFFFFFFFFFFFFFFFFFFFFFFFFFFFFFFFFFF AND PUSH32 0xDDF252AD1BE2C89B69C2B068FC378DAA952BA7F163C4A11628F55A4DF523B3EF DUP4 PUSH1 0x40 MLOAD PUSH2 0xF60 SWAP2 SWAP1 PUSH2 0x16FB JUMP JUMPDEST PUSH1 0x40 MLOAD DUP1 SWAP2 SUB SWAP1 LOG3 POP POP JUMP JUMPDEST PUSH2 0xF7D PUSH2 0xF77 PUSH2 0x9C6 JUMP JUMPDEST DUP3 PUSH2 0x1009 JUMP JUMPDEST POP JUMP JUMPDEST PUSH1 0x0 PUSH2 0xF93 DUP4 PUSH2 0xF8E PUSH2 0x9C6 JUMP JUMPDEST PUSH2 0x93F JUMP JUMPDEST SWAP1 POP DUP2 DUP2 LT ISZERO PUSH2 0xFD8 JUMPI PUSH1 0x40 MLOAD PUSH32 0x8C379A000000000000000000000000000000000000000000000000000000000 DUP2 MSTORE PUSH1 0x4 ADD PUSH2 0xFCF SWAP1 PUSH2 0x161B JUMP JUMPDEST PUSH1 0x40 MLOAD DUP1 SWAP2 SUB SWAP1 REVERT JUMPDEST PUSH2 0xFF5 DUP4 PUSH2 0xFE4 PUSH2 0x9C6 JUMP JUMPDEST DUP5 DUP5 PUSH2 0xFF0 SWAP2 SWAP1 PUSH2 0x17A3 JUMP JUMPDEST PUSH2 0x9CE JUMP JUMPDEST PUSH2 0xFFF DUP4 DUP4 PUSH2 0x1009 JUMP JUMPDEST POP POP POP JUMP JUMPDEST POP POP POP JUMP JUMPDEST PUSH1 0x0 PUSH20 0xFFFFFFFFFFFFFFFFFFFFFFFFFFFFFFFFFFFFFFFF AND DUP3 PUSH20 0xFFFFFFFFFFFFFFFFFFFFFFFFFFFFFFFFFFFFFFFF AND EQ ISZERO PUSH2 0x1079 JUMPI PUSH1 0x40 MLOAD PUSH32 0x8C379A000000000000000000000000000000000000000000000000000000000 DUP2 MSTORE PUSH1 0x4 ADD PUSH2 0x1070 SWAP1 PUSH2 0x163B JUMP JUMPDEST PUSH1 0x40 MLOAD DUP1 SWAP2 SUB SWAP1 REVERT JUMPDEST PUSH2 0x1085 DUP3 PUSH1 0x0 DUP4 PUSH2 0x1004 JUMP JUMPDEST PUSH1 0x0 DUP1 PUSH1 0x0 DUP5 PUSH20 0xFFFFFFFFFFFFFFFFFFFFFFFFFFFFFFFFFFFFFFFF AND PUSH20 0xFFFFFFFFFFFFFFFFFFFFFFFFFFFFFFFFFFFFFFFF AND DUP2 MSTORE PUSH1 0x20 ADD SWAP1 DUP2 MSTORE PUSH1 0x20 ADD PUSH1 0x0 KECCAK256 SLOAD SWAP1 POP DUP2 DUP2 LT ISZERO PUSH2 0x110B JUMPI PUSH1 0x40 MLOAD PUSH32 0x8C379A000000000000000000000000000000000000000000000000000000000 DUP2 MSTORE PUSH1 0x4 ADD PUSH2 0x1102 SWAP1 PUSH2 0x159B JUMP JUMPDEST PUSH1 0x40 MLOAD DUP1 SWAP2 SUB SWAP1 REVERT JUMPDEST DUP2 DUP2 PUSH2 0x1117 SWAP2 SWAP1 PUSH2 0x17A3 JUMP JUMPDEST PUSH1 0x0 DUP1 DUP6 PUSH20 0xFFFFFFFFFFFFFFFFFFFFFFFFFFFFFFFFFFFFFFFF AND PUSH20 0xFFFFFFFFFFFFFFFFFFFFFFFFFFFFFFFFFFFFFFFF AND DUP2 MSTORE PUSH1 0x20 ADD SWAP1 DUP2 MSTORE PUSH1 0x20 ADD PUSH1 0x0 KECCAK256 DUP2 SWAP1 SSTORE POP DUP2 PUSH1 0x2 PUSH1 0x0 DUP3 DUP3 SLOAD PUSH2 0x116B SWAP2 SWAP1 PUSH2 0x17A3 JUMP JUMPDEST SWAP3 POP POP DUP2 SWAP1 SSTORE POP PUSH1 0x0 PUSH20 0xFFFFFFFFFFFFFFFFFFFFFFFFFFFFFFFFFFFFFFFF AND DUP4 PUSH20 0xFFFFFFFFFFFFFFFFFFFFFFFFFFFFFFFFFFFFFFFF AND PUSH32 0xDDF252AD1BE2C89B69C2B068FC378DAA952BA7F163C4A11628F55A4DF523B3EF DUP5 PUSH1 0x40 MLOAD PUSH2 0x11D0 SWAP2 SWAP1 PUSH2 0x16FB JUMP JUMPDEST PUSH1 0x40 MLOAD DUP1 SWAP2 SUB SWAP1 LOG3 POP POP POP JUMP JUMPDEST PUSH1 0x0 DUP2 CALLDATALOAD SWAP1 POP PUSH2 0x11EC DUP2 PUSH2 0x1C93 JUMP JUMPDEST SWAP3 SWAP2 POP POP JUMP JUMPDEST PUSH1 0x0 DUP2 CALLDATALOAD SWAP1 POP PUSH2 0x1201 DUP2 PUSH2 0x1CAA JUMP JUMPDEST SWAP3 SWAP2 POP POP JUMP JUMPDEST PUSH1 0x0 PUSH1 0x20 DUP3 DUP5 SUB SLT ISZERO PUSH2 0x121D JUMPI PUSH2 0x121C PUSH2 0x18EF JUMP JUMPDEST JUMPDEST PUSH1 0x0 PUSH2 0x122B DUP5 DUP3 DUP6 ADD PUSH2 0x11DD JUMP JUMPDEST SWAP2 POP POP SWAP3 SWAP2 POP POP JUMP JUMPDEST PUSH1 0x0 DUP1 PUSH1 0x40 DUP4 DUP6 SUB SLT ISZERO PUSH2 0x124B JUMPI PUSH2 0x124A PUSH2 0x18EF JUMP JUMPDEST JUMPDEST PUSH1 0x0 PUSH2 0x1259 DUP6 DUP3 DUP7 ADD PUSH2 0x11DD JUMP JUMPDEST SWAP3 POP POP PUSH1 0x20 PUSH2 0x126A DUP6 DUP3 DUP7 ADD PUSH2 0x11DD JUMP JUMPDEST SWAP2 POP POP SWAP3 POP SWAP3 SWAP1 POP JUMP JUMPDEST PUSH1 0x0 DUP1 PUSH1 0x0 PUSH1 0x60 DUP5 DUP7 SUB SLT ISZERO PUSH2 0x128D JUMPI PUSH2 0x128C PUSH2 0x18EF JUMP JUMPDEST JUMPDEST PUSH1 0x0 PUSH2 0x129B DUP7 DUP3 DUP8 ADD PUSH2 0x11DD JUMP JUMPDEST SWAP4 POP POP PUSH1 0x20 PUSH2 0x12AC DUP7 DUP3 DUP8 ADD PUSH2 0x11DD JUMP JUMPDEST SWAP3 POP POP PUSH1 0x40 PUSH2 0x12BD DUP7 DUP3 DUP8 ADD PUSH2 0x11F2 JUMP JUMPDEST SWAP2 POP POP SWAP3 POP SWAP3 POP SWAP3 JUMP JUMPDEST PUSH1 0x0 DUP1 PUSH1 0x40 DUP4 DUP6 SUB SLT ISZERO PUSH2 0x12DE JUMPI PUSH2 0x12DD PUSH2 0x18EF JUMP JUMPDEST JUMPDEST PUSH1 0x0 PUSH2 0x12EC DUP6 DUP3 DUP7 ADD PUSH2 0x11DD JUMP JUMPDEST SWAP3 POP POP PUSH1 0x20 PUSH2 0x12FD DUP6 DUP3 DUP7 ADD PUSH2 0x11F2 JUMP JUMPDEST SWAP2 POP POP SWAP3 POP SWAP3 SWAP1 POP JUMP JUMPDEST PUSH1 0x0 PUSH1 0x20 DUP3 DUP5 SUB SLT ISZERO PUSH2 0x131D JUMPI PUSH2 0x131C PUSH2 0x18EF JUMP JUMPDEST JUMPDEST PUSH1 0x0 PUSH2 0x132B DUP5 DUP3 DUP6 ADD PUSH2 0x11F2 JUMP JUMPDEST SWAP2 POP POP SWAP3 SWAP2 POP POP JUMP JUMPDEST PUSH2 0x133D DUP2 PUSH2 0x17E9 JUMP JUMPDEST DUP3 MSTORE POP POP JUMP JUMPDEST PUSH1 0x0 PUSH2 0x134E DUP3 PUSH2 0x1731 JUMP JUMPDEST PUSH2 0x1358 DUP2 DUP6 PUSH2 0x173C JUMP JUMPDEST SWAP4 POP PUSH2 0x1368 DUP2 DUP6 PUSH1 0x20 DUP7 ADD PUSH2 0x182C JUMP JUMPDEST PUSH2 0x1371 DUP2 PUSH2 0x18F4 JUMP JUMPDEST DUP5 ADD SWAP2 POP POP SWAP3 SWAP2 POP POP JUMP JUMPDEST PUSH1 0x0 PUSH2 0x1389 PUSH1 0x23 DUP4 PUSH2 0x173C JUMP JUMPDEST SWAP2 POP PUSH2 0x1394 DUP3 PUSH2 0x1905 JUMP JUMPDEST PUSH1 0x40 DUP3 ADD SWAP1 POP SWAP2 SWAP1 POP JUMP JUMPDEST PUSH1 0x0 PUSH2 0x13AC PUSH1 0x22 DUP4 PUSH2 0x173C JUMP JUMPDEST SWAP2 POP PUSH2 0x13B7 DUP3 PUSH2 0x1954 JUMP JUMPDEST PUSH1 0x40 DUP3 ADD SWAP1 POP SWAP2 SWAP1 POP JUMP JUMPDEST PUSH1 0x0 PUSH2 0x13CF PUSH1 0x22 DUP4 PUSH2 0x173C JUMP JUMPDEST SWAP2 POP PUSH2 0x13DA DUP3 PUSH2 0x19A3 JUMP JUMPDEST PUSH1 0x40 DUP3 ADD SWAP1 POP SWAP2 SWAP1 POP JUMP JUMPDEST PUSH1 0x0 PUSH2 0x13F2 PUSH1 0x26 DUP4 PUSH2 0x173C JUMP JUMPDEST SWAP2 POP PUSH2 0x13FD DUP3 PUSH2 0x19F2 JUMP JUMPDEST PUSH1 0x40 DUP3 ADD SWAP1 POP SWAP2 SWAP1 POP JUMP JUMPDEST PUSH1 0x0 PUSH2 0x1415 PUSH1 0x28 DUP4 PUSH2 0x173C JUMP JUMPDEST SWAP2 POP PUSH2 0x1420 DUP3 PUSH2 0x1A41 JUMP JUMPDEST PUSH1 0x40 DUP3 ADD SWAP1 POP SWAP2 SWAP1 POP JUMP JUMPDEST PUSH1 0x0 PUSH2 0x1438 PUSH1 0x24 DUP4 PUSH2 0x173C JUMP JUMPDEST SWAP2 POP PUSH2 0x1443 DUP3 PUSH2 0x1A90 JUMP JUMPDEST PUSH1 0x40 DUP3 ADD SWAP1 POP SWAP2 SWAP1 POP JUMP JUMPDEST PUSH1 0x0 PUSH2 0x145B PUSH1 0x21 DUP4 PUSH2 0x173C JUMP JUMPDEST SWAP2 POP PUSH2 0x1466 DUP3 PUSH2 0x1ADF JUMP JUMPDEST PUSH1 0x40 DUP3 ADD SWAP1 POP SWAP2 SWAP1 POP JUMP JUMPDEST PUSH1 0x0 PUSH2 0x147E PUSH1 0x25 DUP4 PUSH2 0x173C JUMP JUMPDEST SWAP2 POP PUSH2 0x1489 DUP3 PUSH2 0x1B2E JUMP JUMPDEST PUSH1 0x40 DUP3 ADD SWAP1 POP SWAP2 SWAP1 POP JUMP JUMPDEST PUSH1 0x0 PUSH2 0x14A1 PUSH1 0x24 DUP4 PUSH2 0x173C JUMP JUMPDEST SWAP2 POP PUSH2 0x14AC DUP3 PUSH2 0x1B7D JUMP JUMPDEST PUSH1 0x40 DUP3 ADD SWAP1 POP SWAP2 SWAP1 POP JUMP JUMPDEST PUSH1 0x0 PUSH2 0x14C4 PUSH1 0x33 DUP4 PUSH2 0x173C JUMP JUMPDEST SWAP2 POP PUSH2 0x14CF DUP3 PUSH2 0x1BCC JUMP JUMPDEST PUSH1 0x40 DUP3 ADD SWAP1 POP SWAP2 SWAP1 POP JUMP JUMPDEST PUSH1 0x0 PUSH2 0x14E7 PUSH1 0x25 DUP4 PUSH2 0x173C JUMP JUMPDEST SWAP2 POP PUSH2 0x14F2 DUP3 PUSH2 0x1C1B JUMP JUMPDEST PUSH1 0x40 DUP3 ADD SWAP1 POP SWAP2 SWAP1 POP JUMP JUMPDEST PUSH1 0x0 PUSH2 0x150A PUSH1 0x1F DUP4 PUSH2 0x173C JUMP JUMPDEST SWAP2 POP PUSH2 0x1515 DUP3 PUSH2 0x1C6A JUMP JUMPDEST PUSH1 0x20 DUP3 ADD SWAP1 POP SWAP2 SWAP1 POP JUMP JUMPDEST PUSH2 0x1529 DUP2 PUSH2 0x1815 JUMP JUMPDEST DUP3 MSTORE POP POP JUMP JUMPDEST PUSH2 0x1538 DUP2 PUSH2 0x181F JUMP JUMPDEST DUP3 MSTORE POP POP JUMP JUMPDEST PUSH1 0x0 PUSH1 0x20 DUP3 ADD SWAP1 POP PUSH2 0x1553 PUSH1 0x0 DUP4 ADD DUP5 PUSH2 0x1334 JUMP JUMPDEST SWAP3 SWAP2 POP POP JUMP JUMPDEST PUSH1 0x0 PUSH1 0x20 DUP3 ADD SWAP1 POP DUP2 DUP2 SUB PUSH1 0x0 DUP4 ADD MSTORE PUSH2 0x1573 DUP2 DUP5 PUSH2 0x1343 JUMP JUMPDEST SWAP1 POP SWAP3 SWAP2 POP POP JUMP JUMPDEST PUSH1 0x0 PUSH1 0x20 DUP3 ADD SWAP1 POP DUP2 DUP2 SUB PUSH1 0x0 DUP4 ADD MSTORE PUSH2 0x1594 DUP2 PUSH2 0x137C JUMP JUMPDEST SWAP1 POP SWAP2 SWAP1 POP JUMP JUMPDEST PUSH1 0x0 PUSH1 0x20 DUP3 ADD SWAP1 POP DUP2 DUP2 SUB PUSH1 0x0 DUP4 ADD MSTORE PUSH2 0x15B4 DUP2 PUSH2 0x139F JUMP JUMPDEST SWAP1 POP SWAP2 SWAP1 POP JUMP JUMPDEST PUSH1 0x0 PUSH1 0x20 DUP3 ADD SWAP1 POP DUP2 DUP2 SUB PUSH1 0x0 DUP4 ADD MSTORE PUSH2 0x15D4 DUP2 PUSH2 0x13C2 JUMP JUMPDEST SWAP1 POP SWAP2 SWAP1 POP JUMP JUMPDEST PUSH1 0x0 PUSH1 0x20 DUP3 ADD SWAP1 POP DUP2 DUP2 SUB PUSH1 0x0 DUP4 ADD MSTORE PUSH2 0x15F4 DUP2 PUSH2 0x13E5 JUMP JUMPDEST SWAP1 POP SWAP2 SWAP1 POP JUMP JUMPDEST PUSH1 0x0 PUSH1 0x20 DUP3 ADD SWAP1 POP DUP2 DUP2 SUB PUSH1 0x0 DUP4 ADD MSTORE PUSH2 0x1614 DUP2 PUSH2 0x1408 JUMP JUMPDEST SWAP1 POP SWAP2 SWAP1 POP JUMP JUMPDEST PUSH1 0x0 PUSH1 0x20 DUP3 ADD SWAP1 POP DUP2 DUP2 SUB PUSH1 0x0 DUP4 ADD MSTORE PUSH2 0x1634 DUP2 PUSH2 0x142B JUMP JUMPDEST SWAP1 POP SWAP2 SWAP1 POP JUMP JUMPDEST PUSH1 0x0 PUSH1 0x20 DUP3 ADD SWAP1 POP DUP2 DUP2 SUB PUSH1 0x0 DUP4 ADD MSTORE PUSH2 0x1654 DUP2 PUSH2 0x144E JUMP JUMPDEST SWAP1 POP SWAP2 SWAP1 POP JUMP JUMPDEST PUSH1 0x0 PUSH1 0x20 DUP3 ADD SWAP1 POP DUP2 DUP2 SUB PUSH1 0x0 DUP4 ADD MSTORE PUSH2 0x1674 DUP2 PUSH2 0x1471 JUMP JUMPDEST SWAP1 POP SWAP2 SWAP1 POP JUMP JUMPDEST PUSH1 0x0 PUSH1 0x20 DUP3 ADD SWAP1 POP DUP2 DUP2 SUB PUSH1 0x0 DUP4 ADD MSTORE PUSH2 0x1694 DUP2 PUSH2 0x1494 JUMP JUMPDEST SWAP1 POP SWAP2 SWAP1 POP JUMP JUMPDEST PUSH1 0x0 PUSH1 0x20 DUP3 ADD SWAP1 POP DUP2 DUP2 SUB PUSH1 0x0 DUP4 ADD MSTORE PUSH2 0x16B4 DUP2 PUSH2 0x14B7 JUMP JUMPDEST SWAP1 POP SWAP2 SWAP1 POP JUMP JUMPDEST PUSH1 0x0 PUSH1 0x20 DUP3 ADD SWAP1 POP DUP2 DUP2 SUB PUSH1 0x0 DUP4 ADD MSTORE PUSH2 0x16D4 DUP2 PUSH2 0x14DA JUMP JUMPDEST SWAP1 POP SWAP2 SWAP1 POP JUMP JUMPDEST PUSH1 0x0 PUSH1 0x20 DUP3 ADD SWAP1 POP DUP2 DUP2 SUB PUSH1 0x0 DUP4 ADD MSTORE PUSH2 0x16F4 DUP2 PUSH2 0x14FD JUMP JUMPDEST SWAP1 POP SWAP2 SWAP1 POP JUMP JUMPDEST PUSH1 0x0 PUSH1 0x20 DUP3 ADD SWAP1 POP PUSH2 0x1710 PUSH1 0x0 DUP4 ADD DUP5 PUSH2 0x1520 JUMP JUMPDEST SWAP3 SWAP2 POP POP JUMP JUMPDEST PUSH1 0x0 PUSH1 0x20 DUP3 ADD SWAP1 POP PUSH2 0x172B PUSH1 0x0 DUP4 ADD DUP5 PUSH2 0x152F JUMP JUMPDEST SWAP3 SWAP2 POP POP JUMP JUMPDEST PUSH1 0x0 DUP2 MLOAD SWAP1 POP SWAP2 SWAP1 POP JUMP JUMPDEST PUSH1 0x0 DUP3 DUP3 MSTORE PUSH1 0x20 DUP3 ADD SWAP1 POP SWAP3 SWAP2 POP POP JUMP JUMPDEST PUSH1 0x0 PUSH2 0x1758 DUP3 PUSH2 0x1815 JUMP JUMPDEST SWAP2 POP PUSH2 0x1763 DUP4 PUSH2 0x1815 JUMP JUMPDEST SWAP3 POP DUP3 PUSH32 0xFFFFFFFFFFFFFFFFFFFFFFFFFFFFFFFFFFFFFFFFFFFFFFFFFFFFFFFFFFFFFFFF SUB DUP3 GT ISZERO PUSH2 0x1798 JUMPI PUSH2 0x1797 PUSH2 0x1891 JUMP JUMPDEST JUMPDEST DUP3 DUP3 ADD SWAP1 POP SWAP3 SWAP2 POP POP JUMP JUMPDEST PUSH1 0x0 PUSH2 0x17AE DUP3 PUSH2 0x1815 JUMP JUMPDEST SWAP2 POP PUSH2 0x17B9 DUP4 PUSH2 0x1815 JUMP JUMPDEST SWAP3 POP DUP3 DUP3 LT ISZERO PUSH2 0x17CC JUMPI PUSH2 0x17CB PUSH2 0x1891 JUMP JUMPDEST JUMPDEST DUP3 DUP3 SUB SWAP1 POP SWAP3 SWAP2 POP POP JUMP JUMPDEST PUSH1 0x0 PUSH2 0x17E2 DUP3 PUSH2 0x17F5 JUMP JUMPDEST SWAP1 POP SWAP2 SWAP1 POP JUMP JUMPDEST PUSH1 0x0 DUP2 ISZERO ISZERO SWAP1 POP SWAP2 SWAP1 POP JUMP JUMPDEST PUSH1 0x0 PUSH20 0xFFFFFFFFFFFFFFFFFFFFFFFFFFFFFFFFFFFFFFFF DUP3 AND SWAP1 POP SWAP2 SWAP1 POP JUMP JUMPDEST PUSH1 0x0 DUP2 SWAP1 POP SWAP2 SWAP1 POP JUMP JUMPDEST PUSH1 0x0 PUSH1 0xFF DUP3 AND SWAP1 POP SWAP2 SWAP1 POP JUMP JUMPDEST PUSH1 0x0 JUMPDEST DUP4 DUP2 LT ISZERO PUSH2 0x184A JUMPI DUP1 DUP3 ADD MLOAD DUP2 DUP5 ADD MSTORE PUSH1 0x20 DUP2 ADD SWAP1 POP PUSH2 0x182F JUMP JUMPDEST DUP4 DUP2 GT ISZERO PUSH2 0x1859 JUMPI PUSH1 0x0 DUP5 DUP5 ADD MSTORE JUMPDEST POP POP POP POP JUMP JUMPDEST PUSH1 0x0 PUSH1 0x2 DUP3 DIV SWAP1 POP PUSH1 0x1 DUP3 AND DUP1 PUSH2 0x1877 JUMPI PUSH1 0x7F DUP3 AND SWAP2 POP JUMPDEST PUSH1 0x20 DUP3 LT DUP2 EQ ISZERO PUSH2 0x188B JUMPI PUSH2 0x188A PUSH2 0x18C0 JUMP JUMPDEST JUMPDEST POP SWAP2 SWAP1 POP JUMP JUMPDEST PUSH32 0x4E487B7100000000000000000000000000000000000000000000000000000000 PUSH1 0x0 MSTORE PUSH1 0x11 PUSH1 0x4 MSTORE PUSH1 0x24 PUSH1 0x0 REVERT JUMPDEST PUSH32 0x4E487B7100000000000000000000000000000000000000000000000000000000 PUSH1 0x0 MSTORE PUSH1 0x22 PUSH1 0x4 MSTORE PUSH1 0x24 PUSH1 0x0 REVERT JUMPDEST PUSH1 0x0 DUP1 REVERT JUMPDEST PUSH1 0x0 PUSH1 0x1F NOT PUSH1 0x1F DUP4 ADD AND SWAP1 POP SWAP2 SWAP1 POP JUMP JUMPDEST PUSH32 0x45524332303A207472616E7366657220746F20746865207A65726F2061646472 PUSH1 0x0 DUP3 ADD MSTORE PUSH32 0x6573730000000000000000000000000000000000000000000000000000000000 PUSH1 0x20 DUP3 ADD MSTORE POP JUMP JUMPDEST PUSH32 0x45524332303A206275726E20616D6F756E7420657863656564732062616C616E PUSH1 0x0 DUP3 ADD MSTORE PUSH32 0x6365000000000000000000000000000000000000000000000000000000000000 PUSH1 0x20 DUP3 ADD MSTORE POP JUMP JUMPDEST PUSH32 0x45524332303A20617070726F766520746F20746865207A65726F206164647265 PUSH1 0x0 DUP3 ADD MSTORE PUSH32 0x7373000000000000000000000000000000000000000000000000000000000000 PUSH1 0x20 DUP3 ADD MSTORE POP JUMP JUMPDEST PUSH32 0x45524332303A207472616E7366657220616D6F756E7420657863656564732062 PUSH1 0x0 DUP3 ADD MSTORE PUSH32 0x616C616E63650000000000000000000000000000000000000000000000000000 PUSH1 0x20 DUP3 ADD MSTORE POP JUMP JUMPDEST PUSH32 0x45524332303A207472616E7366657220616D6F756E7420657863656564732061 PUSH1 0x0 DUP3 ADD MSTORE PUSH32 0x6C6C6F77616E6365000000000000000000000000000000000000000000000000 PUSH1 0x20 DUP3 ADD MSTORE POP JUMP JUMPDEST PUSH32 0x45524332303A206275726E20616D6F756E74206578636565647320616C6C6F77 PUSH1 0x0 DUP3 ADD MSTORE PUSH32 0x616E636500000000000000000000000000000000000000000000000000000000 PUSH1 0x20 DUP3 ADD MSTORE POP JUMP JUMPDEST PUSH32 0x45524332303A206275726E2066726F6D20746865207A65726F20616464726573 PUSH1 0x0 DUP3 ADD MSTORE PUSH32 0x7300000000000000000000000000000000000000000000000000000000000000 PUSH1 0x20 DUP3 ADD MSTORE POP JUMP JUMPDEST PUSH32 0x45524332303A207472616E736665722066726F6D20746865207A65726F206164 PUSH1 0x0 DUP3 ADD MSTORE PUSH32 0x6472657373000000000000000000000000000000000000000000000000000000 PUSH1 0x20 DUP3 ADD MSTORE POP JUMP JUMPDEST PUSH32 0x45524332303A20617070726F76652066726F6D20746865207A65726F20616464 PUSH1 0x0 DUP3 ADD MSTORE PUSH32 0x7265737300000000000000000000000000000000000000000000000000000000 PUSH1 0x20 DUP3 ADD MSTORE POP JUMP JUMPDEST PUSH32 0x6F6E6C7920627269646765206861732061636365737320746F20746869732063 PUSH1 0x0 DUP3 ADD MSTORE PUSH32 0x68696C6420746F6B656E2066756E6374696F6E00000000000000000000000000 PUSH1 0x20 DUP3 ADD MSTORE POP JUMP JUMPDEST PUSH32 0x45524332303A2064656372656173656420616C6C6F77616E63652062656C6F77 PUSH1 0x0 DUP3 ADD MSTORE PUSH32 0x207A65726F000000000000000000000000000000000000000000000000000000 PUSH1 0x20 DUP3 ADD MSTORE POP JUMP JUMPDEST PUSH32 0x45524332303A206D696E7420746F20746865207A65726F206164647265737300 PUSH1 0x0 DUP3 ADD MSTORE POP JUMP JUMPDEST PUSH2 0x1C9C DUP2 PUSH2 0x17D7 JUMP JUMPDEST DUP2 EQ PUSH2 0x1CA7 JUMPI PUSH1 0x0 DUP1 REVERT JUMPDEST POP JUMP JUMPDEST PUSH2 0x1CB3 DUP2 PUSH2 0x1815 JUMP JUMPDEST DUP2 EQ PUSH2 0x1CBE JUMPI PUSH1 0x0 DUP1 REVERT JUMPDEST POP JUMP INVALID LOG2 PUSH5 0x6970667358 0x22 SLT KECCAK256 0x23 0x5F 0xB3 0xE 0xEE PUSH19 0x93E2DA06D38BCA0B994E7B30FED29A0E91E0C6 CALLDATASIZE 0xC0 PUSH31 0x2B0B3C5164736F6C6343000807003300000000000000000000000000000000 "
				},
				"gasEstimates": {
					"creation": {
						"codeDepositCost": "1483000",
						"executionCost": "infinite",
						"totalCost": "infinite"
					},
					"external": {
						"allowance(address,address)": "infinite",
						"approve(address,uint256)": "infinite",
						"balanceOf(address)": "2886",
						"burn(uint256)": "infinite",
						"burnFrom(address,uint256)": "infinite",
						"decimals()": "388",
						"decreaseAllowance(address,uint256)": "infinite",
						"increaseAllowance(address,uint256)": "infinite",
						"mint(address,uint256)": "infinite",
						"name()": "infinite",
						"symbol()": "infinite",
						"totalSupply()": "2505",
						"transfer(address,uint256)": "infinite",
						"transferFrom(address,address,uint256)": "infinite"
					}
				},
				"methodIdentifiers": {
					"allowance(address,address)": "dd62ed3e",
					"approve(address,uint256)": "095ea7b3",
					"balanceOf(address)": "70a08231",
					"burn(uint256)": "42966c68",
					"burnFrom(address,uint256)": "79cc6790",
					"decimals()": "313ce567",
					"decreaseAllowance(address,uint256)": "a457c2d7",
					"increaseAllowance(address,uint256)": "39509351",
					"mint(address,uint256)": "40c10f19",
					"name()": "06fdde03",
					"symbol()": "95d89b41",
					"totalSupply()": "18160ddd",
					"transfer(address,uint256)": "a9059cbb",
					"transferFrom(address,address,uint256)": "23b872dd"
				}
			},
			"storageLayout": {
				"storage": [
					{
						"astId": 12,
						"contract": "contracts/POC_Bridge/childContract.sol:TokenChild",
						"label": "_balances",
						"offset": 0,
						"slot": "0",
						"type": "t_mapping(t_address,t_uint256)"
					},
					{
						"astId": 18,
						"contract": "contracts/POC_Bridge/childContract.sol:TokenChild",
						"label": "_allowances",
						"offset": 0,
						"slot": "1",
						"type": "t_mapping(t_address,t_mapping(t_address,t_uint256))"
					},
					{
						"astId": 20,
						"contract": "contracts/POC_Bridge/childContract.sol:TokenChild",
						"label": "_totalSupply",
						"offset": 0,
						"slot": "2",
						"type": "t_uint256"
					},
					{
						"astId": 22,
						"contract": "contracts/POC_Bridge/childContract.sol:TokenChild",
						"label": "_name",
						"offset": 0,
						"slot": "3",
						"type": "t_string_storage"
					},
					{
						"astId": 24,
						"contract": "contracts/POC_Bridge/childContract.sol:TokenChild",
						"label": "_symbol",
						"offset": 0,
						"slot": "4",
						"type": "t_string_storage"
					},
					{
						"astId": 674,
						"contract": "contracts/POC_Bridge/childContract.sol:TokenChild",
						"label": "bridge",
						"offset": 0,
						"slot": "5",
						"type": "t_address"
					}
				],
				"types": {
					"t_address": {
						"encoding": "inplace",
						"label": "address",
						"numberOfBytes": "20"
					},
					"t_mapping(t_address,t_mapping(t_address,t_uint256))": {
						"encoding": "mapping",
						"key": "t_address",
						"label": "mapping(address => mapping(address => uint256))",
						"numberOfBytes": "32",
						"value": "t_mapping(t_address,t_uint256)"
					},
					"t_mapping(t_address,t_uint256)": {
						"encoding": "mapping",
						"key": "t_address",
						"label": "mapping(address => uint256)",
						"numberOfBytes": "32",
						"value": "t_uint256"
					},
					"t_string_storage": {
						"encoding": "bytes",
						"label": "string",
						"numberOfBytes": "32"
					},
					"t_uint256": {
						"encoding": "inplace",
						"label": "uint256",
						"numberOfBytes": "32"
					}
				}
			},
			"userdoc": {
				"kind": "user",
				"methods": {},
				"version": 1
			}
		}
	}
}