{
	"contracts/Hero_Deposit/Deposit.sol": {
		"DepositOracle": {
			"abi": [
				{
					"inputs": [],
					"stateMutability": "nonpayable",
					"type": "constructor"
				},
				{
					"anonymous": false,
					"inputs": [
						{
							"indexed": true,
							"internalType": "address",
							"name": "ativist",
							"type": "address"
						},
						{
							"indexed": false,
							"internalType": "uint256",
							"name": "value",
							"type": "uint256"
						},
						{
							"indexed": false,
							"internalType": "uint256",
							"name": "time",
							"type": "uint256"
						}
					],
					"name": "activistPayment",
					"type": "event"
				},
				{
					"anonymous": false,
					"inputs": [
						{
							"indexed": true,
							"internalType": "address",
							"name": "from",
							"type": "address"
						},
						{
							"indexed": true,
							"internalType": "address",
							"name": "to",
							"type": "address"
						},
						{
							"indexed": false,
							"internalType": "uint256",
							"name": "value",
							"type": "uint256"
						},
						{
							"indexed": false,
							"internalType": "uint256",
							"name": "time",
							"type": "uint256"
						}
					],
					"name": "depositLogs",
					"type": "event"
				},
				{
					"inputs": [
						{
							"internalType": "address payable",
							"name": "_to",
							"type": "address"
						}
					],
					"name": "DepositCelo",
					"outputs": [
						{
							"internalType": "uint256",
							"name": "totalValueUsd",
							"type": "uint256"
						},
						{
							"internalType": "int256",
							"name": "currentCeloUsdPrice",
							"type": "int256"
						}
					],
					"stateMutability": "payable",
					"type": "function"
				},
				{
					"inputs": [
						{
							"internalType": "address payable",
							"name": "_to",
							"type": "address"
						}
					],
					"name": "DepositCusd",
					"outputs": [
						{
							"internalType": "bool",
							"name": "",
							"type": "bool"
						}
					],
					"stateMutability": "payable",
					"type": "function"
				},
				{
					"inputs": [
						{
							"internalType": "address",
							"name": "contributer",
							"type": "address"
						},
						{
							"internalType": "address",
							"name": "_to",
							"type": "address"
						},
						{
							"internalType": "uint256",
							"name": "amount",
							"type": "uint256"
						}
					],
					"name": "DepositCusdCredit",
					"outputs": [
						{
							"internalType": "bool",
							"name": "",
							"type": "bool"
						}
					],
					"stateMutability": "nonpayable",
					"type": "function"
				},
				{
					"inputs": [],
					"name": "EthUsdPrice",
					"outputs": [
						{
							"internalType": "contract IWitnetPriceFeed",
							"name": "",
							"type": "address"
						}
					],
					"stateMutability": "view",
					"type": "function"
				},
				{
					"inputs": [],
					"name": "celoEurPrice",
					"outputs": [
						{
							"internalType": "contract IWitnetPriceFeed",
							"name": "",
							"type": "address"
						}
					],
					"stateMutability": "view",
					"type": "function"
				},
				{
					"inputs": [],
					"name": "celoUsdPrice",
					"outputs": [
						{
							"internalType": "contract IWitnetPriceFeed",
							"name": "",
							"type": "address"
						}
					],
					"stateMutability": "view",
					"type": "function"
				},
				{
					"inputs": [
						{
							"internalType": "address",
							"name": "wallet",
							"type": "address"
						}
					],
					"name": "checkDepositExist",
					"outputs": [
						{
							"internalType": "bool",
							"name": "",
							"type": "bool"
						}
					],
					"stateMutability": "view",
					"type": "function"
				},
				{
					"inputs": [
						{
							"internalType": "address",
							"name": "",
							"type": "address"
						}
					],
					"name": "depositToActivist",
					"outputs": [
						{
							"internalType": "uint256",
							"name": "celoCoin",
							"type": "uint256"
						},
						{
							"internalType": "uint256",
							"name": "usdcCoin",
							"type": "uint256"
						}
					],
					"stateMutability": "view",
					"type": "function"
				},
				{
					"inputs": [
						{
							"internalType": "address",
							"name": "",
							"type": "address"
						}
					],
					"name": "depositersLogs",
					"outputs": [
						{
							"internalType": "uint256",
							"name": "id",
							"type": "uint256"
						},
						{
							"internalType": "int256",
							"name": "totalDepositsValue",
							"type": "int256"
						},
						{
							"internalType": "uint256",
							"name": "totalDepositTimes",
							"type": "uint256"
						},
						{
							"internalType": "address",
							"name": "userWallet",
							"type": "address"
						}
					],
					"stateMutability": "view",
					"type": "function"
				},
				{
					"inputs": [],
					"name": "index",
					"outputs": [
						{
							"internalType": "uint256",
							"name": "",
							"type": "uint256"
						}
					],
					"stateMutability": "view",
					"type": "function"
				},
				{
					"inputs": [],
					"name": "updateCeloEurPriceFeed",
					"outputs": [],
					"stateMutability": "nonpayable",
					"type": "function"
				},
				{
					"inputs": [],
					"name": "updateCeloUSDPriceFeed",
					"outputs": [],
					"stateMutability": "nonpayable",
					"type": "function"
				},
				{
					"inputs": [],
					"name": "updateEthUsdPriceFeed",
					"outputs": [],
					"stateMutability": "nonpayable",
					"type": "function"
				},
				{
					"inputs": [
						{
							"internalType": "address payable",
							"name": "_to",
							"type": "address"
						}
					],
					"name": "withdrowCelo",
					"outputs": [
						{
							"internalType": "uint256",
							"name": "",
							"type": "uint256"
						},
						{
							"internalType": "uint256",
							"name": "",
							"type": "uint256"
						}
					],
					"stateMutability": "payable",
					"type": "function"
				},
				{
					"inputs": [
						{
							"internalType": "address payable",
							"name": "_to",
							"type": "address"
						}
					],
					"name": "withdrowCusd",
					"outputs": [
						{
							"internalType": "uint256",
							"name": "",
							"type": "uint256"
						},
						{
							"internalType": "uint256",
							"name": "",
							"type": "uint256"
						}
					],
					"stateMutability": "payable",
					"type": "function"
				},
				{
					"inputs": [],
					"name": "witnetPriceRouter",
					"outputs": [
						{
							"internalType": "contract IWitnetPriceRouter",
							"name": "",
							"type": "address"
						}
					],
					"stateMutability": "view",
					"type": "function"
				}
			],
			"devdoc": {
				"kind": "dev",
				"methods": {},
				"version": 1
			},
			"evm": {
				"assembly": "    /* \"contracts/Hero_Deposit/Deposit.sol\":239:10448  contract DepositOracle {\r... */\n  mstore(0x40, 0x80)\n    /* \"contracts/Hero_Deposit/Deposit.sol\":1358:1359  0 */\n  0x00\n    /* \"contracts/Hero_Deposit/Deposit.sol\":1335:1359  uint256 public index = 0 */\n  0x0a\n  sstore\n    /* \"contracts/Hero_Deposit/Deposit.sol\":1026:1300  constructor() {\r... */\n  callvalue\n  dup1\n  iszero\n  tag_1\n  jumpi\n  0x00\n  dup1\n  revert\ntag_1:\n  pop\n    /* \"contracts/Hero_Deposit/Deposit.sol\":1059:1069  msg.sender */\n  caller\n    /* \"contracts/Hero_Deposit/Deposit.sol\":1051:1056  owner */\n  0x0c\n  0x00\n    /* \"contracts/Hero_Deposit/Deposit.sol\":1051:1069  owner = msg.sender */\n  0x0100\n  exp\n  dup2\n  sload\n  dup2\n  0xffffffffffffffffffffffffffffffffffffffff\n  mul\n  not\n  and\n  swap1\n  dup4\n  0xffffffffffffffffffffffffffffffffffffffff\n  and\n  mul\n  or\n  swap1\n  sstore\n  pop\n    /* \"contracts/Hero_Deposit/Deposit.sol\":1133:1175  0x6f8A7E2bBc1eDb8782145cD1089251f6e2C738AE */\n  0x6f8a7e2bbc1edb8782145cd1089251f6e2c738ae\n    /* \"contracts/Hero_Deposit/Deposit.sol\":1080:1097  witnetPriceRouter */\n  0x00\n  dup1\n    /* \"contracts/Hero_Deposit/Deposit.sol\":1080:1186  witnetPriceRouter = IWitnetPriceRouter(\r... */\n  0x0100\n  exp\n  dup2\n  sload\n  dup2\n  0xffffffffffffffffffffffffffffffffffffffff\n  mul\n  not\n  and\n  swap1\n  dup4\n  0xffffffffffffffffffffffffffffffffffffffff\n  and\n  mul\n  or\n  swap1\n  sstore\n  pop\n    /* \"contracts/Hero_Deposit/Deposit.sol\":1197:1221  updateCeloUSDPriceFeed() */\n  tag_4\n    /* \"contracts/Hero_Deposit/Deposit.sol\":1197:1219  updateCeloUSDPriceFeed */\n  shl(0x20, tag_5)\n    /* \"contracts/Hero_Deposit/Deposit.sol\":1197:1221  updateCeloUSDPriceFeed() */\n  0x20\n  shr\n  jump\t// in\ntag_4:\n    /* \"contracts/Hero_Deposit/Deposit.sol\":1249:1291  0x874069Fa1Eb16D44d622F2e0Ca25eeA172369bC1 */\n  0x874069fa1eb16d44d622f2e0ca25eea172369bc1\n    /* \"contracts/Hero_Deposit/Deposit.sol\":1232:1239  CusdERC */\n  0x05\n  0x00\n    /* \"contracts/Hero_Deposit/Deposit.sol\":1232:1292  CusdERC = IERC20(0x874069Fa1Eb16D44d622F2e0Ca25eeA172369bC1) */\n  0x0100\n  exp\n  dup2\n  sload\n  dup2\n  0xffffffffffffffffffffffffffffffffffffffff\n  mul\n  not\n  and\n  swap1\n  dup4\n  0xffffffffffffffffffffffffffffffffffffffff\n  and\n  mul\n  or\n  swap1\n  sstore\n  pop\n    /* \"contracts/Hero_Deposit/Deposit.sol\":239:10448  contract DepositOracle {\r... */\n  jump(tag_6)\n    /* \"contracts/Hero_Deposit/Deposit.sol\":2017:2309  function updateCeloUSDPriceFeed() public {\r... */\ntag_5:\n    /* \"contracts/Hero_Deposit/Deposit.sol\":2069:2090  IERC165 _newPriceFeed */\n  0x00\n    /* \"contracts/Hero_Deposit/Deposit.sol\":2093:2110  witnetPriceRouter */\n  dup1\n  0x00\n  swap1\n  sload\n  swap1\n  0x0100\n  exp\n  swap1\n  div\n  0xffffffffffffffffffffffffffffffffffffffff\n  and\n    /* \"contracts/Hero_Deposit/Deposit.sol\":2093:2123  witnetPriceRouter.getPriceFeed */\n  0xffffffffffffffffffffffffffffffffffffffff\n  and\n  0x8c0adf62\n    /* \"contracts/Hero_Deposit/Deposit.sol\":2145:2155  0x9ed884be */\n  0x9ed884be\n    /* \"contracts/Hero_Deposit/Deposit.sol\":2138:2156  bytes4(0x9ed884be) */\n  0xe0\n  shl\n    /* \"contracts/Hero_Deposit/Deposit.sol\":2093:2167  witnetPriceRouter.getPriceFeed(\r... */\n  mload(0x40)\n  dup3\n  0xffffffff\n  and\n  0xe0\n  shl\n  dup2\n  mstore\n  0x04\n  add\n  tag_8\n  swap2\n  swap1\n  tag_9\n  jump\t// in\ntag_8:\n  0x20\n  mload(0x40)\n  dup1\n  dup4\n  sub\n  dup2\n  dup7\n  dup1\n  extcodesize\n  iszero\n  dup1\n  iszero\n  tag_10\n  jumpi\n  0x00\n  dup1\n  revert\ntag_10:\n  pop\n  gas\n  staticcall\n  iszero\n  dup1\n  iszero\n  tag_12\n  jumpi\n  returndatasize\n  0x00\n  dup1\n  returndatacopy\n  revert(0x00, returndatasize)\ntag_12:\n  pop\n  pop\n  pop\n  pop\n  mload(0x40)\n  returndatasize\n  not(0x1f)\n  0x1f\n  dup3\n  add\n  and\n  dup3\n  add\n  dup1\n  0x40\n  mstore\n  pop\n  dup2\n  add\n  swap1\n  tag_13\n  swap2\n  swap1\n  tag_14\n  jump\t// in\ntag_13:\n    /* \"contracts/Hero_Deposit/Deposit.sol\":2069:2167  IERC165 _newPriceFeed = witnetPriceRouter.getPriceFeed(\r... */\n  swap1\n  pop\n    /* \"contracts/Hero_Deposit/Deposit.sol\":2216:2217  0 */\n  0x00\n    /* \"contracts/Hero_Deposit/Deposit.sol\":2182:2218  address(_newPriceFeed) != address(0) */\n  0xffffffffffffffffffffffffffffffffffffffff\n  and\n    /* \"contracts/Hero_Deposit/Deposit.sol\":2190:2203  _newPriceFeed */\n  dup2\n    /* \"contracts/Hero_Deposit/Deposit.sol\":2182:2218  address(_newPriceFeed) != address(0) */\n  0xffffffffffffffffffffffffffffffffffffffff\n  and\n  eq\n    /* \"contracts/Hero_Deposit/Deposit.sol\":2178:2302  if (address(_newPriceFeed) != address(0)) {\r... */\n  tag_15\n  jumpi\n    /* \"contracts/Hero_Deposit/Deposit.sol\":2275:2288  _newPriceFeed */\n  dup1\n    /* \"contracts/Hero_Deposit/Deposit.sol\":2235:2247  celoUsdPrice */\n  0x02\n  0x00\n    /* \"contracts/Hero_Deposit/Deposit.sol\":2235:2290  celoUsdPrice = IWitnetPriceFeed(address(_newPriceFeed)) */\n  0x0100\n  exp\n  dup2\n  sload\n  dup2\n  0xffffffffffffffffffffffffffffffffffffffff\n  mul\n  not\n  and\n  swap1\n  dup4\n  0xffffffffffffffffffffffffffffffffffffffff\n  and\n  mul\n  or\n  swap1\n  sstore\n  pop\n    /* \"contracts/Hero_Deposit/Deposit.sol\":2178:2302  if (address(_newPriceFeed) != address(0)) {\r... */\ntag_15:\n    /* \"contracts/Hero_Deposit/Deposit.sol\":2058:2309  {\r... */\n  pop\n    /* \"contracts/Hero_Deposit/Deposit.sol\":2017:2309  function updateCeloUSDPriceFeed() public {\r... */\n  jump\t// out\n    /* \"#utility.yul\":7:182   */\ntag_17:\n    /* \"#utility.yul\":80:85   */\n  0x00\n    /* \"#utility.yul\":111:117   */\n  dup2\n    /* \"#utility.yul\":105:118   */\n  mload\n    /* \"#utility.yul\":96:118   */\n  swap1\n  pop\n    /* \"#utility.yul\":127:176   */\n  tag_19\n    /* \"#utility.yul\":170:175   */\n  dup2\n    /* \"#utility.yul\":127:176   */\n  tag_20\n  jump\t// in\ntag_19:\n    /* \"#utility.yul\":7:182   */\n  swap3\n  swap2\n  pop\n  pop\n  jump\t// out\n    /* \"#utility.yul\":188:571   */\ntag_14:\n    /* \"#utility.yul\":274:280   */\n  0x00\n    /* \"#utility.yul\":323:325   */\n  0x20\n    /* \"#utility.yul\":311:320   */\n  dup3\n    /* \"#utility.yul\":302:309   */\n  dup5\n    /* \"#utility.yul\":298:321   */\n  sub\n    /* \"#utility.yul\":294:326   */\n  slt\n    /* \"#utility.yul\":291:410   */\n  iszero\n  tag_22\n  jumpi\n    /* \"#utility.yul\":329:408   */\n  tag_23\n  tag_24\n  jump\t// in\ntag_23:\n    /* \"#utility.yul\":291:410   */\ntag_22:\n    /* \"#utility.yul\":449:450   */\n  0x00\n    /* \"#utility.yul\":474:554   */\n  tag_25\n    /* \"#utility.yul\":546:553   */\n  dup5\n    /* \"#utility.yul\":537:543   */\n  dup3\n    /* \"#utility.yul\":526:535   */\n  dup6\n    /* \"#utility.yul\":522:544   */\n  add\n    /* \"#utility.yul\":474:554   */\n  tag_17\n  jump\t// in\ntag_25:\n    /* \"#utility.yul\":464:554   */\n  swap2\n  pop\n    /* \"#utility.yul\":420:564   */\n  pop\n    /* \"#utility.yul\":188:571   */\n  swap3\n  swap2\n  pop\n  pop\n  jump\t// out\n    /* \"#utility.yul\":577:706   */\ntag_26:\n    /* \"#utility.yul\":663:699   */\n  tag_28\n    /* \"#utility.yul\":693:698   */\n  dup2\n    /* \"#utility.yul\":663:699   */\n  tag_29\n  jump\t// in\ntag_28:\n    /* \"#utility.yul\":658:661   */\n  dup3\n    /* \"#utility.yul\":651:700   */\n  mstore\n    /* \"#utility.yul\":577:706   */\n  pop\n  pop\n  jump\t// out\n    /* \"#utility.yul\":712:932   */\ntag_9:\n    /* \"#utility.yul\":804:808   */\n  0x00\n    /* \"#utility.yul\":842:844   */\n  0x20\n    /* \"#utility.yul\":831:840   */\n  dup3\n    /* \"#utility.yul\":827:845   */\n  add\n    /* \"#utility.yul\":819:845   */\n  swap1\n  pop\n    /* \"#utility.yul\":855:925   */\n  tag_31\n    /* \"#utility.yul\":922:923   */\n  0x00\n    /* \"#utility.yul\":911:920   */\n  dup4\n    /* \"#utility.yul\":907:924   */\n  add\n    /* \"#utility.yul\":898:904   */\n  dup5\n    /* \"#utility.yul\":855:925   */\n  tag_26\n  jump\t// in\ntag_31:\n    /* \"#utility.yul\":712:932   */\n  swap3\n  swap2\n  pop\n  pop\n  jump\t// out\n    /* \"#utility.yul\":1019:1115   */\ntag_34:\n    /* \"#utility.yul\":1056:1063   */\n  0x00\n    /* \"#utility.yul\":1085:1109   */\n  tag_36\n    /* \"#utility.yul\":1103:1108   */\n  dup3\n    /* \"#utility.yul\":1085:1109   */\n  tag_37\n  jump\t// in\ntag_36:\n    /* \"#utility.yul\":1074:1109   */\n  swap1\n  pop\n    /* \"#utility.yul\":1019:1115   */\n  swap2\n  swap1\n  pop\n  jump\t// out\n    /* \"#utility.yul\":1121:1270   */\ntag_38:\n    /* \"#utility.yul\":1157:1164   */\n  0x00\n    /* \"#utility.yul\":1197:1263   */\n  0xffffffff00000000000000000000000000000000000000000000000000000000\n    /* \"#utility.yul\":1190:1195   */\n  dup3\n    /* \"#utility.yul\":1186:1264   */\n  and\n    /* \"#utility.yul\":1175:1264   */\n  swap1\n  pop\n    /* \"#utility.yul\":1121:1270   */\n  swap2\n  swap1\n  pop\n  jump\t// out\n    /* \"#utility.yul\":1276:1388   */\ntag_40:\n    /* \"#utility.yul\":1329:1336   */\n  0x00\n    /* \"#utility.yul\":1358:1382   */\n  tag_42\n    /* \"#utility.yul\":1376:1381   */\n  dup3\n    /* \"#utility.yul\":1358:1382   */\n  tag_34\n  jump\t// in\ntag_42:\n    /* \"#utility.yul\":1347:1382   */\n  swap1\n  pop\n    /* \"#utility.yul\":1276:1388   */\n  swap2\n  swap1\n  pop\n  jump\t// out\n    /* \"#utility.yul\":1394:1520   */\ntag_37:\n    /* \"#utility.yul\":1431:1438   */\n  0x00\n    /* \"#utility.yul\":1471:1513   */\n  0xffffffffffffffffffffffffffffffffffffffff\n    /* \"#utility.yul\":1464:1469   */\n  dup3\n    /* \"#utility.yul\":1460:1514   */\n  and\n    /* \"#utility.yul\":1449:1514   */\n  swap1\n  pop\n    /* \"#utility.yul\":1394:1520   */\n  swap2\n  swap1\n  pop\n  jump\t// out\n    /* \"#utility.yul\":1526:1637   */\ntag_29:\n    /* \"#utility.yul\":1575:1584   */\n  0x00\n    /* \"#utility.yul\":1608:1631   */\n  tag_45\n    /* \"#utility.yul\":1625:1630   */\n  dup3\n    /* \"#utility.yul\":1608:1631   */\n  tag_38\n  jump\t// in\ntag_45:\n    /* \"#utility.yul\":1595:1631   */\n  swap1\n  pop\n    /* \"#utility.yul\":1526:1637   */\n  swap2\n  swap1\n  pop\n  jump\t// out\n    /* \"#utility.yul\":1766:1883   */\ntag_24:\n    /* \"#utility.yul\":1875:1876   */\n  0x00\n    /* \"#utility.yul\":1872:1873   */\n  dup1\n    /* \"#utility.yul\":1865:1877   */\n  revert\n    /* \"#utility.yul\":1889:2043   */\ntag_20:\n    /* \"#utility.yul\":1978:2018   */\n  tag_50\n    /* \"#utility.yul\":2012:2017   */\n  dup2\n    /* \"#utility.yul\":1978:2018   */\n  tag_40\n  jump\t// in\ntag_50:\n    /* \"#utility.yul\":1971:1976   */\n  dup2\n    /* \"#utility.yul\":1968:2019   */\n  eq\n    /* \"#utility.yul\":1958:2037   */\n  tag_51\n  jumpi\n    /* \"#utility.yul\":2033:2034   */\n  0x00\n    /* \"#utility.yul\":2030:2031   */\n  dup1\n    /* \"#utility.yul\":2023:2035   */\n  revert\n    /* \"#utility.yul\":1958:2037   */\ntag_51:\n    /* \"#utility.yul\":1889:2043   */\n  pop\n  jump\t// out\n    /* \"contracts/Hero_Deposit/Deposit.sol\":239:10448  contract DepositOracle {\r... */\ntag_6:\n  dataSize(sub_0)\n  dup1\n  dataOffset(sub_0)\n  0x00\n  codecopy\n  0x00\n  return\nstop\n\nsub_0: assembly {\n        /* \"contracts/Hero_Deposit/Deposit.sol\":239:10448  contract DepositOracle {\r... */\n      mstore(0x40, 0x80)\n      jumpi(tag_1, lt(calldatasize, 0x04))\n      shr(0xe0, calldataload(0x00))\n      dup1\n      0x80ad10df\n      gt\n      tag_18\n      jumpi\n      dup1\n      0xb1ddf386\n      gt\n      tag_19\n      jumpi\n      dup1\n      0xb1ddf386\n      eq\n      tag_14\n      jumpi\n      dup1\n      0xb447b0a5\n      eq\n      tag_15\n      jumpi\n      dup1\n      0xc8525f81\n      eq\n      tag_16\n      jumpi\n      dup1\n      0xdf3d4e32\n      eq\n      tag_17\n      jumpi\n      jump(tag_1)\n    tag_19:\n      dup1\n      0x80ad10df\n      eq\n      tag_10\n      jumpi\n      dup1\n      0x893c4a84\n      eq\n      tag_11\n      jumpi\n      dup1\n      0x91cfa8c2\n      eq\n      tag_12\n      jumpi\n      dup1\n      0xaea5da5b\n      eq\n      tag_13\n      jumpi\n      jump(tag_1)\n    tag_18:\n      dup1\n      0x35178e87\n      gt\n      tag_20\n      jumpi\n      dup1\n      0x35178e87\n      eq\n      tag_6\n      jumpi\n      dup1\n      0x43d37940\n      eq\n      tag_7\n      jumpi\n      dup1\n      0x4fc87f24\n      eq\n      tag_8\n      jumpi\n      dup1\n      0x7f28ee34\n      eq\n      tag_9\n      jumpi\n      jump(tag_1)\n    tag_20:\n      dup1\n      0x09a61767\n      eq\n      tag_2\n      jumpi\n      dup1\n      0x0fd19c15\n      eq\n      tag_3\n      jumpi\n      dup1\n      0x2986c0e5\n      eq\n      tag_4\n      jumpi\n      dup1\n      0x32eb658c\n      eq\n      tag_5\n      jumpi\n    tag_1:\n      0x00\n      dup1\n      revert\n        /* \"contracts/Hero_Deposit/Deposit.sol\":4515:6056  function DepositCelo(address payable _to)\r... */\n    tag_2:\n      tag_21\n      0x04\n      dup1\n      calldatasize\n      sub\n      dup2\n      add\n      swap1\n      tag_22\n      swap2\n      swap1\n      tag_23\n      jump\t// in\n    tag_22:\n      tag_24\n      jump\t// in\n    tag_21:\n      mload(0x40)\n      tag_25\n      swap3\n      swap2\n      swap1\n      tag_26\n      jump\t// in\n    tag_25:\n      mload(0x40)\n      dup1\n      swap2\n      sub\n      swap1\n      return\n        /* \"contracts/Hero_Deposit/Deposit.sol\":2617:2907  function updateEthUsdPriceFeed() public {\r... */\n    tag_3:\n      callvalue\n      dup1\n      iszero\n      tag_27\n      jumpi\n      0x00\n      dup1\n      revert\n    tag_27:\n      pop\n      tag_28\n      tag_29\n      jump\t// in\n    tag_28:\n      stop\n        /* \"contracts/Hero_Deposit/Deposit.sol\":1335:1359  uint256 public index = 0 */\n    tag_4:\n      callvalue\n      dup1\n      iszero\n      tag_30\n      jumpi\n      0x00\n      dup1\n      revert\n    tag_30:\n      pop\n      tag_31\n      tag_32\n      jump\t// in\n    tag_31:\n      mload(0x40)\n      tag_33\n      swap2\n      swap1\n      tag_34\n      jump\t// in\n    tag_33:\n      mload(0x40)\n      dup1\n      swap2\n      sub\n      swap1\n      return\n        /* \"contracts/Hero_Deposit/Deposit.sol\":2017:2309  function updateCeloUSDPriceFeed() public {\r... */\n    tag_5:\n      callvalue\n      dup1\n      iszero\n      tag_35\n      jumpi\n      0x00\n      dup1\n      revert\n    tag_35:\n      pop\n      tag_36\n      tag_37\n      jump\t// in\n    tag_36:\n      stop\n        /* \"contracts/Hero_Deposit/Deposit.sol\":2317:2609  function updateCeloEurPriceFeed() public {\r... */\n    tag_6:\n      callvalue\n      dup1\n      iszero\n      tag_38\n      jumpi\n      0x00\n      dup1\n      revert\n    tag_38:\n      pop\n      tag_39\n      tag_40\n      jump\t// in\n    tag_39:\n      stop\n        /* \"contracts/Hero_Deposit/Deposit.sol\":4280:4486  function checkDepositExist(address wallet) public view returns (bool) {\r... */\n    tag_7:\n      callvalue\n      dup1\n      iszero\n      tag_41\n      jumpi\n      0x00\n      dup1\n      revert\n    tag_41:\n      pop\n      tag_42\n      0x04\n      dup1\n      calldatasize\n      sub\n      dup2\n      add\n      swap1\n      tag_43\n      swap2\n      swap1\n      tag_44\n      jump\t// in\n    tag_43:\n      tag_45\n      jump\t// in\n    tag_42:\n      mload(0x40)\n      tag_46\n      swap2\n      swap1\n      tag_47\n      jump\t// in\n    tag_46:\n      mload(0x40)\n      dup1\n      swap2\n      sub\n      swap1\n      return\n        /* \"contracts/Hero_Deposit/Deposit.sol\":269:312  IWitnetPriceRouter public witnetPriceRouter */\n    tag_8:\n      callvalue\n      dup1\n      iszero\n      tag_48\n      jumpi\n      0x00\n      dup1\n      revert\n    tag_48:\n      pop\n      tag_49\n      tag_50\n      jump\t// in\n    tag_49:\n      mload(0x40)\n      tag_51\n      swap2\n      swap1\n      tag_52\n      jump\t// in\n    tag_51:\n      mload(0x40)\n      dup1\n      swap2\n      sub\n      swap1\n      return\n        /* \"contracts/Hero_Deposit/Deposit.sol\":6102:6838  function DepositCusdCredit(address contributer,address _to,uint256 amount)\r... */\n    tag_9:\n      callvalue\n      dup1\n      iszero\n      tag_53\n      jumpi\n      0x00\n      dup1\n      revert\n    tag_53:\n      pop\n      tag_54\n      0x04\n      dup1\n      calldatasize\n      sub\n      dup2\n      add\n      swap1\n      tag_55\n      swap2\n      swap1\n      tag_56\n      jump\t// in\n    tag_55:\n      tag_57\n      jump\t// in\n    tag_54:\n      mload(0x40)\n      tag_58\n      swap2\n      swap1\n      tag_47\n      jump\t// in\n    tag_58:\n      mload(0x40)\n      dup1\n      swap2\n      sub\n      swap1\n      return\n        /* \"contracts/Hero_Deposit/Deposit.sol\":1588:1637  mapping(address => deposit) public depositersLogs */\n    tag_10:\n      callvalue\n      dup1\n      iszero\n      tag_59\n      jumpi\n      0x00\n      dup1\n      revert\n    tag_59:\n      pop\n      tag_60\n      0x04\n      dup1\n      calldatasize\n      sub\n      dup2\n      add\n      swap1\n      tag_61\n      swap2\n      swap1\n      tag_44\n      jump\t// in\n    tag_61:\n      tag_62\n      jump\t// in\n    tag_60:\n      mload(0x40)\n      tag_63\n      swap5\n      swap4\n      swap3\n      swap2\n      swap1\n      tag_64\n      jump\t// in\n    tag_63:\n      mload(0x40)\n      dup1\n      swap2\n      sub\n      swap1\n      return\n        /* \"contracts/Hero_Deposit/Deposit.sol\":8388:9408  function withdrowCelo(address payable _to)\r... */\n    tag_11:\n      tag_65\n      0x04\n      dup1\n      calldatasize\n      sub\n      dup2\n      add\n      swap1\n      tag_66\n      swap2\n      swap1\n      tag_23\n      jump\t// in\n    tag_66:\n      tag_67\n      jump\t// in\n    tag_65:\n      mload(0x40)\n      tag_68\n      swap3\n      swap2\n      swap1\n      tag_69\n      jump\t// in\n    tag_68:\n      mload(0x40)\n      dup1\n      swap2\n      sub\n      swap1\n      return\n        /* \"contracts/Hero_Deposit/Deposit.sol\":6945:8380  function DepositCusd(address payable _to)\r... */\n    tag_12:\n      tag_70\n      0x04\n      dup1\n      calldatasize\n      sub\n      dup2\n      add\n      swap1\n      tag_71\n      swap2\n      swap1\n      tag_23\n      jump\t// in\n    tag_71:\n      tag_72\n      jump\t// in\n    tag_70:\n      mload(0x40)\n      tag_73\n      swap2\n      swap1\n      tag_47\n      jump\t// in\n    tag_73:\n      mload(0x40)\n      dup1\n      swap2\n      sub\n      swap1\n      return\n        /* \"contracts/Hero_Deposit/Deposit.sol\":687:743  mapping(address => ativistBank) public depositToActivist */\n    tag_13:\n      callvalue\n      dup1\n      iszero\n      tag_74\n      jumpi\n      0x00\n      dup1\n      revert\n    tag_74:\n      pop\n      tag_75\n      0x04\n      dup1\n      calldatasize\n      sub\n      dup2\n      add\n      swap1\n      tag_76\n      swap2\n      swap1\n      tag_44\n      jump\t// in\n    tag_76:\n      tag_77\n      jump\t// in\n    tag_75:\n      mload(0x40)\n      tag_78\n      swap3\n      swap2\n      swap1\n      tag_69\n      jump\t// in\n    tag_78:\n      mload(0x40)\n      dup1\n      swap2\n      sub\n      swap1\n      return\n        /* \"contracts/Hero_Deposit/Deposit.sol\":9416:10445  function withdrowCusd(address payable _to)\r... */\n    tag_14:\n      tag_79\n      0x04\n      dup1\n      calldatasize\n      sub\n      dup2\n      add\n      swap1\n      tag_80\n      swap2\n      swap1\n      tag_23\n      jump\t// in\n    tag_80:\n      tag_81\n      jump\t// in\n    tag_79:\n      mload(0x40)\n      tag_82\n      swap3\n      swap2\n      swap1\n      tag_69\n      jump\t// in\n    tag_82:\n      mload(0x40)\n      dup1\n      swap2\n      sub\n      swap1\n      return\n        /* \"contracts/Hero_Deposit/Deposit.sol\":405:440  IWitnetPriceFeed public EthUsdPrice */\n    tag_15:\n      callvalue\n      dup1\n      iszero\n      tag_83\n      jumpi\n      0x00\n      dup1\n      revert\n    tag_83:\n      pop\n      tag_84\n      tag_85\n      jump\t// in\n    tag_84:\n      mload(0x40)\n      tag_86\n      swap2\n      swap1\n      tag_87\n      jump\t// in\n    tag_86:\n      mload(0x40)\n      dup1\n      swap2\n      sub\n      swap1\n      return\n        /* \"contracts/Hero_Deposit/Deposit.sol\":319:355  IWitnetPriceFeed public celoEurPrice */\n    tag_16:\n      callvalue\n      dup1\n      iszero\n      tag_88\n      jumpi\n      0x00\n      dup1\n      revert\n    tag_88:\n      pop\n      tag_89\n      tag_90\n      jump\t// in\n    tag_89:\n      mload(0x40)\n      tag_91\n      swap2\n      swap1\n      tag_87\n      jump\t// in\n    tag_91:\n      mload(0x40)\n      dup1\n      swap2\n      sub\n      swap1\n      return\n        /* \"contracts/Hero_Deposit/Deposit.sol\":362:398  IWitnetPriceFeed public celoUsdPrice */\n    tag_17:\n      callvalue\n      dup1\n      iszero\n      tag_92\n      jumpi\n      0x00\n      dup1\n      revert\n    tag_92:\n      pop\n      tag_93\n      tag_94\n      jump\t// in\n    tag_93:\n      mload(0x40)\n      tag_95\n      swap2\n      swap1\n      tag_87\n      jump\t// in\n    tag_95:\n      mload(0x40)\n      dup1\n      swap2\n      sub\n      swap1\n      return\n        /* \"contracts/Hero_Deposit/Deposit.sol\":4515:6056  function DepositCelo(address payable _to)\r... */\n    tag_24:\n        /* \"contracts/Hero_Deposit/Deposit.sol\":4632:4653  uint256 totalValueUsd */\n      0x00\n        /* \"contracts/Hero_Deposit/Deposit.sol\":4655:4681  int256 currentCeloUsdPrice */\n      dup1\n        /* \"contracts/Hero_Deposit/Deposit.sol\":1741:1747  locked */\n      0x0c\n      0x14\n      swap1\n      sload\n      swap1\n      0x0100\n      exp\n      swap1\n      div\n      0xff\n      and\n        /* \"contracts/Hero_Deposit/Deposit.sol\":1740:1747  !locked */\n      iszero\n        /* \"contracts/Hero_Deposit/Deposit.sol\":1732:1748  require(!locked) */\n      tag_97\n      jumpi\n      0x00\n      dup1\n      revert\n    tag_97:\n        /* \"contracts/Hero_Deposit/Deposit.sol\":1768:1772  true */\n      0x01\n        /* \"contracts/Hero_Deposit/Deposit.sol\":1759:1765  locked */\n      0x0c\n      0x14\n        /* \"contracts/Hero_Deposit/Deposit.sol\":1759:1772  locked = true */\n      0x0100\n      exp\n      dup2\n      sload\n      dup2\n      0xff\n      mul\n      not\n      and\n      swap1\n      dup4\n      iszero\n      iszero\n      mul\n      or\n      swap1\n      sstore\n      pop\n        /* \"contracts/Hero_Deposit/Deposit.sol\":4743:4752  msg.value */\n      callvalue\n        /* \"contracts/Hero_Deposit/Deposit.sol\":4721:4731  msg.sender */\n      caller\n        /* \"contracts/Hero_Deposit/Deposit.sol\":4721:4739  msg.sender.balance */\n      0xffffffffffffffffffffffffffffffffffffffff\n      and\n      balance\n        /* \"contracts/Hero_Deposit/Deposit.sol\":4721:4752  msg.sender.balance >= msg.value */\n      lt\n      iszero\n        /* \"contracts/Hero_Deposit/Deposit.sol\":4699:4810  require(\r... */\n      tag_99\n      jumpi\n      mload(0x40)\n      0x08c379a000000000000000000000000000000000000000000000000000000000\n      dup2\n      mstore\n      0x04\n      add\n      tag_100\n      swap1\n      tag_101\n      jump\t// in\n    tag_100:\n      mload(0x40)\n      dup1\n      swap2\n      sub\n      swap1\n      revert\n    tag_99:\n        /* \"contracts/Hero_Deposit/Deposit.sol\":4821:4847  int256 currentCeloUsdPrice */\n      0x00\n        /* \"contracts/Hero_Deposit/Deposit.sol\":4858:4874  uint256 lastTime */\n      dup1\n        /* \"contracts/Hero_Deposit/Deposit.sol\":4919:4936  getCeloUsdPrice() */\n      tag_102\n        /* \"contracts/Hero_Deposit/Deposit.sol\":4919:4934  getCeloUsdPrice */\n      tag_103\n        /* \"contracts/Hero_Deposit/Deposit.sol\":4919:4936  getCeloUsdPrice() */\n      jump\t// in\n    tag_102:\n        /* \"contracts/Hero_Deposit/Deposit.sol\":4885:4936  (currentCeloUsdPrice, lastTime) = getCeloUsdPrice() */\n      dup1\n      swap3\n      pop\n      dup2\n      swap4\n      pop\n      pop\n      pop\n        /* \"contracts/Hero_Deposit/Deposit.sol\":4947:4972  uint256 totalValueDeposit */\n      0x00\n        /* \"contracts/Hero_Deposit/Deposit.sol\":5030:5049  currentCeloUsdPrice */\n      dup3\n        /* \"contracts/Hero_Deposit/Deposit.sol\":5026:5027  1 */\n      0x01\n        /* \"contracts/Hero_Deposit/Deposit.sol\":5026:5049  1 / currentCeloUsdPrice */\n      tag_104\n      swap2\n      swap1\n      tag_105\n      jump\t// in\n    tag_104:\n        /* \"contracts/Hero_Deposit/Deposit.sol\":5012:5021  msg.value */\n      callvalue\n        /* \"contracts/Hero_Deposit/Deposit.sol\":5005:5049  int256(msg.value) >= 1 / currentCeloUsdPrice */\n      slt\n      iszero\n        /* \"contracts/Hero_Deposit/Deposit.sol\":4983:5110  require(\r... */\n      tag_106\n      jumpi\n      mload(0x40)\n      0x08c379a000000000000000000000000000000000000000000000000000000000\n      dup2\n      mstore\n      0x04\n      add\n      tag_107\n      swap1\n      tag_108\n      jump\t// in\n    tag_107:\n      mload(0x40)\n      dup1\n      swap2\n      sub\n      swap1\n      revert\n    tag_106:\n        /* \"contracts/Hero_Deposit/Deposit.sol\":5121:5141  int256 totalValueUsd */\n      0x00\n        /* \"contracts/Hero_Deposit/Deposit.sol\":5167:5186  currentCeloUsdPrice */\n      dup4\n        /* \"contracts/Hero_Deposit/Deposit.sol\":5152:5161  msg.value */\n      callvalue\n        /* \"contracts/Hero_Deposit/Deposit.sol\":5144:5187  int256((msg.value)) * (currentCeloUsdPrice) */\n      tag_109\n      swap2\n      swap1\n      tag_110\n      jump\t// in\n    tag_109:\n        /* \"contracts/Hero_Deposit/Deposit.sol\":5121:5187  int256 totalValueUsd = int256((msg.value)) * (currentCeloUsdPrice) */\n      swap1\n      pop\n        /* \"contracts/Hero_Deposit/Deposit.sol\":5235:5239  true */\n      0x01\n        /* \"contracts/Hero_Deposit/Deposit.sol\":5202:5239  checkDepositExist(msg.sender) == true */\n      iszero\n      iszero\n        /* \"contracts/Hero_Deposit/Deposit.sol\":5202:5231  checkDepositExist(msg.sender) */\n      tag_111\n        /* \"contracts/Hero_Deposit/Deposit.sol\":5220:5230  msg.sender */\n      caller\n        /* \"contracts/Hero_Deposit/Deposit.sol\":5202:5219  checkDepositExist */\n      tag_45\n        /* \"contracts/Hero_Deposit/Deposit.sol\":5202:5231  checkDepositExist(msg.sender) */\n      jump\t// in\n    tag_111:\n        /* \"contracts/Hero_Deposit/Deposit.sol\":5202:5239  checkDepositExist(msg.sender) == true */\n      iszero\n      iszero\n      eq\n        /* \"contracts/Hero_Deposit/Deposit.sol\":5198:5592  if (checkDepositExist(msg.sender) == true) {\r... */\n      iszero\n      tag_112\n      jumpi\n        /* \"contracts/Hero_Deposit/Deposit.sol\":5305:5318  totalValueUsd */\n      dup1\n        /* \"contracts/Hero_Deposit/Deposit.sol\":5256:5270  depositersLogs */\n      0x0b\n        /* \"contracts/Hero_Deposit/Deposit.sol\":5256:5282  depositersLogs[msg.sender] */\n      0x00\n        /* \"contracts/Hero_Deposit/Deposit.sol\":5271:5281  msg.sender */\n      caller\n        /* \"contracts/Hero_Deposit/Deposit.sol\":5256:5282  depositersLogs[msg.sender] */\n      0xffffffffffffffffffffffffffffffffffffffff\n      and\n      0xffffffffffffffffffffffffffffffffffffffff\n      and\n      dup2\n      mstore\n      0x20\n      add\n      swap1\n      dup2\n      mstore\n      0x20\n      add\n      0x00\n      keccak256\n        /* \"contracts/Hero_Deposit/Deposit.sol\":5256:5301  depositersLogs[msg.sender].totalDepositsValue */\n      0x01\n      add\n      0x00\n        /* \"contracts/Hero_Deposit/Deposit.sol\":5256:5318  depositersLogs[msg.sender].totalDepositsValue += totalValueUsd */\n      dup3\n      dup3\n      sload\n      tag_113\n      swap2\n      swap1\n      tag_114\n      jump\t// in\n    tag_113:\n      swap3\n      pop\n      pop\n      dup2\n      swap1\n      sstore\n      pop\n        /* \"contracts/Hero_Deposit/Deposit.sol\":5333:5347  depositersLogs */\n      0x0b\n        /* \"contracts/Hero_Deposit/Deposit.sol\":5333:5359  depositersLogs[msg.sender] */\n      0x00\n        /* \"contracts/Hero_Deposit/Deposit.sol\":5348:5358  msg.sender */\n      caller\n        /* \"contracts/Hero_Deposit/Deposit.sol\":5333:5359  depositersLogs[msg.sender] */\n      0xffffffffffffffffffffffffffffffffffffffff\n      and\n      0xffffffffffffffffffffffffffffffffffffffff\n      and\n      dup2\n      mstore\n      0x20\n      add\n      swap1\n      dup2\n      mstore\n      0x20\n      add\n      0x00\n      keccak256\n        /* \"contracts/Hero_Deposit/Deposit.sol\":5333:5377  depositersLogs[msg.sender].totalDepositTimes */\n      0x02\n      add\n      0x00\n        /* \"contracts/Hero_Deposit/Deposit.sol\":5333:5379  depositersLogs[msg.sender].totalDepositTimes++ */\n      dup2\n      sload\n      dup1\n      swap3\n      swap2\n      swap1\n      tag_115\n      swap1\n      tag_116\n      jump\t// in\n    tag_115:\n      swap2\n      swap1\n      pop\n      sstore\n      pop\n        /* \"contracts/Hero_Deposit/Deposit.sol\":5429:5438  msg.value */\n      callvalue\n        /* \"contracts/Hero_Deposit/Deposit.sol\":5394:5411  depositToActivist */\n      0x04\n        /* \"contracts/Hero_Deposit/Deposit.sol\":5394:5416  depositToActivist[_to] */\n      0x00\n        /* \"contracts/Hero_Deposit/Deposit.sol\":5412:5415  _to */\n      dup10\n        /* \"contracts/Hero_Deposit/Deposit.sol\":5394:5416  depositToActivist[_to] */\n      0xffffffffffffffffffffffffffffffffffffffff\n      and\n      0xffffffffffffffffffffffffffffffffffffffff\n      and\n      dup2\n      mstore\n      0x20\n      add\n      swap1\n      dup2\n      mstore\n      0x20\n      add\n      0x00\n      keccak256\n        /* \"contracts/Hero_Deposit/Deposit.sol\":5394:5425  depositToActivist[_to].celoCoin */\n      0x00\n      add\n      0x00\n        /* \"contracts/Hero_Deposit/Deposit.sol\":5394:5438  depositToActivist[_to].celoCoin += msg.value */\n      dup3\n      dup3\n      sload\n      tag_117\n      swap2\n      swap1\n      tag_118\n      jump\t// in\n    tag_117:\n      swap3\n      pop\n      pop\n      dup2\n      swap1\n      sstore\n      pop\n        /* \"contracts/Hero_Deposit/Deposit.sol\":5473:5490  depositToActivist */\n      0x04\n        /* \"contracts/Hero_Deposit/Deposit.sol\":5473:5495  depositToActivist[_to] */\n      0x00\n        /* \"contracts/Hero_Deposit/Deposit.sol\":5491:5494  _to */\n      dup9\n        /* \"contracts/Hero_Deposit/Deposit.sol\":5473:5495  depositToActivist[_to] */\n      0xffffffffffffffffffffffffffffffffffffffff\n      and\n      0xffffffffffffffffffffffffffffffffffffffff\n      and\n      dup2\n      mstore\n      0x20\n      add\n      swap1\n      dup2\n      mstore\n      0x20\n      add\n      0x00\n      keccak256\n        /* \"contracts/Hero_Deposit/Deposit.sol\":5473:5504  depositToActivist[_to].celoCoin */\n      0x00\n      add\n      sload\n        /* \"contracts/Hero_Deposit/Deposit.sol\":5453:5504  totalValueDeposit = depositToActivist[_to].celoCoin */\n      swap2\n      pop\n        /* \"contracts/Hero_Deposit/Deposit.sol\":5548:5551  _to */\n      dup7\n        /* \"contracts/Hero_Deposit/Deposit.sol\":5524:5580  depositLogs(msg.sender, _to, msg.value, block.timestamp) */\n      0xffffffffffffffffffffffffffffffffffffffff\n      and\n        /* \"contracts/Hero_Deposit/Deposit.sol\":5536:5546  msg.sender */\n      caller\n        /* \"contracts/Hero_Deposit/Deposit.sol\":5524:5580  depositLogs(msg.sender, _to, msg.value, block.timestamp) */\n      0xffffffffffffffffffffffffffffffffffffffff\n      and\n      0xadbbbbc8c9e65e88422d75c3d3cb93f41a5d520a2ca71c815348334de8c49121\n        /* \"contracts/Hero_Deposit/Deposit.sol\":5553:5562  msg.value */\n      callvalue\n        /* \"contracts/Hero_Deposit/Deposit.sol\":5564:5579  block.timestamp */\n      timestamp\n        /* \"contracts/Hero_Deposit/Deposit.sol\":5524:5580  depositLogs(msg.sender, _to, msg.value, block.timestamp) */\n      mload(0x40)\n      tag_119\n      swap3\n      swap2\n      swap1\n      tag_69\n      jump\t// in\n    tag_119:\n      mload(0x40)\n      dup1\n      swap2\n      sub\n      swap1\n      log3\n        /* \"contracts/Hero_Deposit/Deposit.sol\":5198:5592  if (checkDepositExist(msg.sender) == true) {\r... */\n    tag_112:\n        /* \"contracts/Hero_Deposit/Deposit.sol\":5602:5607  index */\n      0x0a\n      0x00\n        /* \"contracts/Hero_Deposit/Deposit.sol\":5602:5609  index++ */\n      dup2\n      sload\n      dup1\n      swap3\n      swap2\n      swap1\n      tag_120\n      swap1\n      tag_116\n      jump\t// in\n    tag_120:\n      swap2\n      swap1\n      pop\n      sstore\n      pop\n        /* \"contracts/Hero_Deposit/Deposit.sol\":5652:5657  index */\n      sload(0x0a)\n        /* \"contracts/Hero_Deposit/Deposit.sol\":5620:5634  depositersLogs */\n      0x0b\n        /* \"contracts/Hero_Deposit/Deposit.sol\":5620:5646  depositersLogs[msg.sender] */\n      0x00\n        /* \"contracts/Hero_Deposit/Deposit.sol\":5635:5645  msg.sender */\n      caller\n        /* \"contracts/Hero_Deposit/Deposit.sol\":5620:5646  depositersLogs[msg.sender] */\n      0xffffffffffffffffffffffffffffffffffffffff\n      and\n      0xffffffffffffffffffffffffffffffffffffffff\n      and\n      dup2\n      mstore\n      0x20\n      add\n      swap1\n      dup2\n      mstore\n      0x20\n      add\n      0x00\n      keccak256\n        /* \"contracts/Hero_Deposit/Deposit.sol\":5620:5649  depositersLogs[msg.sender].id */\n      0x00\n      add\n        /* \"contracts/Hero_Deposit/Deposit.sol\":5620:5657  depositersLogs[msg.sender].id = index */\n      dup2\n      swap1\n      sstore\n      pop\n        /* \"contracts/Hero_Deposit/Deposit.sol\":5717:5730  totalValueUsd */\n      dup1\n        /* \"contracts/Hero_Deposit/Deposit.sol\":5668:5682  depositersLogs */\n      0x0b\n        /* \"contracts/Hero_Deposit/Deposit.sol\":5668:5694  depositersLogs[msg.sender] */\n      0x00\n        /* \"contracts/Hero_Deposit/Deposit.sol\":5683:5693  msg.sender */\n      caller\n        /* \"contracts/Hero_Deposit/Deposit.sol\":5668:5694  depositersLogs[msg.sender] */\n      0xffffffffffffffffffffffffffffffffffffffff\n      and\n      0xffffffffffffffffffffffffffffffffffffffff\n      and\n      dup2\n      mstore\n      0x20\n      add\n      swap1\n      dup2\n      mstore\n      0x20\n      add\n      0x00\n      keccak256\n        /* \"contracts/Hero_Deposit/Deposit.sol\":5668:5713  depositersLogs[msg.sender].totalDepositsValue */\n      0x01\n      add\n      0x00\n        /* \"contracts/Hero_Deposit/Deposit.sol\":5668:5730  depositersLogs[msg.sender].totalDepositsValue += totalValueUsd */\n      dup3\n      dup3\n      sload\n      tag_121\n      swap2\n      swap1\n      tag_114\n      jump\t// in\n    tag_121:\n      swap3\n      pop\n      pop\n      dup2\n      swap1\n      sstore\n      pop\n        /* \"contracts/Hero_Deposit/Deposit.sol\":5789:5799  msg.sender */\n      caller\n        /* \"contracts/Hero_Deposit/Deposit.sol\":5741:5755  depositersLogs */\n      0x0b\n        /* \"contracts/Hero_Deposit/Deposit.sol\":5741:5767  depositersLogs[msg.sender] */\n      0x00\n        /* \"contracts/Hero_Deposit/Deposit.sol\":5756:5766  msg.sender */\n      caller\n        /* \"contracts/Hero_Deposit/Deposit.sol\":5741:5767  depositersLogs[msg.sender] */\n      0xffffffffffffffffffffffffffffffffffffffff\n      and\n      0xffffffffffffffffffffffffffffffffffffffff\n      and\n      dup2\n      mstore\n      0x20\n      add\n      swap1\n      dup2\n      mstore\n      0x20\n      add\n      0x00\n      keccak256\n        /* \"contracts/Hero_Deposit/Deposit.sol\":5741:5778  depositersLogs[msg.sender].userWallet */\n      0x03\n      add\n      0x00\n        /* \"contracts/Hero_Deposit/Deposit.sol\":5741:5800  depositersLogs[msg.sender].userWallet = address(msg.sender) */\n      0x0100\n      exp\n      dup2\n      sload\n      dup2\n      0xffffffffffffffffffffffffffffffffffffffff\n      mul\n      not\n      and\n      swap1\n      dup4\n      0xffffffffffffffffffffffffffffffffffffffff\n      and\n      mul\n      or\n      swap1\n      sstore\n      pop\n        /* \"contracts/Hero_Deposit/Deposit.sol\":5858:5859  1 */\n      0x01\n        /* \"contracts/Hero_Deposit/Deposit.sol\":5811:5825  depositersLogs */\n      0x0b\n        /* \"contracts/Hero_Deposit/Deposit.sol\":5811:5837  depositersLogs[msg.sender] */\n      0x00\n        /* \"contracts/Hero_Deposit/Deposit.sol\":5826:5836  msg.sender */\n      caller\n        /* \"contracts/Hero_Deposit/Deposit.sol\":5811:5837  depositersLogs[msg.sender] */\n      0xffffffffffffffffffffffffffffffffffffffff\n      and\n      0xffffffffffffffffffffffffffffffffffffffff\n      and\n      dup2\n      mstore\n      0x20\n      add\n      swap1\n      dup2\n      mstore\n      0x20\n      add\n      0x00\n      keccak256\n        /* \"contracts/Hero_Deposit/Deposit.sol\":5811:5855  depositersLogs[msg.sender].totalDepositTimes */\n      0x02\n      add\n        /* \"contracts/Hero_Deposit/Deposit.sol\":5811:5859  depositersLogs[msg.sender].totalDepositTimes = 1 */\n      dup2\n      swap1\n      sstore\n      pop\n        /* \"contracts/Hero_Deposit/Deposit.sol\":5905:5914  msg.value */\n      callvalue\n        /* \"contracts/Hero_Deposit/Deposit.sol\":5870:5887  depositToActivist */\n      0x04\n        /* \"contracts/Hero_Deposit/Deposit.sol\":5870:5892  depositToActivist[_to] */\n      0x00\n        /* \"contracts/Hero_Deposit/Deposit.sol\":5888:5891  _to */\n      dup10\n        /* \"contracts/Hero_Deposit/Deposit.sol\":5870:5892  depositToActivist[_to] */\n      0xffffffffffffffffffffffffffffffffffffffff\n      and\n      0xffffffffffffffffffffffffffffffffffffffff\n      and\n      dup2\n      mstore\n      0x20\n      add\n      swap1\n      dup2\n      mstore\n      0x20\n      add\n      0x00\n      keccak256\n        /* \"contracts/Hero_Deposit/Deposit.sol\":5870:5901  depositToActivist[_to].celoCoin */\n      0x00\n      add\n      0x00\n        /* \"contracts/Hero_Deposit/Deposit.sol\":5870:5914  depositToActivist[_to].celoCoin += msg.value */\n      dup3\n      dup3\n      sload\n      tag_122\n      swap2\n      swap1\n      tag_118\n      jump\t// in\n    tag_122:\n      swap3\n      pop\n      pop\n      dup2\n      swap1\n      sstore\n      pop\n        /* \"contracts/Hero_Deposit/Deposit.sol\":5945:5962  depositToActivist */\n      0x04\n        /* \"contracts/Hero_Deposit/Deposit.sol\":5945:5967  depositToActivist[_to] */\n      0x00\n        /* \"contracts/Hero_Deposit/Deposit.sol\":5963:5966  _to */\n      dup9\n        /* \"contracts/Hero_Deposit/Deposit.sol\":5945:5967  depositToActivist[_to] */\n      0xffffffffffffffffffffffffffffffffffffffff\n      and\n      0xffffffffffffffffffffffffffffffffffffffff\n      and\n      dup2\n      mstore\n      0x20\n      add\n      swap1\n      dup2\n      mstore\n      0x20\n      add\n      0x00\n      keccak256\n        /* \"contracts/Hero_Deposit/Deposit.sol\":5945:5976  depositToActivist[_to].celoCoin */\n      0x00\n      add\n      sload\n        /* \"contracts/Hero_Deposit/Deposit.sol\":5925:5976  totalValueDeposit = depositToActivist[_to].celoCoin */\n      swap2\n      pop\n        /* \"contracts/Hero_Deposit/Deposit.sol\":6016:6019  _to */\n      dup7\n        /* \"contracts/Hero_Deposit/Deposit.sol\":5992:6048  depositLogs(msg.sender, _to, msg.value, block.timestamp) */\n      0xffffffffffffffffffffffffffffffffffffffff\n      and\n        /* \"contracts/Hero_Deposit/Deposit.sol\":6004:6014  msg.sender */\n      caller\n        /* \"contracts/Hero_Deposit/Deposit.sol\":5992:6048  depositLogs(msg.sender, _to, msg.value, block.timestamp) */\n      0xffffffffffffffffffffffffffffffffffffffff\n      and\n      0xadbbbbc8c9e65e88422d75c3d3cb93f41a5d520a2ca71c815348334de8c49121\n        /* \"contracts/Hero_Deposit/Deposit.sol\":6021:6030  msg.value */\n      callvalue\n        /* \"contracts/Hero_Deposit/Deposit.sol\":6032:6047  block.timestamp */\n      timestamp\n        /* \"contracts/Hero_Deposit/Deposit.sol\":5992:6048  depositLogs(msg.sender, _to, msg.value, block.timestamp) */\n      mload(0x40)\n      tag_123\n      swap3\n      swap2\n      swap1\n      tag_69\n      jump\t// in\n    tag_123:\n      mload(0x40)\n      dup1\n      swap2\n      sub\n      swap1\n      log3\n        /* \"contracts/Hero_Deposit/Deposit.sol\":4688:6056  {\r... */\n      pop\n      pop\n      pop\n      pop\n        /* \"contracts/Hero_Deposit/Deposit.sol\":1804:1809  false */\n      0x00\n        /* \"contracts/Hero_Deposit/Deposit.sol\":1795:1801  locked */\n      0x0c\n      0x14\n        /* \"contracts/Hero_Deposit/Deposit.sol\":1795:1809  locked = false */\n      0x0100\n      exp\n      dup2\n      sload\n      dup2\n      0xff\n      mul\n      not\n      and\n      swap1\n      dup4\n      iszero\n      iszero\n      mul\n      or\n      swap1\n      sstore\n      pop\n        /* \"contracts/Hero_Deposit/Deposit.sol\":4515:6056  function DepositCelo(address payable _to)\r... */\n      swap2\n      pop\n      swap2\n      jump\t// out\n        /* \"contracts/Hero_Deposit/Deposit.sol\":2617:2907  function updateEthUsdPriceFeed() public {\r... */\n    tag_29:\n        /* \"contracts/Hero_Deposit/Deposit.sol\":2668:2689  IERC165 _newPriceFeed */\n      0x00\n        /* \"contracts/Hero_Deposit/Deposit.sol\":2692:2709  witnetPriceRouter */\n      dup1\n      0x00\n      swap1\n      sload\n      swap1\n      0x0100\n      exp\n      swap1\n      div\n      0xffffffffffffffffffffffffffffffffffffffff\n      and\n        /* \"contracts/Hero_Deposit/Deposit.sol\":2692:2722  witnetPriceRouter.getPriceFeed */\n      0xffffffffffffffffffffffffffffffffffffffff\n      and\n      0x8c0adf62\n        /* \"contracts/Hero_Deposit/Deposit.sol\":2744:2754  0x3d15f701 */\n      0x3d15f701\n        /* \"contracts/Hero_Deposit/Deposit.sol\":2737:2755  bytes4(0x3d15f701) */\n      0xe0\n      shl\n        /* \"contracts/Hero_Deposit/Deposit.sol\":2692:2766  witnetPriceRouter.getPriceFeed(\r... */\n      mload(0x40)\n      dup3\n      0xffffffff\n      and\n      0xe0\n      shl\n      dup2\n      mstore\n      0x04\n      add\n      tag_125\n      swap2\n      swap1\n      tag_126\n      jump\t// in\n    tag_125:\n      0x20\n      mload(0x40)\n      dup1\n      dup4\n      sub\n      dup2\n      dup7\n      dup1\n      extcodesize\n      iszero\n      dup1\n      iszero\n      tag_127\n      jumpi\n      0x00\n      dup1\n      revert\n    tag_127:\n      pop\n      gas\n      staticcall\n      iszero\n      dup1\n      iszero\n      tag_129\n      jumpi\n      returndatasize\n      0x00\n      dup1\n      returndatacopy\n      revert(0x00, returndatasize)\n    tag_129:\n      pop\n      pop\n      pop\n      pop\n      mload(0x40)\n      returndatasize\n      not(0x1f)\n      0x1f\n      dup3\n      add\n      and\n      dup3\n      add\n      dup1\n      0x40\n      mstore\n      pop\n      dup2\n      add\n      swap1\n      tag_130\n      swap2\n      swap1\n      tag_131\n      jump\t// in\n    tag_130:\n        /* \"contracts/Hero_Deposit/Deposit.sol\":2668:2766  IERC165 _newPriceFeed = witnetPriceRouter.getPriceFeed(\r... */\n      swap1\n      pop\n        /* \"contracts/Hero_Deposit/Deposit.sol\":2815:2816  0 */\n      0x00\n        /* \"contracts/Hero_Deposit/Deposit.sol\":2781:2817  address(_newPriceFeed) != address(0) */\n      0xffffffffffffffffffffffffffffffffffffffff\n      and\n        /* \"contracts/Hero_Deposit/Deposit.sol\":2789:2802  _newPriceFeed */\n      dup2\n        /* \"contracts/Hero_Deposit/Deposit.sol\":2781:2817  address(_newPriceFeed) != address(0) */\n      0xffffffffffffffffffffffffffffffffffffffff\n      and\n      eq\n        /* \"contracts/Hero_Deposit/Deposit.sol\":2777:2900  if (address(_newPriceFeed) != address(0)) {\r... */\n      tag_132\n      jumpi\n        /* \"contracts/Hero_Deposit/Deposit.sol\":2873:2886  _newPriceFeed */\n      dup1\n        /* \"contracts/Hero_Deposit/Deposit.sol\":2834:2845  EthUsdPrice */\n      0x03\n      0x00\n        /* \"contracts/Hero_Deposit/Deposit.sol\":2834:2888  EthUsdPrice = IWitnetPriceFeed(address(_newPriceFeed)) */\n      0x0100\n      exp\n      dup2\n      sload\n      dup2\n      0xffffffffffffffffffffffffffffffffffffffff\n      mul\n      not\n      and\n      swap1\n      dup4\n      0xffffffffffffffffffffffffffffffffffffffff\n      and\n      mul\n      or\n      swap1\n      sstore\n      pop\n        /* \"contracts/Hero_Deposit/Deposit.sol\":2777:2900  if (address(_newPriceFeed) != address(0)) {\r... */\n    tag_132:\n        /* \"contracts/Hero_Deposit/Deposit.sol\":2657:2907  {\r... */\n      pop\n        /* \"contracts/Hero_Deposit/Deposit.sol\":2617:2907  function updateEthUsdPriceFeed() public {\r... */\n      jump\t// out\n        /* \"contracts/Hero_Deposit/Deposit.sol\":1335:1359  uint256 public index = 0 */\n    tag_32:\n      sload(0x0a)\n      dup2\n      jump\t// out\n        /* \"contracts/Hero_Deposit/Deposit.sol\":2017:2309  function updateCeloUSDPriceFeed() public {\r... */\n    tag_37:\n        /* \"contracts/Hero_Deposit/Deposit.sol\":2069:2090  IERC165 _newPriceFeed */\n      0x00\n        /* \"contracts/Hero_Deposit/Deposit.sol\":2093:2110  witnetPriceRouter */\n      dup1\n      0x00\n      swap1\n      sload\n      swap1\n      0x0100\n      exp\n      swap1\n      div\n      0xffffffffffffffffffffffffffffffffffffffff\n      and\n        /* \"contracts/Hero_Deposit/Deposit.sol\":2093:2123  witnetPriceRouter.getPriceFeed */\n      0xffffffffffffffffffffffffffffffffffffffff\n      and\n      0x8c0adf62\n        /* \"contracts/Hero_Deposit/Deposit.sol\":2145:2155  0x9ed884be */\n      0x9ed884be\n        /* \"contracts/Hero_Deposit/Deposit.sol\":2138:2156  bytes4(0x9ed884be) */\n      0xe0\n      shl\n        /* \"contracts/Hero_Deposit/Deposit.sol\":2093:2167  witnetPriceRouter.getPriceFeed(\r... */\n      mload(0x40)\n      dup3\n      0xffffffff\n      and\n      0xe0\n      shl\n      dup2\n      mstore\n      0x04\n      add\n      tag_134\n      swap2\n      swap1\n      tag_126\n      jump\t// in\n    tag_134:\n      0x20\n      mload(0x40)\n      dup1\n      dup4\n      sub\n      dup2\n      dup7\n      dup1\n      extcodesize\n      iszero\n      dup1\n      iszero\n      tag_135\n      jumpi\n      0x00\n      dup1\n      revert\n    tag_135:\n      pop\n      gas\n      staticcall\n      iszero\n      dup1\n      iszero\n      tag_137\n      jumpi\n      returndatasize\n      0x00\n      dup1\n      returndatacopy\n      revert(0x00, returndatasize)\n    tag_137:\n      pop\n      pop\n      pop\n      pop\n      mload(0x40)\n      returndatasize\n      not(0x1f)\n      0x1f\n      dup3\n      add\n      and\n      dup3\n      add\n      dup1\n      0x40\n      mstore\n      pop\n      dup2\n      add\n      swap1\n      tag_138\n      swap2\n      swap1\n      tag_131\n      jump\t// in\n    tag_138:\n        /* \"contracts/Hero_Deposit/Deposit.sol\":2069:2167  IERC165 _newPriceFeed = witnetPriceRouter.getPriceFeed(\r... */\n      swap1\n      pop\n        /* \"contracts/Hero_Deposit/Deposit.sol\":2216:2217  0 */\n      0x00\n        /* \"contracts/Hero_Deposit/Deposit.sol\":2182:2218  address(_newPriceFeed) != address(0) */\n      0xffffffffffffffffffffffffffffffffffffffff\n      and\n        /* \"contracts/Hero_Deposit/Deposit.sol\":2190:2203  _newPriceFeed */\n      dup2\n        /* \"contracts/Hero_Deposit/Deposit.sol\":2182:2218  address(_newPriceFeed) != address(0) */\n      0xffffffffffffffffffffffffffffffffffffffff\n      and\n      eq\n        /* \"contracts/Hero_Deposit/Deposit.sol\":2178:2302  if (address(_newPriceFeed) != address(0)) {\r... */\n      tag_139\n      jumpi\n        /* \"contracts/Hero_Deposit/Deposit.sol\":2275:2288  _newPriceFeed */\n      dup1\n        /* \"contracts/Hero_Deposit/Deposit.sol\":2235:2247  celoUsdPrice */\n      0x02\n      0x00\n        /* \"contracts/Hero_Deposit/Deposit.sol\":2235:2290  celoUsdPrice = IWitnetPriceFeed(address(_newPriceFeed)) */\n      0x0100\n      exp\n      dup2\n      sload\n      dup2\n      0xffffffffffffffffffffffffffffffffffffffff\n      mul\n      not\n      and\n      swap1\n      dup4\n      0xffffffffffffffffffffffffffffffffffffffff\n      and\n      mul\n      or\n      swap1\n      sstore\n      pop\n        /* \"contracts/Hero_Deposit/Deposit.sol\":2178:2302  if (address(_newPriceFeed) != address(0)) {\r... */\n    tag_139:\n        /* \"contracts/Hero_Deposit/Deposit.sol\":2058:2309  {\r... */\n      pop\n        /* \"contracts/Hero_Deposit/Deposit.sol\":2017:2309  function updateCeloUSDPriceFeed() public {\r... */\n      jump\t// out\n        /* \"contracts/Hero_Deposit/Deposit.sol\":2317:2609  function updateCeloEurPriceFeed() public {\r... */\n    tag_40:\n        /* \"contracts/Hero_Deposit/Deposit.sol\":2369:2390  IERC165 _newPriceFeed */\n      0x00\n        /* \"contracts/Hero_Deposit/Deposit.sol\":2393:2410  witnetPriceRouter */\n      dup1\n      0x00\n      swap1\n      sload\n      swap1\n      0x0100\n      exp\n      swap1\n      div\n      0xffffffffffffffffffffffffffffffffffffffff\n      and\n        /* \"contracts/Hero_Deposit/Deposit.sol\":2393:2423  witnetPriceRouter.getPriceFeed */\n      0xffffffffffffffffffffffffffffffffffffffff\n      and\n      0x8c0adf62\n        /* \"contracts/Hero_Deposit/Deposit.sol\":2445:2455  0x21a79821 */\n      0x21a79821\n        /* \"contracts/Hero_Deposit/Deposit.sol\":2438:2456  bytes4(0x21a79821) */\n      0xe0\n      shl\n        /* \"contracts/Hero_Deposit/Deposit.sol\":2393:2467  witnetPriceRouter.getPriceFeed(\r... */\n      mload(0x40)\n      dup3\n      0xffffffff\n      and\n      0xe0\n      shl\n      dup2\n      mstore\n      0x04\n      add\n      tag_141\n      swap2\n      swap1\n      tag_126\n      jump\t// in\n    tag_141:\n      0x20\n      mload(0x40)\n      dup1\n      dup4\n      sub\n      dup2\n      dup7\n      dup1\n      extcodesize\n      iszero\n      dup1\n      iszero\n      tag_142\n      jumpi\n      0x00\n      dup1\n      revert\n    tag_142:\n      pop\n      gas\n      staticcall\n      iszero\n      dup1\n      iszero\n      tag_144\n      jumpi\n      returndatasize\n      0x00\n      dup1\n      returndatacopy\n      revert(0x00, returndatasize)\n    tag_144:\n      pop\n      pop\n      pop\n      pop\n      mload(0x40)\n      returndatasize\n      not(0x1f)\n      0x1f\n      dup3\n      add\n      and\n      dup3\n      add\n      dup1\n      0x40\n      mstore\n      pop\n      dup2\n      add\n      swap1\n      tag_145\n      swap2\n      swap1\n      tag_131\n      jump\t// in\n    tag_145:\n        /* \"contracts/Hero_Deposit/Deposit.sol\":2369:2467  IERC165 _newPriceFeed = witnetPriceRouter.getPriceFeed(\r... */\n      swap1\n      pop\n        /* \"contracts/Hero_Deposit/Deposit.sol\":2516:2517  0 */\n      0x00\n        /* \"contracts/Hero_Deposit/Deposit.sol\":2482:2518  address(_newPriceFeed) != address(0) */\n      0xffffffffffffffffffffffffffffffffffffffff\n      and\n        /* \"contracts/Hero_Deposit/Deposit.sol\":2490:2503  _newPriceFeed */\n      dup2\n        /* \"contracts/Hero_Deposit/Deposit.sol\":2482:2518  address(_newPriceFeed) != address(0) */\n      0xffffffffffffffffffffffffffffffffffffffff\n      and\n      eq\n        /* \"contracts/Hero_Deposit/Deposit.sol\":2478:2602  if (address(_newPriceFeed) != address(0)) {\r... */\n      tag_146\n      jumpi\n        /* \"contracts/Hero_Deposit/Deposit.sol\":2575:2588  _newPriceFeed */\n      dup1\n        /* \"contracts/Hero_Deposit/Deposit.sol\":2535:2547  celoEurPrice */\n      0x01\n      0x00\n        /* \"contracts/Hero_Deposit/Deposit.sol\":2535:2590  celoEurPrice = IWitnetPriceFeed(address(_newPriceFeed)) */\n      0x0100\n      exp\n      dup2\n      sload\n      dup2\n      0xffffffffffffffffffffffffffffffffffffffff\n      mul\n      not\n      and\n      swap1\n      dup4\n      0xffffffffffffffffffffffffffffffffffffffff\n      and\n      mul\n      or\n      swap1\n      sstore\n      pop\n        /* \"contracts/Hero_Deposit/Deposit.sol\":2478:2602  if (address(_newPriceFeed) != address(0)) {\r... */\n    tag_146:\n        /* \"contracts/Hero_Deposit/Deposit.sol\":2358:2609  {\r... */\n      pop\n        /* \"contracts/Hero_Deposit/Deposit.sol\":2317:2609  function updateCeloEurPriceFeed() public {\r... */\n      jump\t// out\n        /* \"contracts/Hero_Deposit/Deposit.sol\":4280:4486  function checkDepositExist(address wallet) public view returns (bool) {\r... */\n    tag_45:\n        /* \"contracts/Hero_Deposit/Deposit.sol\":4344:4348  bool */\n      0x00\n        /* \"contracts/Hero_Deposit/Deposit.sol\":4393:4394  0 */\n      dup1\n        /* \"contracts/Hero_Deposit/Deposit.sol\":4365:4379  depositersLogs */\n      0x0b\n        /* \"contracts/Hero_Deposit/Deposit.sol\":4365:4387  depositersLogs[wallet] */\n      0x00\n        /* \"contracts/Hero_Deposit/Deposit.sol\":4380:4386  wallet */\n      dup5\n        /* \"contracts/Hero_Deposit/Deposit.sol\":4365:4387  depositersLogs[wallet] */\n      0xffffffffffffffffffffffffffffffffffffffff\n      and\n      0xffffffffffffffffffffffffffffffffffffffff\n      and\n      dup2\n      mstore\n      0x20\n      add\n      swap1\n      dup2\n      mstore\n      0x20\n      add\n      0x00\n      keccak256\n        /* \"contracts/Hero_Deposit/Deposit.sol\":4365:4390  depositersLogs[wallet].id */\n      0x00\n      add\n      sload\n        /* \"contracts/Hero_Deposit/Deposit.sol\":4365:4394  depositersLogs[wallet].id > 0 */\n      gt\n        /* \"contracts/Hero_Deposit/Deposit.sol\":4361:4479  if (depositersLogs[wallet].id > 0) {\r... */\n      iszero\n      tag_148\n      jumpi\n        /* \"contracts/Hero_Deposit/Deposit.sol\":4418:4422  true */\n      0x01\n        /* \"contracts/Hero_Deposit/Deposit.sol\":4411:4422  return true */\n      swap1\n      pop\n      jump(tag_147)\n        /* \"contracts/Hero_Deposit/Deposit.sol\":4361:4479  if (depositersLogs[wallet].id > 0) {\r... */\n    tag_148:\n        /* \"contracts/Hero_Deposit/Deposit.sol\":4462:4467  false */\n      0x00\n        /* \"contracts/Hero_Deposit/Deposit.sol\":4455:4467  return false */\n      swap1\n      pop\n        /* \"contracts/Hero_Deposit/Deposit.sol\":4280:4486  function checkDepositExist(address wallet) public view returns (bool) {\r... */\n    tag_147:\n      swap2\n      swap1\n      pop\n      jump\t// out\n        /* \"contracts/Hero_Deposit/Deposit.sol\":269:312  IWitnetPriceRouter public witnetPriceRouter */\n    tag_50:\n      0x00\n      dup1\n      sload\n      swap1\n      0x0100\n      exp\n      swap1\n      div\n      0xffffffffffffffffffffffffffffffffffffffff\n      and\n      dup2\n      jump\t// out\n        /* \"contracts/Hero_Deposit/Deposit.sol\":6102:6838  function DepositCusdCredit(address contributer,address _to,uint256 amount)\r... */\n    tag_57:\n        /* \"contracts/Hero_Deposit/Deposit.sol\":6240:6244  bool */\n      0x00\n        /* \"contracts/Hero_Deposit/Deposit.sol\":1877:1882  owner */\n      0x0c\n      0x00\n      swap1\n      sload\n      swap1\n      0x0100\n      exp\n      swap1\n      div\n      0xffffffffffffffffffffffffffffffffffffffff\n      and\n        /* \"contracts/Hero_Deposit/Deposit.sol\":1863:1882  msg.sender == owner */\n      0xffffffffffffffffffffffffffffffffffffffff\n      and\n        /* \"contracts/Hero_Deposit/Deposit.sol\":1863:1873  msg.sender */\n      caller\n        /* \"contracts/Hero_Deposit/Deposit.sol\":1863:1882  msg.sender == owner */\n      0xffffffffffffffffffffffffffffffffffffffff\n      and\n      eq\n        /* \"contracts/Hero_Deposit/Deposit.sol\":1855:1883  require(msg.sender == owner) */\n      tag_151\n      jumpi\n      0x00\n      dup1\n      revert\n    tag_151:\n        /* \"contracts/Hero_Deposit/Deposit.sol\":6272:6298  int256 currentCeloUsdPrice */\n      0x00\n        /* \"contracts/Hero_Deposit/Deposit.sol\":6309:6325  uint256 lastTime */\n      dup1\n        /* \"contracts/Hero_Deposit/Deposit.sol\":6370:6387  getCeloUsdPrice() */\n      tag_153\n        /* \"contracts/Hero_Deposit/Deposit.sol\":6370:6385  getCeloUsdPrice */\n      tag_103\n        /* \"contracts/Hero_Deposit/Deposit.sol\":6370:6387  getCeloUsdPrice() */\n      jump\t// in\n    tag_153:\n        /* \"contracts/Hero_Deposit/Deposit.sol\":6336:6387  (currentCeloUsdPrice, lastTime) = getCeloUsdPrice() */\n      dup1\n      swap3\n      pop\n      dup2\n      swap4\n      pop\n      pop\n      pop\n        /* \"contracts/Hero_Deposit/Deposit.sol\":6398:6403  index */\n      0x0a\n      0x00\n        /* \"contracts/Hero_Deposit/Deposit.sol\":6398:6405  index++ */\n      dup2\n      sload\n      dup1\n      swap3\n      swap2\n      swap1\n      tag_154\n      swap1\n      tag_116\n      jump\t// in\n    tag_154:\n      swap2\n      swap1\n      pop\n      sstore\n      pop\n        /* \"contracts/Hero_Deposit/Deposit.sol\":6449:6454  index */\n      sload(0x0a)\n        /* \"contracts/Hero_Deposit/Deposit.sol\":6416:6430  depositersLogs */\n      0x0b\n        /* \"contracts/Hero_Deposit/Deposit.sol\":6416:6443  depositersLogs[contributer] */\n      0x00\n        /* \"contracts/Hero_Deposit/Deposit.sol\":6431:6442  contributer */\n      dup9\n        /* \"contracts/Hero_Deposit/Deposit.sol\":6416:6443  depositersLogs[contributer] */\n      0xffffffffffffffffffffffffffffffffffffffff\n      and\n      0xffffffffffffffffffffffffffffffffffffffff\n      and\n      dup2\n      mstore\n      0x20\n      add\n      swap1\n      dup2\n      mstore\n      0x20\n      add\n      0x00\n      keccak256\n        /* \"contracts/Hero_Deposit/Deposit.sol\":6416:6446  depositersLogs[contributer].id */\n      0x00\n      add\n        /* \"contracts/Hero_Deposit/Deposit.sol\":6416:6454  depositersLogs[contributer].id = index */\n      dup2\n      swap1\n      sstore\n      pop\n        /* \"contracts/Hero_Deposit/Deposit.sol\":6532:6551  currentCeloUsdPrice */\n      dup2\n        /* \"contracts/Hero_Deposit/Deposit.sol\":6522:6528  amount */\n      dup5\n        /* \"contracts/Hero_Deposit/Deposit.sol\":6515:6551  int256(amount) * currentCeloUsdPrice */\n      tag_155\n      swap2\n      swap1\n      tag_110\n      jump\t// in\n    tag_155:\n        /* \"contracts/Hero_Deposit/Deposit.sol\":6465:6479  depositersLogs */\n      0x0b\n        /* \"contracts/Hero_Deposit/Deposit.sol\":6465:6492  depositersLogs[contributer] */\n      0x00\n        /* \"contracts/Hero_Deposit/Deposit.sol\":6480:6491  contributer */\n      dup9\n        /* \"contracts/Hero_Deposit/Deposit.sol\":6465:6492  depositersLogs[contributer] */\n      0xffffffffffffffffffffffffffffffffffffffff\n      and\n      0xffffffffffffffffffffffffffffffffffffffff\n      and\n      dup2\n      mstore\n      0x20\n      add\n      swap1\n      dup2\n      mstore\n      0x20\n      add\n      0x00\n      keccak256\n        /* \"contracts/Hero_Deposit/Deposit.sol\":6465:6511  depositersLogs[contributer].totalDepositsValue */\n      0x01\n      add\n      0x00\n        /* \"contracts/Hero_Deposit/Deposit.sol\":6465:6551  depositersLogs[contributer].totalDepositsValue += int256(amount) * currentCeloUsdPrice */\n      dup3\n      dup3\n      sload\n      tag_156\n      swap2\n      swap1\n      tag_114\n      jump\t// in\n    tag_156:\n      swap3\n      pop\n      pop\n      dup2\n      swap1\n      sstore\n      pop\n        /* \"contracts/Hero_Deposit/Deposit.sol\":6611:6622  contributer */\n      dup6\n        /* \"contracts/Hero_Deposit/Deposit.sol\":6562:6576  depositersLogs */\n      0x0b\n        /* \"contracts/Hero_Deposit/Deposit.sol\":6562:6589  depositersLogs[contributer] */\n      0x00\n        /* \"contracts/Hero_Deposit/Deposit.sol\":6577:6588  contributer */\n      dup9\n        /* \"contracts/Hero_Deposit/Deposit.sol\":6562:6589  depositersLogs[contributer] */\n      0xffffffffffffffffffffffffffffffffffffffff\n      and\n      0xffffffffffffffffffffffffffffffffffffffff\n      and\n      dup2\n      mstore\n      0x20\n      add\n      swap1\n      dup2\n      mstore\n      0x20\n      add\n      0x00\n      keccak256\n        /* \"contracts/Hero_Deposit/Deposit.sol\":6562:6600  depositersLogs[contributer].userWallet */\n      0x03\n      add\n      0x00\n        /* \"contracts/Hero_Deposit/Deposit.sol\":6562:6623  depositersLogs[contributer].userWallet = address(contributer) */\n      0x0100\n      exp\n      dup2\n      sload\n      dup2\n      0xffffffffffffffffffffffffffffffffffffffff\n      mul\n      not\n      and\n      swap1\n      dup4\n      0xffffffffffffffffffffffffffffffffffffffff\n      and\n      mul\n      or\n      swap1\n      sstore\n      pop\n        /* \"contracts/Hero_Deposit/Deposit.sol\":6683:6684  1 */\n      0x01\n        /* \"contracts/Hero_Deposit/Deposit.sol\":6634:6648  depositersLogs */\n      0x0b\n        /* \"contracts/Hero_Deposit/Deposit.sol\":6634:6661  depositersLogs[contributer] */\n      0x00\n        /* \"contracts/Hero_Deposit/Deposit.sol\":6649:6660  contributer */\n      dup9\n        /* \"contracts/Hero_Deposit/Deposit.sol\":6634:6661  depositersLogs[contributer] */\n      0xffffffffffffffffffffffffffffffffffffffff\n      and\n      0xffffffffffffffffffffffffffffffffffffffff\n      and\n      dup2\n      mstore\n      0x20\n      add\n      swap1\n      dup2\n      mstore\n      0x20\n      add\n      0x00\n      keccak256\n        /* \"contracts/Hero_Deposit/Deposit.sol\":6634:6679  depositersLogs[contributer].totalDepositTimes */\n      0x02\n      add\n      0x00\n        /* \"contracts/Hero_Deposit/Deposit.sol\":6634:6684  depositersLogs[contributer].totalDepositTimes += 1 */\n      dup3\n      dup3\n      sload\n      tag_157\n      swap2\n      swap1\n      tag_118\n      jump\t// in\n    tag_157:\n      swap3\n      pop\n      pop\n      dup2\n      swap1\n      sstore\n      pop\n        /* \"contracts/Hero_Deposit/Deposit.sol\":6730:6736  amount */\n      dup4\n        /* \"contracts/Hero_Deposit/Deposit.sol\":6695:6712  depositToActivist */\n      0x04\n        /* \"contracts/Hero_Deposit/Deposit.sol\":6695:6717  depositToActivist[_to] */\n      0x00\n        /* \"contracts/Hero_Deposit/Deposit.sol\":6713:6716  _to */\n      dup8\n        /* \"contracts/Hero_Deposit/Deposit.sol\":6695:6717  depositToActivist[_to] */\n      0xffffffffffffffffffffffffffffffffffffffff\n      and\n      0xffffffffffffffffffffffffffffffffffffffff\n      and\n      dup2\n      mstore\n      0x20\n      add\n      swap1\n      dup2\n      mstore\n      0x20\n      add\n      0x00\n      keccak256\n        /* \"contracts/Hero_Deposit/Deposit.sol\":6695:6726  depositToActivist[_to].usdcCoin */\n      0x01\n      add\n      0x00\n        /* \"contracts/Hero_Deposit/Deposit.sol\":6695:6736  depositToActivist[_to].usdcCoin += amount */\n      dup3\n      dup3\n      sload\n      tag_158\n      swap2\n      swap1\n      tag_118\n      jump\t// in\n    tag_158:\n      swap3\n      pop\n      pop\n      dup2\n      swap1\n      sstore\n      pop\n        /* \"contracts/Hero_Deposit/Deposit.sol\":6826:6830  true */\n      0x01\n        /* \"contracts/Hero_Deposit/Deposit.sol\":6819:6830  return true */\n      swap3\n      pop\n      pop\n      pop\n        /* \"contracts/Hero_Deposit/Deposit.sol\":6102:6838  function DepositCusdCredit(address contributer,address _to,uint256 amount)\r... */\n      swap4\n      swap3\n      pop\n      pop\n      pop\n      jump\t// out\n        /* \"contracts/Hero_Deposit/Deposit.sol\":1588:1637  mapping(address => deposit) public depositersLogs */\n    tag_62:\n      mstore(0x20, 0x0b)\n      dup1\n      0x00\n      mstore\n      keccak256(0x00, 0x40)\n      0x00\n      swap2\n      pop\n      swap1\n      pop\n      dup1\n      0x00\n      add\n      sload\n      swap1\n      dup1\n      0x01\n      add\n      sload\n      swap1\n      dup1\n      0x02\n      add\n      sload\n      swap1\n      dup1\n      0x03\n      add\n      0x00\n      swap1\n      sload\n      swap1\n      0x0100\n      exp\n      swap1\n      div\n      0xffffffffffffffffffffffffffffffffffffffff\n      and\n      swap1\n      pop\n      dup5\n      jump\t// out\n        /* \"contracts/Hero_Deposit/Deposit.sol\":8388:9408  function withdrowCelo(address payable _to)\r... */\n    tag_67:\n        /* \"contracts/Hero_Deposit/Deposit.sol\":8506:8513  uint256 */\n      0x00\n        /* \"contracts/Hero_Deposit/Deposit.sol\":8515:8522  uint256 */\n      dup1\n        /* \"contracts/Hero_Deposit/Deposit.sol\":1741:1747  locked */\n      0x0c\n      0x14\n      swap1\n      sload\n      swap1\n      0x0100\n      exp\n      swap1\n      div\n      0xff\n      and\n        /* \"contracts/Hero_Deposit/Deposit.sol\":1740:1747  !locked */\n      iszero\n        /* \"contracts/Hero_Deposit/Deposit.sol\":1732:1748  require(!locked) */\n      tag_160\n      jumpi\n      0x00\n      dup1\n      revert\n    tag_160:\n        /* \"contracts/Hero_Deposit/Deposit.sol\":1768:1772  true */\n      0x01\n        /* \"contracts/Hero_Deposit/Deposit.sol\":1759:1765  locked */\n      0x0c\n      0x14\n        /* \"contracts/Hero_Deposit/Deposit.sol\":1759:1772  locked = true */\n      0x0100\n      exp\n      dup2\n      sload\n      dup2\n      0xff\n      mul\n      not\n      and\n      swap1\n      dup4\n      iszero\n      iszero\n      mul\n      or\n      swap1\n      sstore\n      pop\n        /* \"contracts/Hero_Deposit/Deposit.sol\":8597:8606  msg.value */\n      callvalue\n        /* \"contracts/Hero_Deposit/Deposit.sol\":8562:8579  depositToActivist */\n      0x04\n        /* \"contracts/Hero_Deposit/Deposit.sol\":8562:8584  depositToActivist[_to] */\n      0x00\n        /* \"contracts/Hero_Deposit/Deposit.sol\":8580:8583  _to */\n      dup6\n        /* \"contracts/Hero_Deposit/Deposit.sol\":8562:8584  depositToActivist[_to] */\n      0xffffffffffffffffffffffffffffffffffffffff\n      and\n      0xffffffffffffffffffffffffffffffffffffffff\n      and\n      dup2\n      mstore\n      0x20\n      add\n      swap1\n      dup2\n      mstore\n      0x20\n      add\n      0x00\n      keccak256\n        /* \"contracts/Hero_Deposit/Deposit.sol\":8562:8593  depositToActivist[_to].celoCoin */\n      0x00\n      add\n      sload\n        /* \"contracts/Hero_Deposit/Deposit.sol\":8562:8606  depositToActivist[_to].celoCoin >= msg.value */\n      lt\n      iszero\n        /* \"contracts/Hero_Deposit/Deposit.sol\":8540:8649  require(\r... */\n      tag_162\n      jumpi\n      mload(0x40)\n      0x08c379a000000000000000000000000000000000000000000000000000000000\n      dup2\n      mstore\n      0x04\n      add\n      tag_163\n      swap1\n      tag_164\n      jump\t// in\n    tag_163:\n      mload(0x40)\n      dup1\n      swap2\n      sub\n      swap1\n      revert\n    tag_162:\n        /* \"contracts/Hero_Deposit/Deposit.sol\":8661:8687  int256 currentCeloUsdPrice */\n      0x00\n        /* \"contracts/Hero_Deposit/Deposit.sol\":8689:8705  uint256 lastTime */\n      dup1\n        /* \"contracts/Hero_Deposit/Deposit.sol\":8709:8726  getCeloUsdPrice() */\n      tag_165\n        /* \"contracts/Hero_Deposit/Deposit.sol\":8709:8724  getCeloUsdPrice */\n      tag_103\n        /* \"contracts/Hero_Deposit/Deposit.sol\":8709:8726  getCeloUsdPrice() */\n      jump\t// in\n    tag_165:\n        /* \"contracts/Hero_Deposit/Deposit.sol\":8660:8726  (int256 currentCeloUsdPrice, uint256 lastTime) = getCeloUsdPrice() */\n      swap2\n      pop\n      swap2\n      pop\n        /* \"contracts/Hero_Deposit/Deposit.sol\":8739:8753  uint256 amount */\n      0x00\n        /* \"contracts/Hero_Deposit/Deposit.sol\":8887:8889  12 */\n      0x0c\n        /* \"contracts/Hero_Deposit/Deposit.sol\":8849:8868  currentCeloUsdPrice */\n      dup4\n        /* \"contracts/Hero_Deposit/Deposit.sol\":8807:8824  depositToActivist */\n      0x04\n        /* \"contracts/Hero_Deposit/Deposit.sol\":8807:8829  depositToActivist[_to] */\n      0x00\n        /* \"contracts/Hero_Deposit/Deposit.sol\":8825:8828  _to */\n      dup10\n        /* \"contracts/Hero_Deposit/Deposit.sol\":8807:8829  depositToActivist[_to] */\n      0xffffffffffffffffffffffffffffffffffffffff\n      and\n      0xffffffffffffffffffffffffffffffffffffffff\n      and\n      dup2\n      mstore\n      0x20\n      add\n      swap1\n      dup2\n      mstore\n      0x20\n      add\n      0x00\n      keccak256\n        /* \"contracts/Hero_Deposit/Deposit.sol\":8807:8838  depositToActivist[_to].usdcCoin */\n      0x01\n      add\n      sload\n        /* \"contracts/Hero_Deposit/Deposit.sol\":8807:8869  depositToActivist[_to].usdcCoin / uint256(currentCeloUsdPrice) */\n      tag_166\n      swap2\n      swap1\n      tag_167\n      jump\t// in\n    tag_166:\n        /* \"contracts/Hero_Deposit/Deposit.sol\":8758:8775  depositToActivist */\n      0x04\n        /* \"contracts/Hero_Deposit/Deposit.sol\":8758:8780  depositToActivist[_to] */\n      0x00\n        /* \"contracts/Hero_Deposit/Deposit.sol\":8776:8779  _to */\n      dup10\n        /* \"contracts/Hero_Deposit/Deposit.sol\":8758:8780  depositToActivist[_to] */\n      0xffffffffffffffffffffffffffffffffffffffff\n      and\n      0xffffffffffffffffffffffffffffffffffffffff\n      and\n      dup2\n      mstore\n      0x20\n      add\n      swap1\n      dup2\n      mstore\n      0x20\n      add\n      0x00\n      keccak256\n        /* \"contracts/Hero_Deposit/Deposit.sol\":8758:8789  depositToActivist[_to].celoCoin */\n      0x00\n      add\n      sload\n        /* \"contracts/Hero_Deposit/Deposit.sol\":8757:8870  (depositToActivist[_to].celoCoin) +\r... */\n      tag_168\n      swap2\n      swap1\n      tag_118\n      jump\t// in\n    tag_168:\n        /* \"contracts/Hero_Deposit/Deposit.sol\":8756:8889  ((depositToActivist[_to].celoCoin) +\r... */\n      tag_169\n      swap2\n      swap1\n      tag_167\n      jump\t// in\n    tag_169:\n        /* \"contracts/Hero_Deposit/Deposit.sol\":8739:8889  uint256 amount = ((depositToActivist[_to].celoCoin) +\r... */\n      swap1\n      pop\n        /* \"contracts/Hero_Deposit/Deposit.sol\":8900:8903  _to */\n      dup6\n        /* \"contracts/Hero_Deposit/Deposit.sol\":8900:8912  _to.transfer */\n      0xffffffffffffffffffffffffffffffffffffffff\n      and\n        /* \"contracts/Hero_Deposit/Deposit.sol\":8900:8920  _to.transfer(amount) */\n      0x08fc\n        /* \"contracts/Hero_Deposit/Deposit.sol\":8913:8919  amount */\n      dup3\n        /* \"contracts/Hero_Deposit/Deposit.sol\":8900:8920  _to.transfer(amount) */\n      swap1\n      dup2\n      iszero\n      mul\n      swap1\n      mload(0x40)\n      0x00\n      mload(0x40)\n      dup1\n      dup4\n      sub\n      dup2\n      dup6\n      dup9\n      dup9\n      call\n      swap4\n      pop\n      pop\n      pop\n      pop\n      iszero\n      dup1\n      iszero\n      tag_171\n      jumpi\n      returndatasize\n      0x00\n      dup1\n      returndatacopy\n      revert(0x00, returndatasize)\n    tag_171:\n      pop\n        /* \"contracts/Hero_Deposit/Deposit.sol\":8972:8973  0 */\n      0x00\n        /* \"contracts/Hero_Deposit/Deposit.sol\":8937:8954  depositToActivist */\n      0x04\n        /* \"contracts/Hero_Deposit/Deposit.sol\":8937:8959  depositToActivist[_to] */\n      0x00\n        /* \"contracts/Hero_Deposit/Deposit.sol\":8955:8958  _to */\n      dup9\n        /* \"contracts/Hero_Deposit/Deposit.sol\":8937:8959  depositToActivist[_to] */\n      0xffffffffffffffffffffffffffffffffffffffff\n      and\n      0xffffffffffffffffffffffffffffffffffffffff\n      and\n      dup2\n      mstore\n      0x20\n      add\n      swap1\n      dup2\n      mstore\n      0x20\n      add\n      0x00\n      keccak256\n        /* \"contracts/Hero_Deposit/Deposit.sol\":8937:8968  depositToActivist[_to].celoCoin */\n      0x00\n      add\n      sload\n        /* \"contracts/Hero_Deposit/Deposit.sol\":8937:8973  depositToActivist[_to].celoCoin == 0 */\n      eq\n        /* \"contracts/Hero_Deposit/Deposit.sol\":8933:9297  if (depositToActivist[_to].celoCoin == 0) {\r... */\n      iszero\n      tag_172\n      jumpi\n        /* \"contracts/Hero_Deposit/Deposit.sol\":9025:9031  amount */\n      dup1\n        /* \"contracts/Hero_Deposit/Deposit.sol\":8990:9007  depositToActivist */\n      0x04\n        /* \"contracts/Hero_Deposit/Deposit.sol\":8990:9012  depositToActivist[_to] */\n      0x00\n        /* \"contracts/Hero_Deposit/Deposit.sol\":9008:9011  _to */\n      dup9\n        /* \"contracts/Hero_Deposit/Deposit.sol\":8990:9012  depositToActivist[_to] */\n      0xffffffffffffffffffffffffffffffffffffffff\n      and\n      0xffffffffffffffffffffffffffffffffffffffff\n      and\n      dup2\n      mstore\n      0x20\n      add\n      swap1\n      dup2\n      mstore\n      0x20\n      add\n      0x00\n      keccak256\n        /* \"contracts/Hero_Deposit/Deposit.sol\":8990:9021  depositToActivist[_to].usdcCoin */\n      0x01\n      add\n      0x00\n        /* \"contracts/Hero_Deposit/Deposit.sol\":8990:9031  depositToActivist[_to].usdcCoin -= amount */\n      dup3\n      dup3\n      sload\n      tag_173\n      swap2\n      swap1\n      tag_174\n      jump\t// in\n    tag_173:\n      swap3\n      pop\n      pop\n      dup2\n      swap1\n      sstore\n      pop\n        /* \"contracts/Hero_Deposit/Deposit.sol\":8933:9297  if (depositToActivist[_to].celoCoin == 0) {\r... */\n      jump(tag_175)\n    tag_172:\n        /* \"contracts/Hero_Deposit/Deposit.sol\":9088:9089  0 */\n      0x00\n        /* \"contracts/Hero_Deposit/Deposit.sol\":9053:9070  depositToActivist */\n      0x04\n        /* \"contracts/Hero_Deposit/Deposit.sol\":9053:9075  depositToActivist[_to] */\n      0x00\n        /* \"contracts/Hero_Deposit/Deposit.sol\":9071:9074  _to */\n      dup9\n        /* \"contracts/Hero_Deposit/Deposit.sol\":9053:9075  depositToActivist[_to] */\n      0xffffffffffffffffffffffffffffffffffffffff\n      and\n      0xffffffffffffffffffffffffffffffffffffffff\n      and\n      dup2\n      mstore\n      0x20\n      add\n      swap1\n      dup2\n      mstore\n      0x20\n      add\n      0x00\n      keccak256\n        /* \"contracts/Hero_Deposit/Deposit.sol\":9053:9084  depositToActivist[_to].usdcCoin */\n      0x01\n      add\n      sload\n        /* \"contracts/Hero_Deposit/Deposit.sol\":9053:9089  depositToActivist[_to].usdcCoin == 0 */\n      eq\n        /* \"contracts/Hero_Deposit/Deposit.sol\":9049:9297  if (depositToActivist[_to].usdcCoin == 0) {\r... */\n      iszero\n      tag_176\n      jumpi\n        /* \"contracts/Hero_Deposit/Deposit.sol\":9141:9147  amount */\n      dup1\n        /* \"contracts/Hero_Deposit/Deposit.sol\":9106:9123  depositToActivist */\n      0x04\n        /* \"contracts/Hero_Deposit/Deposit.sol\":9106:9128  depositToActivist[_to] */\n      0x00\n        /* \"contracts/Hero_Deposit/Deposit.sol\":9124:9127  _to */\n      dup9\n        /* \"contracts/Hero_Deposit/Deposit.sol\":9106:9128  depositToActivist[_to] */\n      0xffffffffffffffffffffffffffffffffffffffff\n      and\n      0xffffffffffffffffffffffffffffffffffffffff\n      and\n      dup2\n      mstore\n      0x20\n      add\n      swap1\n      dup2\n      mstore\n      0x20\n      add\n      0x00\n      keccak256\n        /* \"contracts/Hero_Deposit/Deposit.sol\":9106:9137  depositToActivist[_to].celoCoin */\n      0x00\n      add\n      0x00\n        /* \"contracts/Hero_Deposit/Deposit.sol\":9106:9147  depositToActivist[_to].celoCoin -= amount */\n      dup3\n      dup3\n      sload\n      tag_177\n      swap2\n      swap1\n      tag_174\n      jump\t// in\n    tag_177:\n      swap3\n      pop\n      pop\n      dup2\n      swap1\n      sstore\n      pop\n        /* \"contracts/Hero_Deposit/Deposit.sol\":9049:9297  if (depositToActivist[_to].usdcCoin == 0) {\r... */\n      jump(tag_178)\n    tag_176:\n        /* \"contracts/Hero_Deposit/Deposit.sol\":9224:9225  2 */\n      0x02\n        /* \"contracts/Hero_Deposit/Deposit.sol\":9215:9221  amount */\n      dup2\n        /* \"contracts/Hero_Deposit/Deposit.sol\":9215:9225  amount / 2 */\n      tag_179\n      swap2\n      swap1\n      tag_167\n      jump\t// in\n    tag_179:\n        /* \"contracts/Hero_Deposit/Deposit.sol\":9180:9197  depositToActivist */\n      0x04\n        /* \"contracts/Hero_Deposit/Deposit.sol\":9180:9202  depositToActivist[_to] */\n      0x00\n        /* \"contracts/Hero_Deposit/Deposit.sol\":9198:9201  _to */\n      dup9\n        /* \"contracts/Hero_Deposit/Deposit.sol\":9180:9202  depositToActivist[_to] */\n      0xffffffffffffffffffffffffffffffffffffffff\n      and\n      0xffffffffffffffffffffffffffffffffffffffff\n      and\n      dup2\n      mstore\n      0x20\n      add\n      swap1\n      dup2\n      mstore\n      0x20\n      add\n      0x00\n      keccak256\n        /* \"contracts/Hero_Deposit/Deposit.sol\":9180:9211  depositToActivist[_to].celoCoin */\n      0x00\n      add\n      0x00\n        /* \"contracts/Hero_Deposit/Deposit.sol\":9180:9225  depositToActivist[_to].celoCoin -= amount / 2 */\n      dup3\n      dup3\n      sload\n      tag_180\n      swap2\n      swap1\n      tag_174\n      jump\t// in\n    tag_180:\n      swap3\n      pop\n      pop\n      dup2\n      swap1\n      sstore\n      pop\n        /* \"contracts/Hero_Deposit/Deposit.sol\":9284:9285  2 */\n      0x02\n        /* \"contracts/Hero_Deposit/Deposit.sol\":9275:9281  amount */\n      dup2\n        /* \"contracts/Hero_Deposit/Deposit.sol\":9275:9285  amount / 2 */\n      tag_181\n      swap2\n      swap1\n      tag_167\n      jump\t// in\n    tag_181:\n        /* \"contracts/Hero_Deposit/Deposit.sol\":9240:9257  depositToActivist */\n      0x04\n        /* \"contracts/Hero_Deposit/Deposit.sol\":9240:9262  depositToActivist[_to] */\n      0x00\n        /* \"contracts/Hero_Deposit/Deposit.sol\":9258:9261  _to */\n      dup9\n        /* \"contracts/Hero_Deposit/Deposit.sol\":9240:9262  depositToActivist[_to] */\n      0xffffffffffffffffffffffffffffffffffffffff\n      and\n      0xffffffffffffffffffffffffffffffffffffffff\n      and\n      dup2\n      mstore\n      0x20\n      add\n      swap1\n      dup2\n      mstore\n      0x20\n      add\n      0x00\n      keccak256\n        /* \"contracts/Hero_Deposit/Deposit.sol\":9240:9271  depositToActivist[_to].usdcCoin */\n      0x01\n      add\n      0x00\n        /* \"contracts/Hero_Deposit/Deposit.sol\":9240:9285  depositToActivist[_to].usdcCoin -= amount / 2 */\n      dup3\n      dup3\n      sload\n      tag_182\n      swap2\n      swap1\n      tag_174\n      jump\t// in\n    tag_182:\n      swap3\n      pop\n      pop\n      dup2\n      swap1\n      sstore\n      pop\n        /* \"contracts/Hero_Deposit/Deposit.sol\":9049:9297  if (depositToActivist[_to].usdcCoin == 0) {\r... */\n    tag_178:\n        /* \"contracts/Hero_Deposit/Deposit.sol\":8933:9297  if (depositToActivist[_to].celoCoin == 0) {\r... */\n    tag_175:\n        /* \"contracts/Hero_Deposit/Deposit.sol\":9328:9331  _to */\n      dup6\n        /* \"contracts/Hero_Deposit/Deposit.sol\":9312:9357  activistPayment(_to, amount, block.timestamp) */\n      0xffffffffffffffffffffffffffffffffffffffff\n      and\n      0x9cd516bc314ca50bb8f1f5602d3f202cdcbf17b89da33dd13c3909d5d3c00a32\n        /* \"contracts/Hero_Deposit/Deposit.sol\":9333:9339  amount */\n      dup3\n        /* \"contracts/Hero_Deposit/Deposit.sol\":9341:9356  block.timestamp */\n      timestamp\n        /* \"contracts/Hero_Deposit/Deposit.sol\":9312:9357  activistPayment(_to, amount, block.timestamp) */\n      mload(0x40)\n      tag_183\n      swap3\n      swap2\n      swap1\n      tag_69\n      jump\t// in\n    tag_183:\n      mload(0x40)\n      dup1\n      swap2\n      sub\n      swap1\n      log2\n        /* \"contracts/Hero_Deposit/Deposit.sol\":9376:9382  amount */\n      dup1\n        /* \"contracts/Hero_Deposit/Deposit.sol\":9384:9399  block.timestamp */\n      timestamp\n        /* \"contracts/Hero_Deposit/Deposit.sol\":9368:9400  return (amount, block.timestamp) */\n      swap5\n      pop\n      swap5\n      pop\n      pop\n      pop\n      pop\n        /* \"contracts/Hero_Deposit/Deposit.sol\":1804:1809  false */\n      0x00\n        /* \"contracts/Hero_Deposit/Deposit.sol\":1795:1801  locked */\n      0x0c\n      0x14\n        /* \"contracts/Hero_Deposit/Deposit.sol\":1795:1809  locked = false */\n      0x0100\n      exp\n      dup2\n      sload\n      dup2\n      0xff\n      mul\n      not\n      and\n      swap1\n      dup4\n      iszero\n      iszero\n      mul\n      or\n      swap1\n      sstore\n      pop\n        /* \"contracts/Hero_Deposit/Deposit.sol\":8388:9408  function withdrowCelo(address payable _to)\r... */\n      swap2\n      pop\n      swap2\n      jump\t// out\n        /* \"contracts/Hero_Deposit/Deposit.sol\":6945:8380  function DepositCusd(address payable _to)\r... */\n    tag_72:\n        /* \"contracts/Hero_Deposit/Deposit.sol\":7062:7066  bool */\n      0x00\n        /* \"contracts/Hero_Deposit/Deposit.sol\":1741:1747  locked */\n      0x0c\n      0x14\n      swap1\n      sload\n      swap1\n      0x0100\n      exp\n      swap1\n      div\n      0xff\n      and\n        /* \"contracts/Hero_Deposit/Deposit.sol\":1740:1747  !locked */\n      iszero\n        /* \"contracts/Hero_Deposit/Deposit.sol\":1732:1748  require(!locked) */\n      tag_185\n      jumpi\n      0x00\n      dup1\n      revert\n    tag_185:\n        /* \"contracts/Hero_Deposit/Deposit.sol\":1768:1772  true */\n      0x01\n        /* \"contracts/Hero_Deposit/Deposit.sol\":1759:1765  locked */\n      0x0c\n      0x14\n        /* \"contracts/Hero_Deposit/Deposit.sol\":1759:1772  locked = true */\n      0x0100\n      exp\n      dup2\n      sload\n      dup2\n      0xff\n      mul\n      not\n      and\n      swap1\n      dup4\n      iszero\n      iszero\n      mul\n      or\n      swap1\n      sstore\n      pop\n        /* \"contracts/Hero_Deposit/Deposit.sol\":7128:7137  msg.value */\n      callvalue\n        /* \"contracts/Hero_Deposit/Deposit.sol\":7106:7116  msg.sender */\n      caller\n        /* \"contracts/Hero_Deposit/Deposit.sol\":7106:7124  msg.sender.balance */\n      0xffffffffffffffffffffffffffffffffffffffff\n      and\n      balance\n        /* \"contracts/Hero_Deposit/Deposit.sol\":7106:7137  msg.sender.balance >= msg.value */\n      lt\n      iszero\n        /* \"contracts/Hero_Deposit/Deposit.sol\":7084:7195  require(\r... */\n      tag_187\n      jumpi\n      mload(0x40)\n      0x08c379a000000000000000000000000000000000000000000000000000000000\n      dup2\n      mstore\n      0x04\n      add\n      tag_188\n      swap1\n      tag_101\n      jump\t// in\n    tag_188:\n      mload(0x40)\n      dup1\n      swap2\n      sub\n      swap1\n      revert\n    tag_187:\n        /* \"contracts/Hero_Deposit/Deposit.sol\":7227:7228  1 */\n      0x01\n        /* \"contracts/Hero_Deposit/Deposit.sol\":7214:7223  msg.value */\n      callvalue\n        /* \"contracts/Hero_Deposit/Deposit.sol\":7214:7228  msg.value >= 1 */\n      lt\n      iszero\n        /* \"contracts/Hero_Deposit/Deposit.sol\":7206:7260  require(msg.value >= 1, \"Thanks to deposit more cusd\") */\n      tag_189\n      jumpi\n      mload(0x40)\n      0x08c379a000000000000000000000000000000000000000000000000000000000\n      dup2\n      mstore\n      0x04\n      add\n      tag_190\n      swap1\n      tag_191\n      jump\t// in\n    tag_190:\n      mload(0x40)\n      dup1\n      swap2\n      sub\n      swap1\n      revert\n    tag_189:\n        /* \"contracts/Hero_Deposit/Deposit.sol\":7272:7298  int256 currentCeloUsdPrice */\n      0x00\n        /* \"contracts/Hero_Deposit/Deposit.sol\":7300:7316  uint256 lastTime */\n      dup1\n        /* \"contracts/Hero_Deposit/Deposit.sol\":7320:7337  getCeloUsdPrice() */\n      tag_192\n        /* \"contracts/Hero_Deposit/Deposit.sol\":7320:7335  getCeloUsdPrice */\n      tag_103\n        /* \"contracts/Hero_Deposit/Deposit.sol\":7320:7337  getCeloUsdPrice() */\n      jump\t// in\n    tag_192:\n        /* \"contracts/Hero_Deposit/Deposit.sol\":7271:7337  (int256 currentCeloUsdPrice, uint256 lastTime) = getCeloUsdPrice() */\n      swap2\n      pop\n      swap2\n      pop\n        /* \"contracts/Hero_Deposit/Deposit.sol\":7385:7389  true */\n      0x01\n        /* \"contracts/Hero_Deposit/Deposit.sol\":7352:7389  checkDepositExist(msg.sender) == true */\n      iszero\n      iszero\n        /* \"contracts/Hero_Deposit/Deposit.sol\":7352:7381  checkDepositExist(msg.sender) */\n      tag_193\n        /* \"contracts/Hero_Deposit/Deposit.sol\":7370:7380  msg.sender */\n      caller\n        /* \"contracts/Hero_Deposit/Deposit.sol\":7352:7369  checkDepositExist */\n      tag_45\n        /* \"contracts/Hero_Deposit/Deposit.sol\":7352:7381  checkDepositExist(msg.sender) */\n      jump\t// in\n    tag_193:\n        /* \"contracts/Hero_Deposit/Deposit.sol\":7352:7389  checkDepositExist(msg.sender) == true */\n      iszero\n      iszero\n      eq\n        /* \"contracts/Hero_Deposit/Deposit.sol\":7348:7835  if (checkDepositExist(msg.sender) == true) {\r... */\n      iszero\n      tag_194\n      jumpi\n        /* \"contracts/Hero_Deposit/Deposit.sol\":7509:7528  currentCeloUsdPrice */\n      dup2\n        /* \"contracts/Hero_Deposit/Deposit.sol\":7479:7488  msg.value */\n      callvalue\n        /* \"contracts/Hero_Deposit/Deposit.sol\":7472:7528  int256(msg.value) *\r... */\n      tag_195\n      swap2\n      swap1\n      tag_110\n      jump\t// in\n    tag_195:\n        /* \"contracts/Hero_Deposit/Deposit.sol\":7406:7420  depositersLogs */\n      0x0b\n        /* \"contracts/Hero_Deposit/Deposit.sol\":7406:7432  depositersLogs[msg.sender] */\n      0x00\n        /* \"contracts/Hero_Deposit/Deposit.sol\":7421:7431  msg.sender */\n      caller\n        /* \"contracts/Hero_Deposit/Deposit.sol\":7406:7432  depositersLogs[msg.sender] */\n      0xffffffffffffffffffffffffffffffffffffffff\n      and\n      0xffffffffffffffffffffffffffffffffffffffff\n      and\n      dup2\n      mstore\n      0x20\n      add\n      swap1\n      dup2\n      mstore\n      0x20\n      add\n      0x00\n      keccak256\n        /* \"contracts/Hero_Deposit/Deposit.sol\":7406:7451  depositersLogs[msg.sender].totalDepositsValue */\n      0x01\n      add\n      0x00\n        /* \"contracts/Hero_Deposit/Deposit.sol\":7406:7528  depositersLogs[msg.sender].totalDepositsValue +=\r... */\n      dup3\n      dup3\n      sload\n      tag_196\n      swap2\n      swap1\n      tag_114\n      jump\t// in\n    tag_196:\n      swap3\n      pop\n      pop\n      dup2\n      swap1\n      sstore\n      pop\n        /* \"contracts/Hero_Deposit/Deposit.sol\":7543:7557  depositersLogs */\n      0x0b\n        /* \"contracts/Hero_Deposit/Deposit.sol\":7543:7569  depositersLogs[msg.sender] */\n      0x00\n        /* \"contracts/Hero_Deposit/Deposit.sol\":7558:7568  msg.sender */\n      caller\n        /* \"contracts/Hero_Deposit/Deposit.sol\":7543:7569  depositersLogs[msg.sender] */\n      0xffffffffffffffffffffffffffffffffffffffff\n      and\n      0xffffffffffffffffffffffffffffffffffffffff\n      and\n      dup2\n      mstore\n      0x20\n      add\n      swap1\n      dup2\n      mstore\n      0x20\n      add\n      0x00\n      keccak256\n        /* \"contracts/Hero_Deposit/Deposit.sol\":7543:7587  depositersLogs[msg.sender].totalDepositTimes */\n      0x02\n      add\n      0x00\n        /* \"contracts/Hero_Deposit/Deposit.sol\":7543:7589  depositersLogs[msg.sender].totalDepositTimes++ */\n      dup2\n      sload\n      dup1\n      swap3\n      swap2\n      swap1\n      tag_197\n      swap1\n      tag_116\n      jump\t// in\n    tag_197:\n      swap2\n      swap1\n      pop\n      sstore\n      pop\n        /* \"contracts/Hero_Deposit/Deposit.sol\":7604:7611  CusdERC */\n      0x05\n      0x00\n      swap1\n      sload\n      swap1\n      0x0100\n      exp\n      swap1\n      div\n      0xffffffffffffffffffffffffffffffffffffffff\n      and\n        /* \"contracts/Hero_Deposit/Deposit.sol\":7604:7624  CusdERC.transferFrom */\n      0xffffffffffffffffffffffffffffffffffffffff\n      and\n      0x23b872dd\n        /* \"contracts/Hero_Deposit/Deposit.sol\":7625:7635  msg.sender */\n      caller\n        /* \"contracts/Hero_Deposit/Deposit.sol\":7645:7649  this */\n      address\n        /* \"contracts/Hero_Deposit/Deposit.sol\":7652:7661  msg.value */\n      callvalue\n        /* \"contracts/Hero_Deposit/Deposit.sol\":7604:7662  CusdERC.transferFrom(msg.sender, address(this), msg.value) */\n      mload(0x40)\n      dup5\n      0xffffffff\n      and\n      0xe0\n      shl\n      dup2\n      mstore\n      0x04\n      add\n      tag_198\n      swap4\n      swap3\n      swap2\n      swap1\n      tag_199\n      jump\t// in\n    tag_198:\n      0x20\n      mload(0x40)\n      dup1\n      dup4\n      sub\n      dup2\n      0x00\n      dup8\n      dup1\n      extcodesize\n      iszero\n      dup1\n      iszero\n      tag_200\n      jumpi\n      0x00\n      dup1\n      revert\n    tag_200:\n      pop\n      gas\n      call\n      iszero\n      dup1\n      iszero\n      tag_202\n      jumpi\n      returndatasize\n      0x00\n      dup1\n      returndatacopy\n      revert(0x00, returndatasize)\n    tag_202:\n      pop\n      pop\n      pop\n      pop\n      mload(0x40)\n      returndatasize\n      not(0x1f)\n      0x1f\n      dup3\n      add\n      and\n      dup3\n      add\n      dup1\n      0x40\n      mstore\n      pop\n      dup2\n      add\n      swap1\n      tag_203\n      swap2\n      swap1\n      tag_204\n      jump\t// in\n    tag_203:\n      pop\n        /* \"contracts/Hero_Deposit/Deposit.sol\":7712:7721  msg.value */\n      callvalue\n        /* \"contracts/Hero_Deposit/Deposit.sol\":7677:7694  depositToActivist */\n      0x04\n        /* \"contracts/Hero_Deposit/Deposit.sol\":7677:7699  depositToActivist[_to] */\n      0x00\n        /* \"contracts/Hero_Deposit/Deposit.sol\":7695:7698  _to */\n      dup7\n        /* \"contracts/Hero_Deposit/Deposit.sol\":7677:7699  depositToActivist[_to] */\n      0xffffffffffffffffffffffffffffffffffffffff\n      and\n      0xffffffffffffffffffffffffffffffffffffffff\n      and\n      dup2\n      mstore\n      0x20\n      add\n      swap1\n      dup2\n      mstore\n      0x20\n      add\n      0x00\n      keccak256\n        /* \"contracts/Hero_Deposit/Deposit.sol\":7677:7708  depositToActivist[_to].usdcCoin */\n      0x01\n      add\n      0x00\n        /* \"contracts/Hero_Deposit/Deposit.sol\":7677:7721  depositToActivist[_to].usdcCoin += msg.value */\n      dup3\n      dup3\n      sload\n      tag_205\n      swap2\n      swap1\n      tag_118\n      jump\t// in\n    tag_205:\n      swap3\n      pop\n      pop\n      dup2\n      swap1\n      sstore\n      pop\n        /* \"contracts/Hero_Deposit/Deposit.sol\":7765:7768  _to */\n      dup4\n        /* \"contracts/Hero_Deposit/Deposit.sol\":7741:7797  depositLogs(msg.sender, _to, msg.value, block.timestamp) */\n      0xffffffffffffffffffffffffffffffffffffffff\n      and\n        /* \"contracts/Hero_Deposit/Deposit.sol\":7753:7763  msg.sender */\n      caller\n        /* \"contracts/Hero_Deposit/Deposit.sol\":7741:7797  depositLogs(msg.sender, _to, msg.value, block.timestamp) */\n      0xffffffffffffffffffffffffffffffffffffffff\n      and\n      0xadbbbbc8c9e65e88422d75c3d3cb93f41a5d520a2ca71c815348334de8c49121\n        /* \"contracts/Hero_Deposit/Deposit.sol\":7770:7779  msg.value */\n      callvalue\n        /* \"contracts/Hero_Deposit/Deposit.sol\":7781:7796  block.timestamp */\n      timestamp\n        /* \"contracts/Hero_Deposit/Deposit.sol\":7741:7797  depositLogs(msg.sender, _to, msg.value, block.timestamp) */\n      mload(0x40)\n      tag_206\n      swap3\n      swap2\n      swap1\n      tag_69\n      jump\t// in\n    tag_206:\n      mload(0x40)\n      dup1\n      swap2\n      sub\n      swap1\n      log3\n        /* \"contracts/Hero_Deposit/Deposit.sol\":7819:7823  true */\n      0x01\n        /* \"contracts/Hero_Deposit/Deposit.sol\":7812:7823  return true */\n      swap3\n      pop\n      pop\n      pop\n      jump(tag_186)\n        /* \"contracts/Hero_Deposit/Deposit.sol\":7348:7835  if (checkDepositExist(msg.sender) == true) {\r... */\n    tag_194:\n        /* \"contracts/Hero_Deposit/Deposit.sol\":7845:7850  index */\n      0x0a\n      0x00\n        /* \"contracts/Hero_Deposit/Deposit.sol\":7845:7852  index++ */\n      dup2\n      sload\n      dup1\n      swap3\n      swap2\n      swap1\n      tag_207\n      swap1\n      tag_116\n      jump\t// in\n    tag_207:\n      swap2\n      swap1\n      pop\n      sstore\n      pop\n        /* \"contracts/Hero_Deposit/Deposit.sol\":7895:7900  index */\n      sload(0x0a)\n        /* \"contracts/Hero_Deposit/Deposit.sol\":7863:7877  depositersLogs */\n      0x0b\n        /* \"contracts/Hero_Deposit/Deposit.sol\":7863:7889  depositersLogs[msg.sender] */\n      0x00\n        /* \"contracts/Hero_Deposit/Deposit.sol\":7878:7888  msg.sender */\n      caller\n        /* \"contracts/Hero_Deposit/Deposit.sol\":7863:7889  depositersLogs[msg.sender] */\n      0xffffffffffffffffffffffffffffffffffffffff\n      and\n      0xffffffffffffffffffffffffffffffffffffffff\n      and\n      dup2\n      mstore\n      0x20\n      add\n      swap1\n      dup2\n      mstore\n      0x20\n      add\n      0x00\n      keccak256\n        /* \"contracts/Hero_Deposit/Deposit.sol\":7863:7892  depositersLogs[msg.sender].id */\n      0x00\n      add\n        /* \"contracts/Hero_Deposit/Deposit.sol\":7863:7900  depositersLogs[msg.sender].id = index */\n      dup2\n      swap1\n      sstore\n      pop\n        /* \"contracts/Hero_Deposit/Deposit.sol\":8006:8025  currentCeloUsdPrice */\n      dup2\n        /* \"contracts/Hero_Deposit/Deposit.sol\":7980:7989  msg.value */\n      callvalue\n        /* \"contracts/Hero_Deposit/Deposit.sol\":7973:8025  int256(msg.value) *\r... */\n      tag_208\n      swap2\n      swap1\n      tag_110\n      jump\t// in\n    tag_208:\n        /* \"contracts/Hero_Deposit/Deposit.sol\":7911:7925  depositersLogs */\n      0x0b\n        /* \"contracts/Hero_Deposit/Deposit.sol\":7911:7937  depositersLogs[msg.sender] */\n      0x00\n        /* \"contracts/Hero_Deposit/Deposit.sol\":7926:7936  msg.sender */\n      caller\n        /* \"contracts/Hero_Deposit/Deposit.sol\":7911:7937  depositersLogs[msg.sender] */\n      0xffffffffffffffffffffffffffffffffffffffff\n      and\n      0xffffffffffffffffffffffffffffffffffffffff\n      and\n      dup2\n      mstore\n      0x20\n      add\n      swap1\n      dup2\n      mstore\n      0x20\n      add\n      0x00\n      keccak256\n        /* \"contracts/Hero_Deposit/Deposit.sol\":7911:7956  depositersLogs[msg.sender].totalDepositsValue */\n      0x01\n      add\n      0x00\n        /* \"contracts/Hero_Deposit/Deposit.sol\":7911:8025  depositersLogs[msg.sender].totalDepositsValue +=\r... */\n      dup3\n      dup3\n      sload\n      tag_209\n      swap2\n      swap1\n      tag_114\n      jump\t// in\n    tag_209:\n      swap3\n      pop\n      pop\n      dup2\n      swap1\n      sstore\n      pop\n        /* \"contracts/Hero_Deposit/Deposit.sol\":8084:8094  msg.sender */\n      caller\n        /* \"contracts/Hero_Deposit/Deposit.sol\":8036:8050  depositersLogs */\n      0x0b\n        /* \"contracts/Hero_Deposit/Deposit.sol\":8036:8062  depositersLogs[msg.sender] */\n      0x00\n        /* \"contracts/Hero_Deposit/Deposit.sol\":8051:8061  msg.sender */\n      caller\n        /* \"contracts/Hero_Deposit/Deposit.sol\":8036:8062  depositersLogs[msg.sender] */\n      0xffffffffffffffffffffffffffffffffffffffff\n      and\n      0xffffffffffffffffffffffffffffffffffffffff\n      and\n      dup2\n      mstore\n      0x20\n      add\n      swap1\n      dup2\n      mstore\n      0x20\n      add\n      0x00\n      keccak256\n        /* \"contracts/Hero_Deposit/Deposit.sol\":8036:8073  depositersLogs[msg.sender].userWallet */\n      0x03\n      add\n      0x00\n        /* \"contracts/Hero_Deposit/Deposit.sol\":8036:8095  depositersLogs[msg.sender].userWallet = address(msg.sender) */\n      0x0100\n      exp\n      dup2\n      sload\n      dup2\n      0xffffffffffffffffffffffffffffffffffffffff\n      mul\n      not\n      and\n      swap1\n      dup4\n      0xffffffffffffffffffffffffffffffffffffffff\n      and\n      mul\n      or\n      swap1\n      sstore\n      pop\n        /* \"contracts/Hero_Deposit/Deposit.sol\":8153:8154  1 */\n      0x01\n        /* \"contracts/Hero_Deposit/Deposit.sol\":8106:8120  depositersLogs */\n      0x0b\n        /* \"contracts/Hero_Deposit/Deposit.sol\":8106:8132  depositersLogs[msg.sender] */\n      0x00\n        /* \"contracts/Hero_Deposit/Deposit.sol\":8121:8131  msg.sender */\n      caller\n        /* \"contracts/Hero_Deposit/Deposit.sol\":8106:8132  depositersLogs[msg.sender] */\n      0xffffffffffffffffffffffffffffffffffffffff\n      and\n      0xffffffffffffffffffffffffffffffffffffffff\n      and\n      dup2\n      mstore\n      0x20\n      add\n      swap1\n      dup2\n      mstore\n      0x20\n      add\n      0x00\n      keccak256\n        /* \"contracts/Hero_Deposit/Deposit.sol\":8106:8150  depositersLogs[msg.sender].totalDepositTimes */\n      0x02\n      add\n        /* \"contracts/Hero_Deposit/Deposit.sol\":8106:8154  depositersLogs[msg.sender].totalDepositTimes = 1 */\n      dup2\n      swap1\n      sstore\n      pop\n        /* \"contracts/Hero_Deposit/Deposit.sol\":8165:8172  CusdERC */\n      0x05\n      0x00\n      swap1\n      sload\n      swap1\n      0x0100\n      exp\n      swap1\n      div\n      0xffffffffffffffffffffffffffffffffffffffff\n      and\n        /* \"contracts/Hero_Deposit/Deposit.sol\":8165:8185  CusdERC.transferFrom */\n      0xffffffffffffffffffffffffffffffffffffffff\n      and\n      0x23b872dd\n        /* \"contracts/Hero_Deposit/Deposit.sol\":8186:8196  msg.sender */\n      caller\n        /* \"contracts/Hero_Deposit/Deposit.sol\":8206:8210  this */\n      address\n        /* \"contracts/Hero_Deposit/Deposit.sol\":8213:8222  msg.value */\n      callvalue\n        /* \"contracts/Hero_Deposit/Deposit.sol\":8165:8223  CusdERC.transferFrom(msg.sender, address(this), msg.value) */\n      mload(0x40)\n      dup5\n      0xffffffff\n      and\n      0xe0\n      shl\n      dup2\n      mstore\n      0x04\n      add\n      tag_210\n      swap4\n      swap3\n      swap2\n      swap1\n      tag_199\n      jump\t// in\n    tag_210:\n      0x20\n      mload(0x40)\n      dup1\n      dup4\n      sub\n      dup2\n      0x00\n      dup8\n      dup1\n      extcodesize\n      iszero\n      dup1\n      iszero\n      tag_211\n      jumpi\n      0x00\n      dup1\n      revert\n    tag_211:\n      pop\n      gas\n      call\n      iszero\n      dup1\n      iszero\n      tag_213\n      jumpi\n      returndatasize\n      0x00\n      dup1\n      returndatacopy\n      revert(0x00, returndatasize)\n    tag_213:\n      pop\n      pop\n      pop\n      pop\n      mload(0x40)\n      returndatasize\n      not(0x1f)\n      0x1f\n      dup3\n      add\n      and\n      dup3\n      add\n      dup1\n      0x40\n      mstore\n      pop\n      dup2\n      add\n      swap1\n      tag_214\n      swap2\n      swap1\n      tag_204\n      jump\t// in\n    tag_214:\n      pop\n        /* \"contracts/Hero_Deposit/Deposit.sol\":8269:8278  msg.value */\n      callvalue\n        /* \"contracts/Hero_Deposit/Deposit.sol\":8234:8251  depositToActivist */\n      0x04\n        /* \"contracts/Hero_Deposit/Deposit.sol\":8234:8256  depositToActivist[_to] */\n      0x00\n        /* \"contracts/Hero_Deposit/Deposit.sol\":8252:8255  _to */\n      dup7\n        /* \"contracts/Hero_Deposit/Deposit.sol\":8234:8256  depositToActivist[_to] */\n      0xffffffffffffffffffffffffffffffffffffffff\n      and\n      0xffffffffffffffffffffffffffffffffffffffff\n      and\n      dup2\n      mstore\n      0x20\n      add\n      swap1\n      dup2\n      mstore\n      0x20\n      add\n      0x00\n      keccak256\n        /* \"contracts/Hero_Deposit/Deposit.sol\":8234:8265  depositToActivist[_to].usdcCoin */\n      0x01\n      add\n      0x00\n        /* \"contracts/Hero_Deposit/Deposit.sol\":8234:8278  depositToActivist[_to].usdcCoin += msg.value */\n      dup3\n      dup3\n      sload\n      tag_215\n      swap2\n      swap1\n      tag_118\n      jump\t// in\n    tag_215:\n      swap3\n      pop\n      pop\n      dup2\n      swap1\n      sstore\n      pop\n        /* \"contracts/Hero_Deposit/Deposit.sol\":8318:8321  _to */\n      dup4\n        /* \"contracts/Hero_Deposit/Deposit.sol\":8294:8350  depositLogs(msg.sender, _to, msg.value, block.timestamp) */\n      0xffffffffffffffffffffffffffffffffffffffff\n      and\n        /* \"contracts/Hero_Deposit/Deposit.sol\":8306:8316  msg.sender */\n      caller\n        /* \"contracts/Hero_Deposit/Deposit.sol\":8294:8350  depositLogs(msg.sender, _to, msg.value, block.timestamp) */\n      0xffffffffffffffffffffffffffffffffffffffff\n      and\n      0xadbbbbc8c9e65e88422d75c3d3cb93f41a5d520a2ca71c815348334de8c49121\n        /* \"contracts/Hero_Deposit/Deposit.sol\":8323:8332  msg.value */\n      callvalue\n        /* \"contracts/Hero_Deposit/Deposit.sol\":8334:8349  block.timestamp */\n      timestamp\n        /* \"contracts/Hero_Deposit/Deposit.sol\":8294:8350  depositLogs(msg.sender, _to, msg.value, block.timestamp) */\n      mload(0x40)\n      tag_216\n      swap3\n      swap2\n      swap1\n      tag_69\n      jump\t// in\n    tag_216:\n      mload(0x40)\n      dup1\n      swap2\n      sub\n      swap1\n      log3\n        /* \"contracts/Hero_Deposit/Deposit.sol\":8368:8372  true */\n      0x01\n        /* \"contracts/Hero_Deposit/Deposit.sol\":8361:8372  return true */\n      swap3\n      pop\n      pop\n      pop\n        /* \"contracts/Hero_Deposit/Deposit.sol\":1783:1784  _ */\n    tag_186:\n        /* \"contracts/Hero_Deposit/Deposit.sol\":1804:1809  false */\n      0x00\n        /* \"contracts/Hero_Deposit/Deposit.sol\":1795:1801  locked */\n      0x0c\n      0x14\n        /* \"contracts/Hero_Deposit/Deposit.sol\":1795:1809  locked = false */\n      0x0100\n      exp\n      dup2\n      sload\n      dup2\n      0xff\n      mul\n      not\n      and\n      swap1\n      dup4\n      iszero\n      iszero\n      mul\n      or\n      swap1\n      sstore\n      pop\n        /* \"contracts/Hero_Deposit/Deposit.sol\":6945:8380  function DepositCusd(address payable _to)\r... */\n      swap2\n      swap1\n      pop\n      jump\t// out\n        /* \"contracts/Hero_Deposit/Deposit.sol\":687:743  mapping(address => ativistBank) public depositToActivist */\n    tag_77:\n      mstore(0x20, 0x04)\n      dup1\n      0x00\n      mstore\n      keccak256(0x00, 0x40)\n      0x00\n      swap2\n      pop\n      swap1\n      pop\n      dup1\n      0x00\n      add\n      sload\n      swap1\n      dup1\n      0x01\n      add\n      sload\n      swap1\n      pop\n      dup3\n      jump\t// out\n        /* \"contracts/Hero_Deposit/Deposit.sol\":9416:10445  function withdrowCusd(address payable _to)\r... */\n    tag_81:\n        /* \"contracts/Hero_Deposit/Deposit.sol\":9534:9541  uint256 */\n      0x00\n        /* \"contracts/Hero_Deposit/Deposit.sol\":9543:9550  uint256 */\n      dup1\n        /* \"contracts/Hero_Deposit/Deposit.sol\":1741:1747  locked */\n      0x0c\n      0x14\n      swap1\n      sload\n      swap1\n      0x0100\n      exp\n      swap1\n      div\n      0xff\n      and\n        /* \"contracts/Hero_Deposit/Deposit.sol\":1740:1747  !locked */\n      iszero\n        /* \"contracts/Hero_Deposit/Deposit.sol\":1732:1748  require(!locked) */\n      tag_218\n      jumpi\n      0x00\n      dup1\n      revert\n    tag_218:\n        /* \"contracts/Hero_Deposit/Deposit.sol\":1768:1772  true */\n      0x01\n        /* \"contracts/Hero_Deposit/Deposit.sol\":1759:1765  locked */\n      0x0c\n      0x14\n        /* \"contracts/Hero_Deposit/Deposit.sol\":1759:1772  locked = true */\n      0x0100\n      exp\n      dup2\n      sload\n      dup2\n      0xff\n      mul\n      not\n      and\n      swap1\n      dup4\n      iszero\n      iszero\n      mul\n      or\n      swap1\n      sstore\n      pop\n        /* \"contracts/Hero_Deposit/Deposit.sol\":9569:9595  int256 currentCeloUsdPrice */\n      0x00\n        /* \"contracts/Hero_Deposit/Deposit.sol\":9597:9613  uint256 lastTime */\n      dup1\n        /* \"contracts/Hero_Deposit/Deposit.sol\":9617:9634  getCeloUsdPrice() */\n      tag_220\n        /* \"contracts/Hero_Deposit/Deposit.sol\":9617:9632  getCeloUsdPrice */\n      tag_103\n        /* \"contracts/Hero_Deposit/Deposit.sol\":9617:9634  getCeloUsdPrice() */\n      jump\t// in\n    tag_220:\n        /* \"contracts/Hero_Deposit/Deposit.sol\":9568:9634  (int256 currentCeloUsdPrice, uint256 lastTime) = getCeloUsdPrice() */\n      swap2\n      pop\n      swap2\n      pop\n        /* \"contracts/Hero_Deposit/Deposit.sol\":9645:9659  uint256 amount */\n      0x00\n        /* \"contracts/Hero_Deposit/Deposit.sol\":9793:9795  12 */\n      0x0c\n        /* \"contracts/Hero_Deposit/Deposit.sol\":9744:9761  depositToActivist */\n      0x04\n        /* \"contracts/Hero_Deposit/Deposit.sol\":9744:9766  depositToActivist[_to] */\n      0x00\n        /* \"contracts/Hero_Deposit/Deposit.sol\":9762:9765  _to */\n      dup9\n        /* \"contracts/Hero_Deposit/Deposit.sol\":9744:9766  depositToActivist[_to] */\n      0xffffffffffffffffffffffffffffffffffffffff\n      and\n      0xffffffffffffffffffffffffffffffffffffffff\n      and\n      dup2\n      mstore\n      0x20\n      add\n      swap1\n      dup2\n      mstore\n      0x20\n      add\n      0x00\n      keccak256\n        /* \"contracts/Hero_Deposit/Deposit.sol\":9744:9775  depositToActivist[_to].usdcCoin */\n      0x01\n      add\n      sload\n        /* \"contracts/Hero_Deposit/Deposit.sol\":9719:9738  currentCeloUsdPrice */\n      dup5\n        /* \"contracts/Hero_Deposit/Deposit.sol\":9664:9681  depositToActivist */\n      0x04\n        /* \"contracts/Hero_Deposit/Deposit.sol\":9664:9686  depositToActivist[_to] */\n      0x00\n        /* \"contracts/Hero_Deposit/Deposit.sol\":9682:9685  _to */\n      dup11\n        /* \"contracts/Hero_Deposit/Deposit.sol\":9664:9686  depositToActivist[_to] */\n      0xffffffffffffffffffffffffffffffffffffffff\n      and\n      0xffffffffffffffffffffffffffffffffffffffff\n      and\n      dup2\n      mstore\n      0x20\n      add\n      swap1\n      dup2\n      mstore\n      0x20\n      add\n      0x00\n      keccak256\n        /* \"contracts/Hero_Deposit/Deposit.sol\":9664:9695  depositToActivist[_to].celoCoin */\n      0x00\n      add\n      sload\n        /* \"contracts/Hero_Deposit/Deposit.sol\":9664:9739  depositToActivist[_to].celoCoin *\r... */\n      tag_221\n      swap2\n      swap1\n      tag_222\n      jump\t// in\n    tag_221:\n        /* \"contracts/Hero_Deposit/Deposit.sol\":9663:9776  (depositToActivist[_to].celoCoin *\r... */\n      tag_223\n      swap2\n      swap1\n      tag_118\n      jump\t// in\n    tag_223:\n        /* \"contracts/Hero_Deposit/Deposit.sol\":9662:9795  ((depositToActivist[_to].celoCoin *\r... */\n      tag_224\n      swap2\n      swap1\n      tag_167\n      jump\t// in\n    tag_224:\n        /* \"contracts/Hero_Deposit/Deposit.sol\":9645:9795  uint256 amount = ((depositToActivist[_to].celoCoin *\r... */\n      swap1\n      pop\n        /* \"contracts/Hero_Deposit/Deposit.sol\":9848:9854  amount */\n      dup1\n        /* \"contracts/Hero_Deposit/Deposit.sol\":9814:9831  depositToActivist */\n      0x04\n        /* \"contracts/Hero_Deposit/Deposit.sol\":9814:9836  depositToActivist[_to] */\n      0x00\n        /* \"contracts/Hero_Deposit/Deposit.sol\":9832:9835  _to */\n      dup9\n        /* \"contracts/Hero_Deposit/Deposit.sol\":9814:9836  depositToActivist[_to] */\n      0xffffffffffffffffffffffffffffffffffffffff\n      and\n      0xffffffffffffffffffffffffffffffffffffffff\n      and\n      dup2\n      mstore\n      0x20\n      add\n      swap1\n      dup2\n      mstore\n      0x20\n      add\n      0x00\n      keccak256\n        /* \"contracts/Hero_Deposit/Deposit.sol\":9814:9845  depositToActivist[_to].usdcCoin */\n      0x01\n      add\n      sload\n        /* \"contracts/Hero_Deposit/Deposit.sol\":9814:9854  depositToActivist[_to].usdcCoin > amount */\n      gt\n        /* \"contracts/Hero_Deposit/Deposit.sol\":9806:9874  require(depositToActivist[_to].usdcCoin > amount, \"not sufficient \") */\n      tag_225\n      jumpi\n      mload(0x40)\n      0x08c379a000000000000000000000000000000000000000000000000000000000\n      dup2\n      mstore\n      0x04\n      add\n      tag_226\n      swap1\n      tag_164\n      jump\t// in\n    tag_226:\n      mload(0x40)\n      dup1\n      swap2\n      sub\n      swap1\n      revert\n    tag_225:\n        /* \"contracts/Hero_Deposit/Deposit.sol\":9887:9890  _to */\n      dup6\n        /* \"contracts/Hero_Deposit/Deposit.sol\":9887:9899  _to.transfer */\n      0xffffffffffffffffffffffffffffffffffffffff\n      and\n        /* \"contracts/Hero_Deposit/Deposit.sol\":9887:9907  _to.transfer(amount) */\n      0x08fc\n        /* \"contracts/Hero_Deposit/Deposit.sol\":9900:9906  amount */\n      dup3\n        /* \"contracts/Hero_Deposit/Deposit.sol\":9887:9907  _to.transfer(amount) */\n      swap1\n      dup2\n      iszero\n      mul\n      swap1\n      mload(0x40)\n      0x00\n      mload(0x40)\n      dup1\n      dup4\n      sub\n      dup2\n      dup6\n      dup9\n      dup9\n      call\n      swap4\n      pop\n      pop\n      pop\n      pop\n      iszero\n      dup1\n      iszero\n      tag_228\n      jumpi\n      returndatasize\n      0x00\n      dup1\n      returndatacopy\n      revert(0x00, returndatasize)\n    tag_228:\n      pop\n        /* \"contracts/Hero_Deposit/Deposit.sol\":9957:9958  0 */\n      0x00\n        /* \"contracts/Hero_Deposit/Deposit.sol\":9922:9939  depositToActivist */\n      0x04\n        /* \"contracts/Hero_Deposit/Deposit.sol\":9922:9944  depositToActivist[_to] */\n      0x00\n        /* \"contracts/Hero_Deposit/Deposit.sol\":9940:9943  _to */\n      dup9\n        /* \"contracts/Hero_Deposit/Deposit.sol\":9922:9944  depositToActivist[_to] */\n      0xffffffffffffffffffffffffffffffffffffffff\n      and\n      0xffffffffffffffffffffffffffffffffffffffff\n      and\n      dup2\n      mstore\n      0x20\n      add\n      swap1\n      dup2\n      mstore\n      0x20\n      add\n      0x00\n      keccak256\n        /* \"contracts/Hero_Deposit/Deposit.sol\":9922:9953  depositToActivist[_to].celoCoin */\n      0x00\n      add\n      sload\n        /* \"contracts/Hero_Deposit/Deposit.sol\":9922:9958  depositToActivist[_to].celoCoin == 0 */\n      eq\n        /* \"contracts/Hero_Deposit/Deposit.sol\":9918:10282  if (depositToActivist[_to].celoCoin == 0) {\r... */\n      iszero\n      tag_229\n      jumpi\n        /* \"contracts/Hero_Deposit/Deposit.sol\":10010:10016  amount */\n      dup1\n        /* \"contracts/Hero_Deposit/Deposit.sol\":9975:9992  depositToActivist */\n      0x04\n        /* \"contracts/Hero_Deposit/Deposit.sol\":9975:9997  depositToActivist[_to] */\n      0x00\n        /* \"contracts/Hero_Deposit/Deposit.sol\":9993:9996  _to */\n      dup9\n        /* \"contracts/Hero_Deposit/Deposit.sol\":9975:9997  depositToActivist[_to] */\n      0xffffffffffffffffffffffffffffffffffffffff\n      and\n      0xffffffffffffffffffffffffffffffffffffffff\n      and\n      dup2\n      mstore\n      0x20\n      add\n      swap1\n      dup2\n      mstore\n      0x20\n      add\n      0x00\n      keccak256\n        /* \"contracts/Hero_Deposit/Deposit.sol\":9975:10006  depositToActivist[_to].usdcCoin */\n      0x01\n      add\n      0x00\n        /* \"contracts/Hero_Deposit/Deposit.sol\":9975:10016  depositToActivist[_to].usdcCoin -= amount */\n      dup3\n      dup3\n      sload\n      tag_230\n      swap2\n      swap1\n      tag_174\n      jump\t// in\n    tag_230:\n      swap3\n      pop\n      pop\n      dup2\n      swap1\n      sstore\n      pop\n        /* \"contracts/Hero_Deposit/Deposit.sol\":9918:10282  if (depositToActivist[_to].celoCoin == 0) {\r... */\n      jump(tag_231)\n    tag_229:\n        /* \"contracts/Hero_Deposit/Deposit.sol\":10073:10074  0 */\n      0x00\n        /* \"contracts/Hero_Deposit/Deposit.sol\":10038:10055  depositToActivist */\n      0x04\n        /* \"contracts/Hero_Deposit/Deposit.sol\":10038:10060  depositToActivist[_to] */\n      0x00\n        /* \"contracts/Hero_Deposit/Deposit.sol\":10056:10059  _to */\n      dup9\n        /* \"contracts/Hero_Deposit/Deposit.sol\":10038:10060  depositToActivist[_to] */\n      0xffffffffffffffffffffffffffffffffffffffff\n      and\n      0xffffffffffffffffffffffffffffffffffffffff\n      and\n      dup2\n      mstore\n      0x20\n      add\n      swap1\n      dup2\n      mstore\n      0x20\n      add\n      0x00\n      keccak256\n        /* \"contracts/Hero_Deposit/Deposit.sol\":10038:10069  depositToActivist[_to].usdcCoin */\n      0x01\n      add\n      sload\n        /* \"contracts/Hero_Deposit/Deposit.sol\":10038:10074  depositToActivist[_to].usdcCoin == 0 */\n      eq\n        /* \"contracts/Hero_Deposit/Deposit.sol\":10034:10282  if (depositToActivist[_to].usdcCoin == 0) {\r... */\n      iszero\n      tag_232\n      jumpi\n        /* \"contracts/Hero_Deposit/Deposit.sol\":10126:10132  amount */\n      dup1\n        /* \"contracts/Hero_Deposit/Deposit.sol\":10091:10108  depositToActivist */\n      0x04\n        /* \"contracts/Hero_Deposit/Deposit.sol\":10091:10113  depositToActivist[_to] */\n      0x00\n        /* \"contracts/Hero_Deposit/Deposit.sol\":10109:10112  _to */\n      dup9\n        /* \"contracts/Hero_Deposit/Deposit.sol\":10091:10113  depositToActivist[_to] */\n      0xffffffffffffffffffffffffffffffffffffffff\n      and\n      0xffffffffffffffffffffffffffffffffffffffff\n      and\n      dup2\n      mstore\n      0x20\n      add\n      swap1\n      dup2\n      mstore\n      0x20\n      add\n      0x00\n      keccak256\n        /* \"contracts/Hero_Deposit/Deposit.sol\":10091:10122  depositToActivist[_to].celoCoin */\n      0x00\n      add\n      0x00\n        /* \"contracts/Hero_Deposit/Deposit.sol\":10091:10132  depositToActivist[_to].celoCoin -= amount */\n      dup3\n      dup3\n      sload\n      tag_233\n      swap2\n      swap1\n      tag_174\n      jump\t// in\n    tag_233:\n      swap3\n      pop\n      pop\n      dup2\n      swap1\n      sstore\n      pop\n        /* \"contracts/Hero_Deposit/Deposit.sol\":10034:10282  if (depositToActivist[_to].usdcCoin == 0) {\r... */\n      jump(tag_234)\n    tag_232:\n        /* \"contracts/Hero_Deposit/Deposit.sol\":10209:10210  2 */\n      0x02\n        /* \"contracts/Hero_Deposit/Deposit.sol\":10200:10206  amount */\n      dup2\n        /* \"contracts/Hero_Deposit/Deposit.sol\":10200:10210  amount / 2 */\n      tag_235\n      swap2\n      swap1\n      tag_167\n      jump\t// in\n    tag_235:\n        /* \"contracts/Hero_Deposit/Deposit.sol\":10165:10182  depositToActivist */\n      0x04\n        /* \"contracts/Hero_Deposit/Deposit.sol\":10165:10187  depositToActivist[_to] */\n      0x00\n        /* \"contracts/Hero_Deposit/Deposit.sol\":10183:10186  _to */\n      dup9\n        /* \"contracts/Hero_Deposit/Deposit.sol\":10165:10187  depositToActivist[_to] */\n      0xffffffffffffffffffffffffffffffffffffffff\n      and\n      0xffffffffffffffffffffffffffffffffffffffff\n      and\n      dup2\n      mstore\n      0x20\n      add\n      swap1\n      dup2\n      mstore\n      0x20\n      add\n      0x00\n      keccak256\n        /* \"contracts/Hero_Deposit/Deposit.sol\":10165:10196  depositToActivist[_to].celoCoin */\n      0x00\n      add\n      0x00\n        /* \"contracts/Hero_Deposit/Deposit.sol\":10165:10210  depositToActivist[_to].celoCoin -= amount / 2 */\n      dup3\n      dup3\n      sload\n      tag_236\n      swap2\n      swap1\n      tag_174\n      jump\t// in\n    tag_236:\n      swap3\n      pop\n      pop\n      dup2\n      swap1\n      sstore\n      pop\n        /* \"contracts/Hero_Deposit/Deposit.sol\":10269:10270  2 */\n      0x02\n        /* \"contracts/Hero_Deposit/Deposit.sol\":10260:10266  amount */\n      dup2\n        /* \"contracts/Hero_Deposit/Deposit.sol\":10260:10270  amount / 2 */\n      tag_237\n      swap2\n      swap1\n      tag_167\n      jump\t// in\n    tag_237:\n        /* \"contracts/Hero_Deposit/Deposit.sol\":10225:10242  depositToActivist */\n      0x04\n        /* \"contracts/Hero_Deposit/Deposit.sol\":10225:10247  depositToActivist[_to] */\n      0x00\n        /* \"contracts/Hero_Deposit/Deposit.sol\":10243:10246  _to */\n      dup9\n        /* \"contracts/Hero_Deposit/Deposit.sol\":10225:10247  depositToActivist[_to] */\n      0xffffffffffffffffffffffffffffffffffffffff\n      and\n      0xffffffffffffffffffffffffffffffffffffffff\n      and\n      dup2\n      mstore\n      0x20\n      add\n      swap1\n      dup2\n      mstore\n      0x20\n      add\n      0x00\n      keccak256\n        /* \"contracts/Hero_Deposit/Deposit.sol\":10225:10256  depositToActivist[_to].usdcCoin */\n      0x01\n      add\n      0x00\n        /* \"contracts/Hero_Deposit/Deposit.sol\":10225:10270  depositToActivist[_to].usdcCoin -= amount / 2 */\n      dup3\n      dup3\n      sload\n      tag_238\n      swap2\n      swap1\n      tag_174\n      jump\t// in\n    tag_238:\n      swap3\n      pop\n      pop\n      dup2\n      swap1\n      sstore\n      pop\n        /* \"contracts/Hero_Deposit/Deposit.sol\":10034:10282  if (depositToActivist[_to].usdcCoin == 0) {\r... */\n    tag_234:\n        /* \"contracts/Hero_Deposit/Deposit.sol\":9918:10282  if (depositToActivist[_to].celoCoin == 0) {\r... */\n    tag_231:\n        /* \"contracts/Hero_Deposit/Deposit.sol\":10327:10333  amount */\n      dup1\n        /* \"contracts/Hero_Deposit/Deposit.sol\":10292:10309  depositToActivist */\n      0x04\n        /* \"contracts/Hero_Deposit/Deposit.sol\":10292:10314  depositToActivist[_to] */\n      0x00\n        /* \"contracts/Hero_Deposit/Deposit.sol\":10310:10313  _to */\n      dup9\n        /* \"contracts/Hero_Deposit/Deposit.sol\":10292:10314  depositToActivist[_to] */\n      0xffffffffffffffffffffffffffffffffffffffff\n      and\n      0xffffffffffffffffffffffffffffffffffffffff\n      and\n      dup2\n      mstore\n      0x20\n      add\n      swap1\n      dup2\n      mstore\n      0x20\n      add\n      0x00\n      keccak256\n        /* \"contracts/Hero_Deposit/Deposit.sol\":10292:10323  depositToActivist[_to].celoCoin */\n      0x00\n      add\n      0x00\n        /* \"contracts/Hero_Deposit/Deposit.sol\":10292:10333  depositToActivist[_to].celoCoin -= amount */\n      dup3\n      dup3\n      sload\n      tag_239\n      swap2\n      swap1\n      tag_174\n      jump\t// in\n    tag_239:\n      swap3\n      pop\n      pop\n      dup2\n      swap1\n      sstore\n      pop\n        /* \"contracts/Hero_Deposit/Deposit.sol\":10365:10368  _to */\n      dup6\n        /* \"contracts/Hero_Deposit/Deposit.sol\":10349:10394  activistPayment(_to, amount, block.timestamp) */\n      0xffffffffffffffffffffffffffffffffffffffff\n      and\n      0x9cd516bc314ca50bb8f1f5602d3f202cdcbf17b89da33dd13c3909d5d3c00a32\n        /* \"contracts/Hero_Deposit/Deposit.sol\":10370:10376  amount */\n      dup3\n        /* \"contracts/Hero_Deposit/Deposit.sol\":10378:10393  block.timestamp */\n      timestamp\n        /* \"contracts/Hero_Deposit/Deposit.sol\":10349:10394  activistPayment(_to, amount, block.timestamp) */\n      mload(0x40)\n      tag_240\n      swap3\n      swap2\n      swap1\n      tag_69\n      jump\t// in\n    tag_240:\n      mload(0x40)\n      dup1\n      swap2\n      sub\n      swap1\n      log2\n        /* \"contracts/Hero_Deposit/Deposit.sol\":10413:10419  amount */\n      dup1\n        /* \"contracts/Hero_Deposit/Deposit.sol\":10421:10436  block.timestamp */\n      timestamp\n        /* \"contracts/Hero_Deposit/Deposit.sol\":10405:10437  return (amount, block.timestamp) */\n      swap5\n      pop\n      swap5\n      pop\n      pop\n      pop\n      pop\n        /* \"contracts/Hero_Deposit/Deposit.sol\":1804:1809  false */\n      0x00\n        /* \"contracts/Hero_Deposit/Deposit.sol\":1795:1801  locked */\n      0x0c\n      0x14\n        /* \"contracts/Hero_Deposit/Deposit.sol\":1795:1809  locked = false */\n      0x0100\n      exp\n      dup2\n      sload\n      dup2\n      0xff\n      mul\n      not\n      and\n      swap1\n      dup4\n      iszero\n      iszero\n      mul\n      or\n      swap1\n      sstore\n      pop\n        /* \"contracts/Hero_Deposit/Deposit.sol\":9416:10445  function withdrowCusd(address payable _to)\r... */\n      swap2\n      pop\n      swap2\n      jump\t// out\n        /* \"contracts/Hero_Deposit/Deposit.sol\":405:440  IWitnetPriceFeed public EthUsdPrice */\n    tag_85:\n      0x03\n      0x00\n      swap1\n      sload\n      swap1\n      0x0100\n      exp\n      swap1\n      div\n      0xffffffffffffffffffffffffffffffffffffffff\n      and\n      dup2\n      jump\t// out\n        /* \"contracts/Hero_Deposit/Deposit.sol\":319:355  IWitnetPriceFeed public celoEurPrice */\n    tag_90:\n      0x01\n      0x00\n      swap1\n      sload\n      swap1\n      0x0100\n      exp\n      swap1\n      div\n      0xffffffffffffffffffffffffffffffffffffffff\n      and\n      dup2\n      jump\t// out\n        /* \"contracts/Hero_Deposit/Deposit.sol\":362:398  IWitnetPriceFeed public celoUsdPrice */\n    tag_94:\n      0x02\n      0x00\n      swap1\n      sload\n      swap1\n      0x0100\n      exp\n      swap1\n      div\n      0xffffffffffffffffffffffffffffffffffffffff\n      and\n      dup2\n      jump\t// out\n        /* \"contracts/Hero_Deposit/Deposit.sol\":3137:3340  function getCeloUsdPrice()\r... */\n    tag_103:\n        /* \"contracts/Hero_Deposit/Deposit.sol\":3214:3231  int256 _lastPrice */\n      0x00\n        /* \"contracts/Hero_Deposit/Deposit.sol\":3233:3255  uint256 _lastTimestamp */\n      dup1\n        /* \"contracts/Hero_Deposit/Deposit.sol\":3308:3320  celoUsdPrice */\n      0x02\n      0x00\n      swap1\n      sload\n      swap1\n      0x0100\n      exp\n      swap1\n      div\n      0xffffffffffffffffffffffffffffffffffffffff\n      and\n        /* \"contracts/Hero_Deposit/Deposit.sol\":3308:3330  celoUsdPrice.lastValue */\n      0xffffffffffffffffffffffffffffffffffffffff\n      and\n      0x43183834\n        /* \"contracts/Hero_Deposit/Deposit.sol\":3308:3332  celoUsdPrice.lastValue() */\n      mload(0x40)\n      dup2\n      0xffffffff\n      and\n      0xe0\n      shl\n      dup2\n      mstore\n      0x04\n      add\n      0x80\n      mload(0x40)\n      dup1\n      dup4\n      sub\n      dup2\n      dup7\n      dup1\n      extcodesize\n      iszero\n      dup1\n      iszero\n      tag_242\n      jumpi\n      0x00\n      dup1\n      revert\n    tag_242:\n      pop\n      gas\n      staticcall\n      iszero\n      dup1\n      iszero\n      tag_244\n      jumpi\n      returndatasize\n      0x00\n      dup1\n      returndatacopy\n      revert(0x00, returndatasize)\n    tag_244:\n      pop\n      pop\n      pop\n      pop\n      mload(0x40)\n      returndatasize\n      not(0x1f)\n      0x1f\n      dup3\n      add\n      and\n      dup3\n      add\n      dup1\n      0x40\n      mstore\n      pop\n      dup2\n      add\n      swap1\n      tag_245\n      swap2\n      swap1\n      tag_246\n      jump\t// in\n    tag_245:\n        /* \"contracts/Hero_Deposit/Deposit.sol\":3273:3332  (_lastPrice, _lastTimestamp, , ) = celoUsdPrice.lastValue() */\n      swap1\n      pop\n      pop\n      dup1\n      swap3\n      pop\n      dup2\n      swap4\n      pop\n      pop\n      pop\n        /* \"contracts/Hero_Deposit/Deposit.sol\":3137:3340  function getCeloUsdPrice()\r... */\n      swap1\n      swap2\n      jump\t// out\n        /* \"#utility.yul\":7:146   */\n    tag_248:\n        /* \"#utility.yul\":53:58   */\n      0x00\n        /* \"#utility.yul\":91:97   */\n      dup2\n        /* \"#utility.yul\":78:98   */\n      calldataload\n        /* \"#utility.yul\":69:98   */\n      swap1\n      pop\n        /* \"#utility.yul\":107:140   */\n      tag_250\n        /* \"#utility.yul\":134:139   */\n      dup2\n        /* \"#utility.yul\":107:140   */\n      tag_251\n      jump\t// in\n    tag_250:\n        /* \"#utility.yul\":7:146   */\n      swap3\n      swap2\n      pop\n      pop\n      jump\t// out\n        /* \"#utility.yul\":152:307   */\n    tag_252:\n        /* \"#utility.yul\":206:211   */\n      0x00\n        /* \"#utility.yul\":244:250   */\n      dup2\n        /* \"#utility.yul\":231:251   */\n      calldataload\n        /* \"#utility.yul\":222:251   */\n      swap1\n      pop\n        /* \"#utility.yul\":260:301   */\n      tag_254\n        /* \"#utility.yul\":295:300   */\n      dup2\n        /* \"#utility.yul\":260:301   */\n      tag_255\n      jump\t// in\n    tag_254:\n        /* \"#utility.yul\":152:307   */\n      swap3\n      swap2\n      pop\n      pop\n      jump\t// out\n        /* \"#utility.yul\":313:450   */\n    tag_256:\n        /* \"#utility.yul\":367:372   */\n      0x00\n        /* \"#utility.yul\":398:404   */\n      dup2\n        /* \"#utility.yul\":392:405   */\n      mload\n        /* \"#utility.yul\":383:405   */\n      swap1\n      pop\n        /* \"#utility.yul\":414:444   */\n      tag_258\n        /* \"#utility.yul\":438:443   */\n      dup2\n        /* \"#utility.yul\":414:444   */\n      tag_259\n      jump\t// in\n    tag_258:\n        /* \"#utility.yul\":313:450   */\n      swap3\n      swap2\n      pop\n      pop\n      jump\t// out\n        /* \"#utility.yul\":456:599   */\n    tag_260:\n        /* \"#utility.yul\":513:518   */\n      0x00\n        /* \"#utility.yul\":544:550   */\n      dup2\n        /* \"#utility.yul\":538:551   */\n      mload\n        /* \"#utility.yul\":529:551   */\n      swap1\n      pop\n        /* \"#utility.yul\":560:593   */\n      tag_262\n        /* \"#utility.yul\":587:592   */\n      dup2\n        /* \"#utility.yul\":560:593   */\n      tag_263\n      jump\t// in\n    tag_262:\n        /* \"#utility.yul\":456:599   */\n      swap3\n      swap2\n      pop\n      pop\n      jump\t// out\n        /* \"#utility.yul\":605:780   */\n    tag_264:\n        /* \"#utility.yul\":678:683   */\n      0x00\n        /* \"#utility.yul\":709:715   */\n      dup2\n        /* \"#utility.yul\":703:716   */\n      mload\n        /* \"#utility.yul\":694:716   */\n      swap1\n      pop\n        /* \"#utility.yul\":725:774   */\n      tag_266\n        /* \"#utility.yul\":768:773   */\n      dup2\n        /* \"#utility.yul\":725:774   */\n      tag_267\n      jump\t// in\n    tag_266:\n        /* \"#utility.yul\":605:780   */\n      swap3\n      swap2\n      pop\n      pop\n      jump\t// out\n        /* \"#utility.yul\":786:927   */\n    tag_268:\n        /* \"#utility.yul\":842:847   */\n      0x00\n        /* \"#utility.yul\":873:879   */\n      dup2\n        /* \"#utility.yul\":867:880   */\n      mload\n        /* \"#utility.yul\":858:880   */\n      swap1\n      pop\n        /* \"#utility.yul\":889:921   */\n      tag_270\n        /* \"#utility.yul\":915:920   */\n      dup2\n        /* \"#utility.yul\":889:921   */\n      tag_271\n      jump\t// in\n    tag_270:\n        /* \"#utility.yul\":786:927   */\n      swap3\n      swap2\n      pop\n      pop\n      jump\t// out\n        /* \"#utility.yul\":933:1072   */\n    tag_272:\n        /* \"#utility.yul\":979:984   */\n      0x00\n        /* \"#utility.yul\":1017:1023   */\n      dup2\n        /* \"#utility.yul\":1004:1024   */\n      calldataload\n        /* \"#utility.yul\":995:1024   */\n      swap1\n      pop\n        /* \"#utility.yul\":1033:1066   */\n      tag_274\n        /* \"#utility.yul\":1060:1065   */\n      dup2\n        /* \"#utility.yul\":1033:1066   */\n      tag_275\n      jump\t// in\n    tag_274:\n        /* \"#utility.yul\":933:1072   */\n      swap3\n      swap2\n      pop\n      pop\n      jump\t// out\n        /* \"#utility.yul\":1078:1221   */\n    tag_276:\n        /* \"#utility.yul\":1135:1140   */\n      0x00\n        /* \"#utility.yul\":1166:1172   */\n      dup2\n        /* \"#utility.yul\":1160:1173   */\n      mload\n        /* \"#utility.yul\":1151:1173   */\n      swap1\n      pop\n        /* \"#utility.yul\":1182:1215   */\n      tag_278\n        /* \"#utility.yul\":1209:1214   */\n      dup2\n        /* \"#utility.yul\":1182:1215   */\n      tag_275\n      jump\t// in\n    tag_278:\n        /* \"#utility.yul\":1078:1221   */\n      swap3\n      swap2\n      pop\n      pop\n      jump\t// out\n        /* \"#utility.yul\":1227:1556   */\n    tag_44:\n        /* \"#utility.yul\":1286:1292   */\n      0x00\n        /* \"#utility.yul\":1335:1337   */\n      0x20\n        /* \"#utility.yul\":1323:1332   */\n      dup3\n        /* \"#utility.yul\":1314:1321   */\n      dup5\n        /* \"#utility.yul\":1310:1333   */\n      sub\n        /* \"#utility.yul\":1306:1338   */\n      slt\n        /* \"#utility.yul\":1303:1422   */\n      iszero\n      tag_280\n      jumpi\n        /* \"#utility.yul\":1341:1420   */\n      tag_281\n      tag_282\n      jump\t// in\n    tag_281:\n        /* \"#utility.yul\":1303:1422   */\n    tag_280:\n        /* \"#utility.yul\":1461:1462   */\n      0x00\n        /* \"#utility.yul\":1486:1539   */\n      tag_283\n        /* \"#utility.yul\":1531:1538   */\n      dup5\n        /* \"#utility.yul\":1522:1528   */\n      dup3\n        /* \"#utility.yul\":1511:1520   */\n      dup6\n        /* \"#utility.yul\":1507:1529   */\n      add\n        /* \"#utility.yul\":1486:1539   */\n      tag_248\n      jump\t// in\n    tag_283:\n        /* \"#utility.yul\":1476:1539   */\n      swap2\n      pop\n        /* \"#utility.yul\":1432:1549   */\n      pop\n        /* \"#utility.yul\":1227:1556   */\n      swap3\n      swap2\n      pop\n      pop\n      jump\t// out\n        /* \"#utility.yul\":1562:1907   */\n    tag_23:\n        /* \"#utility.yul\":1629:1635   */\n      0x00\n        /* \"#utility.yul\":1678:1680   */\n      0x20\n        /* \"#utility.yul\":1666:1675   */\n      dup3\n        /* \"#utility.yul\":1657:1664   */\n      dup5\n        /* \"#utility.yul\":1653:1676   */\n      sub\n        /* \"#utility.yul\":1649:1681   */\n      slt\n        /* \"#utility.yul\":1646:1765   */\n      iszero\n      tag_285\n      jumpi\n        /* \"#utility.yul\":1684:1763   */\n      tag_286\n      tag_282\n      jump\t// in\n    tag_286:\n        /* \"#utility.yul\":1646:1765   */\n    tag_285:\n        /* \"#utility.yul\":1804:1805   */\n      0x00\n        /* \"#utility.yul\":1829:1890   */\n      tag_287\n        /* \"#utility.yul\":1882:1889   */\n      dup5\n        /* \"#utility.yul\":1873:1879   */\n      dup3\n        /* \"#utility.yul\":1862:1871   */\n      dup6\n        /* \"#utility.yul\":1858:1880   */\n      add\n        /* \"#utility.yul\":1829:1890   */\n      tag_252\n      jump\t// in\n    tag_287:\n        /* \"#utility.yul\":1819:1890   */\n      swap2\n      pop\n        /* \"#utility.yul\":1775:1900   */\n      pop\n        /* \"#utility.yul\":1562:1907   */\n      swap3\n      swap2\n      pop\n      pop\n      jump\t// out\n        /* \"#utility.yul\":1913:2532   */\n    tag_56:\n        /* \"#utility.yul\":1990:1996   */\n      0x00\n        /* \"#utility.yul\":1998:2004   */\n      dup1\n        /* \"#utility.yul\":2006:2012   */\n      0x00\n        /* \"#utility.yul\":2055:2057   */\n      0x60\n        /* \"#utility.yul\":2043:2052   */\n      dup5\n        /* \"#utility.yul\":2034:2041   */\n      dup7\n        /* \"#utility.yul\":2030:2053   */\n      sub\n        /* \"#utility.yul\":2026:2058   */\n      slt\n        /* \"#utility.yul\":2023:2142   */\n      iszero\n      tag_289\n      jumpi\n        /* \"#utility.yul\":2061:2140   */\n      tag_290\n      tag_282\n      jump\t// in\n    tag_290:\n        /* \"#utility.yul\":2023:2142   */\n    tag_289:\n        /* \"#utility.yul\":2181:2182   */\n      0x00\n        /* \"#utility.yul\":2206:2259   */\n      tag_291\n        /* \"#utility.yul\":2251:2258   */\n      dup7\n        /* \"#utility.yul\":2242:2248   */\n      dup3\n        /* \"#utility.yul\":2231:2240   */\n      dup8\n        /* \"#utility.yul\":2227:2249   */\n      add\n        /* \"#utility.yul\":2206:2259   */\n      tag_248\n      jump\t// in\n    tag_291:\n        /* \"#utility.yul\":2196:2259   */\n      swap4\n      pop\n        /* \"#utility.yul\":2152:2269   */\n      pop\n        /* \"#utility.yul\":2308:2310   */\n      0x20\n        /* \"#utility.yul\":2334:2387   */\n      tag_292\n        /* \"#utility.yul\":2379:2386   */\n      dup7\n        /* \"#utility.yul\":2370:2376   */\n      dup3\n        /* \"#utility.yul\":2359:2368   */\n      dup8\n        /* \"#utility.yul\":2355:2377   */\n      add\n        /* \"#utility.yul\":2334:2387   */\n      tag_248\n      jump\t// in\n    tag_292:\n        /* \"#utility.yul\":2324:2387   */\n      swap3\n      pop\n        /* \"#utility.yul\":2279:2397   */\n      pop\n        /* \"#utility.yul\":2436:2438   */\n      0x40\n        /* \"#utility.yul\":2462:2515   */\n      tag_293\n        /* \"#utility.yul\":2507:2514   */\n      dup7\n        /* \"#utility.yul\":2498:2504   */\n      dup3\n        /* \"#utility.yul\":2487:2496   */\n      dup8\n        /* \"#utility.yul\":2483:2505   */\n      add\n        /* \"#utility.yul\":2462:2515   */\n      tag_272\n      jump\t// in\n    tag_293:\n        /* \"#utility.yul\":2452:2515   */\n      swap2\n      pop\n        /* \"#utility.yul\":2407:2525   */\n      pop\n        /* \"#utility.yul\":1913:2532   */\n      swap3\n      pop\n      swap3\n      pop\n      swap3\n      jump\t// out\n        /* \"#utility.yul\":2538:2883   */\n    tag_204:\n        /* \"#utility.yul\":2605:2611   */\n      0x00\n        /* \"#utility.yul\":2654:2656   */\n      0x20\n        /* \"#utility.yul\":2642:2651   */\n      dup3\n        /* \"#utility.yul\":2633:2640   */\n      dup5\n        /* \"#utility.yul\":2629:2652   */\n      sub\n        /* \"#utility.yul\":2625:2657   */\n      slt\n        /* \"#utility.yul\":2622:2741   */\n      iszero\n      tag_295\n      jumpi\n        /* \"#utility.yul\":2660:2739   */\n      tag_296\n      tag_282\n      jump\t// in\n    tag_296:\n        /* \"#utility.yul\":2622:2741   */\n    tag_295:\n        /* \"#utility.yul\":2780:2781   */\n      0x00\n        /* \"#utility.yul\":2805:2866   */\n      tag_297\n        /* \"#utility.yul\":2858:2865   */\n      dup5\n        /* \"#utility.yul\":2849:2855   */\n      dup3\n        /* \"#utility.yul\":2838:2847   */\n      dup6\n        /* \"#utility.yul\":2834:2856   */\n      add\n        /* \"#utility.yul\":2805:2866   */\n      tag_256\n      jump\t// in\n    tag_297:\n        /* \"#utility.yul\":2795:2866   */\n      swap2\n      pop\n        /* \"#utility.yul\":2751:2876   */\n      pop\n        /* \"#utility.yul\":2538:2883   */\n      swap3\n      swap2\n      pop\n      pop\n      jump\t// out\n        /* \"#utility.yul\":2889:3272   */\n    tag_131:\n        /* \"#utility.yul\":2975:2981   */\n      0x00\n        /* \"#utility.yul\":3024:3026   */\n      0x20\n        /* \"#utility.yul\":3012:3021   */\n      dup3\n        /* \"#utility.yul\":3003:3010   */\n      dup5\n        /* \"#utility.yul\":2999:3022   */\n      sub\n        /* \"#utility.yul\":2995:3027   */\n      slt\n        /* \"#utility.yul\":2992:3111   */\n      iszero\n      tag_299\n      jumpi\n        /* \"#utility.yul\":3030:3109   */\n      tag_300\n      tag_282\n      jump\t// in\n    tag_300:\n        /* \"#utility.yul\":2992:3111   */\n    tag_299:\n        /* \"#utility.yul\":3150:3151   */\n      0x00\n        /* \"#utility.yul\":3175:3255   */\n      tag_301\n        /* \"#utility.yul\":3247:3254   */\n      dup5\n        /* \"#utility.yul\":3238:3244   */\n      dup3\n        /* \"#utility.yul\":3227:3236   */\n      dup6\n        /* \"#utility.yul\":3223:3245   */\n      add\n        /* \"#utility.yul\":3175:3255   */\n      tag_264\n      jump\t// in\n    tag_301:\n        /* \"#utility.yul\":3165:3255   */\n      swap2\n      pop\n        /* \"#utility.yul\":3121:3265   */\n      pop\n        /* \"#utility.yul\":2889:3272   */\n      swap3\n      swap2\n      pop\n      pop\n      jump\t// out\n        /* \"#utility.yul\":3278:4096   */\n    tag_246:\n        /* \"#utility.yul\":3374:3380   */\n      0x00\n        /* \"#utility.yul\":3382:3388   */\n      dup1\n        /* \"#utility.yul\":3390:3396   */\n      0x00\n        /* \"#utility.yul\":3398:3404   */\n      dup1\n        /* \"#utility.yul\":3447:3450   */\n      0x80\n        /* \"#utility.yul\":3435:3444   */\n      dup6\n        /* \"#utility.yul\":3426:3433   */\n      dup8\n        /* \"#utility.yul\":3422:3445   */\n      sub\n        /* \"#utility.yul\":3418:3451   */\n      slt\n        /* \"#utility.yul\":3415:3535   */\n      iszero\n      tag_303\n      jumpi\n        /* \"#utility.yul\":3454:3533   */\n      tag_304\n      tag_282\n      jump\t// in\n    tag_304:\n        /* \"#utility.yul\":3415:3535   */\n    tag_303:\n        /* \"#utility.yul\":3574:3575   */\n      0x00\n        /* \"#utility.yul\":3599:3662   */\n      tag_305\n        /* \"#utility.yul\":3654:3661   */\n      dup8\n        /* \"#utility.yul\":3645:3651   */\n      dup3\n        /* \"#utility.yul\":3634:3643   */\n      dup9\n        /* \"#utility.yul\":3630:3652   */\n      add\n        /* \"#utility.yul\":3599:3662   */\n      tag_268\n      jump\t// in\n    tag_305:\n        /* \"#utility.yul\":3589:3662   */\n      swap5\n      pop\n        /* \"#utility.yul\":3545:3672   */\n      pop\n        /* \"#utility.yul\":3711:3713   */\n      0x20\n        /* \"#utility.yul\":3737:3801   */\n      tag_306\n        /* \"#utility.yul\":3793:3800   */\n      dup8\n        /* \"#utility.yul\":3784:3790   */\n      dup3\n        /* \"#utility.yul\":3773:3782   */\n      dup9\n        /* \"#utility.yul\":3769:3791   */\n      add\n        /* \"#utility.yul\":3737:3801   */\n      tag_276\n      jump\t// in\n    tag_306:\n        /* \"#utility.yul\":3727:3801   */\n      swap4\n      pop\n        /* \"#utility.yul\":3682:3811   */\n      pop\n        /* \"#utility.yul\":3850:3852   */\n      0x40\n        /* \"#utility.yul\":3876:3940   */\n      tag_307\n        /* \"#utility.yul\":3932:3939   */\n      dup8\n        /* \"#utility.yul\":3923:3929   */\n      dup3\n        /* \"#utility.yul\":3912:3921   */\n      dup9\n        /* \"#utility.yul\":3908:3930   */\n      add\n        /* \"#utility.yul\":3876:3940   */\n      tag_260\n      jump\t// in\n    tag_307:\n        /* \"#utility.yul\":3866:3940   */\n      swap3\n      pop\n        /* \"#utility.yul\":3821:3950   */\n      pop\n        /* \"#utility.yul\":3989:3991   */\n      0x60\n        /* \"#utility.yul\":4015:4079   */\n      tag_308\n        /* \"#utility.yul\":4071:4078   */\n      dup8\n        /* \"#utility.yul\":4062:4068   */\n      dup3\n        /* \"#utility.yul\":4051:4060   */\n      dup9\n        /* \"#utility.yul\":4047:4069   */\n      add\n        /* \"#utility.yul\":4015:4079   */\n      tag_276\n      jump\t// in\n    tag_308:\n        /* \"#utility.yul\":4005:4079   */\n      swap2\n      pop\n        /* \"#utility.yul\":3960:4089   */\n      pop\n        /* \"#utility.yul\":3278:4096   */\n      swap3\n      swap6\n      swap2\n      swap5\n      pop\n      swap3\n      pop\n      jump\t// out\n        /* \"#utility.yul\":4102:4220   */\n    tag_309:\n        /* \"#utility.yul\":4189:4213   */\n      tag_311\n        /* \"#utility.yul\":4207:4212   */\n      dup2\n        /* \"#utility.yul\":4189:4213   */\n      tag_312\n      jump\t// in\n    tag_311:\n        /* \"#utility.yul\":4184:4187   */\n      dup3\n        /* \"#utility.yul\":4177:4214   */\n      mstore\n        /* \"#utility.yul\":4102:4220   */\n      pop\n      pop\n      jump\t// out\n        /* \"#utility.yul\":4226:4335   */\n    tag_313:\n        /* \"#utility.yul\":4307:4328   */\n      tag_315\n        /* \"#utility.yul\":4322:4327   */\n      dup2\n        /* \"#utility.yul\":4307:4328   */\n      tag_316\n      jump\t// in\n    tag_315:\n        /* \"#utility.yul\":4302:4305   */\n      dup3\n        /* \"#utility.yul\":4295:4329   */\n      mstore\n        /* \"#utility.yul\":4226:4335   */\n      pop\n      pop\n      jump\t// out\n        /* \"#utility.yul\":4341:4470   */\n    tag_317:\n        /* \"#utility.yul\":4427:4463   */\n      tag_319\n        /* \"#utility.yul\":4457:4462   */\n      dup2\n        /* \"#utility.yul\":4427:4463   */\n      tag_320\n      jump\t// in\n    tag_319:\n        /* \"#utility.yul\":4422:4425   */\n      dup3\n        /* \"#utility.yul\":4415:4464   */\n      mstore\n        /* \"#utility.yul\":4341:4470   */\n      pop\n      pop\n      jump\t// out\n        /* \"#utility.yul\":4476:4657   */\n    tag_321:\n        /* \"#utility.yul\":4588:4650   */\n      tag_323\n        /* \"#utility.yul\":4644:4649   */\n      dup2\n        /* \"#utility.yul\":4588:4650   */\n      tag_324\n      jump\t// in\n    tag_323:\n        /* \"#utility.yul\":4583:4586   */\n      dup3\n        /* \"#utility.yul\":4576:4651   */\n      mstore\n        /* \"#utility.yul\":4476:4657   */\n      pop\n      pop\n      jump\t// out\n        /* \"#utility.yul\":4663:4848   */\n    tag_325:\n        /* \"#utility.yul\":4777:4841   */\n      tag_327\n        /* \"#utility.yul\":4835:4840   */\n      dup2\n        /* \"#utility.yul\":4777:4841   */\n      tag_328\n      jump\t// in\n    tag_327:\n        /* \"#utility.yul\":4772:4775   */\n      dup3\n        /* \"#utility.yul\":4765:4842   */\n      mstore\n        /* \"#utility.yul\":4663:4848   */\n      pop\n      pop\n      jump\t// out\n        /* \"#utility.yul\":4854:4969   */\n    tag_329:\n        /* \"#utility.yul\":4939:4962   */\n      tag_331\n        /* \"#utility.yul\":4956:4961   */\n      dup2\n        /* \"#utility.yul\":4939:4962   */\n      tag_332\n      jump\t// in\n    tag_331:\n        /* \"#utility.yul\":4934:4937   */\n      dup3\n        /* \"#utility.yul\":4927:4963   */\n      mstore\n        /* \"#utility.yul\":4854:4969   */\n      pop\n      pop\n      jump\t// out\n        /* \"#utility.yul\":4975:5341   */\n    tag_333:\n        /* \"#utility.yul\":5117:5120   */\n      0x00\n        /* \"#utility.yul\":5138:5205   */\n      tag_335\n        /* \"#utility.yul\":5202:5204   */\n      0x1b\n        /* \"#utility.yul\":5197:5200   */\n      dup4\n        /* \"#utility.yul\":5138:5205   */\n      tag_336\n      jump\t// in\n    tag_335:\n        /* \"#utility.yul\":5131:5205   */\n      swap2\n      pop\n        /* \"#utility.yul\":5214:5307   */\n      tag_337\n        /* \"#utility.yul\":5303:5306   */\n      dup3\n        /* \"#utility.yul\":5214:5307   */\n      tag_338\n      jump\t// in\n    tag_337:\n        /* \"#utility.yul\":5332:5334   */\n      0x20\n        /* \"#utility.yul\":5327:5330   */\n      dup3\n        /* \"#utility.yul\":5323:5335   */\n      add\n        /* \"#utility.yul\":5316:5335   */\n      swap1\n      pop\n        /* \"#utility.yul\":4975:5341   */\n      swap2\n      swap1\n      pop\n      jump\t// out\n        /* \"#utility.yul\":5347:5713   */\n    tag_339:\n        /* \"#utility.yul\":5489:5492   */\n      0x00\n        /* \"#utility.yul\":5510:5577   */\n      tag_341\n        /* \"#utility.yul\":5574:5576   */\n      0x1e\n        /* \"#utility.yul\":5569:5572   */\n      dup4\n        /* \"#utility.yul\":5510:5577   */\n      tag_336\n      jump\t// in\n    tag_341:\n        /* \"#utility.yul\":5503:5577   */\n      swap2\n      pop\n        /* \"#utility.yul\":5586:5679   */\n      tag_342\n        /* \"#utility.yul\":5675:5678   */\n      dup3\n        /* \"#utility.yul\":5586:5679   */\n      tag_343\n      jump\t// in\n    tag_342:\n        /* \"#utility.yul\":5704:5706   */\n      0x20\n        /* \"#utility.yul\":5699:5702   */\n      dup3\n        /* \"#utility.yul\":5695:5707   */\n      add\n        /* \"#utility.yul\":5688:5707   */\n      swap1\n      pop\n        /* \"#utility.yul\":5347:5713   */\n      swap2\n      swap1\n      pop\n      jump\t// out\n        /* \"#utility.yul\":5719:6085   */\n    tag_344:\n        /* \"#utility.yul\":5861:5864   */\n      0x00\n        /* \"#utility.yul\":5882:5949   */\n      tag_346\n        /* \"#utility.yul\":5946:5948   */\n      0x0f\n        /* \"#utility.yul\":5941:5944   */\n      dup4\n        /* \"#utility.yul\":5882:5949   */\n      tag_336\n      jump\t// in\n    tag_346:\n        /* \"#utility.yul\":5875:5949   */\n      swap2\n      pop\n        /* \"#utility.yul\":5958:6051   */\n      tag_347\n        /* \"#utility.yul\":6047:6050   */\n      dup3\n        /* \"#utility.yul\":5958:6051   */\n      tag_348\n      jump\t// in\n    tag_347:\n        /* \"#utility.yul\":6076:6078   */\n      0x20\n        /* \"#utility.yul\":6071:6074   */\n      dup3\n        /* \"#utility.yul\":6067:6079   */\n      add\n        /* \"#utility.yul\":6060:6079   */\n      swap1\n      pop\n        /* \"#utility.yul\":5719:6085   */\n      swap2\n      swap1\n      pop\n      jump\t// out\n        /* \"#utility.yul\":6091:6457   */\n    tag_349:\n        /* \"#utility.yul\":6233:6236   */\n      0x00\n        /* \"#utility.yul\":6254:6321   */\n      tag_351\n        /* \"#utility.yul\":6318:6320   */\n      0x21\n        /* \"#utility.yul\":6313:6316   */\n      dup4\n        /* \"#utility.yul\":6254:6321   */\n      tag_336\n      jump\t// in\n    tag_351:\n        /* \"#utility.yul\":6247:6321   */\n      swap2\n      pop\n        /* \"#utility.yul\":6330:6423   */\n      tag_352\n        /* \"#utility.yul\":6419:6422   */\n      dup3\n        /* \"#utility.yul\":6330:6423   */\n      tag_353\n      jump\t// in\n    tag_352:\n        /* \"#utility.yul\":6448:6450   */\n      0x40\n        /* \"#utility.yul\":6443:6446   */\n      dup3\n        /* \"#utility.yul\":6439:6451   */\n      add\n        /* \"#utility.yul\":6432:6451   */\n      swap1\n      pop\n        /* \"#utility.yul\":6091:6457   */\n      swap2\n      swap1\n      pop\n      jump\t// out\n        /* \"#utility.yul\":6463:6581   */\n    tag_354:\n        /* \"#utility.yul\":6550:6574   */\n      tag_356\n        /* \"#utility.yul\":6568:6573   */\n      dup2\n        /* \"#utility.yul\":6550:6574   */\n      tag_357\n      jump\t// in\n    tag_356:\n        /* \"#utility.yul\":6545:6548   */\n      dup3\n        /* \"#utility.yul\":6538:6575   */\n      mstore\n        /* \"#utility.yul\":6463:6581   */\n      pop\n      pop\n      jump\t// out\n        /* \"#utility.yul\":6587:7029   */\n    tag_199:\n        /* \"#utility.yul\":6736:6740   */\n      0x00\n        /* \"#utility.yul\":6774:6776   */\n      0x60\n        /* \"#utility.yul\":6763:6772   */\n      dup3\n        /* \"#utility.yul\":6759:6777   */\n      add\n        /* \"#utility.yul\":6751:6777   */\n      swap1\n      pop\n        /* \"#utility.yul\":6787:6858   */\n      tag_359\n        /* \"#utility.yul\":6855:6856   */\n      0x00\n        /* \"#utility.yul\":6844:6853   */\n      dup4\n        /* \"#utility.yul\":6840:6857   */\n      add\n        /* \"#utility.yul\":6831:6837   */\n      dup7\n        /* \"#utility.yul\":6787:6858   */\n      tag_309\n      jump\t// in\n    tag_359:\n        /* \"#utility.yul\":6868:6940   */\n      tag_360\n        /* \"#utility.yul\":6936:6938   */\n      0x20\n        /* \"#utility.yul\":6925:6934   */\n      dup4\n        /* \"#utility.yul\":6921:6939   */\n      add\n        /* \"#utility.yul\":6912:6918   */\n      dup6\n        /* \"#utility.yul\":6868:6940   */\n      tag_309\n      jump\t// in\n    tag_360:\n        /* \"#utility.yul\":6950:7022   */\n      tag_361\n        /* \"#utility.yul\":7018:7020   */\n      0x40\n        /* \"#utility.yul\":7007:7016   */\n      dup4\n        /* \"#utility.yul\":7003:7021   */\n      add\n        /* \"#utility.yul\":6994:7000   */\n      dup5\n        /* \"#utility.yul\":6950:7022   */\n      tag_354\n      jump\t// in\n    tag_361:\n        /* \"#utility.yul\":6587:7029   */\n      swap5\n      swap4\n      pop\n      pop\n      pop\n      pop\n      jump\t// out\n        /* \"#utility.yul\":7035:7245   */\n    tag_47:\n        /* \"#utility.yul\":7122:7126   */\n      0x00\n        /* \"#utility.yul\":7160:7162   */\n      0x20\n        /* \"#utility.yul\":7149:7158   */\n      dup3\n        /* \"#utility.yul\":7145:7163   */\n      add\n        /* \"#utility.yul\":7137:7163   */\n      swap1\n      pop\n        /* \"#utility.yul\":7173:7238   */\n      tag_363\n        /* \"#utility.yul\":7235:7236   */\n      0x00\n        /* \"#utility.yul\":7224:7233   */\n      dup4\n        /* \"#utility.yul\":7220:7237   */\n      add\n        /* \"#utility.yul\":7211:7217   */\n      dup5\n        /* \"#utility.yul\":7173:7238   */\n      tag_313\n      jump\t// in\n    tag_363:\n        /* \"#utility.yul\":7035:7245   */\n      swap3\n      swap2\n      pop\n      pop\n      jump\t// out\n        /* \"#utility.yul\":7251:7471   */\n    tag_126:\n        /* \"#utility.yul\":7343:7347   */\n      0x00\n        /* \"#utility.yul\":7381:7383   */\n      0x20\n        /* \"#utility.yul\":7370:7379   */\n      dup3\n        /* \"#utility.yul\":7366:7384   */\n      add\n        /* \"#utility.yul\":7358:7384   */\n      swap1\n      pop\n        /* \"#utility.yul\":7394:7464   */\n      tag_365\n        /* \"#utility.yul\":7461:7462   */\n      0x00\n        /* \"#utility.yul\":7450:7459   */\n      dup4\n        /* \"#utility.yul\":7446:7463   */\n      add\n        /* \"#utility.yul\":7437:7443   */\n      dup5\n        /* \"#utility.yul\":7394:7464   */\n      tag_317\n      jump\t// in\n    tag_365:\n        /* \"#utility.yul\":7251:7471   */\n      swap3\n      swap2\n      pop\n      pop\n      jump\t// out\n        /* \"#utility.yul\":7477:7749   */\n    tag_87:\n        /* \"#utility.yul\":7595:7599   */\n      0x00\n        /* \"#utility.yul\":7633:7635   */\n      0x20\n        /* \"#utility.yul\":7622:7631   */\n      dup3\n        /* \"#utility.yul\":7618:7636   */\n      add\n        /* \"#utility.yul\":7610:7636   */\n      swap1\n      pop\n        /* \"#utility.yul\":7646:7742   */\n      tag_367\n        /* \"#utility.yul\":7739:7740   */\n      0x00\n        /* \"#utility.yul\":7728:7737   */\n      dup4\n        /* \"#utility.yul\":7724:7741   */\n      add\n        /* \"#utility.yul\":7715:7721   */\n      dup5\n        /* \"#utility.yul\":7646:7742   */\n      tag_321\n      jump\t// in\n    tag_367:\n        /* \"#utility.yul\":7477:7749   */\n      swap3\n      swap2\n      pop\n      pop\n      jump\t// out\n        /* \"#utility.yul\":7755:8031   */\n    tag_52:\n        /* \"#utility.yul\":7875:7879   */\n      0x00\n        /* \"#utility.yul\":7913:7915   */\n      0x20\n        /* \"#utility.yul\":7902:7911   */\n      dup3\n        /* \"#utility.yul\":7898:7916   */\n      add\n        /* \"#utility.yul\":7890:7916   */\n      swap1\n      pop\n        /* \"#utility.yul\":7926:8024   */\n      tag_369\n        /* \"#utility.yul\":8021:8022   */\n      0x00\n        /* \"#utility.yul\":8010:8019   */\n      dup4\n        /* \"#utility.yul\":8006:8023   */\n      add\n        /* \"#utility.yul\":7997:8003   */\n      dup5\n        /* \"#utility.yul\":7926:8024   */\n      tag_325\n      jump\t// in\n    tag_369:\n        /* \"#utility.yul\":7755:8031   */\n      swap3\n      swap2\n      pop\n      pop\n      jump\t// out\n        /* \"#utility.yul\":8037:8456   */\n    tag_191:\n        /* \"#utility.yul\":8203:8207   */\n      0x00\n        /* \"#utility.yul\":8241:8243   */\n      0x20\n        /* \"#utility.yul\":8230:8239   */\n      dup3\n        /* \"#utility.yul\":8226:8244   */\n      add\n        /* \"#utility.yul\":8218:8244   */\n      swap1\n      pop\n        /* \"#utility.yul\":8290:8299   */\n      dup2\n        /* \"#utility.yul\":8284:8288   */\n      dup2\n        /* \"#utility.yul\":8280:8300   */\n      sub\n        /* \"#utility.yul\":8276:8277   */\n      0x00\n        /* \"#utility.yul\":8265:8274   */\n      dup4\n        /* \"#utility.yul\":8261:8278   */\n      add\n        /* \"#utility.yul\":8254:8301   */\n      mstore\n        /* \"#utility.yul\":8318:8449   */\n      tag_371\n        /* \"#utility.yul\":8444:8448   */\n      dup2\n        /* \"#utility.yul\":8318:8449   */\n      tag_333\n      jump\t// in\n    tag_371:\n        /* \"#utility.yul\":8310:8449   */\n      swap1\n      pop\n        /* \"#utility.yul\":8037:8456   */\n      swap2\n      swap1\n      pop\n      jump\t// out\n        /* \"#utility.yul\":8462:8881   */\n    tag_101:\n        /* \"#utility.yul\":8628:8632   */\n      0x00\n        /* \"#utility.yul\":8666:8668   */\n      0x20\n        /* \"#utility.yul\":8655:8664   */\n      dup3\n        /* \"#utility.yul\":8651:8669   */\n      add\n        /* \"#utility.yul\":8643:8669   */\n      swap1\n      pop\n        /* \"#utility.yul\":8715:8724   */\n      dup2\n        /* \"#utility.yul\":8709:8713   */\n      dup2\n        /* \"#utility.yul\":8705:8725   */\n      sub\n        /* \"#utility.yul\":8701:8702   */\n      0x00\n        /* \"#utility.yul\":8690:8699   */\n      dup4\n        /* \"#utility.yul\":8686:8703   */\n      add\n        /* \"#utility.yul\":8679:8726   */\n      mstore\n        /* \"#utility.yul\":8743:8874   */\n      tag_373\n        /* \"#utility.yul\":8869:8873   */\n      dup2\n        /* \"#utility.yul\":8743:8874   */\n      tag_339\n      jump\t// in\n    tag_373:\n        /* \"#utility.yul\":8735:8874   */\n      swap1\n      pop\n        /* \"#utility.yul\":8462:8881   */\n      swap2\n      swap1\n      pop\n      jump\t// out\n        /* \"#utility.yul\":8887:9306   */\n    tag_164:\n        /* \"#utility.yul\":9053:9057   */\n      0x00\n        /* \"#utility.yul\":9091:9093   */\n      0x20\n        /* \"#utility.yul\":9080:9089   */\n      dup3\n        /* \"#utility.yul\":9076:9094   */\n      add\n        /* \"#utility.yul\":9068:9094   */\n      swap1\n      pop\n        /* \"#utility.yul\":9140:9149   */\n      dup2\n        /* \"#utility.yul\":9134:9138   */\n      dup2\n        /* \"#utility.yul\":9130:9150   */\n      sub\n        /* \"#utility.yul\":9126:9127   */\n      0x00\n        /* \"#utility.yul\":9115:9124   */\n      dup4\n        /* \"#utility.yul\":9111:9128   */\n      add\n        /* \"#utility.yul\":9104:9151   */\n      mstore\n        /* \"#utility.yul\":9168:9299   */\n      tag_375\n        /* \"#utility.yul\":9294:9298   */\n      dup2\n        /* \"#utility.yul\":9168:9299   */\n      tag_344\n      jump\t// in\n    tag_375:\n        /* \"#utility.yul\":9160:9299   */\n      swap1\n      pop\n        /* \"#utility.yul\":8887:9306   */\n      swap2\n      swap1\n      pop\n      jump\t// out\n        /* \"#utility.yul\":9312:9731   */\n    tag_108:\n        /* \"#utility.yul\":9478:9482   */\n      0x00\n        /* \"#utility.yul\":9516:9518   */\n      0x20\n        /* \"#utility.yul\":9505:9514   */\n      dup3\n        /* \"#utility.yul\":9501:9519   */\n      add\n        /* \"#utility.yul\":9493:9519   */\n      swap1\n      pop\n        /* \"#utility.yul\":9565:9574   */\n      dup2\n        /* \"#utility.yul\":9559:9563   */\n      dup2\n        /* \"#utility.yul\":9555:9575   */\n      sub\n        /* \"#utility.yul\":9551:9552   */\n      0x00\n        /* \"#utility.yul\":9540:9549   */\n      dup4\n        /* \"#utility.yul\":9536:9553   */\n      add\n        /* \"#utility.yul\":9529:9576   */\n      mstore\n        /* \"#utility.yul\":9593:9724   */\n      tag_377\n        /* \"#utility.yul\":9719:9723   */\n      dup2\n        /* \"#utility.yul\":9593:9724   */\n      tag_349\n      jump\t// in\n    tag_377:\n        /* \"#utility.yul\":9585:9724   */\n      swap1\n      pop\n        /* \"#utility.yul\":9312:9731   */\n      swap2\n      swap1\n      pop\n      jump\t// out\n        /* \"#utility.yul\":9737:9959   */\n    tag_34:\n        /* \"#utility.yul\":9830:9834   */\n      0x00\n        /* \"#utility.yul\":9868:9870   */\n      0x20\n        /* \"#utility.yul\":9857:9866   */\n      dup3\n        /* \"#utility.yul\":9853:9871   */\n      add\n        /* \"#utility.yul\":9845:9871   */\n      swap1\n      pop\n        /* \"#utility.yul\":9881:9952   */\n      tag_379\n        /* \"#utility.yul\":9949:9950   */\n      0x00\n        /* \"#utility.yul\":9938:9947   */\n      dup4\n        /* \"#utility.yul\":9934:9951   */\n      add\n        /* \"#utility.yul\":9925:9931   */\n      dup5\n        /* \"#utility.yul\":9881:9952   */\n      tag_354\n      jump\t// in\n    tag_379:\n        /* \"#utility.yul\":9737:9959   */\n      swap3\n      swap2\n      pop\n      pop\n      jump\t// out\n        /* \"#utility.yul\":9965:10293   */\n    tag_26:\n        /* \"#utility.yul\":10084:10088   */\n      0x00\n        /* \"#utility.yul\":10122:10124   */\n      0x40\n        /* \"#utility.yul\":10111:10120   */\n      dup3\n        /* \"#utility.yul\":10107:10125   */\n      add\n        /* \"#utility.yul\":10099:10125   */\n      swap1\n      pop\n        /* \"#utility.yul\":10135:10206   */\n      tag_381\n        /* \"#utility.yul\":10203:10204   */\n      0x00\n        /* \"#utility.yul\":10192:10201   */\n      dup4\n        /* \"#utility.yul\":10188:10205   */\n      add\n        /* \"#utility.yul\":10179:10185   */\n      dup6\n        /* \"#utility.yul\":10135:10206   */\n      tag_354\n      jump\t// in\n    tag_381:\n        /* \"#utility.yul\":10216:10286   */\n      tag_382\n        /* \"#utility.yul\":10282:10284   */\n      0x20\n        /* \"#utility.yul\":10271:10280   */\n      dup4\n        /* \"#utility.yul\":10267:10285   */\n      add\n        /* \"#utility.yul\":10258:10264   */\n      dup5\n        /* \"#utility.yul\":10216:10286   */\n      tag_329\n      jump\t// in\n    tag_382:\n        /* \"#utility.yul\":9965:10293   */\n      swap4\n      swap3\n      pop\n      pop\n      pop\n      jump\t// out\n        /* \"#utility.yul\":10299:10848   */\n    tag_64:\n        /* \"#utility.yul\":10474:10478   */\n      0x00\n        /* \"#utility.yul\":10512:10515   */\n      0x80\n        /* \"#utility.yul\":10501:10510   */\n      dup3\n        /* \"#utility.yul\":10497:10516   */\n      add\n        /* \"#utility.yul\":10489:10516   */\n      swap1\n      pop\n        /* \"#utility.yul\":10526:10597   */\n      tag_384\n        /* \"#utility.yul\":10594:10595   */\n      0x00\n        /* \"#utility.yul\":10583:10592   */\n      dup4\n        /* \"#utility.yul\":10579:10596   */\n      add\n        /* \"#utility.yul\":10570:10576   */\n      dup8\n        /* \"#utility.yul\":10526:10597   */\n      tag_354\n      jump\t// in\n    tag_384:\n        /* \"#utility.yul\":10607:10677   */\n      tag_385\n        /* \"#utility.yul\":10673:10675   */\n      0x20\n        /* \"#utility.yul\":10662:10671   */\n      dup4\n        /* \"#utility.yul\":10658:10676   */\n      add\n        /* \"#utility.yul\":10649:10655   */\n      dup7\n        /* \"#utility.yul\":10607:10677   */\n      tag_329\n      jump\t// in\n    tag_385:\n        /* \"#utility.yul\":10687:10759   */\n      tag_386\n        /* \"#utility.yul\":10755:10757   */\n      0x40\n        /* \"#utility.yul\":10744:10753   */\n      dup4\n        /* \"#utility.yul\":10740:10758   */\n      add\n        /* \"#utility.yul\":10731:10737   */\n      dup6\n        /* \"#utility.yul\":10687:10759   */\n      tag_354\n      jump\t// in\n    tag_386:\n        /* \"#utility.yul\":10769:10841   */\n      tag_387\n        /* \"#utility.yul\":10837:10839   */\n      0x60\n        /* \"#utility.yul\":10826:10835   */\n      dup4\n        /* \"#utility.yul\":10822:10840   */\n      add\n        /* \"#utility.yul\":10813:10819   */\n      dup5\n        /* \"#utility.yul\":10769:10841   */\n      tag_309\n      jump\t// in\n    tag_387:\n        /* \"#utility.yul\":10299:10848   */\n      swap6\n      swap5\n      pop\n      pop\n      pop\n      pop\n      pop\n      jump\t// out\n        /* \"#utility.yul\":10854:11186   */\n    tag_69:\n        /* \"#utility.yul\":10975:10979   */\n      0x00\n        /* \"#utility.yul\":11013:11015   */\n      0x40\n        /* \"#utility.yul\":11002:11011   */\n      dup3\n        /* \"#utility.yul\":10998:11016   */\n      add\n        /* \"#utility.yul\":10990:11016   */\n      swap1\n      pop\n        /* \"#utility.yul\":11026:11097   */\n      tag_389\n        /* \"#utility.yul\":11094:11095   */\n      0x00\n        /* \"#utility.yul\":11083:11092   */\n      dup4\n        /* \"#utility.yul\":11079:11096   */\n      add\n        /* \"#utility.yul\":11070:11076   */\n      dup6\n        /* \"#utility.yul\":11026:11097   */\n      tag_354\n      jump\t// in\n    tag_389:\n        /* \"#utility.yul\":11107:11179   */\n      tag_390\n        /* \"#utility.yul\":11175:11177   */\n      0x20\n        /* \"#utility.yul\":11164:11173   */\n      dup4\n        /* \"#utility.yul\":11160:11178   */\n      add\n        /* \"#utility.yul\":11151:11157   */\n      dup5\n        /* \"#utility.yul\":11107:11179   */\n      tag_354\n      jump\t// in\n    tag_390:\n        /* \"#utility.yul\":10854:11186   */\n      swap4\n      swap3\n      pop\n      pop\n      pop\n      jump\t// out\n        /* \"#utility.yul\":11273:11442   */\n    tag_336:\n        /* \"#utility.yul\":11357:11368   */\n      0x00\n        /* \"#utility.yul\":11391:11397   */\n      dup3\n        /* \"#utility.yul\":11386:11389   */\n      dup3\n        /* \"#utility.yul\":11379:11398   */\n      mstore\n        /* \"#utility.yul\":11431:11435   */\n      0x20\n        /* \"#utility.yul\":11426:11429   */\n      dup3\n        /* \"#utility.yul\":11422:11436   */\n      add\n        /* \"#utility.yul\":11407:11436   */\n      swap1\n      pop\n        /* \"#utility.yul\":11273:11442   */\n      swap3\n      swap2\n      pop\n      pop\n      jump\t// out\n        /* \"#utility.yul\":11448:11973   */\n    tag_114:\n        /* \"#utility.yul\":11487:11490   */\n      0x00\n        /* \"#utility.yul\":11506:11525   */\n      tag_395\n        /* \"#utility.yul\":11523:11524   */\n      dup3\n        /* \"#utility.yul\":11506:11525   */\n      tag_332\n      jump\t// in\n    tag_395:\n        /* \"#utility.yul\":11501:11525   */\n      swap2\n      pop\n        /* \"#utility.yul\":11539:11558   */\n      tag_396\n        /* \"#utility.yul\":11556:11557   */\n      dup4\n        /* \"#utility.yul\":11539:11558   */\n      tag_332\n      jump\t// in\n    tag_396:\n        /* \"#utility.yul\":11534:11558   */\n      swap3\n      pop\n        /* \"#utility.yul\":11727:11728   */\n      dup2\n        /* \"#utility.yul\":11659:11725   */\n      0x7fffffffffffffffffffffffffffffffffffffffffffffffffffffffffffffff\n        /* \"#utility.yul\":11655:11729   */\n      sub\n        /* \"#utility.yul\":11652:11653   */\n      dup4\n        /* \"#utility.yul\":11648:11730   */\n      sgt\n        /* \"#utility.yul\":11643:11644   */\n      0x00\n        /* \"#utility.yul\":11640:11641   */\n      dup4\n        /* \"#utility.yul\":11636:11645   */\n      slt\n        /* \"#utility.yul\":11629:11646   */\n      iszero\n        /* \"#utility.yul\":11625:11731   */\n      and\n        /* \"#utility.yul\":11622:11754   */\n      iszero\n      tag_397\n      jumpi\n        /* \"#utility.yul\":11734:11752   */\n      tag_398\n      tag_399\n      jump\t// in\n    tag_398:\n        /* \"#utility.yul\":11622:11754   */\n    tag_397:\n        /* \"#utility.yul\":11914:11915   */\n      dup2\n        /* \"#utility.yul\":11846:11912   */\n      0x8000000000000000000000000000000000000000000000000000000000000000\n        /* \"#utility.yul\":11842:11916   */\n      sub\n        /* \"#utility.yul\":11839:11840   */\n      dup4\n        /* \"#utility.yul\":11835:11917   */\n      slt\n        /* \"#utility.yul\":11831:11832   */\n      0x00\n        /* \"#utility.yul\":11828:11829   */\n      dup4\n        /* \"#utility.yul\":11824:11833   */\n      slt\n        /* \"#utility.yul\":11820:11918   */\n      and\n        /* \"#utility.yul\":11817:11941   */\n      iszero\n      tag_400\n      jumpi\n        /* \"#utility.yul\":11921:11939   */\n      tag_401\n      tag_399\n      jump\t// in\n    tag_401:\n        /* \"#utility.yul\":11817:11941   */\n    tag_400:\n        /* \"#utility.yul\":11965:11966   */\n      dup3\n        /* \"#utility.yul\":11962:11963   */\n      dup3\n        /* \"#utility.yul\":11958:11967   */\n      add\n        /* \"#utility.yul\":11951:11967   */\n      swap1\n      pop\n        /* \"#utility.yul\":11448:11973   */\n      swap3\n      swap2\n      pop\n      pop\n      jump\t// out\n        /* \"#utility.yul\":11979:12284   */\n    tag_118:\n        /* \"#utility.yul\":12019:12022   */\n      0x00\n        /* \"#utility.yul\":12038:12058   */\n      tag_403\n        /* \"#utility.yul\":12056:12057   */\n      dup3\n        /* \"#utility.yul\":12038:12058   */\n      tag_357\n      jump\t// in\n    tag_403:\n        /* \"#utility.yul\":12033:12058   */\n      swap2\n      pop\n        /* \"#utility.yul\":12072:12092   */\n      tag_404\n        /* \"#utility.yul\":12090:12091   */\n      dup4\n        /* \"#utility.yul\":12072:12092   */\n      tag_357\n      jump\t// in\n    tag_404:\n        /* \"#utility.yul\":12067:12092   */\n      swap3\n      pop\n        /* \"#utility.yul\":12226:12227   */\n      dup3\n        /* \"#utility.yul\":12158:12224   */\n      0xffffffffffffffffffffffffffffffffffffffffffffffffffffffffffffffff\n        /* \"#utility.yul\":12154:12228   */\n      sub\n        /* \"#utility.yul\":12151:12152   */\n      dup3\n        /* \"#utility.yul\":12148:12229   */\n      gt\n        /* \"#utility.yul\":12145:12252   */\n      iszero\n      tag_405\n      jumpi\n        /* \"#utility.yul\":12232:12250   */\n      tag_406\n      tag_399\n      jump\t// in\n    tag_406:\n        /* \"#utility.yul\":12145:12252   */\n    tag_405:\n        /* \"#utility.yul\":12276:12277   */\n      dup3\n        /* \"#utility.yul\":12273:12274   */\n      dup3\n        /* \"#utility.yul\":12269:12278   */\n      add\n        /* \"#utility.yul\":12262:12278   */\n      swap1\n      pop\n        /* \"#utility.yul\":11979:12284   */\n      swap3\n      swap2\n      pop\n      pop\n      jump\t// out\n        /* \"#utility.yul\":12290:12675   */\n    tag_105:\n        /* \"#utility.yul\":12329:12330   */\n      0x00\n        /* \"#utility.yul\":12346:12365   */\n      tag_408\n        /* \"#utility.yul\":12363:12364   */\n      dup3\n        /* \"#utility.yul\":12346:12365   */\n      tag_332\n      jump\t// in\n    tag_408:\n        /* \"#utility.yul\":12341:12365   */\n      swap2\n      pop\n        /* \"#utility.yul\":12379:12398   */\n      tag_409\n        /* \"#utility.yul\":12396:12397   */\n      dup4\n        /* \"#utility.yul\":12379:12398   */\n      tag_332\n      jump\t// in\n    tag_409:\n        /* \"#utility.yul\":12374:12398   */\n      swap3\n      pop\n        /* \"#utility.yul\":12417:12418   */\n      dup3\n        /* \"#utility.yul\":12407:12442   */\n      tag_410\n      jumpi\n        /* \"#utility.yul\":12422:12440   */\n      tag_411\n      tag_412\n      jump\t// in\n    tag_411:\n        /* \"#utility.yul\":12407:12442   */\n    tag_410:\n        /* \"#utility.yul\":12608:12609   */\n      0x01\n        /* \"#utility.yul\":12605:12606   */\n      0x00\n        /* \"#utility.yul\":12601:12610   */\n      sub\n        /* \"#utility.yul\":12598:12599   */\n      dup4\n        /* \"#utility.yul\":12595:12611   */\n      eq\n        /* \"#utility.yul\":12514:12580   */\n      0x8000000000000000000000000000000000000000000000000000000000000000\n        /* \"#utility.yul\":12511:12512   */\n      dup4\n        /* \"#utility.yul\":12508:12581   */\n      eq\n        /* \"#utility.yul\":12491:12621   */\n      and\n        /* \"#utility.yul\":12488:12644   */\n      iszero\n      tag_413\n      jumpi\n        /* \"#utility.yul\":12624:12642   */\n      tag_414\n      tag_399\n      jump\t// in\n    tag_414:\n        /* \"#utility.yul\":12488:12644   */\n    tag_413:\n        /* \"#utility.yul\":12667:12668   */\n      dup3\n        /* \"#utility.yul\":12664:12665   */\n      dup3\n        /* \"#utility.yul\":12659:12669   */\n      sdiv\n        /* \"#utility.yul\":12654:12669   */\n      swap1\n      pop\n        /* \"#utility.yul\":12290:12675   */\n      swap3\n      swap2\n      pop\n      pop\n      jump\t// out\n        /* \"#utility.yul\":12681:12866   */\n    tag_167:\n        /* \"#utility.yul\":12721:12722   */\n      0x00\n        /* \"#utility.yul\":12738:12758   */\n      tag_416\n        /* \"#utility.yul\":12756:12757   */\n      dup3\n        /* \"#utility.yul\":12738:12758   */\n      tag_357\n      jump\t// in\n    tag_416:\n        /* \"#utility.yul\":12733:12758   */\n      swap2\n      pop\n        /* \"#utility.yul\":12772:12792   */\n      tag_417\n        /* \"#utility.yul\":12790:12791   */\n      dup4\n        /* \"#utility.yul\":12772:12792   */\n      tag_357\n      jump\t// in\n    tag_417:\n        /* \"#utility.yul\":12767:12792   */\n      swap3\n      pop\n        /* \"#utility.yul\":12811:12812   */\n      dup3\n        /* \"#utility.yul\":12801:12836   */\n      tag_418\n      jumpi\n        /* \"#utility.yul\":12816:12834   */\n      tag_419\n      tag_412\n      jump\t// in\n    tag_419:\n        /* \"#utility.yul\":12801:12836   */\n    tag_418:\n        /* \"#utility.yul\":12858:12859   */\n      dup3\n        /* \"#utility.yul\":12855:12856   */\n      dup3\n        /* \"#utility.yul\":12851:12860   */\n      div\n        /* \"#utility.yul\":12846:12860   */\n      swap1\n      pop\n        /* \"#utility.yul\":12681:12866   */\n      swap3\n      swap2\n      pop\n      pop\n      jump\t// out\n        /* \"#utility.yul\":12872:13863   */\n    tag_110:\n        /* \"#utility.yul\":12911:12918   */\n      0x00\n        /* \"#utility.yul\":12934:12953   */\n      tag_421\n        /* \"#utility.yul\":12951:12952   */\n      dup3\n        /* \"#utility.yul\":12934:12953   */\n      tag_332\n      jump\t// in\n    tag_421:\n        /* \"#utility.yul\":12929:12953   */\n      swap2\n      pop\n        /* \"#utility.yul\":12967:12986   */\n      tag_422\n        /* \"#utility.yul\":12984:12985   */\n      dup4\n        /* \"#utility.yul\":12967:12986   */\n      tag_332\n      jump\t// in\n    tag_422:\n        /* \"#utility.yul\":12962:12986   */\n      swap3\n      pop\n        /* \"#utility.yul\":13168:13169   */\n      dup3\n        /* \"#utility.yul\":13100:13166   */\n      0x7fffffffffffffffffffffffffffffffffffffffffffffffffffffffffffffff\n        /* \"#utility.yul\":13096:13170   */\n      div\n        /* \"#utility.yul\":13093:13094   */\n      dup3\n        /* \"#utility.yul\":13090:13171   */\n      gt\n        /* \"#utility.yul\":13085:13086   */\n      0x00\n        /* \"#utility.yul\":13082:13083   */\n      dup5\n        /* \"#utility.yul\":13078:13087   */\n      sgt\n        /* \"#utility.yul\":13074:13075   */\n      0x00\n        /* \"#utility.yul\":13071:13072   */\n      dup5\n        /* \"#utility.yul\":13067:13076   */\n      sgt\n        /* \"#utility.yul\":13063:13088   */\n      and\n        /* \"#utility.yul\":13059:13172   */\n      and\n        /* \"#utility.yul\":13056:13195   */\n      iszero\n      tag_423\n      jumpi\n        /* \"#utility.yul\":13175:13193   */\n      tag_424\n      tag_399\n      jump\t// in\n    tag_424:\n        /* \"#utility.yul\":13056:13195   */\n    tag_423:\n        /* \"#utility.yul\":13379:13380   */\n      dup2\n        /* \"#utility.yul\":13311:13377   */\n      0x8000000000000000000000000000000000000000000000000000000000000000\n        /* \"#utility.yul\":13306:13381   */\n      sdiv\n        /* \"#utility.yul\":13303:13304   */\n      dup4\n        /* \"#utility.yul\":13299:13382   */\n      slt\n        /* \"#utility.yul\":13294:13295   */\n      0x00\n        /* \"#utility.yul\":13291:13292   */\n      dup5\n        /* \"#utility.yul\":13287:13296   */\n      slt\n        /* \"#utility.yul\":13283:13284   */\n      0x00\n        /* \"#utility.yul\":13280:13281   */\n      dup5\n        /* \"#utility.yul\":13276:13285   */\n      sgt\n        /* \"#utility.yul\":13272:13297   */\n      and\n        /* \"#utility.yul\":13268:13383   */\n      and\n        /* \"#utility.yul\":13265:13406   */\n      iszero\n      tag_425\n      jumpi\n        /* \"#utility.yul\":13386:13404   */\n      tag_426\n      tag_399\n      jump\t// in\n    tag_426:\n        /* \"#utility.yul\":13265:13406   */\n    tag_425:\n        /* \"#utility.yul\":13590:13591   */\n      dup3\n        /* \"#utility.yul\":13522:13588   */\n      0x8000000000000000000000000000000000000000000000000000000000000000\n        /* \"#utility.yul\":13517:13592   */\n      sdiv\n        /* \"#utility.yul\":13514:13515   */\n      dup3\n        /* \"#utility.yul\":13510:13593   */\n      slt\n        /* \"#utility.yul\":13505:13506   */\n      0x00\n        /* \"#utility.yul\":13502:13503   */\n      dup5\n        /* \"#utility.yul\":13498:13507   */\n      sgt\n        /* \"#utility.yul\":13494:13495   */\n      0x00\n        /* \"#utility.yul\":13491:13492   */\n      dup5\n        /* \"#utility.yul\":13487:13496   */\n      slt\n        /* \"#utility.yul\":13483:13508   */\n      and\n        /* \"#utility.yul\":13479:13594   */\n      and\n        /* \"#utility.yul\":13476:13617   */\n      iszero\n      tag_427\n      jumpi\n        /* \"#utility.yul\":13597:13615   */\n      tag_428\n      tag_399\n      jump\t// in\n    tag_428:\n        /* \"#utility.yul\":13476:13617   */\n    tag_427:\n        /* \"#utility.yul\":13800:13801   */\n      dup3\n        /* \"#utility.yul\":13732:13798   */\n      0x7fffffffffffffffffffffffffffffffffffffffffffffffffffffffffffffff\n        /* \"#utility.yul\":13727:13802   */\n      sdiv\n        /* \"#utility.yul\":13724:13725   */\n      dup3\n        /* \"#utility.yul\":13720:13803   */\n      slt\n        /* \"#utility.yul\":13715:13716   */\n      0x00\n        /* \"#utility.yul\":13712:13713   */\n      dup5\n        /* \"#utility.yul\":13708:13717   */\n      slt\n        /* \"#utility.yul\":13704:13705   */\n      0x00\n        /* \"#utility.yul\":13701:13702   */\n      dup5\n        /* \"#utility.yul\":13697:13706   */\n      slt\n        /* \"#utility.yul\":13693:13718   */\n      and\n        /* \"#utility.yul\":13689:13804   */\n      and\n        /* \"#utility.yul\":13686:13827   */\n      iszero\n      tag_429\n      jumpi\n        /* \"#utility.yul\":13807:13825   */\n      tag_430\n      tag_399\n      jump\t// in\n    tag_430:\n        /* \"#utility.yul\":13686:13827   */\n    tag_429:\n        /* \"#utility.yul\":13855:13856   */\n      dup3\n        /* \"#utility.yul\":13852:13853   */\n      dup3\n        /* \"#utility.yul\":13848:13857   */\n      mul\n        /* \"#utility.yul\":13837:13857   */\n      swap1\n      pop\n        /* \"#utility.yul\":12872:13863   */\n      swap3\n      swap2\n      pop\n      pop\n      jump\t// out\n        /* \"#utility.yul\":13869:14217   */\n    tag_222:\n        /* \"#utility.yul\":13909:13916   */\n      0x00\n        /* \"#utility.yul\":13932:13952   */\n      tag_432\n        /* \"#utility.yul\":13950:13951   */\n      dup3\n        /* \"#utility.yul\":13932:13952   */\n      tag_357\n      jump\t// in\n    tag_432:\n        /* \"#utility.yul\":13927:13952   */\n      swap2\n      pop\n        /* \"#utility.yul\":13966:13986   */\n      tag_433\n        /* \"#utility.yul\":13984:13985   */\n      dup4\n        /* \"#utility.yul\":13966:13986   */\n      tag_357\n      jump\t// in\n    tag_433:\n        /* \"#utility.yul\":13961:13986   */\n      swap3\n      pop\n        /* \"#utility.yul\":14154:14155   */\n      dup2\n        /* \"#utility.yul\":14086:14152   */\n      0xffffffffffffffffffffffffffffffffffffffffffffffffffffffffffffffff\n        /* \"#utility.yul\":14082:14156   */\n      div\n        /* \"#utility.yul\":14079:14080   */\n      dup4\n        /* \"#utility.yul\":14076:14157   */\n      gt\n        /* \"#utility.yul\":14071:14072   */\n      dup3\n        /* \"#utility.yul\":14064:14073   */\n      iszero\n        /* \"#utility.yul\":14057:14074   */\n      iszero\n        /* \"#utility.yul\":14053:14158   */\n      and\n        /* \"#utility.yul\":14050:14181   */\n      iszero\n      tag_434\n      jumpi\n        /* \"#utility.yul\":14161:14179   */\n      tag_435\n      tag_399\n      jump\t// in\n    tag_435:\n        /* \"#utility.yul\":14050:14181   */\n    tag_434:\n        /* \"#utility.yul\":14209:14210   */\n      dup3\n        /* \"#utility.yul\":14206:14207   */\n      dup3\n        /* \"#utility.yul\":14202:14211   */\n      mul\n        /* \"#utility.yul\":14191:14211   */\n      swap1\n      pop\n        /* \"#utility.yul\":13869:14217   */\n      swap3\n      swap2\n      pop\n      pop\n      jump\t// out\n        /* \"#utility.yul\":14223:14414   */\n    tag_174:\n        /* \"#utility.yul\":14263:14267   */\n      0x00\n        /* \"#utility.yul\":14283:14303   */\n      tag_437\n        /* \"#utility.yul\":14301:14302   */\n      dup3\n        /* \"#utility.yul\":14283:14303   */\n      tag_357\n      jump\t// in\n    tag_437:\n        /* \"#utility.yul\":14278:14303   */\n      swap2\n      pop\n        /* \"#utility.yul\":14317:14337   */\n      tag_438\n        /* \"#utility.yul\":14335:14336   */\n      dup4\n        /* \"#utility.yul\":14317:14337   */\n      tag_357\n      jump\t// in\n    tag_438:\n        /* \"#utility.yul\":14312:14337   */\n      swap3\n      pop\n        /* \"#utility.yul\":14356:14357   */\n      dup3\n        /* \"#utility.yul\":14353:14354   */\n      dup3\n        /* \"#utility.yul\":14350:14358   */\n      lt\n        /* \"#utility.yul\":14347:14381   */\n      iszero\n      tag_439\n      jumpi\n        /* \"#utility.yul\":14361:14379   */\n      tag_440\n      tag_399\n      jump\t// in\n    tag_440:\n        /* \"#utility.yul\":14347:14381   */\n    tag_439:\n        /* \"#utility.yul\":14406:14407   */\n      dup3\n        /* \"#utility.yul\":14403:14404   */\n      dup3\n        /* \"#utility.yul\":14399:14408   */\n      sub\n        /* \"#utility.yul\":14391:14408   */\n      swap1\n      pop\n        /* \"#utility.yul\":14223:14414   */\n      swap3\n      swap2\n      pop\n      pop\n      jump\t// out\n        /* \"#utility.yul\":14420:14516   */\n    tag_312:\n        /* \"#utility.yul\":14457:14464   */\n      0x00\n        /* \"#utility.yul\":14486:14510   */\n      tag_442\n        /* \"#utility.yul\":14504:14509   */\n      dup3\n        /* \"#utility.yul\":14486:14510   */\n      tag_443\n      jump\t// in\n    tag_442:\n        /* \"#utility.yul\":14475:14510   */\n      swap1\n      pop\n        /* \"#utility.yul\":14420:14516   */\n      swap2\n      swap1\n      pop\n      jump\t// out\n        /* \"#utility.yul\":14522:14626   */\n    tag_444:\n        /* \"#utility.yul\":14567:14574   */\n      0x00\n        /* \"#utility.yul\":14596:14620   */\n      tag_446\n        /* \"#utility.yul\":14614:14619   */\n      dup3\n        /* \"#utility.yul\":14596:14620   */\n      tag_443\n      jump\t// in\n    tag_446:\n        /* \"#utility.yul\":14585:14620   */\n      swap1\n      pop\n        /* \"#utility.yul\":14522:14626   */\n      swap2\n      swap1\n      pop\n      jump\t// out\n        /* \"#utility.yul\":14632:14722   */\n    tag_316:\n        /* \"#utility.yul\":14666:14673   */\n      0x00\n        /* \"#utility.yul\":14709:14714   */\n      dup2\n        /* \"#utility.yul\":14702:14715   */\n      iszero\n        /* \"#utility.yul\":14695:14716   */\n      iszero\n        /* \"#utility.yul\":14684:14716   */\n      swap1\n      pop\n        /* \"#utility.yul\":14632:14722   */\n      swap2\n      swap1\n      pop\n      jump\t// out\n        /* \"#utility.yul\":14728:14805   */\n    tag_448:\n        /* \"#utility.yul\":14765:14772   */\n      0x00\n        /* \"#utility.yul\":14794:14799   */\n      dup2\n        /* \"#utility.yul\":14783:14799   */\n      swap1\n      pop\n        /* \"#utility.yul\":14728:14805   */\n      swap2\n      swap1\n      pop\n      jump\t// out\n        /* \"#utility.yul\":14811:14960   */\n    tag_450:\n        /* \"#utility.yul\":14847:14854   */\n      0x00\n        /* \"#utility.yul\":14887:14953   */\n      0xffffffff00000000000000000000000000000000000000000000000000000000\n        /* \"#utility.yul\":14880:14885   */\n      dup3\n        /* \"#utility.yul\":14876:14954   */\n      and\n        /* \"#utility.yul\":14865:14954   */\n      swap1\n      pop\n        /* \"#utility.yul\":14811:14960   */\n      swap2\n      swap1\n      pop\n      jump\t// out\n        /* \"#utility.yul\":14966:15078   */\n    tag_452:\n        /* \"#utility.yul\":15019:15026   */\n      0x00\n        /* \"#utility.yul\":15048:15072   */\n      tag_454\n        /* \"#utility.yul\":15066:15071   */\n      dup3\n        /* \"#utility.yul\":15048:15072   */\n      tag_312\n      jump\t// in\n    tag_454:\n        /* \"#utility.yul\":15037:15072   */\n      swap1\n      pop\n        /* \"#utility.yul\":14966:15078   */\n      swap2\n      swap1\n      pop\n      jump\t// out\n        /* \"#utility.yul\":15084:15160   */\n    tag_332:\n        /* \"#utility.yul\":15120:15127   */\n      0x00\n        /* \"#utility.yul\":15149:15154   */\n      dup2\n        /* \"#utility.yul\":15138:15154   */\n      swap1\n      pop\n        /* \"#utility.yul\":15084:15160   */\n      swap2\n      swap1\n      pop\n      jump\t// out\n        /* \"#utility.yul\":15166:15292   */\n    tag_443:\n        /* \"#utility.yul\":15203:15210   */\n      0x00\n        /* \"#utility.yul\":15243:15285   */\n      0xffffffffffffffffffffffffffffffffffffffff\n        /* \"#utility.yul\":15236:15241   */\n      dup3\n        /* \"#utility.yul\":15232:15286   */\n      and\n        /* \"#utility.yul\":15221:15286   */\n      swap1\n      pop\n        /* \"#utility.yul\":15166:15292   */\n      swap2\n      swap1\n      pop\n      jump\t// out\n        /* \"#utility.yul\":15298:15375   */\n    tag_357:\n        /* \"#utility.yul\":15335:15342   */\n      0x00\n        /* \"#utility.yul\":15364:15369   */\n      dup2\n        /* \"#utility.yul\":15353:15369   */\n      swap1\n      pop\n        /* \"#utility.yul\":15298:15375   */\n      swap2\n      swap1\n      pop\n      jump\t// out\n        /* \"#utility.yul\":15381:15492   */\n    tag_320:\n        /* \"#utility.yul\":15430:15439   */\n      0x00\n        /* \"#utility.yul\":15463:15486   */\n      tag_459\n        /* \"#utility.yul\":15480:15485   */\n      dup3\n        /* \"#utility.yul\":15463:15486   */\n      tag_450\n      jump\t// in\n    tag_459:\n        /* \"#utility.yul\":15450:15486   */\n      swap1\n      pop\n        /* \"#utility.yul\":15381:15492   */\n      swap2\n      swap1\n      pop\n      jump\t// out\n        /* \"#utility.yul\":15498:15649   */\n    tag_324:\n        /* \"#utility.yul\":15573:15582   */\n      0x00\n        /* \"#utility.yul\":15606:15643   */\n      tag_461\n        /* \"#utility.yul\":15637:15642   */\n      dup3\n        /* \"#utility.yul\":15606:15643   */\n      tag_462\n      jump\t// in\n    tag_461:\n        /* \"#utility.yul\":15593:15643   */\n      swap1\n      pop\n        /* \"#utility.yul\":15498:15649   */\n      swap2\n      swap1\n      pop\n      jump\t// out\n        /* \"#utility.yul\":15655:15808   */\n    tag_328:\n        /* \"#utility.yul\":15732:15741   */\n      0x00\n        /* \"#utility.yul\":15765:15802   */\n      tag_464\n        /* \"#utility.yul\":15796:15801   */\n      dup3\n        /* \"#utility.yul\":15765:15802   */\n      tag_462\n      jump\t// in\n    tag_464:\n        /* \"#utility.yul\":15752:15802   */\n      swap1\n      pop\n        /* \"#utility.yul\":15655:15808   */\n      swap2\n      swap1\n      pop\n      jump\t// out\n        /* \"#utility.yul\":15814:15940   */\n    tag_462:\n        /* \"#utility.yul\":15864:15873   */\n      0x00\n        /* \"#utility.yul\":15897:15934   */\n      tag_466\n        /* \"#utility.yul\":15928:15933   */\n      dup3\n        /* \"#utility.yul\":15897:15934   */\n      tag_467\n      jump\t// in\n    tag_466:\n        /* \"#utility.yul\":15884:15934   */\n      swap1\n      pop\n        /* \"#utility.yul\":15814:15940   */\n      swap2\n      swap1\n      pop\n      jump\t// out\n        /* \"#utility.yul\":15946:16059   */\n    tag_467:\n        /* \"#utility.yul\":15996:16005   */\n      0x00\n        /* \"#utility.yul\":16029:16053   */\n      tag_469\n        /* \"#utility.yul\":16047:16052   */\n      dup3\n        /* \"#utility.yul\":16029:16053   */\n      tag_443\n      jump\t// in\n    tag_469:\n        /* \"#utility.yul\":16016:16053   */\n      swap1\n      pop\n        /* \"#utility.yul\":15946:16059   */\n      swap2\n      swap1\n      pop\n      jump\t// out\n        /* \"#utility.yul\":16065:16298   */\n    tag_116:\n        /* \"#utility.yul\":16104:16107   */\n      0x00\n        /* \"#utility.yul\":16127:16151   */\n      tag_471\n        /* \"#utility.yul\":16145:16150   */\n      dup3\n        /* \"#utility.yul\":16127:16151   */\n      tag_357\n      jump\t// in\n    tag_471:\n        /* \"#utility.yul\":16118:16151   */\n      swap2\n      pop\n        /* \"#utility.yul\":16173:16239   */\n      0xffffffffffffffffffffffffffffffffffffffffffffffffffffffffffffffff\n        /* \"#utility.yul\":16166:16171   */\n      dup3\n        /* \"#utility.yul\":16163:16240   */\n      eq\n        /* \"#utility.yul\":16160:16263   */\n      iszero\n      tag_472\n      jumpi\n        /* \"#utility.yul\":16243:16261   */\n      tag_473\n      tag_399\n      jump\t// in\n    tag_473:\n        /* \"#utility.yul\":16160:16263   */\n    tag_472:\n        /* \"#utility.yul\":16290:16291   */\n      0x01\n        /* \"#utility.yul\":16283:16288   */\n      dup3\n        /* \"#utility.yul\":16279:16292   */\n      add\n        /* \"#utility.yul\":16272:16292   */\n      swap1\n      pop\n        /* \"#utility.yul\":16065:16298   */\n      swap2\n      swap1\n      pop\n      jump\t// out\n        /* \"#utility.yul\":16304:16484   */\n    tag_399:\n        /* \"#utility.yul\":16352:16429   */\n      0x4e487b7100000000000000000000000000000000000000000000000000000000\n        /* \"#utility.yul\":16349:16350   */\n      0x00\n        /* \"#utility.yul\":16342:16430   */\n      mstore\n        /* \"#utility.yul\":16449:16453   */\n      0x11\n        /* \"#utility.yul\":16446:16447   */\n      0x04\n        /* \"#utility.yul\":16439:16454   */\n      mstore\n        /* \"#utility.yul\":16473:16477   */\n      0x24\n        /* \"#utility.yul\":16470:16471   */\n      0x00\n        /* \"#utility.yul\":16463:16478   */\n      revert\n        /* \"#utility.yul\":16490:16670   */\n    tag_412:\n        /* \"#utility.yul\":16538:16615   */\n      0x4e487b7100000000000000000000000000000000000000000000000000000000\n        /* \"#utility.yul\":16535:16536   */\n      0x00\n        /* \"#utility.yul\":16528:16616   */\n      mstore\n        /* \"#utility.yul\":16635:16639   */\n      0x12\n        /* \"#utility.yul\":16632:16633   */\n      0x04\n        /* \"#utility.yul\":16625:16640   */\n      mstore\n        /* \"#utility.yul\":16659:16663   */\n      0x24\n        /* \"#utility.yul\":16656:16657   */\n      0x00\n        /* \"#utility.yul\":16649:16664   */\n      revert\n        /* \"#utility.yul\":16799:16916   */\n    tag_282:\n        /* \"#utility.yul\":16908:16909   */\n      0x00\n        /* \"#utility.yul\":16905:16906   */\n      dup1\n        /* \"#utility.yul\":16898:16910   */\n      revert\n        /* \"#utility.yul\":16922:17099   */\n    tag_338:\n        /* \"#utility.yul\":17062:17091   */\n      0x5468616e6b7320746f206465706f736974206d6f726520637573640000000000\n        /* \"#utility.yul\":17058:17059   */\n      0x00\n        /* \"#utility.yul\":17050:17056   */\n      dup3\n        /* \"#utility.yul\":17046:17060   */\n      add\n        /* \"#utility.yul\":17039:17092   */\n      mstore\n        /* \"#utility.yul\":16922:17099   */\n      pop\n      jump\t// out\n        /* \"#utility.yul\":17105:17285   */\n    tag_343:\n        /* \"#utility.yul\":17245:17277   */\n      0x796f75722062616c616e6365206973206e6f742073756666696369656e740000\n        /* \"#utility.yul\":17241:17242   */\n      0x00\n        /* \"#utility.yul\":17233:17239   */\n      dup3\n        /* \"#utility.yul\":17229:17243   */\n      add\n        /* \"#utility.yul\":17222:17278   */\n      mstore\n        /* \"#utility.yul\":17105:17285   */\n      pop\n      jump\t// out\n        /* \"#utility.yul\":17291:17456   */\n    tag_348:\n        /* \"#utility.yul\":17431:17448   */\n      0x6e6f742073756666696369656e74200000000000000000000000000000000000\n        /* \"#utility.yul\":17427:17428   */\n      0x00\n        /* \"#utility.yul\":17419:17425   */\n      dup3\n        /* \"#utility.yul\":17415:17429   */\n      add\n        /* \"#utility.yul\":17408:17449   */\n      mstore\n        /* \"#utility.yul\":17291:17456   */\n      pop\n      jump\t// out\n        /* \"#utility.yul\":17462:17682   */\n    tag_353:\n        /* \"#utility.yul\":17602:17636   */\n      0x706c656173652073656e642063656c6f20616d6f756e74203e3d203230205553\n        /* \"#utility.yul\":17598:17599   */\n      0x00\n        /* \"#utility.yul\":17590:17596   */\n      dup3\n        /* \"#utility.yul\":17586:17600   */\n      add\n        /* \"#utility.yul\":17579:17637   */\n      mstore\n        /* \"#utility.yul\":17671:17674   */\n      0x4400000000000000000000000000000000000000000000000000000000000000\n        /* \"#utility.yul\":17666:17668   */\n      0x20\n        /* \"#utility.yul\":17658:17664   */\n      dup3\n        /* \"#utility.yul\":17654:17669   */\n      add\n        /* \"#utility.yul\":17647:17675   */\n      mstore\n        /* \"#utility.yul\":17462:17682   */\n      pop\n      jump\t// out\n        /* \"#utility.yul\":17688:17810   */\n    tag_251:\n        /* \"#utility.yul\":17761:17785   */\n      tag_484\n        /* \"#utility.yul\":17779:17784   */\n      dup2\n        /* \"#utility.yul\":17761:17785   */\n      tag_312\n      jump\t// in\n    tag_484:\n        /* \"#utility.yul\":17754:17759   */\n      dup2\n        /* \"#utility.yul\":17751:17786   */\n      eq\n        /* \"#utility.yul\":17741:17804   */\n      tag_485\n      jumpi\n        /* \"#utility.yul\":17800:17801   */\n      0x00\n        /* \"#utility.yul\":17797:17798   */\n      dup1\n        /* \"#utility.yul\":17790:17802   */\n      revert\n        /* \"#utility.yul\":17741:17804   */\n    tag_485:\n        /* \"#utility.yul\":17688:17810   */\n      pop\n      jump\t// out\n        /* \"#utility.yul\":17816:17954   */\n    tag_255:\n        /* \"#utility.yul\":17897:17929   */\n      tag_487\n        /* \"#utility.yul\":17923:17928   */\n      dup2\n        /* \"#utility.yul\":17897:17929   */\n      tag_444\n      jump\t// in\n    tag_487:\n        /* \"#utility.yul\":17890:17895   */\n      dup2\n        /* \"#utility.yul\":17887:17930   */\n      eq\n        /* \"#utility.yul\":17877:17948   */\n      tag_488\n      jumpi\n        /* \"#utility.yul\":17944:17945   */\n      0x00\n        /* \"#utility.yul\":17941:17942   */\n      dup1\n        /* \"#utility.yul\":17934:17946   */\n      revert\n        /* \"#utility.yul\":17877:17948   */\n    tag_488:\n        /* \"#utility.yul\":17816:17954   */\n      pop\n      jump\t// out\n        /* \"#utility.yul\":17960:18076   */\n    tag_259:\n        /* \"#utility.yul\":18030:18051   */\n      tag_490\n        /* \"#utility.yul\":18045:18050   */\n      dup2\n        /* \"#utility.yul\":18030:18051   */\n      tag_316\n      jump\t// in\n    tag_490:\n        /* \"#utility.yul\":18023:18028   */\n      dup2\n        /* \"#utility.yul\":18020:18052   */\n      eq\n        /* \"#utility.yul\":18010:18070   */\n      tag_491\n      jumpi\n        /* \"#utility.yul\":18066:18067   */\n      0x00\n        /* \"#utility.yul\":18063:18064   */\n      dup1\n        /* \"#utility.yul\":18056:18068   */\n      revert\n        /* \"#utility.yul\":18010:18070   */\n    tag_491:\n        /* \"#utility.yul\":17960:18076   */\n      pop\n      jump\t// out\n        /* \"#utility.yul\":18082:18204   */\n    tag_263:\n        /* \"#utility.yul\":18155:18179   */\n      tag_493\n        /* \"#utility.yul\":18173:18178   */\n      dup2\n        /* \"#utility.yul\":18155:18179   */\n      tag_448\n      jump\t// in\n    tag_493:\n        /* \"#utility.yul\":18148:18153   */\n      dup2\n        /* \"#utility.yul\":18145:18180   */\n      eq\n        /* \"#utility.yul\":18135:18198   */\n      tag_494\n      jumpi\n        /* \"#utility.yul\":18194:18195   */\n      0x00\n        /* \"#utility.yul\":18191:18192   */\n      dup1\n        /* \"#utility.yul\":18184:18196   */\n      revert\n        /* \"#utility.yul\":18135:18198   */\n    tag_494:\n        /* \"#utility.yul\":18082:18204   */\n      pop\n      jump\t// out\n        /* \"#utility.yul\":18210:18364   */\n    tag_267:\n        /* \"#utility.yul\":18299:18339   */\n      tag_496\n        /* \"#utility.yul\":18333:18338   */\n      dup2\n        /* \"#utility.yul\":18299:18339   */\n      tag_452\n      jump\t// in\n    tag_496:\n        /* \"#utility.yul\":18292:18297   */\n      dup2\n        /* \"#utility.yul\":18289:18340   */\n      eq\n        /* \"#utility.yul\":18279:18358   */\n      tag_497\n      jumpi\n        /* \"#utility.yul\":18354:18355   */\n      0x00\n        /* \"#utility.yul\":18351:18352   */\n      dup1\n        /* \"#utility.yul\":18344:18356   */\n      revert\n        /* \"#utility.yul\":18279:18358   */\n    tag_497:\n        /* \"#utility.yul\":18210:18364   */\n      pop\n      jump\t// out\n        /* \"#utility.yul\":18370:18490   */\n    tag_271:\n        /* \"#utility.yul\":18442:18465   */\n      tag_499\n        /* \"#utility.yul\":18459:18464   */\n      dup2\n        /* \"#utility.yul\":18442:18465   */\n      tag_332\n      jump\t// in\n    tag_499:\n        /* \"#utility.yul\":18435:18440   */\n      dup2\n        /* \"#utility.yul\":18432:18466   */\n      eq\n        /* \"#utility.yul\":18422:18484   */\n      tag_500\n      jumpi\n        /* \"#utility.yul\":18480:18481   */\n      0x00\n        /* \"#utility.yul\":18477:18478   */\n      dup1\n        /* \"#utility.yul\":18470:18482   */\n      revert\n        /* \"#utility.yul\":18422:18484   */\n    tag_500:\n        /* \"#utility.yul\":18370:18490   */\n      pop\n      jump\t// out\n        /* \"#utility.yul\":18496:18618   */\n    tag_275:\n        /* \"#utility.yul\":18569:18593   */\n      tag_502\n        /* \"#utility.yul\":18587:18592   */\n      dup2\n        /* \"#utility.yul\":18569:18593   */\n      tag_357\n      jump\t// in\n    tag_502:\n        /* \"#utility.yul\":18562:18567   */\n      dup2\n        /* \"#utility.yul\":18559:18594   */\n      eq\n        /* \"#utility.yul\":18549:18612   */\n      tag_503\n      jumpi\n        /* \"#utility.yul\":18608:18609   */\n      0x00\n        /* \"#utility.yul\":18605:18606   */\n      dup1\n        /* \"#utility.yul\":18598:18610   */\n      revert\n        /* \"#utility.yul\":18549:18612   */\n    tag_503:\n        /* \"#utility.yul\":18496:18618   */\n      pop\n      jump\t// out\n\n    auxdata: 0xa26469706673582212205abbf25fd8f5d7e4900e1696818a5338bcec618e0647abcd2ebf39c20fe3faf764736f6c63430008070033\n}\n",
				"bytecode": {
					"linkReferences": {},
					"object": "60806040526000600a553480156200001657600080fd5b5033600c60006101000a81548173ffffffffffffffffffffffffffffffffffffffff021916908373ffffffffffffffffffffffffffffffffffffffff160217905550736f8a7e2bbc1edb8782145cd1089251f6e2c738ae6000806101000a81548173ffffffffffffffffffffffffffffffffffffffff021916908373ffffffffffffffffffffffffffffffffffffffff160217905550620000bc6200011760201b60201c565b73874069fa1eb16d44d622f2e0ca25eea172369bc1600560006101000a81548173ffffffffffffffffffffffffffffffffffffffff021916908373ffffffffffffffffffffffffffffffffffffffff1602179055506200036a565b60008060009054906101000a900473ffffffffffffffffffffffffffffffffffffffff1673ffffffffffffffffffffffffffffffffffffffff16638c0adf62639ed884be60e01b6040518263ffffffff1660e01b81526004016200017c9190620002a6565b60206040518083038186803b1580156200019557600080fd5b505afa158015620001aa573d6000803e3d6000fd5b505050506040513d601f19601f82011682018060405250810190620001d0919062000263565b9050600073ffffffffffffffffffffffffffffffffffffffff168173ffffffffffffffffffffffffffffffffffffffff1614620002495780600260006101000a81548173ffffffffffffffffffffffffffffffffffffffff021916908373ffffffffffffffffffffffffffffffffffffffff1602179055505b50565b6000815190506200025d8162000350565b92915050565b6000602082840312156200027c576200027b6200034b565b5b60006200028c848285016200024c565b91505092915050565b620002a08162000337565b82525050565b6000602082019050620002bd600083018462000295565b92915050565b6000620002d08262000317565b9050919050565b60007fffffffff0000000000000000000000000000000000000000000000000000000082169050919050565b60006200031082620002c3565b9050919050565b600073ffffffffffffffffffffffffffffffffffffffff82169050919050565b60006200034482620002d7565b9050919050565b600080fd5b6200035b8162000303565b81146200036757600080fd5b50565b612c36806200037a6000396000f3fe6080604052600436106100f35760003560e01c806380ad10df1161008a578063b1ddf38611610059578063b1ddf3861461031d578063b447b0a51461034e578063c8525f8114610379578063df3d4e32146103a4576100f3565b806380ad10df1461023e578063893c4a841461027e57806391cfa8c2146102af578063aea5da5b146102df576100f3565b806335178e87116100c657806335178e871461018257806343d37940146101995780634fc87f24146101d65780637f28ee3414610201576100f3565b806309a61767146100f85780630fd19c15146101295780632986c0e51461014057806332eb658c1461016b575b600080fd5b610112600480360381019061010d919061219d565b6103cf565b604051610120929190612511565b60405180910390f35b34801561013557600080fd5b5061013e61094d565b005b34801561014c57600080fd5b50610155610a7b565b60405161016291906124f6565b60405180910390f35b34801561017757600080fd5b50610180610a81565b005b34801561018e57600080fd5b50610197610baf565b005b3480156101a557600080fd5b506101c060048036038101906101bb9190612170565b610cdd565b6040516101cd919061240a565b60405180910390f35b3480156101e257600080fd5b506101eb610d3c565b6040516101f8919061245b565b60405180910390f35b34801561020d57600080fd5b50610228600480360381019061022391906121ca565b610d60565b604051610235919061240a565b60405180910390f35b34801561024a57600080fd5b5061026560048036038101906102609190612170565b610fd5565b604051610275949392919061253a565b60405180910390f35b6102986004803603810190610293919061219d565b611025565b6040516102a692919061257f565b60405180910390f35b6102c960048036038101906102c4919061219d565b61147a565b6040516102d6919061240a565b60405180910390f35b3480156102eb57600080fd5b5061030660048036038101906103019190612170565b611ad3565b60405161031492919061257f565b60405180910390f35b6103376004803603810190610332919061219d565b611af7565b60405161034592919061257f565b60405180910390f35b34801561035a57600080fd5b50610363611fa4565b6040516103709190612440565b60405180910390f35b34801561038557600080fd5b5061038e611fca565b60405161039b9190612440565b60405180910390f35b3480156103b057600080fd5b506103b9611ff0565b6040516103c69190612440565b60405180910390f35b600080600c60149054906101000a900460ff16156103ec57600080fd5b6001600c60146101000a81548160ff021916908315150217905550343373ffffffffffffffffffffffffffffffffffffffff16311015610461576040517f08c379a000000000000000000000000000000000000000000000000000000000815260040161045890612496565b60405180910390fd5b60008061046c612016565b8092508193505050600082600161048391906126a3565b3412156104c5576040517f08c379a00000000000000000000000000000000000000000000000000000000081526004016104bc906124d6565b60405180910390fd5b600083346104d3919061273e565b9050600115156104e233610cdd565b151514156106a15780600b60003373ffffffffffffffffffffffffffffffffffffffff1673ffffffffffffffffffffffffffffffffffffffff168152602001908152602001600020600101600082825461053c91906125b9565b92505081905550600b60003373ffffffffffffffffffffffffffffffffffffffff1673ffffffffffffffffffffffffffffffffffffffff1681526020019081526020016000206002016000815480929190610596906129e9565b919050555034600460008973ffffffffffffffffffffffffffffffffffffffff1673ffffffffffffffffffffffffffffffffffffffff16815260200190815260200160002060000160008282546105ed919061264d565b92505081905550600460008873ffffffffffffffffffffffffffffffffffffffff1673ffffffffffffffffffffffffffffffffffffffff1681526020019081526020016000206000015491508673ffffffffffffffffffffffffffffffffffffffff163373ffffffffffffffffffffffffffffffffffffffff167fadbbbbc8c9e65e88422d75c3d3cb93f41a5d520a2ca71c815348334de8c49121344260405161069892919061257f565b60405180910390a35b600a60008154809291906106b4906129e9565b9190505550600a54600b60003373ffffffffffffffffffffffffffffffffffffffff1673ffffffffffffffffffffffffffffffffffffffff1681526020019081526020016000206000018190555080600b60003373ffffffffffffffffffffffffffffffffffffffff1673ffffffffffffffffffffffffffffffffffffffff168152602001908152602001600020600101600082825461075491906125b9565b9250508190555033600b60003373ffffffffffffffffffffffffffffffffffffffff1673ffffffffffffffffffffffffffffffffffffffff16815260200190815260200160002060030160006101000a81548173ffffffffffffffffffffffffffffffffffffffff021916908373ffffffffffffffffffffffffffffffffffffffff1602179055506001600b60003373ffffffffffffffffffffffffffffffffffffffff1673ffffffffffffffffffffffffffffffffffffffff1681526020019081526020016000206002018190555034600460008973ffffffffffffffffffffffffffffffffffffffff1673ffffffffffffffffffffffffffffffffffffffff1681526020019081526020016000206000016000828254610876919061264d565b92505081905550600460008873ffffffffffffffffffffffffffffffffffffffff1673ffffffffffffffffffffffffffffffffffffffff1681526020019081526020016000206000015491508673ffffffffffffffffffffffffffffffffffffffff163373ffffffffffffffffffffffffffffffffffffffff167fadbbbbc8c9e65e88422d75c3d3cb93f41a5d520a2ca71c815348334de8c49121344260405161092192919061257f565b60405180910390a3505050506000600c60146101000a81548160ff021916908315150217905550915091565b60008060009054906101000a900473ffffffffffffffffffffffffffffffffffffffff1673ffffffffffffffffffffffffffffffffffffffff16638c0adf62633d15f70160e01b6040518263ffffffff1660e01b81526004016109b09190612425565b60206040518083038186803b1580156109c857600080fd5b505afa1580156109dc573d6000803e3d6000fd5b505050506040513d601f19601f82011682018060405250810190610a00919061224a565b9050600073ffffffffffffffffffffffffffffffffffffffff168173ffffffffffffffffffffffffffffffffffffffff1614610a785780600360006101000a81548173ffffffffffffffffffffffffffffffffffffffff021916908373ffffffffffffffffffffffffffffffffffffffff1602179055505b50565b600a5481565b60008060009054906101000a900473ffffffffffffffffffffffffffffffffffffffff1673ffffffffffffffffffffffffffffffffffffffff16638c0adf62639ed884be60e01b6040518263ffffffff1660e01b8152600401610ae49190612425565b60206040518083038186803b158015610afc57600080fd5b505afa158015610b10573d6000803e3d6000fd5b505050506040513d601f19601f82011682018060405250810190610b34919061224a565b9050600073ffffffffffffffffffffffffffffffffffffffff168173ffffffffffffffffffffffffffffffffffffffff1614610bac5780600260006101000a81548173ffffffffffffffffffffffffffffffffffffffff021916908373ffffffffffffffffffffffffffffffffffffffff1602179055505b50565b60008060009054906101000a900473ffffffffffffffffffffffffffffffffffffffff1673ffffffffffffffffffffffffffffffffffffffff16638c0adf626321a7982160e01b6040518263ffffffff1660e01b8152600401610c129190612425565b60206040518083038186803b158015610c2a57600080fd5b505afa158015610c3e573d6000803e3d6000fd5b505050506040513d601f19601f82011682018060405250810190610c62919061224a565b9050600073ffffffffffffffffffffffffffffffffffffffff168173ffffffffffffffffffffffffffffffffffffffff1614610cda5780600160006101000a81548173ffffffffffffffffffffffffffffffffffffffff021916908373ffffffffffffffffffffffffffffffffffffffff1602179055505b50565b600080600b60008473ffffffffffffffffffffffffffffffffffffffff1673ffffffffffffffffffffffffffffffffffffffff168152602001908152602001600020600001541115610d325760019050610d37565b600090505b919050565b60008054906101000a900473ffffffffffffffffffffffffffffffffffffffff1681565b6000600c60009054906101000a900473ffffffffffffffffffffffffffffffffffffffff1673ffffffffffffffffffffffffffffffffffffffff163373ffffffffffffffffffffffffffffffffffffffff1614610dbc57600080fd5b600080610dc7612016565b8092508193505050600a6000815480929190610de2906129e9565b9190505550600a54600b60008873ffffffffffffffffffffffffffffffffffffffff1673ffffffffffffffffffffffffffffffffffffffff168152602001908152602001600020600001819055508184610e3c919061273e565b600b60008873ffffffffffffffffffffffffffffffffffffffff1673ffffffffffffffffffffffffffffffffffffffff1681526020019081526020016000206001016000828254610e8d91906125b9565b9250508190555085600b60008873ffffffffffffffffffffffffffffffffffffffff1673ffffffffffffffffffffffffffffffffffffffff16815260200190815260200160002060030160006101000a81548173ffffffffffffffffffffffffffffffffffffffff021916908373ffffffffffffffffffffffffffffffffffffffff1602179055506001600b60008873ffffffffffffffffffffffffffffffffffffffff1673ffffffffffffffffffffffffffffffffffffffff1681526020019081526020016000206002016000828254610f68919061264d565b9250508190555083600460008773ffffffffffffffffffffffffffffffffffffffff1673ffffffffffffffffffffffffffffffffffffffff1681526020019081526020016000206001016000828254610fc1919061264d565b925050819055506001925050509392505050565b600b6020528060005260406000206000915090508060000154908060010154908060020154908060030160009054906101000a900473ffffffffffffffffffffffffffffffffffffffff16905084565b600080600c60149054906101000a900460ff161561104257600080fd5b6001600c60146101000a81548160ff02191690831515021790555034600460008573ffffffffffffffffffffffffffffffffffffffff1673ffffffffffffffffffffffffffffffffffffffff1681526020019081526020016000206000015410156110e2576040517f08c379a00000000000000000000000000000000000000000000000000000000081526004016110d9906124b6565b60405180910390fd5b6000806110ed612016565b915091506000600c83600460008973ffffffffffffffffffffffffffffffffffffffff1673ffffffffffffffffffffffffffffffffffffffff16815260200190815260200160002060010154611143919061270d565b600460008973ffffffffffffffffffffffffffffffffffffffff1673ffffffffffffffffffffffffffffffffffffffff16815260200190815260200160002060000154611190919061264d565b61119a919061270d565b90508573ffffffffffffffffffffffffffffffffffffffff166108fc829081150290604051600060405180830381858888f193505050501580156111e2573d6000803e3d6000fd5b506000600460008873ffffffffffffffffffffffffffffffffffffffff1673ffffffffffffffffffffffffffffffffffffffff16815260200190815260200160002060000154141561128c5780600460008873ffffffffffffffffffffffffffffffffffffffff1673ffffffffffffffffffffffffffffffffffffffff168152602001908152602001600020600101600082825461128091906128af565b92505081905550611401565b6000600460008873ffffffffffffffffffffffffffffffffffffffff1673ffffffffffffffffffffffffffffffffffffffff1681526020019081526020016000206001015414156113355780600460008873ffffffffffffffffffffffffffffffffffffffff1673ffffffffffffffffffffffffffffffffffffffff168152602001908152602001600020600001600082825461132991906128af565b92505081905550611400565b600281611342919061270d565b600460008873ffffffffffffffffffffffffffffffffffffffff1673ffffffffffffffffffffffffffffffffffffffff168152602001908152602001600020600001600082825461139391906128af565b925050819055506002816113a7919061270d565b600460008873ffffffffffffffffffffffffffffffffffffffff1673ffffffffffffffffffffffffffffffffffffffff16815260200190815260200160002060010160008282546113f891906128af565b925050819055505b5b8573ffffffffffffffffffffffffffffffffffffffff167f9cd516bc314ca50bb8f1f5602d3f202cdcbf17b89da33dd13c3909d5d3c00a32824260405161144992919061257f565b60405180910390a28042945094505050506000600c60146101000a81548160ff021916908315150217905550915091565b6000600c60149054906101000a900460ff161561149657600080fd5b6001600c60146101000a81548160ff021916908315150217905550343373ffffffffffffffffffffffffffffffffffffffff1631101561150b576040517f08c379a000000000000000000000000000000000000000000000000000000000815260040161150290612496565b60405180910390fd5b600134101561154f576040517f08c379a000000000000000000000000000000000000000000000000000000000815260040161154690612476565b60405180910390fd5b60008061155a612016565b915091506001151561156b33610cdd565b151514156117ac57813461157f919061273e565b600b60003373ffffffffffffffffffffffffffffffffffffffff1673ffffffffffffffffffffffffffffffffffffffff16815260200190815260200160002060010160008282546115d091906125b9565b92505081905550600b60003373ffffffffffffffffffffffffffffffffffffffff1673ffffffffffffffffffffffffffffffffffffffff168152602001908152602001600020600201600081548092919061162a906129e9565b9190505550600560009054906101000a900473ffffffffffffffffffffffffffffffffffffffff1673ffffffffffffffffffffffffffffffffffffffff166323b872dd3330346040518463ffffffff1660e01b815260040161168e939291906123d3565b602060405180830381600087803b1580156116a857600080fd5b505af11580156116bc573d6000803e3d6000fd5b505050506040513d601f19601f820116820180604052508101906116e0919061221d565b5034600460008673ffffffffffffffffffffffffffffffffffffffff1673ffffffffffffffffffffffffffffffffffffffff1681526020019081526020016000206001016000828254611733919061264d565b925050819055508373ffffffffffffffffffffffffffffffffffffffff163373ffffffffffffffffffffffffffffffffffffffff167fadbbbbc8c9e65e88422d75c3d3cb93f41a5d520a2ca71c815348334de8c49121344260405161179992919061257f565b60405180910390a3600192505050611ab3565b600a60008154809291906117bf906129e9565b9190505550600a54600b60003373ffffffffffffffffffffffffffffffffffffffff1673ffffffffffffffffffffffffffffffffffffffff168152602001908152602001600020600001819055508134611819919061273e565b600b60003373ffffffffffffffffffffffffffffffffffffffff1673ffffffffffffffffffffffffffffffffffffffff168152602001908152602001600020600101600082825461186a91906125b9565b9250508190555033600b60003373ffffffffffffffffffffffffffffffffffffffff1673ffffffffffffffffffffffffffffffffffffffff16815260200190815260200160002060030160006101000a81548173ffffffffffffffffffffffffffffffffffffffff021916908373ffffffffffffffffffffffffffffffffffffffff1602179055506001600b60003373ffffffffffffffffffffffffffffffffffffffff1673ffffffffffffffffffffffffffffffffffffffff16815260200190815260200160002060020181905550600560009054906101000a900473ffffffffffffffffffffffffffffffffffffffff1673ffffffffffffffffffffffffffffffffffffffff166323b872dd3330346040518463ffffffff1660e01b8152600401611999939291906123d3565b602060405180830381600087803b1580156119b357600080fd5b505af11580156119c7573d6000803e3d6000fd5b505050506040513d601f19601f820116820180604052508101906119eb919061221d565b5034600460008673ffffffffffffffffffffffffffffffffffffffff1673ffffffffffffffffffffffffffffffffffffffff1681526020019081526020016000206001016000828254611a3e919061264d565b925050819055508373ffffffffffffffffffffffffffffffffffffffff163373ffffffffffffffffffffffffffffffffffffffff167fadbbbbc8c9e65e88422d75c3d3cb93f41a5d520a2ca71c815348334de8c491213442604051611aa492919061257f565b60405180910390a36001925050505b6000600c60146101000a81548160ff021916908315150217905550919050565b60046020528060005260406000206000915090508060000154908060010154905082565b600080600c60149054906101000a900460ff1615611b1457600080fd5b6001600c60146101000a81548160ff021916908315150217905550600080611b3a612016565b915091506000600c600460008873ffffffffffffffffffffffffffffffffffffffff1673ffffffffffffffffffffffffffffffffffffffff1681526020019081526020016000206001015484600460008a73ffffffffffffffffffffffffffffffffffffffff1673ffffffffffffffffffffffffffffffffffffffff16815260200190815260200160002060000154611bd39190612855565b611bdd919061264d565b611be7919061270d565b905080600460008873ffffffffffffffffffffffffffffffffffffffff1673ffffffffffffffffffffffffffffffffffffffff1681526020019081526020016000206001015411611c6d576040517f08c379a0000000000000000000000000000000000000000000000000000000008152600401611c64906124b6565b60405180910390fd5b8573ffffffffffffffffffffffffffffffffffffffff166108fc829081150290604051600060405180830381858888f19350505050158015611cb3573d6000803e3d6000fd5b506000600460008873ffffffffffffffffffffffffffffffffffffffff1673ffffffffffffffffffffffffffffffffffffffff168152602001908152602001600020600001541415611d5d5780600460008873ffffffffffffffffffffffffffffffffffffffff1673ffffffffffffffffffffffffffffffffffffffff1681526020019081526020016000206001016000828254611d5191906128af565b92505081905550611ed2565b6000600460008873ffffffffffffffffffffffffffffffffffffffff1673ffffffffffffffffffffffffffffffffffffffff168152602001908152602001600020600101541415611e065780600460008873ffffffffffffffffffffffffffffffffffffffff1673ffffffffffffffffffffffffffffffffffffffff1681526020019081526020016000206000016000828254611dfa91906128af565b92505081905550611ed1565b600281611e13919061270d565b600460008873ffffffffffffffffffffffffffffffffffffffff1673ffffffffffffffffffffffffffffffffffffffff1681526020019081526020016000206000016000828254611e6491906128af565b92505081905550600281611e78919061270d565b600460008873ffffffffffffffffffffffffffffffffffffffff1673ffffffffffffffffffffffffffffffffffffffff1681526020019081526020016000206001016000828254611ec991906128af565b925050819055505b5b80600460008873ffffffffffffffffffffffffffffffffffffffff1673ffffffffffffffffffffffffffffffffffffffff1681526020019081526020016000206000016000828254611f2491906128af565b925050819055508573ffffffffffffffffffffffffffffffffffffffff167f9cd516bc314ca50bb8f1f5602d3f202cdcbf17b89da33dd13c3909d5d3c00a328242604051611f7392919061257f565b60405180910390a28042945094505050506000600c60146101000a81548160ff021916908315150217905550915091565b600360009054906101000a900473ffffffffffffffffffffffffffffffffffffffff1681565b600160009054906101000a900473ffffffffffffffffffffffffffffffffffffffff1681565b600260009054906101000a900473ffffffffffffffffffffffffffffffffffffffff1681565b600080600260009054906101000a900473ffffffffffffffffffffffffffffffffffffffff1673ffffffffffffffffffffffffffffffffffffffff1663431838346040518163ffffffff1660e01b815260040160806040518083038186803b15801561208157600080fd5b505afa158015612095573d6000803e3d6000fd5b505050506040513d601f19601f820116820180604052508101906120b99190612277565b90505080925081935050509091565b6000813590506120d781612b5f565b92915050565b6000813590506120ec81612b76565b92915050565b60008151905061210181612b8d565b92915050565b60008151905061211681612ba4565b92915050565b60008151905061212b81612bbb565b92915050565b60008151905061214081612bd2565b92915050565b60008135905061215581612be9565b92915050565b60008151905061216a81612be9565b92915050565b60006020828403121561218657612185612a90565b5b6000612194848285016120c8565b91505092915050565b6000602082840312156121b3576121b2612a90565b5b60006121c1848285016120dd565b91505092915050565b6000806000606084860312156121e3576121e2612a90565b5b60006121f1868287016120c8565b9350506020612202868287016120c8565b925050604061221386828701612146565b9150509250925092565b60006020828403121561223357612232612a90565b5b6000612241848285016120f2565b91505092915050565b6000602082840312156122605761225f612a90565b5b600061226e8482850161211c565b91505092915050565b6000806000806080858703121561229157612290612a90565b5b600061229f87828801612131565b94505060206122b08782880161215b565b93505060406122c187828801612107565b92505060606122d28782880161215b565b91505092959194509250565b6122e7816128e3565b82525050565b6122f681612907565b82525050565b6123058161298f565b82525050565b612314816129a1565b82525050565b612323816129b3565b82525050565b6123328161295b565b82525050565b6000612345601b836125a8565b915061235082612a95565b602082019050919050565b6000612368601e836125a8565b915061237382612abe565b602082019050919050565b600061238b600f836125a8565b915061239682612ae7565b602082019050919050565b60006123ae6021836125a8565b91506123b982612b10565b604082019050919050565b6123cd81612985565b82525050565b60006060820190506123e860008301866122de565b6123f560208301856122de565b61240260408301846123c4565b949350505050565b600060208201905061241f60008301846122ed565b92915050565b600060208201905061243a60008301846122fc565b92915050565b6000602082019050612455600083018461230b565b92915050565b6000602082019050612470600083018461231a565b92915050565b6000602082019050818103600083015261248f81612338565b9050919050565b600060208201905081810360008301526124af8161235b565b9050919050565b600060208201905081810360008301526124cf8161237e565b9050919050565b600060208201905081810360008301526124ef816123a1565b9050919050565b600060208201905061250b60008301846123c4565b92915050565b600060408201905061252660008301856123c4565b6125336020830184612329565b9392505050565b600060808201905061254f60008301876123c4565b61255c6020830186612329565b61256960408301856123c4565b61257660608301846122de565b95945050505050565b600060408201905061259460008301856123c4565b6125a160208301846123c4565b9392505050565b600082825260208201905092915050565b60006125c48261295b565b91506125cf8361295b565b9250817f7fffffffffffffffffffffffffffffffffffffffffffffffffffffffffffffff0383136000831215161561260a57612609612a32565b5b817f800000000000000000000000000000000000000000000000000000000000000003831260008312161561264257612641612a32565b5b828201905092915050565b600061265882612985565b915061266383612985565b9250827fffffffffffffffffffffffffffffffffffffffffffffffffffffffffffffffff0382111561269857612697612a32565b5b828201905092915050565b60006126ae8261295b565b91506126b98361295b565b9250826126c9576126c8612a61565b5b600160000383147f80000000000000000000000000000000000000000000000000000000000000008314161561270257612701612a32565b5b828205905092915050565b600061271882612985565b915061272383612985565b92508261273357612732612a61565b5b828204905092915050565b60006127498261295b565b91506127548361295b565b9250827f7fffffffffffffffffffffffffffffffffffffffffffffffffffffffffffffff048211600084136000841316161561279357612792612a32565b5b817f800000000000000000000000000000000000000000000000000000000000000005831260008412600084131616156127d0576127cf612a32565b5b827f8000000000000000000000000000000000000000000000000000000000000000058212600084136000841216161561280d5761280c612a32565b5b827f7fffffffffffffffffffffffffffffffffffffffffffffffffffffffffffffff058212600084126000841216161561284a57612849612a32565b5b828202905092915050565b600061286082612985565b915061286b83612985565b9250817fffffffffffffffffffffffffffffffffffffffffffffffffffffffffffffffff04831182151516156128a4576128a3612a32565b5b828202905092915050565b60006128ba82612985565b91506128c583612985565b9250828210156128d8576128d7612a32565b5b828203905092915050565b60006128ee82612965565b9050919050565b600061290082612965565b9050919050565b60008115159050919050565b6000819050919050565b60007fffffffff0000000000000000000000000000000000000000000000000000000082169050919050565b6000612954826128e3565b9050919050565b6000819050919050565b600073ffffffffffffffffffffffffffffffffffffffff82169050919050565b6000819050919050565b600061299a8261291d565b9050919050565b60006129ac826129c5565b9050919050565b60006129be826129c5565b9050919050565b60006129d0826129d7565b9050919050565b60006129e282612965565b9050919050565b60006129f482612985565b91507fffffffffffffffffffffffffffffffffffffffffffffffffffffffffffffffff821415612a2757612a26612a32565b5b600182019050919050565b7f4e487b7100000000000000000000000000000000000000000000000000000000600052601160045260246000fd5b7f4e487b7100000000000000000000000000000000000000000000000000000000600052601260045260246000fd5b600080fd5b7f5468616e6b7320746f206465706f736974206d6f726520637573640000000000600082015250565b7f796f75722062616c616e6365206973206e6f742073756666696369656e740000600082015250565b7f6e6f742073756666696369656e74200000000000000000000000000000000000600082015250565b7f706c656173652073656e642063656c6f20616d6f756e74203e3d20323020555360008201527f4400000000000000000000000000000000000000000000000000000000000000602082015250565b612b68816128e3565b8114612b7357600080fd5b50565b612b7f816128f5565b8114612b8a57600080fd5b50565b612b9681612907565b8114612ba157600080fd5b50565b612bad81612913565b8114612bb857600080fd5b50565b612bc481612949565b8114612bcf57600080fd5b50565b612bdb8161295b565b8114612be657600080fd5b50565b612bf281612985565b8114612bfd57600080fd5b5056fea26469706673582212205abbf25fd8f5d7e4900e1696818a5338bcec618e0647abcd2ebf39c20fe3faf764736f6c63430008070033",
					"opcodes": "PUSH1 0x80 PUSH1 0x40 MSTORE PUSH1 0x0 PUSH1 0xA SSTORE CALLVALUE DUP1 ISZERO PUSH3 0x16 JUMPI PUSH1 0x0 DUP1 REVERT JUMPDEST POP CALLER PUSH1 0xC PUSH1 0x0 PUSH2 0x100 EXP DUP2 SLOAD DUP2 PUSH20 0xFFFFFFFFFFFFFFFFFFFFFFFFFFFFFFFFFFFFFFFF MUL NOT AND SWAP1 DUP4 PUSH20 0xFFFFFFFFFFFFFFFFFFFFFFFFFFFFFFFFFFFFFFFF AND MUL OR SWAP1 SSTORE POP PUSH20 0x6F8A7E2BBC1EDB8782145CD1089251F6E2C738AE PUSH1 0x0 DUP1 PUSH2 0x100 EXP DUP2 SLOAD DUP2 PUSH20 0xFFFFFFFFFFFFFFFFFFFFFFFFFFFFFFFFFFFFFFFF MUL NOT AND SWAP1 DUP4 PUSH20 0xFFFFFFFFFFFFFFFFFFFFFFFFFFFFFFFFFFFFFFFF AND MUL OR SWAP1 SSTORE POP PUSH3 0xBC PUSH3 0x117 PUSH1 0x20 SHL PUSH1 0x20 SHR JUMP JUMPDEST PUSH20 0x874069FA1EB16D44D622F2E0CA25EEA172369BC1 PUSH1 0x5 PUSH1 0x0 PUSH2 0x100 EXP DUP2 SLOAD DUP2 PUSH20 0xFFFFFFFFFFFFFFFFFFFFFFFFFFFFFFFFFFFFFFFF MUL NOT AND SWAP1 DUP4 PUSH20 0xFFFFFFFFFFFFFFFFFFFFFFFFFFFFFFFFFFFFFFFF AND MUL OR SWAP1 SSTORE POP PUSH3 0x36A JUMP JUMPDEST PUSH1 0x0 DUP1 PUSH1 0x0 SWAP1 SLOAD SWAP1 PUSH2 0x100 EXP SWAP1 DIV PUSH20 0xFFFFFFFFFFFFFFFFFFFFFFFFFFFFFFFFFFFFFFFF AND PUSH20 0xFFFFFFFFFFFFFFFFFFFFFFFFFFFFFFFFFFFFFFFF AND PUSH4 0x8C0ADF62 PUSH4 0x9ED884BE PUSH1 0xE0 SHL PUSH1 0x40 MLOAD DUP3 PUSH4 0xFFFFFFFF AND PUSH1 0xE0 SHL DUP2 MSTORE PUSH1 0x4 ADD PUSH3 0x17C SWAP2 SWAP1 PUSH3 0x2A6 JUMP JUMPDEST PUSH1 0x20 PUSH1 0x40 MLOAD DUP1 DUP4 SUB DUP2 DUP7 DUP1 EXTCODESIZE ISZERO DUP1 ISZERO PUSH3 0x195 JUMPI PUSH1 0x0 DUP1 REVERT JUMPDEST POP GAS STATICCALL ISZERO DUP1 ISZERO PUSH3 0x1AA JUMPI RETURNDATASIZE PUSH1 0x0 DUP1 RETURNDATACOPY RETURNDATASIZE PUSH1 0x0 REVERT JUMPDEST POP POP POP POP PUSH1 0x40 MLOAD RETURNDATASIZE PUSH1 0x1F NOT PUSH1 0x1F DUP3 ADD AND DUP3 ADD DUP1 PUSH1 0x40 MSTORE POP DUP2 ADD SWAP1 PUSH3 0x1D0 SWAP2 SWAP1 PUSH3 0x263 JUMP JUMPDEST SWAP1 POP PUSH1 0x0 PUSH20 0xFFFFFFFFFFFFFFFFFFFFFFFFFFFFFFFFFFFFFFFF AND DUP2 PUSH20 0xFFFFFFFFFFFFFFFFFFFFFFFFFFFFFFFFFFFFFFFF AND EQ PUSH3 0x249 JUMPI DUP1 PUSH1 0x2 PUSH1 0x0 PUSH2 0x100 EXP DUP2 SLOAD DUP2 PUSH20 0xFFFFFFFFFFFFFFFFFFFFFFFFFFFFFFFFFFFFFFFF MUL NOT AND SWAP1 DUP4 PUSH20 0xFFFFFFFFFFFFFFFFFFFFFFFFFFFFFFFFFFFFFFFF AND MUL OR SWAP1 SSTORE POP JUMPDEST POP JUMP JUMPDEST PUSH1 0x0 DUP2 MLOAD SWAP1 POP PUSH3 0x25D DUP2 PUSH3 0x350 JUMP JUMPDEST SWAP3 SWAP2 POP POP JUMP JUMPDEST PUSH1 0x0 PUSH1 0x20 DUP3 DUP5 SUB SLT ISZERO PUSH3 0x27C JUMPI PUSH3 0x27B PUSH3 0x34B JUMP JUMPDEST JUMPDEST PUSH1 0x0 PUSH3 0x28C DUP5 DUP3 DUP6 ADD PUSH3 0x24C JUMP JUMPDEST SWAP2 POP POP SWAP3 SWAP2 POP POP JUMP JUMPDEST PUSH3 0x2A0 DUP2 PUSH3 0x337 JUMP JUMPDEST DUP3 MSTORE POP POP JUMP JUMPDEST PUSH1 0x0 PUSH1 0x20 DUP3 ADD SWAP1 POP PUSH3 0x2BD PUSH1 0x0 DUP4 ADD DUP5 PUSH3 0x295 JUMP JUMPDEST SWAP3 SWAP2 POP POP JUMP JUMPDEST PUSH1 0x0 PUSH3 0x2D0 DUP3 PUSH3 0x317 JUMP JUMPDEST SWAP1 POP SWAP2 SWAP1 POP JUMP JUMPDEST PUSH1 0x0 PUSH32 0xFFFFFFFF00000000000000000000000000000000000000000000000000000000 DUP3 AND SWAP1 POP SWAP2 SWAP1 POP JUMP JUMPDEST PUSH1 0x0 PUSH3 0x310 DUP3 PUSH3 0x2C3 JUMP JUMPDEST SWAP1 POP SWAP2 SWAP1 POP JUMP JUMPDEST PUSH1 0x0 PUSH20 0xFFFFFFFFFFFFFFFFFFFFFFFFFFFFFFFFFFFFFFFF DUP3 AND SWAP1 POP SWAP2 SWAP1 POP JUMP JUMPDEST PUSH1 0x0 PUSH3 0x344 DUP3 PUSH3 0x2D7 JUMP JUMPDEST SWAP1 POP SWAP2 SWAP1 POP JUMP JUMPDEST PUSH1 0x0 DUP1 REVERT JUMPDEST PUSH3 0x35B DUP2 PUSH3 0x303 JUMP JUMPDEST DUP2 EQ PUSH3 0x367 JUMPI PUSH1 0x0 DUP1 REVERT JUMPDEST POP JUMP JUMPDEST PUSH2 0x2C36 DUP1 PUSH3 0x37A PUSH1 0x0 CODECOPY PUSH1 0x0 RETURN INVALID PUSH1 0x80 PUSH1 0x40 MSTORE PUSH1 0x4 CALLDATASIZE LT PUSH2 0xF3 JUMPI PUSH1 0x0 CALLDATALOAD PUSH1 0xE0 SHR DUP1 PUSH4 0x80AD10DF GT PUSH2 0x8A JUMPI DUP1 PUSH4 0xB1DDF386 GT PUSH2 0x59 JUMPI DUP1 PUSH4 0xB1DDF386 EQ PUSH2 0x31D JUMPI DUP1 PUSH4 0xB447B0A5 EQ PUSH2 0x34E JUMPI DUP1 PUSH4 0xC8525F81 EQ PUSH2 0x379 JUMPI DUP1 PUSH4 0xDF3D4E32 EQ PUSH2 0x3A4 JUMPI PUSH2 0xF3 JUMP JUMPDEST DUP1 PUSH4 0x80AD10DF EQ PUSH2 0x23E JUMPI DUP1 PUSH4 0x893C4A84 EQ PUSH2 0x27E JUMPI DUP1 PUSH4 0x91CFA8C2 EQ PUSH2 0x2AF JUMPI DUP1 PUSH4 0xAEA5DA5B EQ PUSH2 0x2DF JUMPI PUSH2 0xF3 JUMP JUMPDEST DUP1 PUSH4 0x35178E87 GT PUSH2 0xC6 JUMPI DUP1 PUSH4 0x35178E87 EQ PUSH2 0x182 JUMPI DUP1 PUSH4 0x43D37940 EQ PUSH2 0x199 JUMPI DUP1 PUSH4 0x4FC87F24 EQ PUSH2 0x1D6 JUMPI DUP1 PUSH4 0x7F28EE34 EQ PUSH2 0x201 JUMPI PUSH2 0xF3 JUMP JUMPDEST DUP1 PUSH4 0x9A61767 EQ PUSH2 0xF8 JUMPI DUP1 PUSH4 0xFD19C15 EQ PUSH2 0x129 JUMPI DUP1 PUSH4 0x2986C0E5 EQ PUSH2 0x140 JUMPI DUP1 PUSH4 0x32EB658C EQ PUSH2 0x16B JUMPI JUMPDEST PUSH1 0x0 DUP1 REVERT JUMPDEST PUSH2 0x112 PUSH1 0x4 DUP1 CALLDATASIZE SUB DUP2 ADD SWAP1 PUSH2 0x10D SWAP2 SWAP1 PUSH2 0x219D JUMP JUMPDEST PUSH2 0x3CF JUMP JUMPDEST PUSH1 0x40 MLOAD PUSH2 0x120 SWAP3 SWAP2 SWAP1 PUSH2 0x2511 JUMP JUMPDEST PUSH1 0x40 MLOAD DUP1 SWAP2 SUB SWAP1 RETURN JUMPDEST CALLVALUE DUP1 ISZERO PUSH2 0x135 JUMPI PUSH1 0x0 DUP1 REVERT JUMPDEST POP PUSH2 0x13E PUSH2 0x94D JUMP JUMPDEST STOP JUMPDEST CALLVALUE DUP1 ISZERO PUSH2 0x14C JUMPI PUSH1 0x0 DUP1 REVERT JUMPDEST POP PUSH2 0x155 PUSH2 0xA7B JUMP JUMPDEST PUSH1 0x40 MLOAD PUSH2 0x162 SWAP2 SWAP1 PUSH2 0x24F6 JUMP JUMPDEST PUSH1 0x40 MLOAD DUP1 SWAP2 SUB SWAP1 RETURN JUMPDEST CALLVALUE DUP1 ISZERO PUSH2 0x177 JUMPI PUSH1 0x0 DUP1 REVERT JUMPDEST POP PUSH2 0x180 PUSH2 0xA81 JUMP JUMPDEST STOP JUMPDEST CALLVALUE DUP1 ISZERO PUSH2 0x18E JUMPI PUSH1 0x0 DUP1 REVERT JUMPDEST POP PUSH2 0x197 PUSH2 0xBAF JUMP JUMPDEST STOP JUMPDEST CALLVALUE DUP1 ISZERO PUSH2 0x1A5 JUMPI PUSH1 0x0 DUP1 REVERT JUMPDEST POP PUSH2 0x1C0 PUSH1 0x4 DUP1 CALLDATASIZE SUB DUP2 ADD SWAP1 PUSH2 0x1BB SWAP2 SWAP1 PUSH2 0x2170 JUMP JUMPDEST PUSH2 0xCDD JUMP JUMPDEST PUSH1 0x40 MLOAD PUSH2 0x1CD SWAP2 SWAP1 PUSH2 0x240A JUMP JUMPDEST PUSH1 0x40 MLOAD DUP1 SWAP2 SUB SWAP1 RETURN JUMPDEST CALLVALUE DUP1 ISZERO PUSH2 0x1E2 JUMPI PUSH1 0x0 DUP1 REVERT JUMPDEST POP PUSH2 0x1EB PUSH2 0xD3C JUMP JUMPDEST PUSH1 0x40 MLOAD PUSH2 0x1F8 SWAP2 SWAP1 PUSH2 0x245B JUMP JUMPDEST PUSH1 0x40 MLOAD DUP1 SWAP2 SUB SWAP1 RETURN JUMPDEST CALLVALUE DUP1 ISZERO PUSH2 0x20D JUMPI PUSH1 0x0 DUP1 REVERT JUMPDEST POP PUSH2 0x228 PUSH1 0x4 DUP1 CALLDATASIZE SUB DUP2 ADD SWAP1 PUSH2 0x223 SWAP2 SWAP1 PUSH2 0x21CA JUMP JUMPDEST PUSH2 0xD60 JUMP JUMPDEST PUSH1 0x40 MLOAD PUSH2 0x235 SWAP2 SWAP1 PUSH2 0x240A JUMP JUMPDEST PUSH1 0x40 MLOAD DUP1 SWAP2 SUB SWAP1 RETURN JUMPDEST CALLVALUE DUP1 ISZERO PUSH2 0x24A JUMPI PUSH1 0x0 DUP1 REVERT JUMPDEST POP PUSH2 0x265 PUSH1 0x4 DUP1 CALLDATASIZE SUB DUP2 ADD SWAP1 PUSH2 0x260 SWAP2 SWAP1 PUSH2 0x2170 JUMP JUMPDEST PUSH2 0xFD5 JUMP JUMPDEST PUSH1 0x40 MLOAD PUSH2 0x275 SWAP5 SWAP4 SWAP3 SWAP2 SWAP1 PUSH2 0x253A JUMP JUMPDEST PUSH1 0x40 MLOAD DUP1 SWAP2 SUB SWAP1 RETURN JUMPDEST PUSH2 0x298 PUSH1 0x4 DUP1 CALLDATASIZE SUB DUP2 ADD SWAP1 PUSH2 0x293 SWAP2 SWAP1 PUSH2 0x219D JUMP JUMPDEST PUSH2 0x1025 JUMP JUMPDEST PUSH1 0x40 MLOAD PUSH2 0x2A6 SWAP3 SWAP2 SWAP1 PUSH2 0x257F JUMP JUMPDEST PUSH1 0x40 MLOAD DUP1 SWAP2 SUB SWAP1 RETURN JUMPDEST PUSH2 0x2C9 PUSH1 0x4 DUP1 CALLDATASIZE SUB DUP2 ADD SWAP1 PUSH2 0x2C4 SWAP2 SWAP1 PUSH2 0x219D JUMP JUMPDEST PUSH2 0x147A JUMP JUMPDEST PUSH1 0x40 MLOAD PUSH2 0x2D6 SWAP2 SWAP1 PUSH2 0x240A JUMP JUMPDEST PUSH1 0x40 MLOAD DUP1 SWAP2 SUB SWAP1 RETURN JUMPDEST CALLVALUE DUP1 ISZERO PUSH2 0x2EB JUMPI PUSH1 0x0 DUP1 REVERT JUMPDEST POP PUSH2 0x306 PUSH1 0x4 DUP1 CALLDATASIZE SUB DUP2 ADD SWAP1 PUSH2 0x301 SWAP2 SWAP1 PUSH2 0x2170 JUMP JUMPDEST PUSH2 0x1AD3 JUMP JUMPDEST PUSH1 0x40 MLOAD PUSH2 0x314 SWAP3 SWAP2 SWAP1 PUSH2 0x257F JUMP JUMPDEST PUSH1 0x40 MLOAD DUP1 SWAP2 SUB SWAP1 RETURN JUMPDEST PUSH2 0x337 PUSH1 0x4 DUP1 CALLDATASIZE SUB DUP2 ADD SWAP1 PUSH2 0x332 SWAP2 SWAP1 PUSH2 0x219D JUMP JUMPDEST PUSH2 0x1AF7 JUMP JUMPDEST PUSH1 0x40 MLOAD PUSH2 0x345 SWAP3 SWAP2 SWAP1 PUSH2 0x257F JUMP JUMPDEST PUSH1 0x40 MLOAD DUP1 SWAP2 SUB SWAP1 RETURN JUMPDEST CALLVALUE DUP1 ISZERO PUSH2 0x35A JUMPI PUSH1 0x0 DUP1 REVERT JUMPDEST POP PUSH2 0x363 PUSH2 0x1FA4 JUMP JUMPDEST PUSH1 0x40 MLOAD PUSH2 0x370 SWAP2 SWAP1 PUSH2 0x2440 JUMP JUMPDEST PUSH1 0x40 MLOAD DUP1 SWAP2 SUB SWAP1 RETURN JUMPDEST CALLVALUE DUP1 ISZERO PUSH2 0x385 JUMPI PUSH1 0x0 DUP1 REVERT JUMPDEST POP PUSH2 0x38E PUSH2 0x1FCA JUMP JUMPDEST PUSH1 0x40 MLOAD PUSH2 0x39B SWAP2 SWAP1 PUSH2 0x2440 JUMP JUMPDEST PUSH1 0x40 MLOAD DUP1 SWAP2 SUB SWAP1 RETURN JUMPDEST CALLVALUE DUP1 ISZERO PUSH2 0x3B0 JUMPI PUSH1 0x0 DUP1 REVERT JUMPDEST POP PUSH2 0x3B9 PUSH2 0x1FF0 JUMP JUMPDEST PUSH1 0x40 MLOAD PUSH2 0x3C6 SWAP2 SWAP1 PUSH2 0x2440 JUMP JUMPDEST PUSH1 0x40 MLOAD DUP1 SWAP2 SUB SWAP1 RETURN JUMPDEST PUSH1 0x0 DUP1 PUSH1 0xC PUSH1 0x14 SWAP1 SLOAD SWAP1 PUSH2 0x100 EXP SWAP1 DIV PUSH1 0xFF AND ISZERO PUSH2 0x3EC JUMPI PUSH1 0x0 DUP1 REVERT JUMPDEST PUSH1 0x1 PUSH1 0xC PUSH1 0x14 PUSH2 0x100 EXP DUP2 SLOAD DUP2 PUSH1 0xFF MUL NOT AND SWAP1 DUP4 ISZERO ISZERO MUL OR SWAP1 SSTORE POP CALLVALUE CALLER PUSH20 0xFFFFFFFFFFFFFFFFFFFFFFFFFFFFFFFFFFFFFFFF AND BALANCE LT ISZERO PUSH2 0x461 JUMPI PUSH1 0x40 MLOAD PUSH32 0x8C379A000000000000000000000000000000000000000000000000000000000 DUP2 MSTORE PUSH1 0x4 ADD PUSH2 0x458 SWAP1 PUSH2 0x2496 JUMP JUMPDEST PUSH1 0x40 MLOAD DUP1 SWAP2 SUB SWAP1 REVERT JUMPDEST PUSH1 0x0 DUP1 PUSH2 0x46C PUSH2 0x2016 JUMP JUMPDEST DUP1 SWAP3 POP DUP2 SWAP4 POP POP POP PUSH1 0x0 DUP3 PUSH1 0x1 PUSH2 0x483 SWAP2 SWAP1 PUSH2 0x26A3 JUMP JUMPDEST CALLVALUE SLT ISZERO PUSH2 0x4C5 JUMPI PUSH1 0x40 MLOAD PUSH32 0x8C379A000000000000000000000000000000000000000000000000000000000 DUP2 MSTORE PUSH1 0x4 ADD PUSH2 0x4BC SWAP1 PUSH2 0x24D6 JUMP JUMPDEST PUSH1 0x40 MLOAD DUP1 SWAP2 SUB SWAP1 REVERT JUMPDEST PUSH1 0x0 DUP4 CALLVALUE PUSH2 0x4D3 SWAP2 SWAP1 PUSH2 0x273E JUMP JUMPDEST SWAP1 POP PUSH1 0x1 ISZERO ISZERO PUSH2 0x4E2 CALLER PUSH2 0xCDD JUMP JUMPDEST ISZERO ISZERO EQ ISZERO PUSH2 0x6A1 JUMPI DUP1 PUSH1 0xB PUSH1 0x0 CALLER PUSH20 0xFFFFFFFFFFFFFFFFFFFFFFFFFFFFFFFFFFFFFFFF AND PUSH20 0xFFFFFFFFFFFFFFFFFFFFFFFFFFFFFFFFFFFFFFFF AND DUP2 MSTORE PUSH1 0x20 ADD SWAP1 DUP2 MSTORE PUSH1 0x20 ADD PUSH1 0x0 KECCAK256 PUSH1 0x1 ADD PUSH1 0x0 DUP3 DUP3 SLOAD PUSH2 0x53C SWAP2 SWAP1 PUSH2 0x25B9 JUMP JUMPDEST SWAP3 POP POP DUP2 SWAP1 SSTORE POP PUSH1 0xB PUSH1 0x0 CALLER PUSH20 0xFFFFFFFFFFFFFFFFFFFFFFFFFFFFFFFFFFFFFFFF AND PUSH20 0xFFFFFFFFFFFFFFFFFFFFFFFFFFFFFFFFFFFFFFFF AND DUP2 MSTORE PUSH1 0x20 ADD SWAP1 DUP2 MSTORE PUSH1 0x20 ADD PUSH1 0x0 KECCAK256 PUSH1 0x2 ADD PUSH1 0x0 DUP2 SLOAD DUP1 SWAP3 SWAP2 SWAP1 PUSH2 0x596 SWAP1 PUSH2 0x29E9 JUMP JUMPDEST SWAP2 SWAP1 POP SSTORE POP CALLVALUE PUSH1 0x4 PUSH1 0x0 DUP10 PUSH20 0xFFFFFFFFFFFFFFFFFFFFFFFFFFFFFFFFFFFFFFFF AND PUSH20 0xFFFFFFFFFFFFFFFFFFFFFFFFFFFFFFFFFFFFFFFF AND DUP2 MSTORE PUSH1 0x20 ADD SWAP1 DUP2 MSTORE PUSH1 0x20 ADD PUSH1 0x0 KECCAK256 PUSH1 0x0 ADD PUSH1 0x0 DUP3 DUP3 SLOAD PUSH2 0x5ED SWAP2 SWAP1 PUSH2 0x264D JUMP JUMPDEST SWAP3 POP POP DUP2 SWAP1 SSTORE POP PUSH1 0x4 PUSH1 0x0 DUP9 PUSH20 0xFFFFFFFFFFFFFFFFFFFFFFFFFFFFFFFFFFFFFFFF AND PUSH20 0xFFFFFFFFFFFFFFFFFFFFFFFFFFFFFFFFFFFFFFFF AND DUP2 MSTORE PUSH1 0x20 ADD SWAP1 DUP2 MSTORE PUSH1 0x20 ADD PUSH1 0x0 KECCAK256 PUSH1 0x0 ADD SLOAD SWAP2 POP DUP7 PUSH20 0xFFFFFFFFFFFFFFFFFFFFFFFFFFFFFFFFFFFFFFFF AND CALLER PUSH20 0xFFFFFFFFFFFFFFFFFFFFFFFFFFFFFFFFFFFFFFFF AND PUSH32 0xADBBBBC8C9E65E88422D75C3D3CB93F41A5D520A2CA71C815348334DE8C49121 CALLVALUE TIMESTAMP PUSH1 0x40 MLOAD PUSH2 0x698 SWAP3 SWAP2 SWAP1 PUSH2 0x257F JUMP JUMPDEST PUSH1 0x40 MLOAD DUP1 SWAP2 SUB SWAP1 LOG3 JUMPDEST PUSH1 0xA PUSH1 0x0 DUP2 SLOAD DUP1 SWAP3 SWAP2 SWAP1 PUSH2 0x6B4 SWAP1 PUSH2 0x29E9 JUMP JUMPDEST SWAP2 SWAP1 POP SSTORE POP PUSH1 0xA SLOAD PUSH1 0xB PUSH1 0x0 CALLER PUSH20 0xFFFFFFFFFFFFFFFFFFFFFFFFFFFFFFFFFFFFFFFF AND PUSH20 0xFFFFFFFFFFFFFFFFFFFFFFFFFFFFFFFFFFFFFFFF AND DUP2 MSTORE PUSH1 0x20 ADD SWAP1 DUP2 MSTORE PUSH1 0x20 ADD PUSH1 0x0 KECCAK256 PUSH1 0x0 ADD DUP2 SWAP1 SSTORE POP DUP1 PUSH1 0xB PUSH1 0x0 CALLER PUSH20 0xFFFFFFFFFFFFFFFFFFFFFFFFFFFFFFFFFFFFFFFF AND PUSH20 0xFFFFFFFFFFFFFFFFFFFFFFFFFFFFFFFFFFFFFFFF AND DUP2 MSTORE PUSH1 0x20 ADD SWAP1 DUP2 MSTORE PUSH1 0x20 ADD PUSH1 0x0 KECCAK256 PUSH1 0x1 ADD PUSH1 0x0 DUP3 DUP3 SLOAD PUSH2 0x754 SWAP2 SWAP1 PUSH2 0x25B9 JUMP JUMPDEST SWAP3 POP POP DUP2 SWAP1 SSTORE POP CALLER PUSH1 0xB PUSH1 0x0 CALLER PUSH20 0xFFFFFFFFFFFFFFFFFFFFFFFFFFFFFFFFFFFFFFFF AND PUSH20 0xFFFFFFFFFFFFFFFFFFFFFFFFFFFFFFFFFFFFFFFF AND DUP2 MSTORE PUSH1 0x20 ADD SWAP1 DUP2 MSTORE PUSH1 0x20 ADD PUSH1 0x0 KECCAK256 PUSH1 0x3 ADD PUSH1 0x0 PUSH2 0x100 EXP DUP2 SLOAD DUP2 PUSH20 0xFFFFFFFFFFFFFFFFFFFFFFFFFFFFFFFFFFFFFFFF MUL NOT AND SWAP1 DUP4 PUSH20 0xFFFFFFFFFFFFFFFFFFFFFFFFFFFFFFFFFFFFFFFF AND MUL OR SWAP1 SSTORE POP PUSH1 0x1 PUSH1 0xB PUSH1 0x0 CALLER PUSH20 0xFFFFFFFFFFFFFFFFFFFFFFFFFFFFFFFFFFFFFFFF AND PUSH20 0xFFFFFFFFFFFFFFFFFFFFFFFFFFFFFFFFFFFFFFFF AND DUP2 MSTORE PUSH1 0x20 ADD SWAP1 DUP2 MSTORE PUSH1 0x20 ADD PUSH1 0x0 KECCAK256 PUSH1 0x2 ADD DUP2 SWAP1 SSTORE POP CALLVALUE PUSH1 0x4 PUSH1 0x0 DUP10 PUSH20 0xFFFFFFFFFFFFFFFFFFFFFFFFFFFFFFFFFFFFFFFF AND PUSH20 0xFFFFFFFFFFFFFFFFFFFFFFFFFFFFFFFFFFFFFFFF AND DUP2 MSTORE PUSH1 0x20 ADD SWAP1 DUP2 MSTORE PUSH1 0x20 ADD PUSH1 0x0 KECCAK256 PUSH1 0x0 ADD PUSH1 0x0 DUP3 DUP3 SLOAD PUSH2 0x876 SWAP2 SWAP1 PUSH2 0x264D JUMP JUMPDEST SWAP3 POP POP DUP2 SWAP1 SSTORE POP PUSH1 0x4 PUSH1 0x0 DUP9 PUSH20 0xFFFFFFFFFFFFFFFFFFFFFFFFFFFFFFFFFFFFFFFF AND PUSH20 0xFFFFFFFFFFFFFFFFFFFFFFFFFFFFFFFFFFFFFFFF AND DUP2 MSTORE PUSH1 0x20 ADD SWAP1 DUP2 MSTORE PUSH1 0x20 ADD PUSH1 0x0 KECCAK256 PUSH1 0x0 ADD SLOAD SWAP2 POP DUP7 PUSH20 0xFFFFFFFFFFFFFFFFFFFFFFFFFFFFFFFFFFFFFFFF AND CALLER PUSH20 0xFFFFFFFFFFFFFFFFFFFFFFFFFFFFFFFFFFFFFFFF AND PUSH32 0xADBBBBC8C9E65E88422D75C3D3CB93F41A5D520A2CA71C815348334DE8C49121 CALLVALUE TIMESTAMP PUSH1 0x40 MLOAD PUSH2 0x921 SWAP3 SWAP2 SWAP1 PUSH2 0x257F JUMP JUMPDEST PUSH1 0x40 MLOAD DUP1 SWAP2 SUB SWAP1 LOG3 POP POP POP POP PUSH1 0x0 PUSH1 0xC PUSH1 0x14 PUSH2 0x100 EXP DUP2 SLOAD DUP2 PUSH1 0xFF MUL NOT AND SWAP1 DUP4 ISZERO ISZERO MUL OR SWAP1 SSTORE POP SWAP2 POP SWAP2 JUMP JUMPDEST PUSH1 0x0 DUP1 PUSH1 0x0 SWAP1 SLOAD SWAP1 PUSH2 0x100 EXP SWAP1 DIV PUSH20 0xFFFFFFFFFFFFFFFFFFFFFFFFFFFFFFFFFFFFFFFF AND PUSH20 0xFFFFFFFFFFFFFFFFFFFFFFFFFFFFFFFFFFFFFFFF AND PUSH4 0x8C0ADF62 PUSH4 0x3D15F701 PUSH1 0xE0 SHL PUSH1 0x40 MLOAD DUP3 PUSH4 0xFFFFFFFF AND PUSH1 0xE0 SHL DUP2 MSTORE PUSH1 0x4 ADD PUSH2 0x9B0 SWAP2 SWAP1 PUSH2 0x2425 JUMP JUMPDEST PUSH1 0x20 PUSH1 0x40 MLOAD DUP1 DUP4 SUB DUP2 DUP7 DUP1 EXTCODESIZE ISZERO DUP1 ISZERO PUSH2 0x9C8 JUMPI PUSH1 0x0 DUP1 REVERT JUMPDEST POP GAS STATICCALL ISZERO DUP1 ISZERO PUSH2 0x9DC JUMPI RETURNDATASIZE PUSH1 0x0 DUP1 RETURNDATACOPY RETURNDATASIZE PUSH1 0x0 REVERT JUMPDEST POP POP POP POP PUSH1 0x40 MLOAD RETURNDATASIZE PUSH1 0x1F NOT PUSH1 0x1F DUP3 ADD AND DUP3 ADD DUP1 PUSH1 0x40 MSTORE POP DUP2 ADD SWAP1 PUSH2 0xA00 SWAP2 SWAP1 PUSH2 0x224A JUMP JUMPDEST SWAP1 POP PUSH1 0x0 PUSH20 0xFFFFFFFFFFFFFFFFFFFFFFFFFFFFFFFFFFFFFFFF AND DUP2 PUSH20 0xFFFFFFFFFFFFFFFFFFFFFFFFFFFFFFFFFFFFFFFF AND EQ PUSH2 0xA78 JUMPI DUP1 PUSH1 0x3 PUSH1 0x0 PUSH2 0x100 EXP DUP2 SLOAD DUP2 PUSH20 0xFFFFFFFFFFFFFFFFFFFFFFFFFFFFFFFFFFFFFFFF MUL NOT AND SWAP1 DUP4 PUSH20 0xFFFFFFFFFFFFFFFFFFFFFFFFFFFFFFFFFFFFFFFF AND MUL OR SWAP1 SSTORE POP JUMPDEST POP JUMP JUMPDEST PUSH1 0xA SLOAD DUP2 JUMP JUMPDEST PUSH1 0x0 DUP1 PUSH1 0x0 SWAP1 SLOAD SWAP1 PUSH2 0x100 EXP SWAP1 DIV PUSH20 0xFFFFFFFFFFFFFFFFFFFFFFFFFFFFFFFFFFFFFFFF AND PUSH20 0xFFFFFFFFFFFFFFFFFFFFFFFFFFFFFFFFFFFFFFFF AND PUSH4 0x8C0ADF62 PUSH4 0x9ED884BE PUSH1 0xE0 SHL PUSH1 0x40 MLOAD DUP3 PUSH4 0xFFFFFFFF AND PUSH1 0xE0 SHL DUP2 MSTORE PUSH1 0x4 ADD PUSH2 0xAE4 SWAP2 SWAP1 PUSH2 0x2425 JUMP JUMPDEST PUSH1 0x20 PUSH1 0x40 MLOAD DUP1 DUP4 SUB DUP2 DUP7 DUP1 EXTCODESIZE ISZERO DUP1 ISZERO PUSH2 0xAFC JUMPI PUSH1 0x0 DUP1 REVERT JUMPDEST POP GAS STATICCALL ISZERO DUP1 ISZERO PUSH2 0xB10 JUMPI RETURNDATASIZE PUSH1 0x0 DUP1 RETURNDATACOPY RETURNDATASIZE PUSH1 0x0 REVERT JUMPDEST POP POP POP POP PUSH1 0x40 MLOAD RETURNDATASIZE PUSH1 0x1F NOT PUSH1 0x1F DUP3 ADD AND DUP3 ADD DUP1 PUSH1 0x40 MSTORE POP DUP2 ADD SWAP1 PUSH2 0xB34 SWAP2 SWAP1 PUSH2 0x224A JUMP JUMPDEST SWAP1 POP PUSH1 0x0 PUSH20 0xFFFFFFFFFFFFFFFFFFFFFFFFFFFFFFFFFFFFFFFF AND DUP2 PUSH20 0xFFFFFFFFFFFFFFFFFFFFFFFFFFFFFFFFFFFFFFFF AND EQ PUSH2 0xBAC JUMPI DUP1 PUSH1 0x2 PUSH1 0x0 PUSH2 0x100 EXP DUP2 SLOAD DUP2 PUSH20 0xFFFFFFFFFFFFFFFFFFFFFFFFFFFFFFFFFFFFFFFF MUL NOT AND SWAP1 DUP4 PUSH20 0xFFFFFFFFFFFFFFFFFFFFFFFFFFFFFFFFFFFFFFFF AND MUL OR SWAP1 SSTORE POP JUMPDEST POP JUMP JUMPDEST PUSH1 0x0 DUP1 PUSH1 0x0 SWAP1 SLOAD SWAP1 PUSH2 0x100 EXP SWAP1 DIV PUSH20 0xFFFFFFFFFFFFFFFFFFFFFFFFFFFFFFFFFFFFFFFF AND PUSH20 0xFFFFFFFFFFFFFFFFFFFFFFFFFFFFFFFFFFFFFFFF AND PUSH4 0x8C0ADF62 PUSH4 0x21A79821 PUSH1 0xE0 SHL PUSH1 0x40 MLOAD DUP3 PUSH4 0xFFFFFFFF AND PUSH1 0xE0 SHL DUP2 MSTORE PUSH1 0x4 ADD PUSH2 0xC12 SWAP2 SWAP1 PUSH2 0x2425 JUMP JUMPDEST PUSH1 0x20 PUSH1 0x40 MLOAD DUP1 DUP4 SUB DUP2 DUP7 DUP1 EXTCODESIZE ISZERO DUP1 ISZERO PUSH2 0xC2A JUMPI PUSH1 0x0 DUP1 REVERT JUMPDEST POP GAS STATICCALL ISZERO DUP1 ISZERO PUSH2 0xC3E JUMPI RETURNDATASIZE PUSH1 0x0 DUP1 RETURNDATACOPY RETURNDATASIZE PUSH1 0x0 REVERT JUMPDEST POP POP POP POP PUSH1 0x40 MLOAD RETURNDATASIZE PUSH1 0x1F NOT PUSH1 0x1F DUP3 ADD AND DUP3 ADD DUP1 PUSH1 0x40 MSTORE POP DUP2 ADD SWAP1 PUSH2 0xC62 SWAP2 SWAP1 PUSH2 0x224A JUMP JUMPDEST SWAP1 POP PUSH1 0x0 PUSH20 0xFFFFFFFFFFFFFFFFFFFFFFFFFFFFFFFFFFFFFFFF AND DUP2 PUSH20 0xFFFFFFFFFFFFFFFFFFFFFFFFFFFFFFFFFFFFFFFF AND EQ PUSH2 0xCDA JUMPI DUP1 PUSH1 0x1 PUSH1 0x0 PUSH2 0x100 EXP DUP2 SLOAD DUP2 PUSH20 0xFFFFFFFFFFFFFFFFFFFFFFFFFFFFFFFFFFFFFFFF MUL NOT AND SWAP1 DUP4 PUSH20 0xFFFFFFFFFFFFFFFFFFFFFFFFFFFFFFFFFFFFFFFF AND MUL OR SWAP1 SSTORE POP JUMPDEST POP JUMP JUMPDEST PUSH1 0x0 DUP1 PUSH1 0xB PUSH1 0x0 DUP5 PUSH20 0xFFFFFFFFFFFFFFFFFFFFFFFFFFFFFFFFFFFFFFFF AND PUSH20 0xFFFFFFFFFFFFFFFFFFFFFFFFFFFFFFFFFFFFFFFF AND DUP2 MSTORE PUSH1 0x20 ADD SWAP1 DUP2 MSTORE PUSH1 0x20 ADD PUSH1 0x0 KECCAK256 PUSH1 0x0 ADD SLOAD GT ISZERO PUSH2 0xD32 JUMPI PUSH1 0x1 SWAP1 POP PUSH2 0xD37 JUMP JUMPDEST PUSH1 0x0 SWAP1 POP JUMPDEST SWAP2 SWAP1 POP JUMP JUMPDEST PUSH1 0x0 DUP1 SLOAD SWAP1 PUSH2 0x100 EXP SWAP1 DIV PUSH20 0xFFFFFFFFFFFFFFFFFFFFFFFFFFFFFFFFFFFFFFFF AND DUP2 JUMP JUMPDEST PUSH1 0x0 PUSH1 0xC PUSH1 0x0 SWAP1 SLOAD SWAP1 PUSH2 0x100 EXP SWAP1 DIV PUSH20 0xFFFFFFFFFFFFFFFFFFFFFFFFFFFFFFFFFFFFFFFF AND PUSH20 0xFFFFFFFFFFFFFFFFFFFFFFFFFFFFFFFFFFFFFFFF AND CALLER PUSH20 0xFFFFFFFFFFFFFFFFFFFFFFFFFFFFFFFFFFFFFFFF AND EQ PUSH2 0xDBC JUMPI PUSH1 0x0 DUP1 REVERT JUMPDEST PUSH1 0x0 DUP1 PUSH2 0xDC7 PUSH2 0x2016 JUMP JUMPDEST DUP1 SWAP3 POP DUP2 SWAP4 POP POP POP PUSH1 0xA PUSH1 0x0 DUP2 SLOAD DUP1 SWAP3 SWAP2 SWAP1 PUSH2 0xDE2 SWAP1 PUSH2 0x29E9 JUMP JUMPDEST SWAP2 SWAP1 POP SSTORE POP PUSH1 0xA SLOAD PUSH1 0xB PUSH1 0x0 DUP9 PUSH20 0xFFFFFFFFFFFFFFFFFFFFFFFFFFFFFFFFFFFFFFFF AND PUSH20 0xFFFFFFFFFFFFFFFFFFFFFFFFFFFFFFFFFFFFFFFF AND DUP2 MSTORE PUSH1 0x20 ADD SWAP1 DUP2 MSTORE PUSH1 0x20 ADD PUSH1 0x0 KECCAK256 PUSH1 0x0 ADD DUP2 SWAP1 SSTORE POP DUP2 DUP5 PUSH2 0xE3C SWAP2 SWAP1 PUSH2 0x273E JUMP JUMPDEST PUSH1 0xB PUSH1 0x0 DUP9 PUSH20 0xFFFFFFFFFFFFFFFFFFFFFFFFFFFFFFFFFFFFFFFF AND PUSH20 0xFFFFFFFFFFFFFFFFFFFFFFFFFFFFFFFFFFFFFFFF AND DUP2 MSTORE PUSH1 0x20 ADD SWAP1 DUP2 MSTORE PUSH1 0x20 ADD PUSH1 0x0 KECCAK256 PUSH1 0x1 ADD PUSH1 0x0 DUP3 DUP3 SLOAD PUSH2 0xE8D SWAP2 SWAP1 PUSH2 0x25B9 JUMP JUMPDEST SWAP3 POP POP DUP2 SWAP1 SSTORE POP DUP6 PUSH1 0xB PUSH1 0x0 DUP9 PUSH20 0xFFFFFFFFFFFFFFFFFFFFFFFFFFFFFFFFFFFFFFFF AND PUSH20 0xFFFFFFFFFFFFFFFFFFFFFFFFFFFFFFFFFFFFFFFF AND DUP2 MSTORE PUSH1 0x20 ADD SWAP1 DUP2 MSTORE PUSH1 0x20 ADD PUSH1 0x0 KECCAK256 PUSH1 0x3 ADD PUSH1 0x0 PUSH2 0x100 EXP DUP2 SLOAD DUP2 PUSH20 0xFFFFFFFFFFFFFFFFFFFFFFFFFFFFFFFFFFFFFFFF MUL NOT AND SWAP1 DUP4 PUSH20 0xFFFFFFFFFFFFFFFFFFFFFFFFFFFFFFFFFFFFFFFF AND MUL OR SWAP1 SSTORE POP PUSH1 0x1 PUSH1 0xB PUSH1 0x0 DUP9 PUSH20 0xFFFFFFFFFFFFFFFFFFFFFFFFFFFFFFFFFFFFFFFF AND PUSH20 0xFFFFFFFFFFFFFFFFFFFFFFFFFFFFFFFFFFFFFFFF AND DUP2 MSTORE PUSH1 0x20 ADD SWAP1 DUP2 MSTORE PUSH1 0x20 ADD PUSH1 0x0 KECCAK256 PUSH1 0x2 ADD PUSH1 0x0 DUP3 DUP3 SLOAD PUSH2 0xF68 SWAP2 SWAP1 PUSH2 0x264D JUMP JUMPDEST SWAP3 POP POP DUP2 SWAP1 SSTORE POP DUP4 PUSH1 0x4 PUSH1 0x0 DUP8 PUSH20 0xFFFFFFFFFFFFFFFFFFFFFFFFFFFFFFFFFFFFFFFF AND PUSH20 0xFFFFFFFFFFFFFFFFFFFFFFFFFFFFFFFFFFFFFFFF AND DUP2 MSTORE PUSH1 0x20 ADD SWAP1 DUP2 MSTORE PUSH1 0x20 ADD PUSH1 0x0 KECCAK256 PUSH1 0x1 ADD PUSH1 0x0 DUP3 DUP3 SLOAD PUSH2 0xFC1 SWAP2 SWAP1 PUSH2 0x264D JUMP JUMPDEST SWAP3 POP POP DUP2 SWAP1 SSTORE POP PUSH1 0x1 SWAP3 POP POP POP SWAP4 SWAP3 POP POP POP JUMP JUMPDEST PUSH1 0xB PUSH1 0x20 MSTORE DUP1 PUSH1 0x0 MSTORE PUSH1 0x40 PUSH1 0x0 KECCAK256 PUSH1 0x0 SWAP2 POP SWAP1 POP DUP1 PUSH1 0x0 ADD SLOAD SWAP1 DUP1 PUSH1 0x1 ADD SLOAD SWAP1 DUP1 PUSH1 0x2 ADD SLOAD SWAP1 DUP1 PUSH1 0x3 ADD PUSH1 0x0 SWAP1 SLOAD SWAP1 PUSH2 0x100 EXP SWAP1 DIV PUSH20 0xFFFFFFFFFFFFFFFFFFFFFFFFFFFFFFFFFFFFFFFF AND SWAP1 POP DUP5 JUMP JUMPDEST PUSH1 0x0 DUP1 PUSH1 0xC PUSH1 0x14 SWAP1 SLOAD SWAP1 PUSH2 0x100 EXP SWAP1 DIV PUSH1 0xFF AND ISZERO PUSH2 0x1042 JUMPI PUSH1 0x0 DUP1 REVERT JUMPDEST PUSH1 0x1 PUSH1 0xC PUSH1 0x14 PUSH2 0x100 EXP DUP2 SLOAD DUP2 PUSH1 0xFF MUL NOT AND SWAP1 DUP4 ISZERO ISZERO MUL OR SWAP1 SSTORE POP CALLVALUE PUSH1 0x4 PUSH1 0x0 DUP6 PUSH20 0xFFFFFFFFFFFFFFFFFFFFFFFFFFFFFFFFFFFFFFFF AND PUSH20 0xFFFFFFFFFFFFFFFFFFFFFFFFFFFFFFFFFFFFFFFF AND DUP2 MSTORE PUSH1 0x20 ADD SWAP1 DUP2 MSTORE PUSH1 0x20 ADD PUSH1 0x0 KECCAK256 PUSH1 0x0 ADD SLOAD LT ISZERO PUSH2 0x10E2 JUMPI PUSH1 0x40 MLOAD PUSH32 0x8C379A000000000000000000000000000000000000000000000000000000000 DUP2 MSTORE PUSH1 0x4 ADD PUSH2 0x10D9 SWAP1 PUSH2 0x24B6 JUMP JUMPDEST PUSH1 0x40 MLOAD DUP1 SWAP2 SUB SWAP1 REVERT JUMPDEST PUSH1 0x0 DUP1 PUSH2 0x10ED PUSH2 0x2016 JUMP JUMPDEST SWAP2 POP SWAP2 POP PUSH1 0x0 PUSH1 0xC DUP4 PUSH1 0x4 PUSH1 0x0 DUP10 PUSH20 0xFFFFFFFFFFFFFFFFFFFFFFFFFFFFFFFFFFFFFFFF AND PUSH20 0xFFFFFFFFFFFFFFFFFFFFFFFFFFFFFFFFFFFFFFFF AND DUP2 MSTORE PUSH1 0x20 ADD SWAP1 DUP2 MSTORE PUSH1 0x20 ADD PUSH1 0x0 KECCAK256 PUSH1 0x1 ADD SLOAD PUSH2 0x1143 SWAP2 SWAP1 PUSH2 0x270D JUMP JUMPDEST PUSH1 0x4 PUSH1 0x0 DUP10 PUSH20 0xFFFFFFFFFFFFFFFFFFFFFFFFFFFFFFFFFFFFFFFF AND PUSH20 0xFFFFFFFFFFFFFFFFFFFFFFFFFFFFFFFFFFFFFFFF AND DUP2 MSTORE PUSH1 0x20 ADD SWAP1 DUP2 MSTORE PUSH1 0x20 ADD PUSH1 0x0 KECCAK256 PUSH1 0x0 ADD SLOAD PUSH2 0x1190 SWAP2 SWAP1 PUSH2 0x264D JUMP JUMPDEST PUSH2 0x119A SWAP2 SWAP1 PUSH2 0x270D JUMP JUMPDEST SWAP1 POP DUP6 PUSH20 0xFFFFFFFFFFFFFFFFFFFFFFFFFFFFFFFFFFFFFFFF AND PUSH2 0x8FC DUP3 SWAP1 DUP2 ISZERO MUL SWAP1 PUSH1 0x40 MLOAD PUSH1 0x0 PUSH1 0x40 MLOAD DUP1 DUP4 SUB DUP2 DUP6 DUP9 DUP9 CALL SWAP4 POP POP POP POP ISZERO DUP1 ISZERO PUSH2 0x11E2 JUMPI RETURNDATASIZE PUSH1 0x0 DUP1 RETURNDATACOPY RETURNDATASIZE PUSH1 0x0 REVERT JUMPDEST POP PUSH1 0x0 PUSH1 0x4 PUSH1 0x0 DUP9 PUSH20 0xFFFFFFFFFFFFFFFFFFFFFFFFFFFFFFFFFFFFFFFF AND PUSH20 0xFFFFFFFFFFFFFFFFFFFFFFFFFFFFFFFFFFFFFFFF AND DUP2 MSTORE PUSH1 0x20 ADD SWAP1 DUP2 MSTORE PUSH1 0x20 ADD PUSH1 0x0 KECCAK256 PUSH1 0x0 ADD SLOAD EQ ISZERO PUSH2 0x128C JUMPI DUP1 PUSH1 0x4 PUSH1 0x0 DUP9 PUSH20 0xFFFFFFFFFFFFFFFFFFFFFFFFFFFFFFFFFFFFFFFF AND PUSH20 0xFFFFFFFFFFFFFFFFFFFFFFFFFFFFFFFFFFFFFFFF AND DUP2 MSTORE PUSH1 0x20 ADD SWAP1 DUP2 MSTORE PUSH1 0x20 ADD PUSH1 0x0 KECCAK256 PUSH1 0x1 ADD PUSH1 0x0 DUP3 DUP3 SLOAD PUSH2 0x1280 SWAP2 SWAP1 PUSH2 0x28AF JUMP JUMPDEST SWAP3 POP POP DUP2 SWAP1 SSTORE POP PUSH2 0x1401 JUMP JUMPDEST PUSH1 0x0 PUSH1 0x4 PUSH1 0x0 DUP9 PUSH20 0xFFFFFFFFFFFFFFFFFFFFFFFFFFFFFFFFFFFFFFFF AND PUSH20 0xFFFFFFFFFFFFFFFFFFFFFFFFFFFFFFFFFFFFFFFF AND DUP2 MSTORE PUSH1 0x20 ADD SWAP1 DUP2 MSTORE PUSH1 0x20 ADD PUSH1 0x0 KECCAK256 PUSH1 0x1 ADD SLOAD EQ ISZERO PUSH2 0x1335 JUMPI DUP1 PUSH1 0x4 PUSH1 0x0 DUP9 PUSH20 0xFFFFFFFFFFFFFFFFFFFFFFFFFFFFFFFFFFFFFFFF AND PUSH20 0xFFFFFFFFFFFFFFFFFFFFFFFFFFFFFFFFFFFFFFFF AND DUP2 MSTORE PUSH1 0x20 ADD SWAP1 DUP2 MSTORE PUSH1 0x20 ADD PUSH1 0x0 KECCAK256 PUSH1 0x0 ADD PUSH1 0x0 DUP3 DUP3 SLOAD PUSH2 0x1329 SWAP2 SWAP1 PUSH2 0x28AF JUMP JUMPDEST SWAP3 POP POP DUP2 SWAP1 SSTORE POP PUSH2 0x1400 JUMP JUMPDEST PUSH1 0x2 DUP2 PUSH2 0x1342 SWAP2 SWAP1 PUSH2 0x270D JUMP JUMPDEST PUSH1 0x4 PUSH1 0x0 DUP9 PUSH20 0xFFFFFFFFFFFFFFFFFFFFFFFFFFFFFFFFFFFFFFFF AND PUSH20 0xFFFFFFFFFFFFFFFFFFFFFFFFFFFFFFFFFFFFFFFF AND DUP2 MSTORE PUSH1 0x20 ADD SWAP1 DUP2 MSTORE PUSH1 0x20 ADD PUSH1 0x0 KECCAK256 PUSH1 0x0 ADD PUSH1 0x0 DUP3 DUP3 SLOAD PUSH2 0x1393 SWAP2 SWAP1 PUSH2 0x28AF JUMP JUMPDEST SWAP3 POP POP DUP2 SWAP1 SSTORE POP PUSH1 0x2 DUP2 PUSH2 0x13A7 SWAP2 SWAP1 PUSH2 0x270D JUMP JUMPDEST PUSH1 0x4 PUSH1 0x0 DUP9 PUSH20 0xFFFFFFFFFFFFFFFFFFFFFFFFFFFFFFFFFFFFFFFF AND PUSH20 0xFFFFFFFFFFFFFFFFFFFFFFFFFFFFFFFFFFFFFFFF AND DUP2 MSTORE PUSH1 0x20 ADD SWAP1 DUP2 MSTORE PUSH1 0x20 ADD PUSH1 0x0 KECCAK256 PUSH1 0x1 ADD PUSH1 0x0 DUP3 DUP3 SLOAD PUSH2 0x13F8 SWAP2 SWAP1 PUSH2 0x28AF JUMP JUMPDEST SWAP3 POP POP DUP2 SWAP1 SSTORE POP JUMPDEST JUMPDEST DUP6 PUSH20 0xFFFFFFFFFFFFFFFFFFFFFFFFFFFFFFFFFFFFFFFF AND PUSH32 0x9CD516BC314CA50BB8F1F5602D3F202CDCBF17B89DA33DD13C3909D5D3C00A32 DUP3 TIMESTAMP PUSH1 0x40 MLOAD PUSH2 0x1449 SWAP3 SWAP2 SWAP1 PUSH2 0x257F JUMP JUMPDEST PUSH1 0x40 MLOAD DUP1 SWAP2 SUB SWAP1 LOG2 DUP1 TIMESTAMP SWAP5 POP SWAP5 POP POP POP POP PUSH1 0x0 PUSH1 0xC PUSH1 0x14 PUSH2 0x100 EXP DUP2 SLOAD DUP2 PUSH1 0xFF MUL NOT AND SWAP1 DUP4 ISZERO ISZERO MUL OR SWAP1 SSTORE POP SWAP2 POP SWAP2 JUMP JUMPDEST PUSH1 0x0 PUSH1 0xC PUSH1 0x14 SWAP1 SLOAD SWAP1 PUSH2 0x100 EXP SWAP1 DIV PUSH1 0xFF AND ISZERO PUSH2 0x1496 JUMPI PUSH1 0x0 DUP1 REVERT JUMPDEST PUSH1 0x1 PUSH1 0xC PUSH1 0x14 PUSH2 0x100 EXP DUP2 SLOAD DUP2 PUSH1 0xFF MUL NOT AND SWAP1 DUP4 ISZERO ISZERO MUL OR SWAP1 SSTORE POP CALLVALUE CALLER PUSH20 0xFFFFFFFFFFFFFFFFFFFFFFFFFFFFFFFFFFFFFFFF AND BALANCE LT ISZERO PUSH2 0x150B JUMPI PUSH1 0x40 MLOAD PUSH32 0x8C379A000000000000000000000000000000000000000000000000000000000 DUP2 MSTORE PUSH1 0x4 ADD PUSH2 0x1502 SWAP1 PUSH2 0x2496 JUMP JUMPDEST PUSH1 0x40 MLOAD DUP1 SWAP2 SUB SWAP1 REVERT JUMPDEST PUSH1 0x1 CALLVALUE LT ISZERO PUSH2 0x154F JUMPI PUSH1 0x40 MLOAD PUSH32 0x8C379A000000000000000000000000000000000000000000000000000000000 DUP2 MSTORE PUSH1 0x4 ADD PUSH2 0x1546 SWAP1 PUSH2 0x2476 JUMP JUMPDEST PUSH1 0x40 MLOAD DUP1 SWAP2 SUB SWAP1 REVERT JUMPDEST PUSH1 0x0 DUP1 PUSH2 0x155A PUSH2 0x2016 JUMP JUMPDEST SWAP2 POP SWAP2 POP PUSH1 0x1 ISZERO ISZERO PUSH2 0x156B CALLER PUSH2 0xCDD JUMP JUMPDEST ISZERO ISZERO EQ ISZERO PUSH2 0x17AC JUMPI DUP2 CALLVALUE PUSH2 0x157F SWAP2 SWAP1 PUSH2 0x273E JUMP JUMPDEST PUSH1 0xB PUSH1 0x0 CALLER PUSH20 0xFFFFFFFFFFFFFFFFFFFFFFFFFFFFFFFFFFFFFFFF AND PUSH20 0xFFFFFFFFFFFFFFFFFFFFFFFFFFFFFFFFFFFFFFFF AND DUP2 MSTORE PUSH1 0x20 ADD SWAP1 DUP2 MSTORE PUSH1 0x20 ADD PUSH1 0x0 KECCAK256 PUSH1 0x1 ADD PUSH1 0x0 DUP3 DUP3 SLOAD PUSH2 0x15D0 SWAP2 SWAP1 PUSH2 0x25B9 JUMP JUMPDEST SWAP3 POP POP DUP2 SWAP1 SSTORE POP PUSH1 0xB PUSH1 0x0 CALLER PUSH20 0xFFFFFFFFFFFFFFFFFFFFFFFFFFFFFFFFFFFFFFFF AND PUSH20 0xFFFFFFFFFFFFFFFFFFFFFFFFFFFFFFFFFFFFFFFF AND DUP2 MSTORE PUSH1 0x20 ADD SWAP1 DUP2 MSTORE PUSH1 0x20 ADD PUSH1 0x0 KECCAK256 PUSH1 0x2 ADD PUSH1 0x0 DUP2 SLOAD DUP1 SWAP3 SWAP2 SWAP1 PUSH2 0x162A SWAP1 PUSH2 0x29E9 JUMP JUMPDEST SWAP2 SWAP1 POP SSTORE POP PUSH1 0x5 PUSH1 0x0 SWAP1 SLOAD SWAP1 PUSH2 0x100 EXP SWAP1 DIV PUSH20 0xFFFFFFFFFFFFFFFFFFFFFFFFFFFFFFFFFFFFFFFF AND PUSH20 0xFFFFFFFFFFFFFFFFFFFFFFFFFFFFFFFFFFFFFFFF AND PUSH4 0x23B872DD CALLER ADDRESS CALLVALUE PUSH1 0x40 MLOAD DUP5 PUSH4 0xFFFFFFFF AND PUSH1 0xE0 SHL DUP2 MSTORE PUSH1 0x4 ADD PUSH2 0x168E SWAP4 SWAP3 SWAP2 SWAP1 PUSH2 0x23D3 JUMP JUMPDEST PUSH1 0x20 PUSH1 0x40 MLOAD DUP1 DUP4 SUB DUP2 PUSH1 0x0 DUP8 DUP1 EXTCODESIZE ISZERO DUP1 ISZERO PUSH2 0x16A8 JUMPI PUSH1 0x0 DUP1 REVERT JUMPDEST POP GAS CALL ISZERO DUP1 ISZERO PUSH2 0x16BC JUMPI RETURNDATASIZE PUSH1 0x0 DUP1 RETURNDATACOPY RETURNDATASIZE PUSH1 0x0 REVERT JUMPDEST POP POP POP POP PUSH1 0x40 MLOAD RETURNDATASIZE PUSH1 0x1F NOT PUSH1 0x1F DUP3 ADD AND DUP3 ADD DUP1 PUSH1 0x40 MSTORE POP DUP2 ADD SWAP1 PUSH2 0x16E0 SWAP2 SWAP1 PUSH2 0x221D JUMP JUMPDEST POP CALLVALUE PUSH1 0x4 PUSH1 0x0 DUP7 PUSH20 0xFFFFFFFFFFFFFFFFFFFFFFFFFFFFFFFFFFFFFFFF AND PUSH20 0xFFFFFFFFFFFFFFFFFFFFFFFFFFFFFFFFFFFFFFFF AND DUP2 MSTORE PUSH1 0x20 ADD SWAP1 DUP2 MSTORE PUSH1 0x20 ADD PUSH1 0x0 KECCAK256 PUSH1 0x1 ADD PUSH1 0x0 DUP3 DUP3 SLOAD PUSH2 0x1733 SWAP2 SWAP1 PUSH2 0x264D JUMP JUMPDEST SWAP3 POP POP DUP2 SWAP1 SSTORE POP DUP4 PUSH20 0xFFFFFFFFFFFFFFFFFFFFFFFFFFFFFFFFFFFFFFFF AND CALLER PUSH20 0xFFFFFFFFFFFFFFFFFFFFFFFFFFFFFFFFFFFFFFFF AND PUSH32 0xADBBBBC8C9E65E88422D75C3D3CB93F41A5D520A2CA71C815348334DE8C49121 CALLVALUE TIMESTAMP PUSH1 0x40 MLOAD PUSH2 0x1799 SWAP3 SWAP2 SWAP1 PUSH2 0x257F JUMP JUMPDEST PUSH1 0x40 MLOAD DUP1 SWAP2 SUB SWAP1 LOG3 PUSH1 0x1 SWAP3 POP POP POP PUSH2 0x1AB3 JUMP JUMPDEST PUSH1 0xA PUSH1 0x0 DUP2 SLOAD DUP1 SWAP3 SWAP2 SWAP1 PUSH2 0x17BF SWAP1 PUSH2 0x29E9 JUMP JUMPDEST SWAP2 SWAP1 POP SSTORE POP PUSH1 0xA SLOAD PUSH1 0xB PUSH1 0x0 CALLER PUSH20 0xFFFFFFFFFFFFFFFFFFFFFFFFFFFFFFFFFFFFFFFF AND PUSH20 0xFFFFFFFFFFFFFFFFFFFFFFFFFFFFFFFFFFFFFFFF AND DUP2 MSTORE PUSH1 0x20 ADD SWAP1 DUP2 MSTORE PUSH1 0x20 ADD PUSH1 0x0 KECCAK256 PUSH1 0x0 ADD DUP2 SWAP1 SSTORE POP DUP2 CALLVALUE PUSH2 0x1819 SWAP2 SWAP1 PUSH2 0x273E JUMP JUMPDEST PUSH1 0xB PUSH1 0x0 CALLER PUSH20 0xFFFFFFFFFFFFFFFFFFFFFFFFFFFFFFFFFFFFFFFF AND PUSH20 0xFFFFFFFFFFFFFFFFFFFFFFFFFFFFFFFFFFFFFFFF AND DUP2 MSTORE PUSH1 0x20 ADD SWAP1 DUP2 MSTORE PUSH1 0x20 ADD PUSH1 0x0 KECCAK256 PUSH1 0x1 ADD PUSH1 0x0 DUP3 DUP3 SLOAD PUSH2 0x186A SWAP2 SWAP1 PUSH2 0x25B9 JUMP JUMPDEST SWAP3 POP POP DUP2 SWAP1 SSTORE POP CALLER PUSH1 0xB PUSH1 0x0 CALLER PUSH20 0xFFFFFFFFFFFFFFFFFFFFFFFFFFFFFFFFFFFFFFFF AND PUSH20 0xFFFFFFFFFFFFFFFFFFFFFFFFFFFFFFFFFFFFFFFF AND DUP2 MSTORE PUSH1 0x20 ADD SWAP1 DUP2 MSTORE PUSH1 0x20 ADD PUSH1 0x0 KECCAK256 PUSH1 0x3 ADD PUSH1 0x0 PUSH2 0x100 EXP DUP2 SLOAD DUP2 PUSH20 0xFFFFFFFFFFFFFFFFFFFFFFFFFFFFFFFFFFFFFFFF MUL NOT AND SWAP1 DUP4 PUSH20 0xFFFFFFFFFFFFFFFFFFFFFFFFFFFFFFFFFFFFFFFF AND MUL OR SWAP1 SSTORE POP PUSH1 0x1 PUSH1 0xB PUSH1 0x0 CALLER PUSH20 0xFFFFFFFFFFFFFFFFFFFFFFFFFFFFFFFFFFFFFFFF AND PUSH20 0xFFFFFFFFFFFFFFFFFFFFFFFFFFFFFFFFFFFFFFFF AND DUP2 MSTORE PUSH1 0x20 ADD SWAP1 DUP2 MSTORE PUSH1 0x20 ADD PUSH1 0x0 KECCAK256 PUSH1 0x2 ADD DUP2 SWAP1 SSTORE POP PUSH1 0x5 PUSH1 0x0 SWAP1 SLOAD SWAP1 PUSH2 0x100 EXP SWAP1 DIV PUSH20 0xFFFFFFFFFFFFFFFFFFFFFFFFFFFFFFFFFFFFFFFF AND PUSH20 0xFFFFFFFFFFFFFFFFFFFFFFFFFFFFFFFFFFFFFFFF AND PUSH4 0x23B872DD CALLER ADDRESS CALLVALUE PUSH1 0x40 MLOAD DUP5 PUSH4 0xFFFFFFFF AND PUSH1 0xE0 SHL DUP2 MSTORE PUSH1 0x4 ADD PUSH2 0x1999 SWAP4 SWAP3 SWAP2 SWAP1 PUSH2 0x23D3 JUMP JUMPDEST PUSH1 0x20 PUSH1 0x40 MLOAD DUP1 DUP4 SUB DUP2 PUSH1 0x0 DUP8 DUP1 EXTCODESIZE ISZERO DUP1 ISZERO PUSH2 0x19B3 JUMPI PUSH1 0x0 DUP1 REVERT JUMPDEST POP GAS CALL ISZERO DUP1 ISZERO PUSH2 0x19C7 JUMPI RETURNDATASIZE PUSH1 0x0 DUP1 RETURNDATACOPY RETURNDATASIZE PUSH1 0x0 REVERT JUMPDEST POP POP POP POP PUSH1 0x40 MLOAD RETURNDATASIZE PUSH1 0x1F NOT PUSH1 0x1F DUP3 ADD AND DUP3 ADD DUP1 PUSH1 0x40 MSTORE POP DUP2 ADD SWAP1 PUSH2 0x19EB SWAP2 SWAP1 PUSH2 0x221D JUMP JUMPDEST POP CALLVALUE PUSH1 0x4 PUSH1 0x0 DUP7 PUSH20 0xFFFFFFFFFFFFFFFFFFFFFFFFFFFFFFFFFFFFFFFF AND PUSH20 0xFFFFFFFFFFFFFFFFFFFFFFFFFFFFFFFFFFFFFFFF AND DUP2 MSTORE PUSH1 0x20 ADD SWAP1 DUP2 MSTORE PUSH1 0x20 ADD PUSH1 0x0 KECCAK256 PUSH1 0x1 ADD PUSH1 0x0 DUP3 DUP3 SLOAD PUSH2 0x1A3E SWAP2 SWAP1 PUSH2 0x264D JUMP JUMPDEST SWAP3 POP POP DUP2 SWAP1 SSTORE POP DUP4 PUSH20 0xFFFFFFFFFFFFFFFFFFFFFFFFFFFFFFFFFFFFFFFF AND CALLER PUSH20 0xFFFFFFFFFFFFFFFFFFFFFFFFFFFFFFFFFFFFFFFF AND PUSH32 0xADBBBBC8C9E65E88422D75C3D3CB93F41A5D520A2CA71C815348334DE8C49121 CALLVALUE TIMESTAMP PUSH1 0x40 MLOAD PUSH2 0x1AA4 SWAP3 SWAP2 SWAP1 PUSH2 0x257F JUMP JUMPDEST PUSH1 0x40 MLOAD DUP1 SWAP2 SUB SWAP1 LOG3 PUSH1 0x1 SWAP3 POP POP POP JUMPDEST PUSH1 0x0 PUSH1 0xC PUSH1 0x14 PUSH2 0x100 EXP DUP2 SLOAD DUP2 PUSH1 0xFF MUL NOT AND SWAP1 DUP4 ISZERO ISZERO MUL OR SWAP1 SSTORE POP SWAP2 SWAP1 POP JUMP JUMPDEST PUSH1 0x4 PUSH1 0x20 MSTORE DUP1 PUSH1 0x0 MSTORE PUSH1 0x40 PUSH1 0x0 KECCAK256 PUSH1 0x0 SWAP2 POP SWAP1 POP DUP1 PUSH1 0x0 ADD SLOAD SWAP1 DUP1 PUSH1 0x1 ADD SLOAD SWAP1 POP DUP3 JUMP JUMPDEST PUSH1 0x0 DUP1 PUSH1 0xC PUSH1 0x14 SWAP1 SLOAD SWAP1 PUSH2 0x100 EXP SWAP1 DIV PUSH1 0xFF AND ISZERO PUSH2 0x1B14 JUMPI PUSH1 0x0 DUP1 REVERT JUMPDEST PUSH1 0x1 PUSH1 0xC PUSH1 0x14 PUSH2 0x100 EXP DUP2 SLOAD DUP2 PUSH1 0xFF MUL NOT AND SWAP1 DUP4 ISZERO ISZERO MUL OR SWAP1 SSTORE POP PUSH1 0x0 DUP1 PUSH2 0x1B3A PUSH2 0x2016 JUMP JUMPDEST SWAP2 POP SWAP2 POP PUSH1 0x0 PUSH1 0xC PUSH1 0x4 PUSH1 0x0 DUP9 PUSH20 0xFFFFFFFFFFFFFFFFFFFFFFFFFFFFFFFFFFFFFFFF AND PUSH20 0xFFFFFFFFFFFFFFFFFFFFFFFFFFFFFFFFFFFFFFFF AND DUP2 MSTORE PUSH1 0x20 ADD SWAP1 DUP2 MSTORE PUSH1 0x20 ADD PUSH1 0x0 KECCAK256 PUSH1 0x1 ADD SLOAD DUP5 PUSH1 0x4 PUSH1 0x0 DUP11 PUSH20 0xFFFFFFFFFFFFFFFFFFFFFFFFFFFFFFFFFFFFFFFF AND PUSH20 0xFFFFFFFFFFFFFFFFFFFFFFFFFFFFFFFFFFFFFFFF AND DUP2 MSTORE PUSH1 0x20 ADD SWAP1 DUP2 MSTORE PUSH1 0x20 ADD PUSH1 0x0 KECCAK256 PUSH1 0x0 ADD SLOAD PUSH2 0x1BD3 SWAP2 SWAP1 PUSH2 0x2855 JUMP JUMPDEST PUSH2 0x1BDD SWAP2 SWAP1 PUSH2 0x264D JUMP JUMPDEST PUSH2 0x1BE7 SWAP2 SWAP1 PUSH2 0x270D JUMP JUMPDEST SWAP1 POP DUP1 PUSH1 0x4 PUSH1 0x0 DUP9 PUSH20 0xFFFFFFFFFFFFFFFFFFFFFFFFFFFFFFFFFFFFFFFF AND PUSH20 0xFFFFFFFFFFFFFFFFFFFFFFFFFFFFFFFFFFFFFFFF AND DUP2 MSTORE PUSH1 0x20 ADD SWAP1 DUP2 MSTORE PUSH1 0x20 ADD PUSH1 0x0 KECCAK256 PUSH1 0x1 ADD SLOAD GT PUSH2 0x1C6D JUMPI PUSH1 0x40 MLOAD PUSH32 0x8C379A000000000000000000000000000000000000000000000000000000000 DUP2 MSTORE PUSH1 0x4 ADD PUSH2 0x1C64 SWAP1 PUSH2 0x24B6 JUMP JUMPDEST PUSH1 0x40 MLOAD DUP1 SWAP2 SUB SWAP1 REVERT JUMPDEST DUP6 PUSH20 0xFFFFFFFFFFFFFFFFFFFFFFFFFFFFFFFFFFFFFFFF AND PUSH2 0x8FC DUP3 SWAP1 DUP2 ISZERO MUL SWAP1 PUSH1 0x40 MLOAD PUSH1 0x0 PUSH1 0x40 MLOAD DUP1 DUP4 SUB DUP2 DUP6 DUP9 DUP9 CALL SWAP4 POP POP POP POP ISZERO DUP1 ISZERO PUSH2 0x1CB3 JUMPI RETURNDATASIZE PUSH1 0x0 DUP1 RETURNDATACOPY RETURNDATASIZE PUSH1 0x0 REVERT JUMPDEST POP PUSH1 0x0 PUSH1 0x4 PUSH1 0x0 DUP9 PUSH20 0xFFFFFFFFFFFFFFFFFFFFFFFFFFFFFFFFFFFFFFFF AND PUSH20 0xFFFFFFFFFFFFFFFFFFFFFFFFFFFFFFFFFFFFFFFF AND DUP2 MSTORE PUSH1 0x20 ADD SWAP1 DUP2 MSTORE PUSH1 0x20 ADD PUSH1 0x0 KECCAK256 PUSH1 0x0 ADD SLOAD EQ ISZERO PUSH2 0x1D5D JUMPI DUP1 PUSH1 0x4 PUSH1 0x0 DUP9 PUSH20 0xFFFFFFFFFFFFFFFFFFFFFFFFFFFFFFFFFFFFFFFF AND PUSH20 0xFFFFFFFFFFFFFFFFFFFFFFFFFFFFFFFFFFFFFFFF AND DUP2 MSTORE PUSH1 0x20 ADD SWAP1 DUP2 MSTORE PUSH1 0x20 ADD PUSH1 0x0 KECCAK256 PUSH1 0x1 ADD PUSH1 0x0 DUP3 DUP3 SLOAD PUSH2 0x1D51 SWAP2 SWAP1 PUSH2 0x28AF JUMP JUMPDEST SWAP3 POP POP DUP2 SWAP1 SSTORE POP PUSH2 0x1ED2 JUMP JUMPDEST PUSH1 0x0 PUSH1 0x4 PUSH1 0x0 DUP9 PUSH20 0xFFFFFFFFFFFFFFFFFFFFFFFFFFFFFFFFFFFFFFFF AND PUSH20 0xFFFFFFFFFFFFFFFFFFFFFFFFFFFFFFFFFFFFFFFF AND DUP2 MSTORE PUSH1 0x20 ADD SWAP1 DUP2 MSTORE PUSH1 0x20 ADD PUSH1 0x0 KECCAK256 PUSH1 0x1 ADD SLOAD EQ ISZERO PUSH2 0x1E06 JUMPI DUP1 PUSH1 0x4 PUSH1 0x0 DUP9 PUSH20 0xFFFFFFFFFFFFFFFFFFFFFFFFFFFFFFFFFFFFFFFF AND PUSH20 0xFFFFFFFFFFFFFFFFFFFFFFFFFFFFFFFFFFFFFFFF AND DUP2 MSTORE PUSH1 0x20 ADD SWAP1 DUP2 MSTORE PUSH1 0x20 ADD PUSH1 0x0 KECCAK256 PUSH1 0x0 ADD PUSH1 0x0 DUP3 DUP3 SLOAD PUSH2 0x1DFA SWAP2 SWAP1 PUSH2 0x28AF JUMP JUMPDEST SWAP3 POP POP DUP2 SWAP1 SSTORE POP PUSH2 0x1ED1 JUMP JUMPDEST PUSH1 0x2 DUP2 PUSH2 0x1E13 SWAP2 SWAP1 PUSH2 0x270D JUMP JUMPDEST PUSH1 0x4 PUSH1 0x0 DUP9 PUSH20 0xFFFFFFFFFFFFFFFFFFFFFFFFFFFFFFFFFFFFFFFF AND PUSH20 0xFFFFFFFFFFFFFFFFFFFFFFFFFFFFFFFFFFFFFFFF AND DUP2 MSTORE PUSH1 0x20 ADD SWAP1 DUP2 MSTORE PUSH1 0x20 ADD PUSH1 0x0 KECCAK256 PUSH1 0x0 ADD PUSH1 0x0 DUP3 DUP3 SLOAD PUSH2 0x1E64 SWAP2 SWAP1 PUSH2 0x28AF JUMP JUMPDEST SWAP3 POP POP DUP2 SWAP1 SSTORE POP PUSH1 0x2 DUP2 PUSH2 0x1E78 SWAP2 SWAP1 PUSH2 0x270D JUMP JUMPDEST PUSH1 0x4 PUSH1 0x0 DUP9 PUSH20 0xFFFFFFFFFFFFFFFFFFFFFFFFFFFFFFFFFFFFFFFF AND PUSH20 0xFFFFFFFFFFFFFFFFFFFFFFFFFFFFFFFFFFFFFFFF AND DUP2 MSTORE PUSH1 0x20 ADD SWAP1 DUP2 MSTORE PUSH1 0x20 ADD PUSH1 0x0 KECCAK256 PUSH1 0x1 ADD PUSH1 0x0 DUP3 DUP3 SLOAD PUSH2 0x1EC9 SWAP2 SWAP1 PUSH2 0x28AF JUMP JUMPDEST SWAP3 POP POP DUP2 SWAP1 SSTORE POP JUMPDEST JUMPDEST DUP1 PUSH1 0x4 PUSH1 0x0 DUP9 PUSH20 0xFFFFFFFFFFFFFFFFFFFFFFFFFFFFFFFFFFFFFFFF AND PUSH20 0xFFFFFFFFFFFFFFFFFFFFFFFFFFFFFFFFFFFFFFFF AND DUP2 MSTORE PUSH1 0x20 ADD SWAP1 DUP2 MSTORE PUSH1 0x20 ADD PUSH1 0x0 KECCAK256 PUSH1 0x0 ADD PUSH1 0x0 DUP3 DUP3 SLOAD PUSH2 0x1F24 SWAP2 SWAP1 PUSH2 0x28AF JUMP JUMPDEST SWAP3 POP POP DUP2 SWAP1 SSTORE POP DUP6 PUSH20 0xFFFFFFFFFFFFFFFFFFFFFFFFFFFFFFFFFFFFFFFF AND PUSH32 0x9CD516BC314CA50BB8F1F5602D3F202CDCBF17B89DA33DD13C3909D5D3C00A32 DUP3 TIMESTAMP PUSH1 0x40 MLOAD PUSH2 0x1F73 SWAP3 SWAP2 SWAP1 PUSH2 0x257F JUMP JUMPDEST PUSH1 0x40 MLOAD DUP1 SWAP2 SUB SWAP1 LOG2 DUP1 TIMESTAMP SWAP5 POP SWAP5 POP POP POP POP PUSH1 0x0 PUSH1 0xC PUSH1 0x14 PUSH2 0x100 EXP DUP2 SLOAD DUP2 PUSH1 0xFF MUL NOT AND SWAP1 DUP4 ISZERO ISZERO MUL OR SWAP1 SSTORE POP SWAP2 POP SWAP2 JUMP JUMPDEST PUSH1 0x3 PUSH1 0x0 SWAP1 SLOAD SWAP1 PUSH2 0x100 EXP SWAP1 DIV PUSH20 0xFFFFFFFFFFFFFFFFFFFFFFFFFFFFFFFFFFFFFFFF AND DUP2 JUMP JUMPDEST PUSH1 0x1 PUSH1 0x0 SWAP1 SLOAD SWAP1 PUSH2 0x100 EXP SWAP1 DIV PUSH20 0xFFFFFFFFFFFFFFFFFFFFFFFFFFFFFFFFFFFFFFFF AND DUP2 JUMP JUMPDEST PUSH1 0x2 PUSH1 0x0 SWAP1 SLOAD SWAP1 PUSH2 0x100 EXP SWAP1 DIV PUSH20 0xFFFFFFFFFFFFFFFFFFFFFFFFFFFFFFFFFFFFFFFF AND DUP2 JUMP JUMPDEST PUSH1 0x0 DUP1 PUSH1 0x2 PUSH1 0x0 SWAP1 SLOAD SWAP1 PUSH2 0x100 EXP SWAP1 DIV PUSH20 0xFFFFFFFFFFFFFFFFFFFFFFFFFFFFFFFFFFFFFFFF AND PUSH20 0xFFFFFFFFFFFFFFFFFFFFFFFFFFFFFFFFFFFFFFFF AND PUSH4 0x43183834 PUSH1 0x40 MLOAD DUP2 PUSH4 0xFFFFFFFF AND PUSH1 0xE0 SHL DUP2 MSTORE PUSH1 0x4 ADD PUSH1 0x80 PUSH1 0x40 MLOAD DUP1 DUP4 SUB DUP2 DUP7 DUP1 EXTCODESIZE ISZERO DUP1 ISZERO PUSH2 0x2081 JUMPI PUSH1 0x0 DUP1 REVERT JUMPDEST POP GAS STATICCALL ISZERO DUP1 ISZERO PUSH2 0x2095 JUMPI RETURNDATASIZE PUSH1 0x0 DUP1 RETURNDATACOPY RETURNDATASIZE PUSH1 0x0 REVERT JUMPDEST POP POP POP POP PUSH1 0x40 MLOAD RETURNDATASIZE PUSH1 0x1F NOT PUSH1 0x1F DUP3 ADD AND DUP3 ADD DUP1 PUSH1 0x40 MSTORE POP DUP2 ADD SWAP1 PUSH2 0x20B9 SWAP2 SWAP1 PUSH2 0x2277 JUMP JUMPDEST SWAP1 POP POP DUP1 SWAP3 POP DUP2 SWAP4 POP POP POP SWAP1 SWAP2 JUMP JUMPDEST PUSH1 0x0 DUP2 CALLDATALOAD SWAP1 POP PUSH2 0x20D7 DUP2 PUSH2 0x2B5F JUMP JUMPDEST SWAP3 SWAP2 POP POP JUMP JUMPDEST PUSH1 0x0 DUP2 CALLDATALOAD SWAP1 POP PUSH2 0x20EC DUP2 PUSH2 0x2B76 JUMP JUMPDEST SWAP3 SWAP2 POP POP JUMP JUMPDEST PUSH1 0x0 DUP2 MLOAD SWAP1 POP PUSH2 0x2101 DUP2 PUSH2 0x2B8D JUMP JUMPDEST SWAP3 SWAP2 POP POP JUMP JUMPDEST PUSH1 0x0 DUP2 MLOAD SWAP1 POP PUSH2 0x2116 DUP2 PUSH2 0x2BA4 JUMP JUMPDEST SWAP3 SWAP2 POP POP JUMP JUMPDEST PUSH1 0x0 DUP2 MLOAD SWAP1 POP PUSH2 0x212B DUP2 PUSH2 0x2BBB JUMP JUMPDEST SWAP3 SWAP2 POP POP JUMP JUMPDEST PUSH1 0x0 DUP2 MLOAD SWAP1 POP PUSH2 0x2140 DUP2 PUSH2 0x2BD2 JUMP JUMPDEST SWAP3 SWAP2 POP POP JUMP JUMPDEST PUSH1 0x0 DUP2 CALLDATALOAD SWAP1 POP PUSH2 0x2155 DUP2 PUSH2 0x2BE9 JUMP JUMPDEST SWAP3 SWAP2 POP POP JUMP JUMPDEST PUSH1 0x0 DUP2 MLOAD SWAP1 POP PUSH2 0x216A DUP2 PUSH2 0x2BE9 JUMP JUMPDEST SWAP3 SWAP2 POP POP JUMP JUMPDEST PUSH1 0x0 PUSH1 0x20 DUP3 DUP5 SUB SLT ISZERO PUSH2 0x2186 JUMPI PUSH2 0x2185 PUSH2 0x2A90 JUMP JUMPDEST JUMPDEST PUSH1 0x0 PUSH2 0x2194 DUP5 DUP3 DUP6 ADD PUSH2 0x20C8 JUMP JUMPDEST SWAP2 POP POP SWAP3 SWAP2 POP POP JUMP JUMPDEST PUSH1 0x0 PUSH1 0x20 DUP3 DUP5 SUB SLT ISZERO PUSH2 0x21B3 JUMPI PUSH2 0x21B2 PUSH2 0x2A90 JUMP JUMPDEST JUMPDEST PUSH1 0x0 PUSH2 0x21C1 DUP5 DUP3 DUP6 ADD PUSH2 0x20DD JUMP JUMPDEST SWAP2 POP POP SWAP3 SWAP2 POP POP JUMP JUMPDEST PUSH1 0x0 DUP1 PUSH1 0x0 PUSH1 0x60 DUP5 DUP7 SUB SLT ISZERO PUSH2 0x21E3 JUMPI PUSH2 0x21E2 PUSH2 0x2A90 JUMP JUMPDEST JUMPDEST PUSH1 0x0 PUSH2 0x21F1 DUP7 DUP3 DUP8 ADD PUSH2 0x20C8 JUMP JUMPDEST SWAP4 POP POP PUSH1 0x20 PUSH2 0x2202 DUP7 DUP3 DUP8 ADD PUSH2 0x20C8 JUMP JUMPDEST SWAP3 POP POP PUSH1 0x40 PUSH2 0x2213 DUP7 DUP3 DUP8 ADD PUSH2 0x2146 JUMP JUMPDEST SWAP2 POP POP SWAP3 POP SWAP3 POP SWAP3 JUMP JUMPDEST PUSH1 0x0 PUSH1 0x20 DUP3 DUP5 SUB SLT ISZERO PUSH2 0x2233 JUMPI PUSH2 0x2232 PUSH2 0x2A90 JUMP JUMPDEST JUMPDEST PUSH1 0x0 PUSH2 0x2241 DUP5 DUP3 DUP6 ADD PUSH2 0x20F2 JUMP JUMPDEST SWAP2 POP POP SWAP3 SWAP2 POP POP JUMP JUMPDEST PUSH1 0x0 PUSH1 0x20 DUP3 DUP5 SUB SLT ISZERO PUSH2 0x2260 JUMPI PUSH2 0x225F PUSH2 0x2A90 JUMP JUMPDEST JUMPDEST PUSH1 0x0 PUSH2 0x226E DUP5 DUP3 DUP6 ADD PUSH2 0x211C JUMP JUMPDEST SWAP2 POP POP SWAP3 SWAP2 POP POP JUMP JUMPDEST PUSH1 0x0 DUP1 PUSH1 0x0 DUP1 PUSH1 0x80 DUP6 DUP8 SUB SLT ISZERO PUSH2 0x2291 JUMPI PUSH2 0x2290 PUSH2 0x2A90 JUMP JUMPDEST JUMPDEST PUSH1 0x0 PUSH2 0x229F DUP8 DUP3 DUP9 ADD PUSH2 0x2131 JUMP JUMPDEST SWAP5 POP POP PUSH1 0x20 PUSH2 0x22B0 DUP8 DUP3 DUP9 ADD PUSH2 0x215B JUMP JUMPDEST SWAP4 POP POP PUSH1 0x40 PUSH2 0x22C1 DUP8 DUP3 DUP9 ADD PUSH2 0x2107 JUMP JUMPDEST SWAP3 POP POP PUSH1 0x60 PUSH2 0x22D2 DUP8 DUP3 DUP9 ADD PUSH2 0x215B JUMP JUMPDEST SWAP2 POP POP SWAP3 SWAP6 SWAP2 SWAP5 POP SWAP3 POP JUMP JUMPDEST PUSH2 0x22E7 DUP2 PUSH2 0x28E3 JUMP JUMPDEST DUP3 MSTORE POP POP JUMP JUMPDEST PUSH2 0x22F6 DUP2 PUSH2 0x2907 JUMP JUMPDEST DUP3 MSTORE POP POP JUMP JUMPDEST PUSH2 0x2305 DUP2 PUSH2 0x298F JUMP JUMPDEST DUP3 MSTORE POP POP JUMP JUMPDEST PUSH2 0x2314 DUP2 PUSH2 0x29A1 JUMP JUMPDEST DUP3 MSTORE POP POP JUMP JUMPDEST PUSH2 0x2323 DUP2 PUSH2 0x29B3 JUMP JUMPDEST DUP3 MSTORE POP POP JUMP JUMPDEST PUSH2 0x2332 DUP2 PUSH2 0x295B JUMP JUMPDEST DUP3 MSTORE POP POP JUMP JUMPDEST PUSH1 0x0 PUSH2 0x2345 PUSH1 0x1B DUP4 PUSH2 0x25A8 JUMP JUMPDEST SWAP2 POP PUSH2 0x2350 DUP3 PUSH2 0x2A95 JUMP JUMPDEST PUSH1 0x20 DUP3 ADD SWAP1 POP SWAP2 SWAP1 POP JUMP JUMPDEST PUSH1 0x0 PUSH2 0x2368 PUSH1 0x1E DUP4 PUSH2 0x25A8 JUMP JUMPDEST SWAP2 POP PUSH2 0x2373 DUP3 PUSH2 0x2ABE JUMP JUMPDEST PUSH1 0x20 DUP3 ADD SWAP1 POP SWAP2 SWAP1 POP JUMP JUMPDEST PUSH1 0x0 PUSH2 0x238B PUSH1 0xF DUP4 PUSH2 0x25A8 JUMP JUMPDEST SWAP2 POP PUSH2 0x2396 DUP3 PUSH2 0x2AE7 JUMP JUMPDEST PUSH1 0x20 DUP3 ADD SWAP1 POP SWAP2 SWAP1 POP JUMP JUMPDEST PUSH1 0x0 PUSH2 0x23AE PUSH1 0x21 DUP4 PUSH2 0x25A8 JUMP JUMPDEST SWAP2 POP PUSH2 0x23B9 DUP3 PUSH2 0x2B10 JUMP JUMPDEST PUSH1 0x40 DUP3 ADD SWAP1 POP SWAP2 SWAP1 POP JUMP JUMPDEST PUSH2 0x23CD DUP2 PUSH2 0x2985 JUMP JUMPDEST DUP3 MSTORE POP POP JUMP JUMPDEST PUSH1 0x0 PUSH1 0x60 DUP3 ADD SWAP1 POP PUSH2 0x23E8 PUSH1 0x0 DUP4 ADD DUP7 PUSH2 0x22DE JUMP JUMPDEST PUSH2 0x23F5 PUSH1 0x20 DUP4 ADD DUP6 PUSH2 0x22DE JUMP JUMPDEST PUSH2 0x2402 PUSH1 0x40 DUP4 ADD DUP5 PUSH2 0x23C4 JUMP JUMPDEST SWAP5 SWAP4 POP POP POP POP JUMP JUMPDEST PUSH1 0x0 PUSH1 0x20 DUP3 ADD SWAP1 POP PUSH2 0x241F PUSH1 0x0 DUP4 ADD DUP5 PUSH2 0x22ED JUMP JUMPDEST SWAP3 SWAP2 POP POP JUMP JUMPDEST PUSH1 0x0 PUSH1 0x20 DUP3 ADD SWAP1 POP PUSH2 0x243A PUSH1 0x0 DUP4 ADD DUP5 PUSH2 0x22FC JUMP JUMPDEST SWAP3 SWAP2 POP POP JUMP JUMPDEST PUSH1 0x0 PUSH1 0x20 DUP3 ADD SWAP1 POP PUSH2 0x2455 PUSH1 0x0 DUP4 ADD DUP5 PUSH2 0x230B JUMP JUMPDEST SWAP3 SWAP2 POP POP JUMP JUMPDEST PUSH1 0x0 PUSH1 0x20 DUP3 ADD SWAP1 POP PUSH2 0x2470 PUSH1 0x0 DUP4 ADD DUP5 PUSH2 0x231A JUMP JUMPDEST SWAP3 SWAP2 POP POP JUMP JUMPDEST PUSH1 0x0 PUSH1 0x20 DUP3 ADD SWAP1 POP DUP2 DUP2 SUB PUSH1 0x0 DUP4 ADD MSTORE PUSH2 0x248F DUP2 PUSH2 0x2338 JUMP JUMPDEST SWAP1 POP SWAP2 SWAP1 POP JUMP JUMPDEST PUSH1 0x0 PUSH1 0x20 DUP3 ADD SWAP1 POP DUP2 DUP2 SUB PUSH1 0x0 DUP4 ADD MSTORE PUSH2 0x24AF DUP2 PUSH2 0x235B JUMP JUMPDEST SWAP1 POP SWAP2 SWAP1 POP JUMP JUMPDEST PUSH1 0x0 PUSH1 0x20 DUP3 ADD SWAP1 POP DUP2 DUP2 SUB PUSH1 0x0 DUP4 ADD MSTORE PUSH2 0x24CF DUP2 PUSH2 0x237E JUMP JUMPDEST SWAP1 POP SWAP2 SWAP1 POP JUMP JUMPDEST PUSH1 0x0 PUSH1 0x20 DUP3 ADD SWAP1 POP DUP2 DUP2 SUB PUSH1 0x0 DUP4 ADD MSTORE PUSH2 0x24EF DUP2 PUSH2 0x23A1 JUMP JUMPDEST SWAP1 POP SWAP2 SWAP1 POP JUMP JUMPDEST PUSH1 0x0 PUSH1 0x20 DUP3 ADD SWAP1 POP PUSH2 0x250B PUSH1 0x0 DUP4 ADD DUP5 PUSH2 0x23C4 JUMP JUMPDEST SWAP3 SWAP2 POP POP JUMP JUMPDEST PUSH1 0x0 PUSH1 0x40 DUP3 ADD SWAP1 POP PUSH2 0x2526 PUSH1 0x0 DUP4 ADD DUP6 PUSH2 0x23C4 JUMP JUMPDEST PUSH2 0x2533 PUSH1 0x20 DUP4 ADD DUP5 PUSH2 0x2329 JUMP JUMPDEST SWAP4 SWAP3 POP POP POP JUMP JUMPDEST PUSH1 0x0 PUSH1 0x80 DUP3 ADD SWAP1 POP PUSH2 0x254F PUSH1 0x0 DUP4 ADD DUP8 PUSH2 0x23C4 JUMP JUMPDEST PUSH2 0x255C PUSH1 0x20 DUP4 ADD DUP7 PUSH2 0x2329 JUMP JUMPDEST PUSH2 0x2569 PUSH1 0x40 DUP4 ADD DUP6 PUSH2 0x23C4 JUMP JUMPDEST PUSH2 0x2576 PUSH1 0x60 DUP4 ADD DUP5 PUSH2 0x22DE JUMP JUMPDEST SWAP6 SWAP5 POP POP POP POP POP JUMP JUMPDEST PUSH1 0x0 PUSH1 0x40 DUP3 ADD SWAP1 POP PUSH2 0x2594 PUSH1 0x0 DUP4 ADD DUP6 PUSH2 0x23C4 JUMP JUMPDEST PUSH2 0x25A1 PUSH1 0x20 DUP4 ADD DUP5 PUSH2 0x23C4 JUMP JUMPDEST SWAP4 SWAP3 POP POP POP JUMP JUMPDEST PUSH1 0x0 DUP3 DUP3 MSTORE PUSH1 0x20 DUP3 ADD SWAP1 POP SWAP3 SWAP2 POP POP JUMP JUMPDEST PUSH1 0x0 PUSH2 0x25C4 DUP3 PUSH2 0x295B JUMP JUMPDEST SWAP2 POP PUSH2 0x25CF DUP4 PUSH2 0x295B JUMP JUMPDEST SWAP3 POP DUP2 PUSH32 0x7FFFFFFFFFFFFFFFFFFFFFFFFFFFFFFFFFFFFFFFFFFFFFFFFFFFFFFFFFFFFFFF SUB DUP4 SGT PUSH1 0x0 DUP4 SLT ISZERO AND ISZERO PUSH2 0x260A JUMPI PUSH2 0x2609 PUSH2 0x2A32 JUMP JUMPDEST JUMPDEST DUP2 PUSH32 0x8000000000000000000000000000000000000000000000000000000000000000 SUB DUP4 SLT PUSH1 0x0 DUP4 SLT AND ISZERO PUSH2 0x2642 JUMPI PUSH2 0x2641 PUSH2 0x2A32 JUMP JUMPDEST JUMPDEST DUP3 DUP3 ADD SWAP1 POP SWAP3 SWAP2 POP POP JUMP JUMPDEST PUSH1 0x0 PUSH2 0x2658 DUP3 PUSH2 0x2985 JUMP JUMPDEST SWAP2 POP PUSH2 0x2663 DUP4 PUSH2 0x2985 JUMP JUMPDEST SWAP3 POP DUP3 PUSH32 0xFFFFFFFFFFFFFFFFFFFFFFFFFFFFFFFFFFFFFFFFFFFFFFFFFFFFFFFFFFFFFFFF SUB DUP3 GT ISZERO PUSH2 0x2698 JUMPI PUSH2 0x2697 PUSH2 0x2A32 JUMP JUMPDEST JUMPDEST DUP3 DUP3 ADD SWAP1 POP SWAP3 SWAP2 POP POP JUMP JUMPDEST PUSH1 0x0 PUSH2 0x26AE DUP3 PUSH2 0x295B JUMP JUMPDEST SWAP2 POP PUSH2 0x26B9 DUP4 PUSH2 0x295B JUMP JUMPDEST SWAP3 POP DUP3 PUSH2 0x26C9 JUMPI PUSH2 0x26C8 PUSH2 0x2A61 JUMP JUMPDEST JUMPDEST PUSH1 0x1 PUSH1 0x0 SUB DUP4 EQ PUSH32 0x8000000000000000000000000000000000000000000000000000000000000000 DUP4 EQ AND ISZERO PUSH2 0x2702 JUMPI PUSH2 0x2701 PUSH2 0x2A32 JUMP JUMPDEST JUMPDEST DUP3 DUP3 SDIV SWAP1 POP SWAP3 SWAP2 POP POP JUMP JUMPDEST PUSH1 0x0 PUSH2 0x2718 DUP3 PUSH2 0x2985 JUMP JUMPDEST SWAP2 POP PUSH2 0x2723 DUP4 PUSH2 0x2985 JUMP JUMPDEST SWAP3 POP DUP3 PUSH2 0x2733 JUMPI PUSH2 0x2732 PUSH2 0x2A61 JUMP JUMPDEST JUMPDEST DUP3 DUP3 DIV SWAP1 POP SWAP3 SWAP2 POP POP JUMP JUMPDEST PUSH1 0x0 PUSH2 0x2749 DUP3 PUSH2 0x295B JUMP JUMPDEST SWAP2 POP PUSH2 0x2754 DUP4 PUSH2 0x295B JUMP JUMPDEST SWAP3 POP DUP3 PUSH32 0x7FFFFFFFFFFFFFFFFFFFFFFFFFFFFFFFFFFFFFFFFFFFFFFFFFFFFFFFFFFFFFFF DIV DUP3 GT PUSH1 0x0 DUP5 SGT PUSH1 0x0 DUP5 SGT AND AND ISZERO PUSH2 0x2793 JUMPI PUSH2 0x2792 PUSH2 0x2A32 JUMP JUMPDEST JUMPDEST DUP2 PUSH32 0x8000000000000000000000000000000000000000000000000000000000000000 SDIV DUP4 SLT PUSH1 0x0 DUP5 SLT PUSH1 0x0 DUP5 SGT AND AND ISZERO PUSH2 0x27D0 JUMPI PUSH2 0x27CF PUSH2 0x2A32 JUMP JUMPDEST JUMPDEST DUP3 PUSH32 0x8000000000000000000000000000000000000000000000000000000000000000 SDIV DUP3 SLT PUSH1 0x0 DUP5 SGT PUSH1 0x0 DUP5 SLT AND AND ISZERO PUSH2 0x280D JUMPI PUSH2 0x280C PUSH2 0x2A32 JUMP JUMPDEST JUMPDEST DUP3 PUSH32 0x7FFFFFFFFFFFFFFFFFFFFFFFFFFFFFFFFFFFFFFFFFFFFFFFFFFFFFFFFFFFFFFF SDIV DUP3 SLT PUSH1 0x0 DUP5 SLT PUSH1 0x0 DUP5 SLT AND AND ISZERO PUSH2 0x284A JUMPI PUSH2 0x2849 PUSH2 0x2A32 JUMP JUMPDEST JUMPDEST DUP3 DUP3 MUL SWAP1 POP SWAP3 SWAP2 POP POP JUMP JUMPDEST PUSH1 0x0 PUSH2 0x2860 DUP3 PUSH2 0x2985 JUMP JUMPDEST SWAP2 POP PUSH2 0x286B DUP4 PUSH2 0x2985 JUMP JUMPDEST SWAP3 POP DUP2 PUSH32 0xFFFFFFFFFFFFFFFFFFFFFFFFFFFFFFFFFFFFFFFFFFFFFFFFFFFFFFFFFFFFFFFF DIV DUP4 GT DUP3 ISZERO ISZERO AND ISZERO PUSH2 0x28A4 JUMPI PUSH2 0x28A3 PUSH2 0x2A32 JUMP JUMPDEST JUMPDEST DUP3 DUP3 MUL SWAP1 POP SWAP3 SWAP2 POP POP JUMP JUMPDEST PUSH1 0x0 PUSH2 0x28BA DUP3 PUSH2 0x2985 JUMP JUMPDEST SWAP2 POP PUSH2 0x28C5 DUP4 PUSH2 0x2985 JUMP JUMPDEST SWAP3 POP DUP3 DUP3 LT ISZERO PUSH2 0x28D8 JUMPI PUSH2 0x28D7 PUSH2 0x2A32 JUMP JUMPDEST JUMPDEST DUP3 DUP3 SUB SWAP1 POP SWAP3 SWAP2 POP POP JUMP JUMPDEST PUSH1 0x0 PUSH2 0x28EE DUP3 PUSH2 0x2965 JUMP JUMPDEST SWAP1 POP SWAP2 SWAP1 POP JUMP JUMPDEST PUSH1 0x0 PUSH2 0x2900 DUP3 PUSH2 0x2965 JUMP JUMPDEST SWAP1 POP SWAP2 SWAP1 POP JUMP JUMPDEST PUSH1 0x0 DUP2 ISZERO ISZERO SWAP1 POP SWAP2 SWAP1 POP JUMP JUMPDEST PUSH1 0x0 DUP2 SWAP1 POP SWAP2 SWAP1 POP JUMP JUMPDEST PUSH1 0x0 PUSH32 0xFFFFFFFF00000000000000000000000000000000000000000000000000000000 DUP3 AND SWAP1 POP SWAP2 SWAP1 POP JUMP JUMPDEST PUSH1 0x0 PUSH2 0x2954 DUP3 PUSH2 0x28E3 JUMP JUMPDEST SWAP1 POP SWAP2 SWAP1 POP JUMP JUMPDEST PUSH1 0x0 DUP2 SWAP1 POP SWAP2 SWAP1 POP JUMP JUMPDEST PUSH1 0x0 PUSH20 0xFFFFFFFFFFFFFFFFFFFFFFFFFFFFFFFFFFFFFFFF DUP3 AND SWAP1 POP SWAP2 SWAP1 POP JUMP JUMPDEST PUSH1 0x0 DUP2 SWAP1 POP SWAP2 SWAP1 POP JUMP JUMPDEST PUSH1 0x0 PUSH2 0x299A DUP3 PUSH2 0x291D JUMP JUMPDEST SWAP1 POP SWAP2 SWAP1 POP JUMP JUMPDEST PUSH1 0x0 PUSH2 0x29AC DUP3 PUSH2 0x29C5 JUMP JUMPDEST SWAP1 POP SWAP2 SWAP1 POP JUMP JUMPDEST PUSH1 0x0 PUSH2 0x29BE DUP3 PUSH2 0x29C5 JUMP JUMPDEST SWAP1 POP SWAP2 SWAP1 POP JUMP JUMPDEST PUSH1 0x0 PUSH2 0x29D0 DUP3 PUSH2 0x29D7 JUMP JUMPDEST SWAP1 POP SWAP2 SWAP1 POP JUMP JUMPDEST PUSH1 0x0 PUSH2 0x29E2 DUP3 PUSH2 0x2965 JUMP JUMPDEST SWAP1 POP SWAP2 SWAP1 POP JUMP JUMPDEST PUSH1 0x0 PUSH2 0x29F4 DUP3 PUSH2 0x2985 JUMP JUMPDEST SWAP2 POP PUSH32 0xFFFFFFFFFFFFFFFFFFFFFFFFFFFFFFFFFFFFFFFFFFFFFFFFFFFFFFFFFFFFFFFF DUP3 EQ ISZERO PUSH2 0x2A27 JUMPI PUSH2 0x2A26 PUSH2 0x2A32 JUMP JUMPDEST JUMPDEST PUSH1 0x1 DUP3 ADD SWAP1 POP SWAP2 SWAP1 POP JUMP JUMPDEST PUSH32 0x4E487B7100000000000000000000000000000000000000000000000000000000 PUSH1 0x0 MSTORE PUSH1 0x11 PUSH1 0x4 MSTORE PUSH1 0x24 PUSH1 0x0 REVERT JUMPDEST PUSH32 0x4E487B7100000000000000000000000000000000000000000000000000000000 PUSH1 0x0 MSTORE PUSH1 0x12 PUSH1 0x4 MSTORE PUSH1 0x24 PUSH1 0x0 REVERT JUMPDEST PUSH1 0x0 DUP1 REVERT JUMPDEST PUSH32 0x5468616E6B7320746F206465706F736974206D6F726520637573640000000000 PUSH1 0x0 DUP3 ADD MSTORE POP JUMP JUMPDEST PUSH32 0x796F75722062616C616E6365206973206E6F742073756666696369656E740000 PUSH1 0x0 DUP3 ADD MSTORE POP JUMP JUMPDEST PUSH32 0x6E6F742073756666696369656E74200000000000000000000000000000000000 PUSH1 0x0 DUP3 ADD MSTORE POP JUMP JUMPDEST PUSH32 0x706C656173652073656E642063656C6F20616D6F756E74203E3D203230205553 PUSH1 0x0 DUP3 ADD MSTORE PUSH32 0x4400000000000000000000000000000000000000000000000000000000000000 PUSH1 0x20 DUP3 ADD MSTORE POP JUMP JUMPDEST PUSH2 0x2B68 DUP2 PUSH2 0x28E3 JUMP JUMPDEST DUP2 EQ PUSH2 0x2B73 JUMPI PUSH1 0x0 DUP1 REVERT JUMPDEST POP JUMP JUMPDEST PUSH2 0x2B7F DUP2 PUSH2 0x28F5 JUMP JUMPDEST DUP2 EQ PUSH2 0x2B8A JUMPI PUSH1 0x0 DUP1 REVERT JUMPDEST POP JUMP JUMPDEST PUSH2 0x2B96 DUP2 PUSH2 0x2907 JUMP JUMPDEST DUP2 EQ PUSH2 0x2BA1 JUMPI PUSH1 0x0 DUP1 REVERT JUMPDEST POP JUMP JUMPDEST PUSH2 0x2BAD DUP2 PUSH2 0x2913 JUMP JUMPDEST DUP2 EQ PUSH2 0x2BB8 JUMPI PUSH1 0x0 DUP1 REVERT JUMPDEST POP JUMP JUMPDEST PUSH2 0x2BC4 DUP2 PUSH2 0x2949 JUMP JUMPDEST DUP2 EQ PUSH2 0x2BCF JUMPI PUSH1 0x0 DUP1 REVERT JUMPDEST POP JUMP JUMPDEST PUSH2 0x2BDB DUP2 PUSH2 0x295B JUMP JUMPDEST DUP2 EQ PUSH2 0x2BE6 JUMPI PUSH1 0x0 DUP1 REVERT JUMPDEST POP JUMP JUMPDEST PUSH2 0x2BF2 DUP2 PUSH2 0x2985 JUMP JUMPDEST DUP2 EQ PUSH2 0x2BFD JUMPI PUSH1 0x0 DUP1 REVERT JUMPDEST POP JUMP INVALID LOG2 PUSH5 0x6970667358 0x22 SLT KECCAK256 GAS 0xBB CALLCODE 0x5F 0xD8 CREATE2 0xD7 0xE4 SWAP1 0xE AND SWAP7 DUP2 DUP11 MSTORE8 CODESIZE 0xBC 0xEC PUSH2 0x8E06 SELFBALANCE 0xAB 0xCD 0x2E 0xBF CODECOPY 0xC2 0xF 0xE3 STATICCALL 0xF7 PUSH5 0x736F6C6343 STOP ADDMOD SMOD STOP CALLER "
				},
				"gasEstimates": {
					"creation": {
						"codeDepositCost": "2263600",
						"executionCost": "infinite",
						"totalCost": "infinite"
					},
					"external": {
						"DepositCelo(address)": "infinite",
						"DepositCusd(address)": "infinite",
						"DepositCusdCredit(address,address,uint256)": "infinite",
						"EthUsdPrice()": "2644",
						"celoEurPrice()": "2666",
						"celoUsdPrice()": "2688",
						"checkDepositExist(address)": "2935",
						"depositToActivist(address)": "infinite",
						"depositersLogs(address)": "infinite",
						"index()": "2497",
						"updateCeloEurPriceFeed()": "infinite",
						"updateCeloUSDPriceFeed()": "infinite",
						"updateEthUsdPriceFeed()": "infinite",
						"withdrowCelo(address)": "infinite",
						"withdrowCusd(address)": "infinite",
						"witnetPriceRouter()": "2664"
					},
					"internal": {
						"getCeloEurPrice()": "infinite",
						"getCeloUsdPrice()": "infinite",
						"getEthUsdPrice()": "infinite"
					}
				},
				"methodIdentifiers": {
					"DepositCelo(address)": "09a61767",
					"DepositCusd(address)": "91cfa8c2",
					"DepositCusdCredit(address,address,uint256)": "7f28ee34",
					"EthUsdPrice()": "b447b0a5",
					"celoEurPrice()": "c8525f81",
					"celoUsdPrice()": "df3d4e32",
					"checkDepositExist(address)": "43d37940",
					"depositToActivist(address)": "aea5da5b",
					"depositersLogs(address)": "80ad10df",
					"index()": "2986c0e5",
					"updateCeloEurPriceFeed()": "35178e87",
					"updateCeloUSDPriceFeed()": "32eb658c",
					"updateEthUsdPriceFeed()": "0fd19c15",
					"withdrowCelo(address)": "893c4a84",
					"withdrowCusd(address)": "b1ddf386",
					"witnetPriceRouter()": "4fc87f24"
				}
			},
			"storageLayout": {
				"storage": [
					{
						"astId": 101,
						"contract": "contracts/Hero_Deposit/Deposit.sol:DepositOracle",
						"label": "witnetPriceRouter",
						"offset": 0,
						"slot": "0",
						"type": "t_contract(IWitnetPriceRouter)1283"
					},
					{
						"astId": 104,
						"contract": "contracts/Hero_Deposit/Deposit.sol:DepositOracle",
						"label": "celoEurPrice",
						"offset": 0,
						"slot": "1",
						"type": "t_contract(IWitnetPriceFeed)1195"
					},
					{
						"astId": 107,
						"contract": "contracts/Hero_Deposit/Deposit.sol:DepositOracle",
						"label": "celoUsdPrice",
						"offset": 0,
						"slot": "2",
						"type": "t_contract(IWitnetPriceFeed)1195"
					},
					{
						"astId": 110,
						"contract": "contracts/Hero_Deposit/Deposit.sol:DepositOracle",
						"label": "EthUsdPrice",
						"offset": 0,
						"slot": "3",
						"type": "t_contract(IWitnetPriceFeed)1195"
					},
					{
						"astId": 129,
						"contract": "contracts/Hero_Deposit/Deposit.sol:DepositOracle",
						"label": "depositToActivist",
						"offset": 0,
						"slot": "4",
						"type": "t_mapping(t_address,t_struct(ativistBank)124_storage)"
					},
					{
						"astId": 132,
						"contract": "contracts/Hero_Deposit/Deposit.sol:DepositOracle",
						"label": "CusdERC",
						"offset": 0,
						"slot": "5",
						"type": "t_contract(IERC20)77"
					},
					{
						"astId": 160,
						"contract": "contracts/Hero_Deposit/Deposit.sol:DepositOracle",
						"label": "dep",
						"offset": 0,
						"slot": "6",
						"type": "t_struct(deposit)119_storage"
					},
					{
						"astId": 163,
						"contract": "contracts/Hero_Deposit/Deposit.sol:DepositOracle",
						"label": "index",
						"offset": 0,
						"slot": "10",
						"type": "t_uint256"
					},
					{
						"astId": 186,
						"contract": "contracts/Hero_Deposit/Deposit.sol:DepositOracle",
						"label": "depositersLogs",
						"offset": 0,
						"slot": "11",
						"type": "t_mapping(t_address,t_struct(deposit)119_storage)"
					},
					{
						"astId": 188,
						"contract": "contracts/Hero_Deposit/Deposit.sol:DepositOracle",
						"label": "owner",
						"offset": 0,
						"slot": "12",
						"type": "t_address"
					},
					{
						"astId": 190,
						"contract": "contracts/Hero_Deposit/Deposit.sol:DepositOracle",
						"label": "locked",
						"offset": 20,
						"slot": "12",
						"type": "t_bool"
					}
				],
				"types": {
					"t_address": {
						"encoding": "inplace",
						"label": "address",
						"numberOfBytes": "20"
					},
					"t_bool": {
						"encoding": "inplace",
						"label": "bool",
						"numberOfBytes": "1"
					},
					"t_contract(IERC20)77": {
						"encoding": "inplace",
						"label": "contract IERC20",
						"numberOfBytes": "20"
					},
					"t_contract(IWitnetPriceFeed)1195": {
						"encoding": "inplace",
						"label": "contract IWitnetPriceFeed",
						"numberOfBytes": "20"
					},
					"t_contract(IWitnetPriceRouter)1283": {
						"encoding": "inplace",
						"label": "contract IWitnetPriceRouter",
						"numberOfBytes": "20"
					},
					"t_int256": {
						"encoding": "inplace",
						"label": "int256",
						"numberOfBytes": "32"
					},
					"t_mapping(t_address,t_struct(ativistBank)124_storage)": {
						"encoding": "mapping",
						"key": "t_address",
						"label": "mapping(address => struct DepositOracle.ativistBank)",
						"numberOfBytes": "32",
						"value": "t_struct(ativistBank)124_storage"
					},
					"t_mapping(t_address,t_struct(deposit)119_storage)": {
						"encoding": "mapping",
						"key": "t_address",
						"label": "mapping(address => struct DepositOracle.deposit)",
						"numberOfBytes": "32",
						"value": "t_struct(deposit)119_storage"
					},
					"t_struct(ativistBank)124_storage": {
						"encoding": "inplace",
						"label": "struct DepositOracle.ativistBank",
						"members": [
							{
								"astId": 121,
								"contract": "contracts/Hero_Deposit/Deposit.sol:DepositOracle",
								"label": "celoCoin",
								"offset": 0,
								"slot": "0",
								"type": "t_uint256"
							},
							{
								"astId": 123,
								"contract": "contracts/Hero_Deposit/Deposit.sol:DepositOracle",
								"label": "usdcCoin",
								"offset": 0,
								"slot": "1",
								"type": "t_uint256"
							}
						],
						"numberOfBytes": "64"
					},
					"t_struct(deposit)119_storage": {
						"encoding": "inplace",
						"label": "struct DepositOracle.deposit",
						"members": [
							{
								"astId": 112,
								"contract": "contracts/Hero_Deposit/Deposit.sol:DepositOracle",
								"label": "id",
								"offset": 0,
								"slot": "0",
								"type": "t_uint256"
							},
							{
								"astId": 114,
								"contract": "contracts/Hero_Deposit/Deposit.sol:DepositOracle",
								"label": "totalDepositsValue",
								"offset": 0,
								"slot": "1",
								"type": "t_int256"
							},
							{
								"astId": 116,
								"contract": "contracts/Hero_Deposit/Deposit.sol:DepositOracle",
								"label": "totalDepositTimes",
								"offset": 0,
								"slot": "2",
								"type": "t_uint256"
							},
							{
								"astId": 118,
								"contract": "contracts/Hero_Deposit/Deposit.sol:DepositOracle",
								"label": "userWallet",
								"offset": 0,
								"slot": "3",
								"type": "t_address"
							}
						],
						"numberOfBytes": "128"
					},
					"t_uint256": {
						"encoding": "inplace",
						"label": "uint256",
						"numberOfBytes": "32"
					}
				}
			},
			"userdoc": {
				"kind": "user",
				"methods": {
					"constructor": {
						"notice": "IMPORTANT: replace the address below with the WitnetPriceRouter address of the network you are using! Please find the address here: https://docs.witnet.io/smart-contracts/price-feeds/contract-addresses"
					},
					"updateCeloUSDPriceFeed()": {
						"notice": "Detects if the WitnetPriceRouter is now pointing to a different IWitnetPriceFeed implementation:"
					}
				},
				"version": 1
			}
		}
	}
}