{
	"contracts/Hero_Deposit/Deposit.sol": {
		"DepositOracle": {
			"abi": [
				{
					"inputs": [],
					"stateMutability": "nonpayable",
					"type": "constructor"
				},
				{
					"anonymous": false,
					"inputs": [
						{
							"indexed": true,
							"internalType": "address",
							"name": "ativist",
							"type": "address"
						},
						{
							"indexed": false,
							"internalType": "uint256",
							"name": "value",
							"type": "uint256"
						},
						{
							"indexed": false,
							"internalType": "uint256",
							"name": "time",
							"type": "uint256"
						}
					],
					"name": "activistPayment",
					"type": "event"
				},
				{
					"anonymous": false,
					"inputs": [
						{
							"indexed": true,
							"internalType": "address",
							"name": "from",
							"type": "address"
						},
						{
							"indexed": true,
							"internalType": "address",
							"name": "to",
							"type": "address"
						},
						{
							"indexed": false,
							"internalType": "uint256",
							"name": "value",
							"type": "uint256"
						},
						{
							"indexed": false,
							"internalType": "uint256",
							"name": "time",
							"type": "uint256"
						}
					],
					"name": "depositLogs",
					"type": "event"
				},
				{
					"inputs": [
						{
							"internalType": "address payable",
							"name": "_to",
							"type": "address"
						}
					],
					"name": "DepositCelo",
					"outputs": [
						{
							"internalType": "uint256",
							"name": "totalValueUsd",
							"type": "uint256"
						},
						{
							"internalType": "int256",
							"name": "currentCeloUsdPrice",
							"type": "int256"
						}
					],
					"stateMutability": "payable",
					"type": "function"
				},
				{
					"inputs": [
						{
							"internalType": "address payable",
							"name": "_to",
							"type": "address"
						}
					],
					"name": "DepositCusd",
					"outputs": [
						{
							"internalType": "bool",
							"name": "",
							"type": "bool"
						}
					],
					"stateMutability": "payable",
					"type": "function"
				},
				{
					"inputs": [
						{
							"internalType": "address",
							"name": "contributer",
							"type": "address"
						},
						{
							"internalType": "address",
							"name": "_to",
							"type": "address"
						},
						{
							"internalType": "uint256",
							"name": "amount",
							"type": "uint256"
						}
					],
					"name": "DepositCusdCredit",
					"outputs": [
						{
							"internalType": "bool",
							"name": "",
							"type": "bool"
						}
					],
					"stateMutability": "payable",
					"type": "function"
				},
				{
					"inputs": [],
					"name": "EthUsdPrice",
					"outputs": [
						{
							"internalType": "contract IWitnetPriceFeed",
							"name": "",
							"type": "address"
						}
					],
					"stateMutability": "view",
					"type": "function"
				},
				{
					"inputs": [],
					"name": "celoEurPrice",
					"outputs": [
						{
							"internalType": "contract IWitnetPriceFeed",
							"name": "",
							"type": "address"
						}
					],
					"stateMutability": "view",
					"type": "function"
				},
				{
					"inputs": [],
					"name": "celoUsdPrice",
					"outputs": [
						{
							"internalType": "contract IWitnetPriceFeed",
							"name": "",
							"type": "address"
						}
					],
					"stateMutability": "view",
					"type": "function"
				},
				{
					"inputs": [
						{
							"internalType": "address",
							"name": "wallet",
							"type": "address"
						}
					],
					"name": "checkDepositExist",
					"outputs": [
						{
							"internalType": "bool",
							"name": "",
							"type": "bool"
						}
					],
					"stateMutability": "view",
					"type": "function"
				},
				{
					"inputs": [
						{
							"internalType": "address",
							"name": "",
							"type": "address"
						}
					],
					"name": "depositToActivist",
					"outputs": [
						{
							"internalType": "uint256",
							"name": "celoCoin",
							"type": "uint256"
						},
						{
							"internalType": "uint256",
							"name": "usdcCoin",
							"type": "uint256"
						}
					],
					"stateMutability": "view",
					"type": "function"
				},
				{
					"inputs": [
						{
							"internalType": "address",
							"name": "",
							"type": "address"
						}
					],
					"name": "depositersLogs",
					"outputs": [
						{
							"internalType": "uint256",
							"name": "id",
							"type": "uint256"
						},
						{
							"internalType": "int256",
							"name": "totalDepositsValue",
							"type": "int256"
						},
						{
							"internalType": "uint256",
							"name": "totalDepositTimes",
							"type": "uint256"
						},
						{
							"internalType": "address",
							"name": "userWallet",
							"type": "address"
						}
					],
					"stateMutability": "view",
					"type": "function"
				},
				{
					"inputs": [],
					"name": "index",
					"outputs": [
						{
							"internalType": "uint256",
							"name": "",
							"type": "uint256"
						}
					],
					"stateMutability": "view",
					"type": "function"
				},
				{
					"inputs": [],
					"name": "updateCeloEurPriceFeed",
					"outputs": [],
					"stateMutability": "nonpayable",
					"type": "function"
				},
				{
					"inputs": [],
					"name": "updateCeloUSDPriceFeed",
					"outputs": [],
					"stateMutability": "nonpayable",
					"type": "function"
				},
				{
					"inputs": [],
					"name": "updateEthUsdPriceFeed",
					"outputs": [],
					"stateMutability": "nonpayable",
					"type": "function"
				},
				{
					"inputs": [
						{
							"internalType": "address payable",
							"name": "_to",
							"type": "address"
						}
					],
					"name": "withdrowCelo",
					"outputs": [
						{
							"internalType": "uint256",
							"name": "",
							"type": "uint256"
						},
						{
							"internalType": "uint256",
							"name": "",
							"type": "uint256"
						}
					],
					"stateMutability": "payable",
					"type": "function"
				},
				{
					"inputs": [
						{
							"internalType": "address payable",
							"name": "_to",
							"type": "address"
						}
					],
					"name": "withdrowCusd",
					"outputs": [
						{
							"internalType": "uint256",
							"name": "",
							"type": "uint256"
						},
						{
							"internalType": "uint256",
							"name": "",
							"type": "uint256"
						}
					],
					"stateMutability": "payable",
					"type": "function"
				},
				{
					"inputs": [],
					"name": "witnetPriceRouter",
					"outputs": [
						{
							"internalType": "contract IWitnetPriceRouter",
							"name": "",
							"type": "address"
						}
					],
					"stateMutability": "view",
					"type": "function"
				}
			],
			"devdoc": {
				"kind": "dev",
				"methods": {},
				"version": 1
			},
			"evm": {
				"assembly": "    /* \"contracts/Hero_Deposit/Deposit.sol\":239:10436  contract DepositOracle {\r... */\n  mstore(0x40, 0x80)\n    /* \"contracts/Hero_Deposit/Deposit.sol\":1358:1359  0 */\n  0x00\n    /* \"contracts/Hero_Deposit/Deposit.sol\":1335:1359  uint256 public index = 0 */\n  0x0a\n  sstore\n    /* \"contracts/Hero_Deposit/Deposit.sol\":1026:1300  constructor() {\r... */\n  callvalue\n  dup1\n  iszero\n  tag_1\n  jumpi\n  0x00\n  dup1\n  revert\ntag_1:\n  pop\n    /* \"contracts/Hero_Deposit/Deposit.sol\":1059:1069  msg.sender */\n  caller\n    /* \"contracts/Hero_Deposit/Deposit.sol\":1051:1056  owner */\n  0x0c\n  0x00\n    /* \"contracts/Hero_Deposit/Deposit.sol\":1051:1069  owner = msg.sender */\n  0x0100\n  exp\n  dup2\n  sload\n  dup2\n  0xffffffffffffffffffffffffffffffffffffffff\n  mul\n  not\n  and\n  swap1\n  dup4\n  0xffffffffffffffffffffffffffffffffffffffff\n  and\n  mul\n  or\n  swap1\n  sstore\n  pop\n    /* \"contracts/Hero_Deposit/Deposit.sol\":1133:1175  0x6f8A7E2bBc1eDb8782145cD1089251f6e2C738AE */\n  0x6f8a7e2bbc1edb8782145cd1089251f6e2c738ae\n    /* \"contracts/Hero_Deposit/Deposit.sol\":1080:1097  witnetPriceRouter */\n  0x00\n  dup1\n    /* \"contracts/Hero_Deposit/Deposit.sol\":1080:1186  witnetPriceRouter = IWitnetPriceRouter(\r... */\n  0x0100\n  exp\n  dup2\n  sload\n  dup2\n  0xffffffffffffffffffffffffffffffffffffffff\n  mul\n  not\n  and\n  swap1\n  dup4\n  0xffffffffffffffffffffffffffffffffffffffff\n  and\n  mul\n  or\n  swap1\n  sstore\n  pop\n    /* \"contracts/Hero_Deposit/Deposit.sol\":1197:1221  updateCeloUSDPriceFeed() */\n  tag_4\n    /* \"contracts/Hero_Deposit/Deposit.sol\":1197:1219  updateCeloUSDPriceFeed */\n  shl(0x20, tag_5)\n    /* \"contracts/Hero_Deposit/Deposit.sol\":1197:1221  updateCeloUSDPriceFeed() */\n  0x20\n  shr\n  jump\t// in\ntag_4:\n    /* \"contracts/Hero_Deposit/Deposit.sol\":1249:1291  0x874069Fa1Eb16D44d622F2e0Ca25eeA172369bC1 */\n  0x874069fa1eb16d44d622f2e0ca25eea172369bc1\n    /* \"contracts/Hero_Deposit/Deposit.sol\":1232:1239  CusdERC */\n  0x05\n  0x00\n    /* \"contracts/Hero_Deposit/Deposit.sol\":1232:1292  CusdERC = IERC20(0x874069Fa1Eb16D44d622F2e0Ca25eeA172369bC1) */\n  0x0100\n  exp\n  dup2\n  sload\n  dup2\n  0xffffffffffffffffffffffffffffffffffffffff\n  mul\n  not\n  and\n  swap1\n  dup4\n  0xffffffffffffffffffffffffffffffffffffffff\n  and\n  mul\n  or\n  swap1\n  sstore\n  pop\n    /* \"contracts/Hero_Deposit/Deposit.sol\":239:10436  contract DepositOracle {\r... */\n  jump(tag_6)\n    /* \"contracts/Hero_Deposit/Deposit.sol\":2017:2309  function updateCeloUSDPriceFeed() public {\r... */\ntag_5:\n    /* \"contracts/Hero_Deposit/Deposit.sol\":2069:2090  IERC165 _newPriceFeed */\n  0x00\n    /* \"contracts/Hero_Deposit/Deposit.sol\":2093:2110  witnetPriceRouter */\n  dup1\n  0x00\n  swap1\n  sload\n  swap1\n  0x0100\n  exp\n  swap1\n  div\n  0xffffffffffffffffffffffffffffffffffffffff\n  and\n    /* \"contracts/Hero_Deposit/Deposit.sol\":2093:2123  witnetPriceRouter.getPriceFeed */\n  0xffffffffffffffffffffffffffffffffffffffff\n  and\n  0x8c0adf62\n    /* \"contracts/Hero_Deposit/Deposit.sol\":2145:2155  0x9ed884be */\n  0x9ed884be\n    /* \"contracts/Hero_Deposit/Deposit.sol\":2138:2156  bytes4(0x9ed884be) */\n  0xe0\n  shl\n    /* \"contracts/Hero_Deposit/Deposit.sol\":2093:2167  witnetPriceRouter.getPriceFeed(\r... */\n  mload(0x40)\n  dup3\n  0xffffffff\n  and\n  0xe0\n  shl\n  dup2\n  mstore\n  0x04\n  add\n  tag_8\n  swap2\n  swap1\n  tag_9\n  jump\t// in\ntag_8:\n  0x20\n  mload(0x40)\n  dup1\n  dup4\n  sub\n  dup2\n  dup7\n  dup1\n  extcodesize\n  iszero\n  dup1\n  iszero\n  tag_10\n  jumpi\n  0x00\n  dup1\n  revert\ntag_10:\n  pop\n  gas\n  staticcall\n  iszero\n  dup1\n  iszero\n  tag_12\n  jumpi\n  returndatasize\n  0x00\n  dup1\n  returndatacopy\n  revert(0x00, returndatasize)\ntag_12:\n  pop\n  pop\n  pop\n  pop\n  mload(0x40)\n  returndatasize\n  not(0x1f)\n  0x1f\n  dup3\n  add\n  and\n  dup3\n  add\n  dup1\n  0x40\n  mstore\n  pop\n  dup2\n  add\n  swap1\n  tag_13\n  swap2\n  swap1\n  tag_14\n  jump\t// in\ntag_13:\n    /* \"contracts/Hero_Deposit/Deposit.sol\":2069:2167  IERC165 _newPriceFeed = witnetPriceRouter.getPriceFeed(\r... */\n  swap1\n  pop\n    /* \"contracts/Hero_Deposit/Deposit.sol\":2216:2217  0 */\n  0x00\n    /* \"contracts/Hero_Deposit/Deposit.sol\":2182:2218  address(_newPriceFeed) != address(0) */\n  0xffffffffffffffffffffffffffffffffffffffff\n  and\n    /* \"contracts/Hero_Deposit/Deposit.sol\":2190:2203  _newPriceFeed */\n  dup2\n    /* \"contracts/Hero_Deposit/Deposit.sol\":2182:2218  address(_newPriceFeed) != address(0) */\n  0xffffffffffffffffffffffffffffffffffffffff\n  and\n  eq\n    /* \"contracts/Hero_Deposit/Deposit.sol\":2178:2302  if (address(_newPriceFeed) != address(0)) {\r... */\n  tag_15\n  jumpi\n    /* \"contracts/Hero_Deposit/Deposit.sol\":2275:2288  _newPriceFeed */\n  dup1\n    /* \"contracts/Hero_Deposit/Deposit.sol\":2235:2247  celoUsdPrice */\n  0x02\n  0x00\n    /* \"contracts/Hero_Deposit/Deposit.sol\":2235:2290  celoUsdPrice = IWitnetPriceFeed(address(_newPriceFeed)) */\n  0x0100\n  exp\n  dup2\n  sload\n  dup2\n  0xffffffffffffffffffffffffffffffffffffffff\n  mul\n  not\n  and\n  swap1\n  dup4\n  0xffffffffffffffffffffffffffffffffffffffff\n  and\n  mul\n  or\n  swap1\n  sstore\n  pop\n    /* \"contracts/Hero_Deposit/Deposit.sol\":2178:2302  if (address(_newPriceFeed) != address(0)) {\r... */\ntag_15:\n    /* \"contracts/Hero_Deposit/Deposit.sol\":2058:2309  {\r... */\n  pop\n    /* \"contracts/Hero_Deposit/Deposit.sol\":2017:2309  function updateCeloUSDPriceFeed() public {\r... */\n  jump\t// out\n    /* \"#utility.yul\":7:182   */\ntag_17:\n    /* \"#utility.yul\":80:85   */\n  0x00\n    /* \"#utility.yul\":111:117   */\n  dup2\n    /* \"#utility.yul\":105:118   */\n  mload\n    /* \"#utility.yul\":96:118   */\n  swap1\n  pop\n    /* \"#utility.yul\":127:176   */\n  tag_19\n    /* \"#utility.yul\":170:175   */\n  dup2\n    /* \"#utility.yul\":127:176   */\n  tag_20\n  jump\t// in\ntag_19:\n    /* \"#utility.yul\":7:182   */\n  swap3\n  swap2\n  pop\n  pop\n  jump\t// out\n    /* \"#utility.yul\":188:571   */\ntag_14:\n    /* \"#utility.yul\":274:280   */\n  0x00\n    /* \"#utility.yul\":323:325   */\n  0x20\n    /* \"#utility.yul\":311:320   */\n  dup3\n    /* \"#utility.yul\":302:309   */\n  dup5\n    /* \"#utility.yul\":298:321   */\n  sub\n    /* \"#utility.yul\":294:326   */\n  slt\n    /* \"#utility.yul\":291:410   */\n  iszero\n  tag_22\n  jumpi\n    /* \"#utility.yul\":329:408   */\n  tag_23\n  tag_24\n  jump\t// in\ntag_23:\n    /* \"#utility.yul\":291:410   */\ntag_22:\n    /* \"#utility.yul\":449:450   */\n  0x00\n    /* \"#utility.yul\":474:554   */\n  tag_25\n    /* \"#utility.yul\":546:553   */\n  dup5\n    /* \"#utility.yul\":537:543   */\n  dup3\n    /* \"#utility.yul\":526:535   */\n  dup6\n    /* \"#utility.yul\":522:544   */\n  add\n    /* \"#utility.yul\":474:554   */\n  tag_17\n  jump\t// in\ntag_25:\n    /* \"#utility.yul\":464:554   */\n  swap2\n  pop\n    /* \"#utility.yul\":420:564   */\n  pop\n    /* \"#utility.yul\":188:571   */\n  swap3\n  swap2\n  pop\n  pop\n  jump\t// out\n    /* \"#utility.yul\":577:706   */\ntag_26:\n    /* \"#utility.yul\":663:699   */\n  tag_28\n    /* \"#utility.yul\":693:698   */\n  dup2\n    /* \"#utility.yul\":663:699   */\n  tag_29\n  jump\t// in\ntag_28:\n    /* \"#utility.yul\":658:661   */\n  dup3\n    /* \"#utility.yul\":651:700   */\n  mstore\n    /* \"#utility.yul\":577:706   */\n  pop\n  pop\n  jump\t// out\n    /* \"#utility.yul\":712:932   */\ntag_9:\n    /* \"#utility.yul\":804:808   */\n  0x00\n    /* \"#utility.yul\":842:844   */\n  0x20\n    /* \"#utility.yul\":831:840   */\n  dup3\n    /* \"#utility.yul\":827:845   */\n  add\n    /* \"#utility.yul\":819:845   */\n  swap1\n  pop\n    /* \"#utility.yul\":855:925   */\n  tag_31\n    /* \"#utility.yul\":922:923   */\n  0x00\n    /* \"#utility.yul\":911:920   */\n  dup4\n    /* \"#utility.yul\":907:924   */\n  add\n    /* \"#utility.yul\":898:904   */\n  dup5\n    /* \"#utility.yul\":855:925   */\n  tag_26\n  jump\t// in\ntag_31:\n    /* \"#utility.yul\":712:932   */\n  swap3\n  swap2\n  pop\n  pop\n  jump\t// out\n    /* \"#utility.yul\":1019:1115   */\ntag_34:\n    /* \"#utility.yul\":1056:1063   */\n  0x00\n    /* \"#utility.yul\":1085:1109   */\n  tag_36\n    /* \"#utility.yul\":1103:1108   */\n  dup3\n    /* \"#utility.yul\":1085:1109   */\n  tag_37\n  jump\t// in\ntag_36:\n    /* \"#utility.yul\":1074:1109   */\n  swap1\n  pop\n    /* \"#utility.yul\":1019:1115   */\n  swap2\n  swap1\n  pop\n  jump\t// out\n    /* \"#utility.yul\":1121:1270   */\ntag_38:\n    /* \"#utility.yul\":1157:1164   */\n  0x00\n    /* \"#utility.yul\":1197:1263   */\n  0xffffffff00000000000000000000000000000000000000000000000000000000\n    /* \"#utility.yul\":1190:1195   */\n  dup3\n    /* \"#utility.yul\":1186:1264   */\n  and\n    /* \"#utility.yul\":1175:1264   */\n  swap1\n  pop\n    /* \"#utility.yul\":1121:1270   */\n  swap2\n  swap1\n  pop\n  jump\t// out\n    /* \"#utility.yul\":1276:1388   */\ntag_40:\n    /* \"#utility.yul\":1329:1336   */\n  0x00\n    /* \"#utility.yul\":1358:1382   */\n  tag_42\n    /* \"#utility.yul\":1376:1381   */\n  dup3\n    /* \"#utility.yul\":1358:1382   */\n  tag_34\n  jump\t// in\ntag_42:\n    /* \"#utility.yul\":1347:1382   */\n  swap1\n  pop\n    /* \"#utility.yul\":1276:1388   */\n  swap2\n  swap1\n  pop\n  jump\t// out\n    /* \"#utility.yul\":1394:1520   */\ntag_37:\n    /* \"#utility.yul\":1431:1438   */\n  0x00\n    /* \"#utility.yul\":1471:1513   */\n  0xffffffffffffffffffffffffffffffffffffffff\n    /* \"#utility.yul\":1464:1469   */\n  dup3\n    /* \"#utility.yul\":1460:1514   */\n  and\n    /* \"#utility.yul\":1449:1514   */\n  swap1\n  pop\n    /* \"#utility.yul\":1394:1520   */\n  swap2\n  swap1\n  pop\n  jump\t// out\n    /* \"#utility.yul\":1526:1637   */\ntag_29:\n    /* \"#utility.yul\":1575:1584   */\n  0x00\n    /* \"#utility.yul\":1608:1631   */\n  tag_45\n    /* \"#utility.yul\":1625:1630   */\n  dup3\n    /* \"#utility.yul\":1608:1631   */\n  tag_38\n  jump\t// in\ntag_45:\n    /* \"#utility.yul\":1595:1631   */\n  swap1\n  pop\n    /* \"#utility.yul\":1526:1637   */\n  swap2\n  swap1\n  pop\n  jump\t// out\n    /* \"#utility.yul\":1766:1883   */\ntag_24:\n    /* \"#utility.yul\":1875:1876   */\n  0x00\n    /* \"#utility.yul\":1872:1873   */\n  dup1\n    /* \"#utility.yul\":1865:1877   */\n  revert\n    /* \"#utility.yul\":1889:2043   */\ntag_20:\n    /* \"#utility.yul\":1978:2018   */\n  tag_50\n    /* \"#utility.yul\":2012:2017   */\n  dup2\n    /* \"#utility.yul\":1978:2018   */\n  tag_40\n  jump\t// in\ntag_50:\n    /* \"#utility.yul\":1971:1976   */\n  dup2\n    /* \"#utility.yul\":1968:2019   */\n  eq\n    /* \"#utility.yul\":1958:2037   */\n  tag_51\n  jumpi\n    /* \"#utility.yul\":2033:2034   */\n  0x00\n    /* \"#utility.yul\":2030:2031   */\n  dup1\n    /* \"#utility.yul\":2023:2035   */\n  revert\n    /* \"#utility.yul\":1958:2037   */\ntag_51:\n    /* \"#utility.yul\":1889:2043   */\n  pop\n  jump\t// out\n    /* \"contracts/Hero_Deposit/Deposit.sol\":239:10436  contract DepositOracle {\r... */\ntag_6:\n  dataSize(sub_0)\n  dup1\n  dataOffset(sub_0)\n  0x00\n  codecopy\n  0x00\n  return\nstop\n\nsub_0: assembly {\n        /* \"contracts/Hero_Deposit/Deposit.sol\":239:10436  contract DepositOracle {\r... */\n      mstore(0x40, 0x80)\n      jumpi(tag_1, lt(calldatasize, 0x04))\n      shr(0xe0, calldataload(0x00))\n      dup1\n      0x80ad10df\n      gt\n      tag_18\n      jumpi\n      dup1\n      0xb1ddf386\n      gt\n      tag_19\n      jumpi\n      dup1\n      0xb1ddf386\n      eq\n      tag_14\n      jumpi\n      dup1\n      0xb447b0a5\n      eq\n      tag_15\n      jumpi\n      dup1\n      0xc8525f81\n      eq\n      tag_16\n      jumpi\n      dup1\n      0xdf3d4e32\n      eq\n      tag_17\n      jumpi\n      jump(tag_1)\n    tag_19:\n      dup1\n      0x80ad10df\n      eq\n      tag_10\n      jumpi\n      dup1\n      0x893c4a84\n      eq\n      tag_11\n      jumpi\n      dup1\n      0x91cfa8c2\n      eq\n      tag_12\n      jumpi\n      dup1\n      0xaea5da5b\n      eq\n      tag_13\n      jumpi\n      jump(tag_1)\n    tag_18:\n      dup1\n      0x35178e87\n      gt\n      tag_20\n      jumpi\n      dup1\n      0x35178e87\n      eq\n      tag_6\n      jumpi\n      dup1\n      0x43d37940\n      eq\n      tag_7\n      jumpi\n      dup1\n      0x4fc87f24\n      eq\n      tag_8\n      jumpi\n      dup1\n      0x7f28ee34\n      eq\n      tag_9\n      jumpi\n      jump(tag_1)\n    tag_20:\n      dup1\n      0x09a61767\n      eq\n      tag_2\n      jumpi\n      dup1\n      0x0fd19c15\n      eq\n      tag_3\n      jumpi\n      dup1\n      0x2986c0e5\n      eq\n      tag_4\n      jumpi\n      dup1\n      0x32eb658c\n      eq\n      tag_5\n      jumpi\n    tag_1:\n      0x00\n      dup1\n      revert\n        /* \"contracts/Hero_Deposit/Deposit.sol\":4515:6056  function DepositCelo(address payable _to)\r... */\n    tag_2:\n      tag_21\n      0x04\n      dup1\n      calldatasize\n      sub\n      dup2\n      add\n      swap1\n      tag_22\n      swap2\n      swap1\n      tag_23\n      jump\t// in\n    tag_22:\n      tag_24\n      jump\t// in\n    tag_21:\n      mload(0x40)\n      tag_25\n      swap3\n      swap2\n      swap1\n      tag_26\n      jump\t// in\n    tag_25:\n      mload(0x40)\n      dup1\n      swap2\n      sub\n      swap1\n      return\n        /* \"contracts/Hero_Deposit/Deposit.sol\":2617:2907  function updateEthUsdPriceFeed() public {\r... */\n    tag_3:\n      callvalue\n      dup1\n      iszero\n      tag_27\n      jumpi\n      0x00\n      dup1\n      revert\n    tag_27:\n      pop\n      tag_28\n      tag_29\n      jump\t// in\n    tag_28:\n      stop\n        /* \"contracts/Hero_Deposit/Deposit.sol\":1335:1359  uint256 public index = 0 */\n    tag_4:\n      callvalue\n      dup1\n      iszero\n      tag_30\n      jumpi\n      0x00\n      dup1\n      revert\n    tag_30:\n      pop\n      tag_31\n      tag_32\n      jump\t// in\n    tag_31:\n      mload(0x40)\n      tag_33\n      swap2\n      swap1\n      tag_34\n      jump\t// in\n    tag_33:\n      mload(0x40)\n      dup1\n      swap2\n      sub\n      swap1\n      return\n        /* \"contracts/Hero_Deposit/Deposit.sol\":2017:2309  function updateCeloUSDPriceFeed() public {\r... */\n    tag_5:\n      callvalue\n      dup1\n      iszero\n      tag_35\n      jumpi\n      0x00\n      dup1\n      revert\n    tag_35:\n      pop\n      tag_36\n      tag_37\n      jump\t// in\n    tag_36:\n      stop\n        /* \"contracts/Hero_Deposit/Deposit.sol\":2317:2609  function updateCeloEurPriceFeed() public {\r... */\n    tag_6:\n      callvalue\n      dup1\n      iszero\n      tag_38\n      jumpi\n      0x00\n      dup1\n      revert\n    tag_38:\n      pop\n      tag_39\n      tag_40\n      jump\t// in\n    tag_39:\n      stop\n        /* \"contracts/Hero_Deposit/Deposit.sol\":4280:4486  function checkDepositExist(address wallet) public view returns (bool) {\r... */\n    tag_7:\n      callvalue\n      dup1\n      iszero\n      tag_41\n      jumpi\n      0x00\n      dup1\n      revert\n    tag_41:\n      pop\n      tag_42\n      0x04\n      dup1\n      calldatasize\n      sub\n      dup2\n      add\n      swap1\n      tag_43\n      swap2\n      swap1\n      tag_44\n      jump\t// in\n    tag_43:\n      tag_45\n      jump\t// in\n    tag_42:\n      mload(0x40)\n      tag_46\n      swap2\n      swap1\n      tag_47\n      jump\t// in\n    tag_46:\n      mload(0x40)\n      dup1\n      swap2\n      sub\n      swap1\n      return\n        /* \"contracts/Hero_Deposit/Deposit.sol\":269:312  IWitnetPriceRouter public witnetPriceRouter */\n    tag_8:\n      callvalue\n      dup1\n      iszero\n      tag_48\n      jumpi\n      0x00\n      dup1\n      revert\n    tag_48:\n      pop\n      tag_49\n      tag_50\n      jump\t// in\n    tag_49:\n      mload(0x40)\n      tag_51\n      swap2\n      swap1\n      tag_52\n      jump\t// in\n    tag_51:\n      mload(0x40)\n      dup1\n      swap2\n      sub\n      swap1\n      return\n        /* \"contracts/Hero_Deposit/Deposit.sol\":6102:6826  function DepositCusdCredit(address contributer,address _to,uint256 amount)\r... */\n    tag_9:\n      tag_53\n      0x04\n      dup1\n      calldatasize\n      sub\n      dup2\n      add\n      swap1\n      tag_54\n      swap2\n      swap1\n      tag_55\n      jump\t// in\n    tag_54:\n      tag_56\n      jump\t// in\n    tag_53:\n      mload(0x40)\n      tag_57\n      swap2\n      swap1\n      tag_47\n      jump\t// in\n    tag_57:\n      mload(0x40)\n      dup1\n      swap2\n      sub\n      swap1\n      return\n        /* \"contracts/Hero_Deposit/Deposit.sol\":1588:1637  mapping(address => deposit) public depositersLogs */\n    tag_10:\n      callvalue\n      dup1\n      iszero\n      tag_58\n      jumpi\n      0x00\n      dup1\n      revert\n    tag_58:\n      pop\n      tag_59\n      0x04\n      dup1\n      calldatasize\n      sub\n      dup2\n      add\n      swap1\n      tag_60\n      swap2\n      swap1\n      tag_44\n      jump\t// in\n    tag_60:\n      tag_61\n      jump\t// in\n    tag_59:\n      mload(0x40)\n      tag_62\n      swap5\n      swap4\n      swap3\n      swap2\n      swap1\n      tag_63\n      jump\t// in\n    tag_62:\n      mload(0x40)\n      dup1\n      swap2\n      sub\n      swap1\n      return\n        /* \"contracts/Hero_Deposit/Deposit.sol\":8376:9396  function withdrowCelo(address payable _to)\r... */\n    tag_11:\n      tag_64\n      0x04\n      dup1\n      calldatasize\n      sub\n      dup2\n      add\n      swap1\n      tag_65\n      swap2\n      swap1\n      tag_23\n      jump\t// in\n    tag_65:\n      tag_66\n      jump\t// in\n    tag_64:\n      mload(0x40)\n      tag_67\n      swap3\n      swap2\n      swap1\n      tag_68\n      jump\t// in\n    tag_67:\n      mload(0x40)\n      dup1\n      swap2\n      sub\n      swap1\n      return\n        /* \"contracts/Hero_Deposit/Deposit.sol\":6933:8368  function DepositCusd(address payable _to)\r... */\n    tag_12:\n      tag_69\n      0x04\n      dup1\n      calldatasize\n      sub\n      dup2\n      add\n      swap1\n      tag_70\n      swap2\n      swap1\n      tag_23\n      jump\t// in\n    tag_70:\n      tag_71\n      jump\t// in\n    tag_69:\n      mload(0x40)\n      tag_72\n      swap2\n      swap1\n      tag_47\n      jump\t// in\n    tag_72:\n      mload(0x40)\n      dup1\n      swap2\n      sub\n      swap1\n      return\n        /* \"contracts/Hero_Deposit/Deposit.sol\":687:743  mapping(address => ativistBank) public depositToActivist */\n    tag_13:\n      callvalue\n      dup1\n      iszero\n      tag_73\n      jumpi\n      0x00\n      dup1\n      revert\n    tag_73:\n      pop\n      tag_74\n      0x04\n      dup1\n      calldatasize\n      sub\n      dup2\n      add\n      swap1\n      tag_75\n      swap2\n      swap1\n      tag_44\n      jump\t// in\n    tag_75:\n      tag_76\n      jump\t// in\n    tag_74:\n      mload(0x40)\n      tag_77\n      swap3\n      swap2\n      swap1\n      tag_68\n      jump\t// in\n    tag_77:\n      mload(0x40)\n      dup1\n      swap2\n      sub\n      swap1\n      return\n        /* \"contracts/Hero_Deposit/Deposit.sol\":9404:10433  function withdrowCusd(address payable _to)\r... */\n    tag_14:\n      tag_78\n      0x04\n      dup1\n      calldatasize\n      sub\n      dup2\n      add\n      swap1\n      tag_79\n      swap2\n      swap1\n      tag_23\n      jump\t// in\n    tag_79:\n      tag_80\n      jump\t// in\n    tag_78:\n      mload(0x40)\n      tag_81\n      swap3\n      swap2\n      swap1\n      tag_68\n      jump\t// in\n    tag_81:\n      mload(0x40)\n      dup1\n      swap2\n      sub\n      swap1\n      return\n        /* \"contracts/Hero_Deposit/Deposit.sol\":405:440  IWitnetPriceFeed public EthUsdPrice */\n    tag_15:\n      callvalue\n      dup1\n      iszero\n      tag_82\n      jumpi\n      0x00\n      dup1\n      revert\n    tag_82:\n      pop\n      tag_83\n      tag_84\n      jump\t// in\n    tag_83:\n      mload(0x40)\n      tag_85\n      swap2\n      swap1\n      tag_86\n      jump\t// in\n    tag_85:\n      mload(0x40)\n      dup1\n      swap2\n      sub\n      swap1\n      return\n        /* \"contracts/Hero_Deposit/Deposit.sol\":319:355  IWitnetPriceFeed public celoEurPrice */\n    tag_16:\n      callvalue\n      dup1\n      iszero\n      tag_87\n      jumpi\n      0x00\n      dup1\n      revert\n    tag_87:\n      pop\n      tag_88\n      tag_89\n      jump\t// in\n    tag_88:\n      mload(0x40)\n      tag_90\n      swap2\n      swap1\n      tag_86\n      jump\t// in\n    tag_90:\n      mload(0x40)\n      dup1\n      swap2\n      sub\n      swap1\n      return\n        /* \"contracts/Hero_Deposit/Deposit.sol\":362:398  IWitnetPriceFeed public celoUsdPrice */\n    tag_17:\n      callvalue\n      dup1\n      iszero\n      tag_91\n      jumpi\n      0x00\n      dup1\n      revert\n    tag_91:\n      pop\n      tag_92\n      tag_93\n      jump\t// in\n    tag_92:\n      mload(0x40)\n      tag_94\n      swap2\n      swap1\n      tag_86\n      jump\t// in\n    tag_94:\n      mload(0x40)\n      dup1\n      swap2\n      sub\n      swap1\n      return\n        /* \"contracts/Hero_Deposit/Deposit.sol\":4515:6056  function DepositCelo(address payable _to)\r... */\n    tag_24:\n        /* \"contracts/Hero_Deposit/Deposit.sol\":4632:4653  uint256 totalValueUsd */\n      0x00\n        /* \"contracts/Hero_Deposit/Deposit.sol\":4655:4681  int256 currentCeloUsdPrice */\n      dup1\n        /* \"contracts/Hero_Deposit/Deposit.sol\":1741:1747  locked */\n      0x0c\n      0x14\n      swap1\n      sload\n      swap1\n      0x0100\n      exp\n      swap1\n      div\n      0xff\n      and\n        /* \"contracts/Hero_Deposit/Deposit.sol\":1740:1747  !locked */\n      iszero\n        /* \"contracts/Hero_Deposit/Deposit.sol\":1732:1748  require(!locked) */\n      tag_96\n      jumpi\n      0x00\n      dup1\n      revert\n    tag_96:\n        /* \"contracts/Hero_Deposit/Deposit.sol\":1768:1772  true */\n      0x01\n        /* \"contracts/Hero_Deposit/Deposit.sol\":1759:1765  locked */\n      0x0c\n      0x14\n        /* \"contracts/Hero_Deposit/Deposit.sol\":1759:1772  locked = true */\n      0x0100\n      exp\n      dup2\n      sload\n      dup2\n      0xff\n      mul\n      not\n      and\n      swap1\n      dup4\n      iszero\n      iszero\n      mul\n      or\n      swap1\n      sstore\n      pop\n        /* \"contracts/Hero_Deposit/Deposit.sol\":4743:4752  msg.value */\n      callvalue\n        /* \"contracts/Hero_Deposit/Deposit.sol\":4721:4731  msg.sender */\n      caller\n        /* \"contracts/Hero_Deposit/Deposit.sol\":4721:4739  msg.sender.balance */\n      0xffffffffffffffffffffffffffffffffffffffff\n      and\n      balance\n        /* \"contracts/Hero_Deposit/Deposit.sol\":4721:4752  msg.sender.balance >= msg.value */\n      lt\n      iszero\n        /* \"contracts/Hero_Deposit/Deposit.sol\":4699:4810  require(\r... */\n      tag_98\n      jumpi\n      mload(0x40)\n      0x08c379a000000000000000000000000000000000000000000000000000000000\n      dup2\n      mstore\n      0x04\n      add\n      tag_99\n      swap1\n      tag_100\n      jump\t// in\n    tag_99:\n      mload(0x40)\n      dup1\n      swap2\n      sub\n      swap1\n      revert\n    tag_98:\n        /* \"contracts/Hero_Deposit/Deposit.sol\":4821:4847  int256 currentCeloUsdPrice */\n      0x00\n        /* \"contracts/Hero_Deposit/Deposit.sol\":4858:4874  uint256 lastTime */\n      dup1\n        /* \"contracts/Hero_Deposit/Deposit.sol\":4919:4936  getCeloUsdPrice() */\n      tag_101\n        /* \"contracts/Hero_Deposit/Deposit.sol\":4919:4934  getCeloUsdPrice */\n      tag_102\n        /* \"contracts/Hero_Deposit/Deposit.sol\":4919:4936  getCeloUsdPrice() */\n      jump\t// in\n    tag_101:\n        /* \"contracts/Hero_Deposit/Deposit.sol\":4885:4936  (currentCeloUsdPrice, lastTime) = getCeloUsdPrice() */\n      dup1\n      swap3\n      pop\n      dup2\n      swap4\n      pop\n      pop\n      pop\n        /* \"contracts/Hero_Deposit/Deposit.sol\":4947:4972  uint256 totalValueDeposit */\n      0x00\n        /* \"contracts/Hero_Deposit/Deposit.sol\":5030:5049  currentCeloUsdPrice */\n      dup3\n        /* \"contracts/Hero_Deposit/Deposit.sol\":5026:5027  1 */\n      0x01\n        /* \"contracts/Hero_Deposit/Deposit.sol\":5026:5049  1 / currentCeloUsdPrice */\n      tag_103\n      swap2\n      swap1\n      tag_104\n      jump\t// in\n    tag_103:\n        /* \"contracts/Hero_Deposit/Deposit.sol\":5012:5021  msg.value */\n      callvalue\n        /* \"contracts/Hero_Deposit/Deposit.sol\":5005:5049  int256(msg.value) >= 1 / currentCeloUsdPrice */\n      slt\n      iszero\n        /* \"contracts/Hero_Deposit/Deposit.sol\":4983:5110  require(\r... */\n      tag_105\n      jumpi\n      mload(0x40)\n      0x08c379a000000000000000000000000000000000000000000000000000000000\n      dup2\n      mstore\n      0x04\n      add\n      tag_106\n      swap1\n      tag_107\n      jump\t// in\n    tag_106:\n      mload(0x40)\n      dup1\n      swap2\n      sub\n      swap1\n      revert\n    tag_105:\n        /* \"contracts/Hero_Deposit/Deposit.sol\":5121:5141  int256 totalValueUsd */\n      0x00\n        /* \"contracts/Hero_Deposit/Deposit.sol\":5167:5186  currentCeloUsdPrice */\n      dup4\n        /* \"contracts/Hero_Deposit/Deposit.sol\":5152:5161  msg.value */\n      callvalue\n        /* \"contracts/Hero_Deposit/Deposit.sol\":5144:5187  int256((msg.value)) * (currentCeloUsdPrice) */\n      tag_108\n      swap2\n      swap1\n      tag_109\n      jump\t// in\n    tag_108:\n        /* \"contracts/Hero_Deposit/Deposit.sol\":5121:5187  int256 totalValueUsd = int256((msg.value)) * (currentCeloUsdPrice) */\n      swap1\n      pop\n        /* \"contracts/Hero_Deposit/Deposit.sol\":5235:5239  true */\n      0x01\n        /* \"contracts/Hero_Deposit/Deposit.sol\":5202:5239  checkDepositExist(msg.sender) == true */\n      iszero\n      iszero\n        /* \"contracts/Hero_Deposit/Deposit.sol\":5202:5231  checkDepositExist(msg.sender) */\n      tag_110\n        /* \"contracts/Hero_Deposit/Deposit.sol\":5220:5230  msg.sender */\n      caller\n        /* \"contracts/Hero_Deposit/Deposit.sol\":5202:5219  checkDepositExist */\n      tag_45\n        /* \"contracts/Hero_Deposit/Deposit.sol\":5202:5231  checkDepositExist(msg.sender) */\n      jump\t// in\n    tag_110:\n        /* \"contracts/Hero_Deposit/Deposit.sol\":5202:5239  checkDepositExist(msg.sender) == true */\n      iszero\n      iszero\n      eq\n        /* \"contracts/Hero_Deposit/Deposit.sol\":5198:5592  if (checkDepositExist(msg.sender) == true) {\r... */\n      iszero\n      tag_111\n      jumpi\n        /* \"contracts/Hero_Deposit/Deposit.sol\":5305:5318  totalValueUsd */\n      dup1\n        /* \"contracts/Hero_Deposit/Deposit.sol\":5256:5270  depositersLogs */\n      0x0b\n        /* \"contracts/Hero_Deposit/Deposit.sol\":5256:5282  depositersLogs[msg.sender] */\n      0x00\n        /* \"contracts/Hero_Deposit/Deposit.sol\":5271:5281  msg.sender */\n      caller\n        /* \"contracts/Hero_Deposit/Deposit.sol\":5256:5282  depositersLogs[msg.sender] */\n      0xffffffffffffffffffffffffffffffffffffffff\n      and\n      0xffffffffffffffffffffffffffffffffffffffff\n      and\n      dup2\n      mstore\n      0x20\n      add\n      swap1\n      dup2\n      mstore\n      0x20\n      add\n      0x00\n      keccak256\n        /* \"contracts/Hero_Deposit/Deposit.sol\":5256:5301  depositersLogs[msg.sender].totalDepositsValue */\n      0x01\n      add\n      0x00\n        /* \"contracts/Hero_Deposit/Deposit.sol\":5256:5318  depositersLogs[msg.sender].totalDepositsValue += totalValueUsd */\n      dup3\n      dup3\n      sload\n      tag_112\n      swap2\n      swap1\n      tag_113\n      jump\t// in\n    tag_112:\n      swap3\n      pop\n      pop\n      dup2\n      swap1\n      sstore\n      pop\n        /* \"contracts/Hero_Deposit/Deposit.sol\":5333:5347  depositersLogs */\n      0x0b\n        /* \"contracts/Hero_Deposit/Deposit.sol\":5333:5359  depositersLogs[msg.sender] */\n      0x00\n        /* \"contracts/Hero_Deposit/Deposit.sol\":5348:5358  msg.sender */\n      caller\n        /* \"contracts/Hero_Deposit/Deposit.sol\":5333:5359  depositersLogs[msg.sender] */\n      0xffffffffffffffffffffffffffffffffffffffff\n      and\n      0xffffffffffffffffffffffffffffffffffffffff\n      and\n      dup2\n      mstore\n      0x20\n      add\n      swap1\n      dup2\n      mstore\n      0x20\n      add\n      0x00\n      keccak256\n        /* \"contracts/Hero_Deposit/Deposit.sol\":5333:5377  depositersLogs[msg.sender].totalDepositTimes */\n      0x02\n      add\n      0x00\n        /* \"contracts/Hero_Deposit/Deposit.sol\":5333:5379  depositersLogs[msg.sender].totalDepositTimes++ */\n      dup2\n      sload\n      dup1\n      swap3\n      swap2\n      swap1\n      tag_114\n      swap1\n      tag_115\n      jump\t// in\n    tag_114:\n      swap2\n      swap1\n      pop\n      sstore\n      pop\n        /* \"contracts/Hero_Deposit/Deposit.sol\":5429:5438  msg.value */\n      callvalue\n        /* \"contracts/Hero_Deposit/Deposit.sol\":5394:5411  depositToActivist */\n      0x04\n        /* \"contracts/Hero_Deposit/Deposit.sol\":5394:5416  depositToActivist[_to] */\n      0x00\n        /* \"contracts/Hero_Deposit/Deposit.sol\":5412:5415  _to */\n      dup10\n        /* \"contracts/Hero_Deposit/Deposit.sol\":5394:5416  depositToActivist[_to] */\n      0xffffffffffffffffffffffffffffffffffffffff\n      and\n      0xffffffffffffffffffffffffffffffffffffffff\n      and\n      dup2\n      mstore\n      0x20\n      add\n      swap1\n      dup2\n      mstore\n      0x20\n      add\n      0x00\n      keccak256\n        /* \"contracts/Hero_Deposit/Deposit.sol\":5394:5425  depositToActivist[_to].celoCoin */\n      0x00\n      add\n      0x00\n        /* \"contracts/Hero_Deposit/Deposit.sol\":5394:5438  depositToActivist[_to].celoCoin += msg.value */\n      dup3\n      dup3\n      sload\n      tag_116\n      swap2\n      swap1\n      tag_117\n      jump\t// in\n    tag_116:\n      swap3\n      pop\n      pop\n      dup2\n      swap1\n      sstore\n      pop\n        /* \"contracts/Hero_Deposit/Deposit.sol\":5473:5490  depositToActivist */\n      0x04\n        /* \"contracts/Hero_Deposit/Deposit.sol\":5473:5495  depositToActivist[_to] */\n      0x00\n        /* \"contracts/Hero_Deposit/Deposit.sol\":5491:5494  _to */\n      dup9\n        /* \"contracts/Hero_Deposit/Deposit.sol\":5473:5495  depositToActivist[_to] */\n      0xffffffffffffffffffffffffffffffffffffffff\n      and\n      0xffffffffffffffffffffffffffffffffffffffff\n      and\n      dup2\n      mstore\n      0x20\n      add\n      swap1\n      dup2\n      mstore\n      0x20\n      add\n      0x00\n      keccak256\n        /* \"contracts/Hero_Deposit/Deposit.sol\":5473:5504  depositToActivist[_to].celoCoin */\n      0x00\n      add\n      sload\n        /* \"contracts/Hero_Deposit/Deposit.sol\":5453:5504  totalValueDeposit = depositToActivist[_to].celoCoin */\n      swap2\n      pop\n        /* \"contracts/Hero_Deposit/Deposit.sol\":5548:5551  _to */\n      dup7\n        /* \"contracts/Hero_Deposit/Deposit.sol\":5524:5580  depositLogs(msg.sender, _to, msg.value, block.timestamp) */\n      0xffffffffffffffffffffffffffffffffffffffff\n      and\n        /* \"contracts/Hero_Deposit/Deposit.sol\":5536:5546  msg.sender */\n      caller\n        /* \"contracts/Hero_Deposit/Deposit.sol\":5524:5580  depositLogs(msg.sender, _to, msg.value, block.timestamp) */\n      0xffffffffffffffffffffffffffffffffffffffff\n      and\n      0xadbbbbc8c9e65e88422d75c3d3cb93f41a5d520a2ca71c815348334de8c49121\n        /* \"contracts/Hero_Deposit/Deposit.sol\":5553:5562  msg.value */\n      callvalue\n        /* \"contracts/Hero_Deposit/Deposit.sol\":5564:5579  block.timestamp */\n      timestamp\n        /* \"contracts/Hero_Deposit/Deposit.sol\":5524:5580  depositLogs(msg.sender, _to, msg.value, block.timestamp) */\n      mload(0x40)\n      tag_118\n      swap3\n      swap2\n      swap1\n      tag_68\n      jump\t// in\n    tag_118:\n      mload(0x40)\n      dup1\n      swap2\n      sub\n      swap1\n      log3\n        /* \"contracts/Hero_Deposit/Deposit.sol\":5198:5592  if (checkDepositExist(msg.sender) == true) {\r... */\n    tag_111:\n        /* \"contracts/Hero_Deposit/Deposit.sol\":5602:5607  index */\n      0x0a\n      0x00\n        /* \"contracts/Hero_Deposit/Deposit.sol\":5602:5609  index++ */\n      dup2\n      sload\n      dup1\n      swap3\n      swap2\n      swap1\n      tag_119\n      swap1\n      tag_115\n      jump\t// in\n    tag_119:\n      swap2\n      swap1\n      pop\n      sstore\n      pop\n        /* \"contracts/Hero_Deposit/Deposit.sol\":5652:5657  index */\n      sload(0x0a)\n        /* \"contracts/Hero_Deposit/Deposit.sol\":5620:5634  depositersLogs */\n      0x0b\n        /* \"contracts/Hero_Deposit/Deposit.sol\":5620:5646  depositersLogs[msg.sender] */\n      0x00\n        /* \"contracts/Hero_Deposit/Deposit.sol\":5635:5645  msg.sender */\n      caller\n        /* \"contracts/Hero_Deposit/Deposit.sol\":5620:5646  depositersLogs[msg.sender] */\n      0xffffffffffffffffffffffffffffffffffffffff\n      and\n      0xffffffffffffffffffffffffffffffffffffffff\n      and\n      dup2\n      mstore\n      0x20\n      add\n      swap1\n      dup2\n      mstore\n      0x20\n      add\n      0x00\n      keccak256\n        /* \"contracts/Hero_Deposit/Deposit.sol\":5620:5649  depositersLogs[msg.sender].id */\n      0x00\n      add\n        /* \"contracts/Hero_Deposit/Deposit.sol\":5620:5657  depositersLogs[msg.sender].id = index */\n      dup2\n      swap1\n      sstore\n      pop\n        /* \"contracts/Hero_Deposit/Deposit.sol\":5717:5730  totalValueUsd */\n      dup1\n        /* \"contracts/Hero_Deposit/Deposit.sol\":5668:5682  depositersLogs */\n      0x0b\n        /* \"contracts/Hero_Deposit/Deposit.sol\":5668:5694  depositersLogs[msg.sender] */\n      0x00\n        /* \"contracts/Hero_Deposit/Deposit.sol\":5683:5693  msg.sender */\n      caller\n        /* \"contracts/Hero_Deposit/Deposit.sol\":5668:5694  depositersLogs[msg.sender] */\n      0xffffffffffffffffffffffffffffffffffffffff\n      and\n      0xffffffffffffffffffffffffffffffffffffffff\n      and\n      dup2\n      mstore\n      0x20\n      add\n      swap1\n      dup2\n      mstore\n      0x20\n      add\n      0x00\n      keccak256\n        /* \"contracts/Hero_Deposit/Deposit.sol\":5668:5713  depositersLogs[msg.sender].totalDepositsValue */\n      0x01\n      add\n      0x00\n        /* \"contracts/Hero_Deposit/Deposit.sol\":5668:5730  depositersLogs[msg.sender].totalDepositsValue += totalValueUsd */\n      dup3\n      dup3\n      sload\n      tag_120\n      swap2\n      swap1\n      tag_113\n      jump\t// in\n    tag_120:\n      swap3\n      pop\n      pop\n      dup2\n      swap1\n      sstore\n      pop\n        /* \"contracts/Hero_Deposit/Deposit.sol\":5789:5799  msg.sender */\n      caller\n        /* \"contracts/Hero_Deposit/Deposit.sol\":5741:5755  depositersLogs */\n      0x0b\n        /* \"contracts/Hero_Deposit/Deposit.sol\":5741:5767  depositersLogs[msg.sender] */\n      0x00\n        /* \"contracts/Hero_Deposit/Deposit.sol\":5756:5766  msg.sender */\n      caller\n        /* \"contracts/Hero_Deposit/Deposit.sol\":5741:5767  depositersLogs[msg.sender] */\n      0xffffffffffffffffffffffffffffffffffffffff\n      and\n      0xffffffffffffffffffffffffffffffffffffffff\n      and\n      dup2\n      mstore\n      0x20\n      add\n      swap1\n      dup2\n      mstore\n      0x20\n      add\n      0x00\n      keccak256\n        /* \"contracts/Hero_Deposit/Deposit.sol\":5741:5778  depositersLogs[msg.sender].userWallet */\n      0x03\n      add\n      0x00\n        /* \"contracts/Hero_Deposit/Deposit.sol\":5741:5800  depositersLogs[msg.sender].userWallet = address(msg.sender) */\n      0x0100\n      exp\n      dup2\n      sload\n      dup2\n      0xffffffffffffffffffffffffffffffffffffffff\n      mul\n      not\n      and\n      swap1\n      dup4\n      0xffffffffffffffffffffffffffffffffffffffff\n      and\n      mul\n      or\n      swap1\n      sstore\n      pop\n        /* \"contracts/Hero_Deposit/Deposit.sol\":5858:5859  1 */\n      0x01\n        /* \"contracts/Hero_Deposit/Deposit.sol\":5811:5825  depositersLogs */\n      0x0b\n        /* \"contracts/Hero_Deposit/Deposit.sol\":5811:5837  depositersLogs[msg.sender] */\n      0x00\n        /* \"contracts/Hero_Deposit/Deposit.sol\":5826:5836  msg.sender */\n      caller\n        /* \"contracts/Hero_Deposit/Deposit.sol\":5811:5837  depositersLogs[msg.sender] */\n      0xffffffffffffffffffffffffffffffffffffffff\n      and\n      0xffffffffffffffffffffffffffffffffffffffff\n      and\n      dup2\n      mstore\n      0x20\n      add\n      swap1\n      dup2\n      mstore\n      0x20\n      add\n      0x00\n      keccak256\n        /* \"contracts/Hero_Deposit/Deposit.sol\":5811:5855  depositersLogs[msg.sender].totalDepositTimes */\n      0x02\n      add\n        /* \"contracts/Hero_Deposit/Deposit.sol\":5811:5859  depositersLogs[msg.sender].totalDepositTimes = 1 */\n      dup2\n      swap1\n      sstore\n      pop\n        /* \"contracts/Hero_Deposit/Deposit.sol\":5905:5914  msg.value */\n      callvalue\n        /* \"contracts/Hero_Deposit/Deposit.sol\":5870:5887  depositToActivist */\n      0x04\n        /* \"contracts/Hero_Deposit/Deposit.sol\":5870:5892  depositToActivist[_to] */\n      0x00\n        /* \"contracts/Hero_Deposit/Deposit.sol\":5888:5891  _to */\n      dup10\n        /* \"contracts/Hero_Deposit/Deposit.sol\":5870:5892  depositToActivist[_to] */\n      0xffffffffffffffffffffffffffffffffffffffff\n      and\n      0xffffffffffffffffffffffffffffffffffffffff\n      and\n      dup2\n      mstore\n      0x20\n      add\n      swap1\n      dup2\n      mstore\n      0x20\n      add\n      0x00\n      keccak256\n        /* \"contracts/Hero_Deposit/Deposit.sol\":5870:5901  depositToActivist[_to].celoCoin */\n      0x00\n      add\n      0x00\n        /* \"contracts/Hero_Deposit/Deposit.sol\":5870:5914  depositToActivist[_to].celoCoin += msg.value */\n      dup3\n      dup3\n      sload\n      tag_121\n      swap2\n      swap1\n      tag_117\n      jump\t// in\n    tag_121:\n      swap3\n      pop\n      pop\n      dup2\n      swap1\n      sstore\n      pop\n        /* \"contracts/Hero_Deposit/Deposit.sol\":5945:5962  depositToActivist */\n      0x04\n        /* \"contracts/Hero_Deposit/Deposit.sol\":5945:5967  depositToActivist[_to] */\n      0x00\n        /* \"contracts/Hero_Deposit/Deposit.sol\":5963:5966  _to */\n      dup9\n        /* \"contracts/Hero_Deposit/Deposit.sol\":5945:5967  depositToActivist[_to] */\n      0xffffffffffffffffffffffffffffffffffffffff\n      and\n      0xffffffffffffffffffffffffffffffffffffffff\n      and\n      dup2\n      mstore\n      0x20\n      add\n      swap1\n      dup2\n      mstore\n      0x20\n      add\n      0x00\n      keccak256\n        /* \"contracts/Hero_Deposit/Deposit.sol\":5945:5976  depositToActivist[_to].celoCoin */\n      0x00\n      add\n      sload\n        /* \"contracts/Hero_Deposit/Deposit.sol\":5925:5976  totalValueDeposit = depositToActivist[_to].celoCoin */\n      swap2\n      pop\n        /* \"contracts/Hero_Deposit/Deposit.sol\":6016:6019  _to */\n      dup7\n        /* \"contracts/Hero_Deposit/Deposit.sol\":5992:6048  depositLogs(msg.sender, _to, msg.value, block.timestamp) */\n      0xffffffffffffffffffffffffffffffffffffffff\n      and\n        /* \"contracts/Hero_Deposit/Deposit.sol\":6004:6014  msg.sender */\n      caller\n        /* \"contracts/Hero_Deposit/Deposit.sol\":5992:6048  depositLogs(msg.sender, _to, msg.value, block.timestamp) */\n      0xffffffffffffffffffffffffffffffffffffffff\n      and\n      0xadbbbbc8c9e65e88422d75c3d3cb93f41a5d520a2ca71c815348334de8c49121\n        /* \"contracts/Hero_Deposit/Deposit.sol\":6021:6030  msg.value */\n      callvalue\n        /* \"contracts/Hero_Deposit/Deposit.sol\":6032:6047  block.timestamp */\n      timestamp\n        /* \"contracts/Hero_Deposit/Deposit.sol\":5992:6048  depositLogs(msg.sender, _to, msg.value, block.timestamp) */\n      mload(0x40)\n      tag_122\n      swap3\n      swap2\n      swap1\n      tag_68\n      jump\t// in\n    tag_122:\n      mload(0x40)\n      dup1\n      swap2\n      sub\n      swap1\n      log3\n        /* \"contracts/Hero_Deposit/Deposit.sol\":4688:6056  {\r... */\n      pop\n      pop\n      pop\n      pop\n        /* \"contracts/Hero_Deposit/Deposit.sol\":1804:1809  false */\n      0x00\n        /* \"contracts/Hero_Deposit/Deposit.sol\":1795:1801  locked */\n      0x0c\n      0x14\n        /* \"contracts/Hero_Deposit/Deposit.sol\":1795:1809  locked = false */\n      0x0100\n      exp\n      dup2\n      sload\n      dup2\n      0xff\n      mul\n      not\n      and\n      swap1\n      dup4\n      iszero\n      iszero\n      mul\n      or\n      swap1\n      sstore\n      pop\n        /* \"contracts/Hero_Deposit/Deposit.sol\":4515:6056  function DepositCelo(address payable _to)\r... */\n      swap2\n      pop\n      swap2\n      jump\t// out\n        /* \"contracts/Hero_Deposit/Deposit.sol\":2617:2907  function updateEthUsdPriceFeed() public {\r... */\n    tag_29:\n        /* \"contracts/Hero_Deposit/Deposit.sol\":2668:2689  IERC165 _newPriceFeed */\n      0x00\n        /* \"contracts/Hero_Deposit/Deposit.sol\":2692:2709  witnetPriceRouter */\n      dup1\n      0x00\n      swap1\n      sload\n      swap1\n      0x0100\n      exp\n      swap1\n      div\n      0xffffffffffffffffffffffffffffffffffffffff\n      and\n        /* \"contracts/Hero_Deposit/Deposit.sol\":2692:2722  witnetPriceRouter.getPriceFeed */\n      0xffffffffffffffffffffffffffffffffffffffff\n      and\n      0x8c0adf62\n        /* \"contracts/Hero_Deposit/Deposit.sol\":2744:2754  0x3d15f701 */\n      0x3d15f701\n        /* \"contracts/Hero_Deposit/Deposit.sol\":2737:2755  bytes4(0x3d15f701) */\n      0xe0\n      shl\n        /* \"contracts/Hero_Deposit/Deposit.sol\":2692:2766  witnetPriceRouter.getPriceFeed(\r... */\n      mload(0x40)\n      dup3\n      0xffffffff\n      and\n      0xe0\n      shl\n      dup2\n      mstore\n      0x04\n      add\n      tag_124\n      swap2\n      swap1\n      tag_125\n      jump\t// in\n    tag_124:\n      0x20\n      mload(0x40)\n      dup1\n      dup4\n      sub\n      dup2\n      dup7\n      dup1\n      extcodesize\n      iszero\n      dup1\n      iszero\n      tag_126\n      jumpi\n      0x00\n      dup1\n      revert\n    tag_126:\n      pop\n      gas\n      staticcall\n      iszero\n      dup1\n      iszero\n      tag_128\n      jumpi\n      returndatasize\n      0x00\n      dup1\n      returndatacopy\n      revert(0x00, returndatasize)\n    tag_128:\n      pop\n      pop\n      pop\n      pop\n      mload(0x40)\n      returndatasize\n      not(0x1f)\n      0x1f\n      dup3\n      add\n      and\n      dup3\n      add\n      dup1\n      0x40\n      mstore\n      pop\n      dup2\n      add\n      swap1\n      tag_129\n      swap2\n      swap1\n      tag_130\n      jump\t// in\n    tag_129:\n        /* \"contracts/Hero_Deposit/Deposit.sol\":2668:2766  IERC165 _newPriceFeed = witnetPriceRouter.getPriceFeed(\r... */\n      swap1\n      pop\n        /* \"contracts/Hero_Deposit/Deposit.sol\":2815:2816  0 */\n      0x00\n        /* \"contracts/Hero_Deposit/Deposit.sol\":2781:2817  address(_newPriceFeed) != address(0) */\n      0xffffffffffffffffffffffffffffffffffffffff\n      and\n        /* \"contracts/Hero_Deposit/Deposit.sol\":2789:2802  _newPriceFeed */\n      dup2\n        /* \"contracts/Hero_Deposit/Deposit.sol\":2781:2817  address(_newPriceFeed) != address(0) */\n      0xffffffffffffffffffffffffffffffffffffffff\n      and\n      eq\n        /* \"contracts/Hero_Deposit/Deposit.sol\":2777:2900  if (address(_newPriceFeed) != address(0)) {\r... */\n      tag_131\n      jumpi\n        /* \"contracts/Hero_Deposit/Deposit.sol\":2873:2886  _newPriceFeed */\n      dup1\n        /* \"contracts/Hero_Deposit/Deposit.sol\":2834:2845  EthUsdPrice */\n      0x03\n      0x00\n        /* \"contracts/Hero_Deposit/Deposit.sol\":2834:2888  EthUsdPrice = IWitnetPriceFeed(address(_newPriceFeed)) */\n      0x0100\n      exp\n      dup2\n      sload\n      dup2\n      0xffffffffffffffffffffffffffffffffffffffff\n      mul\n      not\n      and\n      swap1\n      dup4\n      0xffffffffffffffffffffffffffffffffffffffff\n      and\n      mul\n      or\n      swap1\n      sstore\n      pop\n        /* \"contracts/Hero_Deposit/Deposit.sol\":2777:2900  if (address(_newPriceFeed) != address(0)) {\r... */\n    tag_131:\n        /* \"contracts/Hero_Deposit/Deposit.sol\":2657:2907  {\r... */\n      pop\n        /* \"contracts/Hero_Deposit/Deposit.sol\":2617:2907  function updateEthUsdPriceFeed() public {\r... */\n      jump\t// out\n        /* \"contracts/Hero_Deposit/Deposit.sol\":1335:1359  uint256 public index = 0 */\n    tag_32:\n      sload(0x0a)\n      dup2\n      jump\t// out\n        /* \"contracts/Hero_Deposit/Deposit.sol\":2017:2309  function updateCeloUSDPriceFeed() public {\r... */\n    tag_37:\n        /* \"contracts/Hero_Deposit/Deposit.sol\":2069:2090  IERC165 _newPriceFeed */\n      0x00\n        /* \"contracts/Hero_Deposit/Deposit.sol\":2093:2110  witnetPriceRouter */\n      dup1\n      0x00\n      swap1\n      sload\n      swap1\n      0x0100\n      exp\n      swap1\n      div\n      0xffffffffffffffffffffffffffffffffffffffff\n      and\n        /* \"contracts/Hero_Deposit/Deposit.sol\":2093:2123  witnetPriceRouter.getPriceFeed */\n      0xffffffffffffffffffffffffffffffffffffffff\n      and\n      0x8c0adf62\n        /* \"contracts/Hero_Deposit/Deposit.sol\":2145:2155  0x9ed884be */\n      0x9ed884be\n        /* \"contracts/Hero_Deposit/Deposit.sol\":2138:2156  bytes4(0x9ed884be) */\n      0xe0\n      shl\n        /* \"contracts/Hero_Deposit/Deposit.sol\":2093:2167  witnetPriceRouter.getPriceFeed(\r... */\n      mload(0x40)\n      dup3\n      0xffffffff\n      and\n      0xe0\n      shl\n      dup2\n      mstore\n      0x04\n      add\n      tag_133\n      swap2\n      swap1\n      tag_125\n      jump\t// in\n    tag_133:\n      0x20\n      mload(0x40)\n      dup1\n      dup4\n      sub\n      dup2\n      dup7\n      dup1\n      extcodesize\n      iszero\n      dup1\n      iszero\n      tag_134\n      jumpi\n      0x00\n      dup1\n      revert\n    tag_134:\n      pop\n      gas\n      staticcall\n      iszero\n      dup1\n      iszero\n      tag_136\n      jumpi\n      returndatasize\n      0x00\n      dup1\n      returndatacopy\n      revert(0x00, returndatasize)\n    tag_136:\n      pop\n      pop\n      pop\n      pop\n      mload(0x40)\n      returndatasize\n      not(0x1f)\n      0x1f\n      dup3\n      add\n      and\n      dup3\n      add\n      dup1\n      0x40\n      mstore\n      pop\n      dup2\n      add\n      swap1\n      tag_137\n      swap2\n      swap1\n      tag_130\n      jump\t// in\n    tag_137:\n        /* \"contracts/Hero_Deposit/Deposit.sol\":2069:2167  IERC165 _newPriceFeed = witnetPriceRouter.getPriceFeed(\r... */\n      swap1\n      pop\n        /* \"contracts/Hero_Deposit/Deposit.sol\":2216:2217  0 */\n      0x00\n        /* \"contracts/Hero_Deposit/Deposit.sol\":2182:2218  address(_newPriceFeed) != address(0) */\n      0xffffffffffffffffffffffffffffffffffffffff\n      and\n        /* \"contracts/Hero_Deposit/Deposit.sol\":2190:2203  _newPriceFeed */\n      dup2\n        /* \"contracts/Hero_Deposit/Deposit.sol\":2182:2218  address(_newPriceFeed) != address(0) */\n      0xffffffffffffffffffffffffffffffffffffffff\n      and\n      eq\n        /* \"contracts/Hero_Deposit/Deposit.sol\":2178:2302  if (address(_newPriceFeed) != address(0)) {\r... */\n      tag_138\n      jumpi\n        /* \"contracts/Hero_Deposit/Deposit.sol\":2275:2288  _newPriceFeed */\n      dup1\n        /* \"contracts/Hero_Deposit/Deposit.sol\":2235:2247  celoUsdPrice */\n      0x02\n      0x00\n        /* \"contracts/Hero_Deposit/Deposit.sol\":2235:2290  celoUsdPrice = IWitnetPriceFeed(address(_newPriceFeed)) */\n      0x0100\n      exp\n      dup2\n      sload\n      dup2\n      0xffffffffffffffffffffffffffffffffffffffff\n      mul\n      not\n      and\n      swap1\n      dup4\n      0xffffffffffffffffffffffffffffffffffffffff\n      and\n      mul\n      or\n      swap1\n      sstore\n      pop\n        /* \"contracts/Hero_Deposit/Deposit.sol\":2178:2302  if (address(_newPriceFeed) != address(0)) {\r... */\n    tag_138:\n        /* \"contracts/Hero_Deposit/Deposit.sol\":2058:2309  {\r... */\n      pop\n        /* \"contracts/Hero_Deposit/Deposit.sol\":2017:2309  function updateCeloUSDPriceFeed() public {\r... */\n      jump\t// out\n        /* \"contracts/Hero_Deposit/Deposit.sol\":2317:2609  function updateCeloEurPriceFeed() public {\r... */\n    tag_40:\n        /* \"contracts/Hero_Deposit/Deposit.sol\":2369:2390  IERC165 _newPriceFeed */\n      0x00\n        /* \"contracts/Hero_Deposit/Deposit.sol\":2393:2410  witnetPriceRouter */\n      dup1\n      0x00\n      swap1\n      sload\n      swap1\n      0x0100\n      exp\n      swap1\n      div\n      0xffffffffffffffffffffffffffffffffffffffff\n      and\n        /* \"contracts/Hero_Deposit/Deposit.sol\":2393:2423  witnetPriceRouter.getPriceFeed */\n      0xffffffffffffffffffffffffffffffffffffffff\n      and\n      0x8c0adf62\n        /* \"contracts/Hero_Deposit/Deposit.sol\":2445:2455  0x21a79821 */\n      0x21a79821\n        /* \"contracts/Hero_Deposit/Deposit.sol\":2438:2456  bytes4(0x21a79821) */\n      0xe0\n      shl\n        /* \"contracts/Hero_Deposit/Deposit.sol\":2393:2467  witnetPriceRouter.getPriceFeed(\r... */\n      mload(0x40)\n      dup3\n      0xffffffff\n      and\n      0xe0\n      shl\n      dup2\n      mstore\n      0x04\n      add\n      tag_140\n      swap2\n      swap1\n      tag_125\n      jump\t// in\n    tag_140:\n      0x20\n      mload(0x40)\n      dup1\n      dup4\n      sub\n      dup2\n      dup7\n      dup1\n      extcodesize\n      iszero\n      dup1\n      iszero\n      tag_141\n      jumpi\n      0x00\n      dup1\n      revert\n    tag_141:\n      pop\n      gas\n      staticcall\n      iszero\n      dup1\n      iszero\n      tag_143\n      jumpi\n      returndatasize\n      0x00\n      dup1\n      returndatacopy\n      revert(0x00, returndatasize)\n    tag_143:\n      pop\n      pop\n      pop\n      pop\n      mload(0x40)\n      returndatasize\n      not(0x1f)\n      0x1f\n      dup3\n      add\n      and\n      dup3\n      add\n      dup1\n      0x40\n      mstore\n      pop\n      dup2\n      add\n      swap1\n      tag_144\n      swap2\n      swap1\n      tag_130\n      jump\t// in\n    tag_144:\n        /* \"contracts/Hero_Deposit/Deposit.sol\":2369:2467  IERC165 _newPriceFeed = witnetPriceRouter.getPriceFeed(\r... */\n      swap1\n      pop\n        /* \"contracts/Hero_Deposit/Deposit.sol\":2516:2517  0 */\n      0x00\n        /* \"contracts/Hero_Deposit/Deposit.sol\":2482:2518  address(_newPriceFeed) != address(0) */\n      0xffffffffffffffffffffffffffffffffffffffff\n      and\n        /* \"contracts/Hero_Deposit/Deposit.sol\":2490:2503  _newPriceFeed */\n      dup2\n        /* \"contracts/Hero_Deposit/Deposit.sol\":2482:2518  address(_newPriceFeed) != address(0) */\n      0xffffffffffffffffffffffffffffffffffffffff\n      and\n      eq\n        /* \"contracts/Hero_Deposit/Deposit.sol\":2478:2602  if (address(_newPriceFeed) != address(0)) {\r... */\n      tag_145\n      jumpi\n        /* \"contracts/Hero_Deposit/Deposit.sol\":2575:2588  _newPriceFeed */\n      dup1\n        /* \"contracts/Hero_Deposit/Deposit.sol\":2535:2547  celoEurPrice */\n      0x01\n      0x00\n        /* \"contracts/Hero_Deposit/Deposit.sol\":2535:2590  celoEurPrice = IWitnetPriceFeed(address(_newPriceFeed)) */\n      0x0100\n      exp\n      dup2\n      sload\n      dup2\n      0xffffffffffffffffffffffffffffffffffffffff\n      mul\n      not\n      and\n      swap1\n      dup4\n      0xffffffffffffffffffffffffffffffffffffffff\n      and\n      mul\n      or\n      swap1\n      sstore\n      pop\n        /* \"contracts/Hero_Deposit/Deposit.sol\":2478:2602  if (address(_newPriceFeed) != address(0)) {\r... */\n    tag_145:\n        /* \"contracts/Hero_Deposit/Deposit.sol\":2358:2609  {\r... */\n      pop\n        /* \"contracts/Hero_Deposit/Deposit.sol\":2317:2609  function updateCeloEurPriceFeed() public {\r... */\n      jump\t// out\n        /* \"contracts/Hero_Deposit/Deposit.sol\":4280:4486  function checkDepositExist(address wallet) public view returns (bool) {\r... */\n    tag_45:\n        /* \"contracts/Hero_Deposit/Deposit.sol\":4344:4348  bool */\n      0x00\n        /* \"contracts/Hero_Deposit/Deposit.sol\":4393:4394  0 */\n      dup1\n        /* \"contracts/Hero_Deposit/Deposit.sol\":4365:4379  depositersLogs */\n      0x0b\n        /* \"contracts/Hero_Deposit/Deposit.sol\":4365:4387  depositersLogs[wallet] */\n      0x00\n        /* \"contracts/Hero_Deposit/Deposit.sol\":4380:4386  wallet */\n      dup5\n        /* \"contracts/Hero_Deposit/Deposit.sol\":4365:4387  depositersLogs[wallet] */\n      0xffffffffffffffffffffffffffffffffffffffff\n      and\n      0xffffffffffffffffffffffffffffffffffffffff\n      and\n      dup2\n      mstore\n      0x20\n      add\n      swap1\n      dup2\n      mstore\n      0x20\n      add\n      0x00\n      keccak256\n        /* \"contracts/Hero_Deposit/Deposit.sol\":4365:4390  depositersLogs[wallet].id */\n      0x00\n      add\n      sload\n        /* \"contracts/Hero_Deposit/Deposit.sol\":4365:4394  depositersLogs[wallet].id > 0 */\n      gt\n        /* \"contracts/Hero_Deposit/Deposit.sol\":4361:4479  if (depositersLogs[wallet].id > 0) {\r... */\n      iszero\n      tag_147\n      jumpi\n        /* \"contracts/Hero_Deposit/Deposit.sol\":4418:4422  true */\n      0x01\n        /* \"contracts/Hero_Deposit/Deposit.sol\":4411:4422  return true */\n      swap1\n      pop\n      jump(tag_146)\n        /* \"contracts/Hero_Deposit/Deposit.sol\":4361:4479  if (depositersLogs[wallet].id > 0) {\r... */\n    tag_147:\n        /* \"contracts/Hero_Deposit/Deposit.sol\":4462:4467  false */\n      0x00\n        /* \"contracts/Hero_Deposit/Deposit.sol\":4455:4467  return false */\n      swap1\n      pop\n        /* \"contracts/Hero_Deposit/Deposit.sol\":4280:4486  function checkDepositExist(address wallet) public view returns (bool) {\r... */\n    tag_146:\n      swap2\n      swap1\n      pop\n      jump\t// out\n        /* \"contracts/Hero_Deposit/Deposit.sol\":269:312  IWitnetPriceRouter public witnetPriceRouter */\n    tag_50:\n      0x00\n      dup1\n      sload\n      swap1\n      0x0100\n      exp\n      swap1\n      div\n      0xffffffffffffffffffffffffffffffffffffffff\n      and\n      dup2\n      jump\t// out\n        /* \"contracts/Hero_Deposit/Deposit.sol\":6102:6826  function DepositCusdCredit(address contributer,address _to,uint256 amount)\r... */\n    tag_56:\n        /* \"contracts/Hero_Deposit/Deposit.sol\":6247:6251  bool */\n      0x00\n        /* \"contracts/Hero_Deposit/Deposit.sol\":1877:1882  owner */\n      0x0c\n      0x00\n      swap1\n      sload\n      swap1\n      0x0100\n      exp\n      swap1\n      div\n      0xffffffffffffffffffffffffffffffffffffffff\n      and\n        /* \"contracts/Hero_Deposit/Deposit.sol\":1863:1882  msg.sender == owner */\n      0xffffffffffffffffffffffffffffffffffffffff\n      and\n        /* \"contracts/Hero_Deposit/Deposit.sol\":1863:1873  msg.sender */\n      caller\n        /* \"contracts/Hero_Deposit/Deposit.sol\":1863:1882  msg.sender == owner */\n      0xffffffffffffffffffffffffffffffffffffffff\n      and\n      eq\n        /* \"contracts/Hero_Deposit/Deposit.sol\":1855:1883  require(msg.sender == owner) */\n      tag_150\n      jumpi\n      0x00\n      dup1\n      revert\n    tag_150:\n        /* \"contracts/Hero_Deposit/Deposit.sol\":6279:6305  int256 currentCeloUsdPrice */\n      0x00\n        /* \"contracts/Hero_Deposit/Deposit.sol\":6316:6332  uint256 lastTime */\n      dup1\n        /* \"contracts/Hero_Deposit/Deposit.sol\":6407:6412  index */\n      0x0a\n      0x00\n        /* \"contracts/Hero_Deposit/Deposit.sol\":6407:6414  index++ */\n      dup2\n      sload\n      dup1\n      swap3\n      swap2\n      swap1\n      tag_152\n      swap1\n      tag_115\n      jump\t// in\n    tag_152:\n      swap2\n      swap1\n      pop\n      sstore\n      pop\n        /* \"contracts/Hero_Deposit/Deposit.sol\":6458:6463  index */\n      sload(0x0a)\n        /* \"contracts/Hero_Deposit/Deposit.sol\":6425:6439  depositersLogs */\n      0x0b\n        /* \"contracts/Hero_Deposit/Deposit.sol\":6425:6452  depositersLogs[contributer] */\n      0x00\n        /* \"contracts/Hero_Deposit/Deposit.sol\":6440:6451  contributer */\n      dup9\n        /* \"contracts/Hero_Deposit/Deposit.sol\":6425:6452  depositersLogs[contributer] */\n      0xffffffffffffffffffffffffffffffffffffffff\n      and\n      0xffffffffffffffffffffffffffffffffffffffff\n      and\n      dup2\n      mstore\n      0x20\n      add\n      swap1\n      dup2\n      mstore\n      0x20\n      add\n      0x00\n      keccak256\n        /* \"contracts/Hero_Deposit/Deposit.sol\":6425:6455  depositersLogs[contributer].id */\n      0x00\n      add\n        /* \"contracts/Hero_Deposit/Deposit.sol\":6425:6463  depositersLogs[contributer].id = index */\n      dup2\n      swap1\n      sstore\n      pop\n        /* \"contracts/Hero_Deposit/Deposit.sol\":6531:6537  amount */\n      dup4\n        /* \"contracts/Hero_Deposit/Deposit.sol\":6474:6488  depositersLogs */\n      0x0b\n        /* \"contracts/Hero_Deposit/Deposit.sol\":6474:6501  depositersLogs[contributer] */\n      0x00\n        /* \"contracts/Hero_Deposit/Deposit.sol\":6489:6500  contributer */\n      dup9\n        /* \"contracts/Hero_Deposit/Deposit.sol\":6474:6501  depositersLogs[contributer] */\n      0xffffffffffffffffffffffffffffffffffffffff\n      and\n      0xffffffffffffffffffffffffffffffffffffffff\n      and\n      dup2\n      mstore\n      0x20\n      add\n      swap1\n      dup2\n      mstore\n      0x20\n      add\n      0x00\n      keccak256\n        /* \"contracts/Hero_Deposit/Deposit.sol\":6474:6520  depositersLogs[contributer].totalDepositsValue */\n      0x01\n      add\n      0x00\n        /* \"contracts/Hero_Deposit/Deposit.sol\":6474:6538  depositersLogs[contributer].totalDepositsValue += int256(amount) */\n      dup3\n      dup3\n      sload\n      tag_153\n      swap2\n      swap1\n      tag_113\n      jump\t// in\n    tag_153:\n      swap3\n      pop\n      pop\n      dup2\n      swap1\n      sstore\n      pop\n        /* \"contracts/Hero_Deposit/Deposit.sol\":6599:6610  contributer */\n      dup6\n        /* \"contracts/Hero_Deposit/Deposit.sol\":6550:6564  depositersLogs */\n      0x0b\n        /* \"contracts/Hero_Deposit/Deposit.sol\":6550:6577  depositersLogs[contributer] */\n      0x00\n        /* \"contracts/Hero_Deposit/Deposit.sol\":6565:6576  contributer */\n      dup9\n        /* \"contracts/Hero_Deposit/Deposit.sol\":6550:6577  depositersLogs[contributer] */\n      0xffffffffffffffffffffffffffffffffffffffff\n      and\n      0xffffffffffffffffffffffffffffffffffffffff\n      and\n      dup2\n      mstore\n      0x20\n      add\n      swap1\n      dup2\n      mstore\n      0x20\n      add\n      0x00\n      keccak256\n        /* \"contracts/Hero_Deposit/Deposit.sol\":6550:6588  depositersLogs[contributer].userWallet */\n      0x03\n      add\n      0x00\n        /* \"contracts/Hero_Deposit/Deposit.sol\":6550:6611  depositersLogs[contributer].userWallet = address(contributer) */\n      0x0100\n      exp\n      dup2\n      sload\n      dup2\n      0xffffffffffffffffffffffffffffffffffffffff\n      mul\n      not\n      and\n      swap1\n      dup4\n      0xffffffffffffffffffffffffffffffffffffffff\n      and\n      mul\n      or\n      swap1\n      sstore\n      pop\n        /* \"contracts/Hero_Deposit/Deposit.sol\":6671:6672  1 */\n      0x01\n        /* \"contracts/Hero_Deposit/Deposit.sol\":6622:6636  depositersLogs */\n      0x0b\n        /* \"contracts/Hero_Deposit/Deposit.sol\":6622:6649  depositersLogs[contributer] */\n      0x00\n        /* \"contracts/Hero_Deposit/Deposit.sol\":6637:6648  contributer */\n      dup9\n        /* \"contracts/Hero_Deposit/Deposit.sol\":6622:6649  depositersLogs[contributer] */\n      0xffffffffffffffffffffffffffffffffffffffff\n      and\n      0xffffffffffffffffffffffffffffffffffffffff\n      and\n      dup2\n      mstore\n      0x20\n      add\n      swap1\n      dup2\n      mstore\n      0x20\n      add\n      0x00\n      keccak256\n        /* \"contracts/Hero_Deposit/Deposit.sol\":6622:6667  depositersLogs[contributer].totalDepositTimes */\n      0x02\n      add\n      0x00\n        /* \"contracts/Hero_Deposit/Deposit.sol\":6622:6672  depositersLogs[contributer].totalDepositTimes += 1 */\n      dup3\n      dup3\n      sload\n      tag_154\n      swap2\n      swap1\n      tag_117\n      jump\t// in\n    tag_154:\n      swap3\n      pop\n      pop\n      dup2\n      swap1\n      sstore\n      pop\n        /* \"contracts/Hero_Deposit/Deposit.sol\":6718:6724  amount */\n      dup4\n        /* \"contracts/Hero_Deposit/Deposit.sol\":6683:6700  depositToActivist */\n      0x04\n        /* \"contracts/Hero_Deposit/Deposit.sol\":6683:6705  depositToActivist[_to] */\n      0x00\n        /* \"contracts/Hero_Deposit/Deposit.sol\":6701:6704  _to */\n      dup8\n        /* \"contracts/Hero_Deposit/Deposit.sol\":6683:6705  depositToActivist[_to] */\n      0xffffffffffffffffffffffffffffffffffffffff\n      and\n      0xffffffffffffffffffffffffffffffffffffffff\n      and\n      dup2\n      mstore\n      0x20\n      add\n      swap1\n      dup2\n      mstore\n      0x20\n      add\n      0x00\n      keccak256\n        /* \"contracts/Hero_Deposit/Deposit.sol\":6683:6714  depositToActivist[_to].usdcCoin */\n      0x01\n      add\n      0x00\n        /* \"contracts/Hero_Deposit/Deposit.sol\":6683:6724  depositToActivist[_to].usdcCoin += amount */\n      dup3\n      dup3\n      sload\n      tag_155\n      swap2\n      swap1\n      tag_117\n      jump\t// in\n    tag_155:\n      swap3\n      pop\n      pop\n      dup2\n      swap1\n      sstore\n      pop\n        /* \"contracts/Hero_Deposit/Deposit.sol\":6814:6818  true */\n      0x01\n        /* \"contracts/Hero_Deposit/Deposit.sol\":6807:6818  return true */\n      swap3\n      pop\n      pop\n      pop\n        /* \"contracts/Hero_Deposit/Deposit.sol\":6102:6826  function DepositCusdCredit(address contributer,address _to,uint256 amount)\r... */\n      swap4\n      swap3\n      pop\n      pop\n      pop\n      jump\t// out\n        /* \"contracts/Hero_Deposit/Deposit.sol\":1588:1637  mapping(address => deposit) public depositersLogs */\n    tag_61:\n      mstore(0x20, 0x0b)\n      dup1\n      0x00\n      mstore\n      keccak256(0x00, 0x40)\n      0x00\n      swap2\n      pop\n      swap1\n      pop\n      dup1\n      0x00\n      add\n      sload\n      swap1\n      dup1\n      0x01\n      add\n      sload\n      swap1\n      dup1\n      0x02\n      add\n      sload\n      swap1\n      dup1\n      0x03\n      add\n      0x00\n      swap1\n      sload\n      swap1\n      0x0100\n      exp\n      swap1\n      div\n      0xffffffffffffffffffffffffffffffffffffffff\n      and\n      swap1\n      pop\n      dup5\n      jump\t// out\n        /* \"contracts/Hero_Deposit/Deposit.sol\":8376:9396  function withdrowCelo(address payable _to)\r... */\n    tag_66:\n        /* \"contracts/Hero_Deposit/Deposit.sol\":8494:8501  uint256 */\n      0x00\n        /* \"contracts/Hero_Deposit/Deposit.sol\":8503:8510  uint256 */\n      dup1\n        /* \"contracts/Hero_Deposit/Deposit.sol\":1741:1747  locked */\n      0x0c\n      0x14\n      swap1\n      sload\n      swap1\n      0x0100\n      exp\n      swap1\n      div\n      0xff\n      and\n        /* \"contracts/Hero_Deposit/Deposit.sol\":1740:1747  !locked */\n      iszero\n        /* \"contracts/Hero_Deposit/Deposit.sol\":1732:1748  require(!locked) */\n      tag_157\n      jumpi\n      0x00\n      dup1\n      revert\n    tag_157:\n        /* \"contracts/Hero_Deposit/Deposit.sol\":1768:1772  true */\n      0x01\n        /* \"contracts/Hero_Deposit/Deposit.sol\":1759:1765  locked */\n      0x0c\n      0x14\n        /* \"contracts/Hero_Deposit/Deposit.sol\":1759:1772  locked = true */\n      0x0100\n      exp\n      dup2\n      sload\n      dup2\n      0xff\n      mul\n      not\n      and\n      swap1\n      dup4\n      iszero\n      iszero\n      mul\n      or\n      swap1\n      sstore\n      pop\n        /* \"contracts/Hero_Deposit/Deposit.sol\":8585:8594  msg.value */\n      callvalue\n        /* \"contracts/Hero_Deposit/Deposit.sol\":8550:8567  depositToActivist */\n      0x04\n        /* \"contracts/Hero_Deposit/Deposit.sol\":8550:8572  depositToActivist[_to] */\n      0x00\n        /* \"contracts/Hero_Deposit/Deposit.sol\":8568:8571  _to */\n      dup6\n        /* \"contracts/Hero_Deposit/Deposit.sol\":8550:8572  depositToActivist[_to] */\n      0xffffffffffffffffffffffffffffffffffffffff\n      and\n      0xffffffffffffffffffffffffffffffffffffffff\n      and\n      dup2\n      mstore\n      0x20\n      add\n      swap1\n      dup2\n      mstore\n      0x20\n      add\n      0x00\n      keccak256\n        /* \"contracts/Hero_Deposit/Deposit.sol\":8550:8581  depositToActivist[_to].celoCoin */\n      0x00\n      add\n      sload\n        /* \"contracts/Hero_Deposit/Deposit.sol\":8550:8594  depositToActivist[_to].celoCoin >= msg.value */\n      lt\n      iszero\n        /* \"contracts/Hero_Deposit/Deposit.sol\":8528:8637  require(\r... */\n      tag_159\n      jumpi\n      mload(0x40)\n      0x08c379a000000000000000000000000000000000000000000000000000000000\n      dup2\n      mstore\n      0x04\n      add\n      tag_160\n      swap1\n      tag_161\n      jump\t// in\n    tag_160:\n      mload(0x40)\n      dup1\n      swap2\n      sub\n      swap1\n      revert\n    tag_159:\n        /* \"contracts/Hero_Deposit/Deposit.sol\":8649:8675  int256 currentCeloUsdPrice */\n      0x00\n        /* \"contracts/Hero_Deposit/Deposit.sol\":8677:8693  uint256 lastTime */\n      dup1\n        /* \"contracts/Hero_Deposit/Deposit.sol\":8697:8714  getCeloUsdPrice() */\n      tag_162\n        /* \"contracts/Hero_Deposit/Deposit.sol\":8697:8712  getCeloUsdPrice */\n      tag_102\n        /* \"contracts/Hero_Deposit/Deposit.sol\":8697:8714  getCeloUsdPrice() */\n      jump\t// in\n    tag_162:\n        /* \"contracts/Hero_Deposit/Deposit.sol\":8648:8714  (int256 currentCeloUsdPrice, uint256 lastTime) = getCeloUsdPrice() */\n      swap2\n      pop\n      swap2\n      pop\n        /* \"contracts/Hero_Deposit/Deposit.sol\":8727:8741  uint256 amount */\n      0x00\n        /* \"contracts/Hero_Deposit/Deposit.sol\":8875:8877  12 */\n      0x0c\n        /* \"contracts/Hero_Deposit/Deposit.sol\":8837:8856  currentCeloUsdPrice */\n      dup4\n        /* \"contracts/Hero_Deposit/Deposit.sol\":8795:8812  depositToActivist */\n      0x04\n        /* \"contracts/Hero_Deposit/Deposit.sol\":8795:8817  depositToActivist[_to] */\n      0x00\n        /* \"contracts/Hero_Deposit/Deposit.sol\":8813:8816  _to */\n      dup10\n        /* \"contracts/Hero_Deposit/Deposit.sol\":8795:8817  depositToActivist[_to] */\n      0xffffffffffffffffffffffffffffffffffffffff\n      and\n      0xffffffffffffffffffffffffffffffffffffffff\n      and\n      dup2\n      mstore\n      0x20\n      add\n      swap1\n      dup2\n      mstore\n      0x20\n      add\n      0x00\n      keccak256\n        /* \"contracts/Hero_Deposit/Deposit.sol\":8795:8826  depositToActivist[_to].usdcCoin */\n      0x01\n      add\n      sload\n        /* \"contracts/Hero_Deposit/Deposit.sol\":8795:8857  depositToActivist[_to].usdcCoin / uint256(currentCeloUsdPrice) */\n      tag_163\n      swap2\n      swap1\n      tag_164\n      jump\t// in\n    tag_163:\n        /* \"contracts/Hero_Deposit/Deposit.sol\":8746:8763  depositToActivist */\n      0x04\n        /* \"contracts/Hero_Deposit/Deposit.sol\":8746:8768  depositToActivist[_to] */\n      0x00\n        /* \"contracts/Hero_Deposit/Deposit.sol\":8764:8767  _to */\n      dup10\n        /* \"contracts/Hero_Deposit/Deposit.sol\":8746:8768  depositToActivist[_to] */\n      0xffffffffffffffffffffffffffffffffffffffff\n      and\n      0xffffffffffffffffffffffffffffffffffffffff\n      and\n      dup2\n      mstore\n      0x20\n      add\n      swap1\n      dup2\n      mstore\n      0x20\n      add\n      0x00\n      keccak256\n        /* \"contracts/Hero_Deposit/Deposit.sol\":8746:8777  depositToActivist[_to].celoCoin */\n      0x00\n      add\n      sload\n        /* \"contracts/Hero_Deposit/Deposit.sol\":8745:8858  (depositToActivist[_to].celoCoin) +\r... */\n      tag_165\n      swap2\n      swap1\n      tag_117\n      jump\t// in\n    tag_165:\n        /* \"contracts/Hero_Deposit/Deposit.sol\":8744:8877  ((depositToActivist[_to].celoCoin) +\r... */\n      tag_166\n      swap2\n      swap1\n      tag_164\n      jump\t// in\n    tag_166:\n        /* \"contracts/Hero_Deposit/Deposit.sol\":8727:8877  uint256 amount = ((depositToActivist[_to].celoCoin) +\r... */\n      swap1\n      pop\n        /* \"contracts/Hero_Deposit/Deposit.sol\":8888:8891  _to */\n      dup6\n        /* \"contracts/Hero_Deposit/Deposit.sol\":8888:8900  _to.transfer */\n      0xffffffffffffffffffffffffffffffffffffffff\n      and\n        /* \"contracts/Hero_Deposit/Deposit.sol\":8888:8908  _to.transfer(amount) */\n      0x08fc\n        /* \"contracts/Hero_Deposit/Deposit.sol\":8901:8907  amount */\n      dup3\n        /* \"contracts/Hero_Deposit/Deposit.sol\":8888:8908  _to.transfer(amount) */\n      swap1\n      dup2\n      iszero\n      mul\n      swap1\n      mload(0x40)\n      0x00\n      mload(0x40)\n      dup1\n      dup4\n      sub\n      dup2\n      dup6\n      dup9\n      dup9\n      call\n      swap4\n      pop\n      pop\n      pop\n      pop\n      iszero\n      dup1\n      iszero\n      tag_168\n      jumpi\n      returndatasize\n      0x00\n      dup1\n      returndatacopy\n      revert(0x00, returndatasize)\n    tag_168:\n      pop\n        /* \"contracts/Hero_Deposit/Deposit.sol\":8960:8961  0 */\n      0x00\n        /* \"contracts/Hero_Deposit/Deposit.sol\":8925:8942  depositToActivist */\n      0x04\n        /* \"contracts/Hero_Deposit/Deposit.sol\":8925:8947  depositToActivist[_to] */\n      0x00\n        /* \"contracts/Hero_Deposit/Deposit.sol\":8943:8946  _to */\n      dup9\n        /* \"contracts/Hero_Deposit/Deposit.sol\":8925:8947  depositToActivist[_to] */\n      0xffffffffffffffffffffffffffffffffffffffff\n      and\n      0xffffffffffffffffffffffffffffffffffffffff\n      and\n      dup2\n      mstore\n      0x20\n      add\n      swap1\n      dup2\n      mstore\n      0x20\n      add\n      0x00\n      keccak256\n        /* \"contracts/Hero_Deposit/Deposit.sol\":8925:8956  depositToActivist[_to].celoCoin */\n      0x00\n      add\n      sload\n        /* \"contracts/Hero_Deposit/Deposit.sol\":8925:8961  depositToActivist[_to].celoCoin == 0 */\n      eq\n        /* \"contracts/Hero_Deposit/Deposit.sol\":8921:9285  if (depositToActivist[_to].celoCoin == 0) {\r... */\n      iszero\n      tag_169\n      jumpi\n        /* \"contracts/Hero_Deposit/Deposit.sol\":9013:9019  amount */\n      dup1\n        /* \"contracts/Hero_Deposit/Deposit.sol\":8978:8995  depositToActivist */\n      0x04\n        /* \"contracts/Hero_Deposit/Deposit.sol\":8978:9000  depositToActivist[_to] */\n      0x00\n        /* \"contracts/Hero_Deposit/Deposit.sol\":8996:8999  _to */\n      dup9\n        /* \"contracts/Hero_Deposit/Deposit.sol\":8978:9000  depositToActivist[_to] */\n      0xffffffffffffffffffffffffffffffffffffffff\n      and\n      0xffffffffffffffffffffffffffffffffffffffff\n      and\n      dup2\n      mstore\n      0x20\n      add\n      swap1\n      dup2\n      mstore\n      0x20\n      add\n      0x00\n      keccak256\n        /* \"contracts/Hero_Deposit/Deposit.sol\":8978:9009  depositToActivist[_to].usdcCoin */\n      0x01\n      add\n      0x00\n        /* \"contracts/Hero_Deposit/Deposit.sol\":8978:9019  depositToActivist[_to].usdcCoin -= amount */\n      dup3\n      dup3\n      sload\n      tag_170\n      swap2\n      swap1\n      tag_171\n      jump\t// in\n    tag_170:\n      swap3\n      pop\n      pop\n      dup2\n      swap1\n      sstore\n      pop\n        /* \"contracts/Hero_Deposit/Deposit.sol\":8921:9285  if (depositToActivist[_to].celoCoin == 0) {\r... */\n      jump(tag_172)\n    tag_169:\n        /* \"contracts/Hero_Deposit/Deposit.sol\":9076:9077  0 */\n      0x00\n        /* \"contracts/Hero_Deposit/Deposit.sol\":9041:9058  depositToActivist */\n      0x04\n        /* \"contracts/Hero_Deposit/Deposit.sol\":9041:9063  depositToActivist[_to] */\n      0x00\n        /* \"contracts/Hero_Deposit/Deposit.sol\":9059:9062  _to */\n      dup9\n        /* \"contracts/Hero_Deposit/Deposit.sol\":9041:9063  depositToActivist[_to] */\n      0xffffffffffffffffffffffffffffffffffffffff\n      and\n      0xffffffffffffffffffffffffffffffffffffffff\n      and\n      dup2\n      mstore\n      0x20\n      add\n      swap1\n      dup2\n      mstore\n      0x20\n      add\n      0x00\n      keccak256\n        /* \"contracts/Hero_Deposit/Deposit.sol\":9041:9072  depositToActivist[_to].usdcCoin */\n      0x01\n      add\n      sload\n        /* \"contracts/Hero_Deposit/Deposit.sol\":9041:9077  depositToActivist[_to].usdcCoin == 0 */\n      eq\n        /* \"contracts/Hero_Deposit/Deposit.sol\":9037:9285  if (depositToActivist[_to].usdcCoin == 0) {\r... */\n      iszero\n      tag_173\n      jumpi\n        /* \"contracts/Hero_Deposit/Deposit.sol\":9129:9135  amount */\n      dup1\n        /* \"contracts/Hero_Deposit/Deposit.sol\":9094:9111  depositToActivist */\n      0x04\n        /* \"contracts/Hero_Deposit/Deposit.sol\":9094:9116  depositToActivist[_to] */\n      0x00\n        /* \"contracts/Hero_Deposit/Deposit.sol\":9112:9115  _to */\n      dup9\n        /* \"contracts/Hero_Deposit/Deposit.sol\":9094:9116  depositToActivist[_to] */\n      0xffffffffffffffffffffffffffffffffffffffff\n      and\n      0xffffffffffffffffffffffffffffffffffffffff\n      and\n      dup2\n      mstore\n      0x20\n      add\n      swap1\n      dup2\n      mstore\n      0x20\n      add\n      0x00\n      keccak256\n        /* \"contracts/Hero_Deposit/Deposit.sol\":9094:9125  depositToActivist[_to].celoCoin */\n      0x00\n      add\n      0x00\n        /* \"contracts/Hero_Deposit/Deposit.sol\":9094:9135  depositToActivist[_to].celoCoin -= amount */\n      dup3\n      dup3\n      sload\n      tag_174\n      swap2\n      swap1\n      tag_171\n      jump\t// in\n    tag_174:\n      swap3\n      pop\n      pop\n      dup2\n      swap1\n      sstore\n      pop\n        /* \"contracts/Hero_Deposit/Deposit.sol\":9037:9285  if (depositToActivist[_to].usdcCoin == 0) {\r... */\n      jump(tag_175)\n    tag_173:\n        /* \"contracts/Hero_Deposit/Deposit.sol\":9212:9213  2 */\n      0x02\n        /* \"contracts/Hero_Deposit/Deposit.sol\":9203:9209  amount */\n      dup2\n        /* \"contracts/Hero_Deposit/Deposit.sol\":9203:9213  amount / 2 */\n      tag_176\n      swap2\n      swap1\n      tag_164\n      jump\t// in\n    tag_176:\n        /* \"contracts/Hero_Deposit/Deposit.sol\":9168:9185  depositToActivist */\n      0x04\n        /* \"contracts/Hero_Deposit/Deposit.sol\":9168:9190  depositToActivist[_to] */\n      0x00\n        /* \"contracts/Hero_Deposit/Deposit.sol\":9186:9189  _to */\n      dup9\n        /* \"contracts/Hero_Deposit/Deposit.sol\":9168:9190  depositToActivist[_to] */\n      0xffffffffffffffffffffffffffffffffffffffff\n      and\n      0xffffffffffffffffffffffffffffffffffffffff\n      and\n      dup2\n      mstore\n      0x20\n      add\n      swap1\n      dup2\n      mstore\n      0x20\n      add\n      0x00\n      keccak256\n        /* \"contracts/Hero_Deposit/Deposit.sol\":9168:9199  depositToActivist[_to].celoCoin */\n      0x00\n      add\n      0x00\n        /* \"contracts/Hero_Deposit/Deposit.sol\":9168:9213  depositToActivist[_to].celoCoin -= amount / 2 */\n      dup3\n      dup3\n      sload\n      tag_177\n      swap2\n      swap1\n      tag_171\n      jump\t// in\n    tag_177:\n      swap3\n      pop\n      pop\n      dup2\n      swap1\n      sstore\n      pop\n        /* \"contracts/Hero_Deposit/Deposit.sol\":9272:9273  2 */\n      0x02\n        /* \"contracts/Hero_Deposit/Deposit.sol\":9263:9269  amount */\n      dup2\n        /* \"contracts/Hero_Deposit/Deposit.sol\":9263:9273  amount / 2 */\n      tag_178\n      swap2\n      swap1\n      tag_164\n      jump\t// in\n    tag_178:\n        /* \"contracts/Hero_Deposit/Deposit.sol\":9228:9245  depositToActivist */\n      0x04\n        /* \"contracts/Hero_Deposit/Deposit.sol\":9228:9250  depositToActivist[_to] */\n      0x00\n        /* \"contracts/Hero_Deposit/Deposit.sol\":9246:9249  _to */\n      dup9\n        /* \"contracts/Hero_Deposit/Deposit.sol\":9228:9250  depositToActivist[_to] */\n      0xffffffffffffffffffffffffffffffffffffffff\n      and\n      0xffffffffffffffffffffffffffffffffffffffff\n      and\n      dup2\n      mstore\n      0x20\n      add\n      swap1\n      dup2\n      mstore\n      0x20\n      add\n      0x00\n      keccak256\n        /* \"contracts/Hero_Deposit/Deposit.sol\":9228:9259  depositToActivist[_to].usdcCoin */\n      0x01\n      add\n      0x00\n        /* \"contracts/Hero_Deposit/Deposit.sol\":9228:9273  depositToActivist[_to].usdcCoin -= amount / 2 */\n      dup3\n      dup3\n      sload\n      tag_179\n      swap2\n      swap1\n      tag_171\n      jump\t// in\n    tag_179:\n      swap3\n      pop\n      pop\n      dup2\n      swap1\n      sstore\n      pop\n        /* \"contracts/Hero_Deposit/Deposit.sol\":9037:9285  if (depositToActivist[_to].usdcCoin == 0) {\r... */\n    tag_175:\n        /* \"contracts/Hero_Deposit/Deposit.sol\":8921:9285  if (depositToActivist[_to].celoCoin == 0) {\r... */\n    tag_172:\n        /* \"contracts/Hero_Deposit/Deposit.sol\":9316:9319  _to */\n      dup6\n        /* \"contracts/Hero_Deposit/Deposit.sol\":9300:9345  activistPayment(_to, amount, block.timestamp) */\n      0xffffffffffffffffffffffffffffffffffffffff\n      and\n      0x9cd516bc314ca50bb8f1f5602d3f202cdcbf17b89da33dd13c3909d5d3c00a32\n        /* \"contracts/Hero_Deposit/Deposit.sol\":9321:9327  amount */\n      dup3\n        /* \"contracts/Hero_Deposit/Deposit.sol\":9329:9344  block.timestamp */\n      timestamp\n        /* \"contracts/Hero_Deposit/Deposit.sol\":9300:9345  activistPayment(_to, amount, block.timestamp) */\n      mload(0x40)\n      tag_180\n      swap3\n      swap2\n      swap1\n      tag_68\n      jump\t// in\n    tag_180:\n      mload(0x40)\n      dup1\n      swap2\n      sub\n      swap1\n      log2\n        /* \"contracts/Hero_Deposit/Deposit.sol\":9364:9370  amount */\n      dup1\n        /* \"contracts/Hero_Deposit/Deposit.sol\":9372:9387  block.timestamp */\n      timestamp\n        /* \"contracts/Hero_Deposit/Deposit.sol\":9356:9388  return (amount, block.timestamp) */\n      swap5\n      pop\n      swap5\n      pop\n      pop\n      pop\n      pop\n        /* \"contracts/Hero_Deposit/Deposit.sol\":1804:1809  false */\n      0x00\n        /* \"contracts/Hero_Deposit/Deposit.sol\":1795:1801  locked */\n      0x0c\n      0x14\n        /* \"contracts/Hero_Deposit/Deposit.sol\":1795:1809  locked = false */\n      0x0100\n      exp\n      dup2\n      sload\n      dup2\n      0xff\n      mul\n      not\n      and\n      swap1\n      dup4\n      iszero\n      iszero\n      mul\n      or\n      swap1\n      sstore\n      pop\n        /* \"contracts/Hero_Deposit/Deposit.sol\":8376:9396  function withdrowCelo(address payable _to)\r... */\n      swap2\n      pop\n      swap2\n      jump\t// out\n        /* \"contracts/Hero_Deposit/Deposit.sol\":6933:8368  function DepositCusd(address payable _to)\r... */\n    tag_71:\n        /* \"contracts/Hero_Deposit/Deposit.sol\":7050:7054  bool */\n      0x00\n        /* \"contracts/Hero_Deposit/Deposit.sol\":1741:1747  locked */\n      0x0c\n      0x14\n      swap1\n      sload\n      swap1\n      0x0100\n      exp\n      swap1\n      div\n      0xff\n      and\n        /* \"contracts/Hero_Deposit/Deposit.sol\":1740:1747  !locked */\n      iszero\n        /* \"contracts/Hero_Deposit/Deposit.sol\":1732:1748  require(!locked) */\n      tag_182\n      jumpi\n      0x00\n      dup1\n      revert\n    tag_182:\n        /* \"contracts/Hero_Deposit/Deposit.sol\":1768:1772  true */\n      0x01\n        /* \"contracts/Hero_Deposit/Deposit.sol\":1759:1765  locked */\n      0x0c\n      0x14\n        /* \"contracts/Hero_Deposit/Deposit.sol\":1759:1772  locked = true */\n      0x0100\n      exp\n      dup2\n      sload\n      dup2\n      0xff\n      mul\n      not\n      and\n      swap1\n      dup4\n      iszero\n      iszero\n      mul\n      or\n      swap1\n      sstore\n      pop\n        /* \"contracts/Hero_Deposit/Deposit.sol\":7116:7125  msg.value */\n      callvalue\n        /* \"contracts/Hero_Deposit/Deposit.sol\":7094:7104  msg.sender */\n      caller\n        /* \"contracts/Hero_Deposit/Deposit.sol\":7094:7112  msg.sender.balance */\n      0xffffffffffffffffffffffffffffffffffffffff\n      and\n      balance\n        /* \"contracts/Hero_Deposit/Deposit.sol\":7094:7125  msg.sender.balance >= msg.value */\n      lt\n      iszero\n        /* \"contracts/Hero_Deposit/Deposit.sol\":7072:7183  require(\r... */\n      tag_184\n      jumpi\n      mload(0x40)\n      0x08c379a000000000000000000000000000000000000000000000000000000000\n      dup2\n      mstore\n      0x04\n      add\n      tag_185\n      swap1\n      tag_100\n      jump\t// in\n    tag_185:\n      mload(0x40)\n      dup1\n      swap2\n      sub\n      swap1\n      revert\n    tag_184:\n        /* \"contracts/Hero_Deposit/Deposit.sol\":7215:7216  1 */\n      0x01\n        /* \"contracts/Hero_Deposit/Deposit.sol\":7202:7211  msg.value */\n      callvalue\n        /* \"contracts/Hero_Deposit/Deposit.sol\":7202:7216  msg.value >= 1 */\n      lt\n      iszero\n        /* \"contracts/Hero_Deposit/Deposit.sol\":7194:7248  require(msg.value >= 1, \"Thanks to deposit more cusd\") */\n      tag_186\n      jumpi\n      mload(0x40)\n      0x08c379a000000000000000000000000000000000000000000000000000000000\n      dup2\n      mstore\n      0x04\n      add\n      tag_187\n      swap1\n      tag_188\n      jump\t// in\n    tag_187:\n      mload(0x40)\n      dup1\n      swap2\n      sub\n      swap1\n      revert\n    tag_186:\n        /* \"contracts/Hero_Deposit/Deposit.sol\":7260:7286  int256 currentCeloUsdPrice */\n      0x00\n        /* \"contracts/Hero_Deposit/Deposit.sol\":7288:7304  uint256 lastTime */\n      dup1\n        /* \"contracts/Hero_Deposit/Deposit.sol\":7308:7325  getCeloUsdPrice() */\n      tag_189\n        /* \"contracts/Hero_Deposit/Deposit.sol\":7308:7323  getCeloUsdPrice */\n      tag_102\n        /* \"contracts/Hero_Deposit/Deposit.sol\":7308:7325  getCeloUsdPrice() */\n      jump\t// in\n    tag_189:\n        /* \"contracts/Hero_Deposit/Deposit.sol\":7259:7325  (int256 currentCeloUsdPrice, uint256 lastTime) = getCeloUsdPrice() */\n      swap2\n      pop\n      swap2\n      pop\n        /* \"contracts/Hero_Deposit/Deposit.sol\":7373:7377  true */\n      0x01\n        /* \"contracts/Hero_Deposit/Deposit.sol\":7340:7377  checkDepositExist(msg.sender) == true */\n      iszero\n      iszero\n        /* \"contracts/Hero_Deposit/Deposit.sol\":7340:7369  checkDepositExist(msg.sender) */\n      tag_190\n        /* \"contracts/Hero_Deposit/Deposit.sol\":7358:7368  msg.sender */\n      caller\n        /* \"contracts/Hero_Deposit/Deposit.sol\":7340:7357  checkDepositExist */\n      tag_45\n        /* \"contracts/Hero_Deposit/Deposit.sol\":7340:7369  checkDepositExist(msg.sender) */\n      jump\t// in\n    tag_190:\n        /* \"contracts/Hero_Deposit/Deposit.sol\":7340:7377  checkDepositExist(msg.sender) == true */\n      iszero\n      iszero\n      eq\n        /* \"contracts/Hero_Deposit/Deposit.sol\":7336:7823  if (checkDepositExist(msg.sender) == true) {\r... */\n      iszero\n      tag_191\n      jumpi\n        /* \"contracts/Hero_Deposit/Deposit.sol\":7497:7516  currentCeloUsdPrice */\n      dup2\n        /* \"contracts/Hero_Deposit/Deposit.sol\":7467:7476  msg.value */\n      callvalue\n        /* \"contracts/Hero_Deposit/Deposit.sol\":7460:7516  int256(msg.value) *\r... */\n      tag_192\n      swap2\n      swap1\n      tag_109\n      jump\t// in\n    tag_192:\n        /* \"contracts/Hero_Deposit/Deposit.sol\":7394:7408  depositersLogs */\n      0x0b\n        /* \"contracts/Hero_Deposit/Deposit.sol\":7394:7420  depositersLogs[msg.sender] */\n      0x00\n        /* \"contracts/Hero_Deposit/Deposit.sol\":7409:7419  msg.sender */\n      caller\n        /* \"contracts/Hero_Deposit/Deposit.sol\":7394:7420  depositersLogs[msg.sender] */\n      0xffffffffffffffffffffffffffffffffffffffff\n      and\n      0xffffffffffffffffffffffffffffffffffffffff\n      and\n      dup2\n      mstore\n      0x20\n      add\n      swap1\n      dup2\n      mstore\n      0x20\n      add\n      0x00\n      keccak256\n        /* \"contracts/Hero_Deposit/Deposit.sol\":7394:7439  depositersLogs[msg.sender].totalDepositsValue */\n      0x01\n      add\n      0x00\n        /* \"contracts/Hero_Deposit/Deposit.sol\":7394:7516  depositersLogs[msg.sender].totalDepositsValue +=\r... */\n      dup3\n      dup3\n      sload\n      tag_193\n      swap2\n      swap1\n      tag_113\n      jump\t// in\n    tag_193:\n      swap3\n      pop\n      pop\n      dup2\n      swap1\n      sstore\n      pop\n        /* \"contracts/Hero_Deposit/Deposit.sol\":7531:7545  depositersLogs */\n      0x0b\n        /* \"contracts/Hero_Deposit/Deposit.sol\":7531:7557  depositersLogs[msg.sender] */\n      0x00\n        /* \"contracts/Hero_Deposit/Deposit.sol\":7546:7556  msg.sender */\n      caller\n        /* \"contracts/Hero_Deposit/Deposit.sol\":7531:7557  depositersLogs[msg.sender] */\n      0xffffffffffffffffffffffffffffffffffffffff\n      and\n      0xffffffffffffffffffffffffffffffffffffffff\n      and\n      dup2\n      mstore\n      0x20\n      add\n      swap1\n      dup2\n      mstore\n      0x20\n      add\n      0x00\n      keccak256\n        /* \"contracts/Hero_Deposit/Deposit.sol\":7531:7575  depositersLogs[msg.sender].totalDepositTimes */\n      0x02\n      add\n      0x00\n        /* \"contracts/Hero_Deposit/Deposit.sol\":7531:7577  depositersLogs[msg.sender].totalDepositTimes++ */\n      dup2\n      sload\n      dup1\n      swap3\n      swap2\n      swap1\n      tag_194\n      swap1\n      tag_115\n      jump\t// in\n    tag_194:\n      swap2\n      swap1\n      pop\n      sstore\n      pop\n        /* \"contracts/Hero_Deposit/Deposit.sol\":7592:7599  CusdERC */\n      0x05\n      0x00\n      swap1\n      sload\n      swap1\n      0x0100\n      exp\n      swap1\n      div\n      0xffffffffffffffffffffffffffffffffffffffff\n      and\n        /* \"contracts/Hero_Deposit/Deposit.sol\":7592:7612  CusdERC.transferFrom */\n      0xffffffffffffffffffffffffffffffffffffffff\n      and\n      0x23b872dd\n        /* \"contracts/Hero_Deposit/Deposit.sol\":7613:7623  msg.sender */\n      caller\n        /* \"contracts/Hero_Deposit/Deposit.sol\":7633:7637  this */\n      address\n        /* \"contracts/Hero_Deposit/Deposit.sol\":7640:7649  msg.value */\n      callvalue\n        /* \"contracts/Hero_Deposit/Deposit.sol\":7592:7650  CusdERC.transferFrom(msg.sender, address(this), msg.value) */\n      mload(0x40)\n      dup5\n      0xffffffff\n      and\n      0xe0\n      shl\n      dup2\n      mstore\n      0x04\n      add\n      tag_195\n      swap4\n      swap3\n      swap2\n      swap1\n      tag_196\n      jump\t// in\n    tag_195:\n      0x20\n      mload(0x40)\n      dup1\n      dup4\n      sub\n      dup2\n      0x00\n      dup8\n      dup1\n      extcodesize\n      iszero\n      dup1\n      iszero\n      tag_197\n      jumpi\n      0x00\n      dup1\n      revert\n    tag_197:\n      pop\n      gas\n      call\n      iszero\n      dup1\n      iszero\n      tag_199\n      jumpi\n      returndatasize\n      0x00\n      dup1\n      returndatacopy\n      revert(0x00, returndatasize)\n    tag_199:\n      pop\n      pop\n      pop\n      pop\n      mload(0x40)\n      returndatasize\n      not(0x1f)\n      0x1f\n      dup3\n      add\n      and\n      dup3\n      add\n      dup1\n      0x40\n      mstore\n      pop\n      dup2\n      add\n      swap1\n      tag_200\n      swap2\n      swap1\n      tag_201\n      jump\t// in\n    tag_200:\n      pop\n        /* \"contracts/Hero_Deposit/Deposit.sol\":7700:7709  msg.value */\n      callvalue\n        /* \"contracts/Hero_Deposit/Deposit.sol\":7665:7682  depositToActivist */\n      0x04\n        /* \"contracts/Hero_Deposit/Deposit.sol\":7665:7687  depositToActivist[_to] */\n      0x00\n        /* \"contracts/Hero_Deposit/Deposit.sol\":7683:7686  _to */\n      dup7\n        /* \"contracts/Hero_Deposit/Deposit.sol\":7665:7687  depositToActivist[_to] */\n      0xffffffffffffffffffffffffffffffffffffffff\n      and\n      0xffffffffffffffffffffffffffffffffffffffff\n      and\n      dup2\n      mstore\n      0x20\n      add\n      swap1\n      dup2\n      mstore\n      0x20\n      add\n      0x00\n      keccak256\n        /* \"contracts/Hero_Deposit/Deposit.sol\":7665:7696  depositToActivist[_to].usdcCoin */\n      0x01\n      add\n      0x00\n        /* \"contracts/Hero_Deposit/Deposit.sol\":7665:7709  depositToActivist[_to].usdcCoin += msg.value */\n      dup3\n      dup3\n      sload\n      tag_202\n      swap2\n      swap1\n      tag_117\n      jump\t// in\n    tag_202:\n      swap3\n      pop\n      pop\n      dup2\n      swap1\n      sstore\n      pop\n        /* \"contracts/Hero_Deposit/Deposit.sol\":7753:7756  _to */\n      dup4\n        /* \"contracts/Hero_Deposit/Deposit.sol\":7729:7785  depositLogs(msg.sender, _to, msg.value, block.timestamp) */\n      0xffffffffffffffffffffffffffffffffffffffff\n      and\n        /* \"contracts/Hero_Deposit/Deposit.sol\":7741:7751  msg.sender */\n      caller\n        /* \"contracts/Hero_Deposit/Deposit.sol\":7729:7785  depositLogs(msg.sender, _to, msg.value, block.timestamp) */\n      0xffffffffffffffffffffffffffffffffffffffff\n      and\n      0xadbbbbc8c9e65e88422d75c3d3cb93f41a5d520a2ca71c815348334de8c49121\n        /* \"contracts/Hero_Deposit/Deposit.sol\":7758:7767  msg.value */\n      callvalue\n        /* \"contracts/Hero_Deposit/Deposit.sol\":7769:7784  block.timestamp */\n      timestamp\n        /* \"contracts/Hero_Deposit/Deposit.sol\":7729:7785  depositLogs(msg.sender, _to, msg.value, block.timestamp) */\n      mload(0x40)\n      tag_203\n      swap3\n      swap2\n      swap1\n      tag_68\n      jump\t// in\n    tag_203:\n      mload(0x40)\n      dup1\n      swap2\n      sub\n      swap1\n      log3\n        /* \"contracts/Hero_Deposit/Deposit.sol\":7807:7811  true */\n      0x01\n        /* \"contracts/Hero_Deposit/Deposit.sol\":7800:7811  return true */\n      swap3\n      pop\n      pop\n      pop\n      jump(tag_183)\n        /* \"contracts/Hero_Deposit/Deposit.sol\":7336:7823  if (checkDepositExist(msg.sender) == true) {\r... */\n    tag_191:\n        /* \"contracts/Hero_Deposit/Deposit.sol\":7833:7838  index */\n      0x0a\n      0x00\n        /* \"contracts/Hero_Deposit/Deposit.sol\":7833:7840  index++ */\n      dup2\n      sload\n      dup1\n      swap3\n      swap2\n      swap1\n      tag_204\n      swap1\n      tag_115\n      jump\t// in\n    tag_204:\n      swap2\n      swap1\n      pop\n      sstore\n      pop\n        /* \"contracts/Hero_Deposit/Deposit.sol\":7883:7888  index */\n      sload(0x0a)\n        /* \"contracts/Hero_Deposit/Deposit.sol\":7851:7865  depositersLogs */\n      0x0b\n        /* \"contracts/Hero_Deposit/Deposit.sol\":7851:7877  depositersLogs[msg.sender] */\n      0x00\n        /* \"contracts/Hero_Deposit/Deposit.sol\":7866:7876  msg.sender */\n      caller\n        /* \"contracts/Hero_Deposit/Deposit.sol\":7851:7877  depositersLogs[msg.sender] */\n      0xffffffffffffffffffffffffffffffffffffffff\n      and\n      0xffffffffffffffffffffffffffffffffffffffff\n      and\n      dup2\n      mstore\n      0x20\n      add\n      swap1\n      dup2\n      mstore\n      0x20\n      add\n      0x00\n      keccak256\n        /* \"contracts/Hero_Deposit/Deposit.sol\":7851:7880  depositersLogs[msg.sender].id */\n      0x00\n      add\n        /* \"contracts/Hero_Deposit/Deposit.sol\":7851:7888  depositersLogs[msg.sender].id = index */\n      dup2\n      swap1\n      sstore\n      pop\n        /* \"contracts/Hero_Deposit/Deposit.sol\":7994:8013  currentCeloUsdPrice */\n      dup2\n        /* \"contracts/Hero_Deposit/Deposit.sol\":7968:7977  msg.value */\n      callvalue\n        /* \"contracts/Hero_Deposit/Deposit.sol\":7961:8013  int256(msg.value) *\r... */\n      tag_205\n      swap2\n      swap1\n      tag_109\n      jump\t// in\n    tag_205:\n        /* \"contracts/Hero_Deposit/Deposit.sol\":7899:7913  depositersLogs */\n      0x0b\n        /* \"contracts/Hero_Deposit/Deposit.sol\":7899:7925  depositersLogs[msg.sender] */\n      0x00\n        /* \"contracts/Hero_Deposit/Deposit.sol\":7914:7924  msg.sender */\n      caller\n        /* \"contracts/Hero_Deposit/Deposit.sol\":7899:7925  depositersLogs[msg.sender] */\n      0xffffffffffffffffffffffffffffffffffffffff\n      and\n      0xffffffffffffffffffffffffffffffffffffffff\n      and\n      dup2\n      mstore\n      0x20\n      add\n      swap1\n      dup2\n      mstore\n      0x20\n      add\n      0x00\n      keccak256\n        /* \"contracts/Hero_Deposit/Deposit.sol\":7899:7944  depositersLogs[msg.sender].totalDepositsValue */\n      0x01\n      add\n      0x00\n        /* \"contracts/Hero_Deposit/Deposit.sol\":7899:8013  depositersLogs[msg.sender].totalDepositsValue +=\r... */\n      dup3\n      dup3\n      sload\n      tag_206\n      swap2\n      swap1\n      tag_113\n      jump\t// in\n    tag_206:\n      swap3\n      pop\n      pop\n      dup2\n      swap1\n      sstore\n      pop\n        /* \"contracts/Hero_Deposit/Deposit.sol\":8072:8082  msg.sender */\n      caller\n        /* \"contracts/Hero_Deposit/Deposit.sol\":8024:8038  depositersLogs */\n      0x0b\n        /* \"contracts/Hero_Deposit/Deposit.sol\":8024:8050  depositersLogs[msg.sender] */\n      0x00\n        /* \"contracts/Hero_Deposit/Deposit.sol\":8039:8049  msg.sender */\n      caller\n        /* \"contracts/Hero_Deposit/Deposit.sol\":8024:8050  depositersLogs[msg.sender] */\n      0xffffffffffffffffffffffffffffffffffffffff\n      and\n      0xffffffffffffffffffffffffffffffffffffffff\n      and\n      dup2\n      mstore\n      0x20\n      add\n      swap1\n      dup2\n      mstore\n      0x20\n      add\n      0x00\n      keccak256\n        /* \"contracts/Hero_Deposit/Deposit.sol\":8024:8061  depositersLogs[msg.sender].userWallet */\n      0x03\n      add\n      0x00\n        /* \"contracts/Hero_Deposit/Deposit.sol\":8024:8083  depositersLogs[msg.sender].userWallet = address(msg.sender) */\n      0x0100\n      exp\n      dup2\n      sload\n      dup2\n      0xffffffffffffffffffffffffffffffffffffffff\n      mul\n      not\n      and\n      swap1\n      dup4\n      0xffffffffffffffffffffffffffffffffffffffff\n      and\n      mul\n      or\n      swap1\n      sstore\n      pop\n        /* \"contracts/Hero_Deposit/Deposit.sol\":8141:8142  1 */\n      0x01\n        /* \"contracts/Hero_Deposit/Deposit.sol\":8094:8108  depositersLogs */\n      0x0b\n        /* \"contracts/Hero_Deposit/Deposit.sol\":8094:8120  depositersLogs[msg.sender] */\n      0x00\n        /* \"contracts/Hero_Deposit/Deposit.sol\":8109:8119  msg.sender */\n      caller\n        /* \"contracts/Hero_Deposit/Deposit.sol\":8094:8120  depositersLogs[msg.sender] */\n      0xffffffffffffffffffffffffffffffffffffffff\n      and\n      0xffffffffffffffffffffffffffffffffffffffff\n      and\n      dup2\n      mstore\n      0x20\n      add\n      swap1\n      dup2\n      mstore\n      0x20\n      add\n      0x00\n      keccak256\n        /* \"contracts/Hero_Deposit/Deposit.sol\":8094:8138  depositersLogs[msg.sender].totalDepositTimes */\n      0x02\n      add\n        /* \"contracts/Hero_Deposit/Deposit.sol\":8094:8142  depositersLogs[msg.sender].totalDepositTimes = 1 */\n      dup2\n      swap1\n      sstore\n      pop\n        /* \"contracts/Hero_Deposit/Deposit.sol\":8153:8160  CusdERC */\n      0x05\n      0x00\n      swap1\n      sload\n      swap1\n      0x0100\n      exp\n      swap1\n      div\n      0xffffffffffffffffffffffffffffffffffffffff\n      and\n        /* \"contracts/Hero_Deposit/Deposit.sol\":8153:8173  CusdERC.transferFrom */\n      0xffffffffffffffffffffffffffffffffffffffff\n      and\n      0x23b872dd\n        /* \"contracts/Hero_Deposit/Deposit.sol\":8174:8184  msg.sender */\n      caller\n        /* \"contracts/Hero_Deposit/Deposit.sol\":8194:8198  this */\n      address\n        /* \"contracts/Hero_Deposit/Deposit.sol\":8201:8210  msg.value */\n      callvalue\n        /* \"contracts/Hero_Deposit/Deposit.sol\":8153:8211  CusdERC.transferFrom(msg.sender, address(this), msg.value) */\n      mload(0x40)\n      dup5\n      0xffffffff\n      and\n      0xe0\n      shl\n      dup2\n      mstore\n      0x04\n      add\n      tag_207\n      swap4\n      swap3\n      swap2\n      swap1\n      tag_196\n      jump\t// in\n    tag_207:\n      0x20\n      mload(0x40)\n      dup1\n      dup4\n      sub\n      dup2\n      0x00\n      dup8\n      dup1\n      extcodesize\n      iszero\n      dup1\n      iszero\n      tag_208\n      jumpi\n      0x00\n      dup1\n      revert\n    tag_208:\n      pop\n      gas\n      call\n      iszero\n      dup1\n      iszero\n      tag_210\n      jumpi\n      returndatasize\n      0x00\n      dup1\n      returndatacopy\n      revert(0x00, returndatasize)\n    tag_210:\n      pop\n      pop\n      pop\n      pop\n      mload(0x40)\n      returndatasize\n      not(0x1f)\n      0x1f\n      dup3\n      add\n      and\n      dup3\n      add\n      dup1\n      0x40\n      mstore\n      pop\n      dup2\n      add\n      swap1\n      tag_211\n      swap2\n      swap1\n      tag_201\n      jump\t// in\n    tag_211:\n      pop\n        /* \"contracts/Hero_Deposit/Deposit.sol\":8257:8266  msg.value */\n      callvalue\n        /* \"contracts/Hero_Deposit/Deposit.sol\":8222:8239  depositToActivist */\n      0x04\n        /* \"contracts/Hero_Deposit/Deposit.sol\":8222:8244  depositToActivist[_to] */\n      0x00\n        /* \"contracts/Hero_Deposit/Deposit.sol\":8240:8243  _to */\n      dup7\n        /* \"contracts/Hero_Deposit/Deposit.sol\":8222:8244  depositToActivist[_to] */\n      0xffffffffffffffffffffffffffffffffffffffff\n      and\n      0xffffffffffffffffffffffffffffffffffffffff\n      and\n      dup2\n      mstore\n      0x20\n      add\n      swap1\n      dup2\n      mstore\n      0x20\n      add\n      0x00\n      keccak256\n        /* \"contracts/Hero_Deposit/Deposit.sol\":8222:8253  depositToActivist[_to].usdcCoin */\n      0x01\n      add\n      0x00\n        /* \"contracts/Hero_Deposit/Deposit.sol\":8222:8266  depositToActivist[_to].usdcCoin += msg.value */\n      dup3\n      dup3\n      sload\n      tag_212\n      swap2\n      swap1\n      tag_117\n      jump\t// in\n    tag_212:\n      swap3\n      pop\n      pop\n      dup2\n      swap1\n      sstore\n      pop\n        /* \"contracts/Hero_Deposit/Deposit.sol\":8306:8309  _to */\n      dup4\n        /* \"contracts/Hero_Deposit/Deposit.sol\":8282:8338  depositLogs(msg.sender, _to, msg.value, block.timestamp) */\n      0xffffffffffffffffffffffffffffffffffffffff\n      and\n        /* \"contracts/Hero_Deposit/Deposit.sol\":8294:8304  msg.sender */\n      caller\n        /* \"contracts/Hero_Deposit/Deposit.sol\":8282:8338  depositLogs(msg.sender, _to, msg.value, block.timestamp) */\n      0xffffffffffffffffffffffffffffffffffffffff\n      and\n      0xadbbbbc8c9e65e88422d75c3d3cb93f41a5d520a2ca71c815348334de8c49121\n        /* \"contracts/Hero_Deposit/Deposit.sol\":8311:8320  msg.value */\n      callvalue\n        /* \"contracts/Hero_Deposit/Deposit.sol\":8322:8337  block.timestamp */\n      timestamp\n        /* \"contracts/Hero_Deposit/Deposit.sol\":8282:8338  depositLogs(msg.sender, _to, msg.value, block.timestamp) */\n      mload(0x40)\n      tag_213\n      swap3\n      swap2\n      swap1\n      tag_68\n      jump\t// in\n    tag_213:\n      mload(0x40)\n      dup1\n      swap2\n      sub\n      swap1\n      log3\n        /* \"contracts/Hero_Deposit/Deposit.sol\":8356:8360  true */\n      0x01\n        /* \"contracts/Hero_Deposit/Deposit.sol\":8349:8360  return true */\n      swap3\n      pop\n      pop\n      pop\n        /* \"contracts/Hero_Deposit/Deposit.sol\":1783:1784  _ */\n    tag_183:\n        /* \"contracts/Hero_Deposit/Deposit.sol\":1804:1809  false */\n      0x00\n        /* \"contracts/Hero_Deposit/Deposit.sol\":1795:1801  locked */\n      0x0c\n      0x14\n        /* \"contracts/Hero_Deposit/Deposit.sol\":1795:1809  locked = false */\n      0x0100\n      exp\n      dup2\n      sload\n      dup2\n      0xff\n      mul\n      not\n      and\n      swap1\n      dup4\n      iszero\n      iszero\n      mul\n      or\n      swap1\n      sstore\n      pop\n        /* \"contracts/Hero_Deposit/Deposit.sol\":6933:8368  function DepositCusd(address payable _to)\r... */\n      swap2\n      swap1\n      pop\n      jump\t// out\n        /* \"contracts/Hero_Deposit/Deposit.sol\":687:743  mapping(address => ativistBank) public depositToActivist */\n    tag_76:\n      mstore(0x20, 0x04)\n      dup1\n      0x00\n      mstore\n      keccak256(0x00, 0x40)\n      0x00\n      swap2\n      pop\n      swap1\n      pop\n      dup1\n      0x00\n      add\n      sload\n      swap1\n      dup1\n      0x01\n      add\n      sload\n      swap1\n      pop\n      dup3\n      jump\t// out\n        /* \"contracts/Hero_Deposit/Deposit.sol\":9404:10433  function withdrowCusd(address payable _to)\r... */\n    tag_80:\n        /* \"contracts/Hero_Deposit/Deposit.sol\":9522:9529  uint256 */\n      0x00\n        /* \"contracts/Hero_Deposit/Deposit.sol\":9531:9538  uint256 */\n      dup1\n        /* \"contracts/Hero_Deposit/Deposit.sol\":1741:1747  locked */\n      0x0c\n      0x14\n      swap1\n      sload\n      swap1\n      0x0100\n      exp\n      swap1\n      div\n      0xff\n      and\n        /* \"contracts/Hero_Deposit/Deposit.sol\":1740:1747  !locked */\n      iszero\n        /* \"contracts/Hero_Deposit/Deposit.sol\":1732:1748  require(!locked) */\n      tag_215\n      jumpi\n      0x00\n      dup1\n      revert\n    tag_215:\n        /* \"contracts/Hero_Deposit/Deposit.sol\":1768:1772  true */\n      0x01\n        /* \"contracts/Hero_Deposit/Deposit.sol\":1759:1765  locked */\n      0x0c\n      0x14\n        /* \"contracts/Hero_Deposit/Deposit.sol\":1759:1772  locked = true */\n      0x0100\n      exp\n      dup2\n      sload\n      dup2\n      0xff\n      mul\n      not\n      and\n      swap1\n      dup4\n      iszero\n      iszero\n      mul\n      or\n      swap1\n      sstore\n      pop\n        /* \"contracts/Hero_Deposit/Deposit.sol\":9557:9583  int256 currentCeloUsdPrice */\n      0x00\n        /* \"contracts/Hero_Deposit/Deposit.sol\":9585:9601  uint256 lastTime */\n      dup1\n        /* \"contracts/Hero_Deposit/Deposit.sol\":9605:9622  getCeloUsdPrice() */\n      tag_217\n        /* \"contracts/Hero_Deposit/Deposit.sol\":9605:9620  getCeloUsdPrice */\n      tag_102\n        /* \"contracts/Hero_Deposit/Deposit.sol\":9605:9622  getCeloUsdPrice() */\n      jump\t// in\n    tag_217:\n        /* \"contracts/Hero_Deposit/Deposit.sol\":9556:9622  (int256 currentCeloUsdPrice, uint256 lastTime) = getCeloUsdPrice() */\n      swap2\n      pop\n      swap2\n      pop\n        /* \"contracts/Hero_Deposit/Deposit.sol\":9633:9647  uint256 amount */\n      0x00\n        /* \"contracts/Hero_Deposit/Deposit.sol\":9781:9783  12 */\n      0x0c\n        /* \"contracts/Hero_Deposit/Deposit.sol\":9732:9749  depositToActivist */\n      0x04\n        /* \"contracts/Hero_Deposit/Deposit.sol\":9732:9754  depositToActivist[_to] */\n      0x00\n        /* \"contracts/Hero_Deposit/Deposit.sol\":9750:9753  _to */\n      dup9\n        /* \"contracts/Hero_Deposit/Deposit.sol\":9732:9754  depositToActivist[_to] */\n      0xffffffffffffffffffffffffffffffffffffffff\n      and\n      0xffffffffffffffffffffffffffffffffffffffff\n      and\n      dup2\n      mstore\n      0x20\n      add\n      swap1\n      dup2\n      mstore\n      0x20\n      add\n      0x00\n      keccak256\n        /* \"contracts/Hero_Deposit/Deposit.sol\":9732:9763  depositToActivist[_to].usdcCoin */\n      0x01\n      add\n      sload\n        /* \"contracts/Hero_Deposit/Deposit.sol\":9707:9726  currentCeloUsdPrice */\n      dup5\n        /* \"contracts/Hero_Deposit/Deposit.sol\":9652:9669  depositToActivist */\n      0x04\n        /* \"contracts/Hero_Deposit/Deposit.sol\":9652:9674  depositToActivist[_to] */\n      0x00\n        /* \"contracts/Hero_Deposit/Deposit.sol\":9670:9673  _to */\n      dup11\n        /* \"contracts/Hero_Deposit/Deposit.sol\":9652:9674  depositToActivist[_to] */\n      0xffffffffffffffffffffffffffffffffffffffff\n      and\n      0xffffffffffffffffffffffffffffffffffffffff\n      and\n      dup2\n      mstore\n      0x20\n      add\n      swap1\n      dup2\n      mstore\n      0x20\n      add\n      0x00\n      keccak256\n        /* \"contracts/Hero_Deposit/Deposit.sol\":9652:9683  depositToActivist[_to].celoCoin */\n      0x00\n      add\n      sload\n        /* \"contracts/Hero_Deposit/Deposit.sol\":9652:9727  depositToActivist[_to].celoCoin *\r... */\n      tag_218\n      swap2\n      swap1\n      tag_219\n      jump\t// in\n    tag_218:\n        /* \"contracts/Hero_Deposit/Deposit.sol\":9651:9764  (depositToActivist[_to].celoCoin *\r... */\n      tag_220\n      swap2\n      swap1\n      tag_117\n      jump\t// in\n    tag_220:\n        /* \"contracts/Hero_Deposit/Deposit.sol\":9650:9783  ((depositToActivist[_to].celoCoin *\r... */\n      tag_221\n      swap2\n      swap1\n      tag_164\n      jump\t// in\n    tag_221:\n        /* \"contracts/Hero_Deposit/Deposit.sol\":9633:9783  uint256 amount = ((depositToActivist[_to].celoCoin *\r... */\n      swap1\n      pop\n        /* \"contracts/Hero_Deposit/Deposit.sol\":9836:9842  amount */\n      dup1\n        /* \"contracts/Hero_Deposit/Deposit.sol\":9802:9819  depositToActivist */\n      0x04\n        /* \"contracts/Hero_Deposit/Deposit.sol\":9802:9824  depositToActivist[_to] */\n      0x00\n        /* \"contracts/Hero_Deposit/Deposit.sol\":9820:9823  _to */\n      dup9\n        /* \"contracts/Hero_Deposit/Deposit.sol\":9802:9824  depositToActivist[_to] */\n      0xffffffffffffffffffffffffffffffffffffffff\n      and\n      0xffffffffffffffffffffffffffffffffffffffff\n      and\n      dup2\n      mstore\n      0x20\n      add\n      swap1\n      dup2\n      mstore\n      0x20\n      add\n      0x00\n      keccak256\n        /* \"contracts/Hero_Deposit/Deposit.sol\":9802:9833  depositToActivist[_to].usdcCoin */\n      0x01\n      add\n      sload\n        /* \"contracts/Hero_Deposit/Deposit.sol\":9802:9842  depositToActivist[_to].usdcCoin > amount */\n      gt\n        /* \"contracts/Hero_Deposit/Deposit.sol\":9794:9862  require(depositToActivist[_to].usdcCoin > amount, \"not sufficient \") */\n      tag_222\n      jumpi\n      mload(0x40)\n      0x08c379a000000000000000000000000000000000000000000000000000000000\n      dup2\n      mstore\n      0x04\n      add\n      tag_223\n      swap1\n      tag_161\n      jump\t// in\n    tag_223:\n      mload(0x40)\n      dup1\n      swap2\n      sub\n      swap1\n      revert\n    tag_222:\n        /* \"contracts/Hero_Deposit/Deposit.sol\":9875:9878  _to */\n      dup6\n        /* \"contracts/Hero_Deposit/Deposit.sol\":9875:9887  _to.transfer */\n      0xffffffffffffffffffffffffffffffffffffffff\n      and\n        /* \"contracts/Hero_Deposit/Deposit.sol\":9875:9895  _to.transfer(amount) */\n      0x08fc\n        /* \"contracts/Hero_Deposit/Deposit.sol\":9888:9894  amount */\n      dup3\n        /* \"contracts/Hero_Deposit/Deposit.sol\":9875:9895  _to.transfer(amount) */\n      swap1\n      dup2\n      iszero\n      mul\n      swap1\n      mload(0x40)\n      0x00\n      mload(0x40)\n      dup1\n      dup4\n      sub\n      dup2\n      dup6\n      dup9\n      dup9\n      call\n      swap4\n      pop\n      pop\n      pop\n      pop\n      iszero\n      dup1\n      iszero\n      tag_225\n      jumpi\n      returndatasize\n      0x00\n      dup1\n      returndatacopy\n      revert(0x00, returndatasize)\n    tag_225:\n      pop\n        /* \"contracts/Hero_Deposit/Deposit.sol\":9945:9946  0 */\n      0x00\n        /* \"contracts/Hero_Deposit/Deposit.sol\":9910:9927  depositToActivist */\n      0x04\n        /* \"contracts/Hero_Deposit/Deposit.sol\":9910:9932  depositToActivist[_to] */\n      0x00\n        /* \"contracts/Hero_Deposit/Deposit.sol\":9928:9931  _to */\n      dup9\n        /* \"contracts/Hero_Deposit/Deposit.sol\":9910:9932  depositToActivist[_to] */\n      0xffffffffffffffffffffffffffffffffffffffff\n      and\n      0xffffffffffffffffffffffffffffffffffffffff\n      and\n      dup2\n      mstore\n      0x20\n      add\n      swap1\n      dup2\n      mstore\n      0x20\n      add\n      0x00\n      keccak256\n        /* \"contracts/Hero_Deposit/Deposit.sol\":9910:9941  depositToActivist[_to].celoCoin */\n      0x00\n      add\n      sload\n        /* \"contracts/Hero_Deposit/Deposit.sol\":9910:9946  depositToActivist[_to].celoCoin == 0 */\n      eq\n        /* \"contracts/Hero_Deposit/Deposit.sol\":9906:10270  if (depositToActivist[_to].celoCoin == 0) {\r... */\n      iszero\n      tag_226\n      jumpi\n        /* \"contracts/Hero_Deposit/Deposit.sol\":9998:10004  amount */\n      dup1\n        /* \"contracts/Hero_Deposit/Deposit.sol\":9963:9980  depositToActivist */\n      0x04\n        /* \"contracts/Hero_Deposit/Deposit.sol\":9963:9985  depositToActivist[_to] */\n      0x00\n        /* \"contracts/Hero_Deposit/Deposit.sol\":9981:9984  _to */\n      dup9\n        /* \"contracts/Hero_Deposit/Deposit.sol\":9963:9985  depositToActivist[_to] */\n      0xffffffffffffffffffffffffffffffffffffffff\n      and\n      0xffffffffffffffffffffffffffffffffffffffff\n      and\n      dup2\n      mstore\n      0x20\n      add\n      swap1\n      dup2\n      mstore\n      0x20\n      add\n      0x00\n      keccak256\n        /* \"contracts/Hero_Deposit/Deposit.sol\":9963:9994  depositToActivist[_to].usdcCoin */\n      0x01\n      add\n      0x00\n        /* \"contracts/Hero_Deposit/Deposit.sol\":9963:10004  depositToActivist[_to].usdcCoin -= amount */\n      dup3\n      dup3\n      sload\n      tag_227\n      swap2\n      swap1\n      tag_171\n      jump\t// in\n    tag_227:\n      swap3\n      pop\n      pop\n      dup2\n      swap1\n      sstore\n      pop\n        /* \"contracts/Hero_Deposit/Deposit.sol\":9906:10270  if (depositToActivist[_to].celoCoin == 0) {\r... */\n      jump(tag_228)\n    tag_226:\n        /* \"contracts/Hero_Deposit/Deposit.sol\":10061:10062  0 */\n      0x00\n        /* \"contracts/Hero_Deposit/Deposit.sol\":10026:10043  depositToActivist */\n      0x04\n        /* \"contracts/Hero_Deposit/Deposit.sol\":10026:10048  depositToActivist[_to] */\n      0x00\n        /* \"contracts/Hero_Deposit/Deposit.sol\":10044:10047  _to */\n      dup9\n        /* \"contracts/Hero_Deposit/Deposit.sol\":10026:10048  depositToActivist[_to] */\n      0xffffffffffffffffffffffffffffffffffffffff\n      and\n      0xffffffffffffffffffffffffffffffffffffffff\n      and\n      dup2\n      mstore\n      0x20\n      add\n      swap1\n      dup2\n      mstore\n      0x20\n      add\n      0x00\n      keccak256\n        /* \"contracts/Hero_Deposit/Deposit.sol\":10026:10057  depositToActivist[_to].usdcCoin */\n      0x01\n      add\n      sload\n        /* \"contracts/Hero_Deposit/Deposit.sol\":10026:10062  depositToActivist[_to].usdcCoin == 0 */\n      eq\n        /* \"contracts/Hero_Deposit/Deposit.sol\":10022:10270  if (depositToActivist[_to].usdcCoin == 0) {\r... */\n      iszero\n      tag_229\n      jumpi\n        /* \"contracts/Hero_Deposit/Deposit.sol\":10114:10120  amount */\n      dup1\n        /* \"contracts/Hero_Deposit/Deposit.sol\":10079:10096  depositToActivist */\n      0x04\n        /* \"contracts/Hero_Deposit/Deposit.sol\":10079:10101  depositToActivist[_to] */\n      0x00\n        /* \"contracts/Hero_Deposit/Deposit.sol\":10097:10100  _to */\n      dup9\n        /* \"contracts/Hero_Deposit/Deposit.sol\":10079:10101  depositToActivist[_to] */\n      0xffffffffffffffffffffffffffffffffffffffff\n      and\n      0xffffffffffffffffffffffffffffffffffffffff\n      and\n      dup2\n      mstore\n      0x20\n      add\n      swap1\n      dup2\n      mstore\n      0x20\n      add\n      0x00\n      keccak256\n        /* \"contracts/Hero_Deposit/Deposit.sol\":10079:10110  depositToActivist[_to].celoCoin */\n      0x00\n      add\n      0x00\n        /* \"contracts/Hero_Deposit/Deposit.sol\":10079:10120  depositToActivist[_to].celoCoin -= amount */\n      dup3\n      dup3\n      sload\n      tag_230\n      swap2\n      swap1\n      tag_171\n      jump\t// in\n    tag_230:\n      swap3\n      pop\n      pop\n      dup2\n      swap1\n      sstore\n      pop\n        /* \"contracts/Hero_Deposit/Deposit.sol\":10022:10270  if (depositToActivist[_to].usdcCoin == 0) {\r... */\n      jump(tag_231)\n    tag_229:\n        /* \"contracts/Hero_Deposit/Deposit.sol\":10197:10198  2 */\n      0x02\n        /* \"contracts/Hero_Deposit/Deposit.sol\":10188:10194  amount */\n      dup2\n        /* \"contracts/Hero_Deposit/Deposit.sol\":10188:10198  amount / 2 */\n      tag_232\n      swap2\n      swap1\n      tag_164\n      jump\t// in\n    tag_232:\n        /* \"contracts/Hero_Deposit/Deposit.sol\":10153:10170  depositToActivist */\n      0x04\n        /* \"contracts/Hero_Deposit/Deposit.sol\":10153:10175  depositToActivist[_to] */\n      0x00\n        /* \"contracts/Hero_Deposit/Deposit.sol\":10171:10174  _to */\n      dup9\n        /* \"contracts/Hero_Deposit/Deposit.sol\":10153:10175  depositToActivist[_to] */\n      0xffffffffffffffffffffffffffffffffffffffff\n      and\n      0xffffffffffffffffffffffffffffffffffffffff\n      and\n      dup2\n      mstore\n      0x20\n      add\n      swap1\n      dup2\n      mstore\n      0x20\n      add\n      0x00\n      keccak256\n        /* \"contracts/Hero_Deposit/Deposit.sol\":10153:10184  depositToActivist[_to].celoCoin */\n      0x00\n      add\n      0x00\n        /* \"contracts/Hero_Deposit/Deposit.sol\":10153:10198  depositToActivist[_to].celoCoin -= amount / 2 */\n      dup3\n      dup3\n      sload\n      tag_233\n      swap2\n      swap1\n      tag_171\n      jump\t// in\n    tag_233:\n      swap3\n      pop\n      pop\n      dup2\n      swap1\n      sstore\n      pop\n        /* \"contracts/Hero_Deposit/Deposit.sol\":10257:10258  2 */\n      0x02\n        /* \"contracts/Hero_Deposit/Deposit.sol\":10248:10254  amount */\n      dup2\n        /* \"contracts/Hero_Deposit/Deposit.sol\":10248:10258  amount / 2 */\n      tag_234\n      swap2\n      swap1\n      tag_164\n      jump\t// in\n    tag_234:\n        /* \"contracts/Hero_Deposit/Deposit.sol\":10213:10230  depositToActivist */\n      0x04\n        /* \"contracts/Hero_Deposit/Deposit.sol\":10213:10235  depositToActivist[_to] */\n      0x00\n        /* \"contracts/Hero_Deposit/Deposit.sol\":10231:10234  _to */\n      dup9\n        /* \"contracts/Hero_Deposit/Deposit.sol\":10213:10235  depositToActivist[_to] */\n      0xffffffffffffffffffffffffffffffffffffffff\n      and\n      0xffffffffffffffffffffffffffffffffffffffff\n      and\n      dup2\n      mstore\n      0x20\n      add\n      swap1\n      dup2\n      mstore\n      0x20\n      add\n      0x00\n      keccak256\n        /* \"contracts/Hero_Deposit/Deposit.sol\":10213:10244  depositToActivist[_to].usdcCoin */\n      0x01\n      add\n      0x00\n        /* \"contracts/Hero_Deposit/Deposit.sol\":10213:10258  depositToActivist[_to].usdcCoin -= amount / 2 */\n      dup3\n      dup3\n      sload\n      tag_235\n      swap2\n      swap1\n      tag_171\n      jump\t// in\n    tag_235:\n      swap3\n      pop\n      pop\n      dup2\n      swap1\n      sstore\n      pop\n        /* \"contracts/Hero_Deposit/Deposit.sol\":10022:10270  if (depositToActivist[_to].usdcCoin == 0) {\r... */\n    tag_231:\n        /* \"contracts/Hero_Deposit/Deposit.sol\":9906:10270  if (depositToActivist[_to].celoCoin == 0) {\r... */\n    tag_228:\n        /* \"contracts/Hero_Deposit/Deposit.sol\":10315:10321  amount */\n      dup1\n        /* \"contracts/Hero_Deposit/Deposit.sol\":10280:10297  depositToActivist */\n      0x04\n        /* \"contracts/Hero_Deposit/Deposit.sol\":10280:10302  depositToActivist[_to] */\n      0x00\n        /* \"contracts/Hero_Deposit/Deposit.sol\":10298:10301  _to */\n      dup9\n        /* \"contracts/Hero_Deposit/Deposit.sol\":10280:10302  depositToActivist[_to] */\n      0xffffffffffffffffffffffffffffffffffffffff\n      and\n      0xffffffffffffffffffffffffffffffffffffffff\n      and\n      dup2\n      mstore\n      0x20\n      add\n      swap1\n      dup2\n      mstore\n      0x20\n      add\n      0x00\n      keccak256\n        /* \"contracts/Hero_Deposit/Deposit.sol\":10280:10311  depositToActivist[_to].celoCoin */\n      0x00\n      add\n      0x00\n        /* \"contracts/Hero_Deposit/Deposit.sol\":10280:10321  depositToActivist[_to].celoCoin -= amount */\n      dup3\n      dup3\n      sload\n      tag_236\n      swap2\n      swap1\n      tag_171\n      jump\t// in\n    tag_236:\n      swap3\n      pop\n      pop\n      dup2\n      swap1\n      sstore\n      pop\n        /* \"contracts/Hero_Deposit/Deposit.sol\":10353:10356  _to */\n      dup6\n        /* \"contracts/Hero_Deposit/Deposit.sol\":10337:10382  activistPayment(_to, amount, block.timestamp) */\n      0xffffffffffffffffffffffffffffffffffffffff\n      and\n      0x9cd516bc314ca50bb8f1f5602d3f202cdcbf17b89da33dd13c3909d5d3c00a32\n        /* \"contracts/Hero_Deposit/Deposit.sol\":10358:10364  amount */\n      dup3\n        /* \"contracts/Hero_Deposit/Deposit.sol\":10366:10381  block.timestamp */\n      timestamp\n        /* \"contracts/Hero_Deposit/Deposit.sol\":10337:10382  activistPayment(_to, amount, block.timestamp) */\n      mload(0x40)\n      tag_237\n      swap3\n      swap2\n      swap1\n      tag_68\n      jump\t// in\n    tag_237:\n      mload(0x40)\n      dup1\n      swap2\n      sub\n      swap1\n      log2\n        /* \"contracts/Hero_Deposit/Deposit.sol\":10401:10407  amount */\n      dup1\n        /* \"contracts/Hero_Deposit/Deposit.sol\":10409:10424  block.timestamp */\n      timestamp\n        /* \"contracts/Hero_Deposit/Deposit.sol\":10393:10425  return (amount, block.timestamp) */\n      swap5\n      pop\n      swap5\n      pop\n      pop\n      pop\n      pop\n        /* \"contracts/Hero_Deposit/Deposit.sol\":1804:1809  false */\n      0x00\n        /* \"contracts/Hero_Deposit/Deposit.sol\":1795:1801  locked */\n      0x0c\n      0x14\n        /* \"contracts/Hero_Deposit/Deposit.sol\":1795:1809  locked = false */\n      0x0100\n      exp\n      dup2\n      sload\n      dup2\n      0xff\n      mul\n      not\n      and\n      swap1\n      dup4\n      iszero\n      iszero\n      mul\n      or\n      swap1\n      sstore\n      pop\n        /* \"contracts/Hero_Deposit/Deposit.sol\":9404:10433  function withdrowCusd(address payable _to)\r... */\n      swap2\n      pop\n      swap2\n      jump\t// out\n        /* \"contracts/Hero_Deposit/Deposit.sol\":405:440  IWitnetPriceFeed public EthUsdPrice */\n    tag_84:\n      0x03\n      0x00\n      swap1\n      sload\n      swap1\n      0x0100\n      exp\n      swap1\n      div\n      0xffffffffffffffffffffffffffffffffffffffff\n      and\n      dup2\n      jump\t// out\n        /* \"contracts/Hero_Deposit/Deposit.sol\":319:355  IWitnetPriceFeed public celoEurPrice */\n    tag_89:\n      0x01\n      0x00\n      swap1\n      sload\n      swap1\n      0x0100\n      exp\n      swap1\n      div\n      0xffffffffffffffffffffffffffffffffffffffff\n      and\n      dup2\n      jump\t// out\n        /* \"contracts/Hero_Deposit/Deposit.sol\":362:398  IWitnetPriceFeed public celoUsdPrice */\n    tag_93:\n      0x02\n      0x00\n      swap1\n      sload\n      swap1\n      0x0100\n      exp\n      swap1\n      div\n      0xffffffffffffffffffffffffffffffffffffffff\n      and\n      dup2\n      jump\t// out\n        /* \"contracts/Hero_Deposit/Deposit.sol\":3137:3340  function getCeloUsdPrice()\r... */\n    tag_102:\n        /* \"contracts/Hero_Deposit/Deposit.sol\":3214:3231  int256 _lastPrice */\n      0x00\n        /* \"contracts/Hero_Deposit/Deposit.sol\":3233:3255  uint256 _lastTimestamp */\n      dup1\n        /* \"contracts/Hero_Deposit/Deposit.sol\":3308:3320  celoUsdPrice */\n      0x02\n      0x00\n      swap1\n      sload\n      swap1\n      0x0100\n      exp\n      swap1\n      div\n      0xffffffffffffffffffffffffffffffffffffffff\n      and\n        /* \"contracts/Hero_Deposit/Deposit.sol\":3308:3330  celoUsdPrice.lastValue */\n      0xffffffffffffffffffffffffffffffffffffffff\n      and\n      0x43183834\n        /* \"contracts/Hero_Deposit/Deposit.sol\":3308:3332  celoUsdPrice.lastValue() */\n      mload(0x40)\n      dup2\n      0xffffffff\n      and\n      0xe0\n      shl\n      dup2\n      mstore\n      0x04\n      add\n      0x80\n      mload(0x40)\n      dup1\n      dup4\n      sub\n      dup2\n      dup7\n      dup1\n      extcodesize\n      iszero\n      dup1\n      iszero\n      tag_239\n      jumpi\n      0x00\n      dup1\n      revert\n    tag_239:\n      pop\n      gas\n      staticcall\n      iszero\n      dup1\n      iszero\n      tag_241\n      jumpi\n      returndatasize\n      0x00\n      dup1\n      returndatacopy\n      revert(0x00, returndatasize)\n    tag_241:\n      pop\n      pop\n      pop\n      pop\n      mload(0x40)\n      returndatasize\n      not(0x1f)\n      0x1f\n      dup3\n      add\n      and\n      dup3\n      add\n      dup1\n      0x40\n      mstore\n      pop\n      dup2\n      add\n      swap1\n      tag_242\n      swap2\n      swap1\n      tag_243\n      jump\t// in\n    tag_242:\n        /* \"contracts/Hero_Deposit/Deposit.sol\":3273:3332  (_lastPrice, _lastTimestamp, , ) = celoUsdPrice.lastValue() */\n      swap1\n      pop\n      pop\n      dup1\n      swap3\n      pop\n      dup2\n      swap4\n      pop\n      pop\n      pop\n        /* \"contracts/Hero_Deposit/Deposit.sol\":3137:3340  function getCeloUsdPrice()\r... */\n      swap1\n      swap2\n      jump\t// out\n        /* \"#utility.yul\":7:146   */\n    tag_245:\n        /* \"#utility.yul\":53:58   */\n      0x00\n        /* \"#utility.yul\":91:97   */\n      dup2\n        /* \"#utility.yul\":78:98   */\n      calldataload\n        /* \"#utility.yul\":69:98   */\n      swap1\n      pop\n        /* \"#utility.yul\":107:140   */\n      tag_247\n        /* \"#utility.yul\":134:139   */\n      dup2\n        /* \"#utility.yul\":107:140   */\n      tag_248\n      jump\t// in\n    tag_247:\n        /* \"#utility.yul\":7:146   */\n      swap3\n      swap2\n      pop\n      pop\n      jump\t// out\n        /* \"#utility.yul\":152:307   */\n    tag_249:\n        /* \"#utility.yul\":206:211   */\n      0x00\n        /* \"#utility.yul\":244:250   */\n      dup2\n        /* \"#utility.yul\":231:251   */\n      calldataload\n        /* \"#utility.yul\":222:251   */\n      swap1\n      pop\n        /* \"#utility.yul\":260:301   */\n      tag_251\n        /* \"#utility.yul\":295:300   */\n      dup2\n        /* \"#utility.yul\":260:301   */\n      tag_252\n      jump\t// in\n    tag_251:\n        /* \"#utility.yul\":152:307   */\n      swap3\n      swap2\n      pop\n      pop\n      jump\t// out\n        /* \"#utility.yul\":313:450   */\n    tag_253:\n        /* \"#utility.yul\":367:372   */\n      0x00\n        /* \"#utility.yul\":398:404   */\n      dup2\n        /* \"#utility.yul\":392:405   */\n      mload\n        /* \"#utility.yul\":383:405   */\n      swap1\n      pop\n        /* \"#utility.yul\":414:444   */\n      tag_255\n        /* \"#utility.yul\":438:443   */\n      dup2\n        /* \"#utility.yul\":414:444   */\n      tag_256\n      jump\t// in\n    tag_255:\n        /* \"#utility.yul\":313:450   */\n      swap3\n      swap2\n      pop\n      pop\n      jump\t// out\n        /* \"#utility.yul\":456:599   */\n    tag_257:\n        /* \"#utility.yul\":513:518   */\n      0x00\n        /* \"#utility.yul\":544:550   */\n      dup2\n        /* \"#utility.yul\":538:551   */\n      mload\n        /* \"#utility.yul\":529:551   */\n      swap1\n      pop\n        /* \"#utility.yul\":560:593   */\n      tag_259\n        /* \"#utility.yul\":587:592   */\n      dup2\n        /* \"#utility.yul\":560:593   */\n      tag_260\n      jump\t// in\n    tag_259:\n        /* \"#utility.yul\":456:599   */\n      swap3\n      swap2\n      pop\n      pop\n      jump\t// out\n        /* \"#utility.yul\":605:780   */\n    tag_261:\n        /* \"#utility.yul\":678:683   */\n      0x00\n        /* \"#utility.yul\":709:715   */\n      dup2\n        /* \"#utility.yul\":703:716   */\n      mload\n        /* \"#utility.yul\":694:716   */\n      swap1\n      pop\n        /* \"#utility.yul\":725:774   */\n      tag_263\n        /* \"#utility.yul\":768:773   */\n      dup2\n        /* \"#utility.yul\":725:774   */\n      tag_264\n      jump\t// in\n    tag_263:\n        /* \"#utility.yul\":605:780   */\n      swap3\n      swap2\n      pop\n      pop\n      jump\t// out\n        /* \"#utility.yul\":786:927   */\n    tag_265:\n        /* \"#utility.yul\":842:847   */\n      0x00\n        /* \"#utility.yul\":873:879   */\n      dup2\n        /* \"#utility.yul\":867:880   */\n      mload\n        /* \"#utility.yul\":858:880   */\n      swap1\n      pop\n        /* \"#utility.yul\":889:921   */\n      tag_267\n        /* \"#utility.yul\":915:920   */\n      dup2\n        /* \"#utility.yul\":889:921   */\n      tag_268\n      jump\t// in\n    tag_267:\n        /* \"#utility.yul\":786:927   */\n      swap3\n      swap2\n      pop\n      pop\n      jump\t// out\n        /* \"#utility.yul\":933:1072   */\n    tag_269:\n        /* \"#utility.yul\":979:984   */\n      0x00\n        /* \"#utility.yul\":1017:1023   */\n      dup2\n        /* \"#utility.yul\":1004:1024   */\n      calldataload\n        /* \"#utility.yul\":995:1024   */\n      swap1\n      pop\n        /* \"#utility.yul\":1033:1066   */\n      tag_271\n        /* \"#utility.yul\":1060:1065   */\n      dup2\n        /* \"#utility.yul\":1033:1066   */\n      tag_272\n      jump\t// in\n    tag_271:\n        /* \"#utility.yul\":933:1072   */\n      swap3\n      swap2\n      pop\n      pop\n      jump\t// out\n        /* \"#utility.yul\":1078:1221   */\n    tag_273:\n        /* \"#utility.yul\":1135:1140   */\n      0x00\n        /* \"#utility.yul\":1166:1172   */\n      dup2\n        /* \"#utility.yul\":1160:1173   */\n      mload\n        /* \"#utility.yul\":1151:1173   */\n      swap1\n      pop\n        /* \"#utility.yul\":1182:1215   */\n      tag_275\n        /* \"#utility.yul\":1209:1214   */\n      dup2\n        /* \"#utility.yul\":1182:1215   */\n      tag_272\n      jump\t// in\n    tag_275:\n        /* \"#utility.yul\":1078:1221   */\n      swap3\n      swap2\n      pop\n      pop\n      jump\t// out\n        /* \"#utility.yul\":1227:1556   */\n    tag_44:\n        /* \"#utility.yul\":1286:1292   */\n      0x00\n        /* \"#utility.yul\":1335:1337   */\n      0x20\n        /* \"#utility.yul\":1323:1332   */\n      dup3\n        /* \"#utility.yul\":1314:1321   */\n      dup5\n        /* \"#utility.yul\":1310:1333   */\n      sub\n        /* \"#utility.yul\":1306:1338   */\n      slt\n        /* \"#utility.yul\":1303:1422   */\n      iszero\n      tag_277\n      jumpi\n        /* \"#utility.yul\":1341:1420   */\n      tag_278\n      tag_279\n      jump\t// in\n    tag_278:\n        /* \"#utility.yul\":1303:1422   */\n    tag_277:\n        /* \"#utility.yul\":1461:1462   */\n      0x00\n        /* \"#utility.yul\":1486:1539   */\n      tag_280\n        /* \"#utility.yul\":1531:1538   */\n      dup5\n        /* \"#utility.yul\":1522:1528   */\n      dup3\n        /* \"#utility.yul\":1511:1520   */\n      dup6\n        /* \"#utility.yul\":1507:1529   */\n      add\n        /* \"#utility.yul\":1486:1539   */\n      tag_245\n      jump\t// in\n    tag_280:\n        /* \"#utility.yul\":1476:1539   */\n      swap2\n      pop\n        /* \"#utility.yul\":1432:1549   */\n      pop\n        /* \"#utility.yul\":1227:1556   */\n      swap3\n      swap2\n      pop\n      pop\n      jump\t// out\n        /* \"#utility.yul\":1562:1907   */\n    tag_23:\n        /* \"#utility.yul\":1629:1635   */\n      0x00\n        /* \"#utility.yul\":1678:1680   */\n      0x20\n        /* \"#utility.yul\":1666:1675   */\n      dup3\n        /* \"#utility.yul\":1657:1664   */\n      dup5\n        /* \"#utility.yul\":1653:1676   */\n      sub\n        /* \"#utility.yul\":1649:1681   */\n      slt\n        /* \"#utility.yul\":1646:1765   */\n      iszero\n      tag_282\n      jumpi\n        /* \"#utility.yul\":1684:1763   */\n      tag_283\n      tag_279\n      jump\t// in\n    tag_283:\n        /* \"#utility.yul\":1646:1765   */\n    tag_282:\n        /* \"#utility.yul\":1804:1805   */\n      0x00\n        /* \"#utility.yul\":1829:1890   */\n      tag_284\n        /* \"#utility.yul\":1882:1889   */\n      dup5\n        /* \"#utility.yul\":1873:1879   */\n      dup3\n        /* \"#utility.yul\":1862:1871   */\n      dup6\n        /* \"#utility.yul\":1858:1880   */\n      add\n        /* \"#utility.yul\":1829:1890   */\n      tag_249\n      jump\t// in\n    tag_284:\n        /* \"#utility.yul\":1819:1890   */\n      swap2\n      pop\n        /* \"#utility.yul\":1775:1900   */\n      pop\n        /* \"#utility.yul\":1562:1907   */\n      swap3\n      swap2\n      pop\n      pop\n      jump\t// out\n        /* \"#utility.yul\":1913:2532   */\n    tag_55:\n        /* \"#utility.yul\":1990:1996   */\n      0x00\n        /* \"#utility.yul\":1998:2004   */\n      dup1\n        /* \"#utility.yul\":2006:2012   */\n      0x00\n        /* \"#utility.yul\":2055:2057   */\n      0x60\n        /* \"#utility.yul\":2043:2052   */\n      dup5\n        /* \"#utility.yul\":2034:2041   */\n      dup7\n        /* \"#utility.yul\":2030:2053   */\n      sub\n        /* \"#utility.yul\":2026:2058   */\n      slt\n        /* \"#utility.yul\":2023:2142   */\n      iszero\n      tag_286\n      jumpi\n        /* \"#utility.yul\":2061:2140   */\n      tag_287\n      tag_279\n      jump\t// in\n    tag_287:\n        /* \"#utility.yul\":2023:2142   */\n    tag_286:\n        /* \"#utility.yul\":2181:2182   */\n      0x00\n        /* \"#utility.yul\":2206:2259   */\n      tag_288\n        /* \"#utility.yul\":2251:2258   */\n      dup7\n        /* \"#utility.yul\":2242:2248   */\n      dup3\n        /* \"#utility.yul\":2231:2240   */\n      dup8\n        /* \"#utility.yul\":2227:2249   */\n      add\n        /* \"#utility.yul\":2206:2259   */\n      tag_245\n      jump\t// in\n    tag_288:\n        /* \"#utility.yul\":2196:2259   */\n      swap4\n      pop\n        /* \"#utility.yul\":2152:2269   */\n      pop\n        /* \"#utility.yul\":2308:2310   */\n      0x20\n        /* \"#utility.yul\":2334:2387   */\n      tag_289\n        /* \"#utility.yul\":2379:2386   */\n      dup7\n        /* \"#utility.yul\":2370:2376   */\n      dup3\n        /* \"#utility.yul\":2359:2368   */\n      dup8\n        /* \"#utility.yul\":2355:2377   */\n      add\n        /* \"#utility.yul\":2334:2387   */\n      tag_245\n      jump\t// in\n    tag_289:\n        /* \"#utility.yul\":2324:2387   */\n      swap3\n      pop\n        /* \"#utility.yul\":2279:2397   */\n      pop\n        /* \"#utility.yul\":2436:2438   */\n      0x40\n        /* \"#utility.yul\":2462:2515   */\n      tag_290\n        /* \"#utility.yul\":2507:2514   */\n      dup7\n        /* \"#utility.yul\":2498:2504   */\n      dup3\n        /* \"#utility.yul\":2487:2496   */\n      dup8\n        /* \"#utility.yul\":2483:2505   */\n      add\n        /* \"#utility.yul\":2462:2515   */\n      tag_269\n      jump\t// in\n    tag_290:\n        /* \"#utility.yul\":2452:2515   */\n      swap2\n      pop\n        /* \"#utility.yul\":2407:2525   */\n      pop\n        /* \"#utility.yul\":1913:2532   */\n      swap3\n      pop\n      swap3\n      pop\n      swap3\n      jump\t// out\n        /* \"#utility.yul\":2538:2883   */\n    tag_201:\n        /* \"#utility.yul\":2605:2611   */\n      0x00\n        /* \"#utility.yul\":2654:2656   */\n      0x20\n        /* \"#utility.yul\":2642:2651   */\n      dup3\n        /* \"#utility.yul\":2633:2640   */\n      dup5\n        /* \"#utility.yul\":2629:2652   */\n      sub\n        /* \"#utility.yul\":2625:2657   */\n      slt\n        /* \"#utility.yul\":2622:2741   */\n      iszero\n      tag_292\n      jumpi\n        /* \"#utility.yul\":2660:2739   */\n      tag_293\n      tag_279\n      jump\t// in\n    tag_293:\n        /* \"#utility.yul\":2622:2741   */\n    tag_292:\n        /* \"#utility.yul\":2780:2781   */\n      0x00\n        /* \"#utility.yul\":2805:2866   */\n      tag_294\n        /* \"#utility.yul\":2858:2865   */\n      dup5\n        /* \"#utility.yul\":2849:2855   */\n      dup3\n        /* \"#utility.yul\":2838:2847   */\n      dup6\n        /* \"#utility.yul\":2834:2856   */\n      add\n        /* \"#utility.yul\":2805:2866   */\n      tag_253\n      jump\t// in\n    tag_294:\n        /* \"#utility.yul\":2795:2866   */\n      swap2\n      pop\n        /* \"#utility.yul\":2751:2876   */\n      pop\n        /* \"#utility.yul\":2538:2883   */\n      swap3\n      swap2\n      pop\n      pop\n      jump\t// out\n        /* \"#utility.yul\":2889:3272   */\n    tag_130:\n        /* \"#utility.yul\":2975:2981   */\n      0x00\n        /* \"#utility.yul\":3024:3026   */\n      0x20\n        /* \"#utility.yul\":3012:3021   */\n      dup3\n        /* \"#utility.yul\":3003:3010   */\n      dup5\n        /* \"#utility.yul\":2999:3022   */\n      sub\n        /* \"#utility.yul\":2995:3027   */\n      slt\n        /* \"#utility.yul\":2992:3111   */\n      iszero\n      tag_296\n      jumpi\n        /* \"#utility.yul\":3030:3109   */\n      tag_297\n      tag_279\n      jump\t// in\n    tag_297:\n        /* \"#utility.yul\":2992:3111   */\n    tag_296:\n        /* \"#utility.yul\":3150:3151   */\n      0x00\n        /* \"#utility.yul\":3175:3255   */\n      tag_298\n        /* \"#utility.yul\":3247:3254   */\n      dup5\n        /* \"#utility.yul\":3238:3244   */\n      dup3\n        /* \"#utility.yul\":3227:3236   */\n      dup6\n        /* \"#utility.yul\":3223:3245   */\n      add\n        /* \"#utility.yul\":3175:3255   */\n      tag_261\n      jump\t// in\n    tag_298:\n        /* \"#utility.yul\":3165:3255   */\n      swap2\n      pop\n        /* \"#utility.yul\":3121:3265   */\n      pop\n        /* \"#utility.yul\":2889:3272   */\n      swap3\n      swap2\n      pop\n      pop\n      jump\t// out\n        /* \"#utility.yul\":3278:4096   */\n    tag_243:\n        /* \"#utility.yul\":3374:3380   */\n      0x00\n        /* \"#utility.yul\":3382:3388   */\n      dup1\n        /* \"#utility.yul\":3390:3396   */\n      0x00\n        /* \"#utility.yul\":3398:3404   */\n      dup1\n        /* \"#utility.yul\":3447:3450   */\n      0x80\n        /* \"#utility.yul\":3435:3444   */\n      dup6\n        /* \"#utility.yul\":3426:3433   */\n      dup8\n        /* \"#utility.yul\":3422:3445   */\n      sub\n        /* \"#utility.yul\":3418:3451   */\n      slt\n        /* \"#utility.yul\":3415:3535   */\n      iszero\n      tag_300\n      jumpi\n        /* \"#utility.yul\":3454:3533   */\n      tag_301\n      tag_279\n      jump\t// in\n    tag_301:\n        /* \"#utility.yul\":3415:3535   */\n    tag_300:\n        /* \"#utility.yul\":3574:3575   */\n      0x00\n        /* \"#utility.yul\":3599:3662   */\n      tag_302\n        /* \"#utility.yul\":3654:3661   */\n      dup8\n        /* \"#utility.yul\":3645:3651   */\n      dup3\n        /* \"#utility.yul\":3634:3643   */\n      dup9\n        /* \"#utility.yul\":3630:3652   */\n      add\n        /* \"#utility.yul\":3599:3662   */\n      tag_265\n      jump\t// in\n    tag_302:\n        /* \"#utility.yul\":3589:3662   */\n      swap5\n      pop\n        /* \"#utility.yul\":3545:3672   */\n      pop\n        /* \"#utility.yul\":3711:3713   */\n      0x20\n        /* \"#utility.yul\":3737:3801   */\n      tag_303\n        /* \"#utility.yul\":3793:3800   */\n      dup8\n        /* \"#utility.yul\":3784:3790   */\n      dup3\n        /* \"#utility.yul\":3773:3782   */\n      dup9\n        /* \"#utility.yul\":3769:3791   */\n      add\n        /* \"#utility.yul\":3737:3801   */\n      tag_273\n      jump\t// in\n    tag_303:\n        /* \"#utility.yul\":3727:3801   */\n      swap4\n      pop\n        /* \"#utility.yul\":3682:3811   */\n      pop\n        /* \"#utility.yul\":3850:3852   */\n      0x40\n        /* \"#utility.yul\":3876:3940   */\n      tag_304\n        /* \"#utility.yul\":3932:3939   */\n      dup8\n        /* \"#utility.yul\":3923:3929   */\n      dup3\n        /* \"#utility.yul\":3912:3921   */\n      dup9\n        /* \"#utility.yul\":3908:3930   */\n      add\n        /* \"#utility.yul\":3876:3940   */\n      tag_257\n      jump\t// in\n    tag_304:\n        /* \"#utility.yul\":3866:3940   */\n      swap3\n      pop\n        /* \"#utility.yul\":3821:3950   */\n      pop\n        /* \"#utility.yul\":3989:3991   */\n      0x60\n        /* \"#utility.yul\":4015:4079   */\n      tag_305\n        /* \"#utility.yul\":4071:4078   */\n      dup8\n        /* \"#utility.yul\":4062:4068   */\n      dup3\n        /* \"#utility.yul\":4051:4060   */\n      dup9\n        /* \"#utility.yul\":4047:4069   */\n      add\n        /* \"#utility.yul\":4015:4079   */\n      tag_273\n      jump\t// in\n    tag_305:\n        /* \"#utility.yul\":4005:4079   */\n      swap2\n      pop\n        /* \"#utility.yul\":3960:4089   */\n      pop\n        /* \"#utility.yul\":3278:4096   */\n      swap3\n      swap6\n      swap2\n      swap5\n      pop\n      swap3\n      pop\n      jump\t// out\n        /* \"#utility.yul\":4102:4220   */\n    tag_306:\n        /* \"#utility.yul\":4189:4213   */\n      tag_308\n        /* \"#utility.yul\":4207:4212   */\n      dup2\n        /* \"#utility.yul\":4189:4213   */\n      tag_309\n      jump\t// in\n    tag_308:\n        /* \"#utility.yul\":4184:4187   */\n      dup3\n        /* \"#utility.yul\":4177:4214   */\n      mstore\n        /* \"#utility.yul\":4102:4220   */\n      pop\n      pop\n      jump\t// out\n        /* \"#utility.yul\":4226:4335   */\n    tag_310:\n        /* \"#utility.yul\":4307:4328   */\n      tag_312\n        /* \"#utility.yul\":4322:4327   */\n      dup2\n        /* \"#utility.yul\":4307:4328   */\n      tag_313\n      jump\t// in\n    tag_312:\n        /* \"#utility.yul\":4302:4305   */\n      dup3\n        /* \"#utility.yul\":4295:4329   */\n      mstore\n        /* \"#utility.yul\":4226:4335   */\n      pop\n      pop\n      jump\t// out\n        /* \"#utility.yul\":4341:4470   */\n    tag_314:\n        /* \"#utility.yul\":4427:4463   */\n      tag_316\n        /* \"#utility.yul\":4457:4462   */\n      dup2\n        /* \"#utility.yul\":4427:4463   */\n      tag_317\n      jump\t// in\n    tag_316:\n        /* \"#utility.yul\":4422:4425   */\n      dup3\n        /* \"#utility.yul\":4415:4464   */\n      mstore\n        /* \"#utility.yul\":4341:4470   */\n      pop\n      pop\n      jump\t// out\n        /* \"#utility.yul\":4476:4657   */\n    tag_318:\n        /* \"#utility.yul\":4588:4650   */\n      tag_320\n        /* \"#utility.yul\":4644:4649   */\n      dup2\n        /* \"#utility.yul\":4588:4650   */\n      tag_321\n      jump\t// in\n    tag_320:\n        /* \"#utility.yul\":4583:4586   */\n      dup3\n        /* \"#utility.yul\":4576:4651   */\n      mstore\n        /* \"#utility.yul\":4476:4657   */\n      pop\n      pop\n      jump\t// out\n        /* \"#utility.yul\":4663:4848   */\n    tag_322:\n        /* \"#utility.yul\":4777:4841   */\n      tag_324\n        /* \"#utility.yul\":4835:4840   */\n      dup2\n        /* \"#utility.yul\":4777:4841   */\n      tag_325\n      jump\t// in\n    tag_324:\n        /* \"#utility.yul\":4772:4775   */\n      dup3\n        /* \"#utility.yul\":4765:4842   */\n      mstore\n        /* \"#utility.yul\":4663:4848   */\n      pop\n      pop\n      jump\t// out\n        /* \"#utility.yul\":4854:4969   */\n    tag_326:\n        /* \"#utility.yul\":4939:4962   */\n      tag_328\n        /* \"#utility.yul\":4956:4961   */\n      dup2\n        /* \"#utility.yul\":4939:4962   */\n      tag_329\n      jump\t// in\n    tag_328:\n        /* \"#utility.yul\":4934:4937   */\n      dup3\n        /* \"#utility.yul\":4927:4963   */\n      mstore\n        /* \"#utility.yul\":4854:4969   */\n      pop\n      pop\n      jump\t// out\n        /* \"#utility.yul\":4975:5341   */\n    tag_330:\n        /* \"#utility.yul\":5117:5120   */\n      0x00\n        /* \"#utility.yul\":5138:5205   */\n      tag_332\n        /* \"#utility.yul\":5202:5204   */\n      0x1b\n        /* \"#utility.yul\":5197:5200   */\n      dup4\n        /* \"#utility.yul\":5138:5205   */\n      tag_333\n      jump\t// in\n    tag_332:\n        /* \"#utility.yul\":5131:5205   */\n      swap2\n      pop\n        /* \"#utility.yul\":5214:5307   */\n      tag_334\n        /* \"#utility.yul\":5303:5306   */\n      dup3\n        /* \"#utility.yul\":5214:5307   */\n      tag_335\n      jump\t// in\n    tag_334:\n        /* \"#utility.yul\":5332:5334   */\n      0x20\n        /* \"#utility.yul\":5327:5330   */\n      dup3\n        /* \"#utility.yul\":5323:5335   */\n      add\n        /* \"#utility.yul\":5316:5335   */\n      swap1\n      pop\n        /* \"#utility.yul\":4975:5341   */\n      swap2\n      swap1\n      pop\n      jump\t// out\n        /* \"#utility.yul\":5347:5713   */\n    tag_336:\n        /* \"#utility.yul\":5489:5492   */\n      0x00\n        /* \"#utility.yul\":5510:5577   */\n      tag_338\n        /* \"#utility.yul\":5574:5576   */\n      0x1e\n        /* \"#utility.yul\":5569:5572   */\n      dup4\n        /* \"#utility.yul\":5510:5577   */\n      tag_333\n      jump\t// in\n    tag_338:\n        /* \"#utility.yul\":5503:5577   */\n      swap2\n      pop\n        /* \"#utility.yul\":5586:5679   */\n      tag_339\n        /* \"#utility.yul\":5675:5678   */\n      dup3\n        /* \"#utility.yul\":5586:5679   */\n      tag_340\n      jump\t// in\n    tag_339:\n        /* \"#utility.yul\":5704:5706   */\n      0x20\n        /* \"#utility.yul\":5699:5702   */\n      dup3\n        /* \"#utility.yul\":5695:5707   */\n      add\n        /* \"#utility.yul\":5688:5707   */\n      swap1\n      pop\n        /* \"#utility.yul\":5347:5713   */\n      swap2\n      swap1\n      pop\n      jump\t// out\n        /* \"#utility.yul\":5719:6085   */\n    tag_341:\n        /* \"#utility.yul\":5861:5864   */\n      0x00\n        /* \"#utility.yul\":5882:5949   */\n      tag_343\n        /* \"#utility.yul\":5946:5948   */\n      0x0f\n        /* \"#utility.yul\":5941:5944   */\n      dup4\n        /* \"#utility.yul\":5882:5949   */\n      tag_333\n      jump\t// in\n    tag_343:\n        /* \"#utility.yul\":5875:5949   */\n      swap2\n      pop\n        /* \"#utility.yul\":5958:6051   */\n      tag_344\n        /* \"#utility.yul\":6047:6050   */\n      dup3\n        /* \"#utility.yul\":5958:6051   */\n      tag_345\n      jump\t// in\n    tag_344:\n        /* \"#utility.yul\":6076:6078   */\n      0x20\n        /* \"#utility.yul\":6071:6074   */\n      dup3\n        /* \"#utility.yul\":6067:6079   */\n      add\n        /* \"#utility.yul\":6060:6079   */\n      swap1\n      pop\n        /* \"#utility.yul\":5719:6085   */\n      swap2\n      swap1\n      pop\n      jump\t// out\n        /* \"#utility.yul\":6091:6457   */\n    tag_346:\n        /* \"#utility.yul\":6233:6236   */\n      0x00\n        /* \"#utility.yul\":6254:6321   */\n      tag_348\n        /* \"#utility.yul\":6318:6320   */\n      0x21\n        /* \"#utility.yul\":6313:6316   */\n      dup4\n        /* \"#utility.yul\":6254:6321   */\n      tag_333\n      jump\t// in\n    tag_348:\n        /* \"#utility.yul\":6247:6321   */\n      swap2\n      pop\n        /* \"#utility.yul\":6330:6423   */\n      tag_349\n        /* \"#utility.yul\":6419:6422   */\n      dup3\n        /* \"#utility.yul\":6330:6423   */\n      tag_350\n      jump\t// in\n    tag_349:\n        /* \"#utility.yul\":6448:6450   */\n      0x40\n        /* \"#utility.yul\":6443:6446   */\n      dup3\n        /* \"#utility.yul\":6439:6451   */\n      add\n        /* \"#utility.yul\":6432:6451   */\n      swap1\n      pop\n        /* \"#utility.yul\":6091:6457   */\n      swap2\n      swap1\n      pop\n      jump\t// out\n        /* \"#utility.yul\":6463:6581   */\n    tag_351:\n        /* \"#utility.yul\":6550:6574   */\n      tag_353\n        /* \"#utility.yul\":6568:6573   */\n      dup2\n        /* \"#utility.yul\":6550:6574   */\n      tag_354\n      jump\t// in\n    tag_353:\n        /* \"#utility.yul\":6545:6548   */\n      dup3\n        /* \"#utility.yul\":6538:6575   */\n      mstore\n        /* \"#utility.yul\":6463:6581   */\n      pop\n      pop\n      jump\t// out\n        /* \"#utility.yul\":6587:7029   */\n    tag_196:\n        /* \"#utility.yul\":6736:6740   */\n      0x00\n        /* \"#utility.yul\":6774:6776   */\n      0x60\n        /* \"#utility.yul\":6763:6772   */\n      dup3\n        /* \"#utility.yul\":6759:6777   */\n      add\n        /* \"#utility.yul\":6751:6777   */\n      swap1\n      pop\n        /* \"#utility.yul\":6787:6858   */\n      tag_356\n        /* \"#utility.yul\":6855:6856   */\n      0x00\n        /* \"#utility.yul\":6844:6853   */\n      dup4\n        /* \"#utility.yul\":6840:6857   */\n      add\n        /* \"#utility.yul\":6831:6837   */\n      dup7\n        /* \"#utility.yul\":6787:6858   */\n      tag_306\n      jump\t// in\n    tag_356:\n        /* \"#utility.yul\":6868:6940   */\n      tag_357\n        /* \"#utility.yul\":6936:6938   */\n      0x20\n        /* \"#utility.yul\":6925:6934   */\n      dup4\n        /* \"#utility.yul\":6921:6939   */\n      add\n        /* \"#utility.yul\":6912:6918   */\n      dup6\n        /* \"#utility.yul\":6868:6940   */\n      tag_306\n      jump\t// in\n    tag_357:\n        /* \"#utility.yul\":6950:7022   */\n      tag_358\n        /* \"#utility.yul\":7018:7020   */\n      0x40\n        /* \"#utility.yul\":7007:7016   */\n      dup4\n        /* \"#utility.yul\":7003:7021   */\n      add\n        /* \"#utility.yul\":6994:7000   */\n      dup5\n        /* \"#utility.yul\":6950:7022   */\n      tag_351\n      jump\t// in\n    tag_358:\n        /* \"#utility.yul\":6587:7029   */\n      swap5\n      swap4\n      pop\n      pop\n      pop\n      pop\n      jump\t// out\n        /* \"#utility.yul\":7035:7245   */\n    tag_47:\n        /* \"#utility.yul\":7122:7126   */\n      0x00\n        /* \"#utility.yul\":7160:7162   */\n      0x20\n        /* \"#utility.yul\":7149:7158   */\n      dup3\n        /* \"#utility.yul\":7145:7163   */\n      add\n        /* \"#utility.yul\":7137:7163   */\n      swap1\n      pop\n        /* \"#utility.yul\":7173:7238   */\n      tag_360\n        /* \"#utility.yul\":7235:7236   */\n      0x00\n        /* \"#utility.yul\":7224:7233   */\n      dup4\n        /* \"#utility.yul\":7220:7237   */\n      add\n        /* \"#utility.yul\":7211:7217   */\n      dup5\n        /* \"#utility.yul\":7173:7238   */\n      tag_310\n      jump\t// in\n    tag_360:\n        /* \"#utility.yul\":7035:7245   */\n      swap3\n      swap2\n      pop\n      pop\n      jump\t// out\n        /* \"#utility.yul\":7251:7471   */\n    tag_125:\n        /* \"#utility.yul\":7343:7347   */\n      0x00\n        /* \"#utility.yul\":7381:7383   */\n      0x20\n        /* \"#utility.yul\":7370:7379   */\n      dup3\n        /* \"#utility.yul\":7366:7384   */\n      add\n        /* \"#utility.yul\":7358:7384   */\n      swap1\n      pop\n        /* \"#utility.yul\":7394:7464   */\n      tag_362\n        /* \"#utility.yul\":7461:7462   */\n      0x00\n        /* \"#utility.yul\":7450:7459   */\n      dup4\n        /* \"#utility.yul\":7446:7463   */\n      add\n        /* \"#utility.yul\":7437:7443   */\n      dup5\n        /* \"#utility.yul\":7394:7464   */\n      tag_314\n      jump\t// in\n    tag_362:\n        /* \"#utility.yul\":7251:7471   */\n      swap3\n      swap2\n      pop\n      pop\n      jump\t// out\n        /* \"#utility.yul\":7477:7749   */\n    tag_86:\n        /* \"#utility.yul\":7595:7599   */\n      0x00\n        /* \"#utility.yul\":7633:7635   */\n      0x20\n        /* \"#utility.yul\":7622:7631   */\n      dup3\n        /* \"#utility.yul\":7618:7636   */\n      add\n        /* \"#utility.yul\":7610:7636   */\n      swap1\n      pop\n        /* \"#utility.yul\":7646:7742   */\n      tag_364\n        /* \"#utility.yul\":7739:7740   */\n      0x00\n        /* \"#utility.yul\":7728:7737   */\n      dup4\n        /* \"#utility.yul\":7724:7741   */\n      add\n        /* \"#utility.yul\":7715:7721   */\n      dup5\n        /* \"#utility.yul\":7646:7742   */\n      tag_318\n      jump\t// in\n    tag_364:\n        /* \"#utility.yul\":7477:7749   */\n      swap3\n      swap2\n      pop\n      pop\n      jump\t// out\n        /* \"#utility.yul\":7755:8031   */\n    tag_52:\n        /* \"#utility.yul\":7875:7879   */\n      0x00\n        /* \"#utility.yul\":7913:7915   */\n      0x20\n        /* \"#utility.yul\":7902:7911   */\n      dup3\n        /* \"#utility.yul\":7898:7916   */\n      add\n        /* \"#utility.yul\":7890:7916   */\n      swap1\n      pop\n        /* \"#utility.yul\":7926:8024   */\n      tag_366\n        /* \"#utility.yul\":8021:8022   */\n      0x00\n        /* \"#utility.yul\":8010:8019   */\n      dup4\n        /* \"#utility.yul\":8006:8023   */\n      add\n        /* \"#utility.yul\":7997:8003   */\n      dup5\n        /* \"#utility.yul\":7926:8024   */\n      tag_322\n      jump\t// in\n    tag_366:\n        /* \"#utility.yul\":7755:8031   */\n      swap3\n      swap2\n      pop\n      pop\n      jump\t// out\n        /* \"#utility.yul\":8037:8456   */\n    tag_188:\n        /* \"#utility.yul\":8203:8207   */\n      0x00\n        /* \"#utility.yul\":8241:8243   */\n      0x20\n        /* \"#utility.yul\":8230:8239   */\n      dup3\n        /* \"#utility.yul\":8226:8244   */\n      add\n        /* \"#utility.yul\":8218:8244   */\n      swap1\n      pop\n        /* \"#utility.yul\":8290:8299   */\n      dup2\n        /* \"#utility.yul\":8284:8288   */\n      dup2\n        /* \"#utility.yul\":8280:8300   */\n      sub\n        /* \"#utility.yul\":8276:8277   */\n      0x00\n        /* \"#utility.yul\":8265:8274   */\n      dup4\n        /* \"#utility.yul\":8261:8278   */\n      add\n        /* \"#utility.yul\":8254:8301   */\n      mstore\n        /* \"#utility.yul\":8318:8449   */\n      tag_368\n        /* \"#utility.yul\":8444:8448   */\n      dup2\n        /* \"#utility.yul\":8318:8449   */\n      tag_330\n      jump\t// in\n    tag_368:\n        /* \"#utility.yul\":8310:8449   */\n      swap1\n      pop\n        /* \"#utility.yul\":8037:8456   */\n      swap2\n      swap1\n      pop\n      jump\t// out\n        /* \"#utility.yul\":8462:8881   */\n    tag_100:\n        /* \"#utility.yul\":8628:8632   */\n      0x00\n        /* \"#utility.yul\":8666:8668   */\n      0x20\n        /* \"#utility.yul\":8655:8664   */\n      dup3\n        /* \"#utility.yul\":8651:8669   */\n      add\n        /* \"#utility.yul\":8643:8669   */\n      swap1\n      pop\n        /* \"#utility.yul\":8715:8724   */\n      dup2\n        /* \"#utility.yul\":8709:8713   */\n      dup2\n        /* \"#utility.yul\":8705:8725   */\n      sub\n        /* \"#utility.yul\":8701:8702   */\n      0x00\n        /* \"#utility.yul\":8690:8699   */\n      dup4\n        /* \"#utility.yul\":8686:8703   */\n      add\n        /* \"#utility.yul\":8679:8726   */\n      mstore\n        /* \"#utility.yul\":8743:8874   */\n      tag_370\n        /* \"#utility.yul\":8869:8873   */\n      dup2\n        /* \"#utility.yul\":8743:8874   */\n      tag_336\n      jump\t// in\n    tag_370:\n        /* \"#utility.yul\":8735:8874   */\n      swap1\n      pop\n        /* \"#utility.yul\":8462:8881   */\n      swap2\n      swap1\n      pop\n      jump\t// out\n        /* \"#utility.yul\":8887:9306   */\n    tag_161:\n        /* \"#utility.yul\":9053:9057   */\n      0x00\n        /* \"#utility.yul\":9091:9093   */\n      0x20\n        /* \"#utility.yul\":9080:9089   */\n      dup3\n        /* \"#utility.yul\":9076:9094   */\n      add\n        /* \"#utility.yul\":9068:9094   */\n      swap1\n      pop\n        /* \"#utility.yul\":9140:9149   */\n      dup2\n        /* \"#utility.yul\":9134:9138   */\n      dup2\n        /* \"#utility.yul\":9130:9150   */\n      sub\n        /* \"#utility.yul\":9126:9127   */\n      0x00\n        /* \"#utility.yul\":9115:9124   */\n      dup4\n        /* \"#utility.yul\":9111:9128   */\n      add\n        /* \"#utility.yul\":9104:9151   */\n      mstore\n        /* \"#utility.yul\":9168:9299   */\n      tag_372\n        /* \"#utility.yul\":9294:9298   */\n      dup2\n        /* \"#utility.yul\":9168:9299   */\n      tag_341\n      jump\t// in\n    tag_372:\n        /* \"#utility.yul\":9160:9299   */\n      swap1\n      pop\n        /* \"#utility.yul\":8887:9306   */\n      swap2\n      swap1\n      pop\n      jump\t// out\n        /* \"#utility.yul\":9312:9731   */\n    tag_107:\n        /* \"#utility.yul\":9478:9482   */\n      0x00\n        /* \"#utility.yul\":9516:9518   */\n      0x20\n        /* \"#utility.yul\":9505:9514   */\n      dup3\n        /* \"#utility.yul\":9501:9519   */\n      add\n        /* \"#utility.yul\":9493:9519   */\n      swap1\n      pop\n        /* \"#utility.yul\":9565:9574   */\n      dup2\n        /* \"#utility.yul\":9559:9563   */\n      dup2\n        /* \"#utility.yul\":9555:9575   */\n      sub\n        /* \"#utility.yul\":9551:9552   */\n      0x00\n        /* \"#utility.yul\":9540:9549   */\n      dup4\n        /* \"#utility.yul\":9536:9553   */\n      add\n        /* \"#utility.yul\":9529:9576   */\n      mstore\n        /* \"#utility.yul\":9593:9724   */\n      tag_374\n        /* \"#utility.yul\":9719:9723   */\n      dup2\n        /* \"#utility.yul\":9593:9724   */\n      tag_346\n      jump\t// in\n    tag_374:\n        /* \"#utility.yul\":9585:9724   */\n      swap1\n      pop\n        /* \"#utility.yul\":9312:9731   */\n      swap2\n      swap1\n      pop\n      jump\t// out\n        /* \"#utility.yul\":9737:9959   */\n    tag_34:\n        /* \"#utility.yul\":9830:9834   */\n      0x00\n        /* \"#utility.yul\":9868:9870   */\n      0x20\n        /* \"#utility.yul\":9857:9866   */\n      dup3\n        /* \"#utility.yul\":9853:9871   */\n      add\n        /* \"#utility.yul\":9845:9871   */\n      swap1\n      pop\n        /* \"#utility.yul\":9881:9952   */\n      tag_376\n        /* \"#utility.yul\":9949:9950   */\n      0x00\n        /* \"#utility.yul\":9938:9947   */\n      dup4\n        /* \"#utility.yul\":9934:9951   */\n      add\n        /* \"#utility.yul\":9925:9931   */\n      dup5\n        /* \"#utility.yul\":9881:9952   */\n      tag_351\n      jump\t// in\n    tag_376:\n        /* \"#utility.yul\":9737:9959   */\n      swap3\n      swap2\n      pop\n      pop\n      jump\t// out\n        /* \"#utility.yul\":9965:10293   */\n    tag_26:\n        /* \"#utility.yul\":10084:10088   */\n      0x00\n        /* \"#utility.yul\":10122:10124   */\n      0x40\n        /* \"#utility.yul\":10111:10120   */\n      dup3\n        /* \"#utility.yul\":10107:10125   */\n      add\n        /* \"#utility.yul\":10099:10125   */\n      swap1\n      pop\n        /* \"#utility.yul\":10135:10206   */\n      tag_378\n        /* \"#utility.yul\":10203:10204   */\n      0x00\n        /* \"#utility.yul\":10192:10201   */\n      dup4\n        /* \"#utility.yul\":10188:10205   */\n      add\n        /* \"#utility.yul\":10179:10185   */\n      dup6\n        /* \"#utility.yul\":10135:10206   */\n      tag_351\n      jump\t// in\n    tag_378:\n        /* \"#utility.yul\":10216:10286   */\n      tag_379\n        /* \"#utility.yul\":10282:10284   */\n      0x20\n        /* \"#utility.yul\":10271:10280   */\n      dup4\n        /* \"#utility.yul\":10267:10285   */\n      add\n        /* \"#utility.yul\":10258:10264   */\n      dup5\n        /* \"#utility.yul\":10216:10286   */\n      tag_326\n      jump\t// in\n    tag_379:\n        /* \"#utility.yul\":9965:10293   */\n      swap4\n      swap3\n      pop\n      pop\n      pop\n      jump\t// out\n        /* \"#utility.yul\":10299:10848   */\n    tag_63:\n        /* \"#utility.yul\":10474:10478   */\n      0x00\n        /* \"#utility.yul\":10512:10515   */\n      0x80\n        /* \"#utility.yul\":10501:10510   */\n      dup3\n        /* \"#utility.yul\":10497:10516   */\n      add\n        /* \"#utility.yul\":10489:10516   */\n      swap1\n      pop\n        /* \"#utility.yul\":10526:10597   */\n      tag_381\n        /* \"#utility.yul\":10594:10595   */\n      0x00\n        /* \"#utility.yul\":10583:10592   */\n      dup4\n        /* \"#utility.yul\":10579:10596   */\n      add\n        /* \"#utility.yul\":10570:10576   */\n      dup8\n        /* \"#utility.yul\":10526:10597   */\n      tag_351\n      jump\t// in\n    tag_381:\n        /* \"#utility.yul\":10607:10677   */\n      tag_382\n        /* \"#utility.yul\":10673:10675   */\n      0x20\n        /* \"#utility.yul\":10662:10671   */\n      dup4\n        /* \"#utility.yul\":10658:10676   */\n      add\n        /* \"#utility.yul\":10649:10655   */\n      dup7\n        /* \"#utility.yul\":10607:10677   */\n      tag_326\n      jump\t// in\n    tag_382:\n        /* \"#utility.yul\":10687:10759   */\n      tag_383\n        /* \"#utility.yul\":10755:10757   */\n      0x40\n        /* \"#utility.yul\":10744:10753   */\n      dup4\n        /* \"#utility.yul\":10740:10758   */\n      add\n        /* \"#utility.yul\":10731:10737   */\n      dup6\n        /* \"#utility.yul\":10687:10759   */\n      tag_351\n      jump\t// in\n    tag_383:\n        /* \"#utility.yul\":10769:10841   */\n      tag_384\n        /* \"#utility.yul\":10837:10839   */\n      0x60\n        /* \"#utility.yul\":10826:10835   */\n      dup4\n        /* \"#utility.yul\":10822:10840   */\n      add\n        /* \"#utility.yul\":10813:10819   */\n      dup5\n        /* \"#utility.yul\":10769:10841   */\n      tag_306\n      jump\t// in\n    tag_384:\n        /* \"#utility.yul\":10299:10848   */\n      swap6\n      swap5\n      pop\n      pop\n      pop\n      pop\n      pop\n      jump\t// out\n        /* \"#utility.yul\":10854:11186   */\n    tag_68:\n        /* \"#utility.yul\":10975:10979   */\n      0x00\n        /* \"#utility.yul\":11013:11015   */\n      0x40\n        /* \"#utility.yul\":11002:11011   */\n      dup3\n        /* \"#utility.yul\":10998:11016   */\n      add\n        /* \"#utility.yul\":10990:11016   */\n      swap1\n      pop\n        /* \"#utility.yul\":11026:11097   */\n      tag_386\n        /* \"#utility.yul\":11094:11095   */\n      0x00\n        /* \"#utility.yul\":11083:11092   */\n      dup4\n        /* \"#utility.yul\":11079:11096   */\n      add\n        /* \"#utility.yul\":11070:11076   */\n      dup6\n        /* \"#utility.yul\":11026:11097   */\n      tag_351\n      jump\t// in\n    tag_386:\n        /* \"#utility.yul\":11107:11179   */\n      tag_387\n        /* \"#utility.yul\":11175:11177   */\n      0x20\n        /* \"#utility.yul\":11164:11173   */\n      dup4\n        /* \"#utility.yul\":11160:11178   */\n      add\n        /* \"#utility.yul\":11151:11157   */\n      dup5\n        /* \"#utility.yul\":11107:11179   */\n      tag_351\n      jump\t// in\n    tag_387:\n        /* \"#utility.yul\":10854:11186   */\n      swap4\n      swap3\n      pop\n      pop\n      pop\n      jump\t// out\n        /* \"#utility.yul\":11273:11442   */\n    tag_333:\n        /* \"#utility.yul\":11357:11368   */\n      0x00\n        /* \"#utility.yul\":11391:11397   */\n      dup3\n        /* \"#utility.yul\":11386:11389   */\n      dup3\n        /* \"#utility.yul\":11379:11398   */\n      mstore\n        /* \"#utility.yul\":11431:11435   */\n      0x20\n        /* \"#utility.yul\":11426:11429   */\n      dup3\n        /* \"#utility.yul\":11422:11436   */\n      add\n        /* \"#utility.yul\":11407:11436   */\n      swap1\n      pop\n        /* \"#utility.yul\":11273:11442   */\n      swap3\n      swap2\n      pop\n      pop\n      jump\t// out\n        /* \"#utility.yul\":11448:11973   */\n    tag_113:\n        /* \"#utility.yul\":11487:11490   */\n      0x00\n        /* \"#utility.yul\":11506:11525   */\n      tag_392\n        /* \"#utility.yul\":11523:11524   */\n      dup3\n        /* \"#utility.yul\":11506:11525   */\n      tag_329\n      jump\t// in\n    tag_392:\n        /* \"#utility.yul\":11501:11525   */\n      swap2\n      pop\n        /* \"#utility.yul\":11539:11558   */\n      tag_393\n        /* \"#utility.yul\":11556:11557   */\n      dup4\n        /* \"#utility.yul\":11539:11558   */\n      tag_329\n      jump\t// in\n    tag_393:\n        /* \"#utility.yul\":11534:11558   */\n      swap3\n      pop\n        /* \"#utility.yul\":11727:11728   */\n      dup2\n        /* \"#utility.yul\":11659:11725   */\n      0x7fffffffffffffffffffffffffffffffffffffffffffffffffffffffffffffff\n        /* \"#utility.yul\":11655:11729   */\n      sub\n        /* \"#utility.yul\":11652:11653   */\n      dup4\n        /* \"#utility.yul\":11648:11730   */\n      sgt\n        /* \"#utility.yul\":11643:11644   */\n      0x00\n        /* \"#utility.yul\":11640:11641   */\n      dup4\n        /* \"#utility.yul\":11636:11645   */\n      slt\n        /* \"#utility.yul\":11629:11646   */\n      iszero\n        /* \"#utility.yul\":11625:11731   */\n      and\n        /* \"#utility.yul\":11622:11754   */\n      iszero\n      tag_394\n      jumpi\n        /* \"#utility.yul\":11734:11752   */\n      tag_395\n      tag_396\n      jump\t// in\n    tag_395:\n        /* \"#utility.yul\":11622:11754   */\n    tag_394:\n        /* \"#utility.yul\":11914:11915   */\n      dup2\n        /* \"#utility.yul\":11846:11912   */\n      0x8000000000000000000000000000000000000000000000000000000000000000\n        /* \"#utility.yul\":11842:11916   */\n      sub\n        /* \"#utility.yul\":11839:11840   */\n      dup4\n        /* \"#utility.yul\":11835:11917   */\n      slt\n        /* \"#utility.yul\":11831:11832   */\n      0x00\n        /* \"#utility.yul\":11828:11829   */\n      dup4\n        /* \"#utility.yul\":11824:11833   */\n      slt\n        /* \"#utility.yul\":11820:11918   */\n      and\n        /* \"#utility.yul\":11817:11941   */\n      iszero\n      tag_397\n      jumpi\n        /* \"#utility.yul\":11921:11939   */\n      tag_398\n      tag_396\n      jump\t// in\n    tag_398:\n        /* \"#utility.yul\":11817:11941   */\n    tag_397:\n        /* \"#utility.yul\":11965:11966   */\n      dup3\n        /* \"#utility.yul\":11962:11963   */\n      dup3\n        /* \"#utility.yul\":11958:11967   */\n      add\n        /* \"#utility.yul\":11951:11967   */\n      swap1\n      pop\n        /* \"#utility.yul\":11448:11973   */\n      swap3\n      swap2\n      pop\n      pop\n      jump\t// out\n        /* \"#utility.yul\":11979:12284   */\n    tag_117:\n        /* \"#utility.yul\":12019:12022   */\n      0x00\n        /* \"#utility.yul\":12038:12058   */\n      tag_400\n        /* \"#utility.yul\":12056:12057   */\n      dup3\n        /* \"#utility.yul\":12038:12058   */\n      tag_354\n      jump\t// in\n    tag_400:\n        /* \"#utility.yul\":12033:12058   */\n      swap2\n      pop\n        /* \"#utility.yul\":12072:12092   */\n      tag_401\n        /* \"#utility.yul\":12090:12091   */\n      dup4\n        /* \"#utility.yul\":12072:12092   */\n      tag_354\n      jump\t// in\n    tag_401:\n        /* \"#utility.yul\":12067:12092   */\n      swap3\n      pop\n        /* \"#utility.yul\":12226:12227   */\n      dup3\n        /* \"#utility.yul\":12158:12224   */\n      0xffffffffffffffffffffffffffffffffffffffffffffffffffffffffffffffff\n        /* \"#utility.yul\":12154:12228   */\n      sub\n        /* \"#utility.yul\":12151:12152   */\n      dup3\n        /* \"#utility.yul\":12148:12229   */\n      gt\n        /* \"#utility.yul\":12145:12252   */\n      iszero\n      tag_402\n      jumpi\n        /* \"#utility.yul\":12232:12250   */\n      tag_403\n      tag_396\n      jump\t// in\n    tag_403:\n        /* \"#utility.yul\":12145:12252   */\n    tag_402:\n        /* \"#utility.yul\":12276:12277   */\n      dup3\n        /* \"#utility.yul\":12273:12274   */\n      dup3\n        /* \"#utility.yul\":12269:12278   */\n      add\n        /* \"#utility.yul\":12262:12278   */\n      swap1\n      pop\n        /* \"#utility.yul\":11979:12284   */\n      swap3\n      swap2\n      pop\n      pop\n      jump\t// out\n        /* \"#utility.yul\":12290:12675   */\n    tag_104:\n        /* \"#utility.yul\":12329:12330   */\n      0x00\n        /* \"#utility.yul\":12346:12365   */\n      tag_405\n        /* \"#utility.yul\":12363:12364   */\n      dup3\n        /* \"#utility.yul\":12346:12365   */\n      tag_329\n      jump\t// in\n    tag_405:\n        /* \"#utility.yul\":12341:12365   */\n      swap2\n      pop\n        /* \"#utility.yul\":12379:12398   */\n      tag_406\n        /* \"#utility.yul\":12396:12397   */\n      dup4\n        /* \"#utility.yul\":12379:12398   */\n      tag_329\n      jump\t// in\n    tag_406:\n        /* \"#utility.yul\":12374:12398   */\n      swap3\n      pop\n        /* \"#utility.yul\":12417:12418   */\n      dup3\n        /* \"#utility.yul\":12407:12442   */\n      tag_407\n      jumpi\n        /* \"#utility.yul\":12422:12440   */\n      tag_408\n      tag_409\n      jump\t// in\n    tag_408:\n        /* \"#utility.yul\":12407:12442   */\n    tag_407:\n        /* \"#utility.yul\":12608:12609   */\n      0x01\n        /* \"#utility.yul\":12605:12606   */\n      0x00\n        /* \"#utility.yul\":12601:12610   */\n      sub\n        /* \"#utility.yul\":12598:12599   */\n      dup4\n        /* \"#utility.yul\":12595:12611   */\n      eq\n        /* \"#utility.yul\":12514:12580   */\n      0x8000000000000000000000000000000000000000000000000000000000000000\n        /* \"#utility.yul\":12511:12512   */\n      dup4\n        /* \"#utility.yul\":12508:12581   */\n      eq\n        /* \"#utility.yul\":12491:12621   */\n      and\n        /* \"#utility.yul\":12488:12644   */\n      iszero\n      tag_410\n      jumpi\n        /* \"#utility.yul\":12624:12642   */\n      tag_411\n      tag_396\n      jump\t// in\n    tag_411:\n        /* \"#utility.yul\":12488:12644   */\n    tag_410:\n        /* \"#utility.yul\":12667:12668   */\n      dup3\n        /* \"#utility.yul\":12664:12665   */\n      dup3\n        /* \"#utility.yul\":12659:12669   */\n      sdiv\n        /* \"#utility.yul\":12654:12669   */\n      swap1\n      pop\n        /* \"#utility.yul\":12290:12675   */\n      swap3\n      swap2\n      pop\n      pop\n      jump\t// out\n        /* \"#utility.yul\":12681:12866   */\n    tag_164:\n        /* \"#utility.yul\":12721:12722   */\n      0x00\n        /* \"#utility.yul\":12738:12758   */\n      tag_413\n        /* \"#utility.yul\":12756:12757   */\n      dup3\n        /* \"#utility.yul\":12738:12758   */\n      tag_354\n      jump\t// in\n    tag_413:\n        /* \"#utility.yul\":12733:12758   */\n      swap2\n      pop\n        /* \"#utility.yul\":12772:12792   */\n      tag_414\n        /* \"#utility.yul\":12790:12791   */\n      dup4\n        /* \"#utility.yul\":12772:12792   */\n      tag_354\n      jump\t// in\n    tag_414:\n        /* \"#utility.yul\":12767:12792   */\n      swap3\n      pop\n        /* \"#utility.yul\":12811:12812   */\n      dup3\n        /* \"#utility.yul\":12801:12836   */\n      tag_415\n      jumpi\n        /* \"#utility.yul\":12816:12834   */\n      tag_416\n      tag_409\n      jump\t// in\n    tag_416:\n        /* \"#utility.yul\":12801:12836   */\n    tag_415:\n        /* \"#utility.yul\":12858:12859   */\n      dup3\n        /* \"#utility.yul\":12855:12856   */\n      dup3\n        /* \"#utility.yul\":12851:12860   */\n      div\n        /* \"#utility.yul\":12846:12860   */\n      swap1\n      pop\n        /* \"#utility.yul\":12681:12866   */\n      swap3\n      swap2\n      pop\n      pop\n      jump\t// out\n        /* \"#utility.yul\":12872:13863   */\n    tag_109:\n        /* \"#utility.yul\":12911:12918   */\n      0x00\n        /* \"#utility.yul\":12934:12953   */\n      tag_418\n        /* \"#utility.yul\":12951:12952   */\n      dup3\n        /* \"#utility.yul\":12934:12953   */\n      tag_329\n      jump\t// in\n    tag_418:\n        /* \"#utility.yul\":12929:12953   */\n      swap2\n      pop\n        /* \"#utility.yul\":12967:12986   */\n      tag_419\n        /* \"#utility.yul\":12984:12985   */\n      dup4\n        /* \"#utility.yul\":12967:12986   */\n      tag_329\n      jump\t// in\n    tag_419:\n        /* \"#utility.yul\":12962:12986   */\n      swap3\n      pop\n        /* \"#utility.yul\":13168:13169   */\n      dup3\n        /* \"#utility.yul\":13100:13166   */\n      0x7fffffffffffffffffffffffffffffffffffffffffffffffffffffffffffffff\n        /* \"#utility.yul\":13096:13170   */\n      div\n        /* \"#utility.yul\":13093:13094   */\n      dup3\n        /* \"#utility.yul\":13090:13171   */\n      gt\n        /* \"#utility.yul\":13085:13086   */\n      0x00\n        /* \"#utility.yul\":13082:13083   */\n      dup5\n        /* \"#utility.yul\":13078:13087   */\n      sgt\n        /* \"#utility.yul\":13074:13075   */\n      0x00\n        /* \"#utility.yul\":13071:13072   */\n      dup5\n        /* \"#utility.yul\":13067:13076   */\n      sgt\n        /* \"#utility.yul\":13063:13088   */\n      and\n        /* \"#utility.yul\":13059:13172   */\n      and\n        /* \"#utility.yul\":13056:13195   */\n      iszero\n      tag_420\n      jumpi\n        /* \"#utility.yul\":13175:13193   */\n      tag_421\n      tag_396\n      jump\t// in\n    tag_421:\n        /* \"#utility.yul\":13056:13195   */\n    tag_420:\n        /* \"#utility.yul\":13379:13380   */\n      dup2\n        /* \"#utility.yul\":13311:13377   */\n      0x8000000000000000000000000000000000000000000000000000000000000000\n        /* \"#utility.yul\":13306:13381   */\n      sdiv\n        /* \"#utility.yul\":13303:13304   */\n      dup4\n        /* \"#utility.yul\":13299:13382   */\n      slt\n        /* \"#utility.yul\":13294:13295   */\n      0x00\n        /* \"#utility.yul\":13291:13292   */\n      dup5\n        /* \"#utility.yul\":13287:13296   */\n      slt\n        /* \"#utility.yul\":13283:13284   */\n      0x00\n        /* \"#utility.yul\":13280:13281   */\n      dup5\n        /* \"#utility.yul\":13276:13285   */\n      sgt\n        /* \"#utility.yul\":13272:13297   */\n      and\n        /* \"#utility.yul\":13268:13383   */\n      and\n        /* \"#utility.yul\":13265:13406   */\n      iszero\n      tag_422\n      jumpi\n        /* \"#utility.yul\":13386:13404   */\n      tag_423\n      tag_396\n      jump\t// in\n    tag_423:\n        /* \"#utility.yul\":13265:13406   */\n    tag_422:\n        /* \"#utility.yul\":13590:13591   */\n      dup3\n        /* \"#utility.yul\":13522:13588   */\n      0x8000000000000000000000000000000000000000000000000000000000000000\n        /* \"#utility.yul\":13517:13592   */\n      sdiv\n        /* \"#utility.yul\":13514:13515   */\n      dup3\n        /* \"#utility.yul\":13510:13593   */\n      slt\n        /* \"#utility.yul\":13505:13506   */\n      0x00\n        /* \"#utility.yul\":13502:13503   */\n      dup5\n        /* \"#utility.yul\":13498:13507   */\n      sgt\n        /* \"#utility.yul\":13494:13495   */\n      0x00\n        /* \"#utility.yul\":13491:13492   */\n      dup5\n        /* \"#utility.yul\":13487:13496   */\n      slt\n        /* \"#utility.yul\":13483:13508   */\n      and\n        /* \"#utility.yul\":13479:13594   */\n      and\n        /* \"#utility.yul\":13476:13617   */\n      iszero\n      tag_424\n      jumpi\n        /* \"#utility.yul\":13597:13615   */\n      tag_425\n      tag_396\n      jump\t// in\n    tag_425:\n        /* \"#utility.yul\":13476:13617   */\n    tag_424:\n        /* \"#utility.yul\":13800:13801   */\n      dup3\n        /* \"#utility.yul\":13732:13798   */\n      0x7fffffffffffffffffffffffffffffffffffffffffffffffffffffffffffffff\n        /* \"#utility.yul\":13727:13802   */\n      sdiv\n        /* \"#utility.yul\":13724:13725   */\n      dup3\n        /* \"#utility.yul\":13720:13803   */\n      slt\n        /* \"#utility.yul\":13715:13716   */\n      0x00\n        /* \"#utility.yul\":13712:13713   */\n      dup5\n        /* \"#utility.yul\":13708:13717   */\n      slt\n        /* \"#utility.yul\":13704:13705   */\n      0x00\n        /* \"#utility.yul\":13701:13702   */\n      dup5\n        /* \"#utility.yul\":13697:13706   */\n      slt\n        /* \"#utility.yul\":13693:13718   */\n      and\n        /* \"#utility.yul\":13689:13804   */\n      and\n        /* \"#utility.yul\":13686:13827   */\n      iszero\n      tag_426\n      jumpi\n        /* \"#utility.yul\":13807:13825   */\n      tag_427\n      tag_396\n      jump\t// in\n    tag_427:\n        /* \"#utility.yul\":13686:13827   */\n    tag_426:\n        /* \"#utility.yul\":13855:13856   */\n      dup3\n        /* \"#utility.yul\":13852:13853   */\n      dup3\n        /* \"#utility.yul\":13848:13857   */\n      mul\n        /* \"#utility.yul\":13837:13857   */\n      swap1\n      pop\n        /* \"#utility.yul\":12872:13863   */\n      swap3\n      swap2\n      pop\n      pop\n      jump\t// out\n        /* \"#utility.yul\":13869:14217   */\n    tag_219:\n        /* \"#utility.yul\":13909:13916   */\n      0x00\n        /* \"#utility.yul\":13932:13952   */\n      tag_429\n        /* \"#utility.yul\":13950:13951   */\n      dup3\n        /* \"#utility.yul\":13932:13952   */\n      tag_354\n      jump\t// in\n    tag_429:\n        /* \"#utility.yul\":13927:13952   */\n      swap2\n      pop\n        /* \"#utility.yul\":13966:13986   */\n      tag_430\n        /* \"#utility.yul\":13984:13985   */\n      dup4\n        /* \"#utility.yul\":13966:13986   */\n      tag_354\n      jump\t// in\n    tag_430:\n        /* \"#utility.yul\":13961:13986   */\n      swap3\n      pop\n        /* \"#utility.yul\":14154:14155   */\n      dup2\n        /* \"#utility.yul\":14086:14152   */\n      0xffffffffffffffffffffffffffffffffffffffffffffffffffffffffffffffff\n        /* \"#utility.yul\":14082:14156   */\n      div\n        /* \"#utility.yul\":14079:14080   */\n      dup4\n        /* \"#utility.yul\":14076:14157   */\n      gt\n        /* \"#utility.yul\":14071:14072   */\n      dup3\n        /* \"#utility.yul\":14064:14073   */\n      iszero\n        /* \"#utility.yul\":14057:14074   */\n      iszero\n        /* \"#utility.yul\":14053:14158   */\n      and\n        /* \"#utility.yul\":14050:14181   */\n      iszero\n      tag_431\n      jumpi\n        /* \"#utility.yul\":14161:14179   */\n      tag_432\n      tag_396\n      jump\t// in\n    tag_432:\n        /* \"#utility.yul\":14050:14181   */\n    tag_431:\n        /* \"#utility.yul\":14209:14210   */\n      dup3\n        /* \"#utility.yul\":14206:14207   */\n      dup3\n        /* \"#utility.yul\":14202:14211   */\n      mul\n        /* \"#utility.yul\":14191:14211   */\n      swap1\n      pop\n        /* \"#utility.yul\":13869:14217   */\n      swap3\n      swap2\n      pop\n      pop\n      jump\t// out\n        /* \"#utility.yul\":14223:14414   */\n    tag_171:\n        /* \"#utility.yul\":14263:14267   */\n      0x00\n        /* \"#utility.yul\":14283:14303   */\n      tag_434\n        /* \"#utility.yul\":14301:14302   */\n      dup3\n        /* \"#utility.yul\":14283:14303   */\n      tag_354\n      jump\t// in\n    tag_434:\n        /* \"#utility.yul\":14278:14303   */\n      swap2\n      pop\n        /* \"#utility.yul\":14317:14337   */\n      tag_435\n        /* \"#utility.yul\":14335:14336   */\n      dup4\n        /* \"#utility.yul\":14317:14337   */\n      tag_354\n      jump\t// in\n    tag_435:\n        /* \"#utility.yul\":14312:14337   */\n      swap3\n      pop\n        /* \"#utility.yul\":14356:14357   */\n      dup3\n        /* \"#utility.yul\":14353:14354   */\n      dup3\n        /* \"#utility.yul\":14350:14358   */\n      lt\n        /* \"#utility.yul\":14347:14381   */\n      iszero\n      tag_436\n      jumpi\n        /* \"#utility.yul\":14361:14379   */\n      tag_437\n      tag_396\n      jump\t// in\n    tag_437:\n        /* \"#utility.yul\":14347:14381   */\n    tag_436:\n        /* \"#utility.yul\":14406:14407   */\n      dup3\n        /* \"#utility.yul\":14403:14404   */\n      dup3\n        /* \"#utility.yul\":14399:14408   */\n      sub\n        /* \"#utility.yul\":14391:14408   */\n      swap1\n      pop\n        /* \"#utility.yul\":14223:14414   */\n      swap3\n      swap2\n      pop\n      pop\n      jump\t// out\n        /* \"#utility.yul\":14420:14516   */\n    tag_309:\n        /* \"#utility.yul\":14457:14464   */\n      0x00\n        /* \"#utility.yul\":14486:14510   */\n      tag_439\n        /* \"#utility.yul\":14504:14509   */\n      dup3\n        /* \"#utility.yul\":14486:14510   */\n      tag_440\n      jump\t// in\n    tag_439:\n        /* \"#utility.yul\":14475:14510   */\n      swap1\n      pop\n        /* \"#utility.yul\":14420:14516   */\n      swap2\n      swap1\n      pop\n      jump\t// out\n        /* \"#utility.yul\":14522:14626   */\n    tag_441:\n        /* \"#utility.yul\":14567:14574   */\n      0x00\n        /* \"#utility.yul\":14596:14620   */\n      tag_443\n        /* \"#utility.yul\":14614:14619   */\n      dup3\n        /* \"#utility.yul\":14596:14620   */\n      tag_440\n      jump\t// in\n    tag_443:\n        /* \"#utility.yul\":14585:14620   */\n      swap1\n      pop\n        /* \"#utility.yul\":14522:14626   */\n      swap2\n      swap1\n      pop\n      jump\t// out\n        /* \"#utility.yul\":14632:14722   */\n    tag_313:\n        /* \"#utility.yul\":14666:14673   */\n      0x00\n        /* \"#utility.yul\":14709:14714   */\n      dup2\n        /* \"#utility.yul\":14702:14715   */\n      iszero\n        /* \"#utility.yul\":14695:14716   */\n      iszero\n        /* \"#utility.yul\":14684:14716   */\n      swap1\n      pop\n        /* \"#utility.yul\":14632:14722   */\n      swap2\n      swap1\n      pop\n      jump\t// out\n        /* \"#utility.yul\":14728:14805   */\n    tag_445:\n        /* \"#utility.yul\":14765:14772   */\n      0x00\n        /* \"#utility.yul\":14794:14799   */\n      dup2\n        /* \"#utility.yul\":14783:14799   */\n      swap1\n      pop\n        /* \"#utility.yul\":14728:14805   */\n      swap2\n      swap1\n      pop\n      jump\t// out\n        /* \"#utility.yul\":14811:14960   */\n    tag_447:\n        /* \"#utility.yul\":14847:14854   */\n      0x00\n        /* \"#utility.yul\":14887:14953   */\n      0xffffffff00000000000000000000000000000000000000000000000000000000\n        /* \"#utility.yul\":14880:14885   */\n      dup3\n        /* \"#utility.yul\":14876:14954   */\n      and\n        /* \"#utility.yul\":14865:14954   */\n      swap1\n      pop\n        /* \"#utility.yul\":14811:14960   */\n      swap2\n      swap1\n      pop\n      jump\t// out\n        /* \"#utility.yul\":14966:15078   */\n    tag_449:\n        /* \"#utility.yul\":15019:15026   */\n      0x00\n        /* \"#utility.yul\":15048:15072   */\n      tag_451\n        /* \"#utility.yul\":15066:15071   */\n      dup3\n        /* \"#utility.yul\":15048:15072   */\n      tag_309\n      jump\t// in\n    tag_451:\n        /* \"#utility.yul\":15037:15072   */\n      swap1\n      pop\n        /* \"#utility.yul\":14966:15078   */\n      swap2\n      swap1\n      pop\n      jump\t// out\n        /* \"#utility.yul\":15084:15160   */\n    tag_329:\n        /* \"#utility.yul\":15120:15127   */\n      0x00\n        /* \"#utility.yul\":15149:15154   */\n      dup2\n        /* \"#utility.yul\":15138:15154   */\n      swap1\n      pop\n        /* \"#utility.yul\":15084:15160   */\n      swap2\n      swap1\n      pop\n      jump\t// out\n        /* \"#utility.yul\":15166:15292   */\n    tag_440:\n        /* \"#utility.yul\":15203:15210   */\n      0x00\n        /* \"#utility.yul\":15243:15285   */\n      0xffffffffffffffffffffffffffffffffffffffff\n        /* \"#utility.yul\":15236:15241   */\n      dup3\n        /* \"#utility.yul\":15232:15286   */\n      and\n        /* \"#utility.yul\":15221:15286   */\n      swap1\n      pop\n        /* \"#utility.yul\":15166:15292   */\n      swap2\n      swap1\n      pop\n      jump\t// out\n        /* \"#utility.yul\":15298:15375   */\n    tag_354:\n        /* \"#utility.yul\":15335:15342   */\n      0x00\n        /* \"#utility.yul\":15364:15369   */\n      dup2\n        /* \"#utility.yul\":15353:15369   */\n      swap1\n      pop\n        /* \"#utility.yul\":15298:15375   */\n      swap2\n      swap1\n      pop\n      jump\t// out\n        /* \"#utility.yul\":15381:15492   */\n    tag_317:\n        /* \"#utility.yul\":15430:15439   */\n      0x00\n        /* \"#utility.yul\":15463:15486   */\n      tag_456\n        /* \"#utility.yul\":15480:15485   */\n      dup3\n        /* \"#utility.yul\":15463:15486   */\n      tag_447\n      jump\t// in\n    tag_456:\n        /* \"#utility.yul\":15450:15486   */\n      swap1\n      pop\n        /* \"#utility.yul\":15381:15492   */\n      swap2\n      swap1\n      pop\n      jump\t// out\n        /* \"#utility.yul\":15498:15649   */\n    tag_321:\n        /* \"#utility.yul\":15573:15582   */\n      0x00\n        /* \"#utility.yul\":15606:15643   */\n      tag_458\n        /* \"#utility.yul\":15637:15642   */\n      dup3\n        /* \"#utility.yul\":15606:15643   */\n      tag_459\n      jump\t// in\n    tag_458:\n        /* \"#utility.yul\":15593:15643   */\n      swap1\n      pop\n        /* \"#utility.yul\":15498:15649   */\n      swap2\n      swap1\n      pop\n      jump\t// out\n        /* \"#utility.yul\":15655:15808   */\n    tag_325:\n        /* \"#utility.yul\":15732:15741   */\n      0x00\n        /* \"#utility.yul\":15765:15802   */\n      tag_461\n        /* \"#utility.yul\":15796:15801   */\n      dup3\n        /* \"#utility.yul\":15765:15802   */\n      tag_459\n      jump\t// in\n    tag_461:\n        /* \"#utility.yul\":15752:15802   */\n      swap1\n      pop\n        /* \"#utility.yul\":15655:15808   */\n      swap2\n      swap1\n      pop\n      jump\t// out\n        /* \"#utility.yul\":15814:15940   */\n    tag_459:\n        /* \"#utility.yul\":15864:15873   */\n      0x00\n        /* \"#utility.yul\":15897:15934   */\n      tag_463\n        /* \"#utility.yul\":15928:15933   */\n      dup3\n        /* \"#utility.yul\":15897:15934   */\n      tag_464\n      jump\t// in\n    tag_463:\n        /* \"#utility.yul\":15884:15934   */\n      swap1\n      pop\n        /* \"#utility.yul\":15814:15940   */\n      swap2\n      swap1\n      pop\n      jump\t// out\n        /* \"#utility.yul\":15946:16059   */\n    tag_464:\n        /* \"#utility.yul\":15996:16005   */\n      0x00\n        /* \"#utility.yul\":16029:16053   */\n      tag_466\n        /* \"#utility.yul\":16047:16052   */\n      dup3\n        /* \"#utility.yul\":16029:16053   */\n      tag_440\n      jump\t// in\n    tag_466:\n        /* \"#utility.yul\":16016:16053   */\n      swap1\n      pop\n        /* \"#utility.yul\":15946:16059   */\n      swap2\n      swap1\n      pop\n      jump\t// out\n        /* \"#utility.yul\":16065:16298   */\n    tag_115:\n        /* \"#utility.yul\":16104:16107   */\n      0x00\n        /* \"#utility.yul\":16127:16151   */\n      tag_468\n        /* \"#utility.yul\":16145:16150   */\n      dup3\n        /* \"#utility.yul\":16127:16151   */\n      tag_354\n      jump\t// in\n    tag_468:\n        /* \"#utility.yul\":16118:16151   */\n      swap2\n      pop\n        /* \"#utility.yul\":16173:16239   */\n      0xffffffffffffffffffffffffffffffffffffffffffffffffffffffffffffffff\n        /* \"#utility.yul\":16166:16171   */\n      dup3\n        /* \"#utility.yul\":16163:16240   */\n      eq\n        /* \"#utility.yul\":16160:16263   */\n      iszero\n      tag_469\n      jumpi\n        /* \"#utility.yul\":16243:16261   */\n      tag_470\n      tag_396\n      jump\t// in\n    tag_470:\n        /* \"#utility.yul\":16160:16263   */\n    tag_469:\n        /* \"#utility.yul\":16290:16291   */\n      0x01\n        /* \"#utility.yul\":16283:16288   */\n      dup3\n        /* \"#utility.yul\":16279:16292   */\n      add\n        /* \"#utility.yul\":16272:16292   */\n      swap1\n      pop\n        /* \"#utility.yul\":16065:16298   */\n      swap2\n      swap1\n      pop\n      jump\t// out\n        /* \"#utility.yul\":16304:16484   */\n    tag_396:\n        /* \"#utility.yul\":16352:16429   */\n      0x4e487b7100000000000000000000000000000000000000000000000000000000\n        /* \"#utility.yul\":16349:16350   */\n      0x00\n        /* \"#utility.yul\":16342:16430   */\n      mstore\n        /* \"#utility.yul\":16449:16453   */\n      0x11\n        /* \"#utility.yul\":16446:16447   */\n      0x04\n        /* \"#utility.yul\":16439:16454   */\n      mstore\n        /* \"#utility.yul\":16473:16477   */\n      0x24\n        /* \"#utility.yul\":16470:16471   */\n      0x00\n        /* \"#utility.yul\":16463:16478   */\n      revert\n        /* \"#utility.yul\":16490:16670   */\n    tag_409:\n        /* \"#utility.yul\":16538:16615   */\n      0x4e487b7100000000000000000000000000000000000000000000000000000000\n        /* \"#utility.yul\":16535:16536   */\n      0x00\n        /* \"#utility.yul\":16528:16616   */\n      mstore\n        /* \"#utility.yul\":16635:16639   */\n      0x12\n        /* \"#utility.yul\":16632:16633   */\n      0x04\n        /* \"#utility.yul\":16625:16640   */\n      mstore\n        /* \"#utility.yul\":16659:16663   */\n      0x24\n        /* \"#utility.yul\":16656:16657   */\n      0x00\n        /* \"#utility.yul\":16649:16664   */\n      revert\n        /* \"#utility.yul\":16799:16916   */\n    tag_279:\n        /* \"#utility.yul\":16908:16909   */\n      0x00\n        /* \"#utility.yul\":16905:16906   */\n      dup1\n        /* \"#utility.yul\":16898:16910   */\n      revert\n        /* \"#utility.yul\":16922:17099   */\n    tag_335:\n        /* \"#utility.yul\":17062:17091   */\n      0x5468616e6b7320746f206465706f736974206d6f726520637573640000000000\n        /* \"#utility.yul\":17058:17059   */\n      0x00\n        /* \"#utility.yul\":17050:17056   */\n      dup3\n        /* \"#utility.yul\":17046:17060   */\n      add\n        /* \"#utility.yul\":17039:17092   */\n      mstore\n        /* \"#utility.yul\":16922:17099   */\n      pop\n      jump\t// out\n        /* \"#utility.yul\":17105:17285   */\n    tag_340:\n        /* \"#utility.yul\":17245:17277   */\n      0x796f75722062616c616e6365206973206e6f742073756666696369656e740000\n        /* \"#utility.yul\":17241:17242   */\n      0x00\n        /* \"#utility.yul\":17233:17239   */\n      dup3\n        /* \"#utility.yul\":17229:17243   */\n      add\n        /* \"#utility.yul\":17222:17278   */\n      mstore\n        /* \"#utility.yul\":17105:17285   */\n      pop\n      jump\t// out\n        /* \"#utility.yul\":17291:17456   */\n    tag_345:\n        /* \"#utility.yul\":17431:17448   */\n      0x6e6f742073756666696369656e74200000000000000000000000000000000000\n        /* \"#utility.yul\":17427:17428   */\n      0x00\n        /* \"#utility.yul\":17419:17425   */\n      dup3\n        /* \"#utility.yul\":17415:17429   */\n      add\n        /* \"#utility.yul\":17408:17449   */\n      mstore\n        /* \"#utility.yul\":17291:17456   */\n      pop\n      jump\t// out\n        /* \"#utility.yul\":17462:17682   */\n    tag_350:\n        /* \"#utility.yul\":17602:17636   */\n      0x706c656173652073656e642063656c6f20616d6f756e74203e3d203230205553\n        /* \"#utility.yul\":17598:17599   */\n      0x00\n        /* \"#utility.yul\":17590:17596   */\n      dup3\n        /* \"#utility.yul\":17586:17600   */\n      add\n        /* \"#utility.yul\":17579:17637   */\n      mstore\n        /* \"#utility.yul\":17671:17674   */\n      0x4400000000000000000000000000000000000000000000000000000000000000\n        /* \"#utility.yul\":17666:17668   */\n      0x20\n        /* \"#utility.yul\":17658:17664   */\n      dup3\n        /* \"#utility.yul\":17654:17669   */\n      add\n        /* \"#utility.yul\":17647:17675   */\n      mstore\n        /* \"#utility.yul\":17462:17682   */\n      pop\n      jump\t// out\n        /* \"#utility.yul\":17688:17810   */\n    tag_248:\n        /* \"#utility.yul\":17761:17785   */\n      tag_481\n        /* \"#utility.yul\":17779:17784   */\n      dup2\n        /* \"#utility.yul\":17761:17785   */\n      tag_309\n      jump\t// in\n    tag_481:\n        /* \"#utility.yul\":17754:17759   */\n      dup2\n        /* \"#utility.yul\":17751:17786   */\n      eq\n        /* \"#utility.yul\":17741:17804   */\n      tag_482\n      jumpi\n        /* \"#utility.yul\":17800:17801   */\n      0x00\n        /* \"#utility.yul\":17797:17798   */\n      dup1\n        /* \"#utility.yul\":17790:17802   */\n      revert\n        /* \"#utility.yul\":17741:17804   */\n    tag_482:\n        /* \"#utility.yul\":17688:17810   */\n      pop\n      jump\t// out\n        /* \"#utility.yul\":17816:17954   */\n    tag_252:\n        /* \"#utility.yul\":17897:17929   */\n      tag_484\n        /* \"#utility.yul\":17923:17928   */\n      dup2\n        /* \"#utility.yul\":17897:17929   */\n      tag_441\n      jump\t// in\n    tag_484:\n        /* \"#utility.yul\":17890:17895   */\n      dup2\n        /* \"#utility.yul\":17887:17930   */\n      eq\n        /* \"#utility.yul\":17877:17948   */\n      tag_485\n      jumpi\n        /* \"#utility.yul\":17944:17945   */\n      0x00\n        /* \"#utility.yul\":17941:17942   */\n      dup1\n        /* \"#utility.yul\":17934:17946   */\n      revert\n        /* \"#utility.yul\":17877:17948   */\n    tag_485:\n        /* \"#utility.yul\":17816:17954   */\n      pop\n      jump\t// out\n        /* \"#utility.yul\":17960:18076   */\n    tag_256:\n        /* \"#utility.yul\":18030:18051   */\n      tag_487\n        /* \"#utility.yul\":18045:18050   */\n      dup2\n        /* \"#utility.yul\":18030:18051   */\n      tag_313\n      jump\t// in\n    tag_487:\n        /* \"#utility.yul\":18023:18028   */\n      dup2\n        /* \"#utility.yul\":18020:18052   */\n      eq\n        /* \"#utility.yul\":18010:18070   */\n      tag_488\n      jumpi\n        /* \"#utility.yul\":18066:18067   */\n      0x00\n        /* \"#utility.yul\":18063:18064   */\n      dup1\n        /* \"#utility.yul\":18056:18068   */\n      revert\n        /* \"#utility.yul\":18010:18070   */\n    tag_488:\n        /* \"#utility.yul\":17960:18076   */\n      pop\n      jump\t// out\n        /* \"#utility.yul\":18082:18204   */\n    tag_260:\n        /* \"#utility.yul\":18155:18179   */\n      tag_490\n        /* \"#utility.yul\":18173:18178   */\n      dup2\n        /* \"#utility.yul\":18155:18179   */\n      tag_445\n      jump\t// in\n    tag_490:\n        /* \"#utility.yul\":18148:18153   */\n      dup2\n        /* \"#utility.yul\":18145:18180   */\n      eq\n        /* \"#utility.yul\":18135:18198   */\n      tag_491\n      jumpi\n        /* \"#utility.yul\":18194:18195   */\n      0x00\n        /* \"#utility.yul\":18191:18192   */\n      dup1\n        /* \"#utility.yul\":18184:18196   */\n      revert\n        /* \"#utility.yul\":18135:18198   */\n    tag_491:\n        /* \"#utility.yul\":18082:18204   */\n      pop\n      jump\t// out\n        /* \"#utility.yul\":18210:18364   */\n    tag_264:\n        /* \"#utility.yul\":18299:18339   */\n      tag_493\n        /* \"#utility.yul\":18333:18338   */\n      dup2\n        /* \"#utility.yul\":18299:18339   */\n      tag_449\n      jump\t// in\n    tag_493:\n        /* \"#utility.yul\":18292:18297   */\n      dup2\n        /* \"#utility.yul\":18289:18340   */\n      eq\n        /* \"#utility.yul\":18279:18358   */\n      tag_494\n      jumpi\n        /* \"#utility.yul\":18354:18355   */\n      0x00\n        /* \"#utility.yul\":18351:18352   */\n      dup1\n        /* \"#utility.yul\":18344:18356   */\n      revert\n        /* \"#utility.yul\":18279:18358   */\n    tag_494:\n        /* \"#utility.yul\":18210:18364   */\n      pop\n      jump\t// out\n        /* \"#utility.yul\":18370:18490   */\n    tag_268:\n        /* \"#utility.yul\":18442:18465   */\n      tag_496\n        /* \"#utility.yul\":18459:18464   */\n      dup2\n        /* \"#utility.yul\":18442:18465   */\n      tag_329\n      jump\t// in\n    tag_496:\n        /* \"#utility.yul\":18435:18440   */\n      dup2\n        /* \"#utility.yul\":18432:18466   */\n      eq\n        /* \"#utility.yul\":18422:18484   */\n      tag_497\n      jumpi\n        /* \"#utility.yul\":18480:18481   */\n      0x00\n        /* \"#utility.yul\":18477:18478   */\n      dup1\n        /* \"#utility.yul\":18470:18482   */\n      revert\n        /* \"#utility.yul\":18422:18484   */\n    tag_497:\n        /* \"#utility.yul\":18370:18490   */\n      pop\n      jump\t// out\n        /* \"#utility.yul\":18496:18618   */\n    tag_272:\n        /* \"#utility.yul\":18569:18593   */\n      tag_499\n        /* \"#utility.yul\":18587:18592   */\n      dup2\n        /* \"#utility.yul\":18569:18593   */\n      tag_354\n      jump\t// in\n    tag_499:\n        /* \"#utility.yul\":18562:18567   */\n      dup2\n        /* \"#utility.yul\":18559:18594   */\n      eq\n        /* \"#utility.yul\":18549:18612   */\n      tag_500\n      jumpi\n        /* \"#utility.yul\":18608:18609   */\n      0x00\n        /* \"#utility.yul\":18605:18606   */\n      dup1\n        /* \"#utility.yul\":18598:18610   */\n      revert\n        /* \"#utility.yul\":18549:18612   */\n    tag_500:\n        /* \"#utility.yul\":18496:18618   */\n      pop\n      jump\t// out\n\n    auxdata: 0xa2646970667358221220657d2f254c403715565645a0fd410c277c580eca950bf6aa58e1744848e3520c64736f6c63430008070033\n}\n",
				"bytecode": {
					"linkReferences": {},
					"object": "60806040526000600a553480156200001657600080fd5b5033600c60006101000a81548173ffffffffffffffffffffffffffffffffffffffff021916908373ffffffffffffffffffffffffffffffffffffffff160217905550736f8a7e2bbc1edb8782145cd1089251f6e2c738ae6000806101000a81548173ffffffffffffffffffffffffffffffffffffffff021916908373ffffffffffffffffffffffffffffffffffffffff160217905550620000bc6200011760201b60201c565b73874069fa1eb16d44d622f2e0ca25eea172369bc1600560006101000a81548173ffffffffffffffffffffffffffffffffffffffff021916908373ffffffffffffffffffffffffffffffffffffffff1602179055506200036a565b60008060009054906101000a900473ffffffffffffffffffffffffffffffffffffffff1673ffffffffffffffffffffffffffffffffffffffff16638c0adf62639ed884be60e01b6040518263ffffffff1660e01b81526004016200017c9190620002a6565b60206040518083038186803b1580156200019557600080fd5b505afa158015620001aa573d6000803e3d6000fd5b505050506040513d601f19601f82011682018060405250810190620001d0919062000263565b9050600073ffffffffffffffffffffffffffffffffffffffff168173ffffffffffffffffffffffffffffffffffffffff1614620002495780600260006101000a81548173ffffffffffffffffffffffffffffffffffffffff021916908373ffffffffffffffffffffffffffffffffffffffff1602179055505b50565b6000815190506200025d8162000350565b92915050565b6000602082840312156200027c576200027b6200034b565b5b60006200028c848285016200024c565b91505092915050565b620002a08162000337565b82525050565b6000602082019050620002bd600083018462000295565b92915050565b6000620002d08262000317565b9050919050565b60007fffffffff0000000000000000000000000000000000000000000000000000000082169050919050565b60006200031082620002c3565b9050919050565b600073ffffffffffffffffffffffffffffffffffffffff82169050919050565b60006200034482620002d7565b9050919050565b600080fd5b6200035b8162000303565b81146200036757600080fd5b50565b612c0e806200037a6000396000f3fe6080604052600436106100f35760003560e01c806380ad10df1161008a578063b1ddf38611610059578063b1ddf38614610310578063b447b0a514610341578063c8525f811461036c578063df3d4e3214610397576100f3565b806380ad10df14610231578063893c4a841461027157806391cfa8c2146102a2578063aea5da5b146102d2576100f3565b806335178e87116100c657806335178e871461018257806343d37940146101995780634fc87f24146101d65780637f28ee3414610201576100f3565b806309a61767146100f85780630fd19c15146101295780632986c0e51461014057806332eb658c1461016b575b600080fd5b610112600480360381019061010d9190612175565b6103c2565b6040516101209291906124e9565b60405180910390f35b34801561013557600080fd5b5061013e610940565b005b34801561014c57600080fd5b50610155610a6e565b60405161016291906124ce565b60405180910390f35b34801561017757600080fd5b50610180610a74565b005b34801561018e57600080fd5b50610197610ba2565b005b3480156101a557600080fd5b506101c060048036038101906101bb9190612148565b610cd0565b6040516101cd91906123e2565b60405180910390f35b3480156101e257600080fd5b506101eb610d2f565b6040516101f89190612433565b60405180910390f35b61021b600480360381019061021691906121a2565b610d53565b60405161022891906123e2565b60405180910390f35b34801561023d57600080fd5b5061025860048036038101906102539190612148565b610fad565b6040516102689493929190612512565b60405180910390f35b61028b60048036038101906102869190612175565b610ffd565b604051610299929190612557565b60405180910390f35b6102bc60048036038101906102b79190612175565b611452565b6040516102c991906123e2565b60405180910390f35b3480156102de57600080fd5b506102f960048036038101906102f49190612148565b611aab565b604051610307929190612557565b60405180910390f35b61032a60048036038101906103259190612175565b611acf565b604051610338929190612557565b60405180910390f35b34801561034d57600080fd5b50610356611f7c565b6040516103639190612418565b60405180910390f35b34801561037857600080fd5b50610381611fa2565b60405161038e9190612418565b60405180910390f35b3480156103a357600080fd5b506103ac611fc8565b6040516103b99190612418565b60405180910390f35b600080600c60149054906101000a900460ff16156103df57600080fd5b6001600c60146101000a81548160ff021916908315150217905550343373ffffffffffffffffffffffffffffffffffffffff16311015610454576040517f08c379a000000000000000000000000000000000000000000000000000000000815260040161044b9061246e565b60405180910390fd5b60008061045f611fee565b80925081935050506000826001610476919061267b565b3412156104b8576040517f08c379a00000000000000000000000000000000000000000000000000000000081526004016104af906124ae565b60405180910390fd5b600083346104c69190612716565b9050600115156104d533610cd0565b151514156106945780600b60003373ffffffffffffffffffffffffffffffffffffffff1673ffffffffffffffffffffffffffffffffffffffff168152602001908152602001600020600101600082825461052f9190612591565b92505081905550600b60003373ffffffffffffffffffffffffffffffffffffffff1673ffffffffffffffffffffffffffffffffffffffff1681526020019081526020016000206002016000815480929190610589906129c1565b919050555034600460008973ffffffffffffffffffffffffffffffffffffffff1673ffffffffffffffffffffffffffffffffffffffff16815260200190815260200160002060000160008282546105e09190612625565b92505081905550600460008873ffffffffffffffffffffffffffffffffffffffff1673ffffffffffffffffffffffffffffffffffffffff1681526020019081526020016000206000015491508673ffffffffffffffffffffffffffffffffffffffff163373ffffffffffffffffffffffffffffffffffffffff167fadbbbbc8c9e65e88422d75c3d3cb93f41a5d520a2ca71c815348334de8c49121344260405161068b929190612557565b60405180910390a35b600a60008154809291906106a7906129c1565b9190505550600a54600b60003373ffffffffffffffffffffffffffffffffffffffff1673ffffffffffffffffffffffffffffffffffffffff1681526020019081526020016000206000018190555080600b60003373ffffffffffffffffffffffffffffffffffffffff1673ffffffffffffffffffffffffffffffffffffffff16815260200190815260200160002060010160008282546107479190612591565b9250508190555033600b60003373ffffffffffffffffffffffffffffffffffffffff1673ffffffffffffffffffffffffffffffffffffffff16815260200190815260200160002060030160006101000a81548173ffffffffffffffffffffffffffffffffffffffff021916908373ffffffffffffffffffffffffffffffffffffffff1602179055506001600b60003373ffffffffffffffffffffffffffffffffffffffff1673ffffffffffffffffffffffffffffffffffffffff1681526020019081526020016000206002018190555034600460008973ffffffffffffffffffffffffffffffffffffffff1673ffffffffffffffffffffffffffffffffffffffff16815260200190815260200160002060000160008282546108699190612625565b92505081905550600460008873ffffffffffffffffffffffffffffffffffffffff1673ffffffffffffffffffffffffffffffffffffffff1681526020019081526020016000206000015491508673ffffffffffffffffffffffffffffffffffffffff163373ffffffffffffffffffffffffffffffffffffffff167fadbbbbc8c9e65e88422d75c3d3cb93f41a5d520a2ca71c815348334de8c491213442604051610914929190612557565b60405180910390a3505050506000600c60146101000a81548160ff021916908315150217905550915091565b60008060009054906101000a900473ffffffffffffffffffffffffffffffffffffffff1673ffffffffffffffffffffffffffffffffffffffff16638c0adf62633d15f70160e01b6040518263ffffffff1660e01b81526004016109a391906123fd565b60206040518083038186803b1580156109bb57600080fd5b505afa1580156109cf573d6000803e3d6000fd5b505050506040513d601f19601f820116820180604052508101906109f39190612222565b9050600073ffffffffffffffffffffffffffffffffffffffff168173ffffffffffffffffffffffffffffffffffffffff1614610a6b5780600360006101000a81548173ffffffffffffffffffffffffffffffffffffffff021916908373ffffffffffffffffffffffffffffffffffffffff1602179055505b50565b600a5481565b60008060009054906101000a900473ffffffffffffffffffffffffffffffffffffffff1673ffffffffffffffffffffffffffffffffffffffff16638c0adf62639ed884be60e01b6040518263ffffffff1660e01b8152600401610ad791906123fd565b60206040518083038186803b158015610aef57600080fd5b505afa158015610b03573d6000803e3d6000fd5b505050506040513d601f19601f82011682018060405250810190610b279190612222565b9050600073ffffffffffffffffffffffffffffffffffffffff168173ffffffffffffffffffffffffffffffffffffffff1614610b9f5780600260006101000a81548173ffffffffffffffffffffffffffffffffffffffff021916908373ffffffffffffffffffffffffffffffffffffffff1602179055505b50565b60008060009054906101000a900473ffffffffffffffffffffffffffffffffffffffff1673ffffffffffffffffffffffffffffffffffffffff16638c0adf626321a7982160e01b6040518263ffffffff1660e01b8152600401610c0591906123fd565b60206040518083038186803b158015610c1d57600080fd5b505afa158015610c31573d6000803e3d6000fd5b505050506040513d601f19601f82011682018060405250810190610c559190612222565b9050600073ffffffffffffffffffffffffffffffffffffffff168173ffffffffffffffffffffffffffffffffffffffff1614610ccd5780600160006101000a81548173ffffffffffffffffffffffffffffffffffffffff021916908373ffffffffffffffffffffffffffffffffffffffff1602179055505b50565b600080600b60008473ffffffffffffffffffffffffffffffffffffffff1673ffffffffffffffffffffffffffffffffffffffff168152602001908152602001600020600001541115610d255760019050610d2a565b600090505b919050565b60008054906101000a900473ffffffffffffffffffffffffffffffffffffffff1681565b6000600c60009054906101000a900473ffffffffffffffffffffffffffffffffffffffff1673ffffffffffffffffffffffffffffffffffffffff163373ffffffffffffffffffffffffffffffffffffffff1614610daf57600080fd5b600080600a6000815480929190610dc5906129c1565b9190505550600a54600b60008873ffffffffffffffffffffffffffffffffffffffff1673ffffffffffffffffffffffffffffffffffffffff1681526020019081526020016000206000018190555083600b60008873ffffffffffffffffffffffffffffffffffffffff1673ffffffffffffffffffffffffffffffffffffffff1681526020019081526020016000206001016000828254610e659190612591565b9250508190555085600b60008873ffffffffffffffffffffffffffffffffffffffff1673ffffffffffffffffffffffffffffffffffffffff16815260200190815260200160002060030160006101000a81548173ffffffffffffffffffffffffffffffffffffffff021916908373ffffffffffffffffffffffffffffffffffffffff1602179055506001600b60008873ffffffffffffffffffffffffffffffffffffffff1673ffffffffffffffffffffffffffffffffffffffff1681526020019081526020016000206002016000828254610f409190612625565b9250508190555083600460008773ffffffffffffffffffffffffffffffffffffffff1673ffffffffffffffffffffffffffffffffffffffff1681526020019081526020016000206001016000828254610f999190612625565b925050819055506001925050509392505050565b600b6020528060005260406000206000915090508060000154908060010154908060020154908060030160009054906101000a900473ffffffffffffffffffffffffffffffffffffffff16905084565b600080600c60149054906101000a900460ff161561101a57600080fd5b6001600c60146101000a81548160ff02191690831515021790555034600460008573ffffffffffffffffffffffffffffffffffffffff1673ffffffffffffffffffffffffffffffffffffffff1681526020019081526020016000206000015410156110ba576040517f08c379a00000000000000000000000000000000000000000000000000000000081526004016110b19061248e565b60405180910390fd5b6000806110c5611fee565b915091506000600c83600460008973ffffffffffffffffffffffffffffffffffffffff1673ffffffffffffffffffffffffffffffffffffffff1681526020019081526020016000206001015461111b91906126e5565b600460008973ffffffffffffffffffffffffffffffffffffffff1673ffffffffffffffffffffffffffffffffffffffff168152602001908152602001600020600001546111689190612625565b61117291906126e5565b90508573ffffffffffffffffffffffffffffffffffffffff166108fc829081150290604051600060405180830381858888f193505050501580156111ba573d6000803e3d6000fd5b506000600460008873ffffffffffffffffffffffffffffffffffffffff1673ffffffffffffffffffffffffffffffffffffffff1681526020019081526020016000206000015414156112645780600460008873ffffffffffffffffffffffffffffffffffffffff1673ffffffffffffffffffffffffffffffffffffffff16815260200190815260200160002060010160008282546112589190612887565b925050819055506113d9565b6000600460008873ffffffffffffffffffffffffffffffffffffffff1673ffffffffffffffffffffffffffffffffffffffff16815260200190815260200160002060010154141561130d5780600460008873ffffffffffffffffffffffffffffffffffffffff1673ffffffffffffffffffffffffffffffffffffffff16815260200190815260200160002060000160008282546113019190612887565b925050819055506113d8565b60028161131a91906126e5565b600460008873ffffffffffffffffffffffffffffffffffffffff1673ffffffffffffffffffffffffffffffffffffffff168152602001908152602001600020600001600082825461136b9190612887565b9250508190555060028161137f91906126e5565b600460008873ffffffffffffffffffffffffffffffffffffffff1673ffffffffffffffffffffffffffffffffffffffff16815260200190815260200160002060010160008282546113d09190612887565b925050819055505b5b8573ffffffffffffffffffffffffffffffffffffffff167f9cd516bc314ca50bb8f1f5602d3f202cdcbf17b89da33dd13c3909d5d3c00a328242604051611421929190612557565b60405180910390a28042945094505050506000600c60146101000a81548160ff021916908315150217905550915091565b6000600c60149054906101000a900460ff161561146e57600080fd5b6001600c60146101000a81548160ff021916908315150217905550343373ffffffffffffffffffffffffffffffffffffffff163110156114e3576040517f08c379a00000000000000000000000000000000000000000000000000000000081526004016114da9061246e565b60405180910390fd5b6001341015611527576040517f08c379a000000000000000000000000000000000000000000000000000000000815260040161151e9061244e565b60405180910390fd5b600080611532611fee565b915091506001151561154333610cd0565b151514156117845781346115579190612716565b600b60003373ffffffffffffffffffffffffffffffffffffffff1673ffffffffffffffffffffffffffffffffffffffff16815260200190815260200160002060010160008282546115a89190612591565b92505081905550600b60003373ffffffffffffffffffffffffffffffffffffffff1673ffffffffffffffffffffffffffffffffffffffff1681526020019081526020016000206002016000815480929190611602906129c1565b9190505550600560009054906101000a900473ffffffffffffffffffffffffffffffffffffffff1673ffffffffffffffffffffffffffffffffffffffff166323b872dd3330346040518463ffffffff1660e01b8152600401611666939291906123ab565b602060405180830381600087803b15801561168057600080fd5b505af1158015611694573d6000803e3d6000fd5b505050506040513d601f19601f820116820180604052508101906116b891906121f5565b5034600460008673ffffffffffffffffffffffffffffffffffffffff1673ffffffffffffffffffffffffffffffffffffffff168152602001908152602001600020600101600082825461170b9190612625565b925050819055508373ffffffffffffffffffffffffffffffffffffffff163373ffffffffffffffffffffffffffffffffffffffff167fadbbbbc8c9e65e88422d75c3d3cb93f41a5d520a2ca71c815348334de8c491213442604051611771929190612557565b60405180910390a3600192505050611a8b565b600a6000815480929190611797906129c1565b9190505550600a54600b60003373ffffffffffffffffffffffffffffffffffffffff1673ffffffffffffffffffffffffffffffffffffffff1681526020019081526020016000206000018190555081346117f19190612716565b600b60003373ffffffffffffffffffffffffffffffffffffffff1673ffffffffffffffffffffffffffffffffffffffff16815260200190815260200160002060010160008282546118429190612591565b9250508190555033600b60003373ffffffffffffffffffffffffffffffffffffffff1673ffffffffffffffffffffffffffffffffffffffff16815260200190815260200160002060030160006101000a81548173ffffffffffffffffffffffffffffffffffffffff021916908373ffffffffffffffffffffffffffffffffffffffff1602179055506001600b60003373ffffffffffffffffffffffffffffffffffffffff1673ffffffffffffffffffffffffffffffffffffffff16815260200190815260200160002060020181905550600560009054906101000a900473ffffffffffffffffffffffffffffffffffffffff1673ffffffffffffffffffffffffffffffffffffffff166323b872dd3330346040518463ffffffff1660e01b8152600401611971939291906123ab565b602060405180830381600087803b15801561198b57600080fd5b505af115801561199f573d6000803e3d6000fd5b505050506040513d601f19601f820116820180604052508101906119c391906121f5565b5034600460008673ffffffffffffffffffffffffffffffffffffffff1673ffffffffffffffffffffffffffffffffffffffff1681526020019081526020016000206001016000828254611a169190612625565b925050819055508373ffffffffffffffffffffffffffffffffffffffff163373ffffffffffffffffffffffffffffffffffffffff167fadbbbbc8c9e65e88422d75c3d3cb93f41a5d520a2ca71c815348334de8c491213442604051611a7c929190612557565b60405180910390a36001925050505b6000600c60146101000a81548160ff021916908315150217905550919050565b60046020528060005260406000206000915090508060000154908060010154905082565b600080600c60149054906101000a900460ff1615611aec57600080fd5b6001600c60146101000a81548160ff021916908315150217905550600080611b12611fee565b915091506000600c600460008873ffffffffffffffffffffffffffffffffffffffff1673ffffffffffffffffffffffffffffffffffffffff1681526020019081526020016000206001015484600460008a73ffffffffffffffffffffffffffffffffffffffff1673ffffffffffffffffffffffffffffffffffffffff16815260200190815260200160002060000154611bab919061282d565b611bb59190612625565b611bbf91906126e5565b905080600460008873ffffffffffffffffffffffffffffffffffffffff1673ffffffffffffffffffffffffffffffffffffffff1681526020019081526020016000206001015411611c45576040517f08c379a0000000000000000000000000000000000000000000000000000000008152600401611c3c9061248e565b60405180910390fd5b8573ffffffffffffffffffffffffffffffffffffffff166108fc829081150290604051600060405180830381858888f19350505050158015611c8b573d6000803e3d6000fd5b506000600460008873ffffffffffffffffffffffffffffffffffffffff1673ffffffffffffffffffffffffffffffffffffffff168152602001908152602001600020600001541415611d355780600460008873ffffffffffffffffffffffffffffffffffffffff1673ffffffffffffffffffffffffffffffffffffffff1681526020019081526020016000206001016000828254611d299190612887565b92505081905550611eaa565b6000600460008873ffffffffffffffffffffffffffffffffffffffff1673ffffffffffffffffffffffffffffffffffffffff168152602001908152602001600020600101541415611dde5780600460008873ffffffffffffffffffffffffffffffffffffffff1673ffffffffffffffffffffffffffffffffffffffff1681526020019081526020016000206000016000828254611dd29190612887565b92505081905550611ea9565b600281611deb91906126e5565b600460008873ffffffffffffffffffffffffffffffffffffffff1673ffffffffffffffffffffffffffffffffffffffff1681526020019081526020016000206000016000828254611e3c9190612887565b92505081905550600281611e5091906126e5565b600460008873ffffffffffffffffffffffffffffffffffffffff1673ffffffffffffffffffffffffffffffffffffffff1681526020019081526020016000206001016000828254611ea19190612887565b925050819055505b5b80600460008873ffffffffffffffffffffffffffffffffffffffff1673ffffffffffffffffffffffffffffffffffffffff1681526020019081526020016000206000016000828254611efc9190612887565b925050819055508573ffffffffffffffffffffffffffffffffffffffff167f9cd516bc314ca50bb8f1f5602d3f202cdcbf17b89da33dd13c3909d5d3c00a328242604051611f4b929190612557565b60405180910390a28042945094505050506000600c60146101000a81548160ff021916908315150217905550915091565b600360009054906101000a900473ffffffffffffffffffffffffffffffffffffffff1681565b600160009054906101000a900473ffffffffffffffffffffffffffffffffffffffff1681565b600260009054906101000a900473ffffffffffffffffffffffffffffffffffffffff1681565b600080600260009054906101000a900473ffffffffffffffffffffffffffffffffffffffff1673ffffffffffffffffffffffffffffffffffffffff1663431838346040518163ffffffff1660e01b815260040160806040518083038186803b15801561205957600080fd5b505afa15801561206d573d6000803e3d6000fd5b505050506040513d601f19601f82011682018060405250810190612091919061224f565b90505080925081935050509091565b6000813590506120af81612b37565b92915050565b6000813590506120c481612b4e565b92915050565b6000815190506120d981612b65565b92915050565b6000815190506120ee81612b7c565b92915050565b60008151905061210381612b93565b92915050565b60008151905061211881612baa565b92915050565b60008135905061212d81612bc1565b92915050565b60008151905061214281612bc1565b92915050565b60006020828403121561215e5761215d612a68565b5b600061216c848285016120a0565b91505092915050565b60006020828403121561218b5761218a612a68565b5b6000612199848285016120b5565b91505092915050565b6000806000606084860312156121bb576121ba612a68565b5b60006121c9868287016120a0565b93505060206121da868287016120a0565b92505060406121eb8682870161211e565b9150509250925092565b60006020828403121561220b5761220a612a68565b5b6000612219848285016120ca565b91505092915050565b60006020828403121561223857612237612a68565b5b6000612246848285016120f4565b91505092915050565b6000806000806080858703121561226957612268612a68565b5b600061227787828801612109565b945050602061228887828801612133565b9350506040612299878288016120df565b92505060606122aa87828801612133565b91505092959194509250565b6122bf816128bb565b82525050565b6122ce816128df565b82525050565b6122dd81612967565b82525050565b6122ec81612979565b82525050565b6122fb8161298b565b82525050565b61230a81612933565b82525050565b600061231d601b83612580565b915061232882612a6d565b602082019050919050565b6000612340601e83612580565b915061234b82612a96565b602082019050919050565b6000612363600f83612580565b915061236e82612abf565b602082019050919050565b6000612386602183612580565b915061239182612ae8565b604082019050919050565b6123a58161295d565b82525050565b60006060820190506123c060008301866122b6565b6123cd60208301856122b6565b6123da604083018461239c565b949350505050565b60006020820190506123f760008301846122c5565b92915050565b600060208201905061241260008301846122d4565b92915050565b600060208201905061242d60008301846122e3565b92915050565b600060208201905061244860008301846122f2565b92915050565b6000602082019050818103600083015261246781612310565b9050919050565b6000602082019050818103600083015261248781612333565b9050919050565b600060208201905081810360008301526124a781612356565b9050919050565b600060208201905081810360008301526124c781612379565b9050919050565b60006020820190506124e3600083018461239c565b92915050565b60006040820190506124fe600083018561239c565b61250b6020830184612301565b9392505050565b6000608082019050612527600083018761239c565b6125346020830186612301565b612541604083018561239c565b61254e60608301846122b6565b95945050505050565b600060408201905061256c600083018561239c565b612579602083018461239c565b9392505050565b600082825260208201905092915050565b600061259c82612933565b91506125a783612933565b9250817f7fffffffffffffffffffffffffffffffffffffffffffffffffffffffffffffff038313600083121516156125e2576125e1612a0a565b5b817f800000000000000000000000000000000000000000000000000000000000000003831260008312161561261a57612619612a0a565b5b828201905092915050565b60006126308261295d565b915061263b8361295d565b9250827fffffffffffffffffffffffffffffffffffffffffffffffffffffffffffffffff038211156126705761266f612a0a565b5b828201905092915050565b600061268682612933565b915061269183612933565b9250826126a1576126a0612a39565b5b600160000383147f8000000000000000000000000000000000000000000000000000000000000000831416156126da576126d9612a0a565b5b828205905092915050565b60006126f08261295d565b91506126fb8361295d565b92508261270b5761270a612a39565b5b828204905092915050565b600061272182612933565b915061272c83612933565b9250827f7fffffffffffffffffffffffffffffffffffffffffffffffffffffffffffffff048211600084136000841316161561276b5761276a612a0a565b5b817f800000000000000000000000000000000000000000000000000000000000000005831260008412600084131616156127a8576127a7612a0a565b5b827f800000000000000000000000000000000000000000000000000000000000000005821260008413600084121616156127e5576127e4612a0a565b5b827f7fffffffffffffffffffffffffffffffffffffffffffffffffffffffffffffff058212600084126000841216161561282257612821612a0a565b5b828202905092915050565b60006128388261295d565b91506128438361295d565b9250817fffffffffffffffffffffffffffffffffffffffffffffffffffffffffffffffff048311821515161561287c5761287b612a0a565b5b828202905092915050565b60006128928261295d565b915061289d8361295d565b9250828210156128b0576128af612a0a565b5b828203905092915050565b60006128c68261293d565b9050919050565b60006128d88261293d565b9050919050565b60008115159050919050565b6000819050919050565b60007fffffffff0000000000000000000000000000000000000000000000000000000082169050919050565b600061292c826128bb565b9050919050565b6000819050919050565b600073ffffffffffffffffffffffffffffffffffffffff82169050919050565b6000819050919050565b6000612972826128f5565b9050919050565b60006129848261299d565b9050919050565b60006129968261299d565b9050919050565b60006129a8826129af565b9050919050565b60006129ba8261293d565b9050919050565b60006129cc8261295d565b91507fffffffffffffffffffffffffffffffffffffffffffffffffffffffffffffffff8214156129ff576129fe612a0a565b5b600182019050919050565b7f4e487b7100000000000000000000000000000000000000000000000000000000600052601160045260246000fd5b7f4e487b7100000000000000000000000000000000000000000000000000000000600052601260045260246000fd5b600080fd5b7f5468616e6b7320746f206465706f736974206d6f726520637573640000000000600082015250565b7f796f75722062616c616e6365206973206e6f742073756666696369656e740000600082015250565b7f6e6f742073756666696369656e74200000000000000000000000000000000000600082015250565b7f706c656173652073656e642063656c6f20616d6f756e74203e3d20323020555360008201527f4400000000000000000000000000000000000000000000000000000000000000602082015250565b612b40816128bb565b8114612b4b57600080fd5b50565b612b57816128cd565b8114612b6257600080fd5b50565b612b6e816128df565b8114612b7957600080fd5b50565b612b85816128eb565b8114612b9057600080fd5b50565b612b9c81612921565b8114612ba757600080fd5b50565b612bb381612933565b8114612bbe57600080fd5b50565b612bca8161295d565b8114612bd557600080fd5b5056fea2646970667358221220657d2f254c403715565645a0fd410c277c580eca950bf6aa58e1744848e3520c64736f6c63430008070033",
					"opcodes": "PUSH1 0x80 PUSH1 0x40 MSTORE PUSH1 0x0 PUSH1 0xA SSTORE CALLVALUE DUP1 ISZERO PUSH3 0x16 JUMPI PUSH1 0x0 DUP1 REVERT JUMPDEST POP CALLER PUSH1 0xC PUSH1 0x0 PUSH2 0x100 EXP DUP2 SLOAD DUP2 PUSH20 0xFFFFFFFFFFFFFFFFFFFFFFFFFFFFFFFFFFFFFFFF MUL NOT AND SWAP1 DUP4 PUSH20 0xFFFFFFFFFFFFFFFFFFFFFFFFFFFFFFFFFFFFFFFF AND MUL OR SWAP1 SSTORE POP PUSH20 0x6F8A7E2BBC1EDB8782145CD1089251F6E2C738AE PUSH1 0x0 DUP1 PUSH2 0x100 EXP DUP2 SLOAD DUP2 PUSH20 0xFFFFFFFFFFFFFFFFFFFFFFFFFFFFFFFFFFFFFFFF MUL NOT AND SWAP1 DUP4 PUSH20 0xFFFFFFFFFFFFFFFFFFFFFFFFFFFFFFFFFFFFFFFF AND MUL OR SWAP1 SSTORE POP PUSH3 0xBC PUSH3 0x117 PUSH1 0x20 SHL PUSH1 0x20 SHR JUMP JUMPDEST PUSH20 0x874069FA1EB16D44D622F2E0CA25EEA172369BC1 PUSH1 0x5 PUSH1 0x0 PUSH2 0x100 EXP DUP2 SLOAD DUP2 PUSH20 0xFFFFFFFFFFFFFFFFFFFFFFFFFFFFFFFFFFFFFFFF MUL NOT AND SWAP1 DUP4 PUSH20 0xFFFFFFFFFFFFFFFFFFFFFFFFFFFFFFFFFFFFFFFF AND MUL OR SWAP1 SSTORE POP PUSH3 0x36A JUMP JUMPDEST PUSH1 0x0 DUP1 PUSH1 0x0 SWAP1 SLOAD SWAP1 PUSH2 0x100 EXP SWAP1 DIV PUSH20 0xFFFFFFFFFFFFFFFFFFFFFFFFFFFFFFFFFFFFFFFF AND PUSH20 0xFFFFFFFFFFFFFFFFFFFFFFFFFFFFFFFFFFFFFFFF AND PUSH4 0x8C0ADF62 PUSH4 0x9ED884BE PUSH1 0xE0 SHL PUSH1 0x40 MLOAD DUP3 PUSH4 0xFFFFFFFF AND PUSH1 0xE0 SHL DUP2 MSTORE PUSH1 0x4 ADD PUSH3 0x17C SWAP2 SWAP1 PUSH3 0x2A6 JUMP JUMPDEST PUSH1 0x20 PUSH1 0x40 MLOAD DUP1 DUP4 SUB DUP2 DUP7 DUP1 EXTCODESIZE ISZERO DUP1 ISZERO PUSH3 0x195 JUMPI PUSH1 0x0 DUP1 REVERT JUMPDEST POP GAS STATICCALL ISZERO DUP1 ISZERO PUSH3 0x1AA JUMPI RETURNDATASIZE PUSH1 0x0 DUP1 RETURNDATACOPY RETURNDATASIZE PUSH1 0x0 REVERT JUMPDEST POP POP POP POP PUSH1 0x40 MLOAD RETURNDATASIZE PUSH1 0x1F NOT PUSH1 0x1F DUP3 ADD AND DUP3 ADD DUP1 PUSH1 0x40 MSTORE POP DUP2 ADD SWAP1 PUSH3 0x1D0 SWAP2 SWAP1 PUSH3 0x263 JUMP JUMPDEST SWAP1 POP PUSH1 0x0 PUSH20 0xFFFFFFFFFFFFFFFFFFFFFFFFFFFFFFFFFFFFFFFF AND DUP2 PUSH20 0xFFFFFFFFFFFFFFFFFFFFFFFFFFFFFFFFFFFFFFFF AND EQ PUSH3 0x249 JUMPI DUP1 PUSH1 0x2 PUSH1 0x0 PUSH2 0x100 EXP DUP2 SLOAD DUP2 PUSH20 0xFFFFFFFFFFFFFFFFFFFFFFFFFFFFFFFFFFFFFFFF MUL NOT AND SWAP1 DUP4 PUSH20 0xFFFFFFFFFFFFFFFFFFFFFFFFFFFFFFFFFFFFFFFF AND MUL OR SWAP1 SSTORE POP JUMPDEST POP JUMP JUMPDEST PUSH1 0x0 DUP2 MLOAD SWAP1 POP PUSH3 0x25D DUP2 PUSH3 0x350 JUMP JUMPDEST SWAP3 SWAP2 POP POP JUMP JUMPDEST PUSH1 0x0 PUSH1 0x20 DUP3 DUP5 SUB SLT ISZERO PUSH3 0x27C JUMPI PUSH3 0x27B PUSH3 0x34B JUMP JUMPDEST JUMPDEST PUSH1 0x0 PUSH3 0x28C DUP5 DUP3 DUP6 ADD PUSH3 0x24C JUMP JUMPDEST SWAP2 POP POP SWAP3 SWAP2 POP POP JUMP JUMPDEST PUSH3 0x2A0 DUP2 PUSH3 0x337 JUMP JUMPDEST DUP3 MSTORE POP POP JUMP JUMPDEST PUSH1 0x0 PUSH1 0x20 DUP3 ADD SWAP1 POP PUSH3 0x2BD PUSH1 0x0 DUP4 ADD DUP5 PUSH3 0x295 JUMP JUMPDEST SWAP3 SWAP2 POP POP JUMP JUMPDEST PUSH1 0x0 PUSH3 0x2D0 DUP3 PUSH3 0x317 JUMP JUMPDEST SWAP1 POP SWAP2 SWAP1 POP JUMP JUMPDEST PUSH1 0x0 PUSH32 0xFFFFFFFF00000000000000000000000000000000000000000000000000000000 DUP3 AND SWAP1 POP SWAP2 SWAP1 POP JUMP JUMPDEST PUSH1 0x0 PUSH3 0x310 DUP3 PUSH3 0x2C3 JUMP JUMPDEST SWAP1 POP SWAP2 SWAP1 POP JUMP JUMPDEST PUSH1 0x0 PUSH20 0xFFFFFFFFFFFFFFFFFFFFFFFFFFFFFFFFFFFFFFFF DUP3 AND SWAP1 POP SWAP2 SWAP1 POP JUMP JUMPDEST PUSH1 0x0 PUSH3 0x344 DUP3 PUSH3 0x2D7 JUMP JUMPDEST SWAP1 POP SWAP2 SWAP1 POP JUMP JUMPDEST PUSH1 0x0 DUP1 REVERT JUMPDEST PUSH3 0x35B DUP2 PUSH3 0x303 JUMP JUMPDEST DUP2 EQ PUSH3 0x367 JUMPI PUSH1 0x0 DUP1 REVERT JUMPDEST POP JUMP JUMPDEST PUSH2 0x2C0E DUP1 PUSH3 0x37A PUSH1 0x0 CODECOPY PUSH1 0x0 RETURN INVALID PUSH1 0x80 PUSH1 0x40 MSTORE PUSH1 0x4 CALLDATASIZE LT PUSH2 0xF3 JUMPI PUSH1 0x0 CALLDATALOAD PUSH1 0xE0 SHR DUP1 PUSH4 0x80AD10DF GT PUSH2 0x8A JUMPI DUP1 PUSH4 0xB1DDF386 GT PUSH2 0x59 JUMPI DUP1 PUSH4 0xB1DDF386 EQ PUSH2 0x310 JUMPI DUP1 PUSH4 0xB447B0A5 EQ PUSH2 0x341 JUMPI DUP1 PUSH4 0xC8525F81 EQ PUSH2 0x36C JUMPI DUP1 PUSH4 0xDF3D4E32 EQ PUSH2 0x397 JUMPI PUSH2 0xF3 JUMP JUMPDEST DUP1 PUSH4 0x80AD10DF EQ PUSH2 0x231 JUMPI DUP1 PUSH4 0x893C4A84 EQ PUSH2 0x271 JUMPI DUP1 PUSH4 0x91CFA8C2 EQ PUSH2 0x2A2 JUMPI DUP1 PUSH4 0xAEA5DA5B EQ PUSH2 0x2D2 JUMPI PUSH2 0xF3 JUMP JUMPDEST DUP1 PUSH4 0x35178E87 GT PUSH2 0xC6 JUMPI DUP1 PUSH4 0x35178E87 EQ PUSH2 0x182 JUMPI DUP1 PUSH4 0x43D37940 EQ PUSH2 0x199 JUMPI DUP1 PUSH4 0x4FC87F24 EQ PUSH2 0x1D6 JUMPI DUP1 PUSH4 0x7F28EE34 EQ PUSH2 0x201 JUMPI PUSH2 0xF3 JUMP JUMPDEST DUP1 PUSH4 0x9A61767 EQ PUSH2 0xF8 JUMPI DUP1 PUSH4 0xFD19C15 EQ PUSH2 0x129 JUMPI DUP1 PUSH4 0x2986C0E5 EQ PUSH2 0x140 JUMPI DUP1 PUSH4 0x32EB658C EQ PUSH2 0x16B JUMPI JUMPDEST PUSH1 0x0 DUP1 REVERT JUMPDEST PUSH2 0x112 PUSH1 0x4 DUP1 CALLDATASIZE SUB DUP2 ADD SWAP1 PUSH2 0x10D SWAP2 SWAP1 PUSH2 0x2175 JUMP JUMPDEST PUSH2 0x3C2 JUMP JUMPDEST PUSH1 0x40 MLOAD PUSH2 0x120 SWAP3 SWAP2 SWAP1 PUSH2 0x24E9 JUMP JUMPDEST PUSH1 0x40 MLOAD DUP1 SWAP2 SUB SWAP1 RETURN JUMPDEST CALLVALUE DUP1 ISZERO PUSH2 0x135 JUMPI PUSH1 0x0 DUP1 REVERT JUMPDEST POP PUSH2 0x13E PUSH2 0x940 JUMP JUMPDEST STOP JUMPDEST CALLVALUE DUP1 ISZERO PUSH2 0x14C JUMPI PUSH1 0x0 DUP1 REVERT JUMPDEST POP PUSH2 0x155 PUSH2 0xA6E JUMP JUMPDEST PUSH1 0x40 MLOAD PUSH2 0x162 SWAP2 SWAP1 PUSH2 0x24CE JUMP JUMPDEST PUSH1 0x40 MLOAD DUP1 SWAP2 SUB SWAP1 RETURN JUMPDEST CALLVALUE DUP1 ISZERO PUSH2 0x177 JUMPI PUSH1 0x0 DUP1 REVERT JUMPDEST POP PUSH2 0x180 PUSH2 0xA74 JUMP JUMPDEST STOP JUMPDEST CALLVALUE DUP1 ISZERO PUSH2 0x18E JUMPI PUSH1 0x0 DUP1 REVERT JUMPDEST POP PUSH2 0x197 PUSH2 0xBA2 JUMP JUMPDEST STOP JUMPDEST CALLVALUE DUP1 ISZERO PUSH2 0x1A5 JUMPI PUSH1 0x0 DUP1 REVERT JUMPDEST POP PUSH2 0x1C0 PUSH1 0x4 DUP1 CALLDATASIZE SUB DUP2 ADD SWAP1 PUSH2 0x1BB SWAP2 SWAP1 PUSH2 0x2148 JUMP JUMPDEST PUSH2 0xCD0 JUMP JUMPDEST PUSH1 0x40 MLOAD PUSH2 0x1CD SWAP2 SWAP1 PUSH2 0x23E2 JUMP JUMPDEST PUSH1 0x40 MLOAD DUP1 SWAP2 SUB SWAP1 RETURN JUMPDEST CALLVALUE DUP1 ISZERO PUSH2 0x1E2 JUMPI PUSH1 0x0 DUP1 REVERT JUMPDEST POP PUSH2 0x1EB PUSH2 0xD2F JUMP JUMPDEST PUSH1 0x40 MLOAD PUSH2 0x1F8 SWAP2 SWAP1 PUSH2 0x2433 JUMP JUMPDEST PUSH1 0x40 MLOAD DUP1 SWAP2 SUB SWAP1 RETURN JUMPDEST PUSH2 0x21B PUSH1 0x4 DUP1 CALLDATASIZE SUB DUP2 ADD SWAP1 PUSH2 0x216 SWAP2 SWAP1 PUSH2 0x21A2 JUMP JUMPDEST PUSH2 0xD53 JUMP JUMPDEST PUSH1 0x40 MLOAD PUSH2 0x228 SWAP2 SWAP1 PUSH2 0x23E2 JUMP JUMPDEST PUSH1 0x40 MLOAD DUP1 SWAP2 SUB SWAP1 RETURN JUMPDEST CALLVALUE DUP1 ISZERO PUSH2 0x23D JUMPI PUSH1 0x0 DUP1 REVERT JUMPDEST POP PUSH2 0x258 PUSH1 0x4 DUP1 CALLDATASIZE SUB DUP2 ADD SWAP1 PUSH2 0x253 SWAP2 SWAP1 PUSH2 0x2148 JUMP JUMPDEST PUSH2 0xFAD JUMP JUMPDEST PUSH1 0x40 MLOAD PUSH2 0x268 SWAP5 SWAP4 SWAP3 SWAP2 SWAP1 PUSH2 0x2512 JUMP JUMPDEST PUSH1 0x40 MLOAD DUP1 SWAP2 SUB SWAP1 RETURN JUMPDEST PUSH2 0x28B PUSH1 0x4 DUP1 CALLDATASIZE SUB DUP2 ADD SWAP1 PUSH2 0x286 SWAP2 SWAP1 PUSH2 0x2175 JUMP JUMPDEST PUSH2 0xFFD JUMP JUMPDEST PUSH1 0x40 MLOAD PUSH2 0x299 SWAP3 SWAP2 SWAP1 PUSH2 0x2557 JUMP JUMPDEST PUSH1 0x40 MLOAD DUP1 SWAP2 SUB SWAP1 RETURN JUMPDEST PUSH2 0x2BC PUSH1 0x4 DUP1 CALLDATASIZE SUB DUP2 ADD SWAP1 PUSH2 0x2B7 SWAP2 SWAP1 PUSH2 0x2175 JUMP JUMPDEST PUSH2 0x1452 JUMP JUMPDEST PUSH1 0x40 MLOAD PUSH2 0x2C9 SWAP2 SWAP1 PUSH2 0x23E2 JUMP JUMPDEST PUSH1 0x40 MLOAD DUP1 SWAP2 SUB SWAP1 RETURN JUMPDEST CALLVALUE DUP1 ISZERO PUSH2 0x2DE JUMPI PUSH1 0x0 DUP1 REVERT JUMPDEST POP PUSH2 0x2F9 PUSH1 0x4 DUP1 CALLDATASIZE SUB DUP2 ADD SWAP1 PUSH2 0x2F4 SWAP2 SWAP1 PUSH2 0x2148 JUMP JUMPDEST PUSH2 0x1AAB JUMP JUMPDEST PUSH1 0x40 MLOAD PUSH2 0x307 SWAP3 SWAP2 SWAP1 PUSH2 0x2557 JUMP JUMPDEST PUSH1 0x40 MLOAD DUP1 SWAP2 SUB SWAP1 RETURN JUMPDEST PUSH2 0x32A PUSH1 0x4 DUP1 CALLDATASIZE SUB DUP2 ADD SWAP1 PUSH2 0x325 SWAP2 SWAP1 PUSH2 0x2175 JUMP JUMPDEST PUSH2 0x1ACF JUMP JUMPDEST PUSH1 0x40 MLOAD PUSH2 0x338 SWAP3 SWAP2 SWAP1 PUSH2 0x2557 JUMP JUMPDEST PUSH1 0x40 MLOAD DUP1 SWAP2 SUB SWAP1 RETURN JUMPDEST CALLVALUE DUP1 ISZERO PUSH2 0x34D JUMPI PUSH1 0x0 DUP1 REVERT JUMPDEST POP PUSH2 0x356 PUSH2 0x1F7C JUMP JUMPDEST PUSH1 0x40 MLOAD PUSH2 0x363 SWAP2 SWAP1 PUSH2 0x2418 JUMP JUMPDEST PUSH1 0x40 MLOAD DUP1 SWAP2 SUB SWAP1 RETURN JUMPDEST CALLVALUE DUP1 ISZERO PUSH2 0x378 JUMPI PUSH1 0x0 DUP1 REVERT JUMPDEST POP PUSH2 0x381 PUSH2 0x1FA2 JUMP JUMPDEST PUSH1 0x40 MLOAD PUSH2 0x38E SWAP2 SWAP1 PUSH2 0x2418 JUMP JUMPDEST PUSH1 0x40 MLOAD DUP1 SWAP2 SUB SWAP1 RETURN JUMPDEST CALLVALUE DUP1 ISZERO PUSH2 0x3A3 JUMPI PUSH1 0x0 DUP1 REVERT JUMPDEST POP PUSH2 0x3AC PUSH2 0x1FC8 JUMP JUMPDEST PUSH1 0x40 MLOAD PUSH2 0x3B9 SWAP2 SWAP1 PUSH2 0x2418 JUMP JUMPDEST PUSH1 0x40 MLOAD DUP1 SWAP2 SUB SWAP1 RETURN JUMPDEST PUSH1 0x0 DUP1 PUSH1 0xC PUSH1 0x14 SWAP1 SLOAD SWAP1 PUSH2 0x100 EXP SWAP1 DIV PUSH1 0xFF AND ISZERO PUSH2 0x3DF JUMPI PUSH1 0x0 DUP1 REVERT JUMPDEST PUSH1 0x1 PUSH1 0xC PUSH1 0x14 PUSH2 0x100 EXP DUP2 SLOAD DUP2 PUSH1 0xFF MUL NOT AND SWAP1 DUP4 ISZERO ISZERO MUL OR SWAP1 SSTORE POP CALLVALUE CALLER PUSH20 0xFFFFFFFFFFFFFFFFFFFFFFFFFFFFFFFFFFFFFFFF AND BALANCE LT ISZERO PUSH2 0x454 JUMPI PUSH1 0x40 MLOAD PUSH32 0x8C379A000000000000000000000000000000000000000000000000000000000 DUP2 MSTORE PUSH1 0x4 ADD PUSH2 0x44B SWAP1 PUSH2 0x246E JUMP JUMPDEST PUSH1 0x40 MLOAD DUP1 SWAP2 SUB SWAP1 REVERT JUMPDEST PUSH1 0x0 DUP1 PUSH2 0x45F PUSH2 0x1FEE JUMP JUMPDEST DUP1 SWAP3 POP DUP2 SWAP4 POP POP POP PUSH1 0x0 DUP3 PUSH1 0x1 PUSH2 0x476 SWAP2 SWAP1 PUSH2 0x267B JUMP JUMPDEST CALLVALUE SLT ISZERO PUSH2 0x4B8 JUMPI PUSH1 0x40 MLOAD PUSH32 0x8C379A000000000000000000000000000000000000000000000000000000000 DUP2 MSTORE PUSH1 0x4 ADD PUSH2 0x4AF SWAP1 PUSH2 0x24AE JUMP JUMPDEST PUSH1 0x40 MLOAD DUP1 SWAP2 SUB SWAP1 REVERT JUMPDEST PUSH1 0x0 DUP4 CALLVALUE PUSH2 0x4C6 SWAP2 SWAP1 PUSH2 0x2716 JUMP JUMPDEST SWAP1 POP PUSH1 0x1 ISZERO ISZERO PUSH2 0x4D5 CALLER PUSH2 0xCD0 JUMP JUMPDEST ISZERO ISZERO EQ ISZERO PUSH2 0x694 JUMPI DUP1 PUSH1 0xB PUSH1 0x0 CALLER PUSH20 0xFFFFFFFFFFFFFFFFFFFFFFFFFFFFFFFFFFFFFFFF AND PUSH20 0xFFFFFFFFFFFFFFFFFFFFFFFFFFFFFFFFFFFFFFFF AND DUP2 MSTORE PUSH1 0x20 ADD SWAP1 DUP2 MSTORE PUSH1 0x20 ADD PUSH1 0x0 KECCAK256 PUSH1 0x1 ADD PUSH1 0x0 DUP3 DUP3 SLOAD PUSH2 0x52F SWAP2 SWAP1 PUSH2 0x2591 JUMP JUMPDEST SWAP3 POP POP DUP2 SWAP1 SSTORE POP PUSH1 0xB PUSH1 0x0 CALLER PUSH20 0xFFFFFFFFFFFFFFFFFFFFFFFFFFFFFFFFFFFFFFFF AND PUSH20 0xFFFFFFFFFFFFFFFFFFFFFFFFFFFFFFFFFFFFFFFF AND DUP2 MSTORE PUSH1 0x20 ADD SWAP1 DUP2 MSTORE PUSH1 0x20 ADD PUSH1 0x0 KECCAK256 PUSH1 0x2 ADD PUSH1 0x0 DUP2 SLOAD DUP1 SWAP3 SWAP2 SWAP1 PUSH2 0x589 SWAP1 PUSH2 0x29C1 JUMP JUMPDEST SWAP2 SWAP1 POP SSTORE POP CALLVALUE PUSH1 0x4 PUSH1 0x0 DUP10 PUSH20 0xFFFFFFFFFFFFFFFFFFFFFFFFFFFFFFFFFFFFFFFF AND PUSH20 0xFFFFFFFFFFFFFFFFFFFFFFFFFFFFFFFFFFFFFFFF AND DUP2 MSTORE PUSH1 0x20 ADD SWAP1 DUP2 MSTORE PUSH1 0x20 ADD PUSH1 0x0 KECCAK256 PUSH1 0x0 ADD PUSH1 0x0 DUP3 DUP3 SLOAD PUSH2 0x5E0 SWAP2 SWAP1 PUSH2 0x2625 JUMP JUMPDEST SWAP3 POP POP DUP2 SWAP1 SSTORE POP PUSH1 0x4 PUSH1 0x0 DUP9 PUSH20 0xFFFFFFFFFFFFFFFFFFFFFFFFFFFFFFFFFFFFFFFF AND PUSH20 0xFFFFFFFFFFFFFFFFFFFFFFFFFFFFFFFFFFFFFFFF AND DUP2 MSTORE PUSH1 0x20 ADD SWAP1 DUP2 MSTORE PUSH1 0x20 ADD PUSH1 0x0 KECCAK256 PUSH1 0x0 ADD SLOAD SWAP2 POP DUP7 PUSH20 0xFFFFFFFFFFFFFFFFFFFFFFFFFFFFFFFFFFFFFFFF AND CALLER PUSH20 0xFFFFFFFFFFFFFFFFFFFFFFFFFFFFFFFFFFFFFFFF AND PUSH32 0xADBBBBC8C9E65E88422D75C3D3CB93F41A5D520A2CA71C815348334DE8C49121 CALLVALUE TIMESTAMP PUSH1 0x40 MLOAD PUSH2 0x68B SWAP3 SWAP2 SWAP1 PUSH2 0x2557 JUMP JUMPDEST PUSH1 0x40 MLOAD DUP1 SWAP2 SUB SWAP1 LOG3 JUMPDEST PUSH1 0xA PUSH1 0x0 DUP2 SLOAD DUP1 SWAP3 SWAP2 SWAP1 PUSH2 0x6A7 SWAP1 PUSH2 0x29C1 JUMP JUMPDEST SWAP2 SWAP1 POP SSTORE POP PUSH1 0xA SLOAD PUSH1 0xB PUSH1 0x0 CALLER PUSH20 0xFFFFFFFFFFFFFFFFFFFFFFFFFFFFFFFFFFFFFFFF AND PUSH20 0xFFFFFFFFFFFFFFFFFFFFFFFFFFFFFFFFFFFFFFFF AND DUP2 MSTORE PUSH1 0x20 ADD SWAP1 DUP2 MSTORE PUSH1 0x20 ADD PUSH1 0x0 KECCAK256 PUSH1 0x0 ADD DUP2 SWAP1 SSTORE POP DUP1 PUSH1 0xB PUSH1 0x0 CALLER PUSH20 0xFFFFFFFFFFFFFFFFFFFFFFFFFFFFFFFFFFFFFFFF AND PUSH20 0xFFFFFFFFFFFFFFFFFFFFFFFFFFFFFFFFFFFFFFFF AND DUP2 MSTORE PUSH1 0x20 ADD SWAP1 DUP2 MSTORE PUSH1 0x20 ADD PUSH1 0x0 KECCAK256 PUSH1 0x1 ADD PUSH1 0x0 DUP3 DUP3 SLOAD PUSH2 0x747 SWAP2 SWAP1 PUSH2 0x2591 JUMP JUMPDEST SWAP3 POP POP DUP2 SWAP1 SSTORE POP CALLER PUSH1 0xB PUSH1 0x0 CALLER PUSH20 0xFFFFFFFFFFFFFFFFFFFFFFFFFFFFFFFFFFFFFFFF AND PUSH20 0xFFFFFFFFFFFFFFFFFFFFFFFFFFFFFFFFFFFFFFFF AND DUP2 MSTORE PUSH1 0x20 ADD SWAP1 DUP2 MSTORE PUSH1 0x20 ADD PUSH1 0x0 KECCAK256 PUSH1 0x3 ADD PUSH1 0x0 PUSH2 0x100 EXP DUP2 SLOAD DUP2 PUSH20 0xFFFFFFFFFFFFFFFFFFFFFFFFFFFFFFFFFFFFFFFF MUL NOT AND SWAP1 DUP4 PUSH20 0xFFFFFFFFFFFFFFFFFFFFFFFFFFFFFFFFFFFFFFFF AND MUL OR SWAP1 SSTORE POP PUSH1 0x1 PUSH1 0xB PUSH1 0x0 CALLER PUSH20 0xFFFFFFFFFFFFFFFFFFFFFFFFFFFFFFFFFFFFFFFF AND PUSH20 0xFFFFFFFFFFFFFFFFFFFFFFFFFFFFFFFFFFFFFFFF AND DUP2 MSTORE PUSH1 0x20 ADD SWAP1 DUP2 MSTORE PUSH1 0x20 ADD PUSH1 0x0 KECCAK256 PUSH1 0x2 ADD DUP2 SWAP1 SSTORE POP CALLVALUE PUSH1 0x4 PUSH1 0x0 DUP10 PUSH20 0xFFFFFFFFFFFFFFFFFFFFFFFFFFFFFFFFFFFFFFFF AND PUSH20 0xFFFFFFFFFFFFFFFFFFFFFFFFFFFFFFFFFFFFFFFF AND DUP2 MSTORE PUSH1 0x20 ADD SWAP1 DUP2 MSTORE PUSH1 0x20 ADD PUSH1 0x0 KECCAK256 PUSH1 0x0 ADD PUSH1 0x0 DUP3 DUP3 SLOAD PUSH2 0x869 SWAP2 SWAP1 PUSH2 0x2625 JUMP JUMPDEST SWAP3 POP POP DUP2 SWAP1 SSTORE POP PUSH1 0x4 PUSH1 0x0 DUP9 PUSH20 0xFFFFFFFFFFFFFFFFFFFFFFFFFFFFFFFFFFFFFFFF AND PUSH20 0xFFFFFFFFFFFFFFFFFFFFFFFFFFFFFFFFFFFFFFFF AND DUP2 MSTORE PUSH1 0x20 ADD SWAP1 DUP2 MSTORE PUSH1 0x20 ADD PUSH1 0x0 KECCAK256 PUSH1 0x0 ADD SLOAD SWAP2 POP DUP7 PUSH20 0xFFFFFFFFFFFFFFFFFFFFFFFFFFFFFFFFFFFFFFFF AND CALLER PUSH20 0xFFFFFFFFFFFFFFFFFFFFFFFFFFFFFFFFFFFFFFFF AND PUSH32 0xADBBBBC8C9E65E88422D75C3D3CB93F41A5D520A2CA71C815348334DE8C49121 CALLVALUE TIMESTAMP PUSH1 0x40 MLOAD PUSH2 0x914 SWAP3 SWAP2 SWAP1 PUSH2 0x2557 JUMP JUMPDEST PUSH1 0x40 MLOAD DUP1 SWAP2 SUB SWAP1 LOG3 POP POP POP POP PUSH1 0x0 PUSH1 0xC PUSH1 0x14 PUSH2 0x100 EXP DUP2 SLOAD DUP2 PUSH1 0xFF MUL NOT AND SWAP1 DUP4 ISZERO ISZERO MUL OR SWAP1 SSTORE POP SWAP2 POP SWAP2 JUMP JUMPDEST PUSH1 0x0 DUP1 PUSH1 0x0 SWAP1 SLOAD SWAP1 PUSH2 0x100 EXP SWAP1 DIV PUSH20 0xFFFFFFFFFFFFFFFFFFFFFFFFFFFFFFFFFFFFFFFF AND PUSH20 0xFFFFFFFFFFFFFFFFFFFFFFFFFFFFFFFFFFFFFFFF AND PUSH4 0x8C0ADF62 PUSH4 0x3D15F701 PUSH1 0xE0 SHL PUSH1 0x40 MLOAD DUP3 PUSH4 0xFFFFFFFF AND PUSH1 0xE0 SHL DUP2 MSTORE PUSH1 0x4 ADD PUSH2 0x9A3 SWAP2 SWAP1 PUSH2 0x23FD JUMP JUMPDEST PUSH1 0x20 PUSH1 0x40 MLOAD DUP1 DUP4 SUB DUP2 DUP7 DUP1 EXTCODESIZE ISZERO DUP1 ISZERO PUSH2 0x9BB JUMPI PUSH1 0x0 DUP1 REVERT JUMPDEST POP GAS STATICCALL ISZERO DUP1 ISZERO PUSH2 0x9CF JUMPI RETURNDATASIZE PUSH1 0x0 DUP1 RETURNDATACOPY RETURNDATASIZE PUSH1 0x0 REVERT JUMPDEST POP POP POP POP PUSH1 0x40 MLOAD RETURNDATASIZE PUSH1 0x1F NOT PUSH1 0x1F DUP3 ADD AND DUP3 ADD DUP1 PUSH1 0x40 MSTORE POP DUP2 ADD SWAP1 PUSH2 0x9F3 SWAP2 SWAP1 PUSH2 0x2222 JUMP JUMPDEST SWAP1 POP PUSH1 0x0 PUSH20 0xFFFFFFFFFFFFFFFFFFFFFFFFFFFFFFFFFFFFFFFF AND DUP2 PUSH20 0xFFFFFFFFFFFFFFFFFFFFFFFFFFFFFFFFFFFFFFFF AND EQ PUSH2 0xA6B JUMPI DUP1 PUSH1 0x3 PUSH1 0x0 PUSH2 0x100 EXP DUP2 SLOAD DUP2 PUSH20 0xFFFFFFFFFFFFFFFFFFFFFFFFFFFFFFFFFFFFFFFF MUL NOT AND SWAP1 DUP4 PUSH20 0xFFFFFFFFFFFFFFFFFFFFFFFFFFFFFFFFFFFFFFFF AND MUL OR SWAP1 SSTORE POP JUMPDEST POP JUMP JUMPDEST PUSH1 0xA SLOAD DUP2 JUMP JUMPDEST PUSH1 0x0 DUP1 PUSH1 0x0 SWAP1 SLOAD SWAP1 PUSH2 0x100 EXP SWAP1 DIV PUSH20 0xFFFFFFFFFFFFFFFFFFFFFFFFFFFFFFFFFFFFFFFF AND PUSH20 0xFFFFFFFFFFFFFFFFFFFFFFFFFFFFFFFFFFFFFFFF AND PUSH4 0x8C0ADF62 PUSH4 0x9ED884BE PUSH1 0xE0 SHL PUSH1 0x40 MLOAD DUP3 PUSH4 0xFFFFFFFF AND PUSH1 0xE0 SHL DUP2 MSTORE PUSH1 0x4 ADD PUSH2 0xAD7 SWAP2 SWAP1 PUSH2 0x23FD JUMP JUMPDEST PUSH1 0x20 PUSH1 0x40 MLOAD DUP1 DUP4 SUB DUP2 DUP7 DUP1 EXTCODESIZE ISZERO DUP1 ISZERO PUSH2 0xAEF JUMPI PUSH1 0x0 DUP1 REVERT JUMPDEST POP GAS STATICCALL ISZERO DUP1 ISZERO PUSH2 0xB03 JUMPI RETURNDATASIZE PUSH1 0x0 DUP1 RETURNDATACOPY RETURNDATASIZE PUSH1 0x0 REVERT JUMPDEST POP POP POP POP PUSH1 0x40 MLOAD RETURNDATASIZE PUSH1 0x1F NOT PUSH1 0x1F DUP3 ADD AND DUP3 ADD DUP1 PUSH1 0x40 MSTORE POP DUP2 ADD SWAP1 PUSH2 0xB27 SWAP2 SWAP1 PUSH2 0x2222 JUMP JUMPDEST SWAP1 POP PUSH1 0x0 PUSH20 0xFFFFFFFFFFFFFFFFFFFFFFFFFFFFFFFFFFFFFFFF AND DUP2 PUSH20 0xFFFFFFFFFFFFFFFFFFFFFFFFFFFFFFFFFFFFFFFF AND EQ PUSH2 0xB9F JUMPI DUP1 PUSH1 0x2 PUSH1 0x0 PUSH2 0x100 EXP DUP2 SLOAD DUP2 PUSH20 0xFFFFFFFFFFFFFFFFFFFFFFFFFFFFFFFFFFFFFFFF MUL NOT AND SWAP1 DUP4 PUSH20 0xFFFFFFFFFFFFFFFFFFFFFFFFFFFFFFFFFFFFFFFF AND MUL OR SWAP1 SSTORE POP JUMPDEST POP JUMP JUMPDEST PUSH1 0x0 DUP1 PUSH1 0x0 SWAP1 SLOAD SWAP1 PUSH2 0x100 EXP SWAP1 DIV PUSH20 0xFFFFFFFFFFFFFFFFFFFFFFFFFFFFFFFFFFFFFFFF AND PUSH20 0xFFFFFFFFFFFFFFFFFFFFFFFFFFFFFFFFFFFFFFFF AND PUSH4 0x8C0ADF62 PUSH4 0x21A79821 PUSH1 0xE0 SHL PUSH1 0x40 MLOAD DUP3 PUSH4 0xFFFFFFFF AND PUSH1 0xE0 SHL DUP2 MSTORE PUSH1 0x4 ADD PUSH2 0xC05 SWAP2 SWAP1 PUSH2 0x23FD JUMP JUMPDEST PUSH1 0x20 PUSH1 0x40 MLOAD DUP1 DUP4 SUB DUP2 DUP7 DUP1 EXTCODESIZE ISZERO DUP1 ISZERO PUSH2 0xC1D JUMPI PUSH1 0x0 DUP1 REVERT JUMPDEST POP GAS STATICCALL ISZERO DUP1 ISZERO PUSH2 0xC31 JUMPI RETURNDATASIZE PUSH1 0x0 DUP1 RETURNDATACOPY RETURNDATASIZE PUSH1 0x0 REVERT JUMPDEST POP POP POP POP PUSH1 0x40 MLOAD RETURNDATASIZE PUSH1 0x1F NOT PUSH1 0x1F DUP3 ADD AND DUP3 ADD DUP1 PUSH1 0x40 MSTORE POP DUP2 ADD SWAP1 PUSH2 0xC55 SWAP2 SWAP1 PUSH2 0x2222 JUMP JUMPDEST SWAP1 POP PUSH1 0x0 PUSH20 0xFFFFFFFFFFFFFFFFFFFFFFFFFFFFFFFFFFFFFFFF AND DUP2 PUSH20 0xFFFFFFFFFFFFFFFFFFFFFFFFFFFFFFFFFFFFFFFF AND EQ PUSH2 0xCCD JUMPI DUP1 PUSH1 0x1 PUSH1 0x0 PUSH2 0x100 EXP DUP2 SLOAD DUP2 PUSH20 0xFFFFFFFFFFFFFFFFFFFFFFFFFFFFFFFFFFFFFFFF MUL NOT AND SWAP1 DUP4 PUSH20 0xFFFFFFFFFFFFFFFFFFFFFFFFFFFFFFFFFFFFFFFF AND MUL OR SWAP1 SSTORE POP JUMPDEST POP JUMP JUMPDEST PUSH1 0x0 DUP1 PUSH1 0xB PUSH1 0x0 DUP5 PUSH20 0xFFFFFFFFFFFFFFFFFFFFFFFFFFFFFFFFFFFFFFFF AND PUSH20 0xFFFFFFFFFFFFFFFFFFFFFFFFFFFFFFFFFFFFFFFF AND DUP2 MSTORE PUSH1 0x20 ADD SWAP1 DUP2 MSTORE PUSH1 0x20 ADD PUSH1 0x0 KECCAK256 PUSH1 0x0 ADD SLOAD GT ISZERO PUSH2 0xD25 JUMPI PUSH1 0x1 SWAP1 POP PUSH2 0xD2A JUMP JUMPDEST PUSH1 0x0 SWAP1 POP JUMPDEST SWAP2 SWAP1 POP JUMP JUMPDEST PUSH1 0x0 DUP1 SLOAD SWAP1 PUSH2 0x100 EXP SWAP1 DIV PUSH20 0xFFFFFFFFFFFFFFFFFFFFFFFFFFFFFFFFFFFFFFFF AND DUP2 JUMP JUMPDEST PUSH1 0x0 PUSH1 0xC PUSH1 0x0 SWAP1 SLOAD SWAP1 PUSH2 0x100 EXP SWAP1 DIV PUSH20 0xFFFFFFFFFFFFFFFFFFFFFFFFFFFFFFFFFFFFFFFF AND PUSH20 0xFFFFFFFFFFFFFFFFFFFFFFFFFFFFFFFFFFFFFFFF AND CALLER PUSH20 0xFFFFFFFFFFFFFFFFFFFFFFFFFFFFFFFFFFFFFFFF AND EQ PUSH2 0xDAF JUMPI PUSH1 0x0 DUP1 REVERT JUMPDEST PUSH1 0x0 DUP1 PUSH1 0xA PUSH1 0x0 DUP2 SLOAD DUP1 SWAP3 SWAP2 SWAP1 PUSH2 0xDC5 SWAP1 PUSH2 0x29C1 JUMP JUMPDEST SWAP2 SWAP1 POP SSTORE POP PUSH1 0xA SLOAD PUSH1 0xB PUSH1 0x0 DUP9 PUSH20 0xFFFFFFFFFFFFFFFFFFFFFFFFFFFFFFFFFFFFFFFF AND PUSH20 0xFFFFFFFFFFFFFFFFFFFFFFFFFFFFFFFFFFFFFFFF AND DUP2 MSTORE PUSH1 0x20 ADD SWAP1 DUP2 MSTORE PUSH1 0x20 ADD PUSH1 0x0 KECCAK256 PUSH1 0x0 ADD DUP2 SWAP1 SSTORE POP DUP4 PUSH1 0xB PUSH1 0x0 DUP9 PUSH20 0xFFFFFFFFFFFFFFFFFFFFFFFFFFFFFFFFFFFFFFFF AND PUSH20 0xFFFFFFFFFFFFFFFFFFFFFFFFFFFFFFFFFFFFFFFF AND DUP2 MSTORE PUSH1 0x20 ADD SWAP1 DUP2 MSTORE PUSH1 0x20 ADD PUSH1 0x0 KECCAK256 PUSH1 0x1 ADD PUSH1 0x0 DUP3 DUP3 SLOAD PUSH2 0xE65 SWAP2 SWAP1 PUSH2 0x2591 JUMP JUMPDEST SWAP3 POP POP DUP2 SWAP1 SSTORE POP DUP6 PUSH1 0xB PUSH1 0x0 DUP9 PUSH20 0xFFFFFFFFFFFFFFFFFFFFFFFFFFFFFFFFFFFFFFFF AND PUSH20 0xFFFFFFFFFFFFFFFFFFFFFFFFFFFFFFFFFFFFFFFF AND DUP2 MSTORE PUSH1 0x20 ADD SWAP1 DUP2 MSTORE PUSH1 0x20 ADD PUSH1 0x0 KECCAK256 PUSH1 0x3 ADD PUSH1 0x0 PUSH2 0x100 EXP DUP2 SLOAD DUP2 PUSH20 0xFFFFFFFFFFFFFFFFFFFFFFFFFFFFFFFFFFFFFFFF MUL NOT AND SWAP1 DUP4 PUSH20 0xFFFFFFFFFFFFFFFFFFFFFFFFFFFFFFFFFFFFFFFF AND MUL OR SWAP1 SSTORE POP PUSH1 0x1 PUSH1 0xB PUSH1 0x0 DUP9 PUSH20 0xFFFFFFFFFFFFFFFFFFFFFFFFFFFFFFFFFFFFFFFF AND PUSH20 0xFFFFFFFFFFFFFFFFFFFFFFFFFFFFFFFFFFFFFFFF AND DUP2 MSTORE PUSH1 0x20 ADD SWAP1 DUP2 MSTORE PUSH1 0x20 ADD PUSH1 0x0 KECCAK256 PUSH1 0x2 ADD PUSH1 0x0 DUP3 DUP3 SLOAD PUSH2 0xF40 SWAP2 SWAP1 PUSH2 0x2625 JUMP JUMPDEST SWAP3 POP POP DUP2 SWAP1 SSTORE POP DUP4 PUSH1 0x4 PUSH1 0x0 DUP8 PUSH20 0xFFFFFFFFFFFFFFFFFFFFFFFFFFFFFFFFFFFFFFFF AND PUSH20 0xFFFFFFFFFFFFFFFFFFFFFFFFFFFFFFFFFFFFFFFF AND DUP2 MSTORE PUSH1 0x20 ADD SWAP1 DUP2 MSTORE PUSH1 0x20 ADD PUSH1 0x0 KECCAK256 PUSH1 0x1 ADD PUSH1 0x0 DUP3 DUP3 SLOAD PUSH2 0xF99 SWAP2 SWAP1 PUSH2 0x2625 JUMP JUMPDEST SWAP3 POP POP DUP2 SWAP1 SSTORE POP PUSH1 0x1 SWAP3 POP POP POP SWAP4 SWAP3 POP POP POP JUMP JUMPDEST PUSH1 0xB PUSH1 0x20 MSTORE DUP1 PUSH1 0x0 MSTORE PUSH1 0x40 PUSH1 0x0 KECCAK256 PUSH1 0x0 SWAP2 POP SWAP1 POP DUP1 PUSH1 0x0 ADD SLOAD SWAP1 DUP1 PUSH1 0x1 ADD SLOAD SWAP1 DUP1 PUSH1 0x2 ADD SLOAD SWAP1 DUP1 PUSH1 0x3 ADD PUSH1 0x0 SWAP1 SLOAD SWAP1 PUSH2 0x100 EXP SWAP1 DIV PUSH20 0xFFFFFFFFFFFFFFFFFFFFFFFFFFFFFFFFFFFFFFFF AND SWAP1 POP DUP5 JUMP JUMPDEST PUSH1 0x0 DUP1 PUSH1 0xC PUSH1 0x14 SWAP1 SLOAD SWAP1 PUSH2 0x100 EXP SWAP1 DIV PUSH1 0xFF AND ISZERO PUSH2 0x101A JUMPI PUSH1 0x0 DUP1 REVERT JUMPDEST PUSH1 0x1 PUSH1 0xC PUSH1 0x14 PUSH2 0x100 EXP DUP2 SLOAD DUP2 PUSH1 0xFF MUL NOT AND SWAP1 DUP4 ISZERO ISZERO MUL OR SWAP1 SSTORE POP CALLVALUE PUSH1 0x4 PUSH1 0x0 DUP6 PUSH20 0xFFFFFFFFFFFFFFFFFFFFFFFFFFFFFFFFFFFFFFFF AND PUSH20 0xFFFFFFFFFFFFFFFFFFFFFFFFFFFFFFFFFFFFFFFF AND DUP2 MSTORE PUSH1 0x20 ADD SWAP1 DUP2 MSTORE PUSH1 0x20 ADD PUSH1 0x0 KECCAK256 PUSH1 0x0 ADD SLOAD LT ISZERO PUSH2 0x10BA JUMPI PUSH1 0x40 MLOAD PUSH32 0x8C379A000000000000000000000000000000000000000000000000000000000 DUP2 MSTORE PUSH1 0x4 ADD PUSH2 0x10B1 SWAP1 PUSH2 0x248E JUMP JUMPDEST PUSH1 0x40 MLOAD DUP1 SWAP2 SUB SWAP1 REVERT JUMPDEST PUSH1 0x0 DUP1 PUSH2 0x10C5 PUSH2 0x1FEE JUMP JUMPDEST SWAP2 POP SWAP2 POP PUSH1 0x0 PUSH1 0xC DUP4 PUSH1 0x4 PUSH1 0x0 DUP10 PUSH20 0xFFFFFFFFFFFFFFFFFFFFFFFFFFFFFFFFFFFFFFFF AND PUSH20 0xFFFFFFFFFFFFFFFFFFFFFFFFFFFFFFFFFFFFFFFF AND DUP2 MSTORE PUSH1 0x20 ADD SWAP1 DUP2 MSTORE PUSH1 0x20 ADD PUSH1 0x0 KECCAK256 PUSH1 0x1 ADD SLOAD PUSH2 0x111B SWAP2 SWAP1 PUSH2 0x26E5 JUMP JUMPDEST PUSH1 0x4 PUSH1 0x0 DUP10 PUSH20 0xFFFFFFFFFFFFFFFFFFFFFFFFFFFFFFFFFFFFFFFF AND PUSH20 0xFFFFFFFFFFFFFFFFFFFFFFFFFFFFFFFFFFFFFFFF AND DUP2 MSTORE PUSH1 0x20 ADD SWAP1 DUP2 MSTORE PUSH1 0x20 ADD PUSH1 0x0 KECCAK256 PUSH1 0x0 ADD SLOAD PUSH2 0x1168 SWAP2 SWAP1 PUSH2 0x2625 JUMP JUMPDEST PUSH2 0x1172 SWAP2 SWAP1 PUSH2 0x26E5 JUMP JUMPDEST SWAP1 POP DUP6 PUSH20 0xFFFFFFFFFFFFFFFFFFFFFFFFFFFFFFFFFFFFFFFF AND PUSH2 0x8FC DUP3 SWAP1 DUP2 ISZERO MUL SWAP1 PUSH1 0x40 MLOAD PUSH1 0x0 PUSH1 0x40 MLOAD DUP1 DUP4 SUB DUP2 DUP6 DUP9 DUP9 CALL SWAP4 POP POP POP POP ISZERO DUP1 ISZERO PUSH2 0x11BA JUMPI RETURNDATASIZE PUSH1 0x0 DUP1 RETURNDATACOPY RETURNDATASIZE PUSH1 0x0 REVERT JUMPDEST POP PUSH1 0x0 PUSH1 0x4 PUSH1 0x0 DUP9 PUSH20 0xFFFFFFFFFFFFFFFFFFFFFFFFFFFFFFFFFFFFFFFF AND PUSH20 0xFFFFFFFFFFFFFFFFFFFFFFFFFFFFFFFFFFFFFFFF AND DUP2 MSTORE PUSH1 0x20 ADD SWAP1 DUP2 MSTORE PUSH1 0x20 ADD PUSH1 0x0 KECCAK256 PUSH1 0x0 ADD SLOAD EQ ISZERO PUSH2 0x1264 JUMPI DUP1 PUSH1 0x4 PUSH1 0x0 DUP9 PUSH20 0xFFFFFFFFFFFFFFFFFFFFFFFFFFFFFFFFFFFFFFFF AND PUSH20 0xFFFFFFFFFFFFFFFFFFFFFFFFFFFFFFFFFFFFFFFF AND DUP2 MSTORE PUSH1 0x20 ADD SWAP1 DUP2 MSTORE PUSH1 0x20 ADD PUSH1 0x0 KECCAK256 PUSH1 0x1 ADD PUSH1 0x0 DUP3 DUP3 SLOAD PUSH2 0x1258 SWAP2 SWAP1 PUSH2 0x2887 JUMP JUMPDEST SWAP3 POP POP DUP2 SWAP1 SSTORE POP PUSH2 0x13D9 JUMP JUMPDEST PUSH1 0x0 PUSH1 0x4 PUSH1 0x0 DUP9 PUSH20 0xFFFFFFFFFFFFFFFFFFFFFFFFFFFFFFFFFFFFFFFF AND PUSH20 0xFFFFFFFFFFFFFFFFFFFFFFFFFFFFFFFFFFFFFFFF AND DUP2 MSTORE PUSH1 0x20 ADD SWAP1 DUP2 MSTORE PUSH1 0x20 ADD PUSH1 0x0 KECCAK256 PUSH1 0x1 ADD SLOAD EQ ISZERO PUSH2 0x130D JUMPI DUP1 PUSH1 0x4 PUSH1 0x0 DUP9 PUSH20 0xFFFFFFFFFFFFFFFFFFFFFFFFFFFFFFFFFFFFFFFF AND PUSH20 0xFFFFFFFFFFFFFFFFFFFFFFFFFFFFFFFFFFFFFFFF AND DUP2 MSTORE PUSH1 0x20 ADD SWAP1 DUP2 MSTORE PUSH1 0x20 ADD PUSH1 0x0 KECCAK256 PUSH1 0x0 ADD PUSH1 0x0 DUP3 DUP3 SLOAD PUSH2 0x1301 SWAP2 SWAP1 PUSH2 0x2887 JUMP JUMPDEST SWAP3 POP POP DUP2 SWAP1 SSTORE POP PUSH2 0x13D8 JUMP JUMPDEST PUSH1 0x2 DUP2 PUSH2 0x131A SWAP2 SWAP1 PUSH2 0x26E5 JUMP JUMPDEST PUSH1 0x4 PUSH1 0x0 DUP9 PUSH20 0xFFFFFFFFFFFFFFFFFFFFFFFFFFFFFFFFFFFFFFFF AND PUSH20 0xFFFFFFFFFFFFFFFFFFFFFFFFFFFFFFFFFFFFFFFF AND DUP2 MSTORE PUSH1 0x20 ADD SWAP1 DUP2 MSTORE PUSH1 0x20 ADD PUSH1 0x0 KECCAK256 PUSH1 0x0 ADD PUSH1 0x0 DUP3 DUP3 SLOAD PUSH2 0x136B SWAP2 SWAP1 PUSH2 0x2887 JUMP JUMPDEST SWAP3 POP POP DUP2 SWAP1 SSTORE POP PUSH1 0x2 DUP2 PUSH2 0x137F SWAP2 SWAP1 PUSH2 0x26E5 JUMP JUMPDEST PUSH1 0x4 PUSH1 0x0 DUP9 PUSH20 0xFFFFFFFFFFFFFFFFFFFFFFFFFFFFFFFFFFFFFFFF AND PUSH20 0xFFFFFFFFFFFFFFFFFFFFFFFFFFFFFFFFFFFFFFFF AND DUP2 MSTORE PUSH1 0x20 ADD SWAP1 DUP2 MSTORE PUSH1 0x20 ADD PUSH1 0x0 KECCAK256 PUSH1 0x1 ADD PUSH1 0x0 DUP3 DUP3 SLOAD PUSH2 0x13D0 SWAP2 SWAP1 PUSH2 0x2887 JUMP JUMPDEST SWAP3 POP POP DUP2 SWAP1 SSTORE POP JUMPDEST JUMPDEST DUP6 PUSH20 0xFFFFFFFFFFFFFFFFFFFFFFFFFFFFFFFFFFFFFFFF AND PUSH32 0x9CD516BC314CA50BB8F1F5602D3F202CDCBF17B89DA33DD13C3909D5D3C00A32 DUP3 TIMESTAMP PUSH1 0x40 MLOAD PUSH2 0x1421 SWAP3 SWAP2 SWAP1 PUSH2 0x2557 JUMP JUMPDEST PUSH1 0x40 MLOAD DUP1 SWAP2 SUB SWAP1 LOG2 DUP1 TIMESTAMP SWAP5 POP SWAP5 POP POP POP POP PUSH1 0x0 PUSH1 0xC PUSH1 0x14 PUSH2 0x100 EXP DUP2 SLOAD DUP2 PUSH1 0xFF MUL NOT AND SWAP1 DUP4 ISZERO ISZERO MUL OR SWAP1 SSTORE POP SWAP2 POP SWAP2 JUMP JUMPDEST PUSH1 0x0 PUSH1 0xC PUSH1 0x14 SWAP1 SLOAD SWAP1 PUSH2 0x100 EXP SWAP1 DIV PUSH1 0xFF AND ISZERO PUSH2 0x146E JUMPI PUSH1 0x0 DUP1 REVERT JUMPDEST PUSH1 0x1 PUSH1 0xC PUSH1 0x14 PUSH2 0x100 EXP DUP2 SLOAD DUP2 PUSH1 0xFF MUL NOT AND SWAP1 DUP4 ISZERO ISZERO MUL OR SWAP1 SSTORE POP CALLVALUE CALLER PUSH20 0xFFFFFFFFFFFFFFFFFFFFFFFFFFFFFFFFFFFFFFFF AND BALANCE LT ISZERO PUSH2 0x14E3 JUMPI PUSH1 0x40 MLOAD PUSH32 0x8C379A000000000000000000000000000000000000000000000000000000000 DUP2 MSTORE PUSH1 0x4 ADD PUSH2 0x14DA SWAP1 PUSH2 0x246E JUMP JUMPDEST PUSH1 0x40 MLOAD DUP1 SWAP2 SUB SWAP1 REVERT JUMPDEST PUSH1 0x1 CALLVALUE LT ISZERO PUSH2 0x1527 JUMPI PUSH1 0x40 MLOAD PUSH32 0x8C379A000000000000000000000000000000000000000000000000000000000 DUP2 MSTORE PUSH1 0x4 ADD PUSH2 0x151E SWAP1 PUSH2 0x244E JUMP JUMPDEST PUSH1 0x40 MLOAD DUP1 SWAP2 SUB SWAP1 REVERT JUMPDEST PUSH1 0x0 DUP1 PUSH2 0x1532 PUSH2 0x1FEE JUMP JUMPDEST SWAP2 POP SWAP2 POP PUSH1 0x1 ISZERO ISZERO PUSH2 0x1543 CALLER PUSH2 0xCD0 JUMP JUMPDEST ISZERO ISZERO EQ ISZERO PUSH2 0x1784 JUMPI DUP2 CALLVALUE PUSH2 0x1557 SWAP2 SWAP1 PUSH2 0x2716 JUMP JUMPDEST PUSH1 0xB PUSH1 0x0 CALLER PUSH20 0xFFFFFFFFFFFFFFFFFFFFFFFFFFFFFFFFFFFFFFFF AND PUSH20 0xFFFFFFFFFFFFFFFFFFFFFFFFFFFFFFFFFFFFFFFF AND DUP2 MSTORE PUSH1 0x20 ADD SWAP1 DUP2 MSTORE PUSH1 0x20 ADD PUSH1 0x0 KECCAK256 PUSH1 0x1 ADD PUSH1 0x0 DUP3 DUP3 SLOAD PUSH2 0x15A8 SWAP2 SWAP1 PUSH2 0x2591 JUMP JUMPDEST SWAP3 POP POP DUP2 SWAP1 SSTORE POP PUSH1 0xB PUSH1 0x0 CALLER PUSH20 0xFFFFFFFFFFFFFFFFFFFFFFFFFFFFFFFFFFFFFFFF AND PUSH20 0xFFFFFFFFFFFFFFFFFFFFFFFFFFFFFFFFFFFFFFFF AND DUP2 MSTORE PUSH1 0x20 ADD SWAP1 DUP2 MSTORE PUSH1 0x20 ADD PUSH1 0x0 KECCAK256 PUSH1 0x2 ADD PUSH1 0x0 DUP2 SLOAD DUP1 SWAP3 SWAP2 SWAP1 PUSH2 0x1602 SWAP1 PUSH2 0x29C1 JUMP JUMPDEST SWAP2 SWAP1 POP SSTORE POP PUSH1 0x5 PUSH1 0x0 SWAP1 SLOAD SWAP1 PUSH2 0x100 EXP SWAP1 DIV PUSH20 0xFFFFFFFFFFFFFFFFFFFFFFFFFFFFFFFFFFFFFFFF AND PUSH20 0xFFFFFFFFFFFFFFFFFFFFFFFFFFFFFFFFFFFFFFFF AND PUSH4 0x23B872DD CALLER ADDRESS CALLVALUE PUSH1 0x40 MLOAD DUP5 PUSH4 0xFFFFFFFF AND PUSH1 0xE0 SHL DUP2 MSTORE PUSH1 0x4 ADD PUSH2 0x1666 SWAP4 SWAP3 SWAP2 SWAP1 PUSH2 0x23AB JUMP JUMPDEST PUSH1 0x20 PUSH1 0x40 MLOAD DUP1 DUP4 SUB DUP2 PUSH1 0x0 DUP8 DUP1 EXTCODESIZE ISZERO DUP1 ISZERO PUSH2 0x1680 JUMPI PUSH1 0x0 DUP1 REVERT JUMPDEST POP GAS CALL ISZERO DUP1 ISZERO PUSH2 0x1694 JUMPI RETURNDATASIZE PUSH1 0x0 DUP1 RETURNDATACOPY RETURNDATASIZE PUSH1 0x0 REVERT JUMPDEST POP POP POP POP PUSH1 0x40 MLOAD RETURNDATASIZE PUSH1 0x1F NOT PUSH1 0x1F DUP3 ADD AND DUP3 ADD DUP1 PUSH1 0x40 MSTORE POP DUP2 ADD SWAP1 PUSH2 0x16B8 SWAP2 SWAP1 PUSH2 0x21F5 JUMP JUMPDEST POP CALLVALUE PUSH1 0x4 PUSH1 0x0 DUP7 PUSH20 0xFFFFFFFFFFFFFFFFFFFFFFFFFFFFFFFFFFFFFFFF AND PUSH20 0xFFFFFFFFFFFFFFFFFFFFFFFFFFFFFFFFFFFFFFFF AND DUP2 MSTORE PUSH1 0x20 ADD SWAP1 DUP2 MSTORE PUSH1 0x20 ADD PUSH1 0x0 KECCAK256 PUSH1 0x1 ADD PUSH1 0x0 DUP3 DUP3 SLOAD PUSH2 0x170B SWAP2 SWAP1 PUSH2 0x2625 JUMP JUMPDEST SWAP3 POP POP DUP2 SWAP1 SSTORE POP DUP4 PUSH20 0xFFFFFFFFFFFFFFFFFFFFFFFFFFFFFFFFFFFFFFFF AND CALLER PUSH20 0xFFFFFFFFFFFFFFFFFFFFFFFFFFFFFFFFFFFFFFFF AND PUSH32 0xADBBBBC8C9E65E88422D75C3D3CB93F41A5D520A2CA71C815348334DE8C49121 CALLVALUE TIMESTAMP PUSH1 0x40 MLOAD PUSH2 0x1771 SWAP3 SWAP2 SWAP1 PUSH2 0x2557 JUMP JUMPDEST PUSH1 0x40 MLOAD DUP1 SWAP2 SUB SWAP1 LOG3 PUSH1 0x1 SWAP3 POP POP POP PUSH2 0x1A8B JUMP JUMPDEST PUSH1 0xA PUSH1 0x0 DUP2 SLOAD DUP1 SWAP3 SWAP2 SWAP1 PUSH2 0x1797 SWAP1 PUSH2 0x29C1 JUMP JUMPDEST SWAP2 SWAP1 POP SSTORE POP PUSH1 0xA SLOAD PUSH1 0xB PUSH1 0x0 CALLER PUSH20 0xFFFFFFFFFFFFFFFFFFFFFFFFFFFFFFFFFFFFFFFF AND PUSH20 0xFFFFFFFFFFFFFFFFFFFFFFFFFFFFFFFFFFFFFFFF AND DUP2 MSTORE PUSH1 0x20 ADD SWAP1 DUP2 MSTORE PUSH1 0x20 ADD PUSH1 0x0 KECCAK256 PUSH1 0x0 ADD DUP2 SWAP1 SSTORE POP DUP2 CALLVALUE PUSH2 0x17F1 SWAP2 SWAP1 PUSH2 0x2716 JUMP JUMPDEST PUSH1 0xB PUSH1 0x0 CALLER PUSH20 0xFFFFFFFFFFFFFFFFFFFFFFFFFFFFFFFFFFFFFFFF AND PUSH20 0xFFFFFFFFFFFFFFFFFFFFFFFFFFFFFFFFFFFFFFFF AND DUP2 MSTORE PUSH1 0x20 ADD SWAP1 DUP2 MSTORE PUSH1 0x20 ADD PUSH1 0x0 KECCAK256 PUSH1 0x1 ADD PUSH1 0x0 DUP3 DUP3 SLOAD PUSH2 0x1842 SWAP2 SWAP1 PUSH2 0x2591 JUMP JUMPDEST SWAP3 POP POP DUP2 SWAP1 SSTORE POP CALLER PUSH1 0xB PUSH1 0x0 CALLER PUSH20 0xFFFFFFFFFFFFFFFFFFFFFFFFFFFFFFFFFFFFFFFF AND PUSH20 0xFFFFFFFFFFFFFFFFFFFFFFFFFFFFFFFFFFFFFFFF AND DUP2 MSTORE PUSH1 0x20 ADD SWAP1 DUP2 MSTORE PUSH1 0x20 ADD PUSH1 0x0 KECCAK256 PUSH1 0x3 ADD PUSH1 0x0 PUSH2 0x100 EXP DUP2 SLOAD DUP2 PUSH20 0xFFFFFFFFFFFFFFFFFFFFFFFFFFFFFFFFFFFFFFFF MUL NOT AND SWAP1 DUP4 PUSH20 0xFFFFFFFFFFFFFFFFFFFFFFFFFFFFFFFFFFFFFFFF AND MUL OR SWAP1 SSTORE POP PUSH1 0x1 PUSH1 0xB PUSH1 0x0 CALLER PUSH20 0xFFFFFFFFFFFFFFFFFFFFFFFFFFFFFFFFFFFFFFFF AND PUSH20 0xFFFFFFFFFFFFFFFFFFFFFFFFFFFFFFFFFFFFFFFF AND DUP2 MSTORE PUSH1 0x20 ADD SWAP1 DUP2 MSTORE PUSH1 0x20 ADD PUSH1 0x0 KECCAK256 PUSH1 0x2 ADD DUP2 SWAP1 SSTORE POP PUSH1 0x5 PUSH1 0x0 SWAP1 SLOAD SWAP1 PUSH2 0x100 EXP SWAP1 DIV PUSH20 0xFFFFFFFFFFFFFFFFFFFFFFFFFFFFFFFFFFFFFFFF AND PUSH20 0xFFFFFFFFFFFFFFFFFFFFFFFFFFFFFFFFFFFFFFFF AND PUSH4 0x23B872DD CALLER ADDRESS CALLVALUE PUSH1 0x40 MLOAD DUP5 PUSH4 0xFFFFFFFF AND PUSH1 0xE0 SHL DUP2 MSTORE PUSH1 0x4 ADD PUSH2 0x1971 SWAP4 SWAP3 SWAP2 SWAP1 PUSH2 0x23AB JUMP JUMPDEST PUSH1 0x20 PUSH1 0x40 MLOAD DUP1 DUP4 SUB DUP2 PUSH1 0x0 DUP8 DUP1 EXTCODESIZE ISZERO DUP1 ISZERO PUSH2 0x198B JUMPI PUSH1 0x0 DUP1 REVERT JUMPDEST POP GAS CALL ISZERO DUP1 ISZERO PUSH2 0x199F JUMPI RETURNDATASIZE PUSH1 0x0 DUP1 RETURNDATACOPY RETURNDATASIZE PUSH1 0x0 REVERT JUMPDEST POP POP POP POP PUSH1 0x40 MLOAD RETURNDATASIZE PUSH1 0x1F NOT PUSH1 0x1F DUP3 ADD AND DUP3 ADD DUP1 PUSH1 0x40 MSTORE POP DUP2 ADD SWAP1 PUSH2 0x19C3 SWAP2 SWAP1 PUSH2 0x21F5 JUMP JUMPDEST POP CALLVALUE PUSH1 0x4 PUSH1 0x0 DUP7 PUSH20 0xFFFFFFFFFFFFFFFFFFFFFFFFFFFFFFFFFFFFFFFF AND PUSH20 0xFFFFFFFFFFFFFFFFFFFFFFFFFFFFFFFFFFFFFFFF AND DUP2 MSTORE PUSH1 0x20 ADD SWAP1 DUP2 MSTORE PUSH1 0x20 ADD PUSH1 0x0 KECCAK256 PUSH1 0x1 ADD PUSH1 0x0 DUP3 DUP3 SLOAD PUSH2 0x1A16 SWAP2 SWAP1 PUSH2 0x2625 JUMP JUMPDEST SWAP3 POP POP DUP2 SWAP1 SSTORE POP DUP4 PUSH20 0xFFFFFFFFFFFFFFFFFFFFFFFFFFFFFFFFFFFFFFFF AND CALLER PUSH20 0xFFFFFFFFFFFFFFFFFFFFFFFFFFFFFFFFFFFFFFFF AND PUSH32 0xADBBBBC8C9E65E88422D75C3D3CB93F41A5D520A2CA71C815348334DE8C49121 CALLVALUE TIMESTAMP PUSH1 0x40 MLOAD PUSH2 0x1A7C SWAP3 SWAP2 SWAP1 PUSH2 0x2557 JUMP JUMPDEST PUSH1 0x40 MLOAD DUP1 SWAP2 SUB SWAP1 LOG3 PUSH1 0x1 SWAP3 POP POP POP JUMPDEST PUSH1 0x0 PUSH1 0xC PUSH1 0x14 PUSH2 0x100 EXP DUP2 SLOAD DUP2 PUSH1 0xFF MUL NOT AND SWAP1 DUP4 ISZERO ISZERO MUL OR SWAP1 SSTORE POP SWAP2 SWAP1 POP JUMP JUMPDEST PUSH1 0x4 PUSH1 0x20 MSTORE DUP1 PUSH1 0x0 MSTORE PUSH1 0x40 PUSH1 0x0 KECCAK256 PUSH1 0x0 SWAP2 POP SWAP1 POP DUP1 PUSH1 0x0 ADD SLOAD SWAP1 DUP1 PUSH1 0x1 ADD SLOAD SWAP1 POP DUP3 JUMP JUMPDEST PUSH1 0x0 DUP1 PUSH1 0xC PUSH1 0x14 SWAP1 SLOAD SWAP1 PUSH2 0x100 EXP SWAP1 DIV PUSH1 0xFF AND ISZERO PUSH2 0x1AEC JUMPI PUSH1 0x0 DUP1 REVERT JUMPDEST PUSH1 0x1 PUSH1 0xC PUSH1 0x14 PUSH2 0x100 EXP DUP2 SLOAD DUP2 PUSH1 0xFF MUL NOT AND SWAP1 DUP4 ISZERO ISZERO MUL OR SWAP1 SSTORE POP PUSH1 0x0 DUP1 PUSH2 0x1B12 PUSH2 0x1FEE JUMP JUMPDEST SWAP2 POP SWAP2 POP PUSH1 0x0 PUSH1 0xC PUSH1 0x4 PUSH1 0x0 DUP9 PUSH20 0xFFFFFFFFFFFFFFFFFFFFFFFFFFFFFFFFFFFFFFFF AND PUSH20 0xFFFFFFFFFFFFFFFFFFFFFFFFFFFFFFFFFFFFFFFF AND DUP2 MSTORE PUSH1 0x20 ADD SWAP1 DUP2 MSTORE PUSH1 0x20 ADD PUSH1 0x0 KECCAK256 PUSH1 0x1 ADD SLOAD DUP5 PUSH1 0x4 PUSH1 0x0 DUP11 PUSH20 0xFFFFFFFFFFFFFFFFFFFFFFFFFFFFFFFFFFFFFFFF AND PUSH20 0xFFFFFFFFFFFFFFFFFFFFFFFFFFFFFFFFFFFFFFFF AND DUP2 MSTORE PUSH1 0x20 ADD SWAP1 DUP2 MSTORE PUSH1 0x20 ADD PUSH1 0x0 KECCAK256 PUSH1 0x0 ADD SLOAD PUSH2 0x1BAB SWAP2 SWAP1 PUSH2 0x282D JUMP JUMPDEST PUSH2 0x1BB5 SWAP2 SWAP1 PUSH2 0x2625 JUMP JUMPDEST PUSH2 0x1BBF SWAP2 SWAP1 PUSH2 0x26E5 JUMP JUMPDEST SWAP1 POP DUP1 PUSH1 0x4 PUSH1 0x0 DUP9 PUSH20 0xFFFFFFFFFFFFFFFFFFFFFFFFFFFFFFFFFFFFFFFF AND PUSH20 0xFFFFFFFFFFFFFFFFFFFFFFFFFFFFFFFFFFFFFFFF AND DUP2 MSTORE PUSH1 0x20 ADD SWAP1 DUP2 MSTORE PUSH1 0x20 ADD PUSH1 0x0 KECCAK256 PUSH1 0x1 ADD SLOAD GT PUSH2 0x1C45 JUMPI PUSH1 0x40 MLOAD PUSH32 0x8C379A000000000000000000000000000000000000000000000000000000000 DUP2 MSTORE PUSH1 0x4 ADD PUSH2 0x1C3C SWAP1 PUSH2 0x248E JUMP JUMPDEST PUSH1 0x40 MLOAD DUP1 SWAP2 SUB SWAP1 REVERT JUMPDEST DUP6 PUSH20 0xFFFFFFFFFFFFFFFFFFFFFFFFFFFFFFFFFFFFFFFF AND PUSH2 0x8FC DUP3 SWAP1 DUP2 ISZERO MUL SWAP1 PUSH1 0x40 MLOAD PUSH1 0x0 PUSH1 0x40 MLOAD DUP1 DUP4 SUB DUP2 DUP6 DUP9 DUP9 CALL SWAP4 POP POP POP POP ISZERO DUP1 ISZERO PUSH2 0x1C8B JUMPI RETURNDATASIZE PUSH1 0x0 DUP1 RETURNDATACOPY RETURNDATASIZE PUSH1 0x0 REVERT JUMPDEST POP PUSH1 0x0 PUSH1 0x4 PUSH1 0x0 DUP9 PUSH20 0xFFFFFFFFFFFFFFFFFFFFFFFFFFFFFFFFFFFFFFFF AND PUSH20 0xFFFFFFFFFFFFFFFFFFFFFFFFFFFFFFFFFFFFFFFF AND DUP2 MSTORE PUSH1 0x20 ADD SWAP1 DUP2 MSTORE PUSH1 0x20 ADD PUSH1 0x0 KECCAK256 PUSH1 0x0 ADD SLOAD EQ ISZERO PUSH2 0x1D35 JUMPI DUP1 PUSH1 0x4 PUSH1 0x0 DUP9 PUSH20 0xFFFFFFFFFFFFFFFFFFFFFFFFFFFFFFFFFFFFFFFF AND PUSH20 0xFFFFFFFFFFFFFFFFFFFFFFFFFFFFFFFFFFFFFFFF AND DUP2 MSTORE PUSH1 0x20 ADD SWAP1 DUP2 MSTORE PUSH1 0x20 ADD PUSH1 0x0 KECCAK256 PUSH1 0x1 ADD PUSH1 0x0 DUP3 DUP3 SLOAD PUSH2 0x1D29 SWAP2 SWAP1 PUSH2 0x2887 JUMP JUMPDEST SWAP3 POP POP DUP2 SWAP1 SSTORE POP PUSH2 0x1EAA JUMP JUMPDEST PUSH1 0x0 PUSH1 0x4 PUSH1 0x0 DUP9 PUSH20 0xFFFFFFFFFFFFFFFFFFFFFFFFFFFFFFFFFFFFFFFF AND PUSH20 0xFFFFFFFFFFFFFFFFFFFFFFFFFFFFFFFFFFFFFFFF AND DUP2 MSTORE PUSH1 0x20 ADD SWAP1 DUP2 MSTORE PUSH1 0x20 ADD PUSH1 0x0 KECCAK256 PUSH1 0x1 ADD SLOAD EQ ISZERO PUSH2 0x1DDE JUMPI DUP1 PUSH1 0x4 PUSH1 0x0 DUP9 PUSH20 0xFFFFFFFFFFFFFFFFFFFFFFFFFFFFFFFFFFFFFFFF AND PUSH20 0xFFFFFFFFFFFFFFFFFFFFFFFFFFFFFFFFFFFFFFFF AND DUP2 MSTORE PUSH1 0x20 ADD SWAP1 DUP2 MSTORE PUSH1 0x20 ADD PUSH1 0x0 KECCAK256 PUSH1 0x0 ADD PUSH1 0x0 DUP3 DUP3 SLOAD PUSH2 0x1DD2 SWAP2 SWAP1 PUSH2 0x2887 JUMP JUMPDEST SWAP3 POP POP DUP2 SWAP1 SSTORE POP PUSH2 0x1EA9 JUMP JUMPDEST PUSH1 0x2 DUP2 PUSH2 0x1DEB SWAP2 SWAP1 PUSH2 0x26E5 JUMP JUMPDEST PUSH1 0x4 PUSH1 0x0 DUP9 PUSH20 0xFFFFFFFFFFFFFFFFFFFFFFFFFFFFFFFFFFFFFFFF AND PUSH20 0xFFFFFFFFFFFFFFFFFFFFFFFFFFFFFFFFFFFFFFFF AND DUP2 MSTORE PUSH1 0x20 ADD SWAP1 DUP2 MSTORE PUSH1 0x20 ADD PUSH1 0x0 KECCAK256 PUSH1 0x0 ADD PUSH1 0x0 DUP3 DUP3 SLOAD PUSH2 0x1E3C SWAP2 SWAP1 PUSH2 0x2887 JUMP JUMPDEST SWAP3 POP POP DUP2 SWAP1 SSTORE POP PUSH1 0x2 DUP2 PUSH2 0x1E50 SWAP2 SWAP1 PUSH2 0x26E5 JUMP JUMPDEST PUSH1 0x4 PUSH1 0x0 DUP9 PUSH20 0xFFFFFFFFFFFFFFFFFFFFFFFFFFFFFFFFFFFFFFFF AND PUSH20 0xFFFFFFFFFFFFFFFFFFFFFFFFFFFFFFFFFFFFFFFF AND DUP2 MSTORE PUSH1 0x20 ADD SWAP1 DUP2 MSTORE PUSH1 0x20 ADD PUSH1 0x0 KECCAK256 PUSH1 0x1 ADD PUSH1 0x0 DUP3 DUP3 SLOAD PUSH2 0x1EA1 SWAP2 SWAP1 PUSH2 0x2887 JUMP JUMPDEST SWAP3 POP POP DUP2 SWAP1 SSTORE POP JUMPDEST JUMPDEST DUP1 PUSH1 0x4 PUSH1 0x0 DUP9 PUSH20 0xFFFFFFFFFFFFFFFFFFFFFFFFFFFFFFFFFFFFFFFF AND PUSH20 0xFFFFFFFFFFFFFFFFFFFFFFFFFFFFFFFFFFFFFFFF AND DUP2 MSTORE PUSH1 0x20 ADD SWAP1 DUP2 MSTORE PUSH1 0x20 ADD PUSH1 0x0 KECCAK256 PUSH1 0x0 ADD PUSH1 0x0 DUP3 DUP3 SLOAD PUSH2 0x1EFC SWAP2 SWAP1 PUSH2 0x2887 JUMP JUMPDEST SWAP3 POP POP DUP2 SWAP1 SSTORE POP DUP6 PUSH20 0xFFFFFFFFFFFFFFFFFFFFFFFFFFFFFFFFFFFFFFFF AND PUSH32 0x9CD516BC314CA50BB8F1F5602D3F202CDCBF17B89DA33DD13C3909D5D3C00A32 DUP3 TIMESTAMP PUSH1 0x40 MLOAD PUSH2 0x1F4B SWAP3 SWAP2 SWAP1 PUSH2 0x2557 JUMP JUMPDEST PUSH1 0x40 MLOAD DUP1 SWAP2 SUB SWAP1 LOG2 DUP1 TIMESTAMP SWAP5 POP SWAP5 POP POP POP POP PUSH1 0x0 PUSH1 0xC PUSH1 0x14 PUSH2 0x100 EXP DUP2 SLOAD DUP2 PUSH1 0xFF MUL NOT AND SWAP1 DUP4 ISZERO ISZERO MUL OR SWAP1 SSTORE POP SWAP2 POP SWAP2 JUMP JUMPDEST PUSH1 0x3 PUSH1 0x0 SWAP1 SLOAD SWAP1 PUSH2 0x100 EXP SWAP1 DIV PUSH20 0xFFFFFFFFFFFFFFFFFFFFFFFFFFFFFFFFFFFFFFFF AND DUP2 JUMP JUMPDEST PUSH1 0x1 PUSH1 0x0 SWAP1 SLOAD SWAP1 PUSH2 0x100 EXP SWAP1 DIV PUSH20 0xFFFFFFFFFFFFFFFFFFFFFFFFFFFFFFFFFFFFFFFF AND DUP2 JUMP JUMPDEST PUSH1 0x2 PUSH1 0x0 SWAP1 SLOAD SWAP1 PUSH2 0x100 EXP SWAP1 DIV PUSH20 0xFFFFFFFFFFFFFFFFFFFFFFFFFFFFFFFFFFFFFFFF AND DUP2 JUMP JUMPDEST PUSH1 0x0 DUP1 PUSH1 0x2 PUSH1 0x0 SWAP1 SLOAD SWAP1 PUSH2 0x100 EXP SWAP1 DIV PUSH20 0xFFFFFFFFFFFFFFFFFFFFFFFFFFFFFFFFFFFFFFFF AND PUSH20 0xFFFFFFFFFFFFFFFFFFFFFFFFFFFFFFFFFFFFFFFF AND PUSH4 0x43183834 PUSH1 0x40 MLOAD DUP2 PUSH4 0xFFFFFFFF AND PUSH1 0xE0 SHL DUP2 MSTORE PUSH1 0x4 ADD PUSH1 0x80 PUSH1 0x40 MLOAD DUP1 DUP4 SUB DUP2 DUP7 DUP1 EXTCODESIZE ISZERO DUP1 ISZERO PUSH2 0x2059 JUMPI PUSH1 0x0 DUP1 REVERT JUMPDEST POP GAS STATICCALL ISZERO DUP1 ISZERO PUSH2 0x206D JUMPI RETURNDATASIZE PUSH1 0x0 DUP1 RETURNDATACOPY RETURNDATASIZE PUSH1 0x0 REVERT JUMPDEST POP POP POP POP PUSH1 0x40 MLOAD RETURNDATASIZE PUSH1 0x1F NOT PUSH1 0x1F DUP3 ADD AND DUP3 ADD DUP1 PUSH1 0x40 MSTORE POP DUP2 ADD SWAP1 PUSH2 0x2091 SWAP2 SWAP1 PUSH2 0x224F JUMP JUMPDEST SWAP1 POP POP DUP1 SWAP3 POP DUP2 SWAP4 POP POP POP SWAP1 SWAP2 JUMP JUMPDEST PUSH1 0x0 DUP2 CALLDATALOAD SWAP1 POP PUSH2 0x20AF DUP2 PUSH2 0x2B37 JUMP JUMPDEST SWAP3 SWAP2 POP POP JUMP JUMPDEST PUSH1 0x0 DUP2 CALLDATALOAD SWAP1 POP PUSH2 0x20C4 DUP2 PUSH2 0x2B4E JUMP JUMPDEST SWAP3 SWAP2 POP POP JUMP JUMPDEST PUSH1 0x0 DUP2 MLOAD SWAP1 POP PUSH2 0x20D9 DUP2 PUSH2 0x2B65 JUMP JUMPDEST SWAP3 SWAP2 POP POP JUMP JUMPDEST PUSH1 0x0 DUP2 MLOAD SWAP1 POP PUSH2 0x20EE DUP2 PUSH2 0x2B7C JUMP JUMPDEST SWAP3 SWAP2 POP POP JUMP JUMPDEST PUSH1 0x0 DUP2 MLOAD SWAP1 POP PUSH2 0x2103 DUP2 PUSH2 0x2B93 JUMP JUMPDEST SWAP3 SWAP2 POP POP JUMP JUMPDEST PUSH1 0x0 DUP2 MLOAD SWAP1 POP PUSH2 0x2118 DUP2 PUSH2 0x2BAA JUMP JUMPDEST SWAP3 SWAP2 POP POP JUMP JUMPDEST PUSH1 0x0 DUP2 CALLDATALOAD SWAP1 POP PUSH2 0x212D DUP2 PUSH2 0x2BC1 JUMP JUMPDEST SWAP3 SWAP2 POP POP JUMP JUMPDEST PUSH1 0x0 DUP2 MLOAD SWAP1 POP PUSH2 0x2142 DUP2 PUSH2 0x2BC1 JUMP JUMPDEST SWAP3 SWAP2 POP POP JUMP JUMPDEST PUSH1 0x0 PUSH1 0x20 DUP3 DUP5 SUB SLT ISZERO PUSH2 0x215E JUMPI PUSH2 0x215D PUSH2 0x2A68 JUMP JUMPDEST JUMPDEST PUSH1 0x0 PUSH2 0x216C DUP5 DUP3 DUP6 ADD PUSH2 0x20A0 JUMP JUMPDEST SWAP2 POP POP SWAP3 SWAP2 POP POP JUMP JUMPDEST PUSH1 0x0 PUSH1 0x20 DUP3 DUP5 SUB SLT ISZERO PUSH2 0x218B JUMPI PUSH2 0x218A PUSH2 0x2A68 JUMP JUMPDEST JUMPDEST PUSH1 0x0 PUSH2 0x2199 DUP5 DUP3 DUP6 ADD PUSH2 0x20B5 JUMP JUMPDEST SWAP2 POP POP SWAP3 SWAP2 POP POP JUMP JUMPDEST PUSH1 0x0 DUP1 PUSH1 0x0 PUSH1 0x60 DUP5 DUP7 SUB SLT ISZERO PUSH2 0x21BB JUMPI PUSH2 0x21BA PUSH2 0x2A68 JUMP JUMPDEST JUMPDEST PUSH1 0x0 PUSH2 0x21C9 DUP7 DUP3 DUP8 ADD PUSH2 0x20A0 JUMP JUMPDEST SWAP4 POP POP PUSH1 0x20 PUSH2 0x21DA DUP7 DUP3 DUP8 ADD PUSH2 0x20A0 JUMP JUMPDEST SWAP3 POP POP PUSH1 0x40 PUSH2 0x21EB DUP7 DUP3 DUP8 ADD PUSH2 0x211E JUMP JUMPDEST SWAP2 POP POP SWAP3 POP SWAP3 POP SWAP3 JUMP JUMPDEST PUSH1 0x0 PUSH1 0x20 DUP3 DUP5 SUB SLT ISZERO PUSH2 0x220B JUMPI PUSH2 0x220A PUSH2 0x2A68 JUMP JUMPDEST JUMPDEST PUSH1 0x0 PUSH2 0x2219 DUP5 DUP3 DUP6 ADD PUSH2 0x20CA JUMP JUMPDEST SWAP2 POP POP SWAP3 SWAP2 POP POP JUMP JUMPDEST PUSH1 0x0 PUSH1 0x20 DUP3 DUP5 SUB SLT ISZERO PUSH2 0x2238 JUMPI PUSH2 0x2237 PUSH2 0x2A68 JUMP JUMPDEST JUMPDEST PUSH1 0x0 PUSH2 0x2246 DUP5 DUP3 DUP6 ADD PUSH2 0x20F4 JUMP JUMPDEST SWAP2 POP POP SWAP3 SWAP2 POP POP JUMP JUMPDEST PUSH1 0x0 DUP1 PUSH1 0x0 DUP1 PUSH1 0x80 DUP6 DUP8 SUB SLT ISZERO PUSH2 0x2269 JUMPI PUSH2 0x2268 PUSH2 0x2A68 JUMP JUMPDEST JUMPDEST PUSH1 0x0 PUSH2 0x2277 DUP8 DUP3 DUP9 ADD PUSH2 0x2109 JUMP JUMPDEST SWAP5 POP POP PUSH1 0x20 PUSH2 0x2288 DUP8 DUP3 DUP9 ADD PUSH2 0x2133 JUMP JUMPDEST SWAP4 POP POP PUSH1 0x40 PUSH2 0x2299 DUP8 DUP3 DUP9 ADD PUSH2 0x20DF JUMP JUMPDEST SWAP3 POP POP PUSH1 0x60 PUSH2 0x22AA DUP8 DUP3 DUP9 ADD PUSH2 0x2133 JUMP JUMPDEST SWAP2 POP POP SWAP3 SWAP6 SWAP2 SWAP5 POP SWAP3 POP JUMP JUMPDEST PUSH2 0x22BF DUP2 PUSH2 0x28BB JUMP JUMPDEST DUP3 MSTORE POP POP JUMP JUMPDEST PUSH2 0x22CE DUP2 PUSH2 0x28DF JUMP JUMPDEST DUP3 MSTORE POP POP JUMP JUMPDEST PUSH2 0x22DD DUP2 PUSH2 0x2967 JUMP JUMPDEST DUP3 MSTORE POP POP JUMP JUMPDEST PUSH2 0x22EC DUP2 PUSH2 0x2979 JUMP JUMPDEST DUP3 MSTORE POP POP JUMP JUMPDEST PUSH2 0x22FB DUP2 PUSH2 0x298B JUMP JUMPDEST DUP3 MSTORE POP POP JUMP JUMPDEST PUSH2 0x230A DUP2 PUSH2 0x2933 JUMP JUMPDEST DUP3 MSTORE POP POP JUMP JUMPDEST PUSH1 0x0 PUSH2 0x231D PUSH1 0x1B DUP4 PUSH2 0x2580 JUMP JUMPDEST SWAP2 POP PUSH2 0x2328 DUP3 PUSH2 0x2A6D JUMP JUMPDEST PUSH1 0x20 DUP3 ADD SWAP1 POP SWAP2 SWAP1 POP JUMP JUMPDEST PUSH1 0x0 PUSH2 0x2340 PUSH1 0x1E DUP4 PUSH2 0x2580 JUMP JUMPDEST SWAP2 POP PUSH2 0x234B DUP3 PUSH2 0x2A96 JUMP JUMPDEST PUSH1 0x20 DUP3 ADD SWAP1 POP SWAP2 SWAP1 POP JUMP JUMPDEST PUSH1 0x0 PUSH2 0x2363 PUSH1 0xF DUP4 PUSH2 0x2580 JUMP JUMPDEST SWAP2 POP PUSH2 0x236E DUP3 PUSH2 0x2ABF JUMP JUMPDEST PUSH1 0x20 DUP3 ADD SWAP1 POP SWAP2 SWAP1 POP JUMP JUMPDEST PUSH1 0x0 PUSH2 0x2386 PUSH1 0x21 DUP4 PUSH2 0x2580 JUMP JUMPDEST SWAP2 POP PUSH2 0x2391 DUP3 PUSH2 0x2AE8 JUMP JUMPDEST PUSH1 0x40 DUP3 ADD SWAP1 POP SWAP2 SWAP1 POP JUMP JUMPDEST PUSH2 0x23A5 DUP2 PUSH2 0x295D JUMP JUMPDEST DUP3 MSTORE POP POP JUMP JUMPDEST PUSH1 0x0 PUSH1 0x60 DUP3 ADD SWAP1 POP PUSH2 0x23C0 PUSH1 0x0 DUP4 ADD DUP7 PUSH2 0x22B6 JUMP JUMPDEST PUSH2 0x23CD PUSH1 0x20 DUP4 ADD DUP6 PUSH2 0x22B6 JUMP JUMPDEST PUSH2 0x23DA PUSH1 0x40 DUP4 ADD DUP5 PUSH2 0x239C JUMP JUMPDEST SWAP5 SWAP4 POP POP POP POP JUMP JUMPDEST PUSH1 0x0 PUSH1 0x20 DUP3 ADD SWAP1 POP PUSH2 0x23F7 PUSH1 0x0 DUP4 ADD DUP5 PUSH2 0x22C5 JUMP JUMPDEST SWAP3 SWAP2 POP POP JUMP JUMPDEST PUSH1 0x0 PUSH1 0x20 DUP3 ADD SWAP1 POP PUSH2 0x2412 PUSH1 0x0 DUP4 ADD DUP5 PUSH2 0x22D4 JUMP JUMPDEST SWAP3 SWAP2 POP POP JUMP JUMPDEST PUSH1 0x0 PUSH1 0x20 DUP3 ADD SWAP1 POP PUSH2 0x242D PUSH1 0x0 DUP4 ADD DUP5 PUSH2 0x22E3 JUMP JUMPDEST SWAP3 SWAP2 POP POP JUMP JUMPDEST PUSH1 0x0 PUSH1 0x20 DUP3 ADD SWAP1 POP PUSH2 0x2448 PUSH1 0x0 DUP4 ADD DUP5 PUSH2 0x22F2 JUMP JUMPDEST SWAP3 SWAP2 POP POP JUMP JUMPDEST PUSH1 0x0 PUSH1 0x20 DUP3 ADD SWAP1 POP DUP2 DUP2 SUB PUSH1 0x0 DUP4 ADD MSTORE PUSH2 0x2467 DUP2 PUSH2 0x2310 JUMP JUMPDEST SWAP1 POP SWAP2 SWAP1 POP JUMP JUMPDEST PUSH1 0x0 PUSH1 0x20 DUP3 ADD SWAP1 POP DUP2 DUP2 SUB PUSH1 0x0 DUP4 ADD MSTORE PUSH2 0x2487 DUP2 PUSH2 0x2333 JUMP JUMPDEST SWAP1 POP SWAP2 SWAP1 POP JUMP JUMPDEST PUSH1 0x0 PUSH1 0x20 DUP3 ADD SWAP1 POP DUP2 DUP2 SUB PUSH1 0x0 DUP4 ADD MSTORE PUSH2 0x24A7 DUP2 PUSH2 0x2356 JUMP JUMPDEST SWAP1 POP SWAP2 SWAP1 POP JUMP JUMPDEST PUSH1 0x0 PUSH1 0x20 DUP3 ADD SWAP1 POP DUP2 DUP2 SUB PUSH1 0x0 DUP4 ADD MSTORE PUSH2 0x24C7 DUP2 PUSH2 0x2379 JUMP JUMPDEST SWAP1 POP SWAP2 SWAP1 POP JUMP JUMPDEST PUSH1 0x0 PUSH1 0x20 DUP3 ADD SWAP1 POP PUSH2 0x24E3 PUSH1 0x0 DUP4 ADD DUP5 PUSH2 0x239C JUMP JUMPDEST SWAP3 SWAP2 POP POP JUMP JUMPDEST PUSH1 0x0 PUSH1 0x40 DUP3 ADD SWAP1 POP PUSH2 0x24FE PUSH1 0x0 DUP4 ADD DUP6 PUSH2 0x239C JUMP JUMPDEST PUSH2 0x250B PUSH1 0x20 DUP4 ADD DUP5 PUSH2 0x2301 JUMP JUMPDEST SWAP4 SWAP3 POP POP POP JUMP JUMPDEST PUSH1 0x0 PUSH1 0x80 DUP3 ADD SWAP1 POP PUSH2 0x2527 PUSH1 0x0 DUP4 ADD DUP8 PUSH2 0x239C JUMP JUMPDEST PUSH2 0x2534 PUSH1 0x20 DUP4 ADD DUP7 PUSH2 0x2301 JUMP JUMPDEST PUSH2 0x2541 PUSH1 0x40 DUP4 ADD DUP6 PUSH2 0x239C JUMP JUMPDEST PUSH2 0x254E PUSH1 0x60 DUP4 ADD DUP5 PUSH2 0x22B6 JUMP JUMPDEST SWAP6 SWAP5 POP POP POP POP POP JUMP JUMPDEST PUSH1 0x0 PUSH1 0x40 DUP3 ADD SWAP1 POP PUSH2 0x256C PUSH1 0x0 DUP4 ADD DUP6 PUSH2 0x239C JUMP JUMPDEST PUSH2 0x2579 PUSH1 0x20 DUP4 ADD DUP5 PUSH2 0x239C JUMP JUMPDEST SWAP4 SWAP3 POP POP POP JUMP JUMPDEST PUSH1 0x0 DUP3 DUP3 MSTORE PUSH1 0x20 DUP3 ADD SWAP1 POP SWAP3 SWAP2 POP POP JUMP JUMPDEST PUSH1 0x0 PUSH2 0x259C DUP3 PUSH2 0x2933 JUMP JUMPDEST SWAP2 POP PUSH2 0x25A7 DUP4 PUSH2 0x2933 JUMP JUMPDEST SWAP3 POP DUP2 PUSH32 0x7FFFFFFFFFFFFFFFFFFFFFFFFFFFFFFFFFFFFFFFFFFFFFFFFFFFFFFFFFFFFFFF SUB DUP4 SGT PUSH1 0x0 DUP4 SLT ISZERO AND ISZERO PUSH2 0x25E2 JUMPI PUSH2 0x25E1 PUSH2 0x2A0A JUMP JUMPDEST JUMPDEST DUP2 PUSH32 0x8000000000000000000000000000000000000000000000000000000000000000 SUB DUP4 SLT PUSH1 0x0 DUP4 SLT AND ISZERO PUSH2 0x261A JUMPI PUSH2 0x2619 PUSH2 0x2A0A JUMP JUMPDEST JUMPDEST DUP3 DUP3 ADD SWAP1 POP SWAP3 SWAP2 POP POP JUMP JUMPDEST PUSH1 0x0 PUSH2 0x2630 DUP3 PUSH2 0x295D JUMP JUMPDEST SWAP2 POP PUSH2 0x263B DUP4 PUSH2 0x295D JUMP JUMPDEST SWAP3 POP DUP3 PUSH32 0xFFFFFFFFFFFFFFFFFFFFFFFFFFFFFFFFFFFFFFFFFFFFFFFFFFFFFFFFFFFFFFFF SUB DUP3 GT ISZERO PUSH2 0x2670 JUMPI PUSH2 0x266F PUSH2 0x2A0A JUMP JUMPDEST JUMPDEST DUP3 DUP3 ADD SWAP1 POP SWAP3 SWAP2 POP POP JUMP JUMPDEST PUSH1 0x0 PUSH2 0x2686 DUP3 PUSH2 0x2933 JUMP JUMPDEST SWAP2 POP PUSH2 0x2691 DUP4 PUSH2 0x2933 JUMP JUMPDEST SWAP3 POP DUP3 PUSH2 0x26A1 JUMPI PUSH2 0x26A0 PUSH2 0x2A39 JUMP JUMPDEST JUMPDEST PUSH1 0x1 PUSH1 0x0 SUB DUP4 EQ PUSH32 0x8000000000000000000000000000000000000000000000000000000000000000 DUP4 EQ AND ISZERO PUSH2 0x26DA JUMPI PUSH2 0x26D9 PUSH2 0x2A0A JUMP JUMPDEST JUMPDEST DUP3 DUP3 SDIV SWAP1 POP SWAP3 SWAP2 POP POP JUMP JUMPDEST PUSH1 0x0 PUSH2 0x26F0 DUP3 PUSH2 0x295D JUMP JUMPDEST SWAP2 POP PUSH2 0x26FB DUP4 PUSH2 0x295D JUMP JUMPDEST SWAP3 POP DUP3 PUSH2 0x270B JUMPI PUSH2 0x270A PUSH2 0x2A39 JUMP JUMPDEST JUMPDEST DUP3 DUP3 DIV SWAP1 POP SWAP3 SWAP2 POP POP JUMP JUMPDEST PUSH1 0x0 PUSH2 0x2721 DUP3 PUSH2 0x2933 JUMP JUMPDEST SWAP2 POP PUSH2 0x272C DUP4 PUSH2 0x2933 JUMP JUMPDEST SWAP3 POP DUP3 PUSH32 0x7FFFFFFFFFFFFFFFFFFFFFFFFFFFFFFFFFFFFFFFFFFFFFFFFFFFFFFFFFFFFFFF DIV DUP3 GT PUSH1 0x0 DUP5 SGT PUSH1 0x0 DUP5 SGT AND AND ISZERO PUSH2 0x276B JUMPI PUSH2 0x276A PUSH2 0x2A0A JUMP JUMPDEST JUMPDEST DUP2 PUSH32 0x8000000000000000000000000000000000000000000000000000000000000000 SDIV DUP4 SLT PUSH1 0x0 DUP5 SLT PUSH1 0x0 DUP5 SGT AND AND ISZERO PUSH2 0x27A8 JUMPI PUSH2 0x27A7 PUSH2 0x2A0A JUMP JUMPDEST JUMPDEST DUP3 PUSH32 0x8000000000000000000000000000000000000000000000000000000000000000 SDIV DUP3 SLT PUSH1 0x0 DUP5 SGT PUSH1 0x0 DUP5 SLT AND AND ISZERO PUSH2 0x27E5 JUMPI PUSH2 0x27E4 PUSH2 0x2A0A JUMP JUMPDEST JUMPDEST DUP3 PUSH32 0x7FFFFFFFFFFFFFFFFFFFFFFFFFFFFFFFFFFFFFFFFFFFFFFFFFFFFFFFFFFFFFFF SDIV DUP3 SLT PUSH1 0x0 DUP5 SLT PUSH1 0x0 DUP5 SLT AND AND ISZERO PUSH2 0x2822 JUMPI PUSH2 0x2821 PUSH2 0x2A0A JUMP JUMPDEST JUMPDEST DUP3 DUP3 MUL SWAP1 POP SWAP3 SWAP2 POP POP JUMP JUMPDEST PUSH1 0x0 PUSH2 0x2838 DUP3 PUSH2 0x295D JUMP JUMPDEST SWAP2 POP PUSH2 0x2843 DUP4 PUSH2 0x295D JUMP JUMPDEST SWAP3 POP DUP2 PUSH32 0xFFFFFFFFFFFFFFFFFFFFFFFFFFFFFFFFFFFFFFFFFFFFFFFFFFFFFFFFFFFFFFFF DIV DUP4 GT DUP3 ISZERO ISZERO AND ISZERO PUSH2 0x287C JUMPI PUSH2 0x287B PUSH2 0x2A0A JUMP JUMPDEST JUMPDEST DUP3 DUP3 MUL SWAP1 POP SWAP3 SWAP2 POP POP JUMP JUMPDEST PUSH1 0x0 PUSH2 0x2892 DUP3 PUSH2 0x295D JUMP JUMPDEST SWAP2 POP PUSH2 0x289D DUP4 PUSH2 0x295D JUMP JUMPDEST SWAP3 POP DUP3 DUP3 LT ISZERO PUSH2 0x28B0 JUMPI PUSH2 0x28AF PUSH2 0x2A0A JUMP JUMPDEST JUMPDEST DUP3 DUP3 SUB SWAP1 POP SWAP3 SWAP2 POP POP JUMP JUMPDEST PUSH1 0x0 PUSH2 0x28C6 DUP3 PUSH2 0x293D JUMP JUMPDEST SWAP1 POP SWAP2 SWAP1 POP JUMP JUMPDEST PUSH1 0x0 PUSH2 0x28D8 DUP3 PUSH2 0x293D JUMP JUMPDEST SWAP1 POP SWAP2 SWAP1 POP JUMP JUMPDEST PUSH1 0x0 DUP2 ISZERO ISZERO SWAP1 POP SWAP2 SWAP1 POP JUMP JUMPDEST PUSH1 0x0 DUP2 SWAP1 POP SWAP2 SWAP1 POP JUMP JUMPDEST PUSH1 0x0 PUSH32 0xFFFFFFFF00000000000000000000000000000000000000000000000000000000 DUP3 AND SWAP1 POP SWAP2 SWAP1 POP JUMP JUMPDEST PUSH1 0x0 PUSH2 0x292C DUP3 PUSH2 0x28BB JUMP JUMPDEST SWAP1 POP SWAP2 SWAP1 POP JUMP JUMPDEST PUSH1 0x0 DUP2 SWAP1 POP SWAP2 SWAP1 POP JUMP JUMPDEST PUSH1 0x0 PUSH20 0xFFFFFFFFFFFFFFFFFFFFFFFFFFFFFFFFFFFFFFFF DUP3 AND SWAP1 POP SWAP2 SWAP1 POP JUMP JUMPDEST PUSH1 0x0 DUP2 SWAP1 POP SWAP2 SWAP1 POP JUMP JUMPDEST PUSH1 0x0 PUSH2 0x2972 DUP3 PUSH2 0x28F5 JUMP JUMPDEST SWAP1 POP SWAP2 SWAP1 POP JUMP JUMPDEST PUSH1 0x0 PUSH2 0x2984 DUP3 PUSH2 0x299D JUMP JUMPDEST SWAP1 POP SWAP2 SWAP1 POP JUMP JUMPDEST PUSH1 0x0 PUSH2 0x2996 DUP3 PUSH2 0x299D JUMP JUMPDEST SWAP1 POP SWAP2 SWAP1 POP JUMP JUMPDEST PUSH1 0x0 PUSH2 0x29A8 DUP3 PUSH2 0x29AF JUMP JUMPDEST SWAP1 POP SWAP2 SWAP1 POP JUMP JUMPDEST PUSH1 0x0 PUSH2 0x29BA DUP3 PUSH2 0x293D JUMP JUMPDEST SWAP1 POP SWAP2 SWAP1 POP JUMP JUMPDEST PUSH1 0x0 PUSH2 0x29CC DUP3 PUSH2 0x295D JUMP JUMPDEST SWAP2 POP PUSH32 0xFFFFFFFFFFFFFFFFFFFFFFFFFFFFFFFFFFFFFFFFFFFFFFFFFFFFFFFFFFFFFFFF DUP3 EQ ISZERO PUSH2 0x29FF JUMPI PUSH2 0x29FE PUSH2 0x2A0A JUMP JUMPDEST JUMPDEST PUSH1 0x1 DUP3 ADD SWAP1 POP SWAP2 SWAP1 POP JUMP JUMPDEST PUSH32 0x4E487B7100000000000000000000000000000000000000000000000000000000 PUSH1 0x0 MSTORE PUSH1 0x11 PUSH1 0x4 MSTORE PUSH1 0x24 PUSH1 0x0 REVERT JUMPDEST PUSH32 0x4E487B7100000000000000000000000000000000000000000000000000000000 PUSH1 0x0 MSTORE PUSH1 0x12 PUSH1 0x4 MSTORE PUSH1 0x24 PUSH1 0x0 REVERT JUMPDEST PUSH1 0x0 DUP1 REVERT JUMPDEST PUSH32 0x5468616E6B7320746F206465706F736974206D6F726520637573640000000000 PUSH1 0x0 DUP3 ADD MSTORE POP JUMP JUMPDEST PUSH32 0x796F75722062616C616E6365206973206E6F742073756666696369656E740000 PUSH1 0x0 DUP3 ADD MSTORE POP JUMP JUMPDEST PUSH32 0x6E6F742073756666696369656E74200000000000000000000000000000000000 PUSH1 0x0 DUP3 ADD MSTORE POP JUMP JUMPDEST PUSH32 0x706C656173652073656E642063656C6F20616D6F756E74203E3D203230205553 PUSH1 0x0 DUP3 ADD MSTORE PUSH32 0x4400000000000000000000000000000000000000000000000000000000000000 PUSH1 0x20 DUP3 ADD MSTORE POP JUMP JUMPDEST PUSH2 0x2B40 DUP2 PUSH2 0x28BB JUMP JUMPDEST DUP2 EQ PUSH2 0x2B4B JUMPI PUSH1 0x0 DUP1 REVERT JUMPDEST POP JUMP JUMPDEST PUSH2 0x2B57 DUP2 PUSH2 0x28CD JUMP JUMPDEST DUP2 EQ PUSH2 0x2B62 JUMPI PUSH1 0x0 DUP1 REVERT JUMPDEST POP JUMP JUMPDEST PUSH2 0x2B6E DUP2 PUSH2 0x28DF JUMP JUMPDEST DUP2 EQ PUSH2 0x2B79 JUMPI PUSH1 0x0 DUP1 REVERT JUMPDEST POP JUMP JUMPDEST PUSH2 0x2B85 DUP2 PUSH2 0x28EB JUMP JUMPDEST DUP2 EQ PUSH2 0x2B90 JUMPI PUSH1 0x0 DUP1 REVERT JUMPDEST POP JUMP JUMPDEST PUSH2 0x2B9C DUP2 PUSH2 0x2921 JUMP JUMPDEST DUP2 EQ PUSH2 0x2BA7 JUMPI PUSH1 0x0 DUP1 REVERT JUMPDEST POP JUMP JUMPDEST PUSH2 0x2BB3 DUP2 PUSH2 0x2933 JUMP JUMPDEST DUP2 EQ PUSH2 0x2BBE JUMPI PUSH1 0x0 DUP1 REVERT JUMPDEST POP JUMP JUMPDEST PUSH2 0x2BCA DUP2 PUSH2 0x295D JUMP JUMPDEST DUP2 EQ PUSH2 0x2BD5 JUMPI PUSH1 0x0 DUP1 REVERT JUMPDEST POP JUMP INVALID LOG2 PUSH5 0x6970667358 0x22 SLT KECCAK256 PUSH6 0x7D2F254C4037 ISZERO JUMP JUMP GASLIMIT LOG0 REVERT COINBASE 0xC 0x27 PUSH29 0x580ECA950BF6AA58E1744848E3520C64736F6C63430008070033000000 "
				},
				"gasEstimates": {
					"creation": {
						"codeDepositCost": "2255600",
						"executionCost": "infinite",
						"totalCost": "infinite"
					},
					"external": {
						"DepositCelo(address)": "infinite",
						"DepositCusd(address)": "infinite",
						"DepositCusdCredit(address,address,uint256)": "infinite",
						"EthUsdPrice()": "2644",
						"celoEurPrice()": "2666",
						"celoUsdPrice()": "2688",
						"checkDepositExist(address)": "2935",
						"depositToActivist(address)": "infinite",
						"depositersLogs(address)": "infinite",
						"index()": "2497",
						"updateCeloEurPriceFeed()": "infinite",
						"updateCeloUSDPriceFeed()": "infinite",
						"updateEthUsdPriceFeed()": "infinite",
						"withdrowCelo(address)": "infinite",
						"withdrowCusd(address)": "infinite",
						"witnetPriceRouter()": "2664"
					},
					"internal": {
						"getCeloEurPrice()": "infinite",
						"getCeloUsdPrice()": "infinite",
						"getEthUsdPrice()": "infinite"
					}
				},
				"methodIdentifiers": {
					"DepositCelo(address)": "09a61767",
					"DepositCusd(address)": "91cfa8c2",
					"DepositCusdCredit(address,address,uint256)": "7f28ee34",
					"EthUsdPrice()": "b447b0a5",
					"celoEurPrice()": "c8525f81",
					"celoUsdPrice()": "df3d4e32",
					"checkDepositExist(address)": "43d37940",
					"depositToActivist(address)": "aea5da5b",
					"depositersLogs(address)": "80ad10df",
					"index()": "2986c0e5",
					"updateCeloEurPriceFeed()": "35178e87",
					"updateCeloUSDPriceFeed()": "32eb658c",
					"updateEthUsdPriceFeed()": "0fd19c15",
					"withdrowCelo(address)": "893c4a84",
					"withdrowCusd(address)": "b1ddf386",
					"witnetPriceRouter()": "4fc87f24"
				}
			},
			"storageLayout": {
				"storage": [
					{
						"astId": 101,
						"contract": "contracts/Hero_Deposit/Deposit.sol:DepositOracle",
						"label": "witnetPriceRouter",
						"offset": 0,
						"slot": "0",
						"type": "t_contract(IWitnetPriceRouter)1274"
					},
					{
						"astId": 104,
						"contract": "contracts/Hero_Deposit/Deposit.sol:DepositOracle",
						"label": "celoEurPrice",
						"offset": 0,
						"slot": "1",
						"type": "t_contract(IWitnetPriceFeed)1186"
					},
					{
						"astId": 107,
						"contract": "contracts/Hero_Deposit/Deposit.sol:DepositOracle",
						"label": "celoUsdPrice",
						"offset": 0,
						"slot": "2",
						"type": "t_contract(IWitnetPriceFeed)1186"
					},
					{
						"astId": 110,
						"contract": "contracts/Hero_Deposit/Deposit.sol:DepositOracle",
						"label": "EthUsdPrice",
						"offset": 0,
						"slot": "3",
						"type": "t_contract(IWitnetPriceFeed)1186"
					},
					{
						"astId": 129,
						"contract": "contracts/Hero_Deposit/Deposit.sol:DepositOracle",
						"label": "depositToActivist",
						"offset": 0,
						"slot": "4",
						"type": "t_mapping(t_address,t_struct(ativistBank)124_storage)"
					},
					{
						"astId": 132,
						"contract": "contracts/Hero_Deposit/Deposit.sol:DepositOracle",
						"label": "CusdERC",
						"offset": 0,
						"slot": "5",
						"type": "t_contract(IERC20)77"
					},
					{
						"astId": 160,
						"contract": "contracts/Hero_Deposit/Deposit.sol:DepositOracle",
						"label": "dep",
						"offset": 0,
						"slot": "6",
						"type": "t_struct(deposit)119_storage"
					},
					{
						"astId": 163,
						"contract": "contracts/Hero_Deposit/Deposit.sol:DepositOracle",
						"label": "index",
						"offset": 0,
						"slot": "10",
						"type": "t_uint256"
					},
					{
						"astId": 186,
						"contract": "contracts/Hero_Deposit/Deposit.sol:DepositOracle",
						"label": "depositersLogs",
						"offset": 0,
						"slot": "11",
						"type": "t_mapping(t_address,t_struct(deposit)119_storage)"
					},
					{
						"astId": 188,
						"contract": "contracts/Hero_Deposit/Deposit.sol:DepositOracle",
						"label": "owner",
						"offset": 0,
						"slot": "12",
						"type": "t_address"
					},
					{
						"astId": 190,
						"contract": "contracts/Hero_Deposit/Deposit.sol:DepositOracle",
						"label": "locked",
						"offset": 20,
						"slot": "12",
						"type": "t_bool"
					}
				],
				"types": {
					"t_address": {
						"encoding": "inplace",
						"label": "address",
						"numberOfBytes": "20"
					},
					"t_bool": {
						"encoding": "inplace",
						"label": "bool",
						"numberOfBytes": "1"
					},
					"t_contract(IERC20)77": {
						"encoding": "inplace",
						"label": "contract IERC20",
						"numberOfBytes": "20"
					},
					"t_contract(IWitnetPriceFeed)1186": {
						"encoding": "inplace",
						"label": "contract IWitnetPriceFeed",
						"numberOfBytes": "20"
					},
					"t_contract(IWitnetPriceRouter)1274": {
						"encoding": "inplace",
						"label": "contract IWitnetPriceRouter",
						"numberOfBytes": "20"
					},
					"t_int256": {
						"encoding": "inplace",
						"label": "int256",
						"numberOfBytes": "32"
					},
					"t_mapping(t_address,t_struct(ativistBank)124_storage)": {
						"encoding": "mapping",
						"key": "t_address",
						"label": "mapping(address => struct DepositOracle.ativistBank)",
						"numberOfBytes": "32",
						"value": "t_struct(ativistBank)124_storage"
					},
					"t_mapping(t_address,t_struct(deposit)119_storage)": {
						"encoding": "mapping",
						"key": "t_address",
						"label": "mapping(address => struct DepositOracle.deposit)",
						"numberOfBytes": "32",
						"value": "t_struct(deposit)119_storage"
					},
					"t_struct(ativistBank)124_storage": {
						"encoding": "inplace",
						"label": "struct DepositOracle.ativistBank",
						"members": [
							{
								"astId": 121,
								"contract": "contracts/Hero_Deposit/Deposit.sol:DepositOracle",
								"label": "celoCoin",
								"offset": 0,
								"slot": "0",
								"type": "t_uint256"
							},
							{
								"astId": 123,
								"contract": "contracts/Hero_Deposit/Deposit.sol:DepositOracle",
								"label": "usdcCoin",
								"offset": 0,
								"slot": "1",
								"type": "t_uint256"
							}
						],
						"numberOfBytes": "64"
					},
					"t_struct(deposit)119_storage": {
						"encoding": "inplace",
						"label": "struct DepositOracle.deposit",
						"members": [
							{
								"astId": 112,
								"contract": "contracts/Hero_Deposit/Deposit.sol:DepositOracle",
								"label": "id",
								"offset": 0,
								"slot": "0",
								"type": "t_uint256"
							},
							{
								"astId": 114,
								"contract": "contracts/Hero_Deposit/Deposit.sol:DepositOracle",
								"label": "totalDepositsValue",
								"offset": 0,
								"slot": "1",
								"type": "t_int256"
							},
							{
								"astId": 116,
								"contract": "contracts/Hero_Deposit/Deposit.sol:DepositOracle",
								"label": "totalDepositTimes",
								"offset": 0,
								"slot": "2",
								"type": "t_uint256"
							},
							{
								"astId": 118,
								"contract": "contracts/Hero_Deposit/Deposit.sol:DepositOracle",
								"label": "userWallet",
								"offset": 0,
								"slot": "3",
								"type": "t_address"
							}
						],
						"numberOfBytes": "128"
					},
					"t_uint256": {
						"encoding": "inplace",
						"label": "uint256",
						"numberOfBytes": "32"
					}
				}
			},
			"userdoc": {
				"kind": "user",
				"methods": {
					"constructor": {
						"notice": "IMPORTANT: replace the address below with the WitnetPriceRouter address of the network you are using! Please find the address here: https://docs.witnet.io/smart-contracts/price-feeds/contract-addresses"
					},
					"updateCeloUSDPriceFeed()": {
						"notice": "Detects if the WitnetPriceRouter is now pointing to a different IWitnetPriceFeed implementation:"
					}
				},
				"version": 1
			}
		}
	}
}