{
	"contracts/Hero_Deposit/Deposit.sol": {
		"DepositOracle": {
			"abi": [
				{
					"inputs": [],
					"stateMutability": "nonpayable",
					"type": "constructor"
				},
				{
					"anonymous": false,
					"inputs": [
						{
							"indexed": true,
							"internalType": "address",
							"name": "ativist",
							"type": "address"
						},
						{
							"indexed": false,
							"internalType": "uint256",
							"name": "value",
							"type": "uint256"
						},
						{
							"indexed": false,
							"internalType": "uint256",
							"name": "time",
							"type": "uint256"
						}
					],
					"name": "activistPayment",
					"type": "event"
				},
				{
					"anonymous": false,
					"inputs": [
						{
							"indexed": true,
							"internalType": "address",
							"name": "from",
							"type": "address"
						},
						{
							"indexed": true,
							"internalType": "address",
							"name": "to",
							"type": "address"
						},
						{
							"indexed": false,
							"internalType": "uint256",
							"name": "value",
							"type": "uint256"
						},
						{
							"indexed": false,
							"internalType": "uint256",
							"name": "time",
							"type": "uint256"
						}
					],
					"name": "depositLogs",
					"type": "event"
				},
				{
					"inputs": [
						{
							"internalType": "address payable",
							"name": "_to",
							"type": "address"
						}
					],
					"name": "DepositCelo",
					"outputs": [
						{
							"internalType": "uint256",
							"name": "totalValueUsd",
							"type": "uint256"
						},
						{
							"internalType": "int256",
							"name": "currentCeloUsdPrice",
							"type": "int256"
						}
					],
					"stateMutability": "payable",
					"type": "function"
				},
				{
					"inputs": [
						{
							"internalType": "address",
							"name": "_to",
							"type": "address"
						},
						{
							"internalType": "uint256",
							"name": "amount",
							"type": "uint256"
						}
					],
					"name": "DepositCusd",
					"outputs": [
						{
							"internalType": "bool",
							"name": "",
							"type": "bool"
						}
					],
					"stateMutability": "nonpayable",
					"type": "function"
				},
				{
					"inputs": [
						{
							"internalType": "address",
							"name": "contributer",
							"type": "address"
						},
						{
							"internalType": "address",
							"name": "_to",
							"type": "address"
						},
						{
							"internalType": "uint256",
							"name": "amount",
							"type": "uint256"
						}
					],
					"name": "DepositCusdCredit",
					"outputs": [
						{
							"internalType": "bool",
							"name": "",
							"type": "bool"
						}
					],
					"stateMutability": "nonpayable",
					"type": "function"
				},
				{
					"inputs": [],
					"name": "EthUsdPrice",
					"outputs": [
						{
							"internalType": "contract IWitnetPriceFeed",
							"name": "",
							"type": "address"
						}
					],
					"stateMutability": "view",
					"type": "function"
				},
				{
					"inputs": [],
					"name": "celoEurPrice",
					"outputs": [
						{
							"internalType": "contract IWitnetPriceFeed",
							"name": "",
							"type": "address"
						}
					],
					"stateMutability": "view",
					"type": "function"
				},
				{
					"inputs": [],
					"name": "celoUsdPrice",
					"outputs": [
						{
							"internalType": "contract IWitnetPriceFeed",
							"name": "",
							"type": "address"
						}
					],
					"stateMutability": "view",
					"type": "function"
				},
				{
					"inputs": [
						{
							"internalType": "address",
							"name": "wallet",
							"type": "address"
						}
					],
					"name": "checkDepositExist",
					"outputs": [
						{
							"internalType": "bool",
							"name": "",
							"type": "bool"
						}
					],
					"stateMutability": "view",
					"type": "function"
				},
				{
					"inputs": [
						{
							"internalType": "address",
							"name": "",
							"type": "address"
						}
					],
					"name": "depositToActivist",
					"outputs": [
						{
							"internalType": "uint256",
							"name": "celoCoin",
							"type": "uint256"
						},
						{
							"internalType": "uint256",
							"name": "usdcCoin",
							"type": "uint256"
						}
					],
					"stateMutability": "view",
					"type": "function"
				},
				{
					"inputs": [
						{
							"internalType": "address",
							"name": "",
							"type": "address"
						}
					],
					"name": "depositersLogs",
					"outputs": [
						{
							"internalType": "uint256",
							"name": "id",
							"type": "uint256"
						},
						{
							"internalType": "int256",
							"name": "totalDepositsValue",
							"type": "int256"
						},
						{
							"internalType": "uint256",
							"name": "totalDepositTimes",
							"type": "uint256"
						},
						{
							"internalType": "address",
							"name": "userWallet",
							"type": "address"
						}
					],
					"stateMutability": "view",
					"type": "function"
				},
				{
					"inputs": [],
					"name": "index",
					"outputs": [
						{
							"internalType": "uint256",
							"name": "",
							"type": "uint256"
						}
					],
					"stateMutability": "view",
					"type": "function"
				},
				{
					"inputs": [],
					"name": "updateCeloEurPriceFeed",
					"outputs": [],
					"stateMutability": "nonpayable",
					"type": "function"
				},
				{
					"inputs": [],
					"name": "updateCeloUSDPriceFeed",
					"outputs": [],
					"stateMutability": "nonpayable",
					"type": "function"
				},
				{
					"inputs": [],
					"name": "updateEthUsdPriceFeed",
					"outputs": [],
					"stateMutability": "nonpayable",
					"type": "function"
				},
				{
					"inputs": [
						{
							"internalType": "address payable",
							"name": "_to",
							"type": "address"
						}
					],
					"name": "withdrowCelo",
					"outputs": [
						{
							"internalType": "uint256",
							"name": "",
							"type": "uint256"
						},
						{
							"internalType": "uint256",
							"name": "",
							"type": "uint256"
						}
					],
					"stateMutability": "payable",
					"type": "function"
				},
				{
					"inputs": [
						{
							"internalType": "address payable",
							"name": "_to",
							"type": "address"
						}
					],
					"name": "withdrowCusd",
					"outputs": [
						{
							"internalType": "uint256",
							"name": "",
							"type": "uint256"
						},
						{
							"internalType": "uint256",
							"name": "",
							"type": "uint256"
						}
					],
					"stateMutability": "payable",
					"type": "function"
				},
				{
					"inputs": [],
					"name": "witnetPriceRouter",
					"outputs": [
						{
							"internalType": "contract IWitnetPriceRouter",
							"name": "",
							"type": "address"
						}
					],
					"stateMutability": "view",
					"type": "function"
				}
			],
			"devdoc": {
				"kind": "dev",
				"methods": {},
				"version": 1
			},
			"evm": {
				"assembly": "    /* \"contracts/Hero_Deposit/Deposit.sol\":239:9872  contract DepositOracle {\r... */\n  mstore(0x40, 0x80)\n    /* \"contracts/Hero_Deposit/Deposit.sol\":1358:1359  0 */\n  0x00\n    /* \"contracts/Hero_Deposit/Deposit.sol\":1335:1359  uint256 public index = 0 */\n  0x0a\n  sstore\n    /* \"contracts/Hero_Deposit/Deposit.sol\":1026:1300  constructor() {\r... */\n  callvalue\n  dup1\n  iszero\n  tag_1\n  jumpi\n  0x00\n  dup1\n  revert\ntag_1:\n  pop\n    /* \"contracts/Hero_Deposit/Deposit.sol\":1059:1069  msg.sender */\n  caller\n    /* \"contracts/Hero_Deposit/Deposit.sol\":1051:1056  owner */\n  0x0c\n  0x00\n    /* \"contracts/Hero_Deposit/Deposit.sol\":1051:1069  owner = msg.sender */\n  0x0100\n  exp\n  dup2\n  sload\n  dup2\n  0xffffffffffffffffffffffffffffffffffffffff\n  mul\n  not\n  and\n  swap1\n  dup4\n  0xffffffffffffffffffffffffffffffffffffffff\n  and\n  mul\n  or\n  swap1\n  sstore\n  pop\n    /* \"contracts/Hero_Deposit/Deposit.sol\":1133:1175  0x6f8A7E2bBc1eDb8782145cD1089251f6e2C738AE */\n  0x6f8a7e2bbc1edb8782145cd1089251f6e2c738ae\n    /* \"contracts/Hero_Deposit/Deposit.sol\":1080:1097  witnetPriceRouter */\n  0x00\n  dup1\n    /* \"contracts/Hero_Deposit/Deposit.sol\":1080:1186  witnetPriceRouter = IWitnetPriceRouter(\r... */\n  0x0100\n  exp\n  dup2\n  sload\n  dup2\n  0xffffffffffffffffffffffffffffffffffffffff\n  mul\n  not\n  and\n  swap1\n  dup4\n  0xffffffffffffffffffffffffffffffffffffffff\n  and\n  mul\n  or\n  swap1\n  sstore\n  pop\n    /* \"contracts/Hero_Deposit/Deposit.sol\":1197:1221  updateCeloUSDPriceFeed() */\n  tag_4\n    /* \"contracts/Hero_Deposit/Deposit.sol\":1197:1219  updateCeloUSDPriceFeed */\n  shl(0x20, tag_5)\n    /* \"contracts/Hero_Deposit/Deposit.sol\":1197:1221  updateCeloUSDPriceFeed() */\n  0x20\n  shr\n  jump\t// in\ntag_4:\n    /* \"contracts/Hero_Deposit/Deposit.sol\":1249:1291  0x874069Fa1Eb16D44d622F2e0Ca25eeA172369bC1 */\n  0x874069fa1eb16d44d622f2e0ca25eea172369bc1\n    /* \"contracts/Hero_Deposit/Deposit.sol\":1232:1239  CusdERC */\n  0x05\n  0x00\n    /* \"contracts/Hero_Deposit/Deposit.sol\":1232:1292  CusdERC = IERC20(0x874069Fa1Eb16D44d622F2e0Ca25eeA172369bC1) */\n  0x0100\n  exp\n  dup2\n  sload\n  dup2\n  0xffffffffffffffffffffffffffffffffffffffff\n  mul\n  not\n  and\n  swap1\n  dup4\n  0xffffffffffffffffffffffffffffffffffffffff\n  and\n  mul\n  or\n  swap1\n  sstore\n  pop\n    /* \"contracts/Hero_Deposit/Deposit.sol\":239:9872  contract DepositOracle {\r... */\n  jump(tag_6)\n    /* \"contracts/Hero_Deposit/Deposit.sol\":2017:2309  function updateCeloUSDPriceFeed() public {\r... */\ntag_5:\n    /* \"contracts/Hero_Deposit/Deposit.sol\":2069:2090  IERC165 _newPriceFeed */\n  0x00\n    /* \"contracts/Hero_Deposit/Deposit.sol\":2093:2110  witnetPriceRouter */\n  dup1\n  0x00\n  swap1\n  sload\n  swap1\n  0x0100\n  exp\n  swap1\n  div\n  0xffffffffffffffffffffffffffffffffffffffff\n  and\n    /* \"contracts/Hero_Deposit/Deposit.sol\":2093:2123  witnetPriceRouter.getPriceFeed */\n  0xffffffffffffffffffffffffffffffffffffffff\n  and\n  0x8c0adf62\n    /* \"contracts/Hero_Deposit/Deposit.sol\":2145:2155  0x9ed884be */\n  0x9ed884be\n    /* \"contracts/Hero_Deposit/Deposit.sol\":2138:2156  bytes4(0x9ed884be) */\n  0xe0\n  shl\n    /* \"contracts/Hero_Deposit/Deposit.sol\":2093:2167  witnetPriceRouter.getPriceFeed(\r... */\n  mload(0x40)\n  dup3\n  0xffffffff\n  and\n  0xe0\n  shl\n  dup2\n  mstore\n  0x04\n  add\n  tag_8\n  swap2\n  swap1\n  tag_9\n  jump\t// in\ntag_8:\n  0x20\n  mload(0x40)\n  dup1\n  dup4\n  sub\n  dup2\n  dup7\n  dup1\n  extcodesize\n  iszero\n  dup1\n  iszero\n  tag_10\n  jumpi\n  0x00\n  dup1\n  revert\ntag_10:\n  pop\n  gas\n  staticcall\n  iszero\n  dup1\n  iszero\n  tag_12\n  jumpi\n  returndatasize\n  0x00\n  dup1\n  returndatacopy\n  revert(0x00, returndatasize)\ntag_12:\n  pop\n  pop\n  pop\n  pop\n  mload(0x40)\n  returndatasize\n  not(0x1f)\n  0x1f\n  dup3\n  add\n  and\n  dup3\n  add\n  dup1\n  0x40\n  mstore\n  pop\n  dup2\n  add\n  swap1\n  tag_13\n  swap2\n  swap1\n  tag_14\n  jump\t// in\ntag_13:\n    /* \"contracts/Hero_Deposit/Deposit.sol\":2069:2167  IERC165 _newPriceFeed = witnetPriceRouter.getPriceFeed(\r... */\n  swap1\n  pop\n    /* \"contracts/Hero_Deposit/Deposit.sol\":2216:2217  0 */\n  0x00\n    /* \"contracts/Hero_Deposit/Deposit.sol\":2182:2218  address(_newPriceFeed) != address(0) */\n  0xffffffffffffffffffffffffffffffffffffffff\n  and\n    /* \"contracts/Hero_Deposit/Deposit.sol\":2190:2203  _newPriceFeed */\n  dup2\n    /* \"contracts/Hero_Deposit/Deposit.sol\":2182:2218  address(_newPriceFeed) != address(0) */\n  0xffffffffffffffffffffffffffffffffffffffff\n  and\n  eq\n    /* \"contracts/Hero_Deposit/Deposit.sol\":2178:2302  if (address(_newPriceFeed) != address(0)) {\r... */\n  tag_15\n  jumpi\n    /* \"contracts/Hero_Deposit/Deposit.sol\":2275:2288  _newPriceFeed */\n  dup1\n    /* \"contracts/Hero_Deposit/Deposit.sol\":2235:2247  celoUsdPrice */\n  0x02\n  0x00\n    /* \"contracts/Hero_Deposit/Deposit.sol\":2235:2290  celoUsdPrice = IWitnetPriceFeed(address(_newPriceFeed)) */\n  0x0100\n  exp\n  dup2\n  sload\n  dup2\n  0xffffffffffffffffffffffffffffffffffffffff\n  mul\n  not\n  and\n  swap1\n  dup4\n  0xffffffffffffffffffffffffffffffffffffffff\n  and\n  mul\n  or\n  swap1\n  sstore\n  pop\n    /* \"contracts/Hero_Deposit/Deposit.sol\":2178:2302  if (address(_newPriceFeed) != address(0)) {\r... */\ntag_15:\n    /* \"contracts/Hero_Deposit/Deposit.sol\":2058:2309  {\r... */\n  pop\n    /* \"contracts/Hero_Deposit/Deposit.sol\":2017:2309  function updateCeloUSDPriceFeed() public {\r... */\n  jump\t// out\n    /* \"#utility.yul\":7:182   */\ntag_17:\n    /* \"#utility.yul\":80:85   */\n  0x00\n    /* \"#utility.yul\":111:117   */\n  dup2\n    /* \"#utility.yul\":105:118   */\n  mload\n    /* \"#utility.yul\":96:118   */\n  swap1\n  pop\n    /* \"#utility.yul\":127:176   */\n  tag_19\n    /* \"#utility.yul\":170:175   */\n  dup2\n    /* \"#utility.yul\":127:176   */\n  tag_20\n  jump\t// in\ntag_19:\n    /* \"#utility.yul\":7:182   */\n  swap3\n  swap2\n  pop\n  pop\n  jump\t// out\n    /* \"#utility.yul\":188:571   */\ntag_14:\n    /* \"#utility.yul\":274:280   */\n  0x00\n    /* \"#utility.yul\":323:325   */\n  0x20\n    /* \"#utility.yul\":311:320   */\n  dup3\n    /* \"#utility.yul\":302:309   */\n  dup5\n    /* \"#utility.yul\":298:321   */\n  sub\n    /* \"#utility.yul\":294:326   */\n  slt\n    /* \"#utility.yul\":291:410   */\n  iszero\n  tag_22\n  jumpi\n    /* \"#utility.yul\":329:408   */\n  tag_23\n  tag_24\n  jump\t// in\ntag_23:\n    /* \"#utility.yul\":291:410   */\ntag_22:\n    /* \"#utility.yul\":449:450   */\n  0x00\n    /* \"#utility.yul\":474:554   */\n  tag_25\n    /* \"#utility.yul\":546:553   */\n  dup5\n    /* \"#utility.yul\":537:543   */\n  dup3\n    /* \"#utility.yul\":526:535   */\n  dup6\n    /* \"#utility.yul\":522:544   */\n  add\n    /* \"#utility.yul\":474:554   */\n  tag_17\n  jump\t// in\ntag_25:\n    /* \"#utility.yul\":464:554   */\n  swap2\n  pop\n    /* \"#utility.yul\":420:564   */\n  pop\n    /* \"#utility.yul\":188:571   */\n  swap3\n  swap2\n  pop\n  pop\n  jump\t// out\n    /* \"#utility.yul\":577:706   */\ntag_26:\n    /* \"#utility.yul\":663:699   */\n  tag_28\n    /* \"#utility.yul\":693:698   */\n  dup2\n    /* \"#utility.yul\":663:699   */\n  tag_29\n  jump\t// in\ntag_28:\n    /* \"#utility.yul\":658:661   */\n  dup3\n    /* \"#utility.yul\":651:700   */\n  mstore\n    /* \"#utility.yul\":577:706   */\n  pop\n  pop\n  jump\t// out\n    /* \"#utility.yul\":712:932   */\ntag_9:\n    /* \"#utility.yul\":804:808   */\n  0x00\n    /* \"#utility.yul\":842:844   */\n  0x20\n    /* \"#utility.yul\":831:840   */\n  dup3\n    /* \"#utility.yul\":827:845   */\n  add\n    /* \"#utility.yul\":819:845   */\n  swap1\n  pop\n    /* \"#utility.yul\":855:925   */\n  tag_31\n    /* \"#utility.yul\":922:923   */\n  0x00\n    /* \"#utility.yul\":911:920   */\n  dup4\n    /* \"#utility.yul\":907:924   */\n  add\n    /* \"#utility.yul\":898:904   */\n  dup5\n    /* \"#utility.yul\":855:925   */\n  tag_26\n  jump\t// in\ntag_31:\n    /* \"#utility.yul\":712:932   */\n  swap3\n  swap2\n  pop\n  pop\n  jump\t// out\n    /* \"#utility.yul\":1019:1115   */\ntag_34:\n    /* \"#utility.yul\":1056:1063   */\n  0x00\n    /* \"#utility.yul\":1085:1109   */\n  tag_36\n    /* \"#utility.yul\":1103:1108   */\n  dup3\n    /* \"#utility.yul\":1085:1109   */\n  tag_37\n  jump\t// in\ntag_36:\n    /* \"#utility.yul\":1074:1109   */\n  swap1\n  pop\n    /* \"#utility.yul\":1019:1115   */\n  swap2\n  swap1\n  pop\n  jump\t// out\n    /* \"#utility.yul\":1121:1270   */\ntag_38:\n    /* \"#utility.yul\":1157:1164   */\n  0x00\n    /* \"#utility.yul\":1197:1263   */\n  0xffffffff00000000000000000000000000000000000000000000000000000000\n    /* \"#utility.yul\":1190:1195   */\n  dup3\n    /* \"#utility.yul\":1186:1264   */\n  and\n    /* \"#utility.yul\":1175:1264   */\n  swap1\n  pop\n    /* \"#utility.yul\":1121:1270   */\n  swap2\n  swap1\n  pop\n  jump\t// out\n    /* \"#utility.yul\":1276:1388   */\ntag_40:\n    /* \"#utility.yul\":1329:1336   */\n  0x00\n    /* \"#utility.yul\":1358:1382   */\n  tag_42\n    /* \"#utility.yul\":1376:1381   */\n  dup3\n    /* \"#utility.yul\":1358:1382   */\n  tag_34\n  jump\t// in\ntag_42:\n    /* \"#utility.yul\":1347:1382   */\n  swap1\n  pop\n    /* \"#utility.yul\":1276:1388   */\n  swap2\n  swap1\n  pop\n  jump\t// out\n    /* \"#utility.yul\":1394:1520   */\ntag_37:\n    /* \"#utility.yul\":1431:1438   */\n  0x00\n    /* \"#utility.yul\":1471:1513   */\n  0xffffffffffffffffffffffffffffffffffffffff\n    /* \"#utility.yul\":1464:1469   */\n  dup3\n    /* \"#utility.yul\":1460:1514   */\n  and\n    /* \"#utility.yul\":1449:1514   */\n  swap1\n  pop\n    /* \"#utility.yul\":1394:1520   */\n  swap2\n  swap1\n  pop\n  jump\t// out\n    /* \"#utility.yul\":1526:1637   */\ntag_29:\n    /* \"#utility.yul\":1575:1584   */\n  0x00\n    /* \"#utility.yul\":1608:1631   */\n  tag_45\n    /* \"#utility.yul\":1625:1630   */\n  dup3\n    /* \"#utility.yul\":1608:1631   */\n  tag_38\n  jump\t// in\ntag_45:\n    /* \"#utility.yul\":1595:1631   */\n  swap1\n  pop\n    /* \"#utility.yul\":1526:1637   */\n  swap2\n  swap1\n  pop\n  jump\t// out\n    /* \"#utility.yul\":1766:1883   */\ntag_24:\n    /* \"#utility.yul\":1875:1876   */\n  0x00\n    /* \"#utility.yul\":1872:1873   */\n  dup1\n    /* \"#utility.yul\":1865:1877   */\n  revert\n    /* \"#utility.yul\":1889:2043   */\ntag_20:\n    /* \"#utility.yul\":1978:2018   */\n  tag_50\n    /* \"#utility.yul\":2012:2017   */\n  dup2\n    /* \"#utility.yul\":1978:2018   */\n  tag_40\n  jump\t// in\ntag_50:\n    /* \"#utility.yul\":1971:1976   */\n  dup2\n    /* \"#utility.yul\":1968:2019   */\n  eq\n    /* \"#utility.yul\":1958:2037   */\n  tag_51\n  jumpi\n    /* \"#utility.yul\":2033:2034   */\n  0x00\n    /* \"#utility.yul\":2030:2031   */\n  dup1\n    /* \"#utility.yul\":2023:2035   */\n  revert\n    /* \"#utility.yul\":1958:2037   */\ntag_51:\n    /* \"#utility.yul\":1889:2043   */\n  pop\n  jump\t// out\n    /* \"contracts/Hero_Deposit/Deposit.sol\":239:9872  contract DepositOracle {\r... */\ntag_6:\n  dataSize(sub_0)\n  dup1\n  dataOffset(sub_0)\n  0x00\n  codecopy\n  0x00\n  return\nstop\n\nsub_0: assembly {\n        /* \"contracts/Hero_Deposit/Deposit.sol\":239:9872  contract DepositOracle {\r... */\n      mstore(0x40, 0x80)\n      jumpi(tag_1, lt(calldatasize, 0x04))\n      shr(0xe0, calldataload(0x00))\n      dup1\n      0x7f28ee34\n      gt\n      tag_18\n      jumpi\n      dup1\n      0xb1ddf386\n      gt\n      tag_19\n      jumpi\n      dup1\n      0xb1ddf386\n      eq\n      tag_14\n      jumpi\n      dup1\n      0xb447b0a5\n      eq\n      tag_15\n      jumpi\n      dup1\n      0xc8525f81\n      eq\n      tag_16\n      jumpi\n      dup1\n      0xdf3d4e32\n      eq\n      tag_17\n      jumpi\n      jump(tag_1)\n    tag_19:\n      dup1\n      0x7f28ee34\n      eq\n      tag_10\n      jumpi\n      dup1\n      0x80ad10df\n      eq\n      tag_11\n      jumpi\n      dup1\n      0x893c4a84\n      eq\n      tag_12\n      jumpi\n      dup1\n      0xaea5da5b\n      eq\n      tag_13\n      jumpi\n      jump(tag_1)\n    tag_18:\n      dup1\n      0x35178e87\n      gt\n      tag_20\n      jumpi\n      dup1\n      0x35178e87\n      eq\n      tag_6\n      jumpi\n      dup1\n      0x43d37940\n      eq\n      tag_7\n      jumpi\n      dup1\n      0x4f55ae54\n      eq\n      tag_8\n      jumpi\n      dup1\n      0x4fc87f24\n      eq\n      tag_9\n      jumpi\n      jump(tag_1)\n    tag_20:\n      dup1\n      0x09a61767\n      eq\n      tag_2\n      jumpi\n      dup1\n      0x0fd19c15\n      eq\n      tag_3\n      jumpi\n      dup1\n      0x2986c0e5\n      eq\n      tag_4\n      jumpi\n      dup1\n      0x32eb658c\n      eq\n      tag_5\n      jumpi\n    tag_1:\n      0x00\n      dup1\n      revert\n        /* \"contracts/Hero_Deposit/Deposit.sol\":4515:6056  function DepositCelo(address payable _to)\r... */\n    tag_2:\n      tag_21\n      0x04\n      dup1\n      calldatasize\n      sub\n      dup2\n      add\n      swap1\n      tag_22\n      swap2\n      swap1\n      tag_23\n      jump\t// in\n    tag_22:\n      tag_24\n      jump\t// in\n    tag_21:\n      mload(0x40)\n      tag_25\n      swap3\n      swap2\n      swap1\n      tag_26\n      jump\t// in\n    tag_25:\n      mload(0x40)\n      dup1\n      swap2\n      sub\n      swap1\n      return\n        /* \"contracts/Hero_Deposit/Deposit.sol\":2617:2907  function updateEthUsdPriceFeed() public {\r... */\n    tag_3:\n      callvalue\n      dup1\n      iszero\n      tag_27\n      jumpi\n      0x00\n      dup1\n      revert\n    tag_27:\n      pop\n      tag_28\n      tag_29\n      jump\t// in\n    tag_28:\n      stop\n        /* \"contracts/Hero_Deposit/Deposit.sol\":1335:1359  uint256 public index = 0 */\n    tag_4:\n      callvalue\n      dup1\n      iszero\n      tag_30\n      jumpi\n      0x00\n      dup1\n      revert\n    tag_30:\n      pop\n      tag_31\n      tag_32\n      jump\t// in\n    tag_31:\n      mload(0x40)\n      tag_33\n      swap2\n      swap1\n      tag_34\n      jump\t// in\n    tag_33:\n      mload(0x40)\n      dup1\n      swap2\n      sub\n      swap1\n      return\n        /* \"contracts/Hero_Deposit/Deposit.sol\":2017:2309  function updateCeloUSDPriceFeed() public {\r... */\n    tag_5:\n      callvalue\n      dup1\n      iszero\n      tag_35\n      jumpi\n      0x00\n      dup1\n      revert\n    tag_35:\n      pop\n      tag_36\n      tag_37\n      jump\t// in\n    tag_36:\n      stop\n        /* \"contracts/Hero_Deposit/Deposit.sol\":2317:2609  function updateCeloEurPriceFeed() public {\r... */\n    tag_6:\n      callvalue\n      dup1\n      iszero\n      tag_38\n      jumpi\n      0x00\n      dup1\n      revert\n    tag_38:\n      pop\n      tag_39\n      tag_40\n      jump\t// in\n    tag_39:\n      stop\n        /* \"contracts/Hero_Deposit/Deposit.sol\":4280:4486  function checkDepositExist(address wallet) public view returns (bool) {\r... */\n    tag_7:\n      callvalue\n      dup1\n      iszero\n      tag_41\n      jumpi\n      0x00\n      dup1\n      revert\n    tag_41:\n      pop\n      tag_42\n      0x04\n      dup1\n      calldatasize\n      sub\n      dup2\n      add\n      swap1\n      tag_43\n      swap2\n      swap1\n      tag_44\n      jump\t// in\n    tag_43:\n      tag_45\n      jump\t// in\n    tag_42:\n      mload(0x40)\n      tag_46\n      swap2\n      swap1\n      tag_47\n      jump\t// in\n    tag_46:\n      mload(0x40)\n      dup1\n      swap2\n      sub\n      swap1\n      return\n        /* \"contracts/Hero_Deposit/Deposit.sol\":6957:7804  function DepositCusd(address _to,uint256 amount)\r... */\n    tag_8:\n      callvalue\n      dup1\n      iszero\n      tag_48\n      jumpi\n      0x00\n      dup1\n      revert\n    tag_48:\n      pop\n      tag_49\n      0x04\n      dup1\n      calldatasize\n      sub\n      dup2\n      add\n      swap1\n      tag_50\n      swap2\n      swap1\n      tag_51\n      jump\t// in\n    tag_50:\n      tag_52\n      jump\t// in\n    tag_49:\n      mload(0x40)\n      tag_53\n      swap2\n      swap1\n      tag_47\n      jump\t// in\n    tag_53:\n      mload(0x40)\n      dup1\n      swap2\n      sub\n      swap1\n      return\n        /* \"contracts/Hero_Deposit/Deposit.sol\":269:312  IWitnetPriceRouter public witnetPriceRouter */\n    tag_9:\n      callvalue\n      dup1\n      iszero\n      tag_54\n      jumpi\n      0x00\n      dup1\n      revert\n    tag_54:\n      pop\n      tag_55\n      tag_56\n      jump\t// in\n    tag_55:\n      mload(0x40)\n      tag_57\n      swap2\n      swap1\n      tag_58\n      jump\t// in\n    tag_57:\n      mload(0x40)\n      dup1\n      swap2\n      sub\n      swap1\n      return\n        /* \"contracts/Hero_Deposit/Deposit.sol\":6102:6850  function DepositCusdCredit(address contributer,address _to,uint256 amount)\r... */\n    tag_10:\n      callvalue\n      dup1\n      iszero\n      tag_59\n      jumpi\n      0x00\n      dup1\n      revert\n    tag_59:\n      pop\n      tag_60\n      0x04\n      dup1\n      calldatasize\n      sub\n      dup2\n      add\n      swap1\n      tag_61\n      swap2\n      swap1\n      tag_62\n      jump\t// in\n    tag_61:\n      tag_63\n      jump\t// in\n    tag_60:\n      mload(0x40)\n      tag_64\n      swap2\n      swap1\n      tag_47\n      jump\t// in\n    tag_64:\n      mload(0x40)\n      dup1\n      swap2\n      sub\n      swap1\n      return\n        /* \"contracts/Hero_Deposit/Deposit.sol\":1588:1637  mapping(address => deposit) public depositersLogs */\n    tag_11:\n      callvalue\n      dup1\n      iszero\n      tag_65\n      jumpi\n      0x00\n      dup1\n      revert\n    tag_65:\n      pop\n      tag_66\n      0x04\n      dup1\n      calldatasize\n      sub\n      dup2\n      add\n      swap1\n      tag_67\n      swap2\n      swap1\n      tag_44\n      jump\t// in\n    tag_67:\n      tag_68\n      jump\t// in\n    tag_66:\n      mload(0x40)\n      tag_69\n      swap5\n      swap4\n      swap3\n      swap2\n      swap1\n      tag_70\n      jump\t// in\n    tag_69:\n      mload(0x40)\n      dup1\n      swap2\n      sub\n      swap1\n      return\n        /* \"contracts/Hero_Deposit/Deposit.sol\":7812:8832  function withdrowCelo(address payable _to)\r... */\n    tag_12:\n      tag_71\n      0x04\n      dup1\n      calldatasize\n      sub\n      dup2\n      add\n      swap1\n      tag_72\n      swap2\n      swap1\n      tag_23\n      jump\t// in\n    tag_72:\n      tag_73\n      jump\t// in\n    tag_71:\n      mload(0x40)\n      tag_74\n      swap3\n      swap2\n      swap1\n      tag_75\n      jump\t// in\n    tag_74:\n      mload(0x40)\n      dup1\n      swap2\n      sub\n      swap1\n      return\n        /* \"contracts/Hero_Deposit/Deposit.sol\":687:743  mapping(address => ativistBank) public depositToActivist */\n    tag_13:\n      callvalue\n      dup1\n      iszero\n      tag_76\n      jumpi\n      0x00\n      dup1\n      revert\n    tag_76:\n      pop\n      tag_77\n      0x04\n      dup1\n      calldatasize\n      sub\n      dup2\n      add\n      swap1\n      tag_78\n      swap2\n      swap1\n      tag_44\n      jump\t// in\n    tag_78:\n      tag_79\n      jump\t// in\n    tag_77:\n      mload(0x40)\n      tag_80\n      swap3\n      swap2\n      swap1\n      tag_75\n      jump\t// in\n    tag_80:\n      mload(0x40)\n      dup1\n      swap2\n      sub\n      swap1\n      return\n        /* \"contracts/Hero_Deposit/Deposit.sol\":8840:9869  function withdrowCusd(address payable _to)\r... */\n    tag_14:\n      tag_81\n      0x04\n      dup1\n      calldatasize\n      sub\n      dup2\n      add\n      swap1\n      tag_82\n      swap2\n      swap1\n      tag_23\n      jump\t// in\n    tag_82:\n      tag_83\n      jump\t// in\n    tag_81:\n      mload(0x40)\n      tag_84\n      swap3\n      swap2\n      swap1\n      tag_75\n      jump\t// in\n    tag_84:\n      mload(0x40)\n      dup1\n      swap2\n      sub\n      swap1\n      return\n        /* \"contracts/Hero_Deposit/Deposit.sol\":405:440  IWitnetPriceFeed public EthUsdPrice */\n    tag_15:\n      callvalue\n      dup1\n      iszero\n      tag_85\n      jumpi\n      0x00\n      dup1\n      revert\n    tag_85:\n      pop\n      tag_86\n      tag_87\n      jump\t// in\n    tag_86:\n      mload(0x40)\n      tag_88\n      swap2\n      swap1\n      tag_89\n      jump\t// in\n    tag_88:\n      mload(0x40)\n      dup1\n      swap2\n      sub\n      swap1\n      return\n        /* \"contracts/Hero_Deposit/Deposit.sol\":319:355  IWitnetPriceFeed public celoEurPrice */\n    tag_16:\n      callvalue\n      dup1\n      iszero\n      tag_90\n      jumpi\n      0x00\n      dup1\n      revert\n    tag_90:\n      pop\n      tag_91\n      tag_92\n      jump\t// in\n    tag_91:\n      mload(0x40)\n      tag_93\n      swap2\n      swap1\n      tag_89\n      jump\t// in\n    tag_93:\n      mload(0x40)\n      dup1\n      swap2\n      sub\n      swap1\n      return\n        /* \"contracts/Hero_Deposit/Deposit.sol\":362:398  IWitnetPriceFeed public celoUsdPrice */\n    tag_17:\n      callvalue\n      dup1\n      iszero\n      tag_94\n      jumpi\n      0x00\n      dup1\n      revert\n    tag_94:\n      pop\n      tag_95\n      tag_96\n      jump\t// in\n    tag_95:\n      mload(0x40)\n      tag_97\n      swap2\n      swap1\n      tag_89\n      jump\t// in\n    tag_97:\n      mload(0x40)\n      dup1\n      swap2\n      sub\n      swap1\n      return\n        /* \"contracts/Hero_Deposit/Deposit.sol\":4515:6056  function DepositCelo(address payable _to)\r... */\n    tag_24:\n        /* \"contracts/Hero_Deposit/Deposit.sol\":4632:4653  uint256 totalValueUsd */\n      0x00\n        /* \"contracts/Hero_Deposit/Deposit.sol\":4655:4681  int256 currentCeloUsdPrice */\n      dup1\n        /* \"contracts/Hero_Deposit/Deposit.sol\":1741:1747  locked */\n      0x0c\n      0x14\n      swap1\n      sload\n      swap1\n      0x0100\n      exp\n      swap1\n      div\n      0xff\n      and\n        /* \"contracts/Hero_Deposit/Deposit.sol\":1740:1747  !locked */\n      iszero\n        /* \"contracts/Hero_Deposit/Deposit.sol\":1732:1748  require(!locked) */\n      tag_99\n      jumpi\n      0x00\n      dup1\n      revert\n    tag_99:\n        /* \"contracts/Hero_Deposit/Deposit.sol\":1768:1772  true */\n      0x01\n        /* \"contracts/Hero_Deposit/Deposit.sol\":1759:1765  locked */\n      0x0c\n      0x14\n        /* \"contracts/Hero_Deposit/Deposit.sol\":1759:1772  locked = true */\n      0x0100\n      exp\n      dup2\n      sload\n      dup2\n      0xff\n      mul\n      not\n      and\n      swap1\n      dup4\n      iszero\n      iszero\n      mul\n      or\n      swap1\n      sstore\n      pop\n        /* \"contracts/Hero_Deposit/Deposit.sol\":4743:4752  msg.value */\n      callvalue\n        /* \"contracts/Hero_Deposit/Deposit.sol\":4721:4731  msg.sender */\n      caller\n        /* \"contracts/Hero_Deposit/Deposit.sol\":4721:4739  msg.sender.balance */\n      0xffffffffffffffffffffffffffffffffffffffff\n      and\n      balance\n        /* \"contracts/Hero_Deposit/Deposit.sol\":4721:4752  msg.sender.balance >= msg.value */\n      lt\n      iszero\n        /* \"contracts/Hero_Deposit/Deposit.sol\":4699:4810  require(\r... */\n      tag_101\n      jumpi\n      mload(0x40)\n      0x08c379a000000000000000000000000000000000000000000000000000000000\n      dup2\n      mstore\n      0x04\n      add\n      tag_102\n      swap1\n      tag_103\n      jump\t// in\n    tag_102:\n      mload(0x40)\n      dup1\n      swap2\n      sub\n      swap1\n      revert\n    tag_101:\n        /* \"contracts/Hero_Deposit/Deposit.sol\":4821:4847  int256 currentCeloUsdPrice */\n      0x00\n        /* \"contracts/Hero_Deposit/Deposit.sol\":4858:4874  uint256 lastTime */\n      dup1\n        /* \"contracts/Hero_Deposit/Deposit.sol\":4919:4936  getCeloUsdPrice() */\n      tag_104\n        /* \"contracts/Hero_Deposit/Deposit.sol\":4919:4934  getCeloUsdPrice */\n      tag_105\n        /* \"contracts/Hero_Deposit/Deposit.sol\":4919:4936  getCeloUsdPrice() */\n      jump\t// in\n    tag_104:\n        /* \"contracts/Hero_Deposit/Deposit.sol\":4885:4936  (currentCeloUsdPrice, lastTime) = getCeloUsdPrice() */\n      dup1\n      swap3\n      pop\n      dup2\n      swap4\n      pop\n      pop\n      pop\n        /* \"contracts/Hero_Deposit/Deposit.sol\":4947:4972  uint256 totalValueDeposit */\n      0x00\n        /* \"contracts/Hero_Deposit/Deposit.sol\":5030:5049  currentCeloUsdPrice */\n      dup3\n        /* \"contracts/Hero_Deposit/Deposit.sol\":5026:5027  1 */\n      0x01\n        /* \"contracts/Hero_Deposit/Deposit.sol\":5026:5049  1 / currentCeloUsdPrice */\n      tag_106\n      swap2\n      swap1\n      tag_107\n      jump\t// in\n    tag_106:\n        /* \"contracts/Hero_Deposit/Deposit.sol\":5012:5021  msg.value */\n      callvalue\n        /* \"contracts/Hero_Deposit/Deposit.sol\":5005:5049  int256(msg.value) >= 1 / currentCeloUsdPrice */\n      slt\n      iszero\n        /* \"contracts/Hero_Deposit/Deposit.sol\":4983:5110  require(\r... */\n      tag_108\n      jumpi\n      mload(0x40)\n      0x08c379a000000000000000000000000000000000000000000000000000000000\n      dup2\n      mstore\n      0x04\n      add\n      tag_109\n      swap1\n      tag_110\n      jump\t// in\n    tag_109:\n      mload(0x40)\n      dup1\n      swap2\n      sub\n      swap1\n      revert\n    tag_108:\n        /* \"contracts/Hero_Deposit/Deposit.sol\":5121:5141  int256 totalValueUsd */\n      0x00\n        /* \"contracts/Hero_Deposit/Deposit.sol\":5167:5186  currentCeloUsdPrice */\n      dup4\n        /* \"contracts/Hero_Deposit/Deposit.sol\":5152:5161  msg.value */\n      callvalue\n        /* \"contracts/Hero_Deposit/Deposit.sol\":5144:5187  int256((msg.value)) * (currentCeloUsdPrice) */\n      tag_111\n      swap2\n      swap1\n      tag_112\n      jump\t// in\n    tag_111:\n        /* \"contracts/Hero_Deposit/Deposit.sol\":5121:5187  int256 totalValueUsd = int256((msg.value)) * (currentCeloUsdPrice) */\n      swap1\n      pop\n        /* \"contracts/Hero_Deposit/Deposit.sol\":5235:5239  true */\n      0x01\n        /* \"contracts/Hero_Deposit/Deposit.sol\":5202:5239  checkDepositExist(msg.sender) == true */\n      iszero\n      iszero\n        /* \"contracts/Hero_Deposit/Deposit.sol\":5202:5231  checkDepositExist(msg.sender) */\n      tag_113\n        /* \"contracts/Hero_Deposit/Deposit.sol\":5220:5230  msg.sender */\n      caller\n        /* \"contracts/Hero_Deposit/Deposit.sol\":5202:5219  checkDepositExist */\n      tag_45\n        /* \"contracts/Hero_Deposit/Deposit.sol\":5202:5231  checkDepositExist(msg.sender) */\n      jump\t// in\n    tag_113:\n        /* \"contracts/Hero_Deposit/Deposit.sol\":5202:5239  checkDepositExist(msg.sender) == true */\n      iszero\n      iszero\n      eq\n        /* \"contracts/Hero_Deposit/Deposit.sol\":5198:5592  if (checkDepositExist(msg.sender) == true) {\r... */\n      iszero\n      tag_114\n      jumpi\n        /* \"contracts/Hero_Deposit/Deposit.sol\":5305:5318  totalValueUsd */\n      dup1\n        /* \"contracts/Hero_Deposit/Deposit.sol\":5256:5270  depositersLogs */\n      0x0b\n        /* \"contracts/Hero_Deposit/Deposit.sol\":5256:5282  depositersLogs[msg.sender] */\n      0x00\n        /* \"contracts/Hero_Deposit/Deposit.sol\":5271:5281  msg.sender */\n      caller\n        /* \"contracts/Hero_Deposit/Deposit.sol\":5256:5282  depositersLogs[msg.sender] */\n      0xffffffffffffffffffffffffffffffffffffffff\n      and\n      0xffffffffffffffffffffffffffffffffffffffff\n      and\n      dup2\n      mstore\n      0x20\n      add\n      swap1\n      dup2\n      mstore\n      0x20\n      add\n      0x00\n      keccak256\n        /* \"contracts/Hero_Deposit/Deposit.sol\":5256:5301  depositersLogs[msg.sender].totalDepositsValue */\n      0x01\n      add\n      0x00\n        /* \"contracts/Hero_Deposit/Deposit.sol\":5256:5318  depositersLogs[msg.sender].totalDepositsValue += totalValueUsd */\n      dup3\n      dup3\n      sload\n      tag_115\n      swap2\n      swap1\n      tag_116\n      jump\t// in\n    tag_115:\n      swap3\n      pop\n      pop\n      dup2\n      swap1\n      sstore\n      pop\n        /* \"contracts/Hero_Deposit/Deposit.sol\":5333:5347  depositersLogs */\n      0x0b\n        /* \"contracts/Hero_Deposit/Deposit.sol\":5333:5359  depositersLogs[msg.sender] */\n      0x00\n        /* \"contracts/Hero_Deposit/Deposit.sol\":5348:5358  msg.sender */\n      caller\n        /* \"contracts/Hero_Deposit/Deposit.sol\":5333:5359  depositersLogs[msg.sender] */\n      0xffffffffffffffffffffffffffffffffffffffff\n      and\n      0xffffffffffffffffffffffffffffffffffffffff\n      and\n      dup2\n      mstore\n      0x20\n      add\n      swap1\n      dup2\n      mstore\n      0x20\n      add\n      0x00\n      keccak256\n        /* \"contracts/Hero_Deposit/Deposit.sol\":5333:5377  depositersLogs[msg.sender].totalDepositTimes */\n      0x02\n      add\n      0x00\n        /* \"contracts/Hero_Deposit/Deposit.sol\":5333:5379  depositersLogs[msg.sender].totalDepositTimes++ */\n      dup2\n      sload\n      dup1\n      swap3\n      swap2\n      swap1\n      tag_117\n      swap1\n      tag_118\n      jump\t// in\n    tag_117:\n      swap2\n      swap1\n      pop\n      sstore\n      pop\n        /* \"contracts/Hero_Deposit/Deposit.sol\":5429:5438  msg.value */\n      callvalue\n        /* \"contracts/Hero_Deposit/Deposit.sol\":5394:5411  depositToActivist */\n      0x04\n        /* \"contracts/Hero_Deposit/Deposit.sol\":5394:5416  depositToActivist[_to] */\n      0x00\n        /* \"contracts/Hero_Deposit/Deposit.sol\":5412:5415  _to */\n      dup10\n        /* \"contracts/Hero_Deposit/Deposit.sol\":5394:5416  depositToActivist[_to] */\n      0xffffffffffffffffffffffffffffffffffffffff\n      and\n      0xffffffffffffffffffffffffffffffffffffffff\n      and\n      dup2\n      mstore\n      0x20\n      add\n      swap1\n      dup2\n      mstore\n      0x20\n      add\n      0x00\n      keccak256\n        /* \"contracts/Hero_Deposit/Deposit.sol\":5394:5425  depositToActivist[_to].celoCoin */\n      0x00\n      add\n      0x00\n        /* \"contracts/Hero_Deposit/Deposit.sol\":5394:5438  depositToActivist[_to].celoCoin += msg.value */\n      dup3\n      dup3\n      sload\n      tag_119\n      swap2\n      swap1\n      tag_120\n      jump\t// in\n    tag_119:\n      swap3\n      pop\n      pop\n      dup2\n      swap1\n      sstore\n      pop\n        /* \"contracts/Hero_Deposit/Deposit.sol\":5473:5490  depositToActivist */\n      0x04\n        /* \"contracts/Hero_Deposit/Deposit.sol\":5473:5495  depositToActivist[_to] */\n      0x00\n        /* \"contracts/Hero_Deposit/Deposit.sol\":5491:5494  _to */\n      dup9\n        /* \"contracts/Hero_Deposit/Deposit.sol\":5473:5495  depositToActivist[_to] */\n      0xffffffffffffffffffffffffffffffffffffffff\n      and\n      0xffffffffffffffffffffffffffffffffffffffff\n      and\n      dup2\n      mstore\n      0x20\n      add\n      swap1\n      dup2\n      mstore\n      0x20\n      add\n      0x00\n      keccak256\n        /* \"contracts/Hero_Deposit/Deposit.sol\":5473:5504  depositToActivist[_to].celoCoin */\n      0x00\n      add\n      sload\n        /* \"contracts/Hero_Deposit/Deposit.sol\":5453:5504  totalValueDeposit = depositToActivist[_to].celoCoin */\n      swap2\n      pop\n        /* \"contracts/Hero_Deposit/Deposit.sol\":5548:5551  _to */\n      dup7\n        /* \"contracts/Hero_Deposit/Deposit.sol\":5524:5580  depositLogs(msg.sender, _to, msg.value, block.timestamp) */\n      0xffffffffffffffffffffffffffffffffffffffff\n      and\n        /* \"contracts/Hero_Deposit/Deposit.sol\":5536:5546  msg.sender */\n      caller\n        /* \"contracts/Hero_Deposit/Deposit.sol\":5524:5580  depositLogs(msg.sender, _to, msg.value, block.timestamp) */\n      0xffffffffffffffffffffffffffffffffffffffff\n      and\n      0xadbbbbc8c9e65e88422d75c3d3cb93f41a5d520a2ca71c815348334de8c49121\n        /* \"contracts/Hero_Deposit/Deposit.sol\":5553:5562  msg.value */\n      callvalue\n        /* \"contracts/Hero_Deposit/Deposit.sol\":5564:5579  block.timestamp */\n      timestamp\n        /* \"contracts/Hero_Deposit/Deposit.sol\":5524:5580  depositLogs(msg.sender, _to, msg.value, block.timestamp) */\n      mload(0x40)\n      tag_121\n      swap3\n      swap2\n      swap1\n      tag_75\n      jump\t// in\n    tag_121:\n      mload(0x40)\n      dup1\n      swap2\n      sub\n      swap1\n      log3\n        /* \"contracts/Hero_Deposit/Deposit.sol\":5198:5592  if (checkDepositExist(msg.sender) == true) {\r... */\n    tag_114:\n        /* \"contracts/Hero_Deposit/Deposit.sol\":5602:5607  index */\n      0x0a\n      0x00\n        /* \"contracts/Hero_Deposit/Deposit.sol\":5602:5609  index++ */\n      dup2\n      sload\n      dup1\n      swap3\n      swap2\n      swap1\n      tag_122\n      swap1\n      tag_118\n      jump\t// in\n    tag_122:\n      swap2\n      swap1\n      pop\n      sstore\n      pop\n        /* \"contracts/Hero_Deposit/Deposit.sol\":5652:5657  index */\n      sload(0x0a)\n        /* \"contracts/Hero_Deposit/Deposit.sol\":5620:5634  depositersLogs */\n      0x0b\n        /* \"contracts/Hero_Deposit/Deposit.sol\":5620:5646  depositersLogs[msg.sender] */\n      0x00\n        /* \"contracts/Hero_Deposit/Deposit.sol\":5635:5645  msg.sender */\n      caller\n        /* \"contracts/Hero_Deposit/Deposit.sol\":5620:5646  depositersLogs[msg.sender] */\n      0xffffffffffffffffffffffffffffffffffffffff\n      and\n      0xffffffffffffffffffffffffffffffffffffffff\n      and\n      dup2\n      mstore\n      0x20\n      add\n      swap1\n      dup2\n      mstore\n      0x20\n      add\n      0x00\n      keccak256\n        /* \"contracts/Hero_Deposit/Deposit.sol\":5620:5649  depositersLogs[msg.sender].id */\n      0x00\n      add\n        /* \"contracts/Hero_Deposit/Deposit.sol\":5620:5657  depositersLogs[msg.sender].id = index */\n      dup2\n      swap1\n      sstore\n      pop\n        /* \"contracts/Hero_Deposit/Deposit.sol\":5717:5730  totalValueUsd */\n      dup1\n        /* \"contracts/Hero_Deposit/Deposit.sol\":5668:5682  depositersLogs */\n      0x0b\n        /* \"contracts/Hero_Deposit/Deposit.sol\":5668:5694  depositersLogs[msg.sender] */\n      0x00\n        /* \"contracts/Hero_Deposit/Deposit.sol\":5683:5693  msg.sender */\n      caller\n        /* \"contracts/Hero_Deposit/Deposit.sol\":5668:5694  depositersLogs[msg.sender] */\n      0xffffffffffffffffffffffffffffffffffffffff\n      and\n      0xffffffffffffffffffffffffffffffffffffffff\n      and\n      dup2\n      mstore\n      0x20\n      add\n      swap1\n      dup2\n      mstore\n      0x20\n      add\n      0x00\n      keccak256\n        /* \"contracts/Hero_Deposit/Deposit.sol\":5668:5713  depositersLogs[msg.sender].totalDepositsValue */\n      0x01\n      add\n      0x00\n        /* \"contracts/Hero_Deposit/Deposit.sol\":5668:5730  depositersLogs[msg.sender].totalDepositsValue += totalValueUsd */\n      dup3\n      dup3\n      sload\n      tag_123\n      swap2\n      swap1\n      tag_116\n      jump\t// in\n    tag_123:\n      swap3\n      pop\n      pop\n      dup2\n      swap1\n      sstore\n      pop\n        /* \"contracts/Hero_Deposit/Deposit.sol\":5789:5799  msg.sender */\n      caller\n        /* \"contracts/Hero_Deposit/Deposit.sol\":5741:5755  depositersLogs */\n      0x0b\n        /* \"contracts/Hero_Deposit/Deposit.sol\":5741:5767  depositersLogs[msg.sender] */\n      0x00\n        /* \"contracts/Hero_Deposit/Deposit.sol\":5756:5766  msg.sender */\n      caller\n        /* \"contracts/Hero_Deposit/Deposit.sol\":5741:5767  depositersLogs[msg.sender] */\n      0xffffffffffffffffffffffffffffffffffffffff\n      and\n      0xffffffffffffffffffffffffffffffffffffffff\n      and\n      dup2\n      mstore\n      0x20\n      add\n      swap1\n      dup2\n      mstore\n      0x20\n      add\n      0x00\n      keccak256\n        /* \"contracts/Hero_Deposit/Deposit.sol\":5741:5778  depositersLogs[msg.sender].userWallet */\n      0x03\n      add\n      0x00\n        /* \"contracts/Hero_Deposit/Deposit.sol\":5741:5800  depositersLogs[msg.sender].userWallet = address(msg.sender) */\n      0x0100\n      exp\n      dup2\n      sload\n      dup2\n      0xffffffffffffffffffffffffffffffffffffffff\n      mul\n      not\n      and\n      swap1\n      dup4\n      0xffffffffffffffffffffffffffffffffffffffff\n      and\n      mul\n      or\n      swap1\n      sstore\n      pop\n        /* \"contracts/Hero_Deposit/Deposit.sol\":5858:5859  1 */\n      0x01\n        /* \"contracts/Hero_Deposit/Deposit.sol\":5811:5825  depositersLogs */\n      0x0b\n        /* \"contracts/Hero_Deposit/Deposit.sol\":5811:5837  depositersLogs[msg.sender] */\n      0x00\n        /* \"contracts/Hero_Deposit/Deposit.sol\":5826:5836  msg.sender */\n      caller\n        /* \"contracts/Hero_Deposit/Deposit.sol\":5811:5837  depositersLogs[msg.sender] */\n      0xffffffffffffffffffffffffffffffffffffffff\n      and\n      0xffffffffffffffffffffffffffffffffffffffff\n      and\n      dup2\n      mstore\n      0x20\n      add\n      swap1\n      dup2\n      mstore\n      0x20\n      add\n      0x00\n      keccak256\n        /* \"contracts/Hero_Deposit/Deposit.sol\":5811:5855  depositersLogs[msg.sender].totalDepositTimes */\n      0x02\n      add\n        /* \"contracts/Hero_Deposit/Deposit.sol\":5811:5859  depositersLogs[msg.sender].totalDepositTimes = 1 */\n      dup2\n      swap1\n      sstore\n      pop\n        /* \"contracts/Hero_Deposit/Deposit.sol\":5905:5914  msg.value */\n      callvalue\n        /* \"contracts/Hero_Deposit/Deposit.sol\":5870:5887  depositToActivist */\n      0x04\n        /* \"contracts/Hero_Deposit/Deposit.sol\":5870:5892  depositToActivist[_to] */\n      0x00\n        /* \"contracts/Hero_Deposit/Deposit.sol\":5888:5891  _to */\n      dup10\n        /* \"contracts/Hero_Deposit/Deposit.sol\":5870:5892  depositToActivist[_to] */\n      0xffffffffffffffffffffffffffffffffffffffff\n      and\n      0xffffffffffffffffffffffffffffffffffffffff\n      and\n      dup2\n      mstore\n      0x20\n      add\n      swap1\n      dup2\n      mstore\n      0x20\n      add\n      0x00\n      keccak256\n        /* \"contracts/Hero_Deposit/Deposit.sol\":5870:5901  depositToActivist[_to].celoCoin */\n      0x00\n      add\n      0x00\n        /* \"contracts/Hero_Deposit/Deposit.sol\":5870:5914  depositToActivist[_to].celoCoin += msg.value */\n      dup3\n      dup3\n      sload\n      tag_124\n      swap2\n      swap1\n      tag_120\n      jump\t// in\n    tag_124:\n      swap3\n      pop\n      pop\n      dup2\n      swap1\n      sstore\n      pop\n        /* \"contracts/Hero_Deposit/Deposit.sol\":5945:5962  depositToActivist */\n      0x04\n        /* \"contracts/Hero_Deposit/Deposit.sol\":5945:5967  depositToActivist[_to] */\n      0x00\n        /* \"contracts/Hero_Deposit/Deposit.sol\":5963:5966  _to */\n      dup9\n        /* \"contracts/Hero_Deposit/Deposit.sol\":5945:5967  depositToActivist[_to] */\n      0xffffffffffffffffffffffffffffffffffffffff\n      and\n      0xffffffffffffffffffffffffffffffffffffffff\n      and\n      dup2\n      mstore\n      0x20\n      add\n      swap1\n      dup2\n      mstore\n      0x20\n      add\n      0x00\n      keccak256\n        /* \"contracts/Hero_Deposit/Deposit.sol\":5945:5976  depositToActivist[_to].celoCoin */\n      0x00\n      add\n      sload\n        /* \"contracts/Hero_Deposit/Deposit.sol\":5925:5976  totalValueDeposit = depositToActivist[_to].celoCoin */\n      swap2\n      pop\n        /* \"contracts/Hero_Deposit/Deposit.sol\":6016:6019  _to */\n      dup7\n        /* \"contracts/Hero_Deposit/Deposit.sol\":5992:6048  depositLogs(msg.sender, _to, msg.value, block.timestamp) */\n      0xffffffffffffffffffffffffffffffffffffffff\n      and\n        /* \"contracts/Hero_Deposit/Deposit.sol\":6004:6014  msg.sender */\n      caller\n        /* \"contracts/Hero_Deposit/Deposit.sol\":5992:6048  depositLogs(msg.sender, _to, msg.value, block.timestamp) */\n      0xffffffffffffffffffffffffffffffffffffffff\n      and\n      0xadbbbbc8c9e65e88422d75c3d3cb93f41a5d520a2ca71c815348334de8c49121\n        /* \"contracts/Hero_Deposit/Deposit.sol\":6021:6030  msg.value */\n      callvalue\n        /* \"contracts/Hero_Deposit/Deposit.sol\":6032:6047  block.timestamp */\n      timestamp\n        /* \"contracts/Hero_Deposit/Deposit.sol\":5992:6048  depositLogs(msg.sender, _to, msg.value, block.timestamp) */\n      mload(0x40)\n      tag_125\n      swap3\n      swap2\n      swap1\n      tag_75\n      jump\t// in\n    tag_125:\n      mload(0x40)\n      dup1\n      swap2\n      sub\n      swap1\n      log3\n        /* \"contracts/Hero_Deposit/Deposit.sol\":4688:6056  {\r... */\n      pop\n      pop\n      pop\n      pop\n        /* \"contracts/Hero_Deposit/Deposit.sol\":1804:1809  false */\n      0x00\n        /* \"contracts/Hero_Deposit/Deposit.sol\":1795:1801  locked */\n      0x0c\n      0x14\n        /* \"contracts/Hero_Deposit/Deposit.sol\":1795:1809  locked = false */\n      0x0100\n      exp\n      dup2\n      sload\n      dup2\n      0xff\n      mul\n      not\n      and\n      swap1\n      dup4\n      iszero\n      iszero\n      mul\n      or\n      swap1\n      sstore\n      pop\n        /* \"contracts/Hero_Deposit/Deposit.sol\":4515:6056  function DepositCelo(address payable _to)\r... */\n      swap2\n      pop\n      swap2\n      jump\t// out\n        /* \"contracts/Hero_Deposit/Deposit.sol\":2617:2907  function updateEthUsdPriceFeed() public {\r... */\n    tag_29:\n        /* \"contracts/Hero_Deposit/Deposit.sol\":2668:2689  IERC165 _newPriceFeed */\n      0x00\n        /* \"contracts/Hero_Deposit/Deposit.sol\":2692:2709  witnetPriceRouter */\n      dup1\n      0x00\n      swap1\n      sload\n      swap1\n      0x0100\n      exp\n      swap1\n      div\n      0xffffffffffffffffffffffffffffffffffffffff\n      and\n        /* \"contracts/Hero_Deposit/Deposit.sol\":2692:2722  witnetPriceRouter.getPriceFeed */\n      0xffffffffffffffffffffffffffffffffffffffff\n      and\n      0x8c0adf62\n        /* \"contracts/Hero_Deposit/Deposit.sol\":2744:2754  0x3d15f701 */\n      0x3d15f701\n        /* \"contracts/Hero_Deposit/Deposit.sol\":2737:2755  bytes4(0x3d15f701) */\n      0xe0\n      shl\n        /* \"contracts/Hero_Deposit/Deposit.sol\":2692:2766  witnetPriceRouter.getPriceFeed(\r... */\n      mload(0x40)\n      dup3\n      0xffffffff\n      and\n      0xe0\n      shl\n      dup2\n      mstore\n      0x04\n      add\n      tag_127\n      swap2\n      swap1\n      tag_128\n      jump\t// in\n    tag_127:\n      0x20\n      mload(0x40)\n      dup1\n      dup4\n      sub\n      dup2\n      dup7\n      dup1\n      extcodesize\n      iszero\n      dup1\n      iszero\n      tag_129\n      jumpi\n      0x00\n      dup1\n      revert\n    tag_129:\n      pop\n      gas\n      staticcall\n      iszero\n      dup1\n      iszero\n      tag_131\n      jumpi\n      returndatasize\n      0x00\n      dup1\n      returndatacopy\n      revert(0x00, returndatasize)\n    tag_131:\n      pop\n      pop\n      pop\n      pop\n      mload(0x40)\n      returndatasize\n      not(0x1f)\n      0x1f\n      dup3\n      add\n      and\n      dup3\n      add\n      dup1\n      0x40\n      mstore\n      pop\n      dup2\n      add\n      swap1\n      tag_132\n      swap2\n      swap1\n      tag_133\n      jump\t// in\n    tag_132:\n        /* \"contracts/Hero_Deposit/Deposit.sol\":2668:2766  IERC165 _newPriceFeed = witnetPriceRouter.getPriceFeed(\r... */\n      swap1\n      pop\n        /* \"contracts/Hero_Deposit/Deposit.sol\":2815:2816  0 */\n      0x00\n        /* \"contracts/Hero_Deposit/Deposit.sol\":2781:2817  address(_newPriceFeed) != address(0) */\n      0xffffffffffffffffffffffffffffffffffffffff\n      and\n        /* \"contracts/Hero_Deposit/Deposit.sol\":2789:2802  _newPriceFeed */\n      dup2\n        /* \"contracts/Hero_Deposit/Deposit.sol\":2781:2817  address(_newPriceFeed) != address(0) */\n      0xffffffffffffffffffffffffffffffffffffffff\n      and\n      eq\n        /* \"contracts/Hero_Deposit/Deposit.sol\":2777:2900  if (address(_newPriceFeed) != address(0)) {\r... */\n      tag_134\n      jumpi\n        /* \"contracts/Hero_Deposit/Deposit.sol\":2873:2886  _newPriceFeed */\n      dup1\n        /* \"contracts/Hero_Deposit/Deposit.sol\":2834:2845  EthUsdPrice */\n      0x03\n      0x00\n        /* \"contracts/Hero_Deposit/Deposit.sol\":2834:2888  EthUsdPrice = IWitnetPriceFeed(address(_newPriceFeed)) */\n      0x0100\n      exp\n      dup2\n      sload\n      dup2\n      0xffffffffffffffffffffffffffffffffffffffff\n      mul\n      not\n      and\n      swap1\n      dup4\n      0xffffffffffffffffffffffffffffffffffffffff\n      and\n      mul\n      or\n      swap1\n      sstore\n      pop\n        /* \"contracts/Hero_Deposit/Deposit.sol\":2777:2900  if (address(_newPriceFeed) != address(0)) {\r... */\n    tag_134:\n        /* \"contracts/Hero_Deposit/Deposit.sol\":2657:2907  {\r... */\n      pop\n        /* \"contracts/Hero_Deposit/Deposit.sol\":2617:2907  function updateEthUsdPriceFeed() public {\r... */\n      jump\t// out\n        /* \"contracts/Hero_Deposit/Deposit.sol\":1335:1359  uint256 public index = 0 */\n    tag_32:\n      sload(0x0a)\n      dup2\n      jump\t// out\n        /* \"contracts/Hero_Deposit/Deposit.sol\":2017:2309  function updateCeloUSDPriceFeed() public {\r... */\n    tag_37:\n        /* \"contracts/Hero_Deposit/Deposit.sol\":2069:2090  IERC165 _newPriceFeed */\n      0x00\n        /* \"contracts/Hero_Deposit/Deposit.sol\":2093:2110  witnetPriceRouter */\n      dup1\n      0x00\n      swap1\n      sload\n      swap1\n      0x0100\n      exp\n      swap1\n      div\n      0xffffffffffffffffffffffffffffffffffffffff\n      and\n        /* \"contracts/Hero_Deposit/Deposit.sol\":2093:2123  witnetPriceRouter.getPriceFeed */\n      0xffffffffffffffffffffffffffffffffffffffff\n      and\n      0x8c0adf62\n        /* \"contracts/Hero_Deposit/Deposit.sol\":2145:2155  0x9ed884be */\n      0x9ed884be\n        /* \"contracts/Hero_Deposit/Deposit.sol\":2138:2156  bytes4(0x9ed884be) */\n      0xe0\n      shl\n        /* \"contracts/Hero_Deposit/Deposit.sol\":2093:2167  witnetPriceRouter.getPriceFeed(\r... */\n      mload(0x40)\n      dup3\n      0xffffffff\n      and\n      0xe0\n      shl\n      dup2\n      mstore\n      0x04\n      add\n      tag_136\n      swap2\n      swap1\n      tag_128\n      jump\t// in\n    tag_136:\n      0x20\n      mload(0x40)\n      dup1\n      dup4\n      sub\n      dup2\n      dup7\n      dup1\n      extcodesize\n      iszero\n      dup1\n      iszero\n      tag_137\n      jumpi\n      0x00\n      dup1\n      revert\n    tag_137:\n      pop\n      gas\n      staticcall\n      iszero\n      dup1\n      iszero\n      tag_139\n      jumpi\n      returndatasize\n      0x00\n      dup1\n      returndatacopy\n      revert(0x00, returndatasize)\n    tag_139:\n      pop\n      pop\n      pop\n      pop\n      mload(0x40)\n      returndatasize\n      not(0x1f)\n      0x1f\n      dup3\n      add\n      and\n      dup3\n      add\n      dup1\n      0x40\n      mstore\n      pop\n      dup2\n      add\n      swap1\n      tag_140\n      swap2\n      swap1\n      tag_133\n      jump\t// in\n    tag_140:\n        /* \"contracts/Hero_Deposit/Deposit.sol\":2069:2167  IERC165 _newPriceFeed = witnetPriceRouter.getPriceFeed(\r... */\n      swap1\n      pop\n        /* \"contracts/Hero_Deposit/Deposit.sol\":2216:2217  0 */\n      0x00\n        /* \"contracts/Hero_Deposit/Deposit.sol\":2182:2218  address(_newPriceFeed) != address(0) */\n      0xffffffffffffffffffffffffffffffffffffffff\n      and\n        /* \"contracts/Hero_Deposit/Deposit.sol\":2190:2203  _newPriceFeed */\n      dup2\n        /* \"contracts/Hero_Deposit/Deposit.sol\":2182:2218  address(_newPriceFeed) != address(0) */\n      0xffffffffffffffffffffffffffffffffffffffff\n      and\n      eq\n        /* \"contracts/Hero_Deposit/Deposit.sol\":2178:2302  if (address(_newPriceFeed) != address(0)) {\r... */\n      tag_141\n      jumpi\n        /* \"contracts/Hero_Deposit/Deposit.sol\":2275:2288  _newPriceFeed */\n      dup1\n        /* \"contracts/Hero_Deposit/Deposit.sol\":2235:2247  celoUsdPrice */\n      0x02\n      0x00\n        /* \"contracts/Hero_Deposit/Deposit.sol\":2235:2290  celoUsdPrice = IWitnetPriceFeed(address(_newPriceFeed)) */\n      0x0100\n      exp\n      dup2\n      sload\n      dup2\n      0xffffffffffffffffffffffffffffffffffffffff\n      mul\n      not\n      and\n      swap1\n      dup4\n      0xffffffffffffffffffffffffffffffffffffffff\n      and\n      mul\n      or\n      swap1\n      sstore\n      pop\n        /* \"contracts/Hero_Deposit/Deposit.sol\":2178:2302  if (address(_newPriceFeed) != address(0)) {\r... */\n    tag_141:\n        /* \"contracts/Hero_Deposit/Deposit.sol\":2058:2309  {\r... */\n      pop\n        /* \"contracts/Hero_Deposit/Deposit.sol\":2017:2309  function updateCeloUSDPriceFeed() public {\r... */\n      jump\t// out\n        /* \"contracts/Hero_Deposit/Deposit.sol\":2317:2609  function updateCeloEurPriceFeed() public {\r... */\n    tag_40:\n        /* \"contracts/Hero_Deposit/Deposit.sol\":2369:2390  IERC165 _newPriceFeed */\n      0x00\n        /* \"contracts/Hero_Deposit/Deposit.sol\":2393:2410  witnetPriceRouter */\n      dup1\n      0x00\n      swap1\n      sload\n      swap1\n      0x0100\n      exp\n      swap1\n      div\n      0xffffffffffffffffffffffffffffffffffffffff\n      and\n        /* \"contracts/Hero_Deposit/Deposit.sol\":2393:2423  witnetPriceRouter.getPriceFeed */\n      0xffffffffffffffffffffffffffffffffffffffff\n      and\n      0x8c0adf62\n        /* \"contracts/Hero_Deposit/Deposit.sol\":2445:2455  0x21a79821 */\n      0x21a79821\n        /* \"contracts/Hero_Deposit/Deposit.sol\":2438:2456  bytes4(0x21a79821) */\n      0xe0\n      shl\n        /* \"contracts/Hero_Deposit/Deposit.sol\":2393:2467  witnetPriceRouter.getPriceFeed(\r... */\n      mload(0x40)\n      dup3\n      0xffffffff\n      and\n      0xe0\n      shl\n      dup2\n      mstore\n      0x04\n      add\n      tag_143\n      swap2\n      swap1\n      tag_128\n      jump\t// in\n    tag_143:\n      0x20\n      mload(0x40)\n      dup1\n      dup4\n      sub\n      dup2\n      dup7\n      dup1\n      extcodesize\n      iszero\n      dup1\n      iszero\n      tag_144\n      jumpi\n      0x00\n      dup1\n      revert\n    tag_144:\n      pop\n      gas\n      staticcall\n      iszero\n      dup1\n      iszero\n      tag_146\n      jumpi\n      returndatasize\n      0x00\n      dup1\n      returndatacopy\n      revert(0x00, returndatasize)\n    tag_146:\n      pop\n      pop\n      pop\n      pop\n      mload(0x40)\n      returndatasize\n      not(0x1f)\n      0x1f\n      dup3\n      add\n      and\n      dup3\n      add\n      dup1\n      0x40\n      mstore\n      pop\n      dup2\n      add\n      swap1\n      tag_147\n      swap2\n      swap1\n      tag_133\n      jump\t// in\n    tag_147:\n        /* \"contracts/Hero_Deposit/Deposit.sol\":2369:2467  IERC165 _newPriceFeed = witnetPriceRouter.getPriceFeed(\r... */\n      swap1\n      pop\n        /* \"contracts/Hero_Deposit/Deposit.sol\":2516:2517  0 */\n      0x00\n        /* \"contracts/Hero_Deposit/Deposit.sol\":2482:2518  address(_newPriceFeed) != address(0) */\n      0xffffffffffffffffffffffffffffffffffffffff\n      and\n        /* \"contracts/Hero_Deposit/Deposit.sol\":2490:2503  _newPriceFeed */\n      dup2\n        /* \"contracts/Hero_Deposit/Deposit.sol\":2482:2518  address(_newPriceFeed) != address(0) */\n      0xffffffffffffffffffffffffffffffffffffffff\n      and\n      eq\n        /* \"contracts/Hero_Deposit/Deposit.sol\":2478:2602  if (address(_newPriceFeed) != address(0)) {\r... */\n      tag_148\n      jumpi\n        /* \"contracts/Hero_Deposit/Deposit.sol\":2575:2588  _newPriceFeed */\n      dup1\n        /* \"contracts/Hero_Deposit/Deposit.sol\":2535:2547  celoEurPrice */\n      0x01\n      0x00\n        /* \"contracts/Hero_Deposit/Deposit.sol\":2535:2590  celoEurPrice = IWitnetPriceFeed(address(_newPriceFeed)) */\n      0x0100\n      exp\n      dup2\n      sload\n      dup2\n      0xffffffffffffffffffffffffffffffffffffffff\n      mul\n      not\n      and\n      swap1\n      dup4\n      0xffffffffffffffffffffffffffffffffffffffff\n      and\n      mul\n      or\n      swap1\n      sstore\n      pop\n        /* \"contracts/Hero_Deposit/Deposit.sol\":2478:2602  if (address(_newPriceFeed) != address(0)) {\r... */\n    tag_148:\n        /* \"contracts/Hero_Deposit/Deposit.sol\":2358:2609  {\r... */\n      pop\n        /* \"contracts/Hero_Deposit/Deposit.sol\":2317:2609  function updateCeloEurPriceFeed() public {\r... */\n      jump\t// out\n        /* \"contracts/Hero_Deposit/Deposit.sol\":4280:4486  function checkDepositExist(address wallet) public view returns (bool) {\r... */\n    tag_45:\n        /* \"contracts/Hero_Deposit/Deposit.sol\":4344:4348  bool */\n      0x00\n        /* \"contracts/Hero_Deposit/Deposit.sol\":4393:4394  0 */\n      dup1\n        /* \"contracts/Hero_Deposit/Deposit.sol\":4365:4379  depositersLogs */\n      0x0b\n        /* \"contracts/Hero_Deposit/Deposit.sol\":4365:4387  depositersLogs[wallet] */\n      0x00\n        /* \"contracts/Hero_Deposit/Deposit.sol\":4380:4386  wallet */\n      dup5\n        /* \"contracts/Hero_Deposit/Deposit.sol\":4365:4387  depositersLogs[wallet] */\n      0xffffffffffffffffffffffffffffffffffffffff\n      and\n      0xffffffffffffffffffffffffffffffffffffffff\n      and\n      dup2\n      mstore\n      0x20\n      add\n      swap1\n      dup2\n      mstore\n      0x20\n      add\n      0x00\n      keccak256\n        /* \"contracts/Hero_Deposit/Deposit.sol\":4365:4390  depositersLogs[wallet].id */\n      0x00\n      add\n      sload\n        /* \"contracts/Hero_Deposit/Deposit.sol\":4365:4394  depositersLogs[wallet].id > 0 */\n      gt\n        /* \"contracts/Hero_Deposit/Deposit.sol\":4361:4479  if (depositersLogs[wallet].id > 0) {\r... */\n      iszero\n      tag_150\n      jumpi\n        /* \"contracts/Hero_Deposit/Deposit.sol\":4418:4422  true */\n      0x01\n        /* \"contracts/Hero_Deposit/Deposit.sol\":4411:4422  return true */\n      swap1\n      pop\n      jump(tag_149)\n        /* \"contracts/Hero_Deposit/Deposit.sol\":4361:4479  if (depositersLogs[wallet].id > 0) {\r... */\n    tag_150:\n        /* \"contracts/Hero_Deposit/Deposit.sol\":4462:4467  false */\n      0x00\n        /* \"contracts/Hero_Deposit/Deposit.sol\":4455:4467  return false */\n      swap1\n      pop\n        /* \"contracts/Hero_Deposit/Deposit.sol\":4280:4486  function checkDepositExist(address wallet) public view returns (bool) {\r... */\n    tag_149:\n      swap2\n      swap1\n      pop\n      jump\t// out\n        /* \"contracts/Hero_Deposit/Deposit.sol\":6957:7804  function DepositCusd(address _to,uint256 amount)\r... */\n    tag_52:\n        /* \"contracts/Hero_Deposit/Deposit.sol\":7071:7075  bool */\n      0x00\n        /* \"contracts/Hero_Deposit/Deposit.sol\":1741:1747  locked */\n      0x0c\n      0x14\n      swap1\n      sload\n      swap1\n      0x0100\n      exp\n      swap1\n      div\n      0xff\n      and\n        /* \"contracts/Hero_Deposit/Deposit.sol\":1740:1747  !locked */\n      iszero\n        /* \"contracts/Hero_Deposit/Deposit.sol\":1732:1748  require(!locked) */\n      tag_153\n      jumpi\n      0x00\n      dup1\n      revert\n    tag_153:\n        /* \"contracts/Hero_Deposit/Deposit.sol\":1768:1772  true */\n      0x01\n        /* \"contracts/Hero_Deposit/Deposit.sol\":1759:1765  locked */\n      0x0c\n      0x14\n        /* \"contracts/Hero_Deposit/Deposit.sol\":1759:1772  locked = true */\n      0x0100\n      exp\n      dup2\n      sload\n      dup2\n      0xff\n      mul\n      not\n      and\n      swap1\n      dup4\n      iszero\n      iszero\n      mul\n      or\n      swap1\n      sstore\n      pop\n        /* \"contracts/Hero_Deposit/Deposit.sol\":7137:7143  amount */\n      dup2\n        /* \"contracts/Hero_Deposit/Deposit.sol\":7115:7125  msg.sender */\n      caller\n        /* \"contracts/Hero_Deposit/Deposit.sol\":7115:7133  msg.sender.balance */\n      0xffffffffffffffffffffffffffffffffffffffff\n      and\n      balance\n        /* \"contracts/Hero_Deposit/Deposit.sol\":7115:7143  msg.sender.balance >= amount */\n      lt\n      iszero\n        /* \"contracts/Hero_Deposit/Deposit.sol\":7093:7201  require(\r... */\n      tag_155\n      jumpi\n      mload(0x40)\n      0x08c379a000000000000000000000000000000000000000000000000000000000\n      dup2\n      mstore\n      0x04\n      add\n      tag_156\n      swap1\n      tag_103\n      jump\t// in\n    tag_156:\n      mload(0x40)\n      dup1\n      swap2\n      sub\n      swap1\n      revert\n    tag_155:\n        /* \"contracts/Hero_Deposit/Deposit.sol\":7230:7231  1 */\n      0x01\n        /* \"contracts/Hero_Deposit/Deposit.sol\":7220:7226  amount */\n      dup3\n        /* \"contracts/Hero_Deposit/Deposit.sol\":7220:7231  amount >= 1 */\n      lt\n      iszero\n        /* \"contracts/Hero_Deposit/Deposit.sol\":7212:7263  require(amount >= 1, \"Thanks to deposit more cusd\") */\n      tag_157\n      jumpi\n      mload(0x40)\n      0x08c379a000000000000000000000000000000000000000000000000000000000\n      dup2\n      mstore\n      0x04\n      add\n      tag_158\n      swap1\n      tag_159\n      jump\t// in\n    tag_158:\n      mload(0x40)\n      dup1\n      swap2\n      sub\n      swap1\n      revert\n    tag_157:\n        /* \"contracts/Hero_Deposit/Deposit.sol\":7274:7279  index */\n      0x0a\n      0x00\n        /* \"contracts/Hero_Deposit/Deposit.sol\":7274:7281  index++ */\n      dup2\n      sload\n      dup1\n      swap3\n      swap2\n      swap1\n      tag_160\n      swap1\n      tag_118\n      jump\t// in\n    tag_160:\n      swap2\n      swap1\n      pop\n      sstore\n      pop\n        /* \"contracts/Hero_Deposit/Deposit.sol\":7293:7319  int256 currentCeloUsdPrice */\n      0x00\n        /* \"contracts/Hero_Deposit/Deposit.sol\":7321:7337  uint256 lastTime */\n      dup1\n        /* \"contracts/Hero_Deposit/Deposit.sol\":7341:7358  getCeloUsdPrice() */\n      tag_161\n        /* \"contracts/Hero_Deposit/Deposit.sol\":7341:7356  getCeloUsdPrice */\n      tag_105\n        /* \"contracts/Hero_Deposit/Deposit.sol\":7341:7358  getCeloUsdPrice() */\n      jump\t// in\n    tag_161:\n        /* \"contracts/Hero_Deposit/Deposit.sol\":7292:7358  (int256 currentCeloUsdPrice, uint256 lastTime) = getCeloUsdPrice() */\n      swap2\n      pop\n      swap2\n      pop\n        /* \"contracts/Hero_Deposit/Deposit.sol\":7473:7492  currentCeloUsdPrice */\n      dup2\n        /* \"contracts/Hero_Deposit/Deposit.sol\":7446:7452  amount */\n      dup5\n        /* \"contracts/Hero_Deposit/Deposit.sol\":7439:7492  int256(amount) *\r... */\n      tag_162\n      swap2\n      swap1\n      tag_112\n      jump\t// in\n    tag_162:\n        /* \"contracts/Hero_Deposit/Deposit.sol\":7373:7387  depositersLogs */\n      0x0b\n        /* \"contracts/Hero_Deposit/Deposit.sol\":7373:7399  depositersLogs[msg.sender] */\n      0x00\n        /* \"contracts/Hero_Deposit/Deposit.sol\":7388:7398  msg.sender */\n      caller\n        /* \"contracts/Hero_Deposit/Deposit.sol\":7373:7399  depositersLogs[msg.sender] */\n      0xffffffffffffffffffffffffffffffffffffffff\n      and\n      0xffffffffffffffffffffffffffffffffffffffff\n      and\n      dup2\n      mstore\n      0x20\n      add\n      swap1\n      dup2\n      mstore\n      0x20\n      add\n      0x00\n      keccak256\n        /* \"contracts/Hero_Deposit/Deposit.sol\":7373:7418  depositersLogs[msg.sender].totalDepositsValue */\n      0x01\n      add\n      0x00\n        /* \"contracts/Hero_Deposit/Deposit.sol\":7373:7492  depositersLogs[msg.sender].totalDepositsValue +=\r... */\n      dup3\n      dup3\n      sload\n      tag_163\n      swap2\n      swap1\n      tag_116\n      jump\t// in\n    tag_163:\n      swap3\n      pop\n      pop\n      dup2\n      swap1\n      sstore\n      pop\n        /* \"contracts/Hero_Deposit/Deposit.sol\":7507:7521  depositersLogs */\n      0x0b\n        /* \"contracts/Hero_Deposit/Deposit.sol\":7507:7533  depositersLogs[msg.sender] */\n      0x00\n        /* \"contracts/Hero_Deposit/Deposit.sol\":7522:7532  msg.sender */\n      caller\n        /* \"contracts/Hero_Deposit/Deposit.sol\":7507:7533  depositersLogs[msg.sender] */\n      0xffffffffffffffffffffffffffffffffffffffff\n      and\n      0xffffffffffffffffffffffffffffffffffffffff\n      and\n      dup2\n      mstore\n      0x20\n      add\n      swap1\n      dup2\n      mstore\n      0x20\n      add\n      0x00\n      keccak256\n        /* \"contracts/Hero_Deposit/Deposit.sol\":7507:7551  depositersLogs[msg.sender].totalDepositTimes */\n      0x02\n      add\n      0x00\n        /* \"contracts/Hero_Deposit/Deposit.sol\":7507:7553  depositersLogs[msg.sender].totalDepositTimes++ */\n      dup2\n      sload\n      dup1\n      swap3\n      swap2\n      swap1\n      tag_164\n      swap1\n      tag_118\n      jump\t// in\n    tag_164:\n      swap2\n      swap1\n      pop\n      sstore\n      pop\n        /* \"contracts/Hero_Deposit/Deposit.sol\":7568:7575  CusdERC */\n      0x05\n      0x00\n      swap1\n      sload\n      swap1\n      0x0100\n      exp\n      swap1\n      div\n      0xffffffffffffffffffffffffffffffffffffffff\n      and\n        /* \"contracts/Hero_Deposit/Deposit.sol\":7568:7588  CusdERC.transferFrom */\n      0xffffffffffffffffffffffffffffffffffffffff\n      and\n      0x23b872dd\n        /* \"contracts/Hero_Deposit/Deposit.sol\":7589:7599  msg.sender */\n      caller\n        /* \"contracts/Hero_Deposit/Deposit.sol\":7609:7613  this */\n      address\n        /* \"contracts/Hero_Deposit/Deposit.sol\":7616:7622  amount */\n      dup8\n        /* \"contracts/Hero_Deposit/Deposit.sol\":7568:7623  CusdERC.transferFrom(msg.sender, address(this), amount) */\n      mload(0x40)\n      dup5\n      0xffffffff\n      and\n      0xe0\n      shl\n      dup2\n      mstore\n      0x04\n      add\n      tag_165\n      swap4\n      swap3\n      swap2\n      swap1\n      tag_166\n      jump\t// in\n    tag_165:\n      0x20\n      mload(0x40)\n      dup1\n      dup4\n      sub\n      dup2\n      0x00\n      dup8\n      dup1\n      extcodesize\n      iszero\n      dup1\n      iszero\n      tag_167\n      jumpi\n      0x00\n      dup1\n      revert\n    tag_167:\n      pop\n      gas\n      call\n      iszero\n      dup1\n      iszero\n      tag_169\n      jumpi\n      returndatasize\n      0x00\n      dup1\n      returndatacopy\n      revert(0x00, returndatasize)\n    tag_169:\n      pop\n      pop\n      pop\n      pop\n      mload(0x40)\n      returndatasize\n      not(0x1f)\n      0x1f\n      dup3\n      add\n      and\n      dup3\n      add\n      dup1\n      0x40\n      mstore\n      pop\n      dup2\n      add\n      swap1\n      tag_170\n      swap2\n      swap1\n      tag_171\n      jump\t// in\n    tag_170:\n      pop\n        /* \"contracts/Hero_Deposit/Deposit.sol\":7673:7679  amount */\n      dup4\n        /* \"contracts/Hero_Deposit/Deposit.sol\":7638:7655  depositToActivist */\n      0x04\n        /* \"contracts/Hero_Deposit/Deposit.sol\":7638:7660  depositToActivist[_to] */\n      0x00\n        /* \"contracts/Hero_Deposit/Deposit.sol\":7656:7659  _to */\n      dup8\n        /* \"contracts/Hero_Deposit/Deposit.sol\":7638:7660  depositToActivist[_to] */\n      0xffffffffffffffffffffffffffffffffffffffff\n      and\n      0xffffffffffffffffffffffffffffffffffffffff\n      and\n      dup2\n      mstore\n      0x20\n      add\n      swap1\n      dup2\n      mstore\n      0x20\n      add\n      0x00\n      keccak256\n        /* \"contracts/Hero_Deposit/Deposit.sol\":7638:7669  depositToActivist[_to].usdcCoin */\n      0x01\n      add\n      0x00\n        /* \"contracts/Hero_Deposit/Deposit.sol\":7638:7679  depositToActivist[_to].usdcCoin += amount */\n      dup3\n      dup3\n      sload\n      tag_172\n      swap2\n      swap1\n      tag_120\n      jump\t// in\n    tag_172:\n      swap3\n      pop\n      pop\n      dup2\n      swap1\n      sstore\n      pop\n        /* \"contracts/Hero_Deposit/Deposit.sol\":7723:7726  _to */\n      dup5\n        /* \"contracts/Hero_Deposit/Deposit.sol\":7699:7752  depositLogs(msg.sender, _to, amount, block.timestamp) */\n      0xffffffffffffffffffffffffffffffffffffffff\n      and\n        /* \"contracts/Hero_Deposit/Deposit.sol\":7711:7721  msg.sender */\n      caller\n        /* \"contracts/Hero_Deposit/Deposit.sol\":7699:7752  depositLogs(msg.sender, _to, amount, block.timestamp) */\n      0xffffffffffffffffffffffffffffffffffffffff\n      and\n      0xadbbbbc8c9e65e88422d75c3d3cb93f41a5d520a2ca71c815348334de8c49121\n        /* \"contracts/Hero_Deposit/Deposit.sol\":7728:7734  amount */\n      dup7\n        /* \"contracts/Hero_Deposit/Deposit.sol\":7736:7751  block.timestamp */\n      timestamp\n        /* \"contracts/Hero_Deposit/Deposit.sol\":7699:7752  depositLogs(msg.sender, _to, amount, block.timestamp) */\n      mload(0x40)\n      tag_173\n      swap3\n      swap2\n      swap1\n      tag_75\n      jump\t// in\n    tag_173:\n      mload(0x40)\n      dup1\n      swap2\n      sub\n      swap1\n      log3\n        /* \"contracts/Hero_Deposit/Deposit.sol\":7774:7778  true */\n      0x01\n        /* \"contracts/Hero_Deposit/Deposit.sol\":7767:7778  return true */\n      swap3\n      pop\n      pop\n      pop\n        /* \"contracts/Hero_Deposit/Deposit.sol\":1804:1809  false */\n      0x00\n        /* \"contracts/Hero_Deposit/Deposit.sol\":1795:1801  locked */\n      0x0c\n      0x14\n        /* \"contracts/Hero_Deposit/Deposit.sol\":1795:1809  locked = false */\n      0x0100\n      exp\n      dup2\n      sload\n      dup2\n      0xff\n      mul\n      not\n      and\n      swap1\n      dup4\n      iszero\n      iszero\n      mul\n      or\n      swap1\n      sstore\n      pop\n        /* \"contracts/Hero_Deposit/Deposit.sol\":6957:7804  function DepositCusd(address _to,uint256 amount)\r... */\n      swap3\n      swap2\n      pop\n      pop\n      jump\t// out\n        /* \"contracts/Hero_Deposit/Deposit.sol\":269:312  IWitnetPriceRouter public witnetPriceRouter */\n    tag_56:\n      0x00\n      dup1\n      sload\n      swap1\n      0x0100\n      exp\n      swap1\n      div\n      0xffffffffffffffffffffffffffffffffffffffff\n      and\n      dup2\n      jump\t// out\n        /* \"contracts/Hero_Deposit/Deposit.sol\":6102:6850  function DepositCusdCredit(address contributer,address _to,uint256 amount)\r... */\n    tag_63:\n        /* \"contracts/Hero_Deposit/Deposit.sol\":6252:6256  bool */\n      0x00\n        /* \"contracts/Hero_Deposit/Deposit.sol\":1877:1882  owner */\n      0x0c\n      0x00\n      swap1\n      sload\n      swap1\n      0x0100\n      exp\n      swap1\n      div\n      0xffffffffffffffffffffffffffffffffffffffff\n      and\n        /* \"contracts/Hero_Deposit/Deposit.sol\":1863:1882  msg.sender == owner */\n      0xffffffffffffffffffffffffffffffffffffffff\n      and\n        /* \"contracts/Hero_Deposit/Deposit.sol\":1863:1873  msg.sender */\n      caller\n        /* \"contracts/Hero_Deposit/Deposit.sol\":1863:1882  msg.sender == owner */\n      0xffffffffffffffffffffffffffffffffffffffff\n      and\n      eq\n        /* \"contracts/Hero_Deposit/Deposit.sol\":1855:1883  require(msg.sender == owner) */\n      tag_175\n      jumpi\n      0x00\n      dup1\n      revert\n    tag_175:\n        /* \"contracts/Hero_Deposit/Deposit.sol\":1741:1747  locked */\n      0x0c\n      0x14\n      swap1\n      sload\n      swap1\n      0x0100\n      exp\n      swap1\n      div\n      0xff\n      and\n        /* \"contracts/Hero_Deposit/Deposit.sol\":1740:1747  !locked */\n      iszero\n        /* \"contracts/Hero_Deposit/Deposit.sol\":1732:1748  require(!locked) */\n      tag_177\n      jumpi\n      0x00\n      dup1\n      revert\n    tag_177:\n        /* \"contracts/Hero_Deposit/Deposit.sol\":1768:1772  true */\n      0x01\n        /* \"contracts/Hero_Deposit/Deposit.sol\":1759:1765  locked */\n      0x0c\n      0x14\n        /* \"contracts/Hero_Deposit/Deposit.sol\":1759:1772  locked = true */\n      0x0100\n      exp\n      dup2\n      sload\n      dup2\n      0xff\n      mul\n      not\n      and\n      swap1\n      dup4\n      iszero\n      iszero\n      mul\n      or\n      swap1\n      sstore\n      pop\n        /* \"contracts/Hero_Deposit/Deposit.sol\":6284:6310  int256 currentCeloUsdPrice */\n      0x00\n        /* \"contracts/Hero_Deposit/Deposit.sol\":6321:6337  uint256 lastTime */\n      dup1\n        /* \"contracts/Hero_Deposit/Deposit.sol\":6382:6399  getCeloUsdPrice() */\n      tag_179\n        /* \"contracts/Hero_Deposit/Deposit.sol\":6382:6397  getCeloUsdPrice */\n      tag_105\n        /* \"contracts/Hero_Deposit/Deposit.sol\":6382:6399  getCeloUsdPrice() */\n      jump\t// in\n    tag_179:\n        /* \"contracts/Hero_Deposit/Deposit.sol\":6348:6399  (currentCeloUsdPrice, lastTime) = getCeloUsdPrice() */\n      dup1\n      swap3\n      pop\n      dup2\n      swap4\n      pop\n      pop\n      pop\n        /* \"contracts/Hero_Deposit/Deposit.sol\":6410:6415  index */\n      0x0a\n      0x00\n        /* \"contracts/Hero_Deposit/Deposit.sol\":6410:6417  index++ */\n      dup2\n      sload\n      dup1\n      swap3\n      swap2\n      swap1\n      tag_180\n      swap1\n      tag_118\n      jump\t// in\n    tag_180:\n      swap2\n      swap1\n      pop\n      sstore\n      pop\n        /* \"contracts/Hero_Deposit/Deposit.sol\":6461:6466  index */\n      sload(0x0a)\n        /* \"contracts/Hero_Deposit/Deposit.sol\":6428:6442  depositersLogs */\n      0x0b\n        /* \"contracts/Hero_Deposit/Deposit.sol\":6428:6455  depositersLogs[contributer] */\n      0x00\n        /* \"contracts/Hero_Deposit/Deposit.sol\":6443:6454  contributer */\n      dup9\n        /* \"contracts/Hero_Deposit/Deposit.sol\":6428:6455  depositersLogs[contributer] */\n      0xffffffffffffffffffffffffffffffffffffffff\n      and\n      0xffffffffffffffffffffffffffffffffffffffff\n      and\n      dup2\n      mstore\n      0x20\n      add\n      swap1\n      dup2\n      mstore\n      0x20\n      add\n      0x00\n      keccak256\n        /* \"contracts/Hero_Deposit/Deposit.sol\":6428:6458  depositersLogs[contributer].id */\n      0x00\n      add\n        /* \"contracts/Hero_Deposit/Deposit.sol\":6428:6466  depositersLogs[contributer].id = index */\n      dup2\n      swap1\n      sstore\n      pop\n        /* \"contracts/Hero_Deposit/Deposit.sol\":6544:6563  currentCeloUsdPrice */\n      dup2\n        /* \"contracts/Hero_Deposit/Deposit.sol\":6534:6540  amount */\n      dup5\n        /* \"contracts/Hero_Deposit/Deposit.sol\":6527:6563  int256(amount) * currentCeloUsdPrice */\n      tag_181\n      swap2\n      swap1\n      tag_112\n      jump\t// in\n    tag_181:\n        /* \"contracts/Hero_Deposit/Deposit.sol\":6477:6491  depositersLogs */\n      0x0b\n        /* \"contracts/Hero_Deposit/Deposit.sol\":6477:6504  depositersLogs[contributer] */\n      0x00\n        /* \"contracts/Hero_Deposit/Deposit.sol\":6492:6503  contributer */\n      dup9\n        /* \"contracts/Hero_Deposit/Deposit.sol\":6477:6504  depositersLogs[contributer] */\n      0xffffffffffffffffffffffffffffffffffffffff\n      and\n      0xffffffffffffffffffffffffffffffffffffffff\n      and\n      dup2\n      mstore\n      0x20\n      add\n      swap1\n      dup2\n      mstore\n      0x20\n      add\n      0x00\n      keccak256\n        /* \"contracts/Hero_Deposit/Deposit.sol\":6477:6523  depositersLogs[contributer].totalDepositsValue */\n      0x01\n      add\n      0x00\n        /* \"contracts/Hero_Deposit/Deposit.sol\":6477:6563  depositersLogs[contributer].totalDepositsValue += int256(amount) * currentCeloUsdPrice */\n      dup3\n      dup3\n      sload\n      tag_182\n      swap2\n      swap1\n      tag_116\n      jump\t// in\n    tag_182:\n      swap3\n      pop\n      pop\n      dup2\n      swap1\n      sstore\n      pop\n        /* \"contracts/Hero_Deposit/Deposit.sol\":6623:6634  contributer */\n      dup6\n        /* \"contracts/Hero_Deposit/Deposit.sol\":6574:6588  depositersLogs */\n      0x0b\n        /* \"contracts/Hero_Deposit/Deposit.sol\":6574:6601  depositersLogs[contributer] */\n      0x00\n        /* \"contracts/Hero_Deposit/Deposit.sol\":6589:6600  contributer */\n      dup9\n        /* \"contracts/Hero_Deposit/Deposit.sol\":6574:6601  depositersLogs[contributer] */\n      0xffffffffffffffffffffffffffffffffffffffff\n      and\n      0xffffffffffffffffffffffffffffffffffffffff\n      and\n      dup2\n      mstore\n      0x20\n      add\n      swap1\n      dup2\n      mstore\n      0x20\n      add\n      0x00\n      keccak256\n        /* \"contracts/Hero_Deposit/Deposit.sol\":6574:6612  depositersLogs[contributer].userWallet */\n      0x03\n      add\n      0x00\n        /* \"contracts/Hero_Deposit/Deposit.sol\":6574:6635  depositersLogs[contributer].userWallet = address(contributer) */\n      0x0100\n      exp\n      dup2\n      sload\n      dup2\n      0xffffffffffffffffffffffffffffffffffffffff\n      mul\n      not\n      and\n      swap1\n      dup4\n      0xffffffffffffffffffffffffffffffffffffffff\n      and\n      mul\n      or\n      swap1\n      sstore\n      pop\n        /* \"contracts/Hero_Deposit/Deposit.sol\":6695:6696  1 */\n      0x01\n        /* \"contracts/Hero_Deposit/Deposit.sol\":6646:6660  depositersLogs */\n      0x0b\n        /* \"contracts/Hero_Deposit/Deposit.sol\":6646:6673  depositersLogs[contributer] */\n      0x00\n        /* \"contracts/Hero_Deposit/Deposit.sol\":6661:6672  contributer */\n      dup9\n        /* \"contracts/Hero_Deposit/Deposit.sol\":6646:6673  depositersLogs[contributer] */\n      0xffffffffffffffffffffffffffffffffffffffff\n      and\n      0xffffffffffffffffffffffffffffffffffffffff\n      and\n      dup2\n      mstore\n      0x20\n      add\n      swap1\n      dup2\n      mstore\n      0x20\n      add\n      0x00\n      keccak256\n        /* \"contracts/Hero_Deposit/Deposit.sol\":6646:6691  depositersLogs[contributer].totalDepositTimes */\n      0x02\n      add\n      0x00\n        /* \"contracts/Hero_Deposit/Deposit.sol\":6646:6696  depositersLogs[contributer].totalDepositTimes += 1 */\n      dup3\n      dup3\n      sload\n      tag_183\n      swap2\n      swap1\n      tag_120\n      jump\t// in\n    tag_183:\n      swap3\n      pop\n      pop\n      dup2\n      swap1\n      sstore\n      pop\n        /* \"contracts/Hero_Deposit/Deposit.sol\":6742:6748  amount */\n      dup4\n        /* \"contracts/Hero_Deposit/Deposit.sol\":6707:6724  depositToActivist */\n      0x04\n        /* \"contracts/Hero_Deposit/Deposit.sol\":6707:6729  depositToActivist[_to] */\n      0x00\n        /* \"contracts/Hero_Deposit/Deposit.sol\":6725:6728  _to */\n      dup8\n        /* \"contracts/Hero_Deposit/Deposit.sol\":6707:6729  depositToActivist[_to] */\n      0xffffffffffffffffffffffffffffffffffffffff\n      and\n      0xffffffffffffffffffffffffffffffffffffffff\n      and\n      dup2\n      mstore\n      0x20\n      add\n      swap1\n      dup2\n      mstore\n      0x20\n      add\n      0x00\n      keccak256\n        /* \"contracts/Hero_Deposit/Deposit.sol\":6707:6738  depositToActivist[_to].usdcCoin */\n      0x01\n      add\n      0x00\n        /* \"contracts/Hero_Deposit/Deposit.sol\":6707:6748  depositToActivist[_to].usdcCoin += amount */\n      dup3\n      dup3\n      sload\n      tag_184\n      swap2\n      swap1\n      tag_120\n      jump\t// in\n    tag_184:\n      swap3\n      pop\n      pop\n      dup2\n      swap1\n      sstore\n      pop\n        /* \"contracts/Hero_Deposit/Deposit.sol\":6838:6842  true */\n      0x01\n        /* \"contracts/Hero_Deposit/Deposit.sol\":6831:6842  return true */\n      swap3\n      pop\n      pop\n      pop\n        /* \"contracts/Hero_Deposit/Deposit.sol\":1804:1809  false */\n      0x00\n        /* \"contracts/Hero_Deposit/Deposit.sol\":1795:1801  locked */\n      0x0c\n      0x14\n        /* \"contracts/Hero_Deposit/Deposit.sol\":1795:1809  locked = false */\n      0x0100\n      exp\n      dup2\n      sload\n      dup2\n      0xff\n      mul\n      not\n      and\n      swap1\n      dup4\n      iszero\n      iszero\n      mul\n      or\n      swap1\n      sstore\n      pop\n        /* \"contracts/Hero_Deposit/Deposit.sol\":6102:6850  function DepositCusdCredit(address contributer,address _to,uint256 amount)\r... */\n      swap4\n      swap3\n      pop\n      pop\n      pop\n      jump\t// out\n        /* \"contracts/Hero_Deposit/Deposit.sol\":1588:1637  mapping(address => deposit) public depositersLogs */\n    tag_68:\n      mstore(0x20, 0x0b)\n      dup1\n      0x00\n      mstore\n      keccak256(0x00, 0x40)\n      0x00\n      swap2\n      pop\n      swap1\n      pop\n      dup1\n      0x00\n      add\n      sload\n      swap1\n      dup1\n      0x01\n      add\n      sload\n      swap1\n      dup1\n      0x02\n      add\n      sload\n      swap1\n      dup1\n      0x03\n      add\n      0x00\n      swap1\n      sload\n      swap1\n      0x0100\n      exp\n      swap1\n      div\n      0xffffffffffffffffffffffffffffffffffffffff\n      and\n      swap1\n      pop\n      dup5\n      jump\t// out\n        /* \"contracts/Hero_Deposit/Deposit.sol\":7812:8832  function withdrowCelo(address payable _to)\r... */\n    tag_73:\n        /* \"contracts/Hero_Deposit/Deposit.sol\":7930:7937  uint256 */\n      0x00\n        /* \"contracts/Hero_Deposit/Deposit.sol\":7939:7946  uint256 */\n      dup1\n        /* \"contracts/Hero_Deposit/Deposit.sol\":1741:1747  locked */\n      0x0c\n      0x14\n      swap1\n      sload\n      swap1\n      0x0100\n      exp\n      swap1\n      div\n      0xff\n      and\n        /* \"contracts/Hero_Deposit/Deposit.sol\":1740:1747  !locked */\n      iszero\n        /* \"contracts/Hero_Deposit/Deposit.sol\":1732:1748  require(!locked) */\n      tag_186\n      jumpi\n      0x00\n      dup1\n      revert\n    tag_186:\n        /* \"contracts/Hero_Deposit/Deposit.sol\":1768:1772  true */\n      0x01\n        /* \"contracts/Hero_Deposit/Deposit.sol\":1759:1765  locked */\n      0x0c\n      0x14\n        /* \"contracts/Hero_Deposit/Deposit.sol\":1759:1772  locked = true */\n      0x0100\n      exp\n      dup2\n      sload\n      dup2\n      0xff\n      mul\n      not\n      and\n      swap1\n      dup4\n      iszero\n      iszero\n      mul\n      or\n      swap1\n      sstore\n      pop\n        /* \"contracts/Hero_Deposit/Deposit.sol\":8021:8030  msg.value */\n      callvalue\n        /* \"contracts/Hero_Deposit/Deposit.sol\":7986:8003  depositToActivist */\n      0x04\n        /* \"contracts/Hero_Deposit/Deposit.sol\":7986:8008  depositToActivist[_to] */\n      0x00\n        /* \"contracts/Hero_Deposit/Deposit.sol\":8004:8007  _to */\n      dup6\n        /* \"contracts/Hero_Deposit/Deposit.sol\":7986:8008  depositToActivist[_to] */\n      0xffffffffffffffffffffffffffffffffffffffff\n      and\n      0xffffffffffffffffffffffffffffffffffffffff\n      and\n      dup2\n      mstore\n      0x20\n      add\n      swap1\n      dup2\n      mstore\n      0x20\n      add\n      0x00\n      keccak256\n        /* \"contracts/Hero_Deposit/Deposit.sol\":7986:8017  depositToActivist[_to].celoCoin */\n      0x00\n      add\n      sload\n        /* \"contracts/Hero_Deposit/Deposit.sol\":7986:8030  depositToActivist[_to].celoCoin >= msg.value */\n      lt\n      iszero\n        /* \"contracts/Hero_Deposit/Deposit.sol\":7964:8073  require(\r... */\n      tag_188\n      jumpi\n      mload(0x40)\n      0x08c379a000000000000000000000000000000000000000000000000000000000\n      dup2\n      mstore\n      0x04\n      add\n      tag_189\n      swap1\n      tag_190\n      jump\t// in\n    tag_189:\n      mload(0x40)\n      dup1\n      swap2\n      sub\n      swap1\n      revert\n    tag_188:\n        /* \"contracts/Hero_Deposit/Deposit.sol\":8085:8111  int256 currentCeloUsdPrice */\n      0x00\n        /* \"contracts/Hero_Deposit/Deposit.sol\":8113:8129  uint256 lastTime */\n      dup1\n        /* \"contracts/Hero_Deposit/Deposit.sol\":8133:8150  getCeloUsdPrice() */\n      tag_191\n        /* \"contracts/Hero_Deposit/Deposit.sol\":8133:8148  getCeloUsdPrice */\n      tag_105\n        /* \"contracts/Hero_Deposit/Deposit.sol\":8133:8150  getCeloUsdPrice() */\n      jump\t// in\n    tag_191:\n        /* \"contracts/Hero_Deposit/Deposit.sol\":8084:8150  (int256 currentCeloUsdPrice, uint256 lastTime) = getCeloUsdPrice() */\n      swap2\n      pop\n      swap2\n      pop\n        /* \"contracts/Hero_Deposit/Deposit.sol\":8163:8177  uint256 amount */\n      0x00\n        /* \"contracts/Hero_Deposit/Deposit.sol\":8311:8313  12 */\n      0x0c\n        /* \"contracts/Hero_Deposit/Deposit.sol\":8273:8292  currentCeloUsdPrice */\n      dup4\n        /* \"contracts/Hero_Deposit/Deposit.sol\":8231:8248  depositToActivist */\n      0x04\n        /* \"contracts/Hero_Deposit/Deposit.sol\":8231:8253  depositToActivist[_to] */\n      0x00\n        /* \"contracts/Hero_Deposit/Deposit.sol\":8249:8252  _to */\n      dup10\n        /* \"contracts/Hero_Deposit/Deposit.sol\":8231:8253  depositToActivist[_to] */\n      0xffffffffffffffffffffffffffffffffffffffff\n      and\n      0xffffffffffffffffffffffffffffffffffffffff\n      and\n      dup2\n      mstore\n      0x20\n      add\n      swap1\n      dup2\n      mstore\n      0x20\n      add\n      0x00\n      keccak256\n        /* \"contracts/Hero_Deposit/Deposit.sol\":8231:8262  depositToActivist[_to].usdcCoin */\n      0x01\n      add\n      sload\n        /* \"contracts/Hero_Deposit/Deposit.sol\":8231:8293  depositToActivist[_to].usdcCoin / uint256(currentCeloUsdPrice) */\n      tag_192\n      swap2\n      swap1\n      tag_193\n      jump\t// in\n    tag_192:\n        /* \"contracts/Hero_Deposit/Deposit.sol\":8182:8199  depositToActivist */\n      0x04\n        /* \"contracts/Hero_Deposit/Deposit.sol\":8182:8204  depositToActivist[_to] */\n      0x00\n        /* \"contracts/Hero_Deposit/Deposit.sol\":8200:8203  _to */\n      dup10\n        /* \"contracts/Hero_Deposit/Deposit.sol\":8182:8204  depositToActivist[_to] */\n      0xffffffffffffffffffffffffffffffffffffffff\n      and\n      0xffffffffffffffffffffffffffffffffffffffff\n      and\n      dup2\n      mstore\n      0x20\n      add\n      swap1\n      dup2\n      mstore\n      0x20\n      add\n      0x00\n      keccak256\n        /* \"contracts/Hero_Deposit/Deposit.sol\":8182:8213  depositToActivist[_to].celoCoin */\n      0x00\n      add\n      sload\n        /* \"contracts/Hero_Deposit/Deposit.sol\":8181:8294  (depositToActivist[_to].celoCoin) +\r... */\n      tag_194\n      swap2\n      swap1\n      tag_120\n      jump\t// in\n    tag_194:\n        /* \"contracts/Hero_Deposit/Deposit.sol\":8180:8313  ((depositToActivist[_to].celoCoin) +\r... */\n      tag_195\n      swap2\n      swap1\n      tag_193\n      jump\t// in\n    tag_195:\n        /* \"contracts/Hero_Deposit/Deposit.sol\":8163:8313  uint256 amount = ((depositToActivist[_to].celoCoin) +\r... */\n      swap1\n      pop\n        /* \"contracts/Hero_Deposit/Deposit.sol\":8324:8327  _to */\n      dup6\n        /* \"contracts/Hero_Deposit/Deposit.sol\":8324:8336  _to.transfer */\n      0xffffffffffffffffffffffffffffffffffffffff\n      and\n        /* \"contracts/Hero_Deposit/Deposit.sol\":8324:8344  _to.transfer(amount) */\n      0x08fc\n        /* \"contracts/Hero_Deposit/Deposit.sol\":8337:8343  amount */\n      dup3\n        /* \"contracts/Hero_Deposit/Deposit.sol\":8324:8344  _to.transfer(amount) */\n      swap1\n      dup2\n      iszero\n      mul\n      swap1\n      mload(0x40)\n      0x00\n      mload(0x40)\n      dup1\n      dup4\n      sub\n      dup2\n      dup6\n      dup9\n      dup9\n      call\n      swap4\n      pop\n      pop\n      pop\n      pop\n      iszero\n      dup1\n      iszero\n      tag_197\n      jumpi\n      returndatasize\n      0x00\n      dup1\n      returndatacopy\n      revert(0x00, returndatasize)\n    tag_197:\n      pop\n        /* \"contracts/Hero_Deposit/Deposit.sol\":8396:8397  0 */\n      0x00\n        /* \"contracts/Hero_Deposit/Deposit.sol\":8361:8378  depositToActivist */\n      0x04\n        /* \"contracts/Hero_Deposit/Deposit.sol\":8361:8383  depositToActivist[_to] */\n      0x00\n        /* \"contracts/Hero_Deposit/Deposit.sol\":8379:8382  _to */\n      dup9\n        /* \"contracts/Hero_Deposit/Deposit.sol\":8361:8383  depositToActivist[_to] */\n      0xffffffffffffffffffffffffffffffffffffffff\n      and\n      0xffffffffffffffffffffffffffffffffffffffff\n      and\n      dup2\n      mstore\n      0x20\n      add\n      swap1\n      dup2\n      mstore\n      0x20\n      add\n      0x00\n      keccak256\n        /* \"contracts/Hero_Deposit/Deposit.sol\":8361:8392  depositToActivist[_to].celoCoin */\n      0x00\n      add\n      sload\n        /* \"contracts/Hero_Deposit/Deposit.sol\":8361:8397  depositToActivist[_to].celoCoin == 0 */\n      eq\n        /* \"contracts/Hero_Deposit/Deposit.sol\":8357:8721  if (depositToActivist[_to].celoCoin == 0) {\r... */\n      iszero\n      tag_198\n      jumpi\n        /* \"contracts/Hero_Deposit/Deposit.sol\":8449:8455  amount */\n      dup1\n        /* \"contracts/Hero_Deposit/Deposit.sol\":8414:8431  depositToActivist */\n      0x04\n        /* \"contracts/Hero_Deposit/Deposit.sol\":8414:8436  depositToActivist[_to] */\n      0x00\n        /* \"contracts/Hero_Deposit/Deposit.sol\":8432:8435  _to */\n      dup9\n        /* \"contracts/Hero_Deposit/Deposit.sol\":8414:8436  depositToActivist[_to] */\n      0xffffffffffffffffffffffffffffffffffffffff\n      and\n      0xffffffffffffffffffffffffffffffffffffffff\n      and\n      dup2\n      mstore\n      0x20\n      add\n      swap1\n      dup2\n      mstore\n      0x20\n      add\n      0x00\n      keccak256\n        /* \"contracts/Hero_Deposit/Deposit.sol\":8414:8445  depositToActivist[_to].usdcCoin */\n      0x01\n      add\n      0x00\n        /* \"contracts/Hero_Deposit/Deposit.sol\":8414:8455  depositToActivist[_to].usdcCoin -= amount */\n      dup3\n      dup3\n      sload\n      tag_199\n      swap2\n      swap1\n      tag_200\n      jump\t// in\n    tag_199:\n      swap3\n      pop\n      pop\n      dup2\n      swap1\n      sstore\n      pop\n        /* \"contracts/Hero_Deposit/Deposit.sol\":8357:8721  if (depositToActivist[_to].celoCoin == 0) {\r... */\n      jump(tag_201)\n    tag_198:\n        /* \"contracts/Hero_Deposit/Deposit.sol\":8512:8513  0 */\n      0x00\n        /* \"contracts/Hero_Deposit/Deposit.sol\":8477:8494  depositToActivist */\n      0x04\n        /* \"contracts/Hero_Deposit/Deposit.sol\":8477:8499  depositToActivist[_to] */\n      0x00\n        /* \"contracts/Hero_Deposit/Deposit.sol\":8495:8498  _to */\n      dup9\n        /* \"contracts/Hero_Deposit/Deposit.sol\":8477:8499  depositToActivist[_to] */\n      0xffffffffffffffffffffffffffffffffffffffff\n      and\n      0xffffffffffffffffffffffffffffffffffffffff\n      and\n      dup2\n      mstore\n      0x20\n      add\n      swap1\n      dup2\n      mstore\n      0x20\n      add\n      0x00\n      keccak256\n        /* \"contracts/Hero_Deposit/Deposit.sol\":8477:8508  depositToActivist[_to].usdcCoin */\n      0x01\n      add\n      sload\n        /* \"contracts/Hero_Deposit/Deposit.sol\":8477:8513  depositToActivist[_to].usdcCoin == 0 */\n      eq\n        /* \"contracts/Hero_Deposit/Deposit.sol\":8473:8721  if (depositToActivist[_to].usdcCoin == 0) {\r... */\n      iszero\n      tag_202\n      jumpi\n        /* \"contracts/Hero_Deposit/Deposit.sol\":8565:8571  amount */\n      dup1\n        /* \"contracts/Hero_Deposit/Deposit.sol\":8530:8547  depositToActivist */\n      0x04\n        /* \"contracts/Hero_Deposit/Deposit.sol\":8530:8552  depositToActivist[_to] */\n      0x00\n        /* \"contracts/Hero_Deposit/Deposit.sol\":8548:8551  _to */\n      dup9\n        /* \"contracts/Hero_Deposit/Deposit.sol\":8530:8552  depositToActivist[_to] */\n      0xffffffffffffffffffffffffffffffffffffffff\n      and\n      0xffffffffffffffffffffffffffffffffffffffff\n      and\n      dup2\n      mstore\n      0x20\n      add\n      swap1\n      dup2\n      mstore\n      0x20\n      add\n      0x00\n      keccak256\n        /* \"contracts/Hero_Deposit/Deposit.sol\":8530:8561  depositToActivist[_to].celoCoin */\n      0x00\n      add\n      0x00\n        /* \"contracts/Hero_Deposit/Deposit.sol\":8530:8571  depositToActivist[_to].celoCoin -= amount */\n      dup3\n      dup3\n      sload\n      tag_203\n      swap2\n      swap1\n      tag_200\n      jump\t// in\n    tag_203:\n      swap3\n      pop\n      pop\n      dup2\n      swap1\n      sstore\n      pop\n        /* \"contracts/Hero_Deposit/Deposit.sol\":8473:8721  if (depositToActivist[_to].usdcCoin == 0) {\r... */\n      jump(tag_204)\n    tag_202:\n        /* \"contracts/Hero_Deposit/Deposit.sol\":8648:8649  2 */\n      0x02\n        /* \"contracts/Hero_Deposit/Deposit.sol\":8639:8645  amount */\n      dup2\n        /* \"contracts/Hero_Deposit/Deposit.sol\":8639:8649  amount / 2 */\n      tag_205\n      swap2\n      swap1\n      tag_193\n      jump\t// in\n    tag_205:\n        /* \"contracts/Hero_Deposit/Deposit.sol\":8604:8621  depositToActivist */\n      0x04\n        /* \"contracts/Hero_Deposit/Deposit.sol\":8604:8626  depositToActivist[_to] */\n      0x00\n        /* \"contracts/Hero_Deposit/Deposit.sol\":8622:8625  _to */\n      dup9\n        /* \"contracts/Hero_Deposit/Deposit.sol\":8604:8626  depositToActivist[_to] */\n      0xffffffffffffffffffffffffffffffffffffffff\n      and\n      0xffffffffffffffffffffffffffffffffffffffff\n      and\n      dup2\n      mstore\n      0x20\n      add\n      swap1\n      dup2\n      mstore\n      0x20\n      add\n      0x00\n      keccak256\n        /* \"contracts/Hero_Deposit/Deposit.sol\":8604:8635  depositToActivist[_to].celoCoin */\n      0x00\n      add\n      0x00\n        /* \"contracts/Hero_Deposit/Deposit.sol\":8604:8649  depositToActivist[_to].celoCoin -= amount / 2 */\n      dup3\n      dup3\n      sload\n      tag_206\n      swap2\n      swap1\n      tag_200\n      jump\t// in\n    tag_206:\n      swap3\n      pop\n      pop\n      dup2\n      swap1\n      sstore\n      pop\n        /* \"contracts/Hero_Deposit/Deposit.sol\":8708:8709  2 */\n      0x02\n        /* \"contracts/Hero_Deposit/Deposit.sol\":8699:8705  amount */\n      dup2\n        /* \"contracts/Hero_Deposit/Deposit.sol\":8699:8709  amount / 2 */\n      tag_207\n      swap2\n      swap1\n      tag_193\n      jump\t// in\n    tag_207:\n        /* \"contracts/Hero_Deposit/Deposit.sol\":8664:8681  depositToActivist */\n      0x04\n        /* \"contracts/Hero_Deposit/Deposit.sol\":8664:8686  depositToActivist[_to] */\n      0x00\n        /* \"contracts/Hero_Deposit/Deposit.sol\":8682:8685  _to */\n      dup9\n        /* \"contracts/Hero_Deposit/Deposit.sol\":8664:8686  depositToActivist[_to] */\n      0xffffffffffffffffffffffffffffffffffffffff\n      and\n      0xffffffffffffffffffffffffffffffffffffffff\n      and\n      dup2\n      mstore\n      0x20\n      add\n      swap1\n      dup2\n      mstore\n      0x20\n      add\n      0x00\n      keccak256\n        /* \"contracts/Hero_Deposit/Deposit.sol\":8664:8695  depositToActivist[_to].usdcCoin */\n      0x01\n      add\n      0x00\n        /* \"contracts/Hero_Deposit/Deposit.sol\":8664:8709  depositToActivist[_to].usdcCoin -= amount / 2 */\n      dup3\n      dup3\n      sload\n      tag_208\n      swap2\n      swap1\n      tag_200\n      jump\t// in\n    tag_208:\n      swap3\n      pop\n      pop\n      dup2\n      swap1\n      sstore\n      pop\n        /* \"contracts/Hero_Deposit/Deposit.sol\":8473:8721  if (depositToActivist[_to].usdcCoin == 0) {\r... */\n    tag_204:\n        /* \"contracts/Hero_Deposit/Deposit.sol\":8357:8721  if (depositToActivist[_to].celoCoin == 0) {\r... */\n    tag_201:\n        /* \"contracts/Hero_Deposit/Deposit.sol\":8752:8755  _to */\n      dup6\n        /* \"contracts/Hero_Deposit/Deposit.sol\":8736:8781  activistPayment(_to, amount, block.timestamp) */\n      0xffffffffffffffffffffffffffffffffffffffff\n      and\n      0x9cd516bc314ca50bb8f1f5602d3f202cdcbf17b89da33dd13c3909d5d3c00a32\n        /* \"contracts/Hero_Deposit/Deposit.sol\":8757:8763  amount */\n      dup3\n        /* \"contracts/Hero_Deposit/Deposit.sol\":8765:8780  block.timestamp */\n      timestamp\n        /* \"contracts/Hero_Deposit/Deposit.sol\":8736:8781  activistPayment(_to, amount, block.timestamp) */\n      mload(0x40)\n      tag_209\n      swap3\n      swap2\n      swap1\n      tag_75\n      jump\t// in\n    tag_209:\n      mload(0x40)\n      dup1\n      swap2\n      sub\n      swap1\n      log2\n        /* \"contracts/Hero_Deposit/Deposit.sol\":8800:8806  amount */\n      dup1\n        /* \"contracts/Hero_Deposit/Deposit.sol\":8808:8823  block.timestamp */\n      timestamp\n        /* \"contracts/Hero_Deposit/Deposit.sol\":8792:8824  return (amount, block.timestamp) */\n      swap5\n      pop\n      swap5\n      pop\n      pop\n      pop\n      pop\n        /* \"contracts/Hero_Deposit/Deposit.sol\":1804:1809  false */\n      0x00\n        /* \"contracts/Hero_Deposit/Deposit.sol\":1795:1801  locked */\n      0x0c\n      0x14\n        /* \"contracts/Hero_Deposit/Deposit.sol\":1795:1809  locked = false */\n      0x0100\n      exp\n      dup2\n      sload\n      dup2\n      0xff\n      mul\n      not\n      and\n      swap1\n      dup4\n      iszero\n      iszero\n      mul\n      or\n      swap1\n      sstore\n      pop\n        /* \"contracts/Hero_Deposit/Deposit.sol\":7812:8832  function withdrowCelo(address payable _to)\r... */\n      swap2\n      pop\n      swap2\n      jump\t// out\n        /* \"contracts/Hero_Deposit/Deposit.sol\":687:743  mapping(address => ativistBank) public depositToActivist */\n    tag_79:\n      mstore(0x20, 0x04)\n      dup1\n      0x00\n      mstore\n      keccak256(0x00, 0x40)\n      0x00\n      swap2\n      pop\n      swap1\n      pop\n      dup1\n      0x00\n      add\n      sload\n      swap1\n      dup1\n      0x01\n      add\n      sload\n      swap1\n      pop\n      dup3\n      jump\t// out\n        /* \"contracts/Hero_Deposit/Deposit.sol\":8840:9869  function withdrowCusd(address payable _to)\r... */\n    tag_83:\n        /* \"contracts/Hero_Deposit/Deposit.sol\":8958:8965  uint256 */\n      0x00\n        /* \"contracts/Hero_Deposit/Deposit.sol\":8967:8974  uint256 */\n      dup1\n        /* \"contracts/Hero_Deposit/Deposit.sol\":1741:1747  locked */\n      0x0c\n      0x14\n      swap1\n      sload\n      swap1\n      0x0100\n      exp\n      swap1\n      div\n      0xff\n      and\n        /* \"contracts/Hero_Deposit/Deposit.sol\":1740:1747  !locked */\n      iszero\n        /* \"contracts/Hero_Deposit/Deposit.sol\":1732:1748  require(!locked) */\n      tag_211\n      jumpi\n      0x00\n      dup1\n      revert\n    tag_211:\n        /* \"contracts/Hero_Deposit/Deposit.sol\":1768:1772  true */\n      0x01\n        /* \"contracts/Hero_Deposit/Deposit.sol\":1759:1765  locked */\n      0x0c\n      0x14\n        /* \"contracts/Hero_Deposit/Deposit.sol\":1759:1772  locked = true */\n      0x0100\n      exp\n      dup2\n      sload\n      dup2\n      0xff\n      mul\n      not\n      and\n      swap1\n      dup4\n      iszero\n      iszero\n      mul\n      or\n      swap1\n      sstore\n      pop\n        /* \"contracts/Hero_Deposit/Deposit.sol\":8993:9019  int256 currentCeloUsdPrice */\n      0x00\n        /* \"contracts/Hero_Deposit/Deposit.sol\":9021:9037  uint256 lastTime */\n      dup1\n        /* \"contracts/Hero_Deposit/Deposit.sol\":9041:9058  getCeloUsdPrice() */\n      tag_213\n        /* \"contracts/Hero_Deposit/Deposit.sol\":9041:9056  getCeloUsdPrice */\n      tag_105\n        /* \"contracts/Hero_Deposit/Deposit.sol\":9041:9058  getCeloUsdPrice() */\n      jump\t// in\n    tag_213:\n        /* \"contracts/Hero_Deposit/Deposit.sol\":8992:9058  (int256 currentCeloUsdPrice, uint256 lastTime) = getCeloUsdPrice() */\n      swap2\n      pop\n      swap2\n      pop\n        /* \"contracts/Hero_Deposit/Deposit.sol\":9069:9083  uint256 amount */\n      0x00\n        /* \"contracts/Hero_Deposit/Deposit.sol\":9217:9219  12 */\n      0x0c\n        /* \"contracts/Hero_Deposit/Deposit.sol\":9168:9185  depositToActivist */\n      0x04\n        /* \"contracts/Hero_Deposit/Deposit.sol\":9168:9190  depositToActivist[_to] */\n      0x00\n        /* \"contracts/Hero_Deposit/Deposit.sol\":9186:9189  _to */\n      dup9\n        /* \"contracts/Hero_Deposit/Deposit.sol\":9168:9190  depositToActivist[_to] */\n      0xffffffffffffffffffffffffffffffffffffffff\n      and\n      0xffffffffffffffffffffffffffffffffffffffff\n      and\n      dup2\n      mstore\n      0x20\n      add\n      swap1\n      dup2\n      mstore\n      0x20\n      add\n      0x00\n      keccak256\n        /* \"contracts/Hero_Deposit/Deposit.sol\":9168:9199  depositToActivist[_to].usdcCoin */\n      0x01\n      add\n      sload\n        /* \"contracts/Hero_Deposit/Deposit.sol\":9143:9162  currentCeloUsdPrice */\n      dup5\n        /* \"contracts/Hero_Deposit/Deposit.sol\":9088:9105  depositToActivist */\n      0x04\n        /* \"contracts/Hero_Deposit/Deposit.sol\":9088:9110  depositToActivist[_to] */\n      0x00\n        /* \"contracts/Hero_Deposit/Deposit.sol\":9106:9109  _to */\n      dup11\n        /* \"contracts/Hero_Deposit/Deposit.sol\":9088:9110  depositToActivist[_to] */\n      0xffffffffffffffffffffffffffffffffffffffff\n      and\n      0xffffffffffffffffffffffffffffffffffffffff\n      and\n      dup2\n      mstore\n      0x20\n      add\n      swap1\n      dup2\n      mstore\n      0x20\n      add\n      0x00\n      keccak256\n        /* \"contracts/Hero_Deposit/Deposit.sol\":9088:9119  depositToActivist[_to].celoCoin */\n      0x00\n      add\n      sload\n        /* \"contracts/Hero_Deposit/Deposit.sol\":9088:9163  depositToActivist[_to].celoCoin *\r... */\n      tag_214\n      swap2\n      swap1\n      tag_215\n      jump\t// in\n    tag_214:\n        /* \"contracts/Hero_Deposit/Deposit.sol\":9087:9200  (depositToActivist[_to].celoCoin *\r... */\n      tag_216\n      swap2\n      swap1\n      tag_120\n      jump\t// in\n    tag_216:\n        /* \"contracts/Hero_Deposit/Deposit.sol\":9086:9219  ((depositToActivist[_to].celoCoin *\r... */\n      tag_217\n      swap2\n      swap1\n      tag_193\n      jump\t// in\n    tag_217:\n        /* \"contracts/Hero_Deposit/Deposit.sol\":9069:9219  uint256 amount = ((depositToActivist[_to].celoCoin *\r... */\n      swap1\n      pop\n        /* \"contracts/Hero_Deposit/Deposit.sol\":9272:9278  amount */\n      dup1\n        /* \"contracts/Hero_Deposit/Deposit.sol\":9238:9255  depositToActivist */\n      0x04\n        /* \"contracts/Hero_Deposit/Deposit.sol\":9238:9260  depositToActivist[_to] */\n      0x00\n        /* \"contracts/Hero_Deposit/Deposit.sol\":9256:9259  _to */\n      dup9\n        /* \"contracts/Hero_Deposit/Deposit.sol\":9238:9260  depositToActivist[_to] */\n      0xffffffffffffffffffffffffffffffffffffffff\n      and\n      0xffffffffffffffffffffffffffffffffffffffff\n      and\n      dup2\n      mstore\n      0x20\n      add\n      swap1\n      dup2\n      mstore\n      0x20\n      add\n      0x00\n      keccak256\n        /* \"contracts/Hero_Deposit/Deposit.sol\":9238:9269  depositToActivist[_to].usdcCoin */\n      0x01\n      add\n      sload\n        /* \"contracts/Hero_Deposit/Deposit.sol\":9238:9278  depositToActivist[_to].usdcCoin > amount */\n      gt\n        /* \"contracts/Hero_Deposit/Deposit.sol\":9230:9298  require(depositToActivist[_to].usdcCoin > amount, \"not sufficient \") */\n      tag_218\n      jumpi\n      mload(0x40)\n      0x08c379a000000000000000000000000000000000000000000000000000000000\n      dup2\n      mstore\n      0x04\n      add\n      tag_219\n      swap1\n      tag_190\n      jump\t// in\n    tag_219:\n      mload(0x40)\n      dup1\n      swap2\n      sub\n      swap1\n      revert\n    tag_218:\n        /* \"contracts/Hero_Deposit/Deposit.sol\":9311:9314  _to */\n      dup6\n        /* \"contracts/Hero_Deposit/Deposit.sol\":9311:9323  _to.transfer */\n      0xffffffffffffffffffffffffffffffffffffffff\n      and\n        /* \"contracts/Hero_Deposit/Deposit.sol\":9311:9331  _to.transfer(amount) */\n      0x08fc\n        /* \"contracts/Hero_Deposit/Deposit.sol\":9324:9330  amount */\n      dup3\n        /* \"contracts/Hero_Deposit/Deposit.sol\":9311:9331  _to.transfer(amount) */\n      swap1\n      dup2\n      iszero\n      mul\n      swap1\n      mload(0x40)\n      0x00\n      mload(0x40)\n      dup1\n      dup4\n      sub\n      dup2\n      dup6\n      dup9\n      dup9\n      call\n      swap4\n      pop\n      pop\n      pop\n      pop\n      iszero\n      dup1\n      iszero\n      tag_221\n      jumpi\n      returndatasize\n      0x00\n      dup1\n      returndatacopy\n      revert(0x00, returndatasize)\n    tag_221:\n      pop\n        /* \"contracts/Hero_Deposit/Deposit.sol\":9381:9382  0 */\n      0x00\n        /* \"contracts/Hero_Deposit/Deposit.sol\":9346:9363  depositToActivist */\n      0x04\n        /* \"contracts/Hero_Deposit/Deposit.sol\":9346:9368  depositToActivist[_to] */\n      0x00\n        /* \"contracts/Hero_Deposit/Deposit.sol\":9364:9367  _to */\n      dup9\n        /* \"contracts/Hero_Deposit/Deposit.sol\":9346:9368  depositToActivist[_to] */\n      0xffffffffffffffffffffffffffffffffffffffff\n      and\n      0xffffffffffffffffffffffffffffffffffffffff\n      and\n      dup2\n      mstore\n      0x20\n      add\n      swap1\n      dup2\n      mstore\n      0x20\n      add\n      0x00\n      keccak256\n        /* \"contracts/Hero_Deposit/Deposit.sol\":9346:9377  depositToActivist[_to].celoCoin */\n      0x00\n      add\n      sload\n        /* \"contracts/Hero_Deposit/Deposit.sol\":9346:9382  depositToActivist[_to].celoCoin == 0 */\n      eq\n        /* \"contracts/Hero_Deposit/Deposit.sol\":9342:9706  if (depositToActivist[_to].celoCoin == 0) {\r... */\n      iszero\n      tag_222\n      jumpi\n        /* \"contracts/Hero_Deposit/Deposit.sol\":9434:9440  amount */\n      dup1\n        /* \"contracts/Hero_Deposit/Deposit.sol\":9399:9416  depositToActivist */\n      0x04\n        /* \"contracts/Hero_Deposit/Deposit.sol\":9399:9421  depositToActivist[_to] */\n      0x00\n        /* \"contracts/Hero_Deposit/Deposit.sol\":9417:9420  _to */\n      dup9\n        /* \"contracts/Hero_Deposit/Deposit.sol\":9399:9421  depositToActivist[_to] */\n      0xffffffffffffffffffffffffffffffffffffffff\n      and\n      0xffffffffffffffffffffffffffffffffffffffff\n      and\n      dup2\n      mstore\n      0x20\n      add\n      swap1\n      dup2\n      mstore\n      0x20\n      add\n      0x00\n      keccak256\n        /* \"contracts/Hero_Deposit/Deposit.sol\":9399:9430  depositToActivist[_to].usdcCoin */\n      0x01\n      add\n      0x00\n        /* \"contracts/Hero_Deposit/Deposit.sol\":9399:9440  depositToActivist[_to].usdcCoin -= amount */\n      dup3\n      dup3\n      sload\n      tag_223\n      swap2\n      swap1\n      tag_200\n      jump\t// in\n    tag_223:\n      swap3\n      pop\n      pop\n      dup2\n      swap1\n      sstore\n      pop\n        /* \"contracts/Hero_Deposit/Deposit.sol\":9342:9706  if (depositToActivist[_to].celoCoin == 0) {\r... */\n      jump(tag_224)\n    tag_222:\n        /* \"contracts/Hero_Deposit/Deposit.sol\":9497:9498  0 */\n      0x00\n        /* \"contracts/Hero_Deposit/Deposit.sol\":9462:9479  depositToActivist */\n      0x04\n        /* \"contracts/Hero_Deposit/Deposit.sol\":9462:9484  depositToActivist[_to] */\n      0x00\n        /* \"contracts/Hero_Deposit/Deposit.sol\":9480:9483  _to */\n      dup9\n        /* \"contracts/Hero_Deposit/Deposit.sol\":9462:9484  depositToActivist[_to] */\n      0xffffffffffffffffffffffffffffffffffffffff\n      and\n      0xffffffffffffffffffffffffffffffffffffffff\n      and\n      dup2\n      mstore\n      0x20\n      add\n      swap1\n      dup2\n      mstore\n      0x20\n      add\n      0x00\n      keccak256\n        /* \"contracts/Hero_Deposit/Deposit.sol\":9462:9493  depositToActivist[_to].usdcCoin */\n      0x01\n      add\n      sload\n        /* \"contracts/Hero_Deposit/Deposit.sol\":9462:9498  depositToActivist[_to].usdcCoin == 0 */\n      eq\n        /* \"contracts/Hero_Deposit/Deposit.sol\":9458:9706  if (depositToActivist[_to].usdcCoin == 0) {\r... */\n      iszero\n      tag_225\n      jumpi\n        /* \"contracts/Hero_Deposit/Deposit.sol\":9550:9556  amount */\n      dup1\n        /* \"contracts/Hero_Deposit/Deposit.sol\":9515:9532  depositToActivist */\n      0x04\n        /* \"contracts/Hero_Deposit/Deposit.sol\":9515:9537  depositToActivist[_to] */\n      0x00\n        /* \"contracts/Hero_Deposit/Deposit.sol\":9533:9536  _to */\n      dup9\n        /* \"contracts/Hero_Deposit/Deposit.sol\":9515:9537  depositToActivist[_to] */\n      0xffffffffffffffffffffffffffffffffffffffff\n      and\n      0xffffffffffffffffffffffffffffffffffffffff\n      and\n      dup2\n      mstore\n      0x20\n      add\n      swap1\n      dup2\n      mstore\n      0x20\n      add\n      0x00\n      keccak256\n        /* \"contracts/Hero_Deposit/Deposit.sol\":9515:9546  depositToActivist[_to].celoCoin */\n      0x00\n      add\n      0x00\n        /* \"contracts/Hero_Deposit/Deposit.sol\":9515:9556  depositToActivist[_to].celoCoin -= amount */\n      dup3\n      dup3\n      sload\n      tag_226\n      swap2\n      swap1\n      tag_200\n      jump\t// in\n    tag_226:\n      swap3\n      pop\n      pop\n      dup2\n      swap1\n      sstore\n      pop\n        /* \"contracts/Hero_Deposit/Deposit.sol\":9458:9706  if (depositToActivist[_to].usdcCoin == 0) {\r... */\n      jump(tag_227)\n    tag_225:\n        /* \"contracts/Hero_Deposit/Deposit.sol\":9633:9634  2 */\n      0x02\n        /* \"contracts/Hero_Deposit/Deposit.sol\":9624:9630  amount */\n      dup2\n        /* \"contracts/Hero_Deposit/Deposit.sol\":9624:9634  amount / 2 */\n      tag_228\n      swap2\n      swap1\n      tag_193\n      jump\t// in\n    tag_228:\n        /* \"contracts/Hero_Deposit/Deposit.sol\":9589:9606  depositToActivist */\n      0x04\n        /* \"contracts/Hero_Deposit/Deposit.sol\":9589:9611  depositToActivist[_to] */\n      0x00\n        /* \"contracts/Hero_Deposit/Deposit.sol\":9607:9610  _to */\n      dup9\n        /* \"contracts/Hero_Deposit/Deposit.sol\":9589:9611  depositToActivist[_to] */\n      0xffffffffffffffffffffffffffffffffffffffff\n      and\n      0xffffffffffffffffffffffffffffffffffffffff\n      and\n      dup2\n      mstore\n      0x20\n      add\n      swap1\n      dup2\n      mstore\n      0x20\n      add\n      0x00\n      keccak256\n        /* \"contracts/Hero_Deposit/Deposit.sol\":9589:9620  depositToActivist[_to].celoCoin */\n      0x00\n      add\n      0x00\n        /* \"contracts/Hero_Deposit/Deposit.sol\":9589:9634  depositToActivist[_to].celoCoin -= amount / 2 */\n      dup3\n      dup3\n      sload\n      tag_229\n      swap2\n      swap1\n      tag_200\n      jump\t// in\n    tag_229:\n      swap3\n      pop\n      pop\n      dup2\n      swap1\n      sstore\n      pop\n        /* \"contracts/Hero_Deposit/Deposit.sol\":9693:9694  2 */\n      0x02\n        /* \"contracts/Hero_Deposit/Deposit.sol\":9684:9690  amount */\n      dup2\n        /* \"contracts/Hero_Deposit/Deposit.sol\":9684:9694  amount / 2 */\n      tag_230\n      swap2\n      swap1\n      tag_193\n      jump\t// in\n    tag_230:\n        /* \"contracts/Hero_Deposit/Deposit.sol\":9649:9666  depositToActivist */\n      0x04\n        /* \"contracts/Hero_Deposit/Deposit.sol\":9649:9671  depositToActivist[_to] */\n      0x00\n        /* \"contracts/Hero_Deposit/Deposit.sol\":9667:9670  _to */\n      dup9\n        /* \"contracts/Hero_Deposit/Deposit.sol\":9649:9671  depositToActivist[_to] */\n      0xffffffffffffffffffffffffffffffffffffffff\n      and\n      0xffffffffffffffffffffffffffffffffffffffff\n      and\n      dup2\n      mstore\n      0x20\n      add\n      swap1\n      dup2\n      mstore\n      0x20\n      add\n      0x00\n      keccak256\n        /* \"contracts/Hero_Deposit/Deposit.sol\":9649:9680  depositToActivist[_to].usdcCoin */\n      0x01\n      add\n      0x00\n        /* \"contracts/Hero_Deposit/Deposit.sol\":9649:9694  depositToActivist[_to].usdcCoin -= amount / 2 */\n      dup3\n      dup3\n      sload\n      tag_231\n      swap2\n      swap1\n      tag_200\n      jump\t// in\n    tag_231:\n      swap3\n      pop\n      pop\n      dup2\n      swap1\n      sstore\n      pop\n        /* \"contracts/Hero_Deposit/Deposit.sol\":9458:9706  if (depositToActivist[_to].usdcCoin == 0) {\r... */\n    tag_227:\n        /* \"contracts/Hero_Deposit/Deposit.sol\":9342:9706  if (depositToActivist[_to].celoCoin == 0) {\r... */\n    tag_224:\n        /* \"contracts/Hero_Deposit/Deposit.sol\":9751:9757  amount */\n      dup1\n        /* \"contracts/Hero_Deposit/Deposit.sol\":9716:9733  depositToActivist */\n      0x04\n        /* \"contracts/Hero_Deposit/Deposit.sol\":9716:9738  depositToActivist[_to] */\n      0x00\n        /* \"contracts/Hero_Deposit/Deposit.sol\":9734:9737  _to */\n      dup9\n        /* \"contracts/Hero_Deposit/Deposit.sol\":9716:9738  depositToActivist[_to] */\n      0xffffffffffffffffffffffffffffffffffffffff\n      and\n      0xffffffffffffffffffffffffffffffffffffffff\n      and\n      dup2\n      mstore\n      0x20\n      add\n      swap1\n      dup2\n      mstore\n      0x20\n      add\n      0x00\n      keccak256\n        /* \"contracts/Hero_Deposit/Deposit.sol\":9716:9747  depositToActivist[_to].celoCoin */\n      0x00\n      add\n      0x00\n        /* \"contracts/Hero_Deposit/Deposit.sol\":9716:9757  depositToActivist[_to].celoCoin -= amount */\n      dup3\n      dup3\n      sload\n      tag_232\n      swap2\n      swap1\n      tag_200\n      jump\t// in\n    tag_232:\n      swap3\n      pop\n      pop\n      dup2\n      swap1\n      sstore\n      pop\n        /* \"contracts/Hero_Deposit/Deposit.sol\":9789:9792  _to */\n      dup6\n        /* \"contracts/Hero_Deposit/Deposit.sol\":9773:9818  activistPayment(_to, amount, block.timestamp) */\n      0xffffffffffffffffffffffffffffffffffffffff\n      and\n      0x9cd516bc314ca50bb8f1f5602d3f202cdcbf17b89da33dd13c3909d5d3c00a32\n        /* \"contracts/Hero_Deposit/Deposit.sol\":9794:9800  amount */\n      dup3\n        /* \"contracts/Hero_Deposit/Deposit.sol\":9802:9817  block.timestamp */\n      timestamp\n        /* \"contracts/Hero_Deposit/Deposit.sol\":9773:9818  activistPayment(_to, amount, block.timestamp) */\n      mload(0x40)\n      tag_233\n      swap3\n      swap2\n      swap1\n      tag_75\n      jump\t// in\n    tag_233:\n      mload(0x40)\n      dup1\n      swap2\n      sub\n      swap1\n      log2\n        /* \"contracts/Hero_Deposit/Deposit.sol\":9837:9843  amount */\n      dup1\n        /* \"contracts/Hero_Deposit/Deposit.sol\":9845:9860  block.timestamp */\n      timestamp\n        /* \"contracts/Hero_Deposit/Deposit.sol\":9829:9861  return (amount, block.timestamp) */\n      swap5\n      pop\n      swap5\n      pop\n      pop\n      pop\n      pop\n        /* \"contracts/Hero_Deposit/Deposit.sol\":1804:1809  false */\n      0x00\n        /* \"contracts/Hero_Deposit/Deposit.sol\":1795:1801  locked */\n      0x0c\n      0x14\n        /* \"contracts/Hero_Deposit/Deposit.sol\":1795:1809  locked = false */\n      0x0100\n      exp\n      dup2\n      sload\n      dup2\n      0xff\n      mul\n      not\n      and\n      swap1\n      dup4\n      iszero\n      iszero\n      mul\n      or\n      swap1\n      sstore\n      pop\n        /* \"contracts/Hero_Deposit/Deposit.sol\":8840:9869  function withdrowCusd(address payable _to)\r... */\n      swap2\n      pop\n      swap2\n      jump\t// out\n        /* \"contracts/Hero_Deposit/Deposit.sol\":405:440  IWitnetPriceFeed public EthUsdPrice */\n    tag_87:\n      0x03\n      0x00\n      swap1\n      sload\n      swap1\n      0x0100\n      exp\n      swap1\n      div\n      0xffffffffffffffffffffffffffffffffffffffff\n      and\n      dup2\n      jump\t// out\n        /* \"contracts/Hero_Deposit/Deposit.sol\":319:355  IWitnetPriceFeed public celoEurPrice */\n    tag_92:\n      0x01\n      0x00\n      swap1\n      sload\n      swap1\n      0x0100\n      exp\n      swap1\n      div\n      0xffffffffffffffffffffffffffffffffffffffff\n      and\n      dup2\n      jump\t// out\n        /* \"contracts/Hero_Deposit/Deposit.sol\":362:398  IWitnetPriceFeed public celoUsdPrice */\n    tag_96:\n      0x02\n      0x00\n      swap1\n      sload\n      swap1\n      0x0100\n      exp\n      swap1\n      div\n      0xffffffffffffffffffffffffffffffffffffffff\n      and\n      dup2\n      jump\t// out\n        /* \"contracts/Hero_Deposit/Deposit.sol\":3137:3340  function getCeloUsdPrice()\r... */\n    tag_105:\n        /* \"contracts/Hero_Deposit/Deposit.sol\":3214:3231  int256 _lastPrice */\n      0x00\n        /* \"contracts/Hero_Deposit/Deposit.sol\":3233:3255  uint256 _lastTimestamp */\n      dup1\n        /* \"contracts/Hero_Deposit/Deposit.sol\":3308:3320  celoUsdPrice */\n      0x02\n      0x00\n      swap1\n      sload\n      swap1\n      0x0100\n      exp\n      swap1\n      div\n      0xffffffffffffffffffffffffffffffffffffffff\n      and\n        /* \"contracts/Hero_Deposit/Deposit.sol\":3308:3330  celoUsdPrice.lastValue */\n      0xffffffffffffffffffffffffffffffffffffffff\n      and\n      0x43183834\n        /* \"contracts/Hero_Deposit/Deposit.sol\":3308:3332  celoUsdPrice.lastValue() */\n      mload(0x40)\n      dup2\n      0xffffffff\n      and\n      0xe0\n      shl\n      dup2\n      mstore\n      0x04\n      add\n      0x80\n      mload(0x40)\n      dup1\n      dup4\n      sub\n      dup2\n      dup7\n      dup1\n      extcodesize\n      iszero\n      dup1\n      iszero\n      tag_235\n      jumpi\n      0x00\n      dup1\n      revert\n    tag_235:\n      pop\n      gas\n      staticcall\n      iszero\n      dup1\n      iszero\n      tag_237\n      jumpi\n      returndatasize\n      0x00\n      dup1\n      returndatacopy\n      revert(0x00, returndatasize)\n    tag_237:\n      pop\n      pop\n      pop\n      pop\n      mload(0x40)\n      returndatasize\n      not(0x1f)\n      0x1f\n      dup3\n      add\n      and\n      dup3\n      add\n      dup1\n      0x40\n      mstore\n      pop\n      dup2\n      add\n      swap1\n      tag_238\n      swap2\n      swap1\n      tag_239\n      jump\t// in\n    tag_238:\n        /* \"contracts/Hero_Deposit/Deposit.sol\":3273:3332  (_lastPrice, _lastTimestamp, , ) = celoUsdPrice.lastValue() */\n      swap1\n      pop\n      pop\n      dup1\n      swap3\n      pop\n      dup2\n      swap4\n      pop\n      pop\n      pop\n        /* \"contracts/Hero_Deposit/Deposit.sol\":3137:3340  function getCeloUsdPrice()\r... */\n      swap1\n      swap2\n      jump\t// out\n        /* \"#utility.yul\":7:146   */\n    tag_241:\n        /* \"#utility.yul\":53:58   */\n      0x00\n        /* \"#utility.yul\":91:97   */\n      dup2\n        /* \"#utility.yul\":78:98   */\n      calldataload\n        /* \"#utility.yul\":69:98   */\n      swap1\n      pop\n        /* \"#utility.yul\":107:140   */\n      tag_243\n        /* \"#utility.yul\":134:139   */\n      dup2\n        /* \"#utility.yul\":107:140   */\n      tag_244\n      jump\t// in\n    tag_243:\n        /* \"#utility.yul\":7:146   */\n      swap3\n      swap2\n      pop\n      pop\n      jump\t// out\n        /* \"#utility.yul\":152:307   */\n    tag_245:\n        /* \"#utility.yul\":206:211   */\n      0x00\n        /* \"#utility.yul\":244:250   */\n      dup2\n        /* \"#utility.yul\":231:251   */\n      calldataload\n        /* \"#utility.yul\":222:251   */\n      swap1\n      pop\n        /* \"#utility.yul\":260:301   */\n      tag_247\n        /* \"#utility.yul\":295:300   */\n      dup2\n        /* \"#utility.yul\":260:301   */\n      tag_248\n      jump\t// in\n    tag_247:\n        /* \"#utility.yul\":152:307   */\n      swap3\n      swap2\n      pop\n      pop\n      jump\t// out\n        /* \"#utility.yul\":313:450   */\n    tag_249:\n        /* \"#utility.yul\":367:372   */\n      0x00\n        /* \"#utility.yul\":398:404   */\n      dup2\n        /* \"#utility.yul\":392:405   */\n      mload\n        /* \"#utility.yul\":383:405   */\n      swap1\n      pop\n        /* \"#utility.yul\":414:444   */\n      tag_251\n        /* \"#utility.yul\":438:443   */\n      dup2\n        /* \"#utility.yul\":414:444   */\n      tag_252\n      jump\t// in\n    tag_251:\n        /* \"#utility.yul\":313:450   */\n      swap3\n      swap2\n      pop\n      pop\n      jump\t// out\n        /* \"#utility.yul\":456:599   */\n    tag_253:\n        /* \"#utility.yul\":513:518   */\n      0x00\n        /* \"#utility.yul\":544:550   */\n      dup2\n        /* \"#utility.yul\":538:551   */\n      mload\n        /* \"#utility.yul\":529:551   */\n      swap1\n      pop\n        /* \"#utility.yul\":560:593   */\n      tag_255\n        /* \"#utility.yul\":587:592   */\n      dup2\n        /* \"#utility.yul\":560:593   */\n      tag_256\n      jump\t// in\n    tag_255:\n        /* \"#utility.yul\":456:599   */\n      swap3\n      swap2\n      pop\n      pop\n      jump\t// out\n        /* \"#utility.yul\":605:780   */\n    tag_257:\n        /* \"#utility.yul\":678:683   */\n      0x00\n        /* \"#utility.yul\":709:715   */\n      dup2\n        /* \"#utility.yul\":703:716   */\n      mload\n        /* \"#utility.yul\":694:716   */\n      swap1\n      pop\n        /* \"#utility.yul\":725:774   */\n      tag_259\n        /* \"#utility.yul\":768:773   */\n      dup2\n        /* \"#utility.yul\":725:774   */\n      tag_260\n      jump\t// in\n    tag_259:\n        /* \"#utility.yul\":605:780   */\n      swap3\n      swap2\n      pop\n      pop\n      jump\t// out\n        /* \"#utility.yul\":786:927   */\n    tag_261:\n        /* \"#utility.yul\":842:847   */\n      0x00\n        /* \"#utility.yul\":873:879   */\n      dup2\n        /* \"#utility.yul\":867:880   */\n      mload\n        /* \"#utility.yul\":858:880   */\n      swap1\n      pop\n        /* \"#utility.yul\":889:921   */\n      tag_263\n        /* \"#utility.yul\":915:920   */\n      dup2\n        /* \"#utility.yul\":889:921   */\n      tag_264\n      jump\t// in\n    tag_263:\n        /* \"#utility.yul\":786:927   */\n      swap3\n      swap2\n      pop\n      pop\n      jump\t// out\n        /* \"#utility.yul\":933:1072   */\n    tag_265:\n        /* \"#utility.yul\":979:984   */\n      0x00\n        /* \"#utility.yul\":1017:1023   */\n      dup2\n        /* \"#utility.yul\":1004:1024   */\n      calldataload\n        /* \"#utility.yul\":995:1024   */\n      swap1\n      pop\n        /* \"#utility.yul\":1033:1066   */\n      tag_267\n        /* \"#utility.yul\":1060:1065   */\n      dup2\n        /* \"#utility.yul\":1033:1066   */\n      tag_268\n      jump\t// in\n    tag_267:\n        /* \"#utility.yul\":933:1072   */\n      swap3\n      swap2\n      pop\n      pop\n      jump\t// out\n        /* \"#utility.yul\":1078:1221   */\n    tag_269:\n        /* \"#utility.yul\":1135:1140   */\n      0x00\n        /* \"#utility.yul\":1166:1172   */\n      dup2\n        /* \"#utility.yul\":1160:1173   */\n      mload\n        /* \"#utility.yul\":1151:1173   */\n      swap1\n      pop\n        /* \"#utility.yul\":1182:1215   */\n      tag_271\n        /* \"#utility.yul\":1209:1214   */\n      dup2\n        /* \"#utility.yul\":1182:1215   */\n      tag_268\n      jump\t// in\n    tag_271:\n        /* \"#utility.yul\":1078:1221   */\n      swap3\n      swap2\n      pop\n      pop\n      jump\t// out\n        /* \"#utility.yul\":1227:1556   */\n    tag_44:\n        /* \"#utility.yul\":1286:1292   */\n      0x00\n        /* \"#utility.yul\":1335:1337   */\n      0x20\n        /* \"#utility.yul\":1323:1332   */\n      dup3\n        /* \"#utility.yul\":1314:1321   */\n      dup5\n        /* \"#utility.yul\":1310:1333   */\n      sub\n        /* \"#utility.yul\":1306:1338   */\n      slt\n        /* \"#utility.yul\":1303:1422   */\n      iszero\n      tag_273\n      jumpi\n        /* \"#utility.yul\":1341:1420   */\n      tag_274\n      tag_275\n      jump\t// in\n    tag_274:\n        /* \"#utility.yul\":1303:1422   */\n    tag_273:\n        /* \"#utility.yul\":1461:1462   */\n      0x00\n        /* \"#utility.yul\":1486:1539   */\n      tag_276\n        /* \"#utility.yul\":1531:1538   */\n      dup5\n        /* \"#utility.yul\":1522:1528   */\n      dup3\n        /* \"#utility.yul\":1511:1520   */\n      dup6\n        /* \"#utility.yul\":1507:1529   */\n      add\n        /* \"#utility.yul\":1486:1539   */\n      tag_241\n      jump\t// in\n    tag_276:\n        /* \"#utility.yul\":1476:1539   */\n      swap2\n      pop\n        /* \"#utility.yul\":1432:1549   */\n      pop\n        /* \"#utility.yul\":1227:1556   */\n      swap3\n      swap2\n      pop\n      pop\n      jump\t// out\n        /* \"#utility.yul\":1562:1907   */\n    tag_23:\n        /* \"#utility.yul\":1629:1635   */\n      0x00\n        /* \"#utility.yul\":1678:1680   */\n      0x20\n        /* \"#utility.yul\":1666:1675   */\n      dup3\n        /* \"#utility.yul\":1657:1664   */\n      dup5\n        /* \"#utility.yul\":1653:1676   */\n      sub\n        /* \"#utility.yul\":1649:1681   */\n      slt\n        /* \"#utility.yul\":1646:1765   */\n      iszero\n      tag_278\n      jumpi\n        /* \"#utility.yul\":1684:1763   */\n      tag_279\n      tag_275\n      jump\t// in\n    tag_279:\n        /* \"#utility.yul\":1646:1765   */\n    tag_278:\n        /* \"#utility.yul\":1804:1805   */\n      0x00\n        /* \"#utility.yul\":1829:1890   */\n      tag_280\n        /* \"#utility.yul\":1882:1889   */\n      dup5\n        /* \"#utility.yul\":1873:1879   */\n      dup3\n        /* \"#utility.yul\":1862:1871   */\n      dup6\n        /* \"#utility.yul\":1858:1880   */\n      add\n        /* \"#utility.yul\":1829:1890   */\n      tag_245\n      jump\t// in\n    tag_280:\n        /* \"#utility.yul\":1819:1890   */\n      swap2\n      pop\n        /* \"#utility.yul\":1775:1900   */\n      pop\n        /* \"#utility.yul\":1562:1907   */\n      swap3\n      swap2\n      pop\n      pop\n      jump\t// out\n        /* \"#utility.yul\":1913:2532   */\n    tag_62:\n        /* \"#utility.yul\":1990:1996   */\n      0x00\n        /* \"#utility.yul\":1998:2004   */\n      dup1\n        /* \"#utility.yul\":2006:2012   */\n      0x00\n        /* \"#utility.yul\":2055:2057   */\n      0x60\n        /* \"#utility.yul\":2043:2052   */\n      dup5\n        /* \"#utility.yul\":2034:2041   */\n      dup7\n        /* \"#utility.yul\":2030:2053   */\n      sub\n        /* \"#utility.yul\":2026:2058   */\n      slt\n        /* \"#utility.yul\":2023:2142   */\n      iszero\n      tag_282\n      jumpi\n        /* \"#utility.yul\":2061:2140   */\n      tag_283\n      tag_275\n      jump\t// in\n    tag_283:\n        /* \"#utility.yul\":2023:2142   */\n    tag_282:\n        /* \"#utility.yul\":2181:2182   */\n      0x00\n        /* \"#utility.yul\":2206:2259   */\n      tag_284\n        /* \"#utility.yul\":2251:2258   */\n      dup7\n        /* \"#utility.yul\":2242:2248   */\n      dup3\n        /* \"#utility.yul\":2231:2240   */\n      dup8\n        /* \"#utility.yul\":2227:2249   */\n      add\n        /* \"#utility.yul\":2206:2259   */\n      tag_241\n      jump\t// in\n    tag_284:\n        /* \"#utility.yul\":2196:2259   */\n      swap4\n      pop\n        /* \"#utility.yul\":2152:2269   */\n      pop\n        /* \"#utility.yul\":2308:2310   */\n      0x20\n        /* \"#utility.yul\":2334:2387   */\n      tag_285\n        /* \"#utility.yul\":2379:2386   */\n      dup7\n        /* \"#utility.yul\":2370:2376   */\n      dup3\n        /* \"#utility.yul\":2359:2368   */\n      dup8\n        /* \"#utility.yul\":2355:2377   */\n      add\n        /* \"#utility.yul\":2334:2387   */\n      tag_241\n      jump\t// in\n    tag_285:\n        /* \"#utility.yul\":2324:2387   */\n      swap3\n      pop\n        /* \"#utility.yul\":2279:2397   */\n      pop\n        /* \"#utility.yul\":2436:2438   */\n      0x40\n        /* \"#utility.yul\":2462:2515   */\n      tag_286\n        /* \"#utility.yul\":2507:2514   */\n      dup7\n        /* \"#utility.yul\":2498:2504   */\n      dup3\n        /* \"#utility.yul\":2487:2496   */\n      dup8\n        /* \"#utility.yul\":2483:2505   */\n      add\n        /* \"#utility.yul\":2462:2515   */\n      tag_265\n      jump\t// in\n    tag_286:\n        /* \"#utility.yul\":2452:2515   */\n      swap2\n      pop\n        /* \"#utility.yul\":2407:2525   */\n      pop\n        /* \"#utility.yul\":1913:2532   */\n      swap3\n      pop\n      swap3\n      pop\n      swap3\n      jump\t// out\n        /* \"#utility.yul\":2538:3012   */\n    tag_51:\n        /* \"#utility.yul\":2606:2612   */\n      0x00\n        /* \"#utility.yul\":2614:2620   */\n      dup1\n        /* \"#utility.yul\":2663:2665   */\n      0x40\n        /* \"#utility.yul\":2651:2660   */\n      dup4\n        /* \"#utility.yul\":2642:2649   */\n      dup6\n        /* \"#utility.yul\":2638:2661   */\n      sub\n        /* \"#utility.yul\":2634:2666   */\n      slt\n        /* \"#utility.yul\":2631:2750   */\n      iszero\n      tag_288\n      jumpi\n        /* \"#utility.yul\":2669:2748   */\n      tag_289\n      tag_275\n      jump\t// in\n    tag_289:\n        /* \"#utility.yul\":2631:2750   */\n    tag_288:\n        /* \"#utility.yul\":2789:2790   */\n      0x00\n        /* \"#utility.yul\":2814:2867   */\n      tag_290\n        /* \"#utility.yul\":2859:2866   */\n      dup6\n        /* \"#utility.yul\":2850:2856   */\n      dup3\n        /* \"#utility.yul\":2839:2848   */\n      dup7\n        /* \"#utility.yul\":2835:2857   */\n      add\n        /* \"#utility.yul\":2814:2867   */\n      tag_241\n      jump\t// in\n    tag_290:\n        /* \"#utility.yul\":2804:2867   */\n      swap3\n      pop\n        /* \"#utility.yul\":2760:2877   */\n      pop\n        /* \"#utility.yul\":2916:2918   */\n      0x20\n        /* \"#utility.yul\":2942:2995   */\n      tag_291\n        /* \"#utility.yul\":2987:2994   */\n      dup6\n        /* \"#utility.yul\":2978:2984   */\n      dup3\n        /* \"#utility.yul\":2967:2976   */\n      dup7\n        /* \"#utility.yul\":2963:2985   */\n      add\n        /* \"#utility.yul\":2942:2995   */\n      tag_265\n      jump\t// in\n    tag_291:\n        /* \"#utility.yul\":2932:2995   */\n      swap2\n      pop\n        /* \"#utility.yul\":2887:3005   */\n      pop\n        /* \"#utility.yul\":2538:3012   */\n      swap3\n      pop\n      swap3\n      swap1\n      pop\n      jump\t// out\n        /* \"#utility.yul\":3018:3363   */\n    tag_171:\n        /* \"#utility.yul\":3085:3091   */\n      0x00\n        /* \"#utility.yul\":3134:3136   */\n      0x20\n        /* \"#utility.yul\":3122:3131   */\n      dup3\n        /* \"#utility.yul\":3113:3120   */\n      dup5\n        /* \"#utility.yul\":3109:3132   */\n      sub\n        /* \"#utility.yul\":3105:3137   */\n      slt\n        /* \"#utility.yul\":3102:3221   */\n      iszero\n      tag_293\n      jumpi\n        /* \"#utility.yul\":3140:3219   */\n      tag_294\n      tag_275\n      jump\t// in\n    tag_294:\n        /* \"#utility.yul\":3102:3221   */\n    tag_293:\n        /* \"#utility.yul\":3260:3261   */\n      0x00\n        /* \"#utility.yul\":3285:3346   */\n      tag_295\n        /* \"#utility.yul\":3338:3345   */\n      dup5\n        /* \"#utility.yul\":3329:3335   */\n      dup3\n        /* \"#utility.yul\":3318:3327   */\n      dup6\n        /* \"#utility.yul\":3314:3336   */\n      add\n        /* \"#utility.yul\":3285:3346   */\n      tag_249\n      jump\t// in\n    tag_295:\n        /* \"#utility.yul\":3275:3346   */\n      swap2\n      pop\n        /* \"#utility.yul\":3231:3356   */\n      pop\n        /* \"#utility.yul\":3018:3363   */\n      swap3\n      swap2\n      pop\n      pop\n      jump\t// out\n        /* \"#utility.yul\":3369:3752   */\n    tag_133:\n        /* \"#utility.yul\":3455:3461   */\n      0x00\n        /* \"#utility.yul\":3504:3506   */\n      0x20\n        /* \"#utility.yul\":3492:3501   */\n      dup3\n        /* \"#utility.yul\":3483:3490   */\n      dup5\n        /* \"#utility.yul\":3479:3502   */\n      sub\n        /* \"#utility.yul\":3475:3507   */\n      slt\n        /* \"#utility.yul\":3472:3591   */\n      iszero\n      tag_297\n      jumpi\n        /* \"#utility.yul\":3510:3589   */\n      tag_298\n      tag_275\n      jump\t// in\n    tag_298:\n        /* \"#utility.yul\":3472:3591   */\n    tag_297:\n        /* \"#utility.yul\":3630:3631   */\n      0x00\n        /* \"#utility.yul\":3655:3735   */\n      tag_299\n        /* \"#utility.yul\":3727:3734   */\n      dup5\n        /* \"#utility.yul\":3718:3724   */\n      dup3\n        /* \"#utility.yul\":3707:3716   */\n      dup6\n        /* \"#utility.yul\":3703:3725   */\n      add\n        /* \"#utility.yul\":3655:3735   */\n      tag_257\n      jump\t// in\n    tag_299:\n        /* \"#utility.yul\":3645:3735   */\n      swap2\n      pop\n        /* \"#utility.yul\":3601:3745   */\n      pop\n        /* \"#utility.yul\":3369:3752   */\n      swap3\n      swap2\n      pop\n      pop\n      jump\t// out\n        /* \"#utility.yul\":3758:4576   */\n    tag_239:\n        /* \"#utility.yul\":3854:3860   */\n      0x00\n        /* \"#utility.yul\":3862:3868   */\n      dup1\n        /* \"#utility.yul\":3870:3876   */\n      0x00\n        /* \"#utility.yul\":3878:3884   */\n      dup1\n        /* \"#utility.yul\":3927:3930   */\n      0x80\n        /* \"#utility.yul\":3915:3924   */\n      dup6\n        /* \"#utility.yul\":3906:3913   */\n      dup8\n        /* \"#utility.yul\":3902:3925   */\n      sub\n        /* \"#utility.yul\":3898:3931   */\n      slt\n        /* \"#utility.yul\":3895:4015   */\n      iszero\n      tag_301\n      jumpi\n        /* \"#utility.yul\":3934:4013   */\n      tag_302\n      tag_275\n      jump\t// in\n    tag_302:\n        /* \"#utility.yul\":3895:4015   */\n    tag_301:\n        /* \"#utility.yul\":4054:4055   */\n      0x00\n        /* \"#utility.yul\":4079:4142   */\n      tag_303\n        /* \"#utility.yul\":4134:4141   */\n      dup8\n        /* \"#utility.yul\":4125:4131   */\n      dup3\n        /* \"#utility.yul\":4114:4123   */\n      dup9\n        /* \"#utility.yul\":4110:4132   */\n      add\n        /* \"#utility.yul\":4079:4142   */\n      tag_261\n      jump\t// in\n    tag_303:\n        /* \"#utility.yul\":4069:4142   */\n      swap5\n      pop\n        /* \"#utility.yul\":4025:4152   */\n      pop\n        /* \"#utility.yul\":4191:4193   */\n      0x20\n        /* \"#utility.yul\":4217:4281   */\n      tag_304\n        /* \"#utility.yul\":4273:4280   */\n      dup8\n        /* \"#utility.yul\":4264:4270   */\n      dup3\n        /* \"#utility.yul\":4253:4262   */\n      dup9\n        /* \"#utility.yul\":4249:4271   */\n      add\n        /* \"#utility.yul\":4217:4281   */\n      tag_269\n      jump\t// in\n    tag_304:\n        /* \"#utility.yul\":4207:4281   */\n      swap4\n      pop\n        /* \"#utility.yul\":4162:4291   */\n      pop\n        /* \"#utility.yul\":4330:4332   */\n      0x40\n        /* \"#utility.yul\":4356:4420   */\n      tag_305\n        /* \"#utility.yul\":4412:4419   */\n      dup8\n        /* \"#utility.yul\":4403:4409   */\n      dup3\n        /* \"#utility.yul\":4392:4401   */\n      dup9\n        /* \"#utility.yul\":4388:4410   */\n      add\n        /* \"#utility.yul\":4356:4420   */\n      tag_253\n      jump\t// in\n    tag_305:\n        /* \"#utility.yul\":4346:4420   */\n      swap3\n      pop\n        /* \"#utility.yul\":4301:4430   */\n      pop\n        /* \"#utility.yul\":4469:4471   */\n      0x60\n        /* \"#utility.yul\":4495:4559   */\n      tag_306\n        /* \"#utility.yul\":4551:4558   */\n      dup8\n        /* \"#utility.yul\":4542:4548   */\n      dup3\n        /* \"#utility.yul\":4531:4540   */\n      dup9\n        /* \"#utility.yul\":4527:4549   */\n      add\n        /* \"#utility.yul\":4495:4559   */\n      tag_269\n      jump\t// in\n    tag_306:\n        /* \"#utility.yul\":4485:4559   */\n      swap2\n      pop\n        /* \"#utility.yul\":4440:4569   */\n      pop\n        /* \"#utility.yul\":3758:4576   */\n      swap3\n      swap6\n      swap2\n      swap5\n      pop\n      swap3\n      pop\n      jump\t// out\n        /* \"#utility.yul\":4582:4700   */\n    tag_307:\n        /* \"#utility.yul\":4669:4693   */\n      tag_309\n        /* \"#utility.yul\":4687:4692   */\n      dup2\n        /* \"#utility.yul\":4669:4693   */\n      tag_310\n      jump\t// in\n    tag_309:\n        /* \"#utility.yul\":4664:4667   */\n      dup3\n        /* \"#utility.yul\":4657:4694   */\n      mstore\n        /* \"#utility.yul\":4582:4700   */\n      pop\n      pop\n      jump\t// out\n        /* \"#utility.yul\":4706:4815   */\n    tag_311:\n        /* \"#utility.yul\":4787:4808   */\n      tag_313\n        /* \"#utility.yul\":4802:4807   */\n      dup2\n        /* \"#utility.yul\":4787:4808   */\n      tag_314\n      jump\t// in\n    tag_313:\n        /* \"#utility.yul\":4782:4785   */\n      dup3\n        /* \"#utility.yul\":4775:4809   */\n      mstore\n        /* \"#utility.yul\":4706:4815   */\n      pop\n      pop\n      jump\t// out\n        /* \"#utility.yul\":4821:4950   */\n    tag_315:\n        /* \"#utility.yul\":4907:4943   */\n      tag_317\n        /* \"#utility.yul\":4937:4942   */\n      dup2\n        /* \"#utility.yul\":4907:4943   */\n      tag_318\n      jump\t// in\n    tag_317:\n        /* \"#utility.yul\":4902:4905   */\n      dup3\n        /* \"#utility.yul\":4895:4944   */\n      mstore\n        /* \"#utility.yul\":4821:4950   */\n      pop\n      pop\n      jump\t// out\n        /* \"#utility.yul\":4956:5137   */\n    tag_319:\n        /* \"#utility.yul\":5068:5130   */\n      tag_321\n        /* \"#utility.yul\":5124:5129   */\n      dup2\n        /* \"#utility.yul\":5068:5130   */\n      tag_322\n      jump\t// in\n    tag_321:\n        /* \"#utility.yul\":5063:5066   */\n      dup3\n        /* \"#utility.yul\":5056:5131   */\n      mstore\n        /* \"#utility.yul\":4956:5137   */\n      pop\n      pop\n      jump\t// out\n        /* \"#utility.yul\":5143:5328   */\n    tag_323:\n        /* \"#utility.yul\":5257:5321   */\n      tag_325\n        /* \"#utility.yul\":5315:5320   */\n      dup2\n        /* \"#utility.yul\":5257:5321   */\n      tag_326\n      jump\t// in\n    tag_325:\n        /* \"#utility.yul\":5252:5255   */\n      dup3\n        /* \"#utility.yul\":5245:5322   */\n      mstore\n        /* \"#utility.yul\":5143:5328   */\n      pop\n      pop\n      jump\t// out\n        /* \"#utility.yul\":5334:5449   */\n    tag_327:\n        /* \"#utility.yul\":5419:5442   */\n      tag_329\n        /* \"#utility.yul\":5436:5441   */\n      dup2\n        /* \"#utility.yul\":5419:5442   */\n      tag_330\n      jump\t// in\n    tag_329:\n        /* \"#utility.yul\":5414:5417   */\n      dup3\n        /* \"#utility.yul\":5407:5443   */\n      mstore\n        /* \"#utility.yul\":5334:5449   */\n      pop\n      pop\n      jump\t// out\n        /* \"#utility.yul\":5455:5821   */\n    tag_331:\n        /* \"#utility.yul\":5597:5600   */\n      0x00\n        /* \"#utility.yul\":5618:5685   */\n      tag_333\n        /* \"#utility.yul\":5682:5684   */\n      0x1b\n        /* \"#utility.yul\":5677:5680   */\n      dup4\n        /* \"#utility.yul\":5618:5685   */\n      tag_334\n      jump\t// in\n    tag_333:\n        /* \"#utility.yul\":5611:5685   */\n      swap2\n      pop\n        /* \"#utility.yul\":5694:5787   */\n      tag_335\n        /* \"#utility.yul\":5783:5786   */\n      dup3\n        /* \"#utility.yul\":5694:5787   */\n      tag_336\n      jump\t// in\n    tag_335:\n        /* \"#utility.yul\":5812:5814   */\n      0x20\n        /* \"#utility.yul\":5807:5810   */\n      dup3\n        /* \"#utility.yul\":5803:5815   */\n      add\n        /* \"#utility.yul\":5796:5815   */\n      swap1\n      pop\n        /* \"#utility.yul\":5455:5821   */\n      swap2\n      swap1\n      pop\n      jump\t// out\n        /* \"#utility.yul\":5827:6193   */\n    tag_337:\n        /* \"#utility.yul\":5969:5972   */\n      0x00\n        /* \"#utility.yul\":5990:6057   */\n      tag_339\n        /* \"#utility.yul\":6054:6056   */\n      0x1e\n        /* \"#utility.yul\":6049:6052   */\n      dup4\n        /* \"#utility.yul\":5990:6057   */\n      tag_334\n      jump\t// in\n    tag_339:\n        /* \"#utility.yul\":5983:6057   */\n      swap2\n      pop\n        /* \"#utility.yul\":6066:6159   */\n      tag_340\n        /* \"#utility.yul\":6155:6158   */\n      dup3\n        /* \"#utility.yul\":6066:6159   */\n      tag_341\n      jump\t// in\n    tag_340:\n        /* \"#utility.yul\":6184:6186   */\n      0x20\n        /* \"#utility.yul\":6179:6182   */\n      dup3\n        /* \"#utility.yul\":6175:6187   */\n      add\n        /* \"#utility.yul\":6168:6187   */\n      swap1\n      pop\n        /* \"#utility.yul\":5827:6193   */\n      swap2\n      swap1\n      pop\n      jump\t// out\n        /* \"#utility.yul\":6199:6565   */\n    tag_342:\n        /* \"#utility.yul\":6341:6344   */\n      0x00\n        /* \"#utility.yul\":6362:6429   */\n      tag_344\n        /* \"#utility.yul\":6426:6428   */\n      0x0f\n        /* \"#utility.yul\":6421:6424   */\n      dup4\n        /* \"#utility.yul\":6362:6429   */\n      tag_334\n      jump\t// in\n    tag_344:\n        /* \"#utility.yul\":6355:6429   */\n      swap2\n      pop\n        /* \"#utility.yul\":6438:6531   */\n      tag_345\n        /* \"#utility.yul\":6527:6530   */\n      dup3\n        /* \"#utility.yul\":6438:6531   */\n      tag_346\n      jump\t// in\n    tag_345:\n        /* \"#utility.yul\":6556:6558   */\n      0x20\n        /* \"#utility.yul\":6551:6554   */\n      dup3\n        /* \"#utility.yul\":6547:6559   */\n      add\n        /* \"#utility.yul\":6540:6559   */\n      swap1\n      pop\n        /* \"#utility.yul\":6199:6565   */\n      swap2\n      swap1\n      pop\n      jump\t// out\n        /* \"#utility.yul\":6571:6937   */\n    tag_347:\n        /* \"#utility.yul\":6713:6716   */\n      0x00\n        /* \"#utility.yul\":6734:6801   */\n      tag_349\n        /* \"#utility.yul\":6798:6800   */\n      0x21\n        /* \"#utility.yul\":6793:6796   */\n      dup4\n        /* \"#utility.yul\":6734:6801   */\n      tag_334\n      jump\t// in\n    tag_349:\n        /* \"#utility.yul\":6727:6801   */\n      swap2\n      pop\n        /* \"#utility.yul\":6810:6903   */\n      tag_350\n        /* \"#utility.yul\":6899:6902   */\n      dup3\n        /* \"#utility.yul\":6810:6903   */\n      tag_351\n      jump\t// in\n    tag_350:\n        /* \"#utility.yul\":6928:6930   */\n      0x40\n        /* \"#utility.yul\":6923:6926   */\n      dup3\n        /* \"#utility.yul\":6919:6931   */\n      add\n        /* \"#utility.yul\":6912:6931   */\n      swap1\n      pop\n        /* \"#utility.yul\":6571:6937   */\n      swap2\n      swap1\n      pop\n      jump\t// out\n        /* \"#utility.yul\":6943:7061   */\n    tag_352:\n        /* \"#utility.yul\":7030:7054   */\n      tag_354\n        /* \"#utility.yul\":7048:7053   */\n      dup2\n        /* \"#utility.yul\":7030:7054   */\n      tag_355\n      jump\t// in\n    tag_354:\n        /* \"#utility.yul\":7025:7028   */\n      dup3\n        /* \"#utility.yul\":7018:7055   */\n      mstore\n        /* \"#utility.yul\":6943:7061   */\n      pop\n      pop\n      jump\t// out\n        /* \"#utility.yul\":7067:7509   */\n    tag_166:\n        /* \"#utility.yul\":7216:7220   */\n      0x00\n        /* \"#utility.yul\":7254:7256   */\n      0x60\n        /* \"#utility.yul\":7243:7252   */\n      dup3\n        /* \"#utility.yul\":7239:7257   */\n      add\n        /* \"#utility.yul\":7231:7257   */\n      swap1\n      pop\n        /* \"#utility.yul\":7267:7338   */\n      tag_357\n        /* \"#utility.yul\":7335:7336   */\n      0x00\n        /* \"#utility.yul\":7324:7333   */\n      dup4\n        /* \"#utility.yul\":7320:7337   */\n      add\n        /* \"#utility.yul\":7311:7317   */\n      dup7\n        /* \"#utility.yul\":7267:7338   */\n      tag_307\n      jump\t// in\n    tag_357:\n        /* \"#utility.yul\":7348:7420   */\n      tag_358\n        /* \"#utility.yul\":7416:7418   */\n      0x20\n        /* \"#utility.yul\":7405:7414   */\n      dup4\n        /* \"#utility.yul\":7401:7419   */\n      add\n        /* \"#utility.yul\":7392:7398   */\n      dup6\n        /* \"#utility.yul\":7348:7420   */\n      tag_307\n      jump\t// in\n    tag_358:\n        /* \"#utility.yul\":7430:7502   */\n      tag_359\n        /* \"#utility.yul\":7498:7500   */\n      0x40\n        /* \"#utility.yul\":7487:7496   */\n      dup4\n        /* \"#utility.yul\":7483:7501   */\n      add\n        /* \"#utility.yul\":7474:7480   */\n      dup5\n        /* \"#utility.yul\":7430:7502   */\n      tag_352\n      jump\t// in\n    tag_359:\n        /* \"#utility.yul\":7067:7509   */\n      swap5\n      swap4\n      pop\n      pop\n      pop\n      pop\n      jump\t// out\n        /* \"#utility.yul\":7515:7725   */\n    tag_47:\n        /* \"#utility.yul\":7602:7606   */\n      0x00\n        /* \"#utility.yul\":7640:7642   */\n      0x20\n        /* \"#utility.yul\":7629:7638   */\n      dup3\n        /* \"#utility.yul\":7625:7643   */\n      add\n        /* \"#utility.yul\":7617:7643   */\n      swap1\n      pop\n        /* \"#utility.yul\":7653:7718   */\n      tag_361\n        /* \"#utility.yul\":7715:7716   */\n      0x00\n        /* \"#utility.yul\":7704:7713   */\n      dup4\n        /* \"#utility.yul\":7700:7717   */\n      add\n        /* \"#utility.yul\":7691:7697   */\n      dup5\n        /* \"#utility.yul\":7653:7718   */\n      tag_311\n      jump\t// in\n    tag_361:\n        /* \"#utility.yul\":7515:7725   */\n      swap3\n      swap2\n      pop\n      pop\n      jump\t// out\n        /* \"#utility.yul\":7731:7951   */\n    tag_128:\n        /* \"#utility.yul\":7823:7827   */\n      0x00\n        /* \"#utility.yul\":7861:7863   */\n      0x20\n        /* \"#utility.yul\":7850:7859   */\n      dup3\n        /* \"#utility.yul\":7846:7864   */\n      add\n        /* \"#utility.yul\":7838:7864   */\n      swap1\n      pop\n        /* \"#utility.yul\":7874:7944   */\n      tag_363\n        /* \"#utility.yul\":7941:7942   */\n      0x00\n        /* \"#utility.yul\":7930:7939   */\n      dup4\n        /* \"#utility.yul\":7926:7943   */\n      add\n        /* \"#utility.yul\":7917:7923   */\n      dup5\n        /* \"#utility.yul\":7874:7944   */\n      tag_315\n      jump\t// in\n    tag_363:\n        /* \"#utility.yul\":7731:7951   */\n      swap3\n      swap2\n      pop\n      pop\n      jump\t// out\n        /* \"#utility.yul\":7957:8229   */\n    tag_89:\n        /* \"#utility.yul\":8075:8079   */\n      0x00\n        /* \"#utility.yul\":8113:8115   */\n      0x20\n        /* \"#utility.yul\":8102:8111   */\n      dup3\n        /* \"#utility.yul\":8098:8116   */\n      add\n        /* \"#utility.yul\":8090:8116   */\n      swap1\n      pop\n        /* \"#utility.yul\":8126:8222   */\n      tag_365\n        /* \"#utility.yul\":8219:8220   */\n      0x00\n        /* \"#utility.yul\":8208:8217   */\n      dup4\n        /* \"#utility.yul\":8204:8221   */\n      add\n        /* \"#utility.yul\":8195:8201   */\n      dup5\n        /* \"#utility.yul\":8126:8222   */\n      tag_319\n      jump\t// in\n    tag_365:\n        /* \"#utility.yul\":7957:8229   */\n      swap3\n      swap2\n      pop\n      pop\n      jump\t// out\n        /* \"#utility.yul\":8235:8511   */\n    tag_58:\n        /* \"#utility.yul\":8355:8359   */\n      0x00\n        /* \"#utility.yul\":8393:8395   */\n      0x20\n        /* \"#utility.yul\":8382:8391   */\n      dup3\n        /* \"#utility.yul\":8378:8396   */\n      add\n        /* \"#utility.yul\":8370:8396   */\n      swap1\n      pop\n        /* \"#utility.yul\":8406:8504   */\n      tag_367\n        /* \"#utility.yul\":8501:8502   */\n      0x00\n        /* \"#utility.yul\":8490:8499   */\n      dup4\n        /* \"#utility.yul\":8486:8503   */\n      add\n        /* \"#utility.yul\":8477:8483   */\n      dup5\n        /* \"#utility.yul\":8406:8504   */\n      tag_323\n      jump\t// in\n    tag_367:\n        /* \"#utility.yul\":8235:8511   */\n      swap3\n      swap2\n      pop\n      pop\n      jump\t// out\n        /* \"#utility.yul\":8517:8936   */\n    tag_159:\n        /* \"#utility.yul\":8683:8687   */\n      0x00\n        /* \"#utility.yul\":8721:8723   */\n      0x20\n        /* \"#utility.yul\":8710:8719   */\n      dup3\n        /* \"#utility.yul\":8706:8724   */\n      add\n        /* \"#utility.yul\":8698:8724   */\n      swap1\n      pop\n        /* \"#utility.yul\":8770:8779   */\n      dup2\n        /* \"#utility.yul\":8764:8768   */\n      dup2\n        /* \"#utility.yul\":8760:8780   */\n      sub\n        /* \"#utility.yul\":8756:8757   */\n      0x00\n        /* \"#utility.yul\":8745:8754   */\n      dup4\n        /* \"#utility.yul\":8741:8758   */\n      add\n        /* \"#utility.yul\":8734:8781   */\n      mstore\n        /* \"#utility.yul\":8798:8929   */\n      tag_369\n        /* \"#utility.yul\":8924:8928   */\n      dup2\n        /* \"#utility.yul\":8798:8929   */\n      tag_331\n      jump\t// in\n    tag_369:\n        /* \"#utility.yul\":8790:8929   */\n      swap1\n      pop\n        /* \"#utility.yul\":8517:8936   */\n      swap2\n      swap1\n      pop\n      jump\t// out\n        /* \"#utility.yul\":8942:9361   */\n    tag_103:\n        /* \"#utility.yul\":9108:9112   */\n      0x00\n        /* \"#utility.yul\":9146:9148   */\n      0x20\n        /* \"#utility.yul\":9135:9144   */\n      dup3\n        /* \"#utility.yul\":9131:9149   */\n      add\n        /* \"#utility.yul\":9123:9149   */\n      swap1\n      pop\n        /* \"#utility.yul\":9195:9204   */\n      dup2\n        /* \"#utility.yul\":9189:9193   */\n      dup2\n        /* \"#utility.yul\":9185:9205   */\n      sub\n        /* \"#utility.yul\":9181:9182   */\n      0x00\n        /* \"#utility.yul\":9170:9179   */\n      dup4\n        /* \"#utility.yul\":9166:9183   */\n      add\n        /* \"#utility.yul\":9159:9206   */\n      mstore\n        /* \"#utility.yul\":9223:9354   */\n      tag_371\n        /* \"#utility.yul\":9349:9353   */\n      dup2\n        /* \"#utility.yul\":9223:9354   */\n      tag_337\n      jump\t// in\n    tag_371:\n        /* \"#utility.yul\":9215:9354   */\n      swap1\n      pop\n        /* \"#utility.yul\":8942:9361   */\n      swap2\n      swap1\n      pop\n      jump\t// out\n        /* \"#utility.yul\":9367:9786   */\n    tag_190:\n        /* \"#utility.yul\":9533:9537   */\n      0x00\n        /* \"#utility.yul\":9571:9573   */\n      0x20\n        /* \"#utility.yul\":9560:9569   */\n      dup3\n        /* \"#utility.yul\":9556:9574   */\n      add\n        /* \"#utility.yul\":9548:9574   */\n      swap1\n      pop\n        /* \"#utility.yul\":9620:9629   */\n      dup2\n        /* \"#utility.yul\":9614:9618   */\n      dup2\n        /* \"#utility.yul\":9610:9630   */\n      sub\n        /* \"#utility.yul\":9606:9607   */\n      0x00\n        /* \"#utility.yul\":9595:9604   */\n      dup4\n        /* \"#utility.yul\":9591:9608   */\n      add\n        /* \"#utility.yul\":9584:9631   */\n      mstore\n        /* \"#utility.yul\":9648:9779   */\n      tag_373\n        /* \"#utility.yul\":9774:9778   */\n      dup2\n        /* \"#utility.yul\":9648:9779   */\n      tag_342\n      jump\t// in\n    tag_373:\n        /* \"#utility.yul\":9640:9779   */\n      swap1\n      pop\n        /* \"#utility.yul\":9367:9786   */\n      swap2\n      swap1\n      pop\n      jump\t// out\n        /* \"#utility.yul\":9792:10211   */\n    tag_110:\n        /* \"#utility.yul\":9958:9962   */\n      0x00\n        /* \"#utility.yul\":9996:9998   */\n      0x20\n        /* \"#utility.yul\":9985:9994   */\n      dup3\n        /* \"#utility.yul\":9981:9999   */\n      add\n        /* \"#utility.yul\":9973:9999   */\n      swap1\n      pop\n        /* \"#utility.yul\":10045:10054   */\n      dup2\n        /* \"#utility.yul\":10039:10043   */\n      dup2\n        /* \"#utility.yul\":10035:10055   */\n      sub\n        /* \"#utility.yul\":10031:10032   */\n      0x00\n        /* \"#utility.yul\":10020:10029   */\n      dup4\n        /* \"#utility.yul\":10016:10033   */\n      add\n        /* \"#utility.yul\":10009:10056   */\n      mstore\n        /* \"#utility.yul\":10073:10204   */\n      tag_375\n        /* \"#utility.yul\":10199:10203   */\n      dup2\n        /* \"#utility.yul\":10073:10204   */\n      tag_347\n      jump\t// in\n    tag_375:\n        /* \"#utility.yul\":10065:10204   */\n      swap1\n      pop\n        /* \"#utility.yul\":9792:10211   */\n      swap2\n      swap1\n      pop\n      jump\t// out\n        /* \"#utility.yul\":10217:10439   */\n    tag_34:\n        /* \"#utility.yul\":10310:10314   */\n      0x00\n        /* \"#utility.yul\":10348:10350   */\n      0x20\n        /* \"#utility.yul\":10337:10346   */\n      dup3\n        /* \"#utility.yul\":10333:10351   */\n      add\n        /* \"#utility.yul\":10325:10351   */\n      swap1\n      pop\n        /* \"#utility.yul\":10361:10432   */\n      tag_377\n        /* \"#utility.yul\":10429:10430   */\n      0x00\n        /* \"#utility.yul\":10418:10427   */\n      dup4\n        /* \"#utility.yul\":10414:10431   */\n      add\n        /* \"#utility.yul\":10405:10411   */\n      dup5\n        /* \"#utility.yul\":10361:10432   */\n      tag_352\n      jump\t// in\n    tag_377:\n        /* \"#utility.yul\":10217:10439   */\n      swap3\n      swap2\n      pop\n      pop\n      jump\t// out\n        /* \"#utility.yul\":10445:10773   */\n    tag_26:\n        /* \"#utility.yul\":10564:10568   */\n      0x00\n        /* \"#utility.yul\":10602:10604   */\n      0x40\n        /* \"#utility.yul\":10591:10600   */\n      dup3\n        /* \"#utility.yul\":10587:10605   */\n      add\n        /* \"#utility.yul\":10579:10605   */\n      swap1\n      pop\n        /* \"#utility.yul\":10615:10686   */\n      tag_379\n        /* \"#utility.yul\":10683:10684   */\n      0x00\n        /* \"#utility.yul\":10672:10681   */\n      dup4\n        /* \"#utility.yul\":10668:10685   */\n      add\n        /* \"#utility.yul\":10659:10665   */\n      dup6\n        /* \"#utility.yul\":10615:10686   */\n      tag_352\n      jump\t// in\n    tag_379:\n        /* \"#utility.yul\":10696:10766   */\n      tag_380\n        /* \"#utility.yul\":10762:10764   */\n      0x20\n        /* \"#utility.yul\":10751:10760   */\n      dup4\n        /* \"#utility.yul\":10747:10765   */\n      add\n        /* \"#utility.yul\":10738:10744   */\n      dup5\n        /* \"#utility.yul\":10696:10766   */\n      tag_327\n      jump\t// in\n    tag_380:\n        /* \"#utility.yul\":10445:10773   */\n      swap4\n      swap3\n      pop\n      pop\n      pop\n      jump\t// out\n        /* \"#utility.yul\":10779:11328   */\n    tag_70:\n        /* \"#utility.yul\":10954:10958   */\n      0x00\n        /* \"#utility.yul\":10992:10995   */\n      0x80\n        /* \"#utility.yul\":10981:10990   */\n      dup3\n        /* \"#utility.yul\":10977:10996   */\n      add\n        /* \"#utility.yul\":10969:10996   */\n      swap1\n      pop\n        /* \"#utility.yul\":11006:11077   */\n      tag_382\n        /* \"#utility.yul\":11074:11075   */\n      0x00\n        /* \"#utility.yul\":11063:11072   */\n      dup4\n        /* \"#utility.yul\":11059:11076   */\n      add\n        /* \"#utility.yul\":11050:11056   */\n      dup8\n        /* \"#utility.yul\":11006:11077   */\n      tag_352\n      jump\t// in\n    tag_382:\n        /* \"#utility.yul\":11087:11157   */\n      tag_383\n        /* \"#utility.yul\":11153:11155   */\n      0x20\n        /* \"#utility.yul\":11142:11151   */\n      dup4\n        /* \"#utility.yul\":11138:11156   */\n      add\n        /* \"#utility.yul\":11129:11135   */\n      dup7\n        /* \"#utility.yul\":11087:11157   */\n      tag_327\n      jump\t// in\n    tag_383:\n        /* \"#utility.yul\":11167:11239   */\n      tag_384\n        /* \"#utility.yul\":11235:11237   */\n      0x40\n        /* \"#utility.yul\":11224:11233   */\n      dup4\n        /* \"#utility.yul\":11220:11238   */\n      add\n        /* \"#utility.yul\":11211:11217   */\n      dup6\n        /* \"#utility.yul\":11167:11239   */\n      tag_352\n      jump\t// in\n    tag_384:\n        /* \"#utility.yul\":11249:11321   */\n      tag_385\n        /* \"#utility.yul\":11317:11319   */\n      0x60\n        /* \"#utility.yul\":11306:11315   */\n      dup4\n        /* \"#utility.yul\":11302:11320   */\n      add\n        /* \"#utility.yul\":11293:11299   */\n      dup5\n        /* \"#utility.yul\":11249:11321   */\n      tag_307\n      jump\t// in\n    tag_385:\n        /* \"#utility.yul\":10779:11328   */\n      swap6\n      swap5\n      pop\n      pop\n      pop\n      pop\n      pop\n      jump\t// out\n        /* \"#utility.yul\":11334:11666   */\n    tag_75:\n        /* \"#utility.yul\":11455:11459   */\n      0x00\n        /* \"#utility.yul\":11493:11495   */\n      0x40\n        /* \"#utility.yul\":11482:11491   */\n      dup3\n        /* \"#utility.yul\":11478:11496   */\n      add\n        /* \"#utility.yul\":11470:11496   */\n      swap1\n      pop\n        /* \"#utility.yul\":11506:11577   */\n      tag_387\n        /* \"#utility.yul\":11574:11575   */\n      0x00\n        /* \"#utility.yul\":11563:11572   */\n      dup4\n        /* \"#utility.yul\":11559:11576   */\n      add\n        /* \"#utility.yul\":11550:11556   */\n      dup6\n        /* \"#utility.yul\":11506:11577   */\n      tag_352\n      jump\t// in\n    tag_387:\n        /* \"#utility.yul\":11587:11659   */\n      tag_388\n        /* \"#utility.yul\":11655:11657   */\n      0x20\n        /* \"#utility.yul\":11644:11653   */\n      dup4\n        /* \"#utility.yul\":11640:11658   */\n      add\n        /* \"#utility.yul\":11631:11637   */\n      dup5\n        /* \"#utility.yul\":11587:11659   */\n      tag_352\n      jump\t// in\n    tag_388:\n        /* \"#utility.yul\":11334:11666   */\n      swap4\n      swap3\n      pop\n      pop\n      pop\n      jump\t// out\n        /* \"#utility.yul\":11753:11922   */\n    tag_334:\n        /* \"#utility.yul\":11837:11848   */\n      0x00\n        /* \"#utility.yul\":11871:11877   */\n      dup3\n        /* \"#utility.yul\":11866:11869   */\n      dup3\n        /* \"#utility.yul\":11859:11878   */\n      mstore\n        /* \"#utility.yul\":11911:11915   */\n      0x20\n        /* \"#utility.yul\":11906:11909   */\n      dup3\n        /* \"#utility.yul\":11902:11916   */\n      add\n        /* \"#utility.yul\":11887:11916   */\n      swap1\n      pop\n        /* \"#utility.yul\":11753:11922   */\n      swap3\n      swap2\n      pop\n      pop\n      jump\t// out\n        /* \"#utility.yul\":11928:12453   */\n    tag_116:\n        /* \"#utility.yul\":11967:11970   */\n      0x00\n        /* \"#utility.yul\":11986:12005   */\n      tag_393\n        /* \"#utility.yul\":12003:12004   */\n      dup3\n        /* \"#utility.yul\":11986:12005   */\n      tag_330\n      jump\t// in\n    tag_393:\n        /* \"#utility.yul\":11981:12005   */\n      swap2\n      pop\n        /* \"#utility.yul\":12019:12038   */\n      tag_394\n        /* \"#utility.yul\":12036:12037   */\n      dup4\n        /* \"#utility.yul\":12019:12038   */\n      tag_330\n      jump\t// in\n    tag_394:\n        /* \"#utility.yul\":12014:12038   */\n      swap3\n      pop\n        /* \"#utility.yul\":12207:12208   */\n      dup2\n        /* \"#utility.yul\":12139:12205   */\n      0x7fffffffffffffffffffffffffffffffffffffffffffffffffffffffffffffff\n        /* \"#utility.yul\":12135:12209   */\n      sub\n        /* \"#utility.yul\":12132:12133   */\n      dup4\n        /* \"#utility.yul\":12128:12210   */\n      sgt\n        /* \"#utility.yul\":12123:12124   */\n      0x00\n        /* \"#utility.yul\":12120:12121   */\n      dup4\n        /* \"#utility.yul\":12116:12125   */\n      slt\n        /* \"#utility.yul\":12109:12126   */\n      iszero\n        /* \"#utility.yul\":12105:12211   */\n      and\n        /* \"#utility.yul\":12102:12234   */\n      iszero\n      tag_395\n      jumpi\n        /* \"#utility.yul\":12214:12232   */\n      tag_396\n      tag_397\n      jump\t// in\n    tag_396:\n        /* \"#utility.yul\":12102:12234   */\n    tag_395:\n        /* \"#utility.yul\":12394:12395   */\n      dup2\n        /* \"#utility.yul\":12326:12392   */\n      0x8000000000000000000000000000000000000000000000000000000000000000\n        /* \"#utility.yul\":12322:12396   */\n      sub\n        /* \"#utility.yul\":12319:12320   */\n      dup4\n        /* \"#utility.yul\":12315:12397   */\n      slt\n        /* \"#utility.yul\":12311:12312   */\n      0x00\n        /* \"#utility.yul\":12308:12309   */\n      dup4\n        /* \"#utility.yul\":12304:12313   */\n      slt\n        /* \"#utility.yul\":12300:12398   */\n      and\n        /* \"#utility.yul\":12297:12421   */\n      iszero\n      tag_398\n      jumpi\n        /* \"#utility.yul\":12401:12419   */\n      tag_399\n      tag_397\n      jump\t// in\n    tag_399:\n        /* \"#utility.yul\":12297:12421   */\n    tag_398:\n        /* \"#utility.yul\":12445:12446   */\n      dup3\n        /* \"#utility.yul\":12442:12443   */\n      dup3\n        /* \"#utility.yul\":12438:12447   */\n      add\n        /* \"#utility.yul\":12431:12447   */\n      swap1\n      pop\n        /* \"#utility.yul\":11928:12453   */\n      swap3\n      swap2\n      pop\n      pop\n      jump\t// out\n        /* \"#utility.yul\":12459:12764   */\n    tag_120:\n        /* \"#utility.yul\":12499:12502   */\n      0x00\n        /* \"#utility.yul\":12518:12538   */\n      tag_401\n        /* \"#utility.yul\":12536:12537   */\n      dup3\n        /* \"#utility.yul\":12518:12538   */\n      tag_355\n      jump\t// in\n    tag_401:\n        /* \"#utility.yul\":12513:12538   */\n      swap2\n      pop\n        /* \"#utility.yul\":12552:12572   */\n      tag_402\n        /* \"#utility.yul\":12570:12571   */\n      dup4\n        /* \"#utility.yul\":12552:12572   */\n      tag_355\n      jump\t// in\n    tag_402:\n        /* \"#utility.yul\":12547:12572   */\n      swap3\n      pop\n        /* \"#utility.yul\":12706:12707   */\n      dup3\n        /* \"#utility.yul\":12638:12704   */\n      0xffffffffffffffffffffffffffffffffffffffffffffffffffffffffffffffff\n        /* \"#utility.yul\":12634:12708   */\n      sub\n        /* \"#utility.yul\":12631:12632   */\n      dup3\n        /* \"#utility.yul\":12628:12709   */\n      gt\n        /* \"#utility.yul\":12625:12732   */\n      iszero\n      tag_403\n      jumpi\n        /* \"#utility.yul\":12712:12730   */\n      tag_404\n      tag_397\n      jump\t// in\n    tag_404:\n        /* \"#utility.yul\":12625:12732   */\n    tag_403:\n        /* \"#utility.yul\":12756:12757   */\n      dup3\n        /* \"#utility.yul\":12753:12754   */\n      dup3\n        /* \"#utility.yul\":12749:12758   */\n      add\n        /* \"#utility.yul\":12742:12758   */\n      swap1\n      pop\n        /* \"#utility.yul\":12459:12764   */\n      swap3\n      swap2\n      pop\n      pop\n      jump\t// out\n        /* \"#utility.yul\":12770:13155   */\n    tag_107:\n        /* \"#utility.yul\":12809:12810   */\n      0x00\n        /* \"#utility.yul\":12826:12845   */\n      tag_406\n        /* \"#utility.yul\":12843:12844   */\n      dup3\n        /* \"#utility.yul\":12826:12845   */\n      tag_330\n      jump\t// in\n    tag_406:\n        /* \"#utility.yul\":12821:12845   */\n      swap2\n      pop\n        /* \"#utility.yul\":12859:12878   */\n      tag_407\n        /* \"#utility.yul\":12876:12877   */\n      dup4\n        /* \"#utility.yul\":12859:12878   */\n      tag_330\n      jump\t// in\n    tag_407:\n        /* \"#utility.yul\":12854:12878   */\n      swap3\n      pop\n        /* \"#utility.yul\":12897:12898   */\n      dup3\n        /* \"#utility.yul\":12887:12922   */\n      tag_408\n      jumpi\n        /* \"#utility.yul\":12902:12920   */\n      tag_409\n      tag_410\n      jump\t// in\n    tag_409:\n        /* \"#utility.yul\":12887:12922   */\n    tag_408:\n        /* \"#utility.yul\":13088:13089   */\n      0x01\n        /* \"#utility.yul\":13085:13086   */\n      0x00\n        /* \"#utility.yul\":13081:13090   */\n      sub\n        /* \"#utility.yul\":13078:13079   */\n      dup4\n        /* \"#utility.yul\":13075:13091   */\n      eq\n        /* \"#utility.yul\":12994:13060   */\n      0x8000000000000000000000000000000000000000000000000000000000000000\n        /* \"#utility.yul\":12991:12992   */\n      dup4\n        /* \"#utility.yul\":12988:13061   */\n      eq\n        /* \"#utility.yul\":12971:13101   */\n      and\n        /* \"#utility.yul\":12968:13124   */\n      iszero\n      tag_411\n      jumpi\n        /* \"#utility.yul\":13104:13122   */\n      tag_412\n      tag_397\n      jump\t// in\n    tag_412:\n        /* \"#utility.yul\":12968:13124   */\n    tag_411:\n        /* \"#utility.yul\":13147:13148   */\n      dup3\n        /* \"#utility.yul\":13144:13145   */\n      dup3\n        /* \"#utility.yul\":13139:13149   */\n      sdiv\n        /* \"#utility.yul\":13134:13149   */\n      swap1\n      pop\n        /* \"#utility.yul\":12770:13155   */\n      swap3\n      swap2\n      pop\n      pop\n      jump\t// out\n        /* \"#utility.yul\":13161:13346   */\n    tag_193:\n        /* \"#utility.yul\":13201:13202   */\n      0x00\n        /* \"#utility.yul\":13218:13238   */\n      tag_414\n        /* \"#utility.yul\":13236:13237   */\n      dup3\n        /* \"#utility.yul\":13218:13238   */\n      tag_355\n      jump\t// in\n    tag_414:\n        /* \"#utility.yul\":13213:13238   */\n      swap2\n      pop\n        /* \"#utility.yul\":13252:13272   */\n      tag_415\n        /* \"#utility.yul\":13270:13271   */\n      dup4\n        /* \"#utility.yul\":13252:13272   */\n      tag_355\n      jump\t// in\n    tag_415:\n        /* \"#utility.yul\":13247:13272   */\n      swap3\n      pop\n        /* \"#utility.yul\":13291:13292   */\n      dup3\n        /* \"#utility.yul\":13281:13316   */\n      tag_416\n      jumpi\n        /* \"#utility.yul\":13296:13314   */\n      tag_417\n      tag_410\n      jump\t// in\n    tag_417:\n        /* \"#utility.yul\":13281:13316   */\n    tag_416:\n        /* \"#utility.yul\":13338:13339   */\n      dup3\n        /* \"#utility.yul\":13335:13336   */\n      dup3\n        /* \"#utility.yul\":13331:13340   */\n      div\n        /* \"#utility.yul\":13326:13340   */\n      swap1\n      pop\n        /* \"#utility.yul\":13161:13346   */\n      swap3\n      swap2\n      pop\n      pop\n      jump\t// out\n        /* \"#utility.yul\":13352:14343   */\n    tag_112:\n        /* \"#utility.yul\":13391:13398   */\n      0x00\n        /* \"#utility.yul\":13414:13433   */\n      tag_419\n        /* \"#utility.yul\":13431:13432   */\n      dup3\n        /* \"#utility.yul\":13414:13433   */\n      tag_330\n      jump\t// in\n    tag_419:\n        /* \"#utility.yul\":13409:13433   */\n      swap2\n      pop\n        /* \"#utility.yul\":13447:13466   */\n      tag_420\n        /* \"#utility.yul\":13464:13465   */\n      dup4\n        /* \"#utility.yul\":13447:13466   */\n      tag_330\n      jump\t// in\n    tag_420:\n        /* \"#utility.yul\":13442:13466   */\n      swap3\n      pop\n        /* \"#utility.yul\":13648:13649   */\n      dup3\n        /* \"#utility.yul\":13580:13646   */\n      0x7fffffffffffffffffffffffffffffffffffffffffffffffffffffffffffffff\n        /* \"#utility.yul\":13576:13650   */\n      div\n        /* \"#utility.yul\":13573:13574   */\n      dup3\n        /* \"#utility.yul\":13570:13651   */\n      gt\n        /* \"#utility.yul\":13565:13566   */\n      0x00\n        /* \"#utility.yul\":13562:13563   */\n      dup5\n        /* \"#utility.yul\":13558:13567   */\n      sgt\n        /* \"#utility.yul\":13554:13555   */\n      0x00\n        /* \"#utility.yul\":13551:13552   */\n      dup5\n        /* \"#utility.yul\":13547:13556   */\n      sgt\n        /* \"#utility.yul\":13543:13568   */\n      and\n        /* \"#utility.yul\":13539:13652   */\n      and\n        /* \"#utility.yul\":13536:13675   */\n      iszero\n      tag_421\n      jumpi\n        /* \"#utility.yul\":13655:13673   */\n      tag_422\n      tag_397\n      jump\t// in\n    tag_422:\n        /* \"#utility.yul\":13536:13675   */\n    tag_421:\n        /* \"#utility.yul\":13859:13860   */\n      dup2\n        /* \"#utility.yul\":13791:13857   */\n      0x8000000000000000000000000000000000000000000000000000000000000000\n        /* \"#utility.yul\":13786:13861   */\n      sdiv\n        /* \"#utility.yul\":13783:13784   */\n      dup4\n        /* \"#utility.yul\":13779:13862   */\n      slt\n        /* \"#utility.yul\":13774:13775   */\n      0x00\n        /* \"#utility.yul\":13771:13772   */\n      dup5\n        /* \"#utility.yul\":13767:13776   */\n      slt\n        /* \"#utility.yul\":13763:13764   */\n      0x00\n        /* \"#utility.yul\":13760:13761   */\n      dup5\n        /* \"#utility.yul\":13756:13765   */\n      sgt\n        /* \"#utility.yul\":13752:13777   */\n      and\n        /* \"#utility.yul\":13748:13863   */\n      and\n        /* \"#utility.yul\":13745:13886   */\n      iszero\n      tag_423\n      jumpi\n        /* \"#utility.yul\":13866:13884   */\n      tag_424\n      tag_397\n      jump\t// in\n    tag_424:\n        /* \"#utility.yul\":13745:13886   */\n    tag_423:\n        /* \"#utility.yul\":14070:14071   */\n      dup3\n        /* \"#utility.yul\":14002:14068   */\n      0x8000000000000000000000000000000000000000000000000000000000000000\n        /* \"#utility.yul\":13997:14072   */\n      sdiv\n        /* \"#utility.yul\":13994:13995   */\n      dup3\n        /* \"#utility.yul\":13990:14073   */\n      slt\n        /* \"#utility.yul\":13985:13986   */\n      0x00\n        /* \"#utility.yul\":13982:13983   */\n      dup5\n        /* \"#utility.yul\":13978:13987   */\n      sgt\n        /* \"#utility.yul\":13974:13975   */\n      0x00\n        /* \"#utility.yul\":13971:13972   */\n      dup5\n        /* \"#utility.yul\":13967:13976   */\n      slt\n        /* \"#utility.yul\":13963:13988   */\n      and\n        /* \"#utility.yul\":13959:14074   */\n      and\n        /* \"#utility.yul\":13956:14097   */\n      iszero\n      tag_425\n      jumpi\n        /* \"#utility.yul\":14077:14095   */\n      tag_426\n      tag_397\n      jump\t// in\n    tag_426:\n        /* \"#utility.yul\":13956:14097   */\n    tag_425:\n        /* \"#utility.yul\":14280:14281   */\n      dup3\n        /* \"#utility.yul\":14212:14278   */\n      0x7fffffffffffffffffffffffffffffffffffffffffffffffffffffffffffffff\n        /* \"#utility.yul\":14207:14282   */\n      sdiv\n        /* \"#utility.yul\":14204:14205   */\n      dup3\n        /* \"#utility.yul\":14200:14283   */\n      slt\n        /* \"#utility.yul\":14195:14196   */\n      0x00\n        /* \"#utility.yul\":14192:14193   */\n      dup5\n        /* \"#utility.yul\":14188:14197   */\n      slt\n        /* \"#utility.yul\":14184:14185   */\n      0x00\n        /* \"#utility.yul\":14181:14182   */\n      dup5\n        /* \"#utility.yul\":14177:14186   */\n      slt\n        /* \"#utility.yul\":14173:14198   */\n      and\n        /* \"#utility.yul\":14169:14284   */\n      and\n        /* \"#utility.yul\":14166:14307   */\n      iszero\n      tag_427\n      jumpi\n        /* \"#utility.yul\":14287:14305   */\n      tag_428\n      tag_397\n      jump\t// in\n    tag_428:\n        /* \"#utility.yul\":14166:14307   */\n    tag_427:\n        /* \"#utility.yul\":14335:14336   */\n      dup3\n        /* \"#utility.yul\":14332:14333   */\n      dup3\n        /* \"#utility.yul\":14328:14337   */\n      mul\n        /* \"#utility.yul\":14317:14337   */\n      swap1\n      pop\n        /* \"#utility.yul\":13352:14343   */\n      swap3\n      swap2\n      pop\n      pop\n      jump\t// out\n        /* \"#utility.yul\":14349:14697   */\n    tag_215:\n        /* \"#utility.yul\":14389:14396   */\n      0x00\n        /* \"#utility.yul\":14412:14432   */\n      tag_430\n        /* \"#utility.yul\":14430:14431   */\n      dup3\n        /* \"#utility.yul\":14412:14432   */\n      tag_355\n      jump\t// in\n    tag_430:\n        /* \"#utility.yul\":14407:14432   */\n      swap2\n      pop\n        /* \"#utility.yul\":14446:14466   */\n      tag_431\n        /* \"#utility.yul\":14464:14465   */\n      dup4\n        /* \"#utility.yul\":14446:14466   */\n      tag_355\n      jump\t// in\n    tag_431:\n        /* \"#utility.yul\":14441:14466   */\n      swap3\n      pop\n        /* \"#utility.yul\":14634:14635   */\n      dup2\n        /* \"#utility.yul\":14566:14632   */\n      0xffffffffffffffffffffffffffffffffffffffffffffffffffffffffffffffff\n        /* \"#utility.yul\":14562:14636   */\n      div\n        /* \"#utility.yul\":14559:14560   */\n      dup4\n        /* \"#utility.yul\":14556:14637   */\n      gt\n        /* \"#utility.yul\":14551:14552   */\n      dup3\n        /* \"#utility.yul\":14544:14553   */\n      iszero\n        /* \"#utility.yul\":14537:14554   */\n      iszero\n        /* \"#utility.yul\":14533:14638   */\n      and\n        /* \"#utility.yul\":14530:14661   */\n      iszero\n      tag_432\n      jumpi\n        /* \"#utility.yul\":14641:14659   */\n      tag_433\n      tag_397\n      jump\t// in\n    tag_433:\n        /* \"#utility.yul\":14530:14661   */\n    tag_432:\n        /* \"#utility.yul\":14689:14690   */\n      dup3\n        /* \"#utility.yul\":14686:14687   */\n      dup3\n        /* \"#utility.yul\":14682:14691   */\n      mul\n        /* \"#utility.yul\":14671:14691   */\n      swap1\n      pop\n        /* \"#utility.yul\":14349:14697   */\n      swap3\n      swap2\n      pop\n      pop\n      jump\t// out\n        /* \"#utility.yul\":14703:14894   */\n    tag_200:\n        /* \"#utility.yul\":14743:14747   */\n      0x00\n        /* \"#utility.yul\":14763:14783   */\n      tag_435\n        /* \"#utility.yul\":14781:14782   */\n      dup3\n        /* \"#utility.yul\":14763:14783   */\n      tag_355\n      jump\t// in\n    tag_435:\n        /* \"#utility.yul\":14758:14783   */\n      swap2\n      pop\n        /* \"#utility.yul\":14797:14817   */\n      tag_436\n        /* \"#utility.yul\":14815:14816   */\n      dup4\n        /* \"#utility.yul\":14797:14817   */\n      tag_355\n      jump\t// in\n    tag_436:\n        /* \"#utility.yul\":14792:14817   */\n      swap3\n      pop\n        /* \"#utility.yul\":14836:14837   */\n      dup3\n        /* \"#utility.yul\":14833:14834   */\n      dup3\n        /* \"#utility.yul\":14830:14838   */\n      lt\n        /* \"#utility.yul\":14827:14861   */\n      iszero\n      tag_437\n      jumpi\n        /* \"#utility.yul\":14841:14859   */\n      tag_438\n      tag_397\n      jump\t// in\n    tag_438:\n        /* \"#utility.yul\":14827:14861   */\n    tag_437:\n        /* \"#utility.yul\":14886:14887   */\n      dup3\n        /* \"#utility.yul\":14883:14884   */\n      dup3\n        /* \"#utility.yul\":14879:14888   */\n      sub\n        /* \"#utility.yul\":14871:14888   */\n      swap1\n      pop\n        /* \"#utility.yul\":14703:14894   */\n      swap3\n      swap2\n      pop\n      pop\n      jump\t// out\n        /* \"#utility.yul\":14900:14996   */\n    tag_310:\n        /* \"#utility.yul\":14937:14944   */\n      0x00\n        /* \"#utility.yul\":14966:14990   */\n      tag_440\n        /* \"#utility.yul\":14984:14989   */\n      dup3\n        /* \"#utility.yul\":14966:14990   */\n      tag_441\n      jump\t// in\n    tag_440:\n        /* \"#utility.yul\":14955:14990   */\n      swap1\n      pop\n        /* \"#utility.yul\":14900:14996   */\n      swap2\n      swap1\n      pop\n      jump\t// out\n        /* \"#utility.yul\":15002:15106   */\n    tag_442:\n        /* \"#utility.yul\":15047:15054   */\n      0x00\n        /* \"#utility.yul\":15076:15100   */\n      tag_444\n        /* \"#utility.yul\":15094:15099   */\n      dup3\n        /* \"#utility.yul\":15076:15100   */\n      tag_441\n      jump\t// in\n    tag_444:\n        /* \"#utility.yul\":15065:15100   */\n      swap1\n      pop\n        /* \"#utility.yul\":15002:15106   */\n      swap2\n      swap1\n      pop\n      jump\t// out\n        /* \"#utility.yul\":15112:15202   */\n    tag_314:\n        /* \"#utility.yul\":15146:15153   */\n      0x00\n        /* \"#utility.yul\":15189:15194   */\n      dup2\n        /* \"#utility.yul\":15182:15195   */\n      iszero\n        /* \"#utility.yul\":15175:15196   */\n      iszero\n        /* \"#utility.yul\":15164:15196   */\n      swap1\n      pop\n        /* \"#utility.yul\":15112:15202   */\n      swap2\n      swap1\n      pop\n      jump\t// out\n        /* \"#utility.yul\":15208:15285   */\n    tag_446:\n        /* \"#utility.yul\":15245:15252   */\n      0x00\n        /* \"#utility.yul\":15274:15279   */\n      dup2\n        /* \"#utility.yul\":15263:15279   */\n      swap1\n      pop\n        /* \"#utility.yul\":15208:15285   */\n      swap2\n      swap1\n      pop\n      jump\t// out\n        /* \"#utility.yul\":15291:15440   */\n    tag_448:\n        /* \"#utility.yul\":15327:15334   */\n      0x00\n        /* \"#utility.yul\":15367:15433   */\n      0xffffffff00000000000000000000000000000000000000000000000000000000\n        /* \"#utility.yul\":15360:15365   */\n      dup3\n        /* \"#utility.yul\":15356:15434   */\n      and\n        /* \"#utility.yul\":15345:15434   */\n      swap1\n      pop\n        /* \"#utility.yul\":15291:15440   */\n      swap2\n      swap1\n      pop\n      jump\t// out\n        /* \"#utility.yul\":15446:15558   */\n    tag_450:\n        /* \"#utility.yul\":15499:15506   */\n      0x00\n        /* \"#utility.yul\":15528:15552   */\n      tag_452\n        /* \"#utility.yul\":15546:15551   */\n      dup3\n        /* \"#utility.yul\":15528:15552   */\n      tag_310\n      jump\t// in\n    tag_452:\n        /* \"#utility.yul\":15517:15552   */\n      swap1\n      pop\n        /* \"#utility.yul\":15446:15558   */\n      swap2\n      swap1\n      pop\n      jump\t// out\n        /* \"#utility.yul\":15564:15640   */\n    tag_330:\n        /* \"#utility.yul\":15600:15607   */\n      0x00\n        /* \"#utility.yul\":15629:15634   */\n      dup2\n        /* \"#utility.yul\":15618:15634   */\n      swap1\n      pop\n        /* \"#utility.yul\":15564:15640   */\n      swap2\n      swap1\n      pop\n      jump\t// out\n        /* \"#utility.yul\":15646:15772   */\n    tag_441:\n        /* \"#utility.yul\":15683:15690   */\n      0x00\n        /* \"#utility.yul\":15723:15765   */\n      0xffffffffffffffffffffffffffffffffffffffff\n        /* \"#utility.yul\":15716:15721   */\n      dup3\n        /* \"#utility.yul\":15712:15766   */\n      and\n        /* \"#utility.yul\":15701:15766   */\n      swap1\n      pop\n        /* \"#utility.yul\":15646:15772   */\n      swap2\n      swap1\n      pop\n      jump\t// out\n        /* \"#utility.yul\":15778:15855   */\n    tag_355:\n        /* \"#utility.yul\":15815:15822   */\n      0x00\n        /* \"#utility.yul\":15844:15849   */\n      dup2\n        /* \"#utility.yul\":15833:15849   */\n      swap1\n      pop\n        /* \"#utility.yul\":15778:15855   */\n      swap2\n      swap1\n      pop\n      jump\t// out\n        /* \"#utility.yul\":15861:15972   */\n    tag_318:\n        /* \"#utility.yul\":15910:15919   */\n      0x00\n        /* \"#utility.yul\":15943:15966   */\n      tag_457\n        /* \"#utility.yul\":15960:15965   */\n      dup3\n        /* \"#utility.yul\":15943:15966   */\n      tag_448\n      jump\t// in\n    tag_457:\n        /* \"#utility.yul\":15930:15966   */\n      swap1\n      pop\n        /* \"#utility.yul\":15861:15972   */\n      swap2\n      swap1\n      pop\n      jump\t// out\n        /* \"#utility.yul\":15978:16129   */\n    tag_322:\n        /* \"#utility.yul\":16053:16062   */\n      0x00\n        /* \"#utility.yul\":16086:16123   */\n      tag_459\n        /* \"#utility.yul\":16117:16122   */\n      dup3\n        /* \"#utility.yul\":16086:16123   */\n      tag_460\n      jump\t// in\n    tag_459:\n        /* \"#utility.yul\":16073:16123   */\n      swap1\n      pop\n        /* \"#utility.yul\":15978:16129   */\n      swap2\n      swap1\n      pop\n      jump\t// out\n        /* \"#utility.yul\":16135:16288   */\n    tag_326:\n        /* \"#utility.yul\":16212:16221   */\n      0x00\n        /* \"#utility.yul\":16245:16282   */\n      tag_462\n        /* \"#utility.yul\":16276:16281   */\n      dup3\n        /* \"#utility.yul\":16245:16282   */\n      tag_460\n      jump\t// in\n    tag_462:\n        /* \"#utility.yul\":16232:16282   */\n      swap1\n      pop\n        /* \"#utility.yul\":16135:16288   */\n      swap2\n      swap1\n      pop\n      jump\t// out\n        /* \"#utility.yul\":16294:16420   */\n    tag_460:\n        /* \"#utility.yul\":16344:16353   */\n      0x00\n        /* \"#utility.yul\":16377:16414   */\n      tag_464\n        /* \"#utility.yul\":16408:16413   */\n      dup3\n        /* \"#utility.yul\":16377:16414   */\n      tag_465\n      jump\t// in\n    tag_464:\n        /* \"#utility.yul\":16364:16414   */\n      swap1\n      pop\n        /* \"#utility.yul\":16294:16420   */\n      swap2\n      swap1\n      pop\n      jump\t// out\n        /* \"#utility.yul\":16426:16539   */\n    tag_465:\n        /* \"#utility.yul\":16476:16485   */\n      0x00\n        /* \"#utility.yul\":16509:16533   */\n      tag_467\n        /* \"#utility.yul\":16527:16532   */\n      dup3\n        /* \"#utility.yul\":16509:16533   */\n      tag_441\n      jump\t// in\n    tag_467:\n        /* \"#utility.yul\":16496:16533   */\n      swap1\n      pop\n        /* \"#utility.yul\":16426:16539   */\n      swap2\n      swap1\n      pop\n      jump\t// out\n        /* \"#utility.yul\":16545:16778   */\n    tag_118:\n        /* \"#utility.yul\":16584:16587   */\n      0x00\n        /* \"#utility.yul\":16607:16631   */\n      tag_469\n        /* \"#utility.yul\":16625:16630   */\n      dup3\n        /* \"#utility.yul\":16607:16631   */\n      tag_355\n      jump\t// in\n    tag_469:\n        /* \"#utility.yul\":16598:16631   */\n      swap2\n      pop\n        /* \"#utility.yul\":16653:16719   */\n      0xffffffffffffffffffffffffffffffffffffffffffffffffffffffffffffffff\n        /* \"#utility.yul\":16646:16651   */\n      dup3\n        /* \"#utility.yul\":16643:16720   */\n      eq\n        /* \"#utility.yul\":16640:16743   */\n      iszero\n      tag_470\n      jumpi\n        /* \"#utility.yul\":16723:16741   */\n      tag_471\n      tag_397\n      jump\t// in\n    tag_471:\n        /* \"#utility.yul\":16640:16743   */\n    tag_470:\n        /* \"#utility.yul\":16770:16771   */\n      0x01\n        /* \"#utility.yul\":16763:16768   */\n      dup3\n        /* \"#utility.yul\":16759:16772   */\n      add\n        /* \"#utility.yul\":16752:16772   */\n      swap1\n      pop\n        /* \"#utility.yul\":16545:16778   */\n      swap2\n      swap1\n      pop\n      jump\t// out\n        /* \"#utility.yul\":16784:16964   */\n    tag_397:\n        /* \"#utility.yul\":16832:16909   */\n      0x4e487b7100000000000000000000000000000000000000000000000000000000\n        /* \"#utility.yul\":16829:16830   */\n      0x00\n        /* \"#utility.yul\":16822:16910   */\n      mstore\n        /* \"#utility.yul\":16929:16933   */\n      0x11\n        /* \"#utility.yul\":16926:16927   */\n      0x04\n        /* \"#utility.yul\":16919:16934   */\n      mstore\n        /* \"#utility.yul\":16953:16957   */\n      0x24\n        /* \"#utility.yul\":16950:16951   */\n      0x00\n        /* \"#utility.yul\":16943:16958   */\n      revert\n        /* \"#utility.yul\":16970:17150   */\n    tag_410:\n        /* \"#utility.yul\":17018:17095   */\n      0x4e487b7100000000000000000000000000000000000000000000000000000000\n        /* \"#utility.yul\":17015:17016   */\n      0x00\n        /* \"#utility.yul\":17008:17096   */\n      mstore\n        /* \"#utility.yul\":17115:17119   */\n      0x12\n        /* \"#utility.yul\":17112:17113   */\n      0x04\n        /* \"#utility.yul\":17105:17120   */\n      mstore\n        /* \"#utility.yul\":17139:17143   */\n      0x24\n        /* \"#utility.yul\":17136:17137   */\n      0x00\n        /* \"#utility.yul\":17129:17144   */\n      revert\n        /* \"#utility.yul\":17279:17396   */\n    tag_275:\n        /* \"#utility.yul\":17388:17389   */\n      0x00\n        /* \"#utility.yul\":17385:17386   */\n      dup1\n        /* \"#utility.yul\":17378:17390   */\n      revert\n        /* \"#utility.yul\":17402:17579   */\n    tag_336:\n        /* \"#utility.yul\":17542:17571   */\n      0x5468616e6b7320746f206465706f736974206d6f726520637573640000000000\n        /* \"#utility.yul\":17538:17539   */\n      0x00\n        /* \"#utility.yul\":17530:17536   */\n      dup3\n        /* \"#utility.yul\":17526:17540   */\n      add\n        /* \"#utility.yul\":17519:17572   */\n      mstore\n        /* \"#utility.yul\":17402:17579   */\n      pop\n      jump\t// out\n        /* \"#utility.yul\":17585:17765   */\n    tag_341:\n        /* \"#utility.yul\":17725:17757   */\n      0x796f75722062616c616e6365206973206e6f742073756666696369656e740000\n        /* \"#utility.yul\":17721:17722   */\n      0x00\n        /* \"#utility.yul\":17713:17719   */\n      dup3\n        /* \"#utility.yul\":17709:17723   */\n      add\n        /* \"#utility.yul\":17702:17758   */\n      mstore\n        /* \"#utility.yul\":17585:17765   */\n      pop\n      jump\t// out\n        /* \"#utility.yul\":17771:17936   */\n    tag_346:\n        /* \"#utility.yul\":17911:17928   */\n      0x6e6f742073756666696369656e74200000000000000000000000000000000000\n        /* \"#utility.yul\":17907:17908   */\n      0x00\n        /* \"#utility.yul\":17899:17905   */\n      dup3\n        /* \"#utility.yul\":17895:17909   */\n      add\n        /* \"#utility.yul\":17888:17929   */\n      mstore\n        /* \"#utility.yul\":17771:17936   */\n      pop\n      jump\t// out\n        /* \"#utility.yul\":17942:18162   */\n    tag_351:\n        /* \"#utility.yul\":18082:18116   */\n      0x706c656173652073656e642063656c6f20616d6f756e74203e3d203230205553\n        /* \"#utility.yul\":18078:18079   */\n      0x00\n        /* \"#utility.yul\":18070:18076   */\n      dup3\n        /* \"#utility.yul\":18066:18080   */\n      add\n        /* \"#utility.yul\":18059:18117   */\n      mstore\n        /* \"#utility.yul\":18151:18154   */\n      0x4400000000000000000000000000000000000000000000000000000000000000\n        /* \"#utility.yul\":18146:18148   */\n      0x20\n        /* \"#utility.yul\":18138:18144   */\n      dup3\n        /* \"#utility.yul\":18134:18149   */\n      add\n        /* \"#utility.yul\":18127:18155   */\n      mstore\n        /* \"#utility.yul\":17942:18162   */\n      pop\n      jump\t// out\n        /* \"#utility.yul\":18168:18290   */\n    tag_244:\n        /* \"#utility.yul\":18241:18265   */\n      tag_482\n        /* \"#utility.yul\":18259:18264   */\n      dup2\n        /* \"#utility.yul\":18241:18265   */\n      tag_310\n      jump\t// in\n    tag_482:\n        /* \"#utility.yul\":18234:18239   */\n      dup2\n        /* \"#utility.yul\":18231:18266   */\n      eq\n        /* \"#utility.yul\":18221:18284   */\n      tag_483\n      jumpi\n        /* \"#utility.yul\":18280:18281   */\n      0x00\n        /* \"#utility.yul\":18277:18278   */\n      dup1\n        /* \"#utility.yul\":18270:18282   */\n      revert\n        /* \"#utility.yul\":18221:18284   */\n    tag_483:\n        /* \"#utility.yul\":18168:18290   */\n      pop\n      jump\t// out\n        /* \"#utility.yul\":18296:18434   */\n    tag_248:\n        /* \"#utility.yul\":18377:18409   */\n      tag_485\n        /* \"#utility.yul\":18403:18408   */\n      dup2\n        /* \"#utility.yul\":18377:18409   */\n      tag_442\n      jump\t// in\n    tag_485:\n        /* \"#utility.yul\":18370:18375   */\n      dup2\n        /* \"#utility.yul\":18367:18410   */\n      eq\n        /* \"#utility.yul\":18357:18428   */\n      tag_486\n      jumpi\n        /* \"#utility.yul\":18424:18425   */\n      0x00\n        /* \"#utility.yul\":18421:18422   */\n      dup1\n        /* \"#utility.yul\":18414:18426   */\n      revert\n        /* \"#utility.yul\":18357:18428   */\n    tag_486:\n        /* \"#utility.yul\":18296:18434   */\n      pop\n      jump\t// out\n        /* \"#utility.yul\":18440:18556   */\n    tag_252:\n        /* \"#utility.yul\":18510:18531   */\n      tag_488\n        /* \"#utility.yul\":18525:18530   */\n      dup2\n        /* \"#utility.yul\":18510:18531   */\n      tag_314\n      jump\t// in\n    tag_488:\n        /* \"#utility.yul\":18503:18508   */\n      dup2\n        /* \"#utility.yul\":18500:18532   */\n      eq\n        /* \"#utility.yul\":18490:18550   */\n      tag_489\n      jumpi\n        /* \"#utility.yul\":18546:18547   */\n      0x00\n        /* \"#utility.yul\":18543:18544   */\n      dup1\n        /* \"#utility.yul\":18536:18548   */\n      revert\n        /* \"#utility.yul\":18490:18550   */\n    tag_489:\n        /* \"#utility.yul\":18440:18556   */\n      pop\n      jump\t// out\n        /* \"#utility.yul\":18562:18684   */\n    tag_256:\n        /* \"#utility.yul\":18635:18659   */\n      tag_491\n        /* \"#utility.yul\":18653:18658   */\n      dup2\n        /* \"#utility.yul\":18635:18659   */\n      tag_446\n      jump\t// in\n    tag_491:\n        /* \"#utility.yul\":18628:18633   */\n      dup2\n        /* \"#utility.yul\":18625:18660   */\n      eq\n        /* \"#utility.yul\":18615:18678   */\n      tag_492\n      jumpi\n        /* \"#utility.yul\":18674:18675   */\n      0x00\n        /* \"#utility.yul\":18671:18672   */\n      dup1\n        /* \"#utility.yul\":18664:18676   */\n      revert\n        /* \"#utility.yul\":18615:18678   */\n    tag_492:\n        /* \"#utility.yul\":18562:18684   */\n      pop\n      jump\t// out\n        /* \"#utility.yul\":18690:18844   */\n    tag_260:\n        /* \"#utility.yul\":18779:18819   */\n      tag_494\n        /* \"#utility.yul\":18813:18818   */\n      dup2\n        /* \"#utility.yul\":18779:18819   */\n      tag_450\n      jump\t// in\n    tag_494:\n        /* \"#utility.yul\":18772:18777   */\n      dup2\n        /* \"#utility.yul\":18769:18820   */\n      eq\n        /* \"#utility.yul\":18759:18838   */\n      tag_495\n      jumpi\n        /* \"#utility.yul\":18834:18835   */\n      0x00\n        /* \"#utility.yul\":18831:18832   */\n      dup1\n        /* \"#utility.yul\":18824:18836   */\n      revert\n        /* \"#utility.yul\":18759:18838   */\n    tag_495:\n        /* \"#utility.yul\":18690:18844   */\n      pop\n      jump\t// out\n        /* \"#utility.yul\":18850:18970   */\n    tag_264:\n        /* \"#utility.yul\":18922:18945   */\n      tag_497\n        /* \"#utility.yul\":18939:18944   */\n      dup2\n        /* \"#utility.yul\":18922:18945   */\n      tag_330\n      jump\t// in\n    tag_497:\n        /* \"#utility.yul\":18915:18920   */\n      dup2\n        /* \"#utility.yul\":18912:18946   */\n      eq\n        /* \"#utility.yul\":18902:18964   */\n      tag_498\n      jumpi\n        /* \"#utility.yul\":18960:18961   */\n      0x00\n        /* \"#utility.yul\":18957:18958   */\n      dup1\n        /* \"#utility.yul\":18950:18962   */\n      revert\n        /* \"#utility.yul\":18902:18964   */\n    tag_498:\n        /* \"#utility.yul\":18850:18970   */\n      pop\n      jump\t// out\n        /* \"#utility.yul\":18976:19098   */\n    tag_268:\n        /* \"#utility.yul\":19049:19073   */\n      tag_500\n        /* \"#utility.yul\":19067:19072   */\n      dup2\n        /* \"#utility.yul\":19049:19073   */\n      tag_355\n      jump\t// in\n    tag_500:\n        /* \"#utility.yul\":19042:19047   */\n      dup2\n        /* \"#utility.yul\":19039:19074   */\n      eq\n        /* \"#utility.yul\":19029:19092   */\n      tag_501\n      jumpi\n        /* \"#utility.yul\":19088:19089   */\n      0x00\n        /* \"#utility.yul\":19085:19086   */\n      dup1\n        /* \"#utility.yul\":19078:19090   */\n      revert\n        /* \"#utility.yul\":19029:19092   */\n    tag_501:\n        /* \"#utility.yul\":18976:19098   */\n      pop\n      jump\t// out\n\n    auxdata: 0xa2646970667358221220700c05e945214aa15ef5e72f01ea007a475f0f386e714f497def63e2629c140b64736f6c63430008070033\n}\n",
				"bytecode": {
					"linkReferences": {},
					"object": "60806040526000600a553480156200001657600080fd5b5033600c60006101000a81548173ffffffffffffffffffffffffffffffffffffffff021916908373ffffffffffffffffffffffffffffffffffffffff160217905550736f8a7e2bbc1edb8782145cd1089251f6e2c738ae6000806101000a81548173ffffffffffffffffffffffffffffffffffffffff021916908373ffffffffffffffffffffffffffffffffffffffff160217905550620000bc6200011760201b60201c565b73874069fa1eb16d44d622f2e0ca25eea172369bc1600560006101000a81548173ffffffffffffffffffffffffffffffffffffffff021916908373ffffffffffffffffffffffffffffffffffffffff1602179055506200036a565b60008060009054906101000a900473ffffffffffffffffffffffffffffffffffffffff1673ffffffffffffffffffffffffffffffffffffffff16638c0adf62639ed884be60e01b6040518263ffffffff1660e01b81526004016200017c9190620002a6565b60206040518083038186803b1580156200019557600080fd5b505afa158015620001aa573d6000803e3d6000fd5b505050506040513d601f19601f82011682018060405250810190620001d0919062000263565b9050600073ffffffffffffffffffffffffffffffffffffffff168173ffffffffffffffffffffffffffffffffffffffff1614620002495780600260006101000a81548173ffffffffffffffffffffffffffffffffffffffff021916908373ffffffffffffffffffffffffffffffffffffffff1602179055505b50565b6000815190506200025d8162000350565b92915050565b6000602082840312156200027c576200027b6200034b565b5b60006200028c848285016200024c565b91505092915050565b620002a08162000337565b82525050565b6000602082019050620002bd600083018462000295565b92915050565b6000620002d08262000317565b9050919050565b60007fffffffff0000000000000000000000000000000000000000000000000000000082169050919050565b60006200031082620002c3565b9050919050565b600073ffffffffffffffffffffffffffffffffffffffff82169050919050565b60006200034482620002d7565b9050919050565b600080fd5b6200035b8162000303565b81146200036757600080fd5b50565b6129cb806200037a6000396000f3fe6080604052600436106100f35760003560e01c80637f28ee341161008a578063b1ddf38611610059578063b1ddf3861461032a578063b447b0a51461035b578063c8525f8114610386578063df3d4e32146103b1576100f3565b80637f28ee341461023e57806380ad10df1461027b578063893c4a84146102bb578063aea5da5b146102ec576100f3565b806335178e87116100c657806335178e871461018257806343d37940146101995780634f55ae54146101d65780634fc87f2414610213576100f3565b806309a61767146100f85780630fd19c15146101295780632986c0e51461014057806332eb658c1461016b575b600080fd5b610112600480360381019061010d9190611ef2565b6103dc565b6040516101209291906122a6565b60405180910390f35b34801561013557600080fd5b5061013e61095a565b005b34801561014c57600080fd5b50610155610a88565b604051610162919061228b565b60405180910390f35b34801561017757600080fd5b50610180610a8e565b005b34801561018e57600080fd5b50610197610bbc565b005b3480156101a557600080fd5b506101c060048036038101906101bb9190611ec5565b610cea565b6040516101cd919061219f565b60405180910390f35b3480156101e257600080fd5b506101fd60048036038101906101f89190611f72565b610d49565b60405161020a919061219f565b60405180910390f35b34801561021f57600080fd5b5061022861109a565b60405161023591906121f0565b60405180910390f35b34801561024a57600080fd5b5061026560048036038101906102609190611f1f565b6110be565b604051610272919061219f565b60405180910390f35b34801561028757600080fd5b506102a2600480360381019061029d9190611ec5565b611383565b6040516102b294939291906122cf565b60405180910390f35b6102d560048036038101906102d09190611ef2565b6113d3565b6040516102e3929190612314565b60405180910390f35b3480156102f857600080fd5b50610313600480360381019061030e9190611ec5565b611828565b604051610321929190612314565b60405180910390f35b610344600480360381019061033f9190611ef2565b61184c565b604051610352929190612314565b60405180910390f35b34801561036757600080fd5b50610370611cf9565b60405161037d91906121d5565b60405180910390f35b34801561039257600080fd5b5061039b611d1f565b6040516103a891906121d5565b60405180910390f35b3480156103bd57600080fd5b506103c6611d45565b6040516103d391906121d5565b60405180910390f35b600080600c60149054906101000a900460ff16156103f957600080fd5b6001600c60146101000a81548160ff021916908315150217905550343373ffffffffffffffffffffffffffffffffffffffff1631101561046e576040517f08c379a00000000000000000000000000000000000000000000000000000000081526004016104659061222b565b60405180910390fd5b600080610479611d6b565b809250819350505060008260016104909190612438565b3412156104d2576040517f08c379a00000000000000000000000000000000000000000000000000000000081526004016104c99061226b565b60405180910390fd5b600083346104e091906124d3565b9050600115156104ef33610cea565b151514156106ae5780600b60003373ffffffffffffffffffffffffffffffffffffffff1673ffffffffffffffffffffffffffffffffffffffff1681526020019081526020016000206001016000828254610549919061234e565b92505081905550600b60003373ffffffffffffffffffffffffffffffffffffffff1673ffffffffffffffffffffffffffffffffffffffff16815260200190815260200160002060020160008154809291906105a39061277e565b919050555034600460008973ffffffffffffffffffffffffffffffffffffffff1673ffffffffffffffffffffffffffffffffffffffff16815260200190815260200160002060000160008282546105fa91906123e2565b92505081905550600460008873ffffffffffffffffffffffffffffffffffffffff1673ffffffffffffffffffffffffffffffffffffffff1681526020019081526020016000206000015491508673ffffffffffffffffffffffffffffffffffffffff163373ffffffffffffffffffffffffffffffffffffffff167fadbbbbc8c9e65e88422d75c3d3cb93f41a5d520a2ca71c815348334de8c4912134426040516106a5929190612314565b60405180910390a35b600a60008154809291906106c19061277e565b9190505550600a54600b60003373ffffffffffffffffffffffffffffffffffffffff1673ffffffffffffffffffffffffffffffffffffffff1681526020019081526020016000206000018190555080600b60003373ffffffffffffffffffffffffffffffffffffffff1673ffffffffffffffffffffffffffffffffffffffff1681526020019081526020016000206001016000828254610761919061234e565b9250508190555033600b60003373ffffffffffffffffffffffffffffffffffffffff1673ffffffffffffffffffffffffffffffffffffffff16815260200190815260200160002060030160006101000a81548173ffffffffffffffffffffffffffffffffffffffff021916908373ffffffffffffffffffffffffffffffffffffffff1602179055506001600b60003373ffffffffffffffffffffffffffffffffffffffff1673ffffffffffffffffffffffffffffffffffffffff1681526020019081526020016000206002018190555034600460008973ffffffffffffffffffffffffffffffffffffffff1673ffffffffffffffffffffffffffffffffffffffff168152602001908152602001600020600001600082825461088391906123e2565b92505081905550600460008873ffffffffffffffffffffffffffffffffffffffff1673ffffffffffffffffffffffffffffffffffffffff1681526020019081526020016000206000015491508673ffffffffffffffffffffffffffffffffffffffff163373ffffffffffffffffffffffffffffffffffffffff167fadbbbbc8c9e65e88422d75c3d3cb93f41a5d520a2ca71c815348334de8c49121344260405161092e929190612314565b60405180910390a3505050506000600c60146101000a81548160ff021916908315150217905550915091565b60008060009054906101000a900473ffffffffffffffffffffffffffffffffffffffff1673ffffffffffffffffffffffffffffffffffffffff16638c0adf62633d15f70160e01b6040518263ffffffff1660e01b81526004016109bd91906121ba565b60206040518083038186803b1580156109d557600080fd5b505afa1580156109e9573d6000803e3d6000fd5b505050506040513d601f19601f82011682018060405250810190610a0d9190611fdf565b9050600073ffffffffffffffffffffffffffffffffffffffff168173ffffffffffffffffffffffffffffffffffffffff1614610a855780600360006101000a81548173ffffffffffffffffffffffffffffffffffffffff021916908373ffffffffffffffffffffffffffffffffffffffff1602179055505b50565b600a5481565b60008060009054906101000a900473ffffffffffffffffffffffffffffffffffffffff1673ffffffffffffffffffffffffffffffffffffffff16638c0adf62639ed884be60e01b6040518263ffffffff1660e01b8152600401610af191906121ba565b60206040518083038186803b158015610b0957600080fd5b505afa158015610b1d573d6000803e3d6000fd5b505050506040513d601f19601f82011682018060405250810190610b419190611fdf565b9050600073ffffffffffffffffffffffffffffffffffffffff168173ffffffffffffffffffffffffffffffffffffffff1614610bb95780600260006101000a81548173ffffffffffffffffffffffffffffffffffffffff021916908373ffffffffffffffffffffffffffffffffffffffff1602179055505b50565b60008060009054906101000a900473ffffffffffffffffffffffffffffffffffffffff1673ffffffffffffffffffffffffffffffffffffffff16638c0adf626321a7982160e01b6040518263ffffffff1660e01b8152600401610c1f91906121ba565b60206040518083038186803b158015610c3757600080fd5b505afa158015610c4b573d6000803e3d6000fd5b505050506040513d601f19601f82011682018060405250810190610c6f9190611fdf565b9050600073ffffffffffffffffffffffffffffffffffffffff168173ffffffffffffffffffffffffffffffffffffffff1614610ce75780600160006101000a81548173ffffffffffffffffffffffffffffffffffffffff021916908373ffffffffffffffffffffffffffffffffffffffff1602179055505b50565b600080600b60008473ffffffffffffffffffffffffffffffffffffffff1673ffffffffffffffffffffffffffffffffffffffff168152602001908152602001600020600001541115610d3f5760019050610d44565b600090505b919050565b6000600c60149054906101000a900460ff1615610d6557600080fd5b6001600c60146101000a81548160ff021916908315150217905550813373ffffffffffffffffffffffffffffffffffffffff16311015610dda576040517f08c379a0000000000000000000000000000000000000000000000000000000008152600401610dd19061222b565b60405180910390fd5b6001821015610e1e576040517f08c379a0000000000000000000000000000000000000000000000000000000008152600401610e159061220b565b60405180910390fd5b600a6000815480929190610e319061277e565b9190505550600080610e41611d6b565b915091508184610e5191906124d3565b600b60003373ffffffffffffffffffffffffffffffffffffffff1673ffffffffffffffffffffffffffffffffffffffff1681526020019081526020016000206001016000828254610ea2919061234e565b92505081905550600b60003373ffffffffffffffffffffffffffffffffffffffff1673ffffffffffffffffffffffffffffffffffffffff1681526020019081526020016000206002016000815480929190610efc9061277e565b9190505550600560009054906101000a900473ffffffffffffffffffffffffffffffffffffffff1673ffffffffffffffffffffffffffffffffffffffff166323b872dd3330876040518463ffffffff1660e01b8152600401610f6093929190612168565b602060405180830381600087803b158015610f7a57600080fd5b505af1158015610f8e573d6000803e3d6000fd5b505050506040513d601f19601f82011682018060405250810190610fb29190611fb2565b5083600460008773ffffffffffffffffffffffffffffffffffffffff1673ffffffffffffffffffffffffffffffffffffffff168152602001908152602001600020600101600082825461100591906123e2565b925050819055508473ffffffffffffffffffffffffffffffffffffffff163373ffffffffffffffffffffffffffffffffffffffff167fadbbbbc8c9e65e88422d75c3d3cb93f41a5d520a2ca71c815348334de8c49121864260405161106b929190612314565b60405180910390a36001925050506000600c60146101000a81548160ff02191690831515021790555092915050565b60008054906101000a900473ffffffffffffffffffffffffffffffffffffffff1681565b6000600c60009054906101000a900473ffffffffffffffffffffffffffffffffffffffff1673ffffffffffffffffffffffffffffffffffffffff163373ffffffffffffffffffffffffffffffffffffffff161461111a57600080fd5b600c60149054906101000a900460ff161561113457600080fd5b6001600c60146101000a81548160ff02191690831515021790555060008061115a611d6b565b8092508193505050600a60008154809291906111759061277e565b9190505550600a54600b60008873ffffffffffffffffffffffffffffffffffffffff1673ffffffffffffffffffffffffffffffffffffffff1681526020019081526020016000206000018190555081846111cf91906124d3565b600b60008873ffffffffffffffffffffffffffffffffffffffff1673ffffffffffffffffffffffffffffffffffffffff1681526020019081526020016000206001016000828254611220919061234e565b9250508190555085600b60008873ffffffffffffffffffffffffffffffffffffffff1673ffffffffffffffffffffffffffffffffffffffff16815260200190815260200160002060030160006101000a81548173ffffffffffffffffffffffffffffffffffffffff021916908373ffffffffffffffffffffffffffffffffffffffff1602179055506001600b60008873ffffffffffffffffffffffffffffffffffffffff1673ffffffffffffffffffffffffffffffffffffffff16815260200190815260200160002060020160008282546112fb91906123e2565b9250508190555083600460008773ffffffffffffffffffffffffffffffffffffffff1673ffffffffffffffffffffffffffffffffffffffff168152602001908152602001600020600101600082825461135491906123e2565b925050819055506001925050506000600c60146101000a81548160ff0219169083151502179055509392505050565b600b6020528060005260406000206000915090508060000154908060010154908060020154908060030160009054906101000a900473ffffffffffffffffffffffffffffffffffffffff16905084565b600080600c60149054906101000a900460ff16156113f057600080fd5b6001600c60146101000a81548160ff02191690831515021790555034600460008573ffffffffffffffffffffffffffffffffffffffff1673ffffffffffffffffffffffffffffffffffffffff168152602001908152602001600020600001541015611490576040517f08c379a00000000000000000000000000000000000000000000000000000000081526004016114879061224b565b60405180910390fd5b60008061149b611d6b565b915091506000600c83600460008973ffffffffffffffffffffffffffffffffffffffff1673ffffffffffffffffffffffffffffffffffffffff168152602001908152602001600020600101546114f191906124a2565b600460008973ffffffffffffffffffffffffffffffffffffffff1673ffffffffffffffffffffffffffffffffffffffff1681526020019081526020016000206000015461153e91906123e2565b61154891906124a2565b90508573ffffffffffffffffffffffffffffffffffffffff166108fc829081150290604051600060405180830381858888f19350505050158015611590573d6000803e3d6000fd5b506000600460008873ffffffffffffffffffffffffffffffffffffffff1673ffffffffffffffffffffffffffffffffffffffff16815260200190815260200160002060000154141561163a5780600460008873ffffffffffffffffffffffffffffffffffffffff1673ffffffffffffffffffffffffffffffffffffffff168152602001908152602001600020600101600082825461162e9190612644565b925050819055506117af565b6000600460008873ffffffffffffffffffffffffffffffffffffffff1673ffffffffffffffffffffffffffffffffffffffff1681526020019081526020016000206001015414156116e35780600460008873ffffffffffffffffffffffffffffffffffffffff1673ffffffffffffffffffffffffffffffffffffffff16815260200190815260200160002060000160008282546116d79190612644565b925050819055506117ae565b6002816116f091906124a2565b600460008873ffffffffffffffffffffffffffffffffffffffff1673ffffffffffffffffffffffffffffffffffffffff16815260200190815260200160002060000160008282546117419190612644565b9250508190555060028161175591906124a2565b600460008873ffffffffffffffffffffffffffffffffffffffff1673ffffffffffffffffffffffffffffffffffffffff16815260200190815260200160002060010160008282546117a69190612644565b925050819055505b5b8573ffffffffffffffffffffffffffffffffffffffff167f9cd516bc314ca50bb8f1f5602d3f202cdcbf17b89da33dd13c3909d5d3c00a3282426040516117f7929190612314565b60405180910390a28042945094505050506000600c60146101000a81548160ff021916908315150217905550915091565b60046020528060005260406000206000915090508060000154908060010154905082565b600080600c60149054906101000a900460ff161561186957600080fd5b6001600c60146101000a81548160ff02191690831515021790555060008061188f611d6b565b915091506000600c600460008873ffffffffffffffffffffffffffffffffffffffff1673ffffffffffffffffffffffffffffffffffffffff1681526020019081526020016000206001015484600460008a73ffffffffffffffffffffffffffffffffffffffff1673ffffffffffffffffffffffffffffffffffffffff1681526020019081526020016000206000015461192891906125ea565b61193291906123e2565b61193c91906124a2565b905080600460008873ffffffffffffffffffffffffffffffffffffffff1673ffffffffffffffffffffffffffffffffffffffff16815260200190815260200160002060010154116119c2576040517f08c379a00000000000000000000000000000000000000000000000000000000081526004016119b99061224b565b60405180910390fd5b8573ffffffffffffffffffffffffffffffffffffffff166108fc829081150290604051600060405180830381858888f19350505050158015611a08573d6000803e3d6000fd5b506000600460008873ffffffffffffffffffffffffffffffffffffffff1673ffffffffffffffffffffffffffffffffffffffff168152602001908152602001600020600001541415611ab25780600460008873ffffffffffffffffffffffffffffffffffffffff1673ffffffffffffffffffffffffffffffffffffffff1681526020019081526020016000206001016000828254611aa69190612644565b92505081905550611c27565b6000600460008873ffffffffffffffffffffffffffffffffffffffff1673ffffffffffffffffffffffffffffffffffffffff168152602001908152602001600020600101541415611b5b5780600460008873ffffffffffffffffffffffffffffffffffffffff1673ffffffffffffffffffffffffffffffffffffffff1681526020019081526020016000206000016000828254611b4f9190612644565b92505081905550611c26565b600281611b6891906124a2565b600460008873ffffffffffffffffffffffffffffffffffffffff1673ffffffffffffffffffffffffffffffffffffffff1681526020019081526020016000206000016000828254611bb99190612644565b92505081905550600281611bcd91906124a2565b600460008873ffffffffffffffffffffffffffffffffffffffff1673ffffffffffffffffffffffffffffffffffffffff1681526020019081526020016000206001016000828254611c1e9190612644565b925050819055505b5b80600460008873ffffffffffffffffffffffffffffffffffffffff1673ffffffffffffffffffffffffffffffffffffffff1681526020019081526020016000206000016000828254611c799190612644565b925050819055508573ffffffffffffffffffffffffffffffffffffffff167f9cd516bc314ca50bb8f1f5602d3f202cdcbf17b89da33dd13c3909d5d3c00a328242604051611cc8929190612314565b60405180910390a28042945094505050506000600c60146101000a81548160ff021916908315150217905550915091565b600360009054906101000a900473ffffffffffffffffffffffffffffffffffffffff1681565b600160009054906101000a900473ffffffffffffffffffffffffffffffffffffffff1681565b600260009054906101000a900473ffffffffffffffffffffffffffffffffffffffff1681565b600080600260009054906101000a900473ffffffffffffffffffffffffffffffffffffffff1673ffffffffffffffffffffffffffffffffffffffff1663431838346040518163ffffffff1660e01b815260040160806040518083038186803b158015611dd657600080fd5b505afa158015611dea573d6000803e3d6000fd5b505050506040513d601f19601f82011682018060405250810190611e0e919061200c565b90505080925081935050509091565b600081359050611e2c816128f4565b92915050565b600081359050611e418161290b565b92915050565b600081519050611e5681612922565b92915050565b600081519050611e6b81612939565b92915050565b600081519050611e8081612950565b92915050565b600081519050611e9581612967565b92915050565b600081359050611eaa8161297e565b92915050565b600081519050611ebf8161297e565b92915050565b600060208284031215611edb57611eda612825565b5b6000611ee984828501611e1d565b91505092915050565b600060208284031215611f0857611f07612825565b5b6000611f1684828501611e32565b91505092915050565b600080600060608486031215611f3857611f37612825565b5b6000611f4686828701611e1d565b9350506020611f5786828701611e1d565b9250506040611f6886828701611e9b565b9150509250925092565b60008060408385031215611f8957611f88612825565b5b6000611f9785828601611e1d565b9250506020611fa885828601611e9b565b9150509250929050565b600060208284031215611fc857611fc7612825565b5b6000611fd684828501611e47565b91505092915050565b600060208284031215611ff557611ff4612825565b5b600061200384828501611e71565b91505092915050565b6000806000806080858703121561202657612025612825565b5b600061203487828801611e86565b945050602061204587828801611eb0565b935050604061205687828801611e5c565b925050606061206787828801611eb0565b91505092959194509250565b61207c81612678565b82525050565b61208b8161269c565b82525050565b61209a81612724565b82525050565b6120a981612736565b82525050565b6120b881612748565b82525050565b6120c7816126f0565b82525050565b60006120da601b8361233d565b91506120e58261282a565b602082019050919050565b60006120fd601e8361233d565b915061210882612853565b602082019050919050565b6000612120600f8361233d565b915061212b8261287c565b602082019050919050565b600061214360218361233d565b915061214e826128a5565b604082019050919050565b6121628161271a565b82525050565b600060608201905061217d6000830186612073565b61218a6020830185612073565b6121976040830184612159565b949350505050565b60006020820190506121b46000830184612082565b92915050565b60006020820190506121cf6000830184612091565b92915050565b60006020820190506121ea60008301846120a0565b92915050565b600060208201905061220560008301846120af565b92915050565b60006020820190508181036000830152612224816120cd565b9050919050565b60006020820190508181036000830152612244816120f0565b9050919050565b6000602082019050818103600083015261226481612113565b9050919050565b6000602082019050818103600083015261228481612136565b9050919050565b60006020820190506122a06000830184612159565b92915050565b60006040820190506122bb6000830185612159565b6122c860208301846120be565b9392505050565b60006080820190506122e46000830187612159565b6122f160208301866120be565b6122fe6040830185612159565b61230b6060830184612073565b95945050505050565b60006040820190506123296000830185612159565b6123366020830184612159565b9392505050565b600082825260208201905092915050565b6000612359826126f0565b9150612364836126f0565b9250817f7fffffffffffffffffffffffffffffffffffffffffffffffffffffffffffffff0383136000831215161561239f5761239e6127c7565b5b817f80000000000000000000000000000000000000000000000000000000000000000383126000831216156123d7576123d66127c7565b5b828201905092915050565b60006123ed8261271a565b91506123f88361271a565b9250827fffffffffffffffffffffffffffffffffffffffffffffffffffffffffffffffff0382111561242d5761242c6127c7565b5b828201905092915050565b6000612443826126f0565b915061244e836126f0565b92508261245e5761245d6127f6565b5b600160000383147f800000000000000000000000000000000000000000000000000000000000000083141615612497576124966127c7565b5b828205905092915050565b60006124ad8261271a565b91506124b88361271a565b9250826124c8576124c76127f6565b5b828204905092915050565b60006124de826126f0565b91506124e9836126f0565b9250827f7fffffffffffffffffffffffffffffffffffffffffffffffffffffffffffffff0482116000841360008413161615612528576125276127c7565b5b817f80000000000000000000000000000000000000000000000000000000000000000583126000841260008413161615612565576125646127c7565b5b827f800000000000000000000000000000000000000000000000000000000000000005821260008413600084121616156125a2576125a16127c7565b5b827f7fffffffffffffffffffffffffffffffffffffffffffffffffffffffffffffff05821260008412600084121616156125df576125de6127c7565b5b828202905092915050565b60006125f58261271a565b91506126008361271a565b9250817fffffffffffffffffffffffffffffffffffffffffffffffffffffffffffffffff0483118215151615612639576126386127c7565b5b828202905092915050565b600061264f8261271a565b915061265a8361271a565b92508282101561266d5761266c6127c7565b5b828203905092915050565b6000612683826126fa565b9050919050565b6000612695826126fa565b9050919050565b60008115159050919050565b6000819050919050565b60007fffffffff0000000000000000000000000000000000000000000000000000000082169050919050565b60006126e982612678565b9050919050565b6000819050919050565b600073ffffffffffffffffffffffffffffffffffffffff82169050919050565b6000819050919050565b600061272f826126b2565b9050919050565b60006127418261275a565b9050919050565b60006127538261275a565b9050919050565b60006127658261276c565b9050919050565b6000612777826126fa565b9050919050565b60006127898261271a565b91507fffffffffffffffffffffffffffffffffffffffffffffffffffffffffffffffff8214156127bc576127bb6127c7565b5b600182019050919050565b7f4e487b7100000000000000000000000000000000000000000000000000000000600052601160045260246000fd5b7f4e487b7100000000000000000000000000000000000000000000000000000000600052601260045260246000fd5b600080fd5b7f5468616e6b7320746f206465706f736974206d6f726520637573640000000000600082015250565b7f796f75722062616c616e6365206973206e6f742073756666696369656e740000600082015250565b7f6e6f742073756666696369656e74200000000000000000000000000000000000600082015250565b7f706c656173652073656e642063656c6f20616d6f756e74203e3d20323020555360008201527f4400000000000000000000000000000000000000000000000000000000000000602082015250565b6128fd81612678565b811461290857600080fd5b50565b6129148161268a565b811461291f57600080fd5b50565b61292b8161269c565b811461293657600080fd5b50565b612942816126a8565b811461294d57600080fd5b50565b612959816126de565b811461296457600080fd5b50565b612970816126f0565b811461297b57600080fd5b50565b6129878161271a565b811461299257600080fd5b5056fea2646970667358221220700c05e945214aa15ef5e72f01ea007a475f0f386e714f497def63e2629c140b64736f6c63430008070033",
					"opcodes": "PUSH1 0x80 PUSH1 0x40 MSTORE PUSH1 0x0 PUSH1 0xA SSTORE CALLVALUE DUP1 ISZERO PUSH3 0x16 JUMPI PUSH1 0x0 DUP1 REVERT JUMPDEST POP CALLER PUSH1 0xC PUSH1 0x0 PUSH2 0x100 EXP DUP2 SLOAD DUP2 PUSH20 0xFFFFFFFFFFFFFFFFFFFFFFFFFFFFFFFFFFFFFFFF MUL NOT AND SWAP1 DUP4 PUSH20 0xFFFFFFFFFFFFFFFFFFFFFFFFFFFFFFFFFFFFFFFF AND MUL OR SWAP1 SSTORE POP PUSH20 0x6F8A7E2BBC1EDB8782145CD1089251F6E2C738AE PUSH1 0x0 DUP1 PUSH2 0x100 EXP DUP2 SLOAD DUP2 PUSH20 0xFFFFFFFFFFFFFFFFFFFFFFFFFFFFFFFFFFFFFFFF MUL NOT AND SWAP1 DUP4 PUSH20 0xFFFFFFFFFFFFFFFFFFFFFFFFFFFFFFFFFFFFFFFF AND MUL OR SWAP1 SSTORE POP PUSH3 0xBC PUSH3 0x117 PUSH1 0x20 SHL PUSH1 0x20 SHR JUMP JUMPDEST PUSH20 0x874069FA1EB16D44D622F2E0CA25EEA172369BC1 PUSH1 0x5 PUSH1 0x0 PUSH2 0x100 EXP DUP2 SLOAD DUP2 PUSH20 0xFFFFFFFFFFFFFFFFFFFFFFFFFFFFFFFFFFFFFFFF MUL NOT AND SWAP1 DUP4 PUSH20 0xFFFFFFFFFFFFFFFFFFFFFFFFFFFFFFFFFFFFFFFF AND MUL OR SWAP1 SSTORE POP PUSH3 0x36A JUMP JUMPDEST PUSH1 0x0 DUP1 PUSH1 0x0 SWAP1 SLOAD SWAP1 PUSH2 0x100 EXP SWAP1 DIV PUSH20 0xFFFFFFFFFFFFFFFFFFFFFFFFFFFFFFFFFFFFFFFF AND PUSH20 0xFFFFFFFFFFFFFFFFFFFFFFFFFFFFFFFFFFFFFFFF AND PUSH4 0x8C0ADF62 PUSH4 0x9ED884BE PUSH1 0xE0 SHL PUSH1 0x40 MLOAD DUP3 PUSH4 0xFFFFFFFF AND PUSH1 0xE0 SHL DUP2 MSTORE PUSH1 0x4 ADD PUSH3 0x17C SWAP2 SWAP1 PUSH3 0x2A6 JUMP JUMPDEST PUSH1 0x20 PUSH1 0x40 MLOAD DUP1 DUP4 SUB DUP2 DUP7 DUP1 EXTCODESIZE ISZERO DUP1 ISZERO PUSH3 0x195 JUMPI PUSH1 0x0 DUP1 REVERT JUMPDEST POP GAS STATICCALL ISZERO DUP1 ISZERO PUSH3 0x1AA JUMPI RETURNDATASIZE PUSH1 0x0 DUP1 RETURNDATACOPY RETURNDATASIZE PUSH1 0x0 REVERT JUMPDEST POP POP POP POP PUSH1 0x40 MLOAD RETURNDATASIZE PUSH1 0x1F NOT PUSH1 0x1F DUP3 ADD AND DUP3 ADD DUP1 PUSH1 0x40 MSTORE POP DUP2 ADD SWAP1 PUSH3 0x1D0 SWAP2 SWAP1 PUSH3 0x263 JUMP JUMPDEST SWAP1 POP PUSH1 0x0 PUSH20 0xFFFFFFFFFFFFFFFFFFFFFFFFFFFFFFFFFFFFFFFF AND DUP2 PUSH20 0xFFFFFFFFFFFFFFFFFFFFFFFFFFFFFFFFFFFFFFFF AND EQ PUSH3 0x249 JUMPI DUP1 PUSH1 0x2 PUSH1 0x0 PUSH2 0x100 EXP DUP2 SLOAD DUP2 PUSH20 0xFFFFFFFFFFFFFFFFFFFFFFFFFFFFFFFFFFFFFFFF MUL NOT AND SWAP1 DUP4 PUSH20 0xFFFFFFFFFFFFFFFFFFFFFFFFFFFFFFFFFFFFFFFF AND MUL OR SWAP1 SSTORE POP JUMPDEST POP JUMP JUMPDEST PUSH1 0x0 DUP2 MLOAD SWAP1 POP PUSH3 0x25D DUP2 PUSH3 0x350 JUMP JUMPDEST SWAP3 SWAP2 POP POP JUMP JUMPDEST PUSH1 0x0 PUSH1 0x20 DUP3 DUP5 SUB SLT ISZERO PUSH3 0x27C JUMPI PUSH3 0x27B PUSH3 0x34B JUMP JUMPDEST JUMPDEST PUSH1 0x0 PUSH3 0x28C DUP5 DUP3 DUP6 ADD PUSH3 0x24C JUMP JUMPDEST SWAP2 POP POP SWAP3 SWAP2 POP POP JUMP JUMPDEST PUSH3 0x2A0 DUP2 PUSH3 0x337 JUMP JUMPDEST DUP3 MSTORE POP POP JUMP JUMPDEST PUSH1 0x0 PUSH1 0x20 DUP3 ADD SWAP1 POP PUSH3 0x2BD PUSH1 0x0 DUP4 ADD DUP5 PUSH3 0x295 JUMP JUMPDEST SWAP3 SWAP2 POP POP JUMP JUMPDEST PUSH1 0x0 PUSH3 0x2D0 DUP3 PUSH3 0x317 JUMP JUMPDEST SWAP1 POP SWAP2 SWAP1 POP JUMP JUMPDEST PUSH1 0x0 PUSH32 0xFFFFFFFF00000000000000000000000000000000000000000000000000000000 DUP3 AND SWAP1 POP SWAP2 SWAP1 POP JUMP JUMPDEST PUSH1 0x0 PUSH3 0x310 DUP3 PUSH3 0x2C3 JUMP JUMPDEST SWAP1 POP SWAP2 SWAP1 POP JUMP JUMPDEST PUSH1 0x0 PUSH20 0xFFFFFFFFFFFFFFFFFFFFFFFFFFFFFFFFFFFFFFFF DUP3 AND SWAP1 POP SWAP2 SWAP1 POP JUMP JUMPDEST PUSH1 0x0 PUSH3 0x344 DUP3 PUSH3 0x2D7 JUMP JUMPDEST SWAP1 POP SWAP2 SWAP1 POP JUMP JUMPDEST PUSH1 0x0 DUP1 REVERT JUMPDEST PUSH3 0x35B DUP2 PUSH3 0x303 JUMP JUMPDEST DUP2 EQ PUSH3 0x367 JUMPI PUSH1 0x0 DUP1 REVERT JUMPDEST POP JUMP JUMPDEST PUSH2 0x29CB DUP1 PUSH3 0x37A PUSH1 0x0 CODECOPY PUSH1 0x0 RETURN INVALID PUSH1 0x80 PUSH1 0x40 MSTORE PUSH1 0x4 CALLDATASIZE LT PUSH2 0xF3 JUMPI PUSH1 0x0 CALLDATALOAD PUSH1 0xE0 SHR DUP1 PUSH4 0x7F28EE34 GT PUSH2 0x8A JUMPI DUP1 PUSH4 0xB1DDF386 GT PUSH2 0x59 JUMPI DUP1 PUSH4 0xB1DDF386 EQ PUSH2 0x32A JUMPI DUP1 PUSH4 0xB447B0A5 EQ PUSH2 0x35B JUMPI DUP1 PUSH4 0xC8525F81 EQ PUSH2 0x386 JUMPI DUP1 PUSH4 0xDF3D4E32 EQ PUSH2 0x3B1 JUMPI PUSH2 0xF3 JUMP JUMPDEST DUP1 PUSH4 0x7F28EE34 EQ PUSH2 0x23E JUMPI DUP1 PUSH4 0x80AD10DF EQ PUSH2 0x27B JUMPI DUP1 PUSH4 0x893C4A84 EQ PUSH2 0x2BB JUMPI DUP1 PUSH4 0xAEA5DA5B EQ PUSH2 0x2EC JUMPI PUSH2 0xF3 JUMP JUMPDEST DUP1 PUSH4 0x35178E87 GT PUSH2 0xC6 JUMPI DUP1 PUSH4 0x35178E87 EQ PUSH2 0x182 JUMPI DUP1 PUSH4 0x43D37940 EQ PUSH2 0x199 JUMPI DUP1 PUSH4 0x4F55AE54 EQ PUSH2 0x1D6 JUMPI DUP1 PUSH4 0x4FC87F24 EQ PUSH2 0x213 JUMPI PUSH2 0xF3 JUMP JUMPDEST DUP1 PUSH4 0x9A61767 EQ PUSH2 0xF8 JUMPI DUP1 PUSH4 0xFD19C15 EQ PUSH2 0x129 JUMPI DUP1 PUSH4 0x2986C0E5 EQ PUSH2 0x140 JUMPI DUP1 PUSH4 0x32EB658C EQ PUSH2 0x16B JUMPI JUMPDEST PUSH1 0x0 DUP1 REVERT JUMPDEST PUSH2 0x112 PUSH1 0x4 DUP1 CALLDATASIZE SUB DUP2 ADD SWAP1 PUSH2 0x10D SWAP2 SWAP1 PUSH2 0x1EF2 JUMP JUMPDEST PUSH2 0x3DC JUMP JUMPDEST PUSH1 0x40 MLOAD PUSH2 0x120 SWAP3 SWAP2 SWAP1 PUSH2 0x22A6 JUMP JUMPDEST PUSH1 0x40 MLOAD DUP1 SWAP2 SUB SWAP1 RETURN JUMPDEST CALLVALUE DUP1 ISZERO PUSH2 0x135 JUMPI PUSH1 0x0 DUP1 REVERT JUMPDEST POP PUSH2 0x13E PUSH2 0x95A JUMP JUMPDEST STOP JUMPDEST CALLVALUE DUP1 ISZERO PUSH2 0x14C JUMPI PUSH1 0x0 DUP1 REVERT JUMPDEST POP PUSH2 0x155 PUSH2 0xA88 JUMP JUMPDEST PUSH1 0x40 MLOAD PUSH2 0x162 SWAP2 SWAP1 PUSH2 0x228B JUMP JUMPDEST PUSH1 0x40 MLOAD DUP1 SWAP2 SUB SWAP1 RETURN JUMPDEST CALLVALUE DUP1 ISZERO PUSH2 0x177 JUMPI PUSH1 0x0 DUP1 REVERT JUMPDEST POP PUSH2 0x180 PUSH2 0xA8E JUMP JUMPDEST STOP JUMPDEST CALLVALUE DUP1 ISZERO PUSH2 0x18E JUMPI PUSH1 0x0 DUP1 REVERT JUMPDEST POP PUSH2 0x197 PUSH2 0xBBC JUMP JUMPDEST STOP JUMPDEST CALLVALUE DUP1 ISZERO PUSH2 0x1A5 JUMPI PUSH1 0x0 DUP1 REVERT JUMPDEST POP PUSH2 0x1C0 PUSH1 0x4 DUP1 CALLDATASIZE SUB DUP2 ADD SWAP1 PUSH2 0x1BB SWAP2 SWAP1 PUSH2 0x1EC5 JUMP JUMPDEST PUSH2 0xCEA JUMP JUMPDEST PUSH1 0x40 MLOAD PUSH2 0x1CD SWAP2 SWAP1 PUSH2 0x219F JUMP JUMPDEST PUSH1 0x40 MLOAD DUP1 SWAP2 SUB SWAP1 RETURN JUMPDEST CALLVALUE DUP1 ISZERO PUSH2 0x1E2 JUMPI PUSH1 0x0 DUP1 REVERT JUMPDEST POP PUSH2 0x1FD PUSH1 0x4 DUP1 CALLDATASIZE SUB DUP2 ADD SWAP1 PUSH2 0x1F8 SWAP2 SWAP1 PUSH2 0x1F72 JUMP JUMPDEST PUSH2 0xD49 JUMP JUMPDEST PUSH1 0x40 MLOAD PUSH2 0x20A SWAP2 SWAP1 PUSH2 0x219F JUMP JUMPDEST PUSH1 0x40 MLOAD DUP1 SWAP2 SUB SWAP1 RETURN JUMPDEST CALLVALUE DUP1 ISZERO PUSH2 0x21F JUMPI PUSH1 0x0 DUP1 REVERT JUMPDEST POP PUSH2 0x228 PUSH2 0x109A JUMP JUMPDEST PUSH1 0x40 MLOAD PUSH2 0x235 SWAP2 SWAP1 PUSH2 0x21F0 JUMP JUMPDEST PUSH1 0x40 MLOAD DUP1 SWAP2 SUB SWAP1 RETURN JUMPDEST CALLVALUE DUP1 ISZERO PUSH2 0x24A JUMPI PUSH1 0x0 DUP1 REVERT JUMPDEST POP PUSH2 0x265 PUSH1 0x4 DUP1 CALLDATASIZE SUB DUP2 ADD SWAP1 PUSH2 0x260 SWAP2 SWAP1 PUSH2 0x1F1F JUMP JUMPDEST PUSH2 0x10BE JUMP JUMPDEST PUSH1 0x40 MLOAD PUSH2 0x272 SWAP2 SWAP1 PUSH2 0x219F JUMP JUMPDEST PUSH1 0x40 MLOAD DUP1 SWAP2 SUB SWAP1 RETURN JUMPDEST CALLVALUE DUP1 ISZERO PUSH2 0x287 JUMPI PUSH1 0x0 DUP1 REVERT JUMPDEST POP PUSH2 0x2A2 PUSH1 0x4 DUP1 CALLDATASIZE SUB DUP2 ADD SWAP1 PUSH2 0x29D SWAP2 SWAP1 PUSH2 0x1EC5 JUMP JUMPDEST PUSH2 0x1383 JUMP JUMPDEST PUSH1 0x40 MLOAD PUSH2 0x2B2 SWAP5 SWAP4 SWAP3 SWAP2 SWAP1 PUSH2 0x22CF JUMP JUMPDEST PUSH1 0x40 MLOAD DUP1 SWAP2 SUB SWAP1 RETURN JUMPDEST PUSH2 0x2D5 PUSH1 0x4 DUP1 CALLDATASIZE SUB DUP2 ADD SWAP1 PUSH2 0x2D0 SWAP2 SWAP1 PUSH2 0x1EF2 JUMP JUMPDEST PUSH2 0x13D3 JUMP JUMPDEST PUSH1 0x40 MLOAD PUSH2 0x2E3 SWAP3 SWAP2 SWAP1 PUSH2 0x2314 JUMP JUMPDEST PUSH1 0x40 MLOAD DUP1 SWAP2 SUB SWAP1 RETURN JUMPDEST CALLVALUE DUP1 ISZERO PUSH2 0x2F8 JUMPI PUSH1 0x0 DUP1 REVERT JUMPDEST POP PUSH2 0x313 PUSH1 0x4 DUP1 CALLDATASIZE SUB DUP2 ADD SWAP1 PUSH2 0x30E SWAP2 SWAP1 PUSH2 0x1EC5 JUMP JUMPDEST PUSH2 0x1828 JUMP JUMPDEST PUSH1 0x40 MLOAD PUSH2 0x321 SWAP3 SWAP2 SWAP1 PUSH2 0x2314 JUMP JUMPDEST PUSH1 0x40 MLOAD DUP1 SWAP2 SUB SWAP1 RETURN JUMPDEST PUSH2 0x344 PUSH1 0x4 DUP1 CALLDATASIZE SUB DUP2 ADD SWAP1 PUSH2 0x33F SWAP2 SWAP1 PUSH2 0x1EF2 JUMP JUMPDEST PUSH2 0x184C JUMP JUMPDEST PUSH1 0x40 MLOAD PUSH2 0x352 SWAP3 SWAP2 SWAP1 PUSH2 0x2314 JUMP JUMPDEST PUSH1 0x40 MLOAD DUP1 SWAP2 SUB SWAP1 RETURN JUMPDEST CALLVALUE DUP1 ISZERO PUSH2 0x367 JUMPI PUSH1 0x0 DUP1 REVERT JUMPDEST POP PUSH2 0x370 PUSH2 0x1CF9 JUMP JUMPDEST PUSH1 0x40 MLOAD PUSH2 0x37D SWAP2 SWAP1 PUSH2 0x21D5 JUMP JUMPDEST PUSH1 0x40 MLOAD DUP1 SWAP2 SUB SWAP1 RETURN JUMPDEST CALLVALUE DUP1 ISZERO PUSH2 0x392 JUMPI PUSH1 0x0 DUP1 REVERT JUMPDEST POP PUSH2 0x39B PUSH2 0x1D1F JUMP JUMPDEST PUSH1 0x40 MLOAD PUSH2 0x3A8 SWAP2 SWAP1 PUSH2 0x21D5 JUMP JUMPDEST PUSH1 0x40 MLOAD DUP1 SWAP2 SUB SWAP1 RETURN JUMPDEST CALLVALUE DUP1 ISZERO PUSH2 0x3BD JUMPI PUSH1 0x0 DUP1 REVERT JUMPDEST POP PUSH2 0x3C6 PUSH2 0x1D45 JUMP JUMPDEST PUSH1 0x40 MLOAD PUSH2 0x3D3 SWAP2 SWAP1 PUSH2 0x21D5 JUMP JUMPDEST PUSH1 0x40 MLOAD DUP1 SWAP2 SUB SWAP1 RETURN JUMPDEST PUSH1 0x0 DUP1 PUSH1 0xC PUSH1 0x14 SWAP1 SLOAD SWAP1 PUSH2 0x100 EXP SWAP1 DIV PUSH1 0xFF AND ISZERO PUSH2 0x3F9 JUMPI PUSH1 0x0 DUP1 REVERT JUMPDEST PUSH1 0x1 PUSH1 0xC PUSH1 0x14 PUSH2 0x100 EXP DUP2 SLOAD DUP2 PUSH1 0xFF MUL NOT AND SWAP1 DUP4 ISZERO ISZERO MUL OR SWAP1 SSTORE POP CALLVALUE CALLER PUSH20 0xFFFFFFFFFFFFFFFFFFFFFFFFFFFFFFFFFFFFFFFF AND BALANCE LT ISZERO PUSH2 0x46E JUMPI PUSH1 0x40 MLOAD PUSH32 0x8C379A000000000000000000000000000000000000000000000000000000000 DUP2 MSTORE PUSH1 0x4 ADD PUSH2 0x465 SWAP1 PUSH2 0x222B JUMP JUMPDEST PUSH1 0x40 MLOAD DUP1 SWAP2 SUB SWAP1 REVERT JUMPDEST PUSH1 0x0 DUP1 PUSH2 0x479 PUSH2 0x1D6B JUMP JUMPDEST DUP1 SWAP3 POP DUP2 SWAP4 POP POP POP PUSH1 0x0 DUP3 PUSH1 0x1 PUSH2 0x490 SWAP2 SWAP1 PUSH2 0x2438 JUMP JUMPDEST CALLVALUE SLT ISZERO PUSH2 0x4D2 JUMPI PUSH1 0x40 MLOAD PUSH32 0x8C379A000000000000000000000000000000000000000000000000000000000 DUP2 MSTORE PUSH1 0x4 ADD PUSH2 0x4C9 SWAP1 PUSH2 0x226B JUMP JUMPDEST PUSH1 0x40 MLOAD DUP1 SWAP2 SUB SWAP1 REVERT JUMPDEST PUSH1 0x0 DUP4 CALLVALUE PUSH2 0x4E0 SWAP2 SWAP1 PUSH2 0x24D3 JUMP JUMPDEST SWAP1 POP PUSH1 0x1 ISZERO ISZERO PUSH2 0x4EF CALLER PUSH2 0xCEA JUMP JUMPDEST ISZERO ISZERO EQ ISZERO PUSH2 0x6AE JUMPI DUP1 PUSH1 0xB PUSH1 0x0 CALLER PUSH20 0xFFFFFFFFFFFFFFFFFFFFFFFFFFFFFFFFFFFFFFFF AND PUSH20 0xFFFFFFFFFFFFFFFFFFFFFFFFFFFFFFFFFFFFFFFF AND DUP2 MSTORE PUSH1 0x20 ADD SWAP1 DUP2 MSTORE PUSH1 0x20 ADD PUSH1 0x0 KECCAK256 PUSH1 0x1 ADD PUSH1 0x0 DUP3 DUP3 SLOAD PUSH2 0x549 SWAP2 SWAP1 PUSH2 0x234E JUMP JUMPDEST SWAP3 POP POP DUP2 SWAP1 SSTORE POP PUSH1 0xB PUSH1 0x0 CALLER PUSH20 0xFFFFFFFFFFFFFFFFFFFFFFFFFFFFFFFFFFFFFFFF AND PUSH20 0xFFFFFFFFFFFFFFFFFFFFFFFFFFFFFFFFFFFFFFFF AND DUP2 MSTORE PUSH1 0x20 ADD SWAP1 DUP2 MSTORE PUSH1 0x20 ADD PUSH1 0x0 KECCAK256 PUSH1 0x2 ADD PUSH1 0x0 DUP2 SLOAD DUP1 SWAP3 SWAP2 SWAP1 PUSH2 0x5A3 SWAP1 PUSH2 0x277E JUMP JUMPDEST SWAP2 SWAP1 POP SSTORE POP CALLVALUE PUSH1 0x4 PUSH1 0x0 DUP10 PUSH20 0xFFFFFFFFFFFFFFFFFFFFFFFFFFFFFFFFFFFFFFFF AND PUSH20 0xFFFFFFFFFFFFFFFFFFFFFFFFFFFFFFFFFFFFFFFF AND DUP2 MSTORE PUSH1 0x20 ADD SWAP1 DUP2 MSTORE PUSH1 0x20 ADD PUSH1 0x0 KECCAK256 PUSH1 0x0 ADD PUSH1 0x0 DUP3 DUP3 SLOAD PUSH2 0x5FA SWAP2 SWAP1 PUSH2 0x23E2 JUMP JUMPDEST SWAP3 POP POP DUP2 SWAP1 SSTORE POP PUSH1 0x4 PUSH1 0x0 DUP9 PUSH20 0xFFFFFFFFFFFFFFFFFFFFFFFFFFFFFFFFFFFFFFFF AND PUSH20 0xFFFFFFFFFFFFFFFFFFFFFFFFFFFFFFFFFFFFFFFF AND DUP2 MSTORE PUSH1 0x20 ADD SWAP1 DUP2 MSTORE PUSH1 0x20 ADD PUSH1 0x0 KECCAK256 PUSH1 0x0 ADD SLOAD SWAP2 POP DUP7 PUSH20 0xFFFFFFFFFFFFFFFFFFFFFFFFFFFFFFFFFFFFFFFF AND CALLER PUSH20 0xFFFFFFFFFFFFFFFFFFFFFFFFFFFFFFFFFFFFFFFF AND PUSH32 0xADBBBBC8C9E65E88422D75C3D3CB93F41A5D520A2CA71C815348334DE8C49121 CALLVALUE TIMESTAMP PUSH1 0x40 MLOAD PUSH2 0x6A5 SWAP3 SWAP2 SWAP1 PUSH2 0x2314 JUMP JUMPDEST PUSH1 0x40 MLOAD DUP1 SWAP2 SUB SWAP1 LOG3 JUMPDEST PUSH1 0xA PUSH1 0x0 DUP2 SLOAD DUP1 SWAP3 SWAP2 SWAP1 PUSH2 0x6C1 SWAP1 PUSH2 0x277E JUMP JUMPDEST SWAP2 SWAP1 POP SSTORE POP PUSH1 0xA SLOAD PUSH1 0xB PUSH1 0x0 CALLER PUSH20 0xFFFFFFFFFFFFFFFFFFFFFFFFFFFFFFFFFFFFFFFF AND PUSH20 0xFFFFFFFFFFFFFFFFFFFFFFFFFFFFFFFFFFFFFFFF AND DUP2 MSTORE PUSH1 0x20 ADD SWAP1 DUP2 MSTORE PUSH1 0x20 ADD PUSH1 0x0 KECCAK256 PUSH1 0x0 ADD DUP2 SWAP1 SSTORE POP DUP1 PUSH1 0xB PUSH1 0x0 CALLER PUSH20 0xFFFFFFFFFFFFFFFFFFFFFFFFFFFFFFFFFFFFFFFF AND PUSH20 0xFFFFFFFFFFFFFFFFFFFFFFFFFFFFFFFFFFFFFFFF AND DUP2 MSTORE PUSH1 0x20 ADD SWAP1 DUP2 MSTORE PUSH1 0x20 ADD PUSH1 0x0 KECCAK256 PUSH1 0x1 ADD PUSH1 0x0 DUP3 DUP3 SLOAD PUSH2 0x761 SWAP2 SWAP1 PUSH2 0x234E JUMP JUMPDEST SWAP3 POP POP DUP2 SWAP1 SSTORE POP CALLER PUSH1 0xB PUSH1 0x0 CALLER PUSH20 0xFFFFFFFFFFFFFFFFFFFFFFFFFFFFFFFFFFFFFFFF AND PUSH20 0xFFFFFFFFFFFFFFFFFFFFFFFFFFFFFFFFFFFFFFFF AND DUP2 MSTORE PUSH1 0x20 ADD SWAP1 DUP2 MSTORE PUSH1 0x20 ADD PUSH1 0x0 KECCAK256 PUSH1 0x3 ADD PUSH1 0x0 PUSH2 0x100 EXP DUP2 SLOAD DUP2 PUSH20 0xFFFFFFFFFFFFFFFFFFFFFFFFFFFFFFFFFFFFFFFF MUL NOT AND SWAP1 DUP4 PUSH20 0xFFFFFFFFFFFFFFFFFFFFFFFFFFFFFFFFFFFFFFFF AND MUL OR SWAP1 SSTORE POP PUSH1 0x1 PUSH1 0xB PUSH1 0x0 CALLER PUSH20 0xFFFFFFFFFFFFFFFFFFFFFFFFFFFFFFFFFFFFFFFF AND PUSH20 0xFFFFFFFFFFFFFFFFFFFFFFFFFFFFFFFFFFFFFFFF AND DUP2 MSTORE PUSH1 0x20 ADD SWAP1 DUP2 MSTORE PUSH1 0x20 ADD PUSH1 0x0 KECCAK256 PUSH1 0x2 ADD DUP2 SWAP1 SSTORE POP CALLVALUE PUSH1 0x4 PUSH1 0x0 DUP10 PUSH20 0xFFFFFFFFFFFFFFFFFFFFFFFFFFFFFFFFFFFFFFFF AND PUSH20 0xFFFFFFFFFFFFFFFFFFFFFFFFFFFFFFFFFFFFFFFF AND DUP2 MSTORE PUSH1 0x20 ADD SWAP1 DUP2 MSTORE PUSH1 0x20 ADD PUSH1 0x0 KECCAK256 PUSH1 0x0 ADD PUSH1 0x0 DUP3 DUP3 SLOAD PUSH2 0x883 SWAP2 SWAP1 PUSH2 0x23E2 JUMP JUMPDEST SWAP3 POP POP DUP2 SWAP1 SSTORE POP PUSH1 0x4 PUSH1 0x0 DUP9 PUSH20 0xFFFFFFFFFFFFFFFFFFFFFFFFFFFFFFFFFFFFFFFF AND PUSH20 0xFFFFFFFFFFFFFFFFFFFFFFFFFFFFFFFFFFFFFFFF AND DUP2 MSTORE PUSH1 0x20 ADD SWAP1 DUP2 MSTORE PUSH1 0x20 ADD PUSH1 0x0 KECCAK256 PUSH1 0x0 ADD SLOAD SWAP2 POP DUP7 PUSH20 0xFFFFFFFFFFFFFFFFFFFFFFFFFFFFFFFFFFFFFFFF AND CALLER PUSH20 0xFFFFFFFFFFFFFFFFFFFFFFFFFFFFFFFFFFFFFFFF AND PUSH32 0xADBBBBC8C9E65E88422D75C3D3CB93F41A5D520A2CA71C815348334DE8C49121 CALLVALUE TIMESTAMP PUSH1 0x40 MLOAD PUSH2 0x92E SWAP3 SWAP2 SWAP1 PUSH2 0x2314 JUMP JUMPDEST PUSH1 0x40 MLOAD DUP1 SWAP2 SUB SWAP1 LOG3 POP POP POP POP PUSH1 0x0 PUSH1 0xC PUSH1 0x14 PUSH2 0x100 EXP DUP2 SLOAD DUP2 PUSH1 0xFF MUL NOT AND SWAP1 DUP4 ISZERO ISZERO MUL OR SWAP1 SSTORE POP SWAP2 POP SWAP2 JUMP JUMPDEST PUSH1 0x0 DUP1 PUSH1 0x0 SWAP1 SLOAD SWAP1 PUSH2 0x100 EXP SWAP1 DIV PUSH20 0xFFFFFFFFFFFFFFFFFFFFFFFFFFFFFFFFFFFFFFFF AND PUSH20 0xFFFFFFFFFFFFFFFFFFFFFFFFFFFFFFFFFFFFFFFF AND PUSH4 0x8C0ADF62 PUSH4 0x3D15F701 PUSH1 0xE0 SHL PUSH1 0x40 MLOAD DUP3 PUSH4 0xFFFFFFFF AND PUSH1 0xE0 SHL DUP2 MSTORE PUSH1 0x4 ADD PUSH2 0x9BD SWAP2 SWAP1 PUSH2 0x21BA JUMP JUMPDEST PUSH1 0x20 PUSH1 0x40 MLOAD DUP1 DUP4 SUB DUP2 DUP7 DUP1 EXTCODESIZE ISZERO DUP1 ISZERO PUSH2 0x9D5 JUMPI PUSH1 0x0 DUP1 REVERT JUMPDEST POP GAS STATICCALL ISZERO DUP1 ISZERO PUSH2 0x9E9 JUMPI RETURNDATASIZE PUSH1 0x0 DUP1 RETURNDATACOPY RETURNDATASIZE PUSH1 0x0 REVERT JUMPDEST POP POP POP POP PUSH1 0x40 MLOAD RETURNDATASIZE PUSH1 0x1F NOT PUSH1 0x1F DUP3 ADD AND DUP3 ADD DUP1 PUSH1 0x40 MSTORE POP DUP2 ADD SWAP1 PUSH2 0xA0D SWAP2 SWAP1 PUSH2 0x1FDF JUMP JUMPDEST SWAP1 POP PUSH1 0x0 PUSH20 0xFFFFFFFFFFFFFFFFFFFFFFFFFFFFFFFFFFFFFFFF AND DUP2 PUSH20 0xFFFFFFFFFFFFFFFFFFFFFFFFFFFFFFFFFFFFFFFF AND EQ PUSH2 0xA85 JUMPI DUP1 PUSH1 0x3 PUSH1 0x0 PUSH2 0x100 EXP DUP2 SLOAD DUP2 PUSH20 0xFFFFFFFFFFFFFFFFFFFFFFFFFFFFFFFFFFFFFFFF MUL NOT AND SWAP1 DUP4 PUSH20 0xFFFFFFFFFFFFFFFFFFFFFFFFFFFFFFFFFFFFFFFF AND MUL OR SWAP1 SSTORE POP JUMPDEST POP JUMP JUMPDEST PUSH1 0xA SLOAD DUP2 JUMP JUMPDEST PUSH1 0x0 DUP1 PUSH1 0x0 SWAP1 SLOAD SWAP1 PUSH2 0x100 EXP SWAP1 DIV PUSH20 0xFFFFFFFFFFFFFFFFFFFFFFFFFFFFFFFFFFFFFFFF AND PUSH20 0xFFFFFFFFFFFFFFFFFFFFFFFFFFFFFFFFFFFFFFFF AND PUSH4 0x8C0ADF62 PUSH4 0x9ED884BE PUSH1 0xE0 SHL PUSH1 0x40 MLOAD DUP3 PUSH4 0xFFFFFFFF AND PUSH1 0xE0 SHL DUP2 MSTORE PUSH1 0x4 ADD PUSH2 0xAF1 SWAP2 SWAP1 PUSH2 0x21BA JUMP JUMPDEST PUSH1 0x20 PUSH1 0x40 MLOAD DUP1 DUP4 SUB DUP2 DUP7 DUP1 EXTCODESIZE ISZERO DUP1 ISZERO PUSH2 0xB09 JUMPI PUSH1 0x0 DUP1 REVERT JUMPDEST POP GAS STATICCALL ISZERO DUP1 ISZERO PUSH2 0xB1D JUMPI RETURNDATASIZE PUSH1 0x0 DUP1 RETURNDATACOPY RETURNDATASIZE PUSH1 0x0 REVERT JUMPDEST POP POP POP POP PUSH1 0x40 MLOAD RETURNDATASIZE PUSH1 0x1F NOT PUSH1 0x1F DUP3 ADD AND DUP3 ADD DUP1 PUSH1 0x40 MSTORE POP DUP2 ADD SWAP1 PUSH2 0xB41 SWAP2 SWAP1 PUSH2 0x1FDF JUMP JUMPDEST SWAP1 POP PUSH1 0x0 PUSH20 0xFFFFFFFFFFFFFFFFFFFFFFFFFFFFFFFFFFFFFFFF AND DUP2 PUSH20 0xFFFFFFFFFFFFFFFFFFFFFFFFFFFFFFFFFFFFFFFF AND EQ PUSH2 0xBB9 JUMPI DUP1 PUSH1 0x2 PUSH1 0x0 PUSH2 0x100 EXP DUP2 SLOAD DUP2 PUSH20 0xFFFFFFFFFFFFFFFFFFFFFFFFFFFFFFFFFFFFFFFF MUL NOT AND SWAP1 DUP4 PUSH20 0xFFFFFFFFFFFFFFFFFFFFFFFFFFFFFFFFFFFFFFFF AND MUL OR SWAP1 SSTORE POP JUMPDEST POP JUMP JUMPDEST PUSH1 0x0 DUP1 PUSH1 0x0 SWAP1 SLOAD SWAP1 PUSH2 0x100 EXP SWAP1 DIV PUSH20 0xFFFFFFFFFFFFFFFFFFFFFFFFFFFFFFFFFFFFFFFF AND PUSH20 0xFFFFFFFFFFFFFFFFFFFFFFFFFFFFFFFFFFFFFFFF AND PUSH4 0x8C0ADF62 PUSH4 0x21A79821 PUSH1 0xE0 SHL PUSH1 0x40 MLOAD DUP3 PUSH4 0xFFFFFFFF AND PUSH1 0xE0 SHL DUP2 MSTORE PUSH1 0x4 ADD PUSH2 0xC1F SWAP2 SWAP1 PUSH2 0x21BA JUMP JUMPDEST PUSH1 0x20 PUSH1 0x40 MLOAD DUP1 DUP4 SUB DUP2 DUP7 DUP1 EXTCODESIZE ISZERO DUP1 ISZERO PUSH2 0xC37 JUMPI PUSH1 0x0 DUP1 REVERT JUMPDEST POP GAS STATICCALL ISZERO DUP1 ISZERO PUSH2 0xC4B JUMPI RETURNDATASIZE PUSH1 0x0 DUP1 RETURNDATACOPY RETURNDATASIZE PUSH1 0x0 REVERT JUMPDEST POP POP POP POP PUSH1 0x40 MLOAD RETURNDATASIZE PUSH1 0x1F NOT PUSH1 0x1F DUP3 ADD AND DUP3 ADD DUP1 PUSH1 0x40 MSTORE POP DUP2 ADD SWAP1 PUSH2 0xC6F SWAP2 SWAP1 PUSH2 0x1FDF JUMP JUMPDEST SWAP1 POP PUSH1 0x0 PUSH20 0xFFFFFFFFFFFFFFFFFFFFFFFFFFFFFFFFFFFFFFFF AND DUP2 PUSH20 0xFFFFFFFFFFFFFFFFFFFFFFFFFFFFFFFFFFFFFFFF AND EQ PUSH2 0xCE7 JUMPI DUP1 PUSH1 0x1 PUSH1 0x0 PUSH2 0x100 EXP DUP2 SLOAD DUP2 PUSH20 0xFFFFFFFFFFFFFFFFFFFFFFFFFFFFFFFFFFFFFFFF MUL NOT AND SWAP1 DUP4 PUSH20 0xFFFFFFFFFFFFFFFFFFFFFFFFFFFFFFFFFFFFFFFF AND MUL OR SWAP1 SSTORE POP JUMPDEST POP JUMP JUMPDEST PUSH1 0x0 DUP1 PUSH1 0xB PUSH1 0x0 DUP5 PUSH20 0xFFFFFFFFFFFFFFFFFFFFFFFFFFFFFFFFFFFFFFFF AND PUSH20 0xFFFFFFFFFFFFFFFFFFFFFFFFFFFFFFFFFFFFFFFF AND DUP2 MSTORE PUSH1 0x20 ADD SWAP1 DUP2 MSTORE PUSH1 0x20 ADD PUSH1 0x0 KECCAK256 PUSH1 0x0 ADD SLOAD GT ISZERO PUSH2 0xD3F JUMPI PUSH1 0x1 SWAP1 POP PUSH2 0xD44 JUMP JUMPDEST PUSH1 0x0 SWAP1 POP JUMPDEST SWAP2 SWAP1 POP JUMP JUMPDEST PUSH1 0x0 PUSH1 0xC PUSH1 0x14 SWAP1 SLOAD SWAP1 PUSH2 0x100 EXP SWAP1 DIV PUSH1 0xFF AND ISZERO PUSH2 0xD65 JUMPI PUSH1 0x0 DUP1 REVERT JUMPDEST PUSH1 0x1 PUSH1 0xC PUSH1 0x14 PUSH2 0x100 EXP DUP2 SLOAD DUP2 PUSH1 0xFF MUL NOT AND SWAP1 DUP4 ISZERO ISZERO MUL OR SWAP1 SSTORE POP DUP2 CALLER PUSH20 0xFFFFFFFFFFFFFFFFFFFFFFFFFFFFFFFFFFFFFFFF AND BALANCE LT ISZERO PUSH2 0xDDA JUMPI PUSH1 0x40 MLOAD PUSH32 0x8C379A000000000000000000000000000000000000000000000000000000000 DUP2 MSTORE PUSH1 0x4 ADD PUSH2 0xDD1 SWAP1 PUSH2 0x222B JUMP JUMPDEST PUSH1 0x40 MLOAD DUP1 SWAP2 SUB SWAP1 REVERT JUMPDEST PUSH1 0x1 DUP3 LT ISZERO PUSH2 0xE1E JUMPI PUSH1 0x40 MLOAD PUSH32 0x8C379A000000000000000000000000000000000000000000000000000000000 DUP2 MSTORE PUSH1 0x4 ADD PUSH2 0xE15 SWAP1 PUSH2 0x220B JUMP JUMPDEST PUSH1 0x40 MLOAD DUP1 SWAP2 SUB SWAP1 REVERT JUMPDEST PUSH1 0xA PUSH1 0x0 DUP2 SLOAD DUP1 SWAP3 SWAP2 SWAP1 PUSH2 0xE31 SWAP1 PUSH2 0x277E JUMP JUMPDEST SWAP2 SWAP1 POP SSTORE POP PUSH1 0x0 DUP1 PUSH2 0xE41 PUSH2 0x1D6B JUMP JUMPDEST SWAP2 POP SWAP2 POP DUP2 DUP5 PUSH2 0xE51 SWAP2 SWAP1 PUSH2 0x24D3 JUMP JUMPDEST PUSH1 0xB PUSH1 0x0 CALLER PUSH20 0xFFFFFFFFFFFFFFFFFFFFFFFFFFFFFFFFFFFFFFFF AND PUSH20 0xFFFFFFFFFFFFFFFFFFFFFFFFFFFFFFFFFFFFFFFF AND DUP2 MSTORE PUSH1 0x20 ADD SWAP1 DUP2 MSTORE PUSH1 0x20 ADD PUSH1 0x0 KECCAK256 PUSH1 0x1 ADD PUSH1 0x0 DUP3 DUP3 SLOAD PUSH2 0xEA2 SWAP2 SWAP1 PUSH2 0x234E JUMP JUMPDEST SWAP3 POP POP DUP2 SWAP1 SSTORE POP PUSH1 0xB PUSH1 0x0 CALLER PUSH20 0xFFFFFFFFFFFFFFFFFFFFFFFFFFFFFFFFFFFFFFFF AND PUSH20 0xFFFFFFFFFFFFFFFFFFFFFFFFFFFFFFFFFFFFFFFF AND DUP2 MSTORE PUSH1 0x20 ADD SWAP1 DUP2 MSTORE PUSH1 0x20 ADD PUSH1 0x0 KECCAK256 PUSH1 0x2 ADD PUSH1 0x0 DUP2 SLOAD DUP1 SWAP3 SWAP2 SWAP1 PUSH2 0xEFC SWAP1 PUSH2 0x277E JUMP JUMPDEST SWAP2 SWAP1 POP SSTORE POP PUSH1 0x5 PUSH1 0x0 SWAP1 SLOAD SWAP1 PUSH2 0x100 EXP SWAP1 DIV PUSH20 0xFFFFFFFFFFFFFFFFFFFFFFFFFFFFFFFFFFFFFFFF AND PUSH20 0xFFFFFFFFFFFFFFFFFFFFFFFFFFFFFFFFFFFFFFFF AND PUSH4 0x23B872DD CALLER ADDRESS DUP8 PUSH1 0x40 MLOAD DUP5 PUSH4 0xFFFFFFFF AND PUSH1 0xE0 SHL DUP2 MSTORE PUSH1 0x4 ADD PUSH2 0xF60 SWAP4 SWAP3 SWAP2 SWAP1 PUSH2 0x2168 JUMP JUMPDEST PUSH1 0x20 PUSH1 0x40 MLOAD DUP1 DUP4 SUB DUP2 PUSH1 0x0 DUP8 DUP1 EXTCODESIZE ISZERO DUP1 ISZERO PUSH2 0xF7A JUMPI PUSH1 0x0 DUP1 REVERT JUMPDEST POP GAS CALL ISZERO DUP1 ISZERO PUSH2 0xF8E JUMPI RETURNDATASIZE PUSH1 0x0 DUP1 RETURNDATACOPY RETURNDATASIZE PUSH1 0x0 REVERT JUMPDEST POP POP POP POP PUSH1 0x40 MLOAD RETURNDATASIZE PUSH1 0x1F NOT PUSH1 0x1F DUP3 ADD AND DUP3 ADD DUP1 PUSH1 0x40 MSTORE POP DUP2 ADD SWAP1 PUSH2 0xFB2 SWAP2 SWAP1 PUSH2 0x1FB2 JUMP JUMPDEST POP DUP4 PUSH1 0x4 PUSH1 0x0 DUP8 PUSH20 0xFFFFFFFFFFFFFFFFFFFFFFFFFFFFFFFFFFFFFFFF AND PUSH20 0xFFFFFFFFFFFFFFFFFFFFFFFFFFFFFFFFFFFFFFFF AND DUP2 MSTORE PUSH1 0x20 ADD SWAP1 DUP2 MSTORE PUSH1 0x20 ADD PUSH1 0x0 KECCAK256 PUSH1 0x1 ADD PUSH1 0x0 DUP3 DUP3 SLOAD PUSH2 0x1005 SWAP2 SWAP1 PUSH2 0x23E2 JUMP JUMPDEST SWAP3 POP POP DUP2 SWAP1 SSTORE POP DUP5 PUSH20 0xFFFFFFFFFFFFFFFFFFFFFFFFFFFFFFFFFFFFFFFF AND CALLER PUSH20 0xFFFFFFFFFFFFFFFFFFFFFFFFFFFFFFFFFFFFFFFF AND PUSH32 0xADBBBBC8C9E65E88422D75C3D3CB93F41A5D520A2CA71C815348334DE8C49121 DUP7 TIMESTAMP PUSH1 0x40 MLOAD PUSH2 0x106B SWAP3 SWAP2 SWAP1 PUSH2 0x2314 JUMP JUMPDEST PUSH1 0x40 MLOAD DUP1 SWAP2 SUB SWAP1 LOG3 PUSH1 0x1 SWAP3 POP POP POP PUSH1 0x0 PUSH1 0xC PUSH1 0x14 PUSH2 0x100 EXP DUP2 SLOAD DUP2 PUSH1 0xFF MUL NOT AND SWAP1 DUP4 ISZERO ISZERO MUL OR SWAP1 SSTORE POP SWAP3 SWAP2 POP POP JUMP JUMPDEST PUSH1 0x0 DUP1 SLOAD SWAP1 PUSH2 0x100 EXP SWAP1 DIV PUSH20 0xFFFFFFFFFFFFFFFFFFFFFFFFFFFFFFFFFFFFFFFF AND DUP2 JUMP JUMPDEST PUSH1 0x0 PUSH1 0xC PUSH1 0x0 SWAP1 SLOAD SWAP1 PUSH2 0x100 EXP SWAP1 DIV PUSH20 0xFFFFFFFFFFFFFFFFFFFFFFFFFFFFFFFFFFFFFFFF AND PUSH20 0xFFFFFFFFFFFFFFFFFFFFFFFFFFFFFFFFFFFFFFFF AND CALLER PUSH20 0xFFFFFFFFFFFFFFFFFFFFFFFFFFFFFFFFFFFFFFFF AND EQ PUSH2 0x111A JUMPI PUSH1 0x0 DUP1 REVERT JUMPDEST PUSH1 0xC PUSH1 0x14 SWAP1 SLOAD SWAP1 PUSH2 0x100 EXP SWAP1 DIV PUSH1 0xFF AND ISZERO PUSH2 0x1134 JUMPI PUSH1 0x0 DUP1 REVERT JUMPDEST PUSH1 0x1 PUSH1 0xC PUSH1 0x14 PUSH2 0x100 EXP DUP2 SLOAD DUP2 PUSH1 0xFF MUL NOT AND SWAP1 DUP4 ISZERO ISZERO MUL OR SWAP1 SSTORE POP PUSH1 0x0 DUP1 PUSH2 0x115A PUSH2 0x1D6B JUMP JUMPDEST DUP1 SWAP3 POP DUP2 SWAP4 POP POP POP PUSH1 0xA PUSH1 0x0 DUP2 SLOAD DUP1 SWAP3 SWAP2 SWAP1 PUSH2 0x1175 SWAP1 PUSH2 0x277E JUMP JUMPDEST SWAP2 SWAP1 POP SSTORE POP PUSH1 0xA SLOAD PUSH1 0xB PUSH1 0x0 DUP9 PUSH20 0xFFFFFFFFFFFFFFFFFFFFFFFFFFFFFFFFFFFFFFFF AND PUSH20 0xFFFFFFFFFFFFFFFFFFFFFFFFFFFFFFFFFFFFFFFF AND DUP2 MSTORE PUSH1 0x20 ADD SWAP1 DUP2 MSTORE PUSH1 0x20 ADD PUSH1 0x0 KECCAK256 PUSH1 0x0 ADD DUP2 SWAP1 SSTORE POP DUP2 DUP5 PUSH2 0x11CF SWAP2 SWAP1 PUSH2 0x24D3 JUMP JUMPDEST PUSH1 0xB PUSH1 0x0 DUP9 PUSH20 0xFFFFFFFFFFFFFFFFFFFFFFFFFFFFFFFFFFFFFFFF AND PUSH20 0xFFFFFFFFFFFFFFFFFFFFFFFFFFFFFFFFFFFFFFFF AND DUP2 MSTORE PUSH1 0x20 ADD SWAP1 DUP2 MSTORE PUSH1 0x20 ADD PUSH1 0x0 KECCAK256 PUSH1 0x1 ADD PUSH1 0x0 DUP3 DUP3 SLOAD PUSH2 0x1220 SWAP2 SWAP1 PUSH2 0x234E JUMP JUMPDEST SWAP3 POP POP DUP2 SWAP1 SSTORE POP DUP6 PUSH1 0xB PUSH1 0x0 DUP9 PUSH20 0xFFFFFFFFFFFFFFFFFFFFFFFFFFFFFFFFFFFFFFFF AND PUSH20 0xFFFFFFFFFFFFFFFFFFFFFFFFFFFFFFFFFFFFFFFF AND DUP2 MSTORE PUSH1 0x20 ADD SWAP1 DUP2 MSTORE PUSH1 0x20 ADD PUSH1 0x0 KECCAK256 PUSH1 0x3 ADD PUSH1 0x0 PUSH2 0x100 EXP DUP2 SLOAD DUP2 PUSH20 0xFFFFFFFFFFFFFFFFFFFFFFFFFFFFFFFFFFFFFFFF MUL NOT AND SWAP1 DUP4 PUSH20 0xFFFFFFFFFFFFFFFFFFFFFFFFFFFFFFFFFFFFFFFF AND MUL OR SWAP1 SSTORE POP PUSH1 0x1 PUSH1 0xB PUSH1 0x0 DUP9 PUSH20 0xFFFFFFFFFFFFFFFFFFFFFFFFFFFFFFFFFFFFFFFF AND PUSH20 0xFFFFFFFFFFFFFFFFFFFFFFFFFFFFFFFFFFFFFFFF AND DUP2 MSTORE PUSH1 0x20 ADD SWAP1 DUP2 MSTORE PUSH1 0x20 ADD PUSH1 0x0 KECCAK256 PUSH1 0x2 ADD PUSH1 0x0 DUP3 DUP3 SLOAD PUSH2 0x12FB SWAP2 SWAP1 PUSH2 0x23E2 JUMP JUMPDEST SWAP3 POP POP DUP2 SWAP1 SSTORE POP DUP4 PUSH1 0x4 PUSH1 0x0 DUP8 PUSH20 0xFFFFFFFFFFFFFFFFFFFFFFFFFFFFFFFFFFFFFFFF AND PUSH20 0xFFFFFFFFFFFFFFFFFFFFFFFFFFFFFFFFFFFFFFFF AND DUP2 MSTORE PUSH1 0x20 ADD SWAP1 DUP2 MSTORE PUSH1 0x20 ADD PUSH1 0x0 KECCAK256 PUSH1 0x1 ADD PUSH1 0x0 DUP3 DUP3 SLOAD PUSH2 0x1354 SWAP2 SWAP1 PUSH2 0x23E2 JUMP JUMPDEST SWAP3 POP POP DUP2 SWAP1 SSTORE POP PUSH1 0x1 SWAP3 POP POP POP PUSH1 0x0 PUSH1 0xC PUSH1 0x14 PUSH2 0x100 EXP DUP2 SLOAD DUP2 PUSH1 0xFF MUL NOT AND SWAP1 DUP4 ISZERO ISZERO MUL OR SWAP1 SSTORE POP SWAP4 SWAP3 POP POP POP JUMP JUMPDEST PUSH1 0xB PUSH1 0x20 MSTORE DUP1 PUSH1 0x0 MSTORE PUSH1 0x40 PUSH1 0x0 KECCAK256 PUSH1 0x0 SWAP2 POP SWAP1 POP DUP1 PUSH1 0x0 ADD SLOAD SWAP1 DUP1 PUSH1 0x1 ADD SLOAD SWAP1 DUP1 PUSH1 0x2 ADD SLOAD SWAP1 DUP1 PUSH1 0x3 ADD PUSH1 0x0 SWAP1 SLOAD SWAP1 PUSH2 0x100 EXP SWAP1 DIV PUSH20 0xFFFFFFFFFFFFFFFFFFFFFFFFFFFFFFFFFFFFFFFF AND SWAP1 POP DUP5 JUMP JUMPDEST PUSH1 0x0 DUP1 PUSH1 0xC PUSH1 0x14 SWAP1 SLOAD SWAP1 PUSH2 0x100 EXP SWAP1 DIV PUSH1 0xFF AND ISZERO PUSH2 0x13F0 JUMPI PUSH1 0x0 DUP1 REVERT JUMPDEST PUSH1 0x1 PUSH1 0xC PUSH1 0x14 PUSH2 0x100 EXP DUP2 SLOAD DUP2 PUSH1 0xFF MUL NOT AND SWAP1 DUP4 ISZERO ISZERO MUL OR SWAP1 SSTORE POP CALLVALUE PUSH1 0x4 PUSH1 0x0 DUP6 PUSH20 0xFFFFFFFFFFFFFFFFFFFFFFFFFFFFFFFFFFFFFFFF AND PUSH20 0xFFFFFFFFFFFFFFFFFFFFFFFFFFFFFFFFFFFFFFFF AND DUP2 MSTORE PUSH1 0x20 ADD SWAP1 DUP2 MSTORE PUSH1 0x20 ADD PUSH1 0x0 KECCAK256 PUSH1 0x0 ADD SLOAD LT ISZERO PUSH2 0x1490 JUMPI PUSH1 0x40 MLOAD PUSH32 0x8C379A000000000000000000000000000000000000000000000000000000000 DUP2 MSTORE PUSH1 0x4 ADD PUSH2 0x1487 SWAP1 PUSH2 0x224B JUMP JUMPDEST PUSH1 0x40 MLOAD DUP1 SWAP2 SUB SWAP1 REVERT JUMPDEST PUSH1 0x0 DUP1 PUSH2 0x149B PUSH2 0x1D6B JUMP JUMPDEST SWAP2 POP SWAP2 POP PUSH1 0x0 PUSH1 0xC DUP4 PUSH1 0x4 PUSH1 0x0 DUP10 PUSH20 0xFFFFFFFFFFFFFFFFFFFFFFFFFFFFFFFFFFFFFFFF AND PUSH20 0xFFFFFFFFFFFFFFFFFFFFFFFFFFFFFFFFFFFFFFFF AND DUP2 MSTORE PUSH1 0x20 ADD SWAP1 DUP2 MSTORE PUSH1 0x20 ADD PUSH1 0x0 KECCAK256 PUSH1 0x1 ADD SLOAD PUSH2 0x14F1 SWAP2 SWAP1 PUSH2 0x24A2 JUMP JUMPDEST PUSH1 0x4 PUSH1 0x0 DUP10 PUSH20 0xFFFFFFFFFFFFFFFFFFFFFFFFFFFFFFFFFFFFFFFF AND PUSH20 0xFFFFFFFFFFFFFFFFFFFFFFFFFFFFFFFFFFFFFFFF AND DUP2 MSTORE PUSH1 0x20 ADD SWAP1 DUP2 MSTORE PUSH1 0x20 ADD PUSH1 0x0 KECCAK256 PUSH1 0x0 ADD SLOAD PUSH2 0x153E SWAP2 SWAP1 PUSH2 0x23E2 JUMP JUMPDEST PUSH2 0x1548 SWAP2 SWAP1 PUSH2 0x24A2 JUMP JUMPDEST SWAP1 POP DUP6 PUSH20 0xFFFFFFFFFFFFFFFFFFFFFFFFFFFFFFFFFFFFFFFF AND PUSH2 0x8FC DUP3 SWAP1 DUP2 ISZERO MUL SWAP1 PUSH1 0x40 MLOAD PUSH1 0x0 PUSH1 0x40 MLOAD DUP1 DUP4 SUB DUP2 DUP6 DUP9 DUP9 CALL SWAP4 POP POP POP POP ISZERO DUP1 ISZERO PUSH2 0x1590 JUMPI RETURNDATASIZE PUSH1 0x0 DUP1 RETURNDATACOPY RETURNDATASIZE PUSH1 0x0 REVERT JUMPDEST POP PUSH1 0x0 PUSH1 0x4 PUSH1 0x0 DUP9 PUSH20 0xFFFFFFFFFFFFFFFFFFFFFFFFFFFFFFFFFFFFFFFF AND PUSH20 0xFFFFFFFFFFFFFFFFFFFFFFFFFFFFFFFFFFFFFFFF AND DUP2 MSTORE PUSH1 0x20 ADD SWAP1 DUP2 MSTORE PUSH1 0x20 ADD PUSH1 0x0 KECCAK256 PUSH1 0x0 ADD SLOAD EQ ISZERO PUSH2 0x163A JUMPI DUP1 PUSH1 0x4 PUSH1 0x0 DUP9 PUSH20 0xFFFFFFFFFFFFFFFFFFFFFFFFFFFFFFFFFFFFFFFF AND PUSH20 0xFFFFFFFFFFFFFFFFFFFFFFFFFFFFFFFFFFFFFFFF AND DUP2 MSTORE PUSH1 0x20 ADD SWAP1 DUP2 MSTORE PUSH1 0x20 ADD PUSH1 0x0 KECCAK256 PUSH1 0x1 ADD PUSH1 0x0 DUP3 DUP3 SLOAD PUSH2 0x162E SWAP2 SWAP1 PUSH2 0x2644 JUMP JUMPDEST SWAP3 POP POP DUP2 SWAP1 SSTORE POP PUSH2 0x17AF JUMP JUMPDEST PUSH1 0x0 PUSH1 0x4 PUSH1 0x0 DUP9 PUSH20 0xFFFFFFFFFFFFFFFFFFFFFFFFFFFFFFFFFFFFFFFF AND PUSH20 0xFFFFFFFFFFFFFFFFFFFFFFFFFFFFFFFFFFFFFFFF AND DUP2 MSTORE PUSH1 0x20 ADD SWAP1 DUP2 MSTORE PUSH1 0x20 ADD PUSH1 0x0 KECCAK256 PUSH1 0x1 ADD SLOAD EQ ISZERO PUSH2 0x16E3 JUMPI DUP1 PUSH1 0x4 PUSH1 0x0 DUP9 PUSH20 0xFFFFFFFFFFFFFFFFFFFFFFFFFFFFFFFFFFFFFFFF AND PUSH20 0xFFFFFFFFFFFFFFFFFFFFFFFFFFFFFFFFFFFFFFFF AND DUP2 MSTORE PUSH1 0x20 ADD SWAP1 DUP2 MSTORE PUSH1 0x20 ADD PUSH1 0x0 KECCAK256 PUSH1 0x0 ADD PUSH1 0x0 DUP3 DUP3 SLOAD PUSH2 0x16D7 SWAP2 SWAP1 PUSH2 0x2644 JUMP JUMPDEST SWAP3 POP POP DUP2 SWAP1 SSTORE POP PUSH2 0x17AE JUMP JUMPDEST PUSH1 0x2 DUP2 PUSH2 0x16F0 SWAP2 SWAP1 PUSH2 0x24A2 JUMP JUMPDEST PUSH1 0x4 PUSH1 0x0 DUP9 PUSH20 0xFFFFFFFFFFFFFFFFFFFFFFFFFFFFFFFFFFFFFFFF AND PUSH20 0xFFFFFFFFFFFFFFFFFFFFFFFFFFFFFFFFFFFFFFFF AND DUP2 MSTORE PUSH1 0x20 ADD SWAP1 DUP2 MSTORE PUSH1 0x20 ADD PUSH1 0x0 KECCAK256 PUSH1 0x0 ADD PUSH1 0x0 DUP3 DUP3 SLOAD PUSH2 0x1741 SWAP2 SWAP1 PUSH2 0x2644 JUMP JUMPDEST SWAP3 POP POP DUP2 SWAP1 SSTORE POP PUSH1 0x2 DUP2 PUSH2 0x1755 SWAP2 SWAP1 PUSH2 0x24A2 JUMP JUMPDEST PUSH1 0x4 PUSH1 0x0 DUP9 PUSH20 0xFFFFFFFFFFFFFFFFFFFFFFFFFFFFFFFFFFFFFFFF AND PUSH20 0xFFFFFFFFFFFFFFFFFFFFFFFFFFFFFFFFFFFFFFFF AND DUP2 MSTORE PUSH1 0x20 ADD SWAP1 DUP2 MSTORE PUSH1 0x20 ADD PUSH1 0x0 KECCAK256 PUSH1 0x1 ADD PUSH1 0x0 DUP3 DUP3 SLOAD PUSH2 0x17A6 SWAP2 SWAP1 PUSH2 0x2644 JUMP JUMPDEST SWAP3 POP POP DUP2 SWAP1 SSTORE POP JUMPDEST JUMPDEST DUP6 PUSH20 0xFFFFFFFFFFFFFFFFFFFFFFFFFFFFFFFFFFFFFFFF AND PUSH32 0x9CD516BC314CA50BB8F1F5602D3F202CDCBF17B89DA33DD13C3909D5D3C00A32 DUP3 TIMESTAMP PUSH1 0x40 MLOAD PUSH2 0x17F7 SWAP3 SWAP2 SWAP1 PUSH2 0x2314 JUMP JUMPDEST PUSH1 0x40 MLOAD DUP1 SWAP2 SUB SWAP1 LOG2 DUP1 TIMESTAMP SWAP5 POP SWAP5 POP POP POP POP PUSH1 0x0 PUSH1 0xC PUSH1 0x14 PUSH2 0x100 EXP DUP2 SLOAD DUP2 PUSH1 0xFF MUL NOT AND SWAP1 DUP4 ISZERO ISZERO MUL OR SWAP1 SSTORE POP SWAP2 POP SWAP2 JUMP JUMPDEST PUSH1 0x4 PUSH1 0x20 MSTORE DUP1 PUSH1 0x0 MSTORE PUSH1 0x40 PUSH1 0x0 KECCAK256 PUSH1 0x0 SWAP2 POP SWAP1 POP DUP1 PUSH1 0x0 ADD SLOAD SWAP1 DUP1 PUSH1 0x1 ADD SLOAD SWAP1 POP DUP3 JUMP JUMPDEST PUSH1 0x0 DUP1 PUSH1 0xC PUSH1 0x14 SWAP1 SLOAD SWAP1 PUSH2 0x100 EXP SWAP1 DIV PUSH1 0xFF AND ISZERO PUSH2 0x1869 JUMPI PUSH1 0x0 DUP1 REVERT JUMPDEST PUSH1 0x1 PUSH1 0xC PUSH1 0x14 PUSH2 0x100 EXP DUP2 SLOAD DUP2 PUSH1 0xFF MUL NOT AND SWAP1 DUP4 ISZERO ISZERO MUL OR SWAP1 SSTORE POP PUSH1 0x0 DUP1 PUSH2 0x188F PUSH2 0x1D6B JUMP JUMPDEST SWAP2 POP SWAP2 POP PUSH1 0x0 PUSH1 0xC PUSH1 0x4 PUSH1 0x0 DUP9 PUSH20 0xFFFFFFFFFFFFFFFFFFFFFFFFFFFFFFFFFFFFFFFF AND PUSH20 0xFFFFFFFFFFFFFFFFFFFFFFFFFFFFFFFFFFFFFFFF AND DUP2 MSTORE PUSH1 0x20 ADD SWAP1 DUP2 MSTORE PUSH1 0x20 ADD PUSH1 0x0 KECCAK256 PUSH1 0x1 ADD SLOAD DUP5 PUSH1 0x4 PUSH1 0x0 DUP11 PUSH20 0xFFFFFFFFFFFFFFFFFFFFFFFFFFFFFFFFFFFFFFFF AND PUSH20 0xFFFFFFFFFFFFFFFFFFFFFFFFFFFFFFFFFFFFFFFF AND DUP2 MSTORE PUSH1 0x20 ADD SWAP1 DUP2 MSTORE PUSH1 0x20 ADD PUSH1 0x0 KECCAK256 PUSH1 0x0 ADD SLOAD PUSH2 0x1928 SWAP2 SWAP1 PUSH2 0x25EA JUMP JUMPDEST PUSH2 0x1932 SWAP2 SWAP1 PUSH2 0x23E2 JUMP JUMPDEST PUSH2 0x193C SWAP2 SWAP1 PUSH2 0x24A2 JUMP JUMPDEST SWAP1 POP DUP1 PUSH1 0x4 PUSH1 0x0 DUP9 PUSH20 0xFFFFFFFFFFFFFFFFFFFFFFFFFFFFFFFFFFFFFFFF AND PUSH20 0xFFFFFFFFFFFFFFFFFFFFFFFFFFFFFFFFFFFFFFFF AND DUP2 MSTORE PUSH1 0x20 ADD SWAP1 DUP2 MSTORE PUSH1 0x20 ADD PUSH1 0x0 KECCAK256 PUSH1 0x1 ADD SLOAD GT PUSH2 0x19C2 JUMPI PUSH1 0x40 MLOAD PUSH32 0x8C379A000000000000000000000000000000000000000000000000000000000 DUP2 MSTORE PUSH1 0x4 ADD PUSH2 0x19B9 SWAP1 PUSH2 0x224B JUMP JUMPDEST PUSH1 0x40 MLOAD DUP1 SWAP2 SUB SWAP1 REVERT JUMPDEST DUP6 PUSH20 0xFFFFFFFFFFFFFFFFFFFFFFFFFFFFFFFFFFFFFFFF AND PUSH2 0x8FC DUP3 SWAP1 DUP2 ISZERO MUL SWAP1 PUSH1 0x40 MLOAD PUSH1 0x0 PUSH1 0x40 MLOAD DUP1 DUP4 SUB DUP2 DUP6 DUP9 DUP9 CALL SWAP4 POP POP POP POP ISZERO DUP1 ISZERO PUSH2 0x1A08 JUMPI RETURNDATASIZE PUSH1 0x0 DUP1 RETURNDATACOPY RETURNDATASIZE PUSH1 0x0 REVERT JUMPDEST POP PUSH1 0x0 PUSH1 0x4 PUSH1 0x0 DUP9 PUSH20 0xFFFFFFFFFFFFFFFFFFFFFFFFFFFFFFFFFFFFFFFF AND PUSH20 0xFFFFFFFFFFFFFFFFFFFFFFFFFFFFFFFFFFFFFFFF AND DUP2 MSTORE PUSH1 0x20 ADD SWAP1 DUP2 MSTORE PUSH1 0x20 ADD PUSH1 0x0 KECCAK256 PUSH1 0x0 ADD SLOAD EQ ISZERO PUSH2 0x1AB2 JUMPI DUP1 PUSH1 0x4 PUSH1 0x0 DUP9 PUSH20 0xFFFFFFFFFFFFFFFFFFFFFFFFFFFFFFFFFFFFFFFF AND PUSH20 0xFFFFFFFFFFFFFFFFFFFFFFFFFFFFFFFFFFFFFFFF AND DUP2 MSTORE PUSH1 0x20 ADD SWAP1 DUP2 MSTORE PUSH1 0x20 ADD PUSH1 0x0 KECCAK256 PUSH1 0x1 ADD PUSH1 0x0 DUP3 DUP3 SLOAD PUSH2 0x1AA6 SWAP2 SWAP1 PUSH2 0x2644 JUMP JUMPDEST SWAP3 POP POP DUP2 SWAP1 SSTORE POP PUSH2 0x1C27 JUMP JUMPDEST PUSH1 0x0 PUSH1 0x4 PUSH1 0x0 DUP9 PUSH20 0xFFFFFFFFFFFFFFFFFFFFFFFFFFFFFFFFFFFFFFFF AND PUSH20 0xFFFFFFFFFFFFFFFFFFFFFFFFFFFFFFFFFFFFFFFF AND DUP2 MSTORE PUSH1 0x20 ADD SWAP1 DUP2 MSTORE PUSH1 0x20 ADD PUSH1 0x0 KECCAK256 PUSH1 0x1 ADD SLOAD EQ ISZERO PUSH2 0x1B5B JUMPI DUP1 PUSH1 0x4 PUSH1 0x0 DUP9 PUSH20 0xFFFFFFFFFFFFFFFFFFFFFFFFFFFFFFFFFFFFFFFF AND PUSH20 0xFFFFFFFFFFFFFFFFFFFFFFFFFFFFFFFFFFFFFFFF AND DUP2 MSTORE PUSH1 0x20 ADD SWAP1 DUP2 MSTORE PUSH1 0x20 ADD PUSH1 0x0 KECCAK256 PUSH1 0x0 ADD PUSH1 0x0 DUP3 DUP3 SLOAD PUSH2 0x1B4F SWAP2 SWAP1 PUSH2 0x2644 JUMP JUMPDEST SWAP3 POP POP DUP2 SWAP1 SSTORE POP PUSH2 0x1C26 JUMP JUMPDEST PUSH1 0x2 DUP2 PUSH2 0x1B68 SWAP2 SWAP1 PUSH2 0x24A2 JUMP JUMPDEST PUSH1 0x4 PUSH1 0x0 DUP9 PUSH20 0xFFFFFFFFFFFFFFFFFFFFFFFFFFFFFFFFFFFFFFFF AND PUSH20 0xFFFFFFFFFFFFFFFFFFFFFFFFFFFFFFFFFFFFFFFF AND DUP2 MSTORE PUSH1 0x20 ADD SWAP1 DUP2 MSTORE PUSH1 0x20 ADD PUSH1 0x0 KECCAK256 PUSH1 0x0 ADD PUSH1 0x0 DUP3 DUP3 SLOAD PUSH2 0x1BB9 SWAP2 SWAP1 PUSH2 0x2644 JUMP JUMPDEST SWAP3 POP POP DUP2 SWAP1 SSTORE POP PUSH1 0x2 DUP2 PUSH2 0x1BCD SWAP2 SWAP1 PUSH2 0x24A2 JUMP JUMPDEST PUSH1 0x4 PUSH1 0x0 DUP9 PUSH20 0xFFFFFFFFFFFFFFFFFFFFFFFFFFFFFFFFFFFFFFFF AND PUSH20 0xFFFFFFFFFFFFFFFFFFFFFFFFFFFFFFFFFFFFFFFF AND DUP2 MSTORE PUSH1 0x20 ADD SWAP1 DUP2 MSTORE PUSH1 0x20 ADD PUSH1 0x0 KECCAK256 PUSH1 0x1 ADD PUSH1 0x0 DUP3 DUP3 SLOAD PUSH2 0x1C1E SWAP2 SWAP1 PUSH2 0x2644 JUMP JUMPDEST SWAP3 POP POP DUP2 SWAP1 SSTORE POP JUMPDEST JUMPDEST DUP1 PUSH1 0x4 PUSH1 0x0 DUP9 PUSH20 0xFFFFFFFFFFFFFFFFFFFFFFFFFFFFFFFFFFFFFFFF AND PUSH20 0xFFFFFFFFFFFFFFFFFFFFFFFFFFFFFFFFFFFFFFFF AND DUP2 MSTORE PUSH1 0x20 ADD SWAP1 DUP2 MSTORE PUSH1 0x20 ADD PUSH1 0x0 KECCAK256 PUSH1 0x0 ADD PUSH1 0x0 DUP3 DUP3 SLOAD PUSH2 0x1C79 SWAP2 SWAP1 PUSH2 0x2644 JUMP JUMPDEST SWAP3 POP POP DUP2 SWAP1 SSTORE POP DUP6 PUSH20 0xFFFFFFFFFFFFFFFFFFFFFFFFFFFFFFFFFFFFFFFF AND PUSH32 0x9CD516BC314CA50BB8F1F5602D3F202CDCBF17B89DA33DD13C3909D5D3C00A32 DUP3 TIMESTAMP PUSH1 0x40 MLOAD PUSH2 0x1CC8 SWAP3 SWAP2 SWAP1 PUSH2 0x2314 JUMP JUMPDEST PUSH1 0x40 MLOAD DUP1 SWAP2 SUB SWAP1 LOG2 DUP1 TIMESTAMP SWAP5 POP SWAP5 POP POP POP POP PUSH1 0x0 PUSH1 0xC PUSH1 0x14 PUSH2 0x100 EXP DUP2 SLOAD DUP2 PUSH1 0xFF MUL NOT AND SWAP1 DUP4 ISZERO ISZERO MUL OR SWAP1 SSTORE POP SWAP2 POP SWAP2 JUMP JUMPDEST PUSH1 0x3 PUSH1 0x0 SWAP1 SLOAD SWAP1 PUSH2 0x100 EXP SWAP1 DIV PUSH20 0xFFFFFFFFFFFFFFFFFFFFFFFFFFFFFFFFFFFFFFFF AND DUP2 JUMP JUMPDEST PUSH1 0x1 PUSH1 0x0 SWAP1 SLOAD SWAP1 PUSH2 0x100 EXP SWAP1 DIV PUSH20 0xFFFFFFFFFFFFFFFFFFFFFFFFFFFFFFFFFFFFFFFF AND DUP2 JUMP JUMPDEST PUSH1 0x2 PUSH1 0x0 SWAP1 SLOAD SWAP1 PUSH2 0x100 EXP SWAP1 DIV PUSH20 0xFFFFFFFFFFFFFFFFFFFFFFFFFFFFFFFFFFFFFFFF AND DUP2 JUMP JUMPDEST PUSH1 0x0 DUP1 PUSH1 0x2 PUSH1 0x0 SWAP1 SLOAD SWAP1 PUSH2 0x100 EXP SWAP1 DIV PUSH20 0xFFFFFFFFFFFFFFFFFFFFFFFFFFFFFFFFFFFFFFFF AND PUSH20 0xFFFFFFFFFFFFFFFFFFFFFFFFFFFFFFFFFFFFFFFF AND PUSH4 0x43183834 PUSH1 0x40 MLOAD DUP2 PUSH4 0xFFFFFFFF AND PUSH1 0xE0 SHL DUP2 MSTORE PUSH1 0x4 ADD PUSH1 0x80 PUSH1 0x40 MLOAD DUP1 DUP4 SUB DUP2 DUP7 DUP1 EXTCODESIZE ISZERO DUP1 ISZERO PUSH2 0x1DD6 JUMPI PUSH1 0x0 DUP1 REVERT JUMPDEST POP GAS STATICCALL ISZERO DUP1 ISZERO PUSH2 0x1DEA JUMPI RETURNDATASIZE PUSH1 0x0 DUP1 RETURNDATACOPY RETURNDATASIZE PUSH1 0x0 REVERT JUMPDEST POP POP POP POP PUSH1 0x40 MLOAD RETURNDATASIZE PUSH1 0x1F NOT PUSH1 0x1F DUP3 ADD AND DUP3 ADD DUP1 PUSH1 0x40 MSTORE POP DUP2 ADD SWAP1 PUSH2 0x1E0E SWAP2 SWAP1 PUSH2 0x200C JUMP JUMPDEST SWAP1 POP POP DUP1 SWAP3 POP DUP2 SWAP4 POP POP POP SWAP1 SWAP2 JUMP JUMPDEST PUSH1 0x0 DUP2 CALLDATALOAD SWAP1 POP PUSH2 0x1E2C DUP2 PUSH2 0x28F4 JUMP JUMPDEST SWAP3 SWAP2 POP POP JUMP JUMPDEST PUSH1 0x0 DUP2 CALLDATALOAD SWAP1 POP PUSH2 0x1E41 DUP2 PUSH2 0x290B JUMP JUMPDEST SWAP3 SWAP2 POP POP JUMP JUMPDEST PUSH1 0x0 DUP2 MLOAD SWAP1 POP PUSH2 0x1E56 DUP2 PUSH2 0x2922 JUMP JUMPDEST SWAP3 SWAP2 POP POP JUMP JUMPDEST PUSH1 0x0 DUP2 MLOAD SWAP1 POP PUSH2 0x1E6B DUP2 PUSH2 0x2939 JUMP JUMPDEST SWAP3 SWAP2 POP POP JUMP JUMPDEST PUSH1 0x0 DUP2 MLOAD SWAP1 POP PUSH2 0x1E80 DUP2 PUSH2 0x2950 JUMP JUMPDEST SWAP3 SWAP2 POP POP JUMP JUMPDEST PUSH1 0x0 DUP2 MLOAD SWAP1 POP PUSH2 0x1E95 DUP2 PUSH2 0x2967 JUMP JUMPDEST SWAP3 SWAP2 POP POP JUMP JUMPDEST PUSH1 0x0 DUP2 CALLDATALOAD SWAP1 POP PUSH2 0x1EAA DUP2 PUSH2 0x297E JUMP JUMPDEST SWAP3 SWAP2 POP POP JUMP JUMPDEST PUSH1 0x0 DUP2 MLOAD SWAP1 POP PUSH2 0x1EBF DUP2 PUSH2 0x297E JUMP JUMPDEST SWAP3 SWAP2 POP POP JUMP JUMPDEST PUSH1 0x0 PUSH1 0x20 DUP3 DUP5 SUB SLT ISZERO PUSH2 0x1EDB JUMPI PUSH2 0x1EDA PUSH2 0x2825 JUMP JUMPDEST JUMPDEST PUSH1 0x0 PUSH2 0x1EE9 DUP5 DUP3 DUP6 ADD PUSH2 0x1E1D JUMP JUMPDEST SWAP2 POP POP SWAP3 SWAP2 POP POP JUMP JUMPDEST PUSH1 0x0 PUSH1 0x20 DUP3 DUP5 SUB SLT ISZERO PUSH2 0x1F08 JUMPI PUSH2 0x1F07 PUSH2 0x2825 JUMP JUMPDEST JUMPDEST PUSH1 0x0 PUSH2 0x1F16 DUP5 DUP3 DUP6 ADD PUSH2 0x1E32 JUMP JUMPDEST SWAP2 POP POP SWAP3 SWAP2 POP POP JUMP JUMPDEST PUSH1 0x0 DUP1 PUSH1 0x0 PUSH1 0x60 DUP5 DUP7 SUB SLT ISZERO PUSH2 0x1F38 JUMPI PUSH2 0x1F37 PUSH2 0x2825 JUMP JUMPDEST JUMPDEST PUSH1 0x0 PUSH2 0x1F46 DUP7 DUP3 DUP8 ADD PUSH2 0x1E1D JUMP JUMPDEST SWAP4 POP POP PUSH1 0x20 PUSH2 0x1F57 DUP7 DUP3 DUP8 ADD PUSH2 0x1E1D JUMP JUMPDEST SWAP3 POP POP PUSH1 0x40 PUSH2 0x1F68 DUP7 DUP3 DUP8 ADD PUSH2 0x1E9B JUMP JUMPDEST SWAP2 POP POP SWAP3 POP SWAP3 POP SWAP3 JUMP JUMPDEST PUSH1 0x0 DUP1 PUSH1 0x40 DUP4 DUP6 SUB SLT ISZERO PUSH2 0x1F89 JUMPI PUSH2 0x1F88 PUSH2 0x2825 JUMP JUMPDEST JUMPDEST PUSH1 0x0 PUSH2 0x1F97 DUP6 DUP3 DUP7 ADD PUSH2 0x1E1D JUMP JUMPDEST SWAP3 POP POP PUSH1 0x20 PUSH2 0x1FA8 DUP6 DUP3 DUP7 ADD PUSH2 0x1E9B JUMP JUMPDEST SWAP2 POP POP SWAP3 POP SWAP3 SWAP1 POP JUMP JUMPDEST PUSH1 0x0 PUSH1 0x20 DUP3 DUP5 SUB SLT ISZERO PUSH2 0x1FC8 JUMPI PUSH2 0x1FC7 PUSH2 0x2825 JUMP JUMPDEST JUMPDEST PUSH1 0x0 PUSH2 0x1FD6 DUP5 DUP3 DUP6 ADD PUSH2 0x1E47 JUMP JUMPDEST SWAP2 POP POP SWAP3 SWAP2 POP POP JUMP JUMPDEST PUSH1 0x0 PUSH1 0x20 DUP3 DUP5 SUB SLT ISZERO PUSH2 0x1FF5 JUMPI PUSH2 0x1FF4 PUSH2 0x2825 JUMP JUMPDEST JUMPDEST PUSH1 0x0 PUSH2 0x2003 DUP5 DUP3 DUP6 ADD PUSH2 0x1E71 JUMP JUMPDEST SWAP2 POP POP SWAP3 SWAP2 POP POP JUMP JUMPDEST PUSH1 0x0 DUP1 PUSH1 0x0 DUP1 PUSH1 0x80 DUP6 DUP8 SUB SLT ISZERO PUSH2 0x2026 JUMPI PUSH2 0x2025 PUSH2 0x2825 JUMP JUMPDEST JUMPDEST PUSH1 0x0 PUSH2 0x2034 DUP8 DUP3 DUP9 ADD PUSH2 0x1E86 JUMP JUMPDEST SWAP5 POP POP PUSH1 0x20 PUSH2 0x2045 DUP8 DUP3 DUP9 ADD PUSH2 0x1EB0 JUMP JUMPDEST SWAP4 POP POP PUSH1 0x40 PUSH2 0x2056 DUP8 DUP3 DUP9 ADD PUSH2 0x1E5C JUMP JUMPDEST SWAP3 POP POP PUSH1 0x60 PUSH2 0x2067 DUP8 DUP3 DUP9 ADD PUSH2 0x1EB0 JUMP JUMPDEST SWAP2 POP POP SWAP3 SWAP6 SWAP2 SWAP5 POP SWAP3 POP JUMP JUMPDEST PUSH2 0x207C DUP2 PUSH2 0x2678 JUMP JUMPDEST DUP3 MSTORE POP POP JUMP JUMPDEST PUSH2 0x208B DUP2 PUSH2 0x269C JUMP JUMPDEST DUP3 MSTORE POP POP JUMP JUMPDEST PUSH2 0x209A DUP2 PUSH2 0x2724 JUMP JUMPDEST DUP3 MSTORE POP POP JUMP JUMPDEST PUSH2 0x20A9 DUP2 PUSH2 0x2736 JUMP JUMPDEST DUP3 MSTORE POP POP JUMP JUMPDEST PUSH2 0x20B8 DUP2 PUSH2 0x2748 JUMP JUMPDEST DUP3 MSTORE POP POP JUMP JUMPDEST PUSH2 0x20C7 DUP2 PUSH2 0x26F0 JUMP JUMPDEST DUP3 MSTORE POP POP JUMP JUMPDEST PUSH1 0x0 PUSH2 0x20DA PUSH1 0x1B DUP4 PUSH2 0x233D JUMP JUMPDEST SWAP2 POP PUSH2 0x20E5 DUP3 PUSH2 0x282A JUMP JUMPDEST PUSH1 0x20 DUP3 ADD SWAP1 POP SWAP2 SWAP1 POP JUMP JUMPDEST PUSH1 0x0 PUSH2 0x20FD PUSH1 0x1E DUP4 PUSH2 0x233D JUMP JUMPDEST SWAP2 POP PUSH2 0x2108 DUP3 PUSH2 0x2853 JUMP JUMPDEST PUSH1 0x20 DUP3 ADD SWAP1 POP SWAP2 SWAP1 POP JUMP JUMPDEST PUSH1 0x0 PUSH2 0x2120 PUSH1 0xF DUP4 PUSH2 0x233D JUMP JUMPDEST SWAP2 POP PUSH2 0x212B DUP3 PUSH2 0x287C JUMP JUMPDEST PUSH1 0x20 DUP3 ADD SWAP1 POP SWAP2 SWAP1 POP JUMP JUMPDEST PUSH1 0x0 PUSH2 0x2143 PUSH1 0x21 DUP4 PUSH2 0x233D JUMP JUMPDEST SWAP2 POP PUSH2 0x214E DUP3 PUSH2 0x28A5 JUMP JUMPDEST PUSH1 0x40 DUP3 ADD SWAP1 POP SWAP2 SWAP1 POP JUMP JUMPDEST PUSH2 0x2162 DUP2 PUSH2 0x271A JUMP JUMPDEST DUP3 MSTORE POP POP JUMP JUMPDEST PUSH1 0x0 PUSH1 0x60 DUP3 ADD SWAP1 POP PUSH2 0x217D PUSH1 0x0 DUP4 ADD DUP7 PUSH2 0x2073 JUMP JUMPDEST PUSH2 0x218A PUSH1 0x20 DUP4 ADD DUP6 PUSH2 0x2073 JUMP JUMPDEST PUSH2 0x2197 PUSH1 0x40 DUP4 ADD DUP5 PUSH2 0x2159 JUMP JUMPDEST SWAP5 SWAP4 POP POP POP POP JUMP JUMPDEST PUSH1 0x0 PUSH1 0x20 DUP3 ADD SWAP1 POP PUSH2 0x21B4 PUSH1 0x0 DUP4 ADD DUP5 PUSH2 0x2082 JUMP JUMPDEST SWAP3 SWAP2 POP POP JUMP JUMPDEST PUSH1 0x0 PUSH1 0x20 DUP3 ADD SWAP1 POP PUSH2 0x21CF PUSH1 0x0 DUP4 ADD DUP5 PUSH2 0x2091 JUMP JUMPDEST SWAP3 SWAP2 POP POP JUMP JUMPDEST PUSH1 0x0 PUSH1 0x20 DUP3 ADD SWAP1 POP PUSH2 0x21EA PUSH1 0x0 DUP4 ADD DUP5 PUSH2 0x20A0 JUMP JUMPDEST SWAP3 SWAP2 POP POP JUMP JUMPDEST PUSH1 0x0 PUSH1 0x20 DUP3 ADD SWAP1 POP PUSH2 0x2205 PUSH1 0x0 DUP4 ADD DUP5 PUSH2 0x20AF JUMP JUMPDEST SWAP3 SWAP2 POP POP JUMP JUMPDEST PUSH1 0x0 PUSH1 0x20 DUP3 ADD SWAP1 POP DUP2 DUP2 SUB PUSH1 0x0 DUP4 ADD MSTORE PUSH2 0x2224 DUP2 PUSH2 0x20CD JUMP JUMPDEST SWAP1 POP SWAP2 SWAP1 POP JUMP JUMPDEST PUSH1 0x0 PUSH1 0x20 DUP3 ADD SWAP1 POP DUP2 DUP2 SUB PUSH1 0x0 DUP4 ADD MSTORE PUSH2 0x2244 DUP2 PUSH2 0x20F0 JUMP JUMPDEST SWAP1 POP SWAP2 SWAP1 POP JUMP JUMPDEST PUSH1 0x0 PUSH1 0x20 DUP3 ADD SWAP1 POP DUP2 DUP2 SUB PUSH1 0x0 DUP4 ADD MSTORE PUSH2 0x2264 DUP2 PUSH2 0x2113 JUMP JUMPDEST SWAP1 POP SWAP2 SWAP1 POP JUMP JUMPDEST PUSH1 0x0 PUSH1 0x20 DUP3 ADD SWAP1 POP DUP2 DUP2 SUB PUSH1 0x0 DUP4 ADD MSTORE PUSH2 0x2284 DUP2 PUSH2 0x2136 JUMP JUMPDEST SWAP1 POP SWAP2 SWAP1 POP JUMP JUMPDEST PUSH1 0x0 PUSH1 0x20 DUP3 ADD SWAP1 POP PUSH2 0x22A0 PUSH1 0x0 DUP4 ADD DUP5 PUSH2 0x2159 JUMP JUMPDEST SWAP3 SWAP2 POP POP JUMP JUMPDEST PUSH1 0x0 PUSH1 0x40 DUP3 ADD SWAP1 POP PUSH2 0x22BB PUSH1 0x0 DUP4 ADD DUP6 PUSH2 0x2159 JUMP JUMPDEST PUSH2 0x22C8 PUSH1 0x20 DUP4 ADD DUP5 PUSH2 0x20BE JUMP JUMPDEST SWAP4 SWAP3 POP POP POP JUMP JUMPDEST PUSH1 0x0 PUSH1 0x80 DUP3 ADD SWAP1 POP PUSH2 0x22E4 PUSH1 0x0 DUP4 ADD DUP8 PUSH2 0x2159 JUMP JUMPDEST PUSH2 0x22F1 PUSH1 0x20 DUP4 ADD DUP7 PUSH2 0x20BE JUMP JUMPDEST PUSH2 0x22FE PUSH1 0x40 DUP4 ADD DUP6 PUSH2 0x2159 JUMP JUMPDEST PUSH2 0x230B PUSH1 0x60 DUP4 ADD DUP5 PUSH2 0x2073 JUMP JUMPDEST SWAP6 SWAP5 POP POP POP POP POP JUMP JUMPDEST PUSH1 0x0 PUSH1 0x40 DUP3 ADD SWAP1 POP PUSH2 0x2329 PUSH1 0x0 DUP4 ADD DUP6 PUSH2 0x2159 JUMP JUMPDEST PUSH2 0x2336 PUSH1 0x20 DUP4 ADD DUP5 PUSH2 0x2159 JUMP JUMPDEST SWAP4 SWAP3 POP POP POP JUMP JUMPDEST PUSH1 0x0 DUP3 DUP3 MSTORE PUSH1 0x20 DUP3 ADD SWAP1 POP SWAP3 SWAP2 POP POP JUMP JUMPDEST PUSH1 0x0 PUSH2 0x2359 DUP3 PUSH2 0x26F0 JUMP JUMPDEST SWAP2 POP PUSH2 0x2364 DUP4 PUSH2 0x26F0 JUMP JUMPDEST SWAP3 POP DUP2 PUSH32 0x7FFFFFFFFFFFFFFFFFFFFFFFFFFFFFFFFFFFFFFFFFFFFFFFFFFFFFFFFFFFFFFF SUB DUP4 SGT PUSH1 0x0 DUP4 SLT ISZERO AND ISZERO PUSH2 0x239F JUMPI PUSH2 0x239E PUSH2 0x27C7 JUMP JUMPDEST JUMPDEST DUP2 PUSH32 0x8000000000000000000000000000000000000000000000000000000000000000 SUB DUP4 SLT PUSH1 0x0 DUP4 SLT AND ISZERO PUSH2 0x23D7 JUMPI PUSH2 0x23D6 PUSH2 0x27C7 JUMP JUMPDEST JUMPDEST DUP3 DUP3 ADD SWAP1 POP SWAP3 SWAP2 POP POP JUMP JUMPDEST PUSH1 0x0 PUSH2 0x23ED DUP3 PUSH2 0x271A JUMP JUMPDEST SWAP2 POP PUSH2 0x23F8 DUP4 PUSH2 0x271A JUMP JUMPDEST SWAP3 POP DUP3 PUSH32 0xFFFFFFFFFFFFFFFFFFFFFFFFFFFFFFFFFFFFFFFFFFFFFFFFFFFFFFFFFFFFFFFF SUB DUP3 GT ISZERO PUSH2 0x242D JUMPI PUSH2 0x242C PUSH2 0x27C7 JUMP JUMPDEST JUMPDEST DUP3 DUP3 ADD SWAP1 POP SWAP3 SWAP2 POP POP JUMP JUMPDEST PUSH1 0x0 PUSH2 0x2443 DUP3 PUSH2 0x26F0 JUMP JUMPDEST SWAP2 POP PUSH2 0x244E DUP4 PUSH2 0x26F0 JUMP JUMPDEST SWAP3 POP DUP3 PUSH2 0x245E JUMPI PUSH2 0x245D PUSH2 0x27F6 JUMP JUMPDEST JUMPDEST PUSH1 0x1 PUSH1 0x0 SUB DUP4 EQ PUSH32 0x8000000000000000000000000000000000000000000000000000000000000000 DUP4 EQ AND ISZERO PUSH2 0x2497 JUMPI PUSH2 0x2496 PUSH2 0x27C7 JUMP JUMPDEST JUMPDEST DUP3 DUP3 SDIV SWAP1 POP SWAP3 SWAP2 POP POP JUMP JUMPDEST PUSH1 0x0 PUSH2 0x24AD DUP3 PUSH2 0x271A JUMP JUMPDEST SWAP2 POP PUSH2 0x24B8 DUP4 PUSH2 0x271A JUMP JUMPDEST SWAP3 POP DUP3 PUSH2 0x24C8 JUMPI PUSH2 0x24C7 PUSH2 0x27F6 JUMP JUMPDEST JUMPDEST DUP3 DUP3 DIV SWAP1 POP SWAP3 SWAP2 POP POP JUMP JUMPDEST PUSH1 0x0 PUSH2 0x24DE DUP3 PUSH2 0x26F0 JUMP JUMPDEST SWAP2 POP PUSH2 0x24E9 DUP4 PUSH2 0x26F0 JUMP JUMPDEST SWAP3 POP DUP3 PUSH32 0x7FFFFFFFFFFFFFFFFFFFFFFFFFFFFFFFFFFFFFFFFFFFFFFFFFFFFFFFFFFFFFFF DIV DUP3 GT PUSH1 0x0 DUP5 SGT PUSH1 0x0 DUP5 SGT AND AND ISZERO PUSH2 0x2528 JUMPI PUSH2 0x2527 PUSH2 0x27C7 JUMP JUMPDEST JUMPDEST DUP2 PUSH32 0x8000000000000000000000000000000000000000000000000000000000000000 SDIV DUP4 SLT PUSH1 0x0 DUP5 SLT PUSH1 0x0 DUP5 SGT AND AND ISZERO PUSH2 0x2565 JUMPI PUSH2 0x2564 PUSH2 0x27C7 JUMP JUMPDEST JUMPDEST DUP3 PUSH32 0x8000000000000000000000000000000000000000000000000000000000000000 SDIV DUP3 SLT PUSH1 0x0 DUP5 SGT PUSH1 0x0 DUP5 SLT AND AND ISZERO PUSH2 0x25A2 JUMPI PUSH2 0x25A1 PUSH2 0x27C7 JUMP JUMPDEST JUMPDEST DUP3 PUSH32 0x7FFFFFFFFFFFFFFFFFFFFFFFFFFFFFFFFFFFFFFFFFFFFFFFFFFFFFFFFFFFFFFF SDIV DUP3 SLT PUSH1 0x0 DUP5 SLT PUSH1 0x0 DUP5 SLT AND AND ISZERO PUSH2 0x25DF JUMPI PUSH2 0x25DE PUSH2 0x27C7 JUMP JUMPDEST JUMPDEST DUP3 DUP3 MUL SWAP1 POP SWAP3 SWAP2 POP POP JUMP JUMPDEST PUSH1 0x0 PUSH2 0x25F5 DUP3 PUSH2 0x271A JUMP JUMPDEST SWAP2 POP PUSH2 0x2600 DUP4 PUSH2 0x271A JUMP JUMPDEST SWAP3 POP DUP2 PUSH32 0xFFFFFFFFFFFFFFFFFFFFFFFFFFFFFFFFFFFFFFFFFFFFFFFFFFFFFFFFFFFFFFFF DIV DUP4 GT DUP3 ISZERO ISZERO AND ISZERO PUSH2 0x2639 JUMPI PUSH2 0x2638 PUSH2 0x27C7 JUMP JUMPDEST JUMPDEST DUP3 DUP3 MUL SWAP1 POP SWAP3 SWAP2 POP POP JUMP JUMPDEST PUSH1 0x0 PUSH2 0x264F DUP3 PUSH2 0x271A JUMP JUMPDEST SWAP2 POP PUSH2 0x265A DUP4 PUSH2 0x271A JUMP JUMPDEST SWAP3 POP DUP3 DUP3 LT ISZERO PUSH2 0x266D JUMPI PUSH2 0x266C PUSH2 0x27C7 JUMP JUMPDEST JUMPDEST DUP3 DUP3 SUB SWAP1 POP SWAP3 SWAP2 POP POP JUMP JUMPDEST PUSH1 0x0 PUSH2 0x2683 DUP3 PUSH2 0x26FA JUMP JUMPDEST SWAP1 POP SWAP2 SWAP1 POP JUMP JUMPDEST PUSH1 0x0 PUSH2 0x2695 DUP3 PUSH2 0x26FA JUMP JUMPDEST SWAP1 POP SWAP2 SWAP1 POP JUMP JUMPDEST PUSH1 0x0 DUP2 ISZERO ISZERO SWAP1 POP SWAP2 SWAP1 POP JUMP JUMPDEST PUSH1 0x0 DUP2 SWAP1 POP SWAP2 SWAP1 POP JUMP JUMPDEST PUSH1 0x0 PUSH32 0xFFFFFFFF00000000000000000000000000000000000000000000000000000000 DUP3 AND SWAP1 POP SWAP2 SWAP1 POP JUMP JUMPDEST PUSH1 0x0 PUSH2 0x26E9 DUP3 PUSH2 0x2678 JUMP JUMPDEST SWAP1 POP SWAP2 SWAP1 POP JUMP JUMPDEST PUSH1 0x0 DUP2 SWAP1 POP SWAP2 SWAP1 POP JUMP JUMPDEST PUSH1 0x0 PUSH20 0xFFFFFFFFFFFFFFFFFFFFFFFFFFFFFFFFFFFFFFFF DUP3 AND SWAP1 POP SWAP2 SWAP1 POP JUMP JUMPDEST PUSH1 0x0 DUP2 SWAP1 POP SWAP2 SWAP1 POP JUMP JUMPDEST PUSH1 0x0 PUSH2 0x272F DUP3 PUSH2 0x26B2 JUMP JUMPDEST SWAP1 POP SWAP2 SWAP1 POP JUMP JUMPDEST PUSH1 0x0 PUSH2 0x2741 DUP3 PUSH2 0x275A JUMP JUMPDEST SWAP1 POP SWAP2 SWAP1 POP JUMP JUMPDEST PUSH1 0x0 PUSH2 0x2753 DUP3 PUSH2 0x275A JUMP JUMPDEST SWAP1 POP SWAP2 SWAP1 POP JUMP JUMPDEST PUSH1 0x0 PUSH2 0x2765 DUP3 PUSH2 0x276C JUMP JUMPDEST SWAP1 POP SWAP2 SWAP1 POP JUMP JUMPDEST PUSH1 0x0 PUSH2 0x2777 DUP3 PUSH2 0x26FA JUMP JUMPDEST SWAP1 POP SWAP2 SWAP1 POP JUMP JUMPDEST PUSH1 0x0 PUSH2 0x2789 DUP3 PUSH2 0x271A JUMP JUMPDEST SWAP2 POP PUSH32 0xFFFFFFFFFFFFFFFFFFFFFFFFFFFFFFFFFFFFFFFFFFFFFFFFFFFFFFFFFFFFFFFF DUP3 EQ ISZERO PUSH2 0x27BC JUMPI PUSH2 0x27BB PUSH2 0x27C7 JUMP JUMPDEST JUMPDEST PUSH1 0x1 DUP3 ADD SWAP1 POP SWAP2 SWAP1 POP JUMP JUMPDEST PUSH32 0x4E487B7100000000000000000000000000000000000000000000000000000000 PUSH1 0x0 MSTORE PUSH1 0x11 PUSH1 0x4 MSTORE PUSH1 0x24 PUSH1 0x0 REVERT JUMPDEST PUSH32 0x4E487B7100000000000000000000000000000000000000000000000000000000 PUSH1 0x0 MSTORE PUSH1 0x12 PUSH1 0x4 MSTORE PUSH1 0x24 PUSH1 0x0 REVERT JUMPDEST PUSH1 0x0 DUP1 REVERT JUMPDEST PUSH32 0x5468616E6B7320746F206465706F736974206D6F726520637573640000000000 PUSH1 0x0 DUP3 ADD MSTORE POP JUMP JUMPDEST PUSH32 0x796F75722062616C616E6365206973206E6F742073756666696369656E740000 PUSH1 0x0 DUP3 ADD MSTORE POP JUMP JUMPDEST PUSH32 0x6E6F742073756666696369656E74200000000000000000000000000000000000 PUSH1 0x0 DUP3 ADD MSTORE POP JUMP JUMPDEST PUSH32 0x706C656173652073656E642063656C6F20616D6F756E74203E3D203230205553 PUSH1 0x0 DUP3 ADD MSTORE PUSH32 0x4400000000000000000000000000000000000000000000000000000000000000 PUSH1 0x20 DUP3 ADD MSTORE POP JUMP JUMPDEST PUSH2 0x28FD DUP2 PUSH2 0x2678 JUMP JUMPDEST DUP2 EQ PUSH2 0x2908 JUMPI PUSH1 0x0 DUP1 REVERT JUMPDEST POP JUMP JUMPDEST PUSH2 0x2914 DUP2 PUSH2 0x268A JUMP JUMPDEST DUP2 EQ PUSH2 0x291F JUMPI PUSH1 0x0 DUP1 REVERT JUMPDEST POP JUMP JUMPDEST PUSH2 0x292B DUP2 PUSH2 0x269C JUMP JUMPDEST DUP2 EQ PUSH2 0x2936 JUMPI PUSH1 0x0 DUP1 REVERT JUMPDEST POP JUMP JUMPDEST PUSH2 0x2942 DUP2 PUSH2 0x26A8 JUMP JUMPDEST DUP2 EQ PUSH2 0x294D JUMPI PUSH1 0x0 DUP1 REVERT JUMPDEST POP JUMP JUMPDEST PUSH2 0x2959 DUP2 PUSH2 0x26DE JUMP JUMPDEST DUP2 EQ PUSH2 0x2964 JUMPI PUSH1 0x0 DUP1 REVERT JUMPDEST POP JUMP JUMPDEST PUSH2 0x2970 DUP2 PUSH2 0x26F0 JUMP JUMPDEST DUP2 EQ PUSH2 0x297B JUMPI PUSH1 0x0 DUP1 REVERT JUMPDEST POP JUMP JUMPDEST PUSH2 0x2987 DUP2 PUSH2 0x271A JUMP JUMPDEST DUP2 EQ PUSH2 0x2992 JUMPI PUSH1 0x0 DUP1 REVERT JUMPDEST POP JUMP INVALID LOG2 PUSH5 0x6970667358 0x22 SLT KECCAK256 PUSH17 0xC05E945214AA15EF5E72F01EA007A475F 0xF CODESIZE PUSH15 0x714F497DEF63E2629C140B64736F6C PUSH4 0x43000807 STOP CALLER "
				},
				"gasEstimates": {
					"creation": {
						"codeDepositCost": "2139800",
						"executionCost": "infinite",
						"totalCost": "infinite"
					},
					"external": {
						"DepositCelo(address)": "infinite",
						"DepositCusd(address,uint256)": "infinite",
						"DepositCusdCredit(address,address,uint256)": "infinite",
						"EthUsdPrice()": "2644",
						"celoEurPrice()": "2666",
						"celoUsdPrice()": "2688",
						"checkDepositExist(address)": "2935",
						"depositToActivist(address)": "infinite",
						"depositersLogs(address)": "infinite",
						"index()": "2497",
						"updateCeloEurPriceFeed()": "infinite",
						"updateCeloUSDPriceFeed()": "infinite",
						"updateEthUsdPriceFeed()": "infinite",
						"withdrowCelo(address)": "infinite",
						"withdrowCusd(address)": "infinite",
						"witnetPriceRouter()": "2686"
					},
					"internal": {
						"getCeloEurPrice()": "infinite",
						"getCeloUsdPrice()": "infinite",
						"getEthUsdPrice()": "infinite"
					}
				},
				"methodIdentifiers": {
					"DepositCelo(address)": "09a61767",
					"DepositCusd(address,uint256)": "4f55ae54",
					"DepositCusdCredit(address,address,uint256)": "7f28ee34",
					"EthUsdPrice()": "b447b0a5",
					"celoEurPrice()": "c8525f81",
					"celoUsdPrice()": "df3d4e32",
					"checkDepositExist(address)": "43d37940",
					"depositToActivist(address)": "aea5da5b",
					"depositersLogs(address)": "80ad10df",
					"index()": "2986c0e5",
					"updateCeloEurPriceFeed()": "35178e87",
					"updateCeloUSDPriceFeed()": "32eb658c",
					"updateEthUsdPriceFeed()": "0fd19c15",
					"withdrowCelo(address)": "893c4a84",
					"withdrowCusd(address)": "b1ddf386",
					"witnetPriceRouter()": "4fc87f24"
				}
			},
			"storageLayout": {
				"storage": [
					{
						"astId": 101,
						"contract": "contracts/Hero_Deposit/Deposit.sol:DepositOracle",
						"label": "witnetPriceRouter",
						"offset": 0,
						"slot": "0",
						"type": "t_contract(IWitnetPriceRouter)1198"
					},
					{
						"astId": 104,
						"contract": "contracts/Hero_Deposit/Deposit.sol:DepositOracle",
						"label": "celoEurPrice",
						"offset": 0,
						"slot": "1",
						"type": "t_contract(IWitnetPriceFeed)1110"
					},
					{
						"astId": 107,
						"contract": "contracts/Hero_Deposit/Deposit.sol:DepositOracle",
						"label": "celoUsdPrice",
						"offset": 0,
						"slot": "2",
						"type": "t_contract(IWitnetPriceFeed)1110"
					},
					{
						"astId": 110,
						"contract": "contracts/Hero_Deposit/Deposit.sol:DepositOracle",
						"label": "EthUsdPrice",
						"offset": 0,
						"slot": "3",
						"type": "t_contract(IWitnetPriceFeed)1110"
					},
					{
						"astId": 129,
						"contract": "contracts/Hero_Deposit/Deposit.sol:DepositOracle",
						"label": "depositToActivist",
						"offset": 0,
						"slot": "4",
						"type": "t_mapping(t_address,t_struct(ativistBank)124_storage)"
					},
					{
						"astId": 132,
						"contract": "contracts/Hero_Deposit/Deposit.sol:DepositOracle",
						"label": "CusdERC",
						"offset": 0,
						"slot": "5",
						"type": "t_contract(IERC20)77"
					},
					{
						"astId": 160,
						"contract": "contracts/Hero_Deposit/Deposit.sol:DepositOracle",
						"label": "dep",
						"offset": 0,
						"slot": "6",
						"type": "t_struct(deposit)119_storage"
					},
					{
						"astId": 163,
						"contract": "contracts/Hero_Deposit/Deposit.sol:DepositOracle",
						"label": "index",
						"offset": 0,
						"slot": "10",
						"type": "t_uint256"
					},
					{
						"astId": 186,
						"contract": "contracts/Hero_Deposit/Deposit.sol:DepositOracle",
						"label": "depositersLogs",
						"offset": 0,
						"slot": "11",
						"type": "t_mapping(t_address,t_struct(deposit)119_storage)"
					},
					{
						"astId": 188,
						"contract": "contracts/Hero_Deposit/Deposit.sol:DepositOracle",
						"label": "owner",
						"offset": 0,
						"slot": "12",
						"type": "t_address"
					},
					{
						"astId": 190,
						"contract": "contracts/Hero_Deposit/Deposit.sol:DepositOracle",
						"label": "locked",
						"offset": 20,
						"slot": "12",
						"type": "t_bool"
					}
				],
				"types": {
					"t_address": {
						"encoding": "inplace",
						"label": "address",
						"numberOfBytes": "20"
					},
					"t_bool": {
						"encoding": "inplace",
						"label": "bool",
						"numberOfBytes": "1"
					},
					"t_contract(IERC20)77": {
						"encoding": "inplace",
						"label": "contract IERC20",
						"numberOfBytes": "20"
					},
					"t_contract(IWitnetPriceFeed)1110": {
						"encoding": "inplace",
						"label": "contract IWitnetPriceFeed",
						"numberOfBytes": "20"
					},
					"t_contract(IWitnetPriceRouter)1198": {
						"encoding": "inplace",
						"label": "contract IWitnetPriceRouter",
						"numberOfBytes": "20"
					},
					"t_int256": {
						"encoding": "inplace",
						"label": "int256",
						"numberOfBytes": "32"
					},
					"t_mapping(t_address,t_struct(ativistBank)124_storage)": {
						"encoding": "mapping",
						"key": "t_address",
						"label": "mapping(address => struct DepositOracle.ativistBank)",
						"numberOfBytes": "32",
						"value": "t_struct(ativistBank)124_storage"
					},
					"t_mapping(t_address,t_struct(deposit)119_storage)": {
						"encoding": "mapping",
						"key": "t_address",
						"label": "mapping(address => struct DepositOracle.deposit)",
						"numberOfBytes": "32",
						"value": "t_struct(deposit)119_storage"
					},
					"t_struct(ativistBank)124_storage": {
						"encoding": "inplace",
						"label": "struct DepositOracle.ativistBank",
						"members": [
							{
								"astId": 121,
								"contract": "contracts/Hero_Deposit/Deposit.sol:DepositOracle",
								"label": "celoCoin",
								"offset": 0,
								"slot": "0",
								"type": "t_uint256"
							},
							{
								"astId": 123,
								"contract": "contracts/Hero_Deposit/Deposit.sol:DepositOracle",
								"label": "usdcCoin",
								"offset": 0,
								"slot": "1",
								"type": "t_uint256"
							}
						],
						"numberOfBytes": "64"
					},
					"t_struct(deposit)119_storage": {
						"encoding": "inplace",
						"label": "struct DepositOracle.deposit",
						"members": [
							{
								"astId": 112,
								"contract": "contracts/Hero_Deposit/Deposit.sol:DepositOracle",
								"label": "id",
								"offset": 0,
								"slot": "0",
								"type": "t_uint256"
							},
							{
								"astId": 114,
								"contract": "contracts/Hero_Deposit/Deposit.sol:DepositOracle",
								"label": "totalDepositsValue",
								"offset": 0,
								"slot": "1",
								"type": "t_int256"
							},
							{
								"astId": 116,
								"contract": "contracts/Hero_Deposit/Deposit.sol:DepositOracle",
								"label": "totalDepositTimes",
								"offset": 0,
								"slot": "2",
								"type": "t_uint256"
							},
							{
								"astId": 118,
								"contract": "contracts/Hero_Deposit/Deposit.sol:DepositOracle",
								"label": "userWallet",
								"offset": 0,
								"slot": "3",
								"type": "t_address"
							}
						],
						"numberOfBytes": "128"
					},
					"t_uint256": {
						"encoding": "inplace",
						"label": "uint256",
						"numberOfBytes": "32"
					}
				}
			},
			"userdoc": {
				"kind": "user",
				"methods": {
					"constructor": {
						"notice": "IMPORTANT: replace the address below with the WitnetPriceRouter address of the network you are using! Please find the address here: https://docs.witnet.io/smart-contracts/price-feeds/contract-addresses"
					},
					"updateCeloUSDPriceFeed()": {
						"notice": "Detects if the WitnetPriceRouter is now pointing to a different IWitnetPriceFeed implementation:"
					}
				},
				"version": 1
			}
		}
	}
}